{
	"contracts/minsubus.sol": {
		"Database": {
			"abi": [
				{
					"inputs": [
						{
							"internalType": "address",
							"name": "bus",
							"type": "address"
						},
						{
							"internalType": "string",
							"name": "destination",
							"type": "string"
						},
						{
							"internalType": "uint256",
							"name": "start_time",
							"type": "uint256"
						},
						{
							"internalType": "string",
							"name": "busNum",
							"type": "string"
						}
					],
					"name": "addBus",
					"outputs": [],
					"stateMutability": "nonpayable",
					"type": "function"
				},
				{
					"inputs": [
						{
							"internalType": "string",
							"name": "student_name",
							"type": "string"
						},
						{
							"internalType": "uint256",
							"name": "studentNum",
							"type": "uint256"
						},
						{
							"internalType": "address",
							"name": "students",
							"type": "address"
						}
					],
					"name": "addStudent",
					"outputs": [],
					"stateMutability": "nonpayable",
					"type": "function"
				},
				{
					"inputs": [
						{
							"internalType": "uint256",
							"name": "seat_num",
							"type": "uint256"
						},
						{
							"internalType": "string",
							"name": "student_name",
							"type": "string"
						},
						{
							"internalType": "uint256",
							"name": "student_id",
							"type": "uint256"
						}
					],
					"name": "reservation_seat",
					"outputs": [],
					"stateMutability": "nonpayable",
					"type": "function"
				}
			],
			"devdoc": {
				"details": "Save Professor",
				"kind": "dev",
				"methods": {},
				"title": "Database",
				"version": 1
			},
			"evm": {
				"assembly": "    /* \"contracts/minsubus.sol\":149:1826  contract Database {... */\n  mstore(0x40, 0x80)\n  callvalue\n  dup1\n  iszero\n  tag_1\n  jumpi\n  0x00\n  dup1\n  revert\ntag_1:\n  pop\n  dataSize(sub_0)\n  dup1\n  dataOffset(sub_0)\n  0x00\n  codecopy\n  0x00\n  return\nstop\n\nsub_0: assembly {\n        /* \"contracts/minsubus.sol\":149:1826  contract Database {... */\n      mstore(0x40, 0x80)\n      callvalue\n      dup1\n      iszero\n      tag_1\n      jumpi\n      0x00\n      dup1\n      revert\n    tag_1:\n      pop\n      jumpi(tag_2, lt(calldatasize, 0x04))\n      shr(0xe0, calldataload(0x00))\n      dup1\n      0x9a4d3c\n      eq\n      tag_3\n      jumpi\n      dup1\n      0x91853934\n      eq\n      tag_4\n      jumpi\n      dup1\n      0xe9e8a17c\n      eq\n      tag_5\n      jumpi\n    tag_2:\n      0x00\n      dup1\n      revert\n        /* \"contracts/minsubus.sol\":1399:1822  function addBus(address bus, string memory destination, uint start_time, string memory busNum) public {... */\n    tag_3:\n      tag_6\n      0x04\n      dup1\n      calldatasize\n      sub\n      dup2\n      add\n      swap1\n      tag_7\n      swap2\n      swap1\n      tag_8\n      jump\t// in\n    tag_7:\n      tag_9\n      jump\t// in\n    tag_6:\n      stop\n        /* \"contracts/minsubus.sol\":1059:1223  function reservation_seat(uint seat_num, string memory student_name, uint student_id) public {... */\n    tag_4:\n      tag_10\n      0x04\n      dup1\n      calldatasize\n      sub\n      dup2\n      add\n      swap1\n      tag_11\n      swap2\n      swap1\n      tag_12\n      jump\t// in\n    tag_11:\n      tag_13\n      jump\t// in\n    tag_10:\n      stop\n        /* \"contracts/minsubus.sol\":1229:1393  function addStudent(string memory student_name, uint studentNum, address students) public {... */\n    tag_5:\n      tag_14\n      0x04\n      dup1\n      calldatasize\n      sub\n      dup2\n      add\n      swap1\n      tag_15\n      swap2\n      swap1\n      tag_16\n      jump\t// in\n    tag_15:\n      tag_17\n      jump\t// in\n    tag_14:\n      stop\n        /* \"contracts/minsubus.sol\":1399:1822  function addBus(address bus, string memory destination, uint start_time, string memory busNum) public {... */\n    tag_9:\n        /* \"contracts/minsubus.sol\":1509:1529  uint[45] memory seat */\n      tag_19\n      tag_20\n      jump\t// in\n    tag_19:\n        /* \"contracts/minsubus.sol\":1773:1815  Bus_DB(bus, destination, start_time, seat) */\n      mload(0x40)\n      dup1\n      0x80\n      add\n      0x40\n      mstore\n      dup1\n        /* \"contracts/minsubus.sol\":1780:1783  bus */\n      dup7\n        /* \"contracts/minsubus.sol\":1773:1815  Bus_DB(bus, destination, start_time, seat) */\n      0xffffffffffffffffffffffffffffffffffffffff\n      and\n      dup2\n      mstore\n      0x20\n      add\n        /* \"contracts/minsubus.sol\":1785:1796  destination */\n      dup6\n        /* \"contracts/minsubus.sol\":1773:1815  Bus_DB(bus, destination, start_time, seat) */\n      dup2\n      mstore\n      0x20\n      add\n        /* \"contracts/minsubus.sol\":1798:1808  start_time */\n      dup5\n        /* \"contracts/minsubus.sol\":1773:1815  Bus_DB(bus, destination, start_time, seat) */\n      dup2\n      mstore\n      0x20\n      add\n        /* \"contracts/minsubus.sol\":1810:1814  seat */\n      dup3\n        /* \"contracts/minsubus.sol\":1773:1815  Bus_DB(bus, destination, start_time, seat) */\n      dup2\n      mstore\n      pop\n        /* \"contracts/minsubus.sol\":1757:1762  BusDB */\n      0x05\n        /* \"contracts/minsubus.sol\":1763:1769  busNum */\n      dup4\n        /* \"contracts/minsubus.sol\":1757:1770  BusDB[busNum] */\n      mload(0x40)\n      tag_21\n      swap2\n      swap1\n      tag_22\n      jump\t// in\n    tag_21:\n      swap1\n      dup2\n      mstore\n      0x20\n      add\n      mload(0x40)\n      dup1\n      swap2\n      sub\n      swap1\n      keccak256\n        /* \"contracts/minsubus.sol\":1757:1815  BusDB[busNum] = Bus_DB(bus, destination, start_time, seat) */\n      0x00\n      dup3\n      add\n      mload\n      dup2\n      0x00\n      add\n      exp(0x0100, 0x00)\n      dup2\n      sload\n      dup2\n      0xffffffffffffffffffffffffffffffffffffffff\n      mul\n      not\n      and\n      swap1\n      dup4\n      0xffffffffffffffffffffffffffffffffffffffff\n      and\n      mul\n      or\n      swap1\n      sstore\n      pop\n      0x20\n      dup3\n      add\n      mload\n      dup2\n      0x01\n      add\n      swap1\n      dup1\n      mload\n      swap1\n      0x20\n      add\n      swap1\n      tag_23\n      swap3\n      swap2\n      swap1\n      tag_24\n      jump\t// in\n    tag_23:\n      pop\n      0x40\n      dup3\n      add\n      mload\n      dup2\n      0x02\n      add\n      sstore\n      0x60\n      dup3\n      add\n      mload\n      dup2\n      0x03\n      add\n      swap1\n      0x2d\n      tag_25\n      swap3\n      swap2\n      swap1\n      tag_26\n      jump\t// in\n    tag_25:\n      pop\n      swap1\n      pop\n      pop\n        /* \"contracts/minsubus.sol\":1501:1822  {... */\n      pop\n        /* \"contracts/minsubus.sol\":1399:1822  function addBus(address bus, string memory destination, uint start_time, string memory busNum) public {... */\n      pop\n      pop\n      pop\n      pop\n      jump\t// out\n        /* \"contracts/minsubus.sol\":1059:1223  function reservation_seat(uint seat_num, string memory student_name, uint student_id) public {... */\n    tag_13:\n        /* \"contracts/minsubus.sol\":1182:1216  bus_seat(student_name, student_id) */\n      mload(0x40)\n      dup1\n      0x40\n      add\n      0x40\n      mstore\n      dup1\n        /* \"contracts/minsubus.sol\":1191:1203  student_name */\n      dup4\n        /* \"contracts/minsubus.sol\":1182:1216  bus_seat(student_name, student_id) */\n      dup2\n      mstore\n      0x20\n      add\n        /* \"contracts/minsubus.sol\":1205:1215  student_id */\n      dup3\n        /* \"contracts/minsubus.sol\":1182:1216  bus_seat(student_name, student_id) */\n      dup2\n      mstore\n      pop\n        /* \"contracts/minsubus.sol\":1162:1169  BusSeat */\n      0x07\n        /* \"contracts/minsubus.sol\":1162:1179  BusSeat[seat_num] */\n      0x00\n        /* \"contracts/minsubus.sol\":1170:1178  seat_num */\n      dup6\n        /* \"contracts/minsubus.sol\":1162:1179  BusSeat[seat_num] */\n      dup2\n      mstore\n      0x20\n      add\n      swap1\n      dup2\n      mstore\n      0x20\n      add\n      0x00\n      keccak256\n        /* \"contracts/minsubus.sol\":1162:1216  BusSeat[seat_num] = bus_seat(student_name, student_id) */\n      0x00\n      dup3\n      add\n      mload\n      dup2\n      0x00\n      add\n      swap1\n      dup1\n      mload\n      swap1\n      0x20\n      add\n      swap1\n      tag_28\n      swap3\n      swap2\n      swap1\n      tag_24\n      jump\t// in\n    tag_28:\n      pop\n      0x20\n      dup3\n      add\n      mload\n      dup2\n      0x01\n      add\n      sstore\n      swap1\n      pop\n      pop\n        /* \"contracts/minsubus.sol\":1059:1223  function reservation_seat(uint seat_num, string memory student_name, uint student_id) public {... */\n      pop\n      pop\n      pop\n      jump\t// out\n        /* \"contracts/minsubus.sol\":1229:1393  function addStudent(string memory student_name, uint studentNum, address students) public {... */\n    tag_17:\n        /* \"contracts/minsubus.sol\":1352:1386  Student_DB(student_name, students) */\n      mload(0x40)\n      dup1\n      0x40\n      add\n      0x40\n      mstore\n      dup1\n        /* \"contracts/minsubus.sol\":1363:1375  student_name */\n      dup5\n        /* \"contracts/minsubus.sol\":1352:1386  Student_DB(student_name, students) */\n      dup2\n      mstore\n      0x20\n      add\n        /* \"contracts/minsubus.sol\":1377:1385  students */\n      dup3\n        /* \"contracts/minsubus.sol\":1352:1386  Student_DB(student_name, students) */\n      0xffffffffffffffffffffffffffffffffffffffff\n      and\n      dup2\n      mstore\n      pop\n        /* \"contracts/minsubus.sol\":1328:1337  StudentDB */\n      0x06\n        /* \"contracts/minsubus.sol\":1328:1349  StudentDB[studentNum] */\n      0x00\n        /* \"contracts/minsubus.sol\":1338:1348  studentNum */\n      dup5\n        /* \"contracts/minsubus.sol\":1328:1349  StudentDB[studentNum] */\n      dup2\n      mstore\n      0x20\n      add\n      swap1\n      dup2\n      mstore\n      0x20\n      add\n      0x00\n      keccak256\n        /* \"contracts/minsubus.sol\":1328:1386  StudentDB[studentNum] = Student_DB(student_name, students) */\n      0x00\n      dup3\n      add\n      mload\n      dup2\n      0x00\n      add\n      swap1\n      dup1\n      mload\n      swap1\n      0x20\n      add\n      swap1\n      tag_30\n      swap3\n      swap2\n      swap1\n      tag_24\n      jump\t// in\n    tag_30:\n      pop\n      0x20\n      dup3\n      add\n      mload\n      dup2\n      0x01\n      add\n      exp(0x0100, 0x00)\n      dup2\n      sload\n      dup2\n      0xffffffffffffffffffffffffffffffffffffffff\n      mul\n      not\n      and\n      swap1\n      dup4\n      0xffffffffffffffffffffffffffffffffffffffff\n      and\n      mul\n      or\n      swap1\n      sstore\n      pop\n      swap1\n      pop\n      pop\n        /* \"contracts/minsubus.sol\":1229:1393  function addStudent(string memory student_name, uint studentNum, address students) public {... */\n      pop\n      pop\n      pop\n      jump\t// out\n    tag_20:\n      mload(0x40)\n      dup1\n      0x05a0\n      add\n      0x40\n      mstore\n      dup1\n      0x2d\n      swap1\n      0x20\n      dup3\n      mul\n      dup1\n      calldatasize\n      dup4\n      calldatacopy\n      dup1\n      dup3\n      add\n      swap2\n      pop\n      pop\n      swap1\n      pop\n      pop\n      swap1\n      jump\t// out\n    tag_24:\n      dup3\n      dup1\n      sload\n      tag_31\n      swap1\n      tag_32\n      jump\t// in\n    tag_31:\n      swap1\n      0x00\n      mstore\n      keccak256(0x00, 0x20)\n      swap1\n      0x1f\n      add\n      0x20\n      swap1\n      div\n      dup2\n      add\n      swap3\n      dup3\n      tag_34\n      jumpi\n      0x00\n      dup6\n      sstore\n      jump(tag_33)\n    tag_34:\n      dup3\n      0x1f\n      lt\n      tag_35\n      jumpi\n      dup1\n      mload\n      not(0xff)\n      and\n      dup4\n      dup1\n      add\n      or\n      dup6\n      sstore\n      jump(tag_33)\n    tag_35:\n      dup3\n      dup1\n      add\n      0x01\n      add\n      dup6\n      sstore\n      dup3\n      iszero\n      tag_33\n      jumpi\n      swap2\n      dup3\n      add\n    tag_36:\n      dup3\n      dup2\n      gt\n      iszero\n      tag_37\n      jumpi\n      dup3\n      mload\n      dup3\n      sstore\n      swap2\n      0x20\n      add\n      swap2\n      swap1\n      0x01\n      add\n      swap1\n      jump(tag_36)\n    tag_37:\n    tag_33:\n      pop\n      swap1\n      pop\n      tag_38\n      swap2\n      swap1\n      tag_39\n      jump\t// in\n    tag_38:\n      pop\n      swap1\n      jump\t// out\n    tag_26:\n      dup3\n      0x2d\n      dup2\n      add\n      swap3\n      dup3\n      iszero\n      tag_40\n      jumpi\n      swap2\n      0x20\n      mul\n      dup3\n      add\n    tag_41:\n      dup3\n      dup2\n      gt\n      iszero\n      tag_42\n      jumpi\n      dup3\n      mload\n      dup3\n      sstore\n      swap2\n      0x20\n      add\n      swap2\n      swap1\n      0x01\n      add\n      swap1\n      jump(tag_41)\n    tag_42:\n    tag_40:\n      pop\n      swap1\n      pop\n      tag_43\n      swap2\n      swap1\n      tag_39\n      jump\t// in\n    tag_43:\n      pop\n      swap1\n      jump\t// out\n    tag_39:\n    tag_44:\n      dup1\n      dup3\n      gt\n      iszero\n      tag_45\n      jumpi\n      0x00\n      dup2\n      0x00\n      swap1\n      sstore\n      pop\n      0x01\n      add\n      jump(tag_44)\n    tag_45:\n      pop\n      swap1\n      jump\t// out\n        /* \"#utility.yul\":7:419   */\n    tag_47:\n        /* \"#utility.yul\":85:90   */\n      0x00\n        /* \"#utility.yul\":110:176   */\n      tag_49\n        /* \"#utility.yul\":126:175   */\n      tag_50\n        /* \"#utility.yul\":168:174   */\n      dup5\n        /* \"#utility.yul\":126:175   */\n      tag_51\n      jump\t// in\n    tag_50:\n        /* \"#utility.yul\":110:176   */\n      tag_52\n      jump\t// in\n    tag_49:\n        /* \"#utility.yul\":101:176   */\n      swap1\n      pop\n        /* \"#utility.yul\":199:205   */\n      dup3\n        /* \"#utility.yul\":192:197   */\n      dup2\n        /* \"#utility.yul\":185:206   */\n      mstore\n        /* \"#utility.yul\":237:241   */\n      0x20\n        /* \"#utility.yul\":230:235   */\n      dup2\n        /* \"#utility.yul\":226:242   */\n      add\n        /* \"#utility.yul\":275:278   */\n      dup5\n        /* \"#utility.yul\":266:272   */\n      dup5\n        /* \"#utility.yul\":261:264   */\n      dup5\n        /* \"#utility.yul\":257:273   */\n      add\n        /* \"#utility.yul\":254:279   */\n      gt\n        /* \"#utility.yul\":251:363   */\n      iszero\n      tag_53\n      jumpi\n        /* \"#utility.yul\":282:361   */\n      tag_54\n      tag_55\n      jump\t// in\n    tag_54:\n        /* \"#utility.yul\":251:363   */\n    tag_53:\n        /* \"#utility.yul\":372:413   */\n      tag_56\n        /* \"#utility.yul\":406:412   */\n      dup5\n        /* \"#utility.yul\":401:404   */\n      dup3\n        /* \"#utility.yul\":396:399   */\n      dup6\n        /* \"#utility.yul\":372:413   */\n      tag_57\n      jump\t// in\n    tag_56:\n        /* \"#utility.yul\":91:419   */\n      pop\n        /* \"#utility.yul\":7:419   */\n      swap4\n      swap3\n      pop\n      pop\n      pop\n      jump\t// out\n        /* \"#utility.yul\":425:564   */\n    tag_58:\n        /* \"#utility.yul\":471:476   */\n      0x00\n        /* \"#utility.yul\":509:515   */\n      dup2\n        /* \"#utility.yul\":496:516   */\n      calldataload\n        /* \"#utility.yul\":487:516   */\n      swap1\n      pop\n        /* \"#utility.yul\":525:558   */\n      tag_60\n        /* \"#utility.yul\":552:557   */\n      dup2\n        /* \"#utility.yul\":525:558   */\n      tag_61\n      jump\t// in\n    tag_60:\n        /* \"#utility.yul\":425:564   */\n      swap3\n      swap2\n      pop\n      pop\n      jump\t// out\n        /* \"#utility.yul\":584:924   */\n    tag_62:\n        /* \"#utility.yul\":640:645   */\n      0x00\n        /* \"#utility.yul\":689:692   */\n      dup3\n        /* \"#utility.yul\":682:686   */\n      0x1f\n        /* \"#utility.yul\":674:680   */\n      dup4\n        /* \"#utility.yul\":670:687   */\n      add\n        /* \"#utility.yul\":666:693   */\n      slt\n        /* \"#utility.yul\":656:778   */\n      tag_64\n      jumpi\n        /* \"#utility.yul\":697:776   */\n      tag_65\n      tag_66\n      jump\t// in\n    tag_65:\n        /* \"#utility.yul\":656:778   */\n    tag_64:\n        /* \"#utility.yul\":814:820   */\n      dup2\n        /* \"#utility.yul\":801:821   */\n      calldataload\n        /* \"#utility.yul\":839:918   */\n      tag_67\n        /* \"#utility.yul\":914:917   */\n      dup5\n        /* \"#utility.yul\":906:912   */\n      dup3\n        /* \"#utility.yul\":899:903   */\n      0x20\n        /* \"#utility.yul\":891:897   */\n      dup7\n        /* \"#utility.yul\":887:904   */\n      add\n        /* \"#utility.yul\":839:918   */\n      tag_47\n      jump\t// in\n    tag_67:\n        /* \"#utility.yul\":830:918   */\n      swap2\n      pop\n        /* \"#utility.yul\":646:924   */\n      pop\n        /* \"#utility.yul\":584:924   */\n      swap3\n      swap2\n      pop\n      pop\n      jump\t// out\n        /* \"#utility.yul\":930:1069   */\n    tag_68:\n        /* \"#utility.yul\":976:981   */\n      0x00\n        /* \"#utility.yul\":1014:1020   */\n      dup2\n        /* \"#utility.yul\":1001:1021   */\n      calldataload\n        /* \"#utility.yul\":992:1021   */\n      swap1\n      pop\n        /* \"#utility.yul\":1030:1063   */\n      tag_70\n        /* \"#utility.yul\":1057:1062   */\n      dup2\n        /* \"#utility.yul\":1030:1063   */\n      tag_71\n      jump\t// in\n    tag_70:\n        /* \"#utility.yul\":930:1069   */\n      swap3\n      swap2\n      pop\n      pop\n      jump\t// out\n        /* \"#utility.yul\":1075:2200   */\n    tag_8:\n        /* \"#utility.yul\":1181:1187   */\n      0x00\n        /* \"#utility.yul\":1189:1195   */\n      dup1\n        /* \"#utility.yul\":1197:1203   */\n      0x00\n        /* \"#utility.yul\":1205:1211   */\n      dup1\n        /* \"#utility.yul\":1254:1257   */\n      0x80\n        /* \"#utility.yul\":1242:1251   */\n      dup6\n        /* \"#utility.yul\":1233:1240   */\n      dup8\n        /* \"#utility.yul\":1229:1252   */\n      sub\n        /* \"#utility.yul\":1225:1258   */\n      slt\n        /* \"#utility.yul\":1222:1342   */\n      iszero\n      tag_73\n      jumpi\n        /* \"#utility.yul\":1261:1340   */\n      tag_74\n      tag_75\n      jump\t// in\n    tag_74:\n        /* \"#utility.yul\":1222:1342   */\n    tag_73:\n        /* \"#utility.yul\":1381:1382   */\n      0x00\n        /* \"#utility.yul\":1406:1459   */\n      tag_76\n        /* \"#utility.yul\":1451:1458   */\n      dup8\n        /* \"#utility.yul\":1442:1448   */\n      dup3\n        /* \"#utility.yul\":1431:1440   */\n      dup9\n        /* \"#utility.yul\":1427:1449   */\n      add\n        /* \"#utility.yul\":1406:1459   */\n      tag_58\n      jump\t// in\n    tag_76:\n        /* \"#utility.yul\":1396:1459   */\n      swap5\n      pop\n        /* \"#utility.yul\":1352:1469   */\n      pop\n        /* \"#utility.yul\":1536:1538   */\n      0x20\n        /* \"#utility.yul\":1525:1534   */\n      dup6\n        /* \"#utility.yul\":1521:1539   */\n      add\n        /* \"#utility.yul\":1508:1540   */\n      calldataload\n        /* \"#utility.yul\":1567:1585   */\n      0xffffffffffffffff\n        /* \"#utility.yul\":1559:1565   */\n      dup2\n        /* \"#utility.yul\":1556:1586   */\n      gt\n        /* \"#utility.yul\":1553:1670   */\n      iszero\n      tag_77\n      jumpi\n        /* \"#utility.yul\":1589:1668   */\n      tag_78\n      tag_79\n      jump\t// in\n    tag_78:\n        /* \"#utility.yul\":1553:1670   */\n    tag_77:\n        /* \"#utility.yul\":1694:1757   */\n      tag_80\n        /* \"#utility.yul\":1749:1756   */\n      dup8\n        /* \"#utility.yul\":1740:1746   */\n      dup3\n        /* \"#utility.yul\":1729:1738   */\n      dup9\n        /* \"#utility.yul\":1725:1747   */\n      add\n        /* \"#utility.yul\":1694:1757   */\n      tag_62\n      jump\t// in\n    tag_80:\n        /* \"#utility.yul\":1684:1757   */\n      swap4\n      pop\n        /* \"#utility.yul\":1479:1767   */\n      pop\n        /* \"#utility.yul\":1806:1808   */\n      0x40\n        /* \"#utility.yul\":1832:1885   */\n      tag_81\n        /* \"#utility.yul\":1877:1884   */\n      dup8\n        /* \"#utility.yul\":1868:1874   */\n      dup3\n        /* \"#utility.yul\":1857:1866   */\n      dup9\n        /* \"#utility.yul\":1853:1875   */\n      add\n        /* \"#utility.yul\":1832:1885   */\n      tag_68\n      jump\t// in\n    tag_81:\n        /* \"#utility.yul\":1822:1885   */\n      swap3\n      pop\n        /* \"#utility.yul\":1777:1895   */\n      pop\n        /* \"#utility.yul\":1962:1964   */\n      0x60\n        /* \"#utility.yul\":1951:1960   */\n      dup6\n        /* \"#utility.yul\":1947:1965   */\n      add\n        /* \"#utility.yul\":1934:1966   */\n      calldataload\n        /* \"#utility.yul\":1993:2011   */\n      0xffffffffffffffff\n        /* \"#utility.yul\":1985:1991   */\n      dup2\n        /* \"#utility.yul\":1982:2012   */\n      gt\n        /* \"#utility.yul\":1979:2096   */\n      iszero\n      tag_82\n      jumpi\n        /* \"#utility.yul\":2015:2094   */\n      tag_83\n      tag_79\n      jump\t// in\n    tag_83:\n        /* \"#utility.yul\":1979:2096   */\n    tag_82:\n        /* \"#utility.yul\":2120:2183   */\n      tag_84\n        /* \"#utility.yul\":2175:2182   */\n      dup8\n        /* \"#utility.yul\":2166:2172   */\n      dup3\n        /* \"#utility.yul\":2155:2164   */\n      dup9\n        /* \"#utility.yul\":2151:2173   */\n      add\n        /* \"#utility.yul\":2120:2183   */\n      tag_62\n      jump\t// in\n    tag_84:\n        /* \"#utility.yul\":2110:2183   */\n      swap2\n      pop\n        /* \"#utility.yul\":1905:2193   */\n      pop\n        /* \"#utility.yul\":1075:2200   */\n      swap3\n      swap6\n      swap2\n      swap5\n      pop\n      swap3\n      pop\n      jump\t// out\n        /* \"#utility.yul\":2206:3005   */\n    tag_16:\n        /* \"#utility.yul\":2293:2299   */\n      0x00\n        /* \"#utility.yul\":2301:2307   */\n      dup1\n        /* \"#utility.yul\":2309:2315   */\n      0x00\n        /* \"#utility.yul\":2358:2360   */\n      0x60\n        /* \"#utility.yul\":2346:2355   */\n      dup5\n        /* \"#utility.yul\":2337:2344   */\n      dup7\n        /* \"#utility.yul\":2333:2356   */\n      sub\n        /* \"#utility.yul\":2329:2361   */\n      slt\n        /* \"#utility.yul\":2326:2445   */\n      iszero\n      tag_86\n      jumpi\n        /* \"#utility.yul\":2364:2443   */\n      tag_87\n      tag_75\n      jump\t// in\n    tag_87:\n        /* \"#utility.yul\":2326:2445   */\n    tag_86:\n        /* \"#utility.yul\":2512:2513   */\n      0x00\n        /* \"#utility.yul\":2501:2510   */\n      dup5\n        /* \"#utility.yul\":2497:2514   */\n      add\n        /* \"#utility.yul\":2484:2515   */\n      calldataload\n        /* \"#utility.yul\":2542:2560   */\n      0xffffffffffffffff\n        /* \"#utility.yul\":2534:2540   */\n      dup2\n        /* \"#utility.yul\":2531:2561   */\n      gt\n        /* \"#utility.yul\":2528:2645   */\n      iszero\n      tag_88\n      jumpi\n        /* \"#utility.yul\":2564:2643   */\n      tag_89\n      tag_79\n      jump\t// in\n    tag_89:\n        /* \"#utility.yul\":2528:2645   */\n    tag_88:\n        /* \"#utility.yul\":2669:2732   */\n      tag_90\n        /* \"#utility.yul\":2724:2731   */\n      dup7\n        /* \"#utility.yul\":2715:2721   */\n      dup3\n        /* \"#utility.yul\":2704:2713   */\n      dup8\n        /* \"#utility.yul\":2700:2722   */\n      add\n        /* \"#utility.yul\":2669:2732   */\n      tag_62\n      jump\t// in\n    tag_90:\n        /* \"#utility.yul\":2659:2732   */\n      swap4\n      pop\n        /* \"#utility.yul\":2455:2742   */\n      pop\n        /* \"#utility.yul\":2781:2783   */\n      0x20\n        /* \"#utility.yul\":2807:2860   */\n      tag_91\n        /* \"#utility.yul\":2852:2859   */\n      dup7\n        /* \"#utility.yul\":2843:2849   */\n      dup3\n        /* \"#utility.yul\":2832:2841   */\n      dup8\n        /* \"#utility.yul\":2828:2850   */\n      add\n        /* \"#utility.yul\":2807:2860   */\n      tag_68\n      jump\t// in\n    tag_91:\n        /* \"#utility.yul\":2797:2860   */\n      swap3\n      pop\n        /* \"#utility.yul\":2752:2870   */\n      pop\n        /* \"#utility.yul\":2909:2911   */\n      0x40\n        /* \"#utility.yul\":2935:2988   */\n      tag_92\n        /* \"#utility.yul\":2980:2987   */\n      dup7\n        /* \"#utility.yul\":2971:2977   */\n      dup3\n        /* \"#utility.yul\":2960:2969   */\n      dup8\n        /* \"#utility.yul\":2956:2978   */\n      add\n        /* \"#utility.yul\":2935:2988   */\n      tag_58\n      jump\t// in\n    tag_92:\n        /* \"#utility.yul\":2925:2988   */\n      swap2\n      pop\n        /* \"#utility.yul\":2880:2998   */\n      pop\n        /* \"#utility.yul\":2206:3005   */\n      swap3\n      pop\n      swap3\n      pop\n      swap3\n      jump\t// out\n        /* \"#utility.yul\":3011:3810   */\n    tag_12:\n        /* \"#utility.yul\":3098:3104   */\n      0x00\n        /* \"#utility.yul\":3106:3112   */\n      dup1\n        /* \"#utility.yul\":3114:3120   */\n      0x00\n        /* \"#utility.yul\":3163:3165   */\n      0x60\n        /* \"#utility.yul\":3151:3160   */\n      dup5\n        /* \"#utility.yul\":3142:3149   */\n      dup7\n        /* \"#utility.yul\":3138:3161   */\n      sub\n        /* \"#utility.yul\":3134:3166   */\n      slt\n        /* \"#utility.yul\":3131:3250   */\n      iszero\n      tag_94\n      jumpi\n        /* \"#utility.yul\":3169:3248   */\n      tag_95\n      tag_75\n      jump\t// in\n    tag_95:\n        /* \"#utility.yul\":3131:3250   */\n    tag_94:\n        /* \"#utility.yul\":3289:3290   */\n      0x00\n        /* \"#utility.yul\":3314:3367   */\n      tag_96\n        /* \"#utility.yul\":3359:3366   */\n      dup7\n        /* \"#utility.yul\":3350:3356   */\n      dup3\n        /* \"#utility.yul\":3339:3348   */\n      dup8\n        /* \"#utility.yul\":3335:3357   */\n      add\n        /* \"#utility.yul\":3314:3367   */\n      tag_68\n      jump\t// in\n    tag_96:\n        /* \"#utility.yul\":3304:3367   */\n      swap4\n      pop\n        /* \"#utility.yul\":3260:3377   */\n      pop\n        /* \"#utility.yul\":3444:3446   */\n      0x20\n        /* \"#utility.yul\":3433:3442   */\n      dup5\n        /* \"#utility.yul\":3429:3447   */\n      add\n        /* \"#utility.yul\":3416:3448   */\n      calldataload\n        /* \"#utility.yul\":3475:3493   */\n      0xffffffffffffffff\n        /* \"#utility.yul\":3467:3473   */\n      dup2\n        /* \"#utility.yul\":3464:3494   */\n      gt\n        /* \"#utility.yul\":3461:3578   */\n      iszero\n      tag_97\n      jumpi\n        /* \"#utility.yul\":3497:3576   */\n      tag_98\n      tag_79\n      jump\t// in\n    tag_98:\n        /* \"#utility.yul\":3461:3578   */\n    tag_97:\n        /* \"#utility.yul\":3602:3665   */\n      tag_99\n        /* \"#utility.yul\":3657:3664   */\n      dup7\n        /* \"#utility.yul\":3648:3654   */\n      dup3\n        /* \"#utility.yul\":3637:3646   */\n      dup8\n        /* \"#utility.yul\":3633:3655   */\n      add\n        /* \"#utility.yul\":3602:3665   */\n      tag_62\n      jump\t// in\n    tag_99:\n        /* \"#utility.yul\":3592:3665   */\n      swap3\n      pop\n        /* \"#utility.yul\":3387:3675   */\n      pop\n        /* \"#utility.yul\":3714:3716   */\n      0x40\n        /* \"#utility.yul\":3740:3793   */\n      tag_100\n        /* \"#utility.yul\":3785:3792   */\n      dup7\n        /* \"#utility.yul\":3776:3782   */\n      dup3\n        /* \"#utility.yul\":3765:3774   */\n      dup8\n        /* \"#utility.yul\":3761:3783   */\n      add\n        /* \"#utility.yul\":3740:3793   */\n      tag_68\n      jump\t// in\n    tag_100:\n        /* \"#utility.yul\":3730:3793   */\n      swap2\n      pop\n        /* \"#utility.yul\":3685:3803   */\n      pop\n        /* \"#utility.yul\":3011:3810   */\n      swap3\n      pop\n      swap3\n      pop\n      swap3\n      jump\t// out\n        /* \"#utility.yul\":3816:4193   */\n    tag_101:\n        /* \"#utility.yul\":3922:3925   */\n      0x00\n        /* \"#utility.yul\":3950:3989   */\n      tag_103\n        /* \"#utility.yul\":3983:3988   */\n      dup3\n        /* \"#utility.yul\":3950:3989   */\n      tag_104\n      jump\t// in\n    tag_103:\n        /* \"#utility.yul\":4005:4094   */\n      tag_105\n        /* \"#utility.yul\":4087:4093   */\n      dup2\n        /* \"#utility.yul\":4082:4085   */\n      dup6\n        /* \"#utility.yul\":4005:4094   */\n      tag_106\n      jump\t// in\n    tag_105:\n        /* \"#utility.yul\":3998:4094   */\n      swap4\n      pop\n        /* \"#utility.yul\":4103:4155   */\n      tag_107\n        /* \"#utility.yul\":4148:4154   */\n      dup2\n        /* \"#utility.yul\":4143:4146   */\n      dup6\n        /* \"#utility.yul\":4136:4140   */\n      0x20\n        /* \"#utility.yul\":4129:4134   */\n      dup7\n        /* \"#utility.yul\":4125:4141   */\n      add\n        /* \"#utility.yul\":4103:4155   */\n      tag_108\n      jump\t// in\n    tag_107:\n        /* \"#utility.yul\":4180:4186   */\n      dup1\n        /* \"#utility.yul\":4175:4178   */\n      dup5\n        /* \"#utility.yul\":4171:4187   */\n      add\n        /* \"#utility.yul\":4164:4187   */\n      swap2\n      pop\n        /* \"#utility.yul\":3926:4193   */\n      pop\n        /* \"#utility.yul\":3816:4193   */\n      swap3\n      swap2\n      pop\n      pop\n      jump\t// out\n        /* \"#utility.yul\":4199:4474   */\n    tag_22:\n        /* \"#utility.yul\":4331:4334   */\n      0x00\n        /* \"#utility.yul\":4353:4448   */\n      tag_110\n        /* \"#utility.yul\":4444:4447   */\n      dup3\n        /* \"#utility.yul\":4435:4441   */\n      dup5\n        /* \"#utility.yul\":4353:4448   */\n      tag_101\n      jump\t// in\n    tag_110:\n        /* \"#utility.yul\":4346:4448   */\n      swap2\n      pop\n        /* \"#utility.yul\":4465:4468   */\n      dup2\n        /* \"#utility.yul\":4458:4468   */\n      swap1\n      pop\n        /* \"#utility.yul\":4199:4474   */\n      swap3\n      swap2\n      pop\n      pop\n      jump\t// out\n        /* \"#utility.yul\":4480:4609   */\n    tag_52:\n        /* \"#utility.yul\":4514:4520   */\n      0x00\n        /* \"#utility.yul\":4541:4561   */\n      tag_112\n      tag_113\n      jump\t// in\n    tag_112:\n        /* \"#utility.yul\":4531:4561   */\n      swap1\n      pop\n        /* \"#utility.yul\":4570:4603   */\n      tag_114\n        /* \"#utility.yul\":4598:4602   */\n      dup3\n        /* \"#utility.yul\":4590:4596   */\n      dup3\n        /* \"#utility.yul\":4570:4603   */\n      tag_115\n      jump\t// in\n    tag_114:\n        /* \"#utility.yul\":4480:4609   */\n      swap2\n      swap1\n      pop\n      jump\t// out\n        /* \"#utility.yul\":4615:4690   */\n    tag_113:\n        /* \"#utility.yul\":4648:4654   */\n      0x00\n        /* \"#utility.yul\":4681:4683   */\n      0x40\n        /* \"#utility.yul\":4675:4684   */\n      mload\n        /* \"#utility.yul\":4665:4684   */\n      swap1\n      pop\n        /* \"#utility.yul\":4615:4690   */\n      swap1\n      jump\t// out\n        /* \"#utility.yul\":4696:5004   */\n    tag_51:\n        /* \"#utility.yul\":4758:4762   */\n      0x00\n        /* \"#utility.yul\":4848:4866   */\n      0xffffffffffffffff\n        /* \"#utility.yul\":4840:4846   */\n      dup3\n        /* \"#utility.yul\":4837:4867   */\n      gt\n        /* \"#utility.yul\":4834:4890   */\n      iszero\n      tag_118\n      jumpi\n        /* \"#utility.yul\":4870:4888   */\n      tag_119\n      tag_120\n      jump\t// in\n    tag_119:\n        /* \"#utility.yul\":4834:4890   */\n    tag_118:\n        /* \"#utility.yul\":4908:4937   */\n      tag_121\n        /* \"#utility.yul\":4930:4936   */\n      dup3\n        /* \"#utility.yul\":4908:4937   */\n      tag_122\n      jump\t// in\n    tag_121:\n        /* \"#utility.yul\":4900:4937   */\n      swap1\n      pop\n        /* \"#utility.yul\":4992:4996   */\n      0x20\n        /* \"#utility.yul\":4986:4990   */\n      dup2\n        /* \"#utility.yul\":4982:4997   */\n      add\n        /* \"#utility.yul\":4974:4997   */\n      swap1\n      pop\n        /* \"#utility.yul\":4696:5004   */\n      swap2\n      swap1\n      pop\n      jump\t// out\n        /* \"#utility.yul\":5010:5109   */\n    tag_104:\n        /* \"#utility.yul\":5062:5068   */\n      0x00\n        /* \"#utility.yul\":5096:5101   */\n      dup2\n        /* \"#utility.yul\":5090:5102   */\n      mload\n        /* \"#utility.yul\":5080:5102   */\n      swap1\n      pop\n        /* \"#utility.yul\":5010:5109   */\n      swap2\n      swap1\n      pop\n      jump\t// out\n        /* \"#utility.yul\":5115:5263   */\n    tag_106:\n        /* \"#utility.yul\":5217:5228   */\n      0x00\n        /* \"#utility.yul\":5254:5257   */\n      dup2\n        /* \"#utility.yul\":5239:5257   */\n      swap1\n      pop\n        /* \"#utility.yul\":5115:5263   */\n      swap3\n      swap2\n      pop\n      pop\n      jump\t// out\n        /* \"#utility.yul\":5269:5365   */\n    tag_125:\n        /* \"#utility.yul\":5306:5313   */\n      0x00\n        /* \"#utility.yul\":5335:5359   */\n      tag_127\n        /* \"#utility.yul\":5353:5358   */\n      dup3\n        /* \"#utility.yul\":5335:5359   */\n      tag_128\n      jump\t// in\n    tag_127:\n        /* \"#utility.yul\":5324:5359   */\n      swap1\n      pop\n        /* \"#utility.yul\":5269:5365   */\n      swap2\n      swap1\n      pop\n      jump\t// out\n        /* \"#utility.yul\":5371:5497   */\n    tag_128:\n        /* \"#utility.yul\":5408:5415   */\n      0x00\n        /* \"#utility.yul\":5448:5490   */\n      0xffffffffffffffffffffffffffffffffffffffff\n        /* \"#utility.yul\":5441:5446   */\n      dup3\n        /* \"#utility.yul\":5437:5491   */\n      and\n        /* \"#utility.yul\":5426:5491   */\n      swap1\n      pop\n        /* \"#utility.yul\":5371:5497   */\n      swap2\n      swap1\n      pop\n      jump\t// out\n        /* \"#utility.yul\":5503:5580   */\n    tag_130:\n        /* \"#utility.yul\":5540:5547   */\n      0x00\n        /* \"#utility.yul\":5569:5574   */\n      dup2\n        /* \"#utility.yul\":5558:5574   */\n      swap1\n      pop\n        /* \"#utility.yul\":5503:5580   */\n      swap2\n      swap1\n      pop\n      jump\t// out\n        /* \"#utility.yul\":5586:5740   */\n    tag_57:\n        /* \"#utility.yul\":5670:5676   */\n      dup3\n        /* \"#utility.yul\":5665:5668   */\n      dup2\n        /* \"#utility.yul\":5660:5663   */\n      dup4\n        /* \"#utility.yul\":5647:5677   */\n      calldatacopy\n        /* \"#utility.yul\":5732:5733   */\n      0x00\n        /* \"#utility.yul\":5723:5729   */\n      dup4\n        /* \"#utility.yul\":5718:5721   */\n      dup4\n        /* \"#utility.yul\":5714:5730   */\n      add\n        /* \"#utility.yul\":5707:5734   */\n      mstore\n        /* \"#utility.yul\":5586:5740   */\n      pop\n      pop\n      pop\n      jump\t// out\n        /* \"#utility.yul\":5746:6053   */\n    tag_108:\n        /* \"#utility.yul\":5814:5815   */\n      0x00\n        /* \"#utility.yul\":5824:5937   */\n    tag_134:\n        /* \"#utility.yul\":5838:5844   */\n      dup4\n        /* \"#utility.yul\":5835:5836   */\n      dup2\n        /* \"#utility.yul\":5832:5845   */\n      lt\n        /* \"#utility.yul\":5824:5937   */\n      iszero\n      tag_136\n      jumpi\n        /* \"#utility.yul\":5923:5924   */\n      dup1\n        /* \"#utility.yul\":5918:5921   */\n      dup3\n        /* \"#utility.yul\":5914:5925   */\n      add\n        /* \"#utility.yul\":5908:5926   */\n      mload\n        /* \"#utility.yul\":5904:5905   */\n      dup2\n        /* \"#utility.yul\":5899:5902   */\n      dup5\n        /* \"#utility.yul\":5895:5906   */\n      add\n        /* \"#utility.yul\":5888:5927   */\n      mstore\n        /* \"#utility.yul\":5860:5862   */\n      0x20\n        /* \"#utility.yul\":5857:5858   */\n      dup2\n        /* \"#utility.yul\":5853:5863   */\n      add\n        /* \"#utility.yul\":5848:5863   */\n      swap1\n      pop\n        /* \"#utility.yul\":5824:5937   */\n      jump(tag_134)\n    tag_136:\n        /* \"#utility.yul\":5955:5961   */\n      dup4\n        /* \"#utility.yul\":5952:5953   */\n      dup2\n        /* \"#utility.yul\":5949:5962   */\n      gt\n        /* \"#utility.yul\":5946:6047   */\n      iszero\n      tag_137\n      jumpi\n        /* \"#utility.yul\":6035:6036   */\n      0x00\n        /* \"#utility.yul\":6026:6032   */\n      dup5\n        /* \"#utility.yul\":6021:6024   */\n      dup5\n        /* \"#utility.yul\":6017:6033   */\n      add\n        /* \"#utility.yul\":6010:6037   */\n      mstore\n        /* \"#utility.yul\":5946:6047   */\n    tag_137:\n        /* \"#utility.yul\":5795:6053   */\n      pop\n        /* \"#utility.yul\":5746:6053   */\n      pop\n      pop\n      pop\n      jump\t// out\n        /* \"#utility.yul\":6059:6379   */\n    tag_32:\n        /* \"#utility.yul\":6103:6109   */\n      0x00\n        /* \"#utility.yul\":6140:6141   */\n      0x02\n        /* \"#utility.yul\":6134:6138   */\n      dup3\n        /* \"#utility.yul\":6130:6142   */\n      div\n        /* \"#utility.yul\":6120:6142   */\n      swap1\n      pop\n        /* \"#utility.yul\":6187:6188   */\n      0x01\n        /* \"#utility.yul\":6181:6185   */\n      dup3\n        /* \"#utility.yul\":6177:6189   */\n      and\n        /* \"#utility.yul\":6208:6226   */\n      dup1\n        /* \"#utility.yul\":6198:6279   */\n      tag_139\n      jumpi\n        /* \"#utility.yul\":6264:6268   */\n      0x7f\n        /* \"#utility.yul\":6256:6262   */\n      dup3\n        /* \"#utility.yul\":6252:6269   */\n      and\n        /* \"#utility.yul\":6242:6269   */\n      swap2\n      pop\n        /* \"#utility.yul\":6198:6279   */\n    tag_139:\n        /* \"#utility.yul\":6326:6328   */\n      0x20\n        /* \"#utility.yul\":6318:6324   */\n      dup3\n        /* \"#utility.yul\":6315:6329   */\n      lt\n        /* \"#utility.yul\":6295:6313   */\n      dup2\n        /* \"#utility.yul\":6292:6330   */\n      eq\n        /* \"#utility.yul\":6289:6373   */\n      iszero\n      tag_140\n      jumpi\n        /* \"#utility.yul\":6345:6363   */\n      tag_141\n      tag_142\n      jump\t// in\n    tag_141:\n        /* \"#utility.yul\":6289:6373   */\n    tag_140:\n        /* \"#utility.yul\":6110:6379   */\n      pop\n        /* \"#utility.yul\":6059:6379   */\n      swap2\n      swap1\n      pop\n      jump\t// out\n        /* \"#utility.yul\":6385:6666   */\n    tag_115:\n        /* \"#utility.yul\":6468:6495   */\n      tag_144\n        /* \"#utility.yul\":6490:6494   */\n      dup3\n        /* \"#utility.yul\":6468:6495   */\n      tag_122\n      jump\t// in\n    tag_144:\n        /* \"#utility.yul\":6460:6466   */\n      dup2\n        /* \"#utility.yul\":6456:6496   */\n      add\n        /* \"#utility.yul\":6598:6604   */\n      dup2\n        /* \"#utility.yul\":6586:6596   */\n      dup2\n        /* \"#utility.yul\":6583:6605   */\n      lt\n        /* \"#utility.yul\":6562:6580   */\n      0xffffffffffffffff\n        /* \"#utility.yul\":6550:6560   */\n      dup3\n        /* \"#utility.yul\":6547:6581   */\n      gt\n        /* \"#utility.yul\":6544:6606   */\n      or\n        /* \"#utility.yul\":6541:6629   */\n      iszero\n      tag_145\n      jumpi\n        /* \"#utility.yul\":6609:6627   */\n      tag_146\n      tag_120\n      jump\t// in\n    tag_146:\n        /* \"#utility.yul\":6541:6629   */\n    tag_145:\n        /* \"#utility.yul\":6649:6659   */\n      dup1\n        /* \"#utility.yul\":6645:6647   */\n      0x40\n        /* \"#utility.yul\":6638:6660   */\n      mstore\n        /* \"#utility.yul\":6428:6666   */\n      pop\n        /* \"#utility.yul\":6385:6666   */\n      pop\n      pop\n      jump\t// out\n        /* \"#utility.yul\":6672:6852   */\n    tag_142:\n        /* \"#utility.yul\":6720:6797   */\n      0x4e487b7100000000000000000000000000000000000000000000000000000000\n        /* \"#utility.yul\":6717:6718   */\n      0x00\n        /* \"#utility.yul\":6710:6798   */\n      mstore\n        /* \"#utility.yul\":6817:6821   */\n      0x22\n        /* \"#utility.yul\":6814:6815   */\n      0x04\n        /* \"#utility.yul\":6807:6822   */\n      mstore\n        /* \"#utility.yul\":6841:6845   */\n      0x24\n        /* \"#utility.yul\":6838:6839   */\n      0x00\n        /* \"#utility.yul\":6831:6846   */\n      revert\n        /* \"#utility.yul\":6858:7038   */\n    tag_120:\n        /* \"#utility.yul\":6906:6983   */\n      0x4e487b7100000000000000000000000000000000000000000000000000000000\n        /* \"#utility.yul\":6903:6904   */\n      0x00\n        /* \"#utility.yul\":6896:6984   */\n      mstore\n        /* \"#utility.yul\":7003:7007   */\n      0x41\n        /* \"#utility.yul\":7000:7001   */\n      0x04\n        /* \"#utility.yul\":6993:7008   */\n      mstore\n        /* \"#utility.yul\":7027:7031   */\n      0x24\n        /* \"#utility.yul\":7024:7025   */\n      0x00\n        /* \"#utility.yul\":7017:7032   */\n      revert\n        /* \"#utility.yul\":7044:7161   */\n    tag_66:\n        /* \"#utility.yul\":7153:7154   */\n      0x00\n        /* \"#utility.yul\":7150:7151   */\n      dup1\n        /* \"#utility.yul\":7143:7155   */\n      revert\n        /* \"#utility.yul\":7167:7284   */\n    tag_55:\n        /* \"#utility.yul\":7276:7277   */\n      0x00\n        /* \"#utility.yul\":7273:7274   */\n      dup1\n        /* \"#utility.yul\":7266:7278   */\n      revert\n        /* \"#utility.yul\":7290:7407   */\n    tag_79:\n        /* \"#utility.yul\":7399:7400   */\n      0x00\n        /* \"#utility.yul\":7396:7397   */\n      dup1\n        /* \"#utility.yul\":7389:7401   */\n      revert\n        /* \"#utility.yul\":7413:7530   */\n    tag_75:\n        /* \"#utility.yul\":7522:7523   */\n      0x00\n        /* \"#utility.yul\":7519:7520   */\n      dup1\n        /* \"#utility.yul\":7512:7524   */\n      revert\n        /* \"#utility.yul\":7536:7638   */\n    tag_122:\n        /* \"#utility.yul\":7577:7583   */\n      0x00\n        /* \"#utility.yul\":7628:7630   */\n      0x1f\n        /* \"#utility.yul\":7624:7631   */\n      not\n        /* \"#utility.yul\":7619:7621   */\n      0x1f\n        /* \"#utility.yul\":7612:7617   */\n      dup4\n        /* \"#utility.yul\":7608:7622   */\n      add\n        /* \"#utility.yul\":7604:7632   */\n      and\n        /* \"#utility.yul\":7594:7632   */\n      swap1\n      pop\n        /* \"#utility.yul\":7536:7638   */\n      swap2\n      swap1\n      pop\n      jump\t// out\n        /* \"#utility.yul\":7644:7766   */\n    tag_61:\n        /* \"#utility.yul\":7717:7741   */\n      tag_155\n        /* \"#utility.yul\":7735:7740   */\n      dup2\n        /* \"#utility.yul\":7717:7741   */\n      tag_125\n      jump\t// in\n    tag_155:\n        /* \"#utility.yul\":7710:7715   */\n      dup2\n        /* \"#utility.yul\":7707:7742   */\n      eq\n        /* \"#utility.yul\":7697:7760   */\n      tag_156\n      jumpi\n        /* \"#utility.yul\":7756:7757   */\n      0x00\n        /* \"#utility.yul\":7753:7754   */\n      dup1\n        /* \"#utility.yul\":7746:7758   */\n      revert\n        /* \"#utility.yul\":7697:7760   */\n    tag_156:\n        /* \"#utility.yul\":7644:7766   */\n      pop\n      jump\t// out\n        /* \"#utility.yul\":7772:7894   */\n    tag_71:\n        /* \"#utility.yul\":7845:7869   */\n      tag_158\n        /* \"#utility.yul\":7863:7868   */\n      dup2\n        /* \"#utility.yul\":7845:7869   */\n      tag_130\n      jump\t// in\n    tag_158:\n        /* \"#utility.yul\":7838:7843   */\n      dup2\n        /* \"#utility.yul\":7835:7870   */\n      eq\n        /* \"#utility.yul\":7825:7888   */\n      tag_159\n      jumpi\n        /* \"#utility.yul\":7884:7885   */\n      0x00\n        /* \"#utility.yul\":7881:7882   */\n      dup1\n        /* \"#utility.yul\":7874:7886   */\n      revert\n        /* \"#utility.yul\":7825:7888   */\n    tag_159:\n        /* \"#utility.yul\":7772:7894   */\n      pop\n      jump\t// out\n\n    auxdata: 0xa26469706673582212202ad963c0f625c5aaf07fb45737ad5441dc6637599cb1ad6982fb3266487b888a64736f6c63430008070033\n}\n",
				"bytecode": {
					"linkReferences": {},
					"object": "608060405234801561001057600080fd5b50610820806100206000396000f3fe608060405234801561001057600080fd5b50600436106100405760003560e01c80629a4d3c146100455780639185393414610061578063e9e8a17c1461007d575b600080fd5b61005f600480360381019061005a9190610427565b610099565b005b61007b60048036038101906100769190610535565b610186565b005b610097600480360381019061009291906104c6565b6101dd565b005b6100a1610287565b60405180608001604052808673ffffffffffffffffffffffffffffffffffffffff168152602001858152602001848152602001828152506005836040516100e891906105d5565b908152602001604051809103902060008201518160000160006101000a81548173ffffffffffffffffffffffffffffffffffffffff021916908373ffffffffffffffffffffffffffffffffffffffff16021790555060208201518160010190805190602001906101599291906102aa565b506040820151816002015560608201518160030190602d61017b929190610330565b509050505050505050565b6040518060400160405280838152602001828152506007600085815260200190815260200160002060008201518160000190805190602001906101ca9291906102aa565b5060208201518160010155905050505050565b60405180604001604052808481526020018273ffffffffffffffffffffffffffffffffffffffff168152506006600084815260200190815260200160002060008201518160000190805190602001906102379291906102aa565b5060208201518160010160006101000a81548173ffffffffffffffffffffffffffffffffffffffff021916908373ffffffffffffffffffffffffffffffffffffffff160217905550905050505050565b604051806105a00160405280602d90602082028036833780820191505090505090565b8280546102b6906106d6565b90600052602060002090601f0160209004810192826102d8576000855561031f565b82601f106102f157805160ff191683800117855561031f565b8280016001018555821561031f579182015b8281111561031e578251825591602001919060010190610303565b5b50905061032c9190610370565b5090565b82602d810192821561035f579160200282015b8281111561035e578251825591602001919060010190610343565b5b50905061036c9190610370565b5090565b5b80821115610389576000816000905550600101610371565b5090565b60006103a061039b84610611565b6105ec565b9050828152602081018484840111156103bc576103bb61079c565b5b6103c7848285610694565b509392505050565b6000813590506103de816107bc565b92915050565b600082601f8301126103f9576103f8610797565b5b813561040984826020860161038d565b91505092915050565b600081359050610421816107d3565b92915050565b60008060008060808587031215610441576104406107a6565b5b600061044f878288016103cf565b945050602085013567ffffffffffffffff8111156104705761046f6107a1565b5b61047c878288016103e4565b935050604061048d87828801610412565b925050606085013567ffffffffffffffff8111156104ae576104ad6107a1565b5b6104ba878288016103e4565b91505092959194509250565b6000806000606084860312156104df576104de6107a6565b5b600084013567ffffffffffffffff8111156104fd576104fc6107a1565b5b610509868287016103e4565b935050602061051a86828701610412565b925050604061052b868287016103cf565b9150509250925092565b60008060006060848603121561054e5761054d6107a6565b5b600061055c86828701610412565b935050602084013567ffffffffffffffff81111561057d5761057c6107a1565b5b610589868287016103e4565b925050604061059a86828701610412565b9150509250925092565b60006105af82610642565b6105b9818561064d565b93506105c98185602086016106a3565b80840191505092915050565b60006105e182846105a4565b915081905092915050565b60006105f6610607565b90506106028282610708565b919050565b6000604051905090565b600067ffffffffffffffff82111561062c5761062b610768565b5b610635826107ab565b9050602081019050919050565b600081519050919050565b600081905092915050565b60006106638261066a565b9050919050565b600073ffffffffffffffffffffffffffffffffffffffff82169050919050565b6000819050919050565b82818337600083830152505050565b60005b838110156106c15780820151818401526020810190506106a6565b838111156106d0576000848401525b50505050565b600060028204905060018216806106ee57607f821691505b6020821081141561070257610701610739565b5b50919050565b610711826107ab565b810181811067ffffffffffffffff821117156107305761072f610768565b5b80604052505050565b7f4e487b7100000000000000000000000000000000000000000000000000000000600052602260045260246000fd5b7f4e487b7100000000000000000000000000000000000000000000000000000000600052604160045260246000fd5b600080fd5b600080fd5b600080fd5b600080fd5b6000601f19601f8301169050919050565b6107c581610658565b81146107d057600080fd5b50565b6107dc8161068a565b81146107e757600080fd5b5056fea26469706673582212202ad963c0f625c5aaf07fb45737ad5441dc6637599cb1ad6982fb3266487b888a64736f6c63430008070033",
					"opcodes": "PUSH1 0x80 PUSH1 0x40 MSTORE CALLVALUE DUP1 ISZERO PUSH2 0x10 JUMPI PUSH1 0x0 DUP1 REVERT JUMPDEST POP PUSH2 0x820 DUP1 PUSH2 0x20 PUSH1 0x0 CODECOPY PUSH1 0x0 RETURN INVALID PUSH1 0x80 PUSH1 0x40 MSTORE CALLVALUE DUP1 ISZERO PUSH2 0x10 JUMPI PUSH1 0x0 DUP1 REVERT JUMPDEST POP PUSH1 0x4 CALLDATASIZE LT PUSH2 0x40 JUMPI PUSH1 0x0 CALLDATALOAD PUSH1 0xE0 SHR DUP1 PUSH3 0x9A4D3C EQ PUSH2 0x45 JUMPI DUP1 PUSH4 0x91853934 EQ PUSH2 0x61 JUMPI DUP1 PUSH4 0xE9E8A17C EQ PUSH2 0x7D JUMPI JUMPDEST PUSH1 0x0 DUP1 REVERT JUMPDEST PUSH2 0x5F PUSH1 0x4 DUP1 CALLDATASIZE SUB DUP2 ADD SWAP1 PUSH2 0x5A SWAP2 SWAP1 PUSH2 0x427 JUMP JUMPDEST PUSH2 0x99 JUMP JUMPDEST STOP JUMPDEST PUSH2 0x7B PUSH1 0x4 DUP1 CALLDATASIZE SUB DUP2 ADD SWAP1 PUSH2 0x76 SWAP2 SWAP1 PUSH2 0x535 JUMP JUMPDEST PUSH2 0x186 JUMP JUMPDEST STOP JUMPDEST PUSH2 0x97 PUSH1 0x4 DUP1 CALLDATASIZE SUB DUP2 ADD SWAP1 PUSH2 0x92 SWAP2 SWAP1 PUSH2 0x4C6 JUMP JUMPDEST PUSH2 0x1DD JUMP JUMPDEST STOP JUMPDEST PUSH2 0xA1 PUSH2 0x287 JUMP JUMPDEST PUSH1 0x40 MLOAD DUP1 PUSH1 0x80 ADD PUSH1 0x40 MSTORE DUP1 DUP7 PUSH20 0xFFFFFFFFFFFFFFFFFFFFFFFFFFFFFFFFFFFFFFFF AND DUP2 MSTORE PUSH1 0x20 ADD DUP6 DUP2 MSTORE PUSH1 0x20 ADD DUP5 DUP2 MSTORE PUSH1 0x20 ADD DUP3 DUP2 MSTORE POP PUSH1 0x5 DUP4 PUSH1 0x40 MLOAD PUSH2 0xE8 SWAP2 SWAP1 PUSH2 0x5D5 JUMP JUMPDEST SWAP1 DUP2 MSTORE PUSH1 0x20 ADD PUSH1 0x40 MLOAD DUP1 SWAP2 SUB SWAP1 KECCAK256 PUSH1 0x0 DUP3 ADD MLOAD DUP2 PUSH1 0x0 ADD PUSH1 0x0 PUSH2 0x100 EXP DUP2 SLOAD DUP2 PUSH20 0xFFFFFFFFFFFFFFFFFFFFFFFFFFFFFFFFFFFFFFFF MUL NOT AND SWAP1 DUP4 PUSH20 0xFFFFFFFFFFFFFFFFFFFFFFFFFFFFFFFFFFFFFFFF AND MUL OR SWAP1 SSTORE POP PUSH1 0x20 DUP3 ADD MLOAD DUP2 PUSH1 0x1 ADD SWAP1 DUP1 MLOAD SWAP1 PUSH1 0x20 ADD SWAP1 PUSH2 0x159 SWAP3 SWAP2 SWAP1 PUSH2 0x2AA JUMP JUMPDEST POP PUSH1 0x40 DUP3 ADD MLOAD DUP2 PUSH1 0x2 ADD SSTORE PUSH1 0x60 DUP3 ADD MLOAD DUP2 PUSH1 0x3 ADD SWAP1 PUSH1 0x2D PUSH2 0x17B SWAP3 SWAP2 SWAP1 PUSH2 0x330 JUMP JUMPDEST POP SWAP1 POP POP POP POP POP POP POP JUMP JUMPDEST PUSH1 0x40 MLOAD DUP1 PUSH1 0x40 ADD PUSH1 0x40 MSTORE DUP1 DUP4 DUP2 MSTORE PUSH1 0x20 ADD DUP3 DUP2 MSTORE POP PUSH1 0x7 PUSH1 0x0 DUP6 DUP2 MSTORE PUSH1 0x20 ADD SWAP1 DUP2 MSTORE PUSH1 0x20 ADD PUSH1 0x0 KECCAK256 PUSH1 0x0 DUP3 ADD MLOAD DUP2 PUSH1 0x0 ADD SWAP1 DUP1 MLOAD SWAP1 PUSH1 0x20 ADD SWAP1 PUSH2 0x1CA SWAP3 SWAP2 SWAP1 PUSH2 0x2AA JUMP JUMPDEST POP PUSH1 0x20 DUP3 ADD MLOAD DUP2 PUSH1 0x1 ADD SSTORE SWAP1 POP POP POP POP POP JUMP JUMPDEST PUSH1 0x40 MLOAD DUP1 PUSH1 0x40 ADD PUSH1 0x40 MSTORE DUP1 DUP5 DUP2 MSTORE PUSH1 0x20 ADD DUP3 PUSH20 0xFFFFFFFFFFFFFFFFFFFFFFFFFFFFFFFFFFFFFFFF AND DUP2 MSTORE POP PUSH1 0x6 PUSH1 0x0 DUP5 DUP2 MSTORE PUSH1 0x20 ADD SWAP1 DUP2 MSTORE PUSH1 0x20 ADD PUSH1 0x0 KECCAK256 PUSH1 0x0 DUP3 ADD MLOAD DUP2 PUSH1 0x0 ADD SWAP1 DUP1 MLOAD SWAP1 PUSH1 0x20 ADD SWAP1 PUSH2 0x237 SWAP3 SWAP2 SWAP1 PUSH2 0x2AA JUMP JUMPDEST POP PUSH1 0x20 DUP3 ADD MLOAD DUP2 PUSH1 0x1 ADD PUSH1 0x0 PUSH2 0x100 EXP DUP2 SLOAD DUP2 PUSH20 0xFFFFFFFFFFFFFFFFFFFFFFFFFFFFFFFFFFFFFFFF MUL NOT AND SWAP1 DUP4 PUSH20 0xFFFFFFFFFFFFFFFFFFFFFFFFFFFFFFFFFFFFFFFF AND MUL OR SWAP1 SSTORE POP SWAP1 POP POP POP POP POP JUMP JUMPDEST PUSH1 0x40 MLOAD DUP1 PUSH2 0x5A0 ADD PUSH1 0x40 MSTORE DUP1 PUSH1 0x2D SWAP1 PUSH1 0x20 DUP3 MUL DUP1 CALLDATASIZE DUP4 CALLDATACOPY DUP1 DUP3 ADD SWAP2 POP POP SWAP1 POP POP SWAP1 JUMP JUMPDEST DUP3 DUP1 SLOAD PUSH2 0x2B6 SWAP1 PUSH2 0x6D6 JUMP JUMPDEST SWAP1 PUSH1 0x0 MSTORE PUSH1 0x20 PUSH1 0x0 KECCAK256 SWAP1 PUSH1 0x1F ADD PUSH1 0x20 SWAP1 DIV DUP2 ADD SWAP3 DUP3 PUSH2 0x2D8 JUMPI PUSH1 0x0 DUP6 SSTORE PUSH2 0x31F JUMP JUMPDEST DUP3 PUSH1 0x1F LT PUSH2 0x2F1 JUMPI DUP1 MLOAD PUSH1 0xFF NOT AND DUP4 DUP1 ADD OR DUP6 SSTORE PUSH2 0x31F JUMP JUMPDEST DUP3 DUP1 ADD PUSH1 0x1 ADD DUP6 SSTORE DUP3 ISZERO PUSH2 0x31F JUMPI SWAP2 DUP3 ADD JUMPDEST DUP3 DUP2 GT ISZERO PUSH2 0x31E JUMPI DUP3 MLOAD DUP3 SSTORE SWAP2 PUSH1 0x20 ADD SWAP2 SWAP1 PUSH1 0x1 ADD SWAP1 PUSH2 0x303 JUMP JUMPDEST JUMPDEST POP SWAP1 POP PUSH2 0x32C SWAP2 SWAP1 PUSH2 0x370 JUMP JUMPDEST POP SWAP1 JUMP JUMPDEST DUP3 PUSH1 0x2D DUP2 ADD SWAP3 DUP3 ISZERO PUSH2 0x35F JUMPI SWAP2 PUSH1 0x20 MUL DUP3 ADD JUMPDEST DUP3 DUP2 GT ISZERO PUSH2 0x35E JUMPI DUP3 MLOAD DUP3 SSTORE SWAP2 PUSH1 0x20 ADD SWAP2 SWAP1 PUSH1 0x1 ADD SWAP1 PUSH2 0x343 JUMP JUMPDEST JUMPDEST POP SWAP1 POP PUSH2 0x36C SWAP2 SWAP1 PUSH2 0x370 JUMP JUMPDEST POP SWAP1 JUMP JUMPDEST JUMPDEST DUP1 DUP3 GT ISZERO PUSH2 0x389 JUMPI PUSH1 0x0 DUP2 PUSH1 0x0 SWAP1 SSTORE POP PUSH1 0x1 ADD PUSH2 0x371 JUMP JUMPDEST POP SWAP1 JUMP JUMPDEST PUSH1 0x0 PUSH2 0x3A0 PUSH2 0x39B DUP5 PUSH2 0x611 JUMP JUMPDEST PUSH2 0x5EC JUMP JUMPDEST SWAP1 POP DUP3 DUP2 MSTORE PUSH1 0x20 DUP2 ADD DUP5 DUP5 DUP5 ADD GT ISZERO PUSH2 0x3BC JUMPI PUSH2 0x3BB PUSH2 0x79C JUMP JUMPDEST JUMPDEST PUSH2 0x3C7 DUP5 DUP3 DUP6 PUSH2 0x694 JUMP JUMPDEST POP SWAP4 SWAP3 POP POP POP JUMP JUMPDEST PUSH1 0x0 DUP2 CALLDATALOAD SWAP1 POP PUSH2 0x3DE DUP2 PUSH2 0x7BC JUMP JUMPDEST SWAP3 SWAP2 POP POP JUMP JUMPDEST PUSH1 0x0 DUP3 PUSH1 0x1F DUP4 ADD SLT PUSH2 0x3F9 JUMPI PUSH2 0x3F8 PUSH2 0x797 JUMP JUMPDEST JUMPDEST DUP2 CALLDATALOAD PUSH2 0x409 DUP5 DUP3 PUSH1 0x20 DUP7 ADD PUSH2 0x38D JUMP JUMPDEST SWAP2 POP POP SWAP3 SWAP2 POP POP JUMP JUMPDEST PUSH1 0x0 DUP2 CALLDATALOAD SWAP1 POP PUSH2 0x421 DUP2 PUSH2 0x7D3 JUMP JUMPDEST SWAP3 SWAP2 POP POP JUMP JUMPDEST PUSH1 0x0 DUP1 PUSH1 0x0 DUP1 PUSH1 0x80 DUP6 DUP8 SUB SLT ISZERO PUSH2 0x441 JUMPI PUSH2 0x440 PUSH2 0x7A6 JUMP JUMPDEST JUMPDEST PUSH1 0x0 PUSH2 0x44F DUP8 DUP3 DUP9 ADD PUSH2 0x3CF JUMP JUMPDEST SWAP5 POP POP PUSH1 0x20 DUP6 ADD CALLDATALOAD PUSH8 0xFFFFFFFFFFFFFFFF DUP2 GT ISZERO PUSH2 0x470 JUMPI PUSH2 0x46F PUSH2 0x7A1 JUMP JUMPDEST JUMPDEST PUSH2 0x47C DUP8 DUP3 DUP9 ADD PUSH2 0x3E4 JUMP JUMPDEST SWAP4 POP POP PUSH1 0x40 PUSH2 0x48D DUP8 DUP3 DUP9 ADD PUSH2 0x412 JUMP JUMPDEST SWAP3 POP POP PUSH1 0x60 DUP6 ADD CALLDATALOAD PUSH8 0xFFFFFFFFFFFFFFFF DUP2 GT ISZERO PUSH2 0x4AE JUMPI PUSH2 0x4AD PUSH2 0x7A1 JUMP JUMPDEST JUMPDEST PUSH2 0x4BA DUP8 DUP3 DUP9 ADD PUSH2 0x3E4 JUMP JUMPDEST SWAP2 POP POP SWAP3 SWAP6 SWAP2 SWAP5 POP SWAP3 POP JUMP JUMPDEST PUSH1 0x0 DUP1 PUSH1 0x0 PUSH1 0x60 DUP5 DUP7 SUB SLT ISZERO PUSH2 0x4DF JUMPI PUSH2 0x4DE PUSH2 0x7A6 JUMP JUMPDEST JUMPDEST PUSH1 0x0 DUP5 ADD CALLDATALOAD PUSH8 0xFFFFFFFFFFFFFFFF DUP2 GT ISZERO PUSH2 0x4FD JUMPI PUSH2 0x4FC PUSH2 0x7A1 JUMP JUMPDEST JUMPDEST PUSH2 0x509 DUP7 DUP3 DUP8 ADD PUSH2 0x3E4 JUMP JUMPDEST SWAP4 POP POP PUSH1 0x20 PUSH2 0x51A DUP7 DUP3 DUP8 ADD PUSH2 0x412 JUMP JUMPDEST SWAP3 POP POP PUSH1 0x40 PUSH2 0x52B DUP7 DUP3 DUP8 ADD PUSH2 0x3CF JUMP JUMPDEST SWAP2 POP POP SWAP3 POP SWAP3 POP SWAP3 JUMP JUMPDEST PUSH1 0x0 DUP1 PUSH1 0x0 PUSH1 0x60 DUP5 DUP7 SUB SLT ISZERO PUSH2 0x54E JUMPI PUSH2 0x54D PUSH2 0x7A6 JUMP JUMPDEST JUMPDEST PUSH1 0x0 PUSH2 0x55C DUP7 DUP3 DUP8 ADD PUSH2 0x412 JUMP JUMPDEST SWAP4 POP POP PUSH1 0x20 DUP5 ADD CALLDATALOAD PUSH8 0xFFFFFFFFFFFFFFFF DUP2 GT ISZERO PUSH2 0x57D JUMPI PUSH2 0x57C PUSH2 0x7A1 JUMP JUMPDEST JUMPDEST PUSH2 0x589 DUP7 DUP3 DUP8 ADD PUSH2 0x3E4 JUMP JUMPDEST SWAP3 POP POP PUSH1 0x40 PUSH2 0x59A DUP7 DUP3 DUP8 ADD PUSH2 0x412 JUMP JUMPDEST SWAP2 POP POP SWAP3 POP SWAP3 POP SWAP3 JUMP JUMPDEST PUSH1 0x0 PUSH2 0x5AF DUP3 PUSH2 0x642 JUMP JUMPDEST PUSH2 0x5B9 DUP2 DUP6 PUSH2 0x64D JUMP JUMPDEST SWAP4 POP PUSH2 0x5C9 DUP2 DUP6 PUSH1 0x20 DUP7 ADD PUSH2 0x6A3 JUMP JUMPDEST DUP1 DUP5 ADD SWAP2 POP POP SWAP3 SWAP2 POP POP JUMP JUMPDEST PUSH1 0x0 PUSH2 0x5E1 DUP3 DUP5 PUSH2 0x5A4 JUMP JUMPDEST SWAP2 POP DUP2 SWAP1 POP SWAP3 SWAP2 POP POP JUMP JUMPDEST PUSH1 0x0 PUSH2 0x5F6 PUSH2 0x607 JUMP JUMPDEST SWAP1 POP PUSH2 0x602 DUP3 DUP3 PUSH2 0x708 JUMP JUMPDEST SWAP2 SWAP1 POP JUMP JUMPDEST PUSH1 0x0 PUSH1 0x40 MLOAD SWAP1 POP SWAP1 JUMP JUMPDEST PUSH1 0x0 PUSH8 0xFFFFFFFFFFFFFFFF DUP3 GT ISZERO PUSH2 0x62C JUMPI PUSH2 0x62B PUSH2 0x768 JUMP JUMPDEST JUMPDEST PUSH2 0x635 DUP3 PUSH2 0x7AB JUMP JUMPDEST SWAP1 POP PUSH1 0x20 DUP2 ADD SWAP1 POP SWAP2 SWAP1 POP JUMP JUMPDEST PUSH1 0x0 DUP2 MLOAD SWAP1 POP SWAP2 SWAP1 POP JUMP JUMPDEST PUSH1 0x0 DUP2 SWAP1 POP SWAP3 SWAP2 POP POP JUMP JUMPDEST PUSH1 0x0 PUSH2 0x663 DUP3 PUSH2 0x66A JUMP JUMPDEST SWAP1 POP SWAP2 SWAP1 POP JUMP JUMPDEST PUSH1 0x0 PUSH20 0xFFFFFFFFFFFFFFFFFFFFFFFFFFFFFFFFFFFFFFFF DUP3 AND SWAP1 POP SWAP2 SWAP1 POP JUMP JUMPDEST PUSH1 0x0 DUP2 SWAP1 POP SWAP2 SWAP1 POP JUMP JUMPDEST DUP3 DUP2 DUP4 CALLDATACOPY PUSH1 0x0 DUP4 DUP4 ADD MSTORE POP POP POP JUMP JUMPDEST PUSH1 0x0 JUMPDEST DUP4 DUP2 LT ISZERO PUSH2 0x6C1 JUMPI DUP1 DUP3 ADD MLOAD DUP2 DUP5 ADD MSTORE PUSH1 0x20 DUP2 ADD SWAP1 POP PUSH2 0x6A6 JUMP JUMPDEST DUP4 DUP2 GT ISZERO PUSH2 0x6D0 JUMPI PUSH1 0x0 DUP5 DUP5 ADD MSTORE JUMPDEST POP POP POP POP JUMP JUMPDEST PUSH1 0x0 PUSH1 0x2 DUP3 DIV SWAP1 POP PUSH1 0x1 DUP3 AND DUP1 PUSH2 0x6EE JUMPI PUSH1 0x7F DUP3 AND SWAP2 POP JUMPDEST PUSH1 0x20 DUP3 LT DUP2 EQ ISZERO PUSH2 0x702 JUMPI PUSH2 0x701 PUSH2 0x739 JUMP JUMPDEST JUMPDEST POP SWAP2 SWAP1 POP JUMP JUMPDEST PUSH2 0x711 DUP3 PUSH2 0x7AB JUMP JUMPDEST DUP2 ADD DUP2 DUP2 LT PUSH8 0xFFFFFFFFFFFFFFFF DUP3 GT OR ISZERO PUSH2 0x730 JUMPI PUSH2 0x72F PUSH2 0x768 JUMP JUMPDEST JUMPDEST DUP1 PUSH1 0x40 MSTORE POP POP POP JUMP JUMPDEST PUSH32 0x4E487B7100000000000000000000000000000000000000000000000000000000 PUSH1 0x0 MSTORE PUSH1 0x22 PUSH1 0x4 MSTORE PUSH1 0x24 PUSH1 0x0 REVERT JUMPDEST PUSH32 0x4E487B7100000000000000000000000000000000000000000000000000000000 PUSH1 0x0 MSTORE PUSH1 0x41 PUSH1 0x4 MSTORE PUSH1 0x24 PUSH1 0x0 REVERT JUMPDEST PUSH1 0x0 DUP1 REVERT JUMPDEST PUSH1 0x0 DUP1 REVERT JUMPDEST PUSH1 0x0 DUP1 REVERT JUMPDEST PUSH1 0x0 DUP1 REVERT JUMPDEST PUSH1 0x0 PUSH1 0x1F NOT PUSH1 0x1F DUP4 ADD AND SWAP1 POP SWAP2 SWAP1 POP JUMP JUMPDEST PUSH2 0x7C5 DUP2 PUSH2 0x658 JUMP JUMPDEST DUP2 EQ PUSH2 0x7D0 JUMPI PUSH1 0x0 DUP1 REVERT JUMPDEST POP JUMP JUMPDEST PUSH2 0x7DC DUP2 PUSH2 0x68A JUMP JUMPDEST DUP2 EQ PUSH2 0x7E7 JUMPI PUSH1 0x0 DUP1 REVERT JUMPDEST POP JUMP INVALID LOG2 PUSH5 0x6970667358 0x22 SLT KECCAK256 0x2A 0xD9 PUSH4 0xC0F625C5 0xAA CREATE PUSH32 0xB45737AD5441DC6637599CB1AD6982FB3266487B888A64736F6C634300080700 CALLER "
				},
				"gasEstimates": {
					"creation": {
						"codeDepositCost": "416000",
						"executionCost": "449",
						"totalCost": "416449"
					},
					"external": {
						"addBus(address,string,uint256,string)": "infinite",
						"addStudent(string,uint256,address)": "infinite",
						"reservation_seat(uint256,string,uint256)": "infinite"
					}
				},
				"methodIdentifiers": {
					"addBus(address,string,uint256,string)": "009a4d3c",
					"addStudent(string,uint256,address)": "e9e8a17c",
					"reservation_seat(uint256,string,uint256)": "91853934"
				}
			},
			"storageLayout": {
				"storage": [
					{
						"astId": 26,
						"contract": "contracts/minsubus.sol:Database",
						"label": "manager",
						"offset": 0,
						"slot": "0",
						"type": "t_address"
					},
					{
						"astId": 29,
						"contract": "contracts/minsubus.sol:Database",
						"label": "buses",
						"offset": 0,
						"slot": "1",
						"type": "t_array(t_address)dyn_storage"
					},
					{
						"astId": 32,
						"contract": "contracts/minsubus.sol:Database",
						"label": "students",
						"offset": 0,
						"slot": "2",
						"type": "t_array(t_address)dyn_storage"
					},
					{
						"astId": 35,
						"contract": "contracts/minsubus.sol:Database",
						"label": "busNum",
						"offset": 0,
						"slot": "3",
						"type": "t_array(t_string_storage)dyn_storage"
					},
					{
						"astId": 38,
						"contract": "contracts/minsubus.sol:Database",
						"label": "studentNum",
						"offset": 0,
						"slot": "4",
						"type": "t_array(t_uint256)dyn_storage"
					},
					{
						"astId": 43,
						"contract": "contracts/minsubus.sol:Database",
						"label": "BusDB",
						"offset": 0,
						"slot": "5",
						"type": "t_mapping(t_string_memory_ptr,t_struct(Bus_DB)19_storage)"
					},
					{
						"astId": 48,
						"contract": "contracts/minsubus.sol:Database",
						"label": "StudentDB",
						"offset": 0,
						"slot": "6",
						"type": "t_mapping(t_uint256,t_struct(Student_DB)8_storage)"
					},
					{
						"astId": 53,
						"contract": "contracts/minsubus.sol:Database",
						"label": "BusSeat",
						"offset": 0,
						"slot": "7",
						"type": "t_mapping(t_uint256,t_struct(bus_seat)24_storage)"
					}
				],
				"types": {
					"t_address": {
						"encoding": "inplace",
						"label": "address",
						"numberOfBytes": "20"
					},
					"t_array(t_address)dyn_storage": {
						"base": "t_address",
						"encoding": "dynamic_array",
						"label": "address[]",
						"numberOfBytes": "32"
					},
					"t_array(t_string_storage)dyn_storage": {
						"base": "t_string_storage",
						"encoding": "dynamic_array",
						"label": "string[]",
						"numberOfBytes": "32"
					},
					"t_array(t_uint256)45_storage": {
						"base": "t_uint256",
						"encoding": "inplace",
						"label": "uint256[45]",
						"numberOfBytes": "1440"
					},
					"t_array(t_uint256)dyn_storage": {
						"base": "t_uint256",
						"encoding": "dynamic_array",
						"label": "uint256[]",
						"numberOfBytes": "32"
					},
					"t_mapping(t_string_memory_ptr,t_struct(Bus_DB)19_storage)": {
						"encoding": "mapping",
						"key": "t_string_memory_ptr",
						"label": "mapping(string => struct Database.Bus_DB)",
						"numberOfBytes": "32",
						"value": "t_struct(Bus_DB)19_storage"
					},
					"t_mapping(t_uint256,t_struct(Student_DB)8_storage)": {
						"encoding": "mapping",
						"key": "t_uint256",
						"label": "mapping(uint256 => struct Database.Student_DB)",
						"numberOfBytes": "32",
						"value": "t_struct(Student_DB)8_storage"
					},
					"t_mapping(t_uint256,t_struct(bus_seat)24_storage)": {
						"encoding": "mapping",
						"key": "t_uint256",
						"label": "mapping(uint256 => struct Database.bus_seat)",
						"numberOfBytes": "32",
						"value": "t_struct(bus_seat)24_storage"
					},
					"t_string_memory_ptr": {
						"encoding": "bytes",
						"label": "string",
						"numberOfBytes": "32"
					},
					"t_string_storage": {
						"encoding": "bytes",
						"label": "string",
						"numberOfBytes": "32"
					},
					"t_struct(Bus_DB)19_storage": {
						"encoding": "inplace",
						"label": "struct Database.Bus_DB",
						"members": [
							{
								"astId": 10,
								"contract": "contracts/minsubus.sol:Database",
								"label": "bus",
								"offset": 0,
								"slot": "0",
								"type": "t_address"
							},
							{
								"astId": 12,
								"contract": "contracts/minsubus.sol:Database",
								"label": "destination",
								"offset": 0,
								"slot": "1",
								"type": "t_string_storage"
							},
							{
								"astId": 14,
								"contract": "contracts/minsubus.sol:Database",
								"label": "start_time",
								"offset": 0,
								"slot": "2",
								"type": "t_uint256"
							},
							{
								"astId": 18,
								"contract": "contracts/minsubus.sol:Database",
								"label": "Seat_number",
								"offset": 0,
								"slot": "3",
								"type": "t_array(t_uint256)45_storage"
							}
						],
						"numberOfBytes": "1536"
					},
					"t_struct(Student_DB)8_storage": {
						"encoding": "inplace",
						"label": "struct Database.Student_DB",
						"members": [
							{
								"astId": 5,
								"contract": "contracts/minsubus.sol:Database",
								"label": "student_name",
								"offset": 0,
								"slot": "0",
								"type": "t_string_storage"
							},
							{
								"astId": 7,
								"contract": "contracts/minsubus.sol:Database",
								"label": "student",
								"offset": 0,
								"slot": "1",
								"type": "t_address"
							}
						],
						"numberOfBytes": "64"
					},
					"t_struct(bus_seat)24_storage": {
						"encoding": "inplace",
						"label": "struct Database.bus_seat",
						"members": [
							{
								"astId": 21,
								"contract": "contracts/minsubus.sol:Database",
								"label": "student_name",
								"offset": 0,
								"slot": "0",
								"type": "t_string_storage"
							},
							{
								"astId": 23,
								"contract": "contracts/minsubus.sol:Database",
								"label": "student_id",
								"offset": 0,
								"slot": "1",
								"type": "t_uint256"
							}
						],
						"numberOfBytes": "64"
					},
					"t_uint256": {
						"encoding": "inplace",
						"label": "uint256",
						"numberOfBytes": "32"
					}
				}
			},
			"userdoc": {
				"kind": "user",
				"methods": {},
				"version": 1
			}
		}
	}
}