{
	"contracts/main.sol": {
		"smartReservation": {
			"abi": [
				{
					"inputs": [],
					"stateMutability": "nonpayable",
					"type": "constructor"
				},
				{
					"inputs": [
						{
							"internalType": "uint256",
							"name": "_num",
							"type": "uint256"
						},
						{
							"internalType": "string",
							"name": "_destination",
							"type": "string"
						}
					],
					"name": "addBus",
					"outputs": [],
					"stateMutability": "nonpayable",
					"type": "function"
				}
			],
			"devdoc": {
				"kind": "dev",
				"methods": {},
				"version": 1
			},
			"evm": {
				"assembly": "    /* \"contracts/main.sol\":144:563  contract smartReservation{... */\n  mstore(0x40, 0x80)\n    /* \"contracts/main.sol\":237:287  constructor(){... */\n  callvalue\n  dup1\n  iszero\n  tag_1\n  jumpi\n  0x00\n  dup1\n  revert\ntag_1:\n  pop\n    /* \"contracts/main.sol\":270:280  msg.sender */\n  caller\n    /* \"contracts/main.sol\":260:267  manager */\n  0x00\n  dup1\n    /* \"contracts/main.sol\":260:280  manager = msg.sender */\n  0x0100\n  exp\n  dup2\n  sload\n  dup2\n  0xffffffffffffffffffffffffffffffffffffffff\n  mul\n  not\n  and\n  swap1\n  dup4\n  0xffffffffffffffffffffffffffffffffffffffff\n  and\n  mul\n  or\n  swap1\n  sstore\n  pop\n    /* \"contracts/main.sol\":144:563  contract smartReservation{... */\n  dataSize(sub_0)\n  dup1\n  dataOffset(sub_0)\n  0x00\n  codecopy\n  0x00\n  return\nstop\n\nsub_0: assembly {\n        /* \"contracts/main.sol\":144:563  contract smartReservation{... */\n      mstore(0x40, 0x80)\n      callvalue\n      dup1\n      iszero\n      tag_1\n      jumpi\n      0x00\n      dup1\n      revert\n    tag_1:\n      pop\n      jumpi(tag_2, lt(calldatasize, 0x04))\n      shr(0xe0, calldataload(0x00))\n      dup1\n      0xfbcc6cb5\n      eq\n      tag_3\n      jumpi\n    tag_2:\n      0x00\n      dup1\n      revert\n        /* \"contracts/main.sol\":364:561  function addBus(uint _num,string memory _destination) public{... */\n    tag_3:\n      tag_4\n      0x04\n      dup1\n      calldatasize\n      sub\n      dup2\n      add\n      swap1\n      tag_5\n      swap2\n      swap1\n      tag_6\n      jump\t// in\n    tag_5:\n      tag_7\n      jump\t// in\n    tag_4:\n      stop\n    tag_7:\n        /* \"contracts/main.sol\":456:463  manager */\n      0x00\n      dup1\n      sload\n      swap1\n      0x0100\n      exp\n      swap1\n      div\n      0xffffffffffffffffffffffffffffffffffffffff\n      and\n        /* \"contracts/main.sol\":442:463  msg.sender == manager */\n      0xffffffffffffffffffffffffffffffffffffffff\n      and\n        /* \"contracts/main.sol\":442:452  msg.sender */\n      caller\n        /* \"contracts/main.sol\":442:463  msg.sender == manager */\n      0xffffffffffffffffffffffffffffffffffffffff\n      and\n      eq\n        /* \"contracts/main.sol\":434:501  require(msg.sender == manager,... */\n      tag_9\n      jumpi\n      mload(0x40)\n      0x08c379a000000000000000000000000000000000000000000000000000000000\n      dup2\n      mstore\n      0x04\n      add\n      tag_10\n      swap1\n      tag_11\n      jump\t// in\n    tag_10:\n      mload(0x40)\n      dup1\n      swap2\n      sub\n      swap1\n      revert\n    tag_9:\n        /* \"contracts/main.sol\":536:540  _num */\n      dup2\n        /* \"contracts/main.sol\":541:553  _destination */\n      dup2\n        /* \"contracts/main.sol\":528:554  new Bus(_num,_destination) */\n      mload(0x40)\n      tag_12\n      swap1\n      tag_13\n      jump\t// in\n    tag_12:\n      tag_14\n      swap3\n      swap2\n      swap1\n      tag_15\n      jump\t// in\n    tag_14:\n      mload(0x40)\n      dup1\n      swap2\n      sub\n      swap1\n      0x00\n      create\n      dup1\n      iszero\n      dup1\n      iszero\n      tag_16\n      jumpi\n      returndatasize\n      0x00\n      dup1\n      returndatacopy\n      revert(0x00, returndatasize)\n    tag_16:\n      pop\n        /* \"contracts/main.sol\":516:519  bus */\n      0x01\n        /* \"contracts/main.sol\":516:525  bus[_num] */\n      0x00\n        /* \"contracts/main.sol\":520:524  _num */\n      dup5\n        /* \"contracts/main.sol\":516:525  bus[_num] */\n      dup2\n      mstore\n      0x20\n      add\n      swap1\n      dup2\n      mstore\n      0x20\n      add\n      0x00\n      keccak256\n      0x00\n        /* \"contracts/main.sol\":516:554  bus[_num] = new Bus(_num,_destination) */\n      0x0100\n      exp\n      dup2\n      sload\n      dup2\n      0xffffffffffffffffffffffffffffffffffffffff\n      mul\n      not\n      and\n      swap1\n      dup4\n      0xffffffffffffffffffffffffffffffffffffffff\n      and\n      mul\n      or\n      swap1\n      sstore\n      pop\n        /* \"contracts/main.sol\":364:561  function addBus(uint _num,string memory _destination) public{... */\n      pop\n      pop\n      jump\t// out\n    tag_13:\n      dataSize(sub_0)\n      dup1\n      dataOffset(sub_0)\n      dup4\n      codecopy\n      add\n      swap1\n      jump\t// out\n        /* \"#utility.yul\":7:419   */\n    tag_18:\n        /* \"#utility.yul\":85:90   */\n      0x00\n        /* \"#utility.yul\":110:176   */\n      tag_20\n        /* \"#utility.yul\":126:175   */\n      tag_21\n        /* \"#utility.yul\":168:174   */\n      dup5\n        /* \"#utility.yul\":126:175   */\n      tag_22\n      jump\t// in\n    tag_21:\n        /* \"#utility.yul\":110:176   */\n      tag_23\n      jump\t// in\n    tag_20:\n        /* \"#utility.yul\":101:176   */\n      swap1\n      pop\n        /* \"#utility.yul\":199:205   */\n      dup3\n        /* \"#utility.yul\":192:197   */\n      dup2\n        /* \"#utility.yul\":185:206   */\n      mstore\n        /* \"#utility.yul\":237:241   */\n      0x20\n        /* \"#utility.yul\":230:235   */\n      dup2\n        /* \"#utility.yul\":226:242   */\n      add\n        /* \"#utility.yul\":275:278   */\n      dup5\n        /* \"#utility.yul\":266:272   */\n      dup5\n        /* \"#utility.yul\":261:264   */\n      dup5\n        /* \"#utility.yul\":257:273   */\n      add\n        /* \"#utility.yul\":254:279   */\n      gt\n        /* \"#utility.yul\":251:363   */\n      iszero\n      tag_24\n      jumpi\n        /* \"#utility.yul\":282:361   */\n      tag_25\n      tag_26\n      jump\t// in\n    tag_25:\n        /* \"#utility.yul\":251:363   */\n    tag_24:\n        /* \"#utility.yul\":372:413   */\n      tag_27\n        /* \"#utility.yul\":406:412   */\n      dup5\n        /* \"#utility.yul\":401:404   */\n      dup3\n        /* \"#utility.yul\":396:399   */\n      dup6\n        /* \"#utility.yul\":372:413   */\n      tag_28\n      jump\t// in\n    tag_27:\n        /* \"#utility.yul\":91:419   */\n      pop\n        /* \"#utility.yul\":7:419   */\n      swap4\n      swap3\n      pop\n      pop\n      pop\n      jump\t// out\n        /* \"#utility.yul\":439:779   */\n    tag_29:\n        /* \"#utility.yul\":495:500   */\n      0x00\n        /* \"#utility.yul\":544:547   */\n      dup3\n        /* \"#utility.yul\":537:541   */\n      0x1f\n        /* \"#utility.yul\":529:535   */\n      dup4\n        /* \"#utility.yul\":525:542   */\n      add\n        /* \"#utility.yul\":521:548   */\n      slt\n        /* \"#utility.yul\":511:633   */\n      tag_31\n      jumpi\n        /* \"#utility.yul\":552:631   */\n      tag_32\n      tag_33\n      jump\t// in\n    tag_32:\n        /* \"#utility.yul\":511:633   */\n    tag_31:\n        /* \"#utility.yul\":669:675   */\n      dup2\n        /* \"#utility.yul\":656:676   */\n      calldataload\n        /* \"#utility.yul\":694:773   */\n      tag_34\n        /* \"#utility.yul\":769:772   */\n      dup5\n        /* \"#utility.yul\":761:767   */\n      dup3\n        /* \"#utility.yul\":754:758   */\n      0x20\n        /* \"#utility.yul\":746:752   */\n      dup7\n        /* \"#utility.yul\":742:759   */\n      add\n        /* \"#utility.yul\":694:773   */\n      tag_18\n      jump\t// in\n    tag_34:\n        /* \"#utility.yul\":685:773   */\n      swap2\n      pop\n        /* \"#utility.yul\":501:779   */\n      pop\n        /* \"#utility.yul\":439:779   */\n      swap3\n      swap2\n      pop\n      pop\n      jump\t// out\n        /* \"#utility.yul\":785:924   */\n    tag_35:\n        /* \"#utility.yul\":831:836   */\n      0x00\n        /* \"#utility.yul\":869:875   */\n      dup2\n        /* \"#utility.yul\":856:876   */\n      calldataload\n        /* \"#utility.yul\":847:876   */\n      swap1\n      pop\n        /* \"#utility.yul\":885:918   */\n      tag_37\n        /* \"#utility.yul\":912:917   */\n      dup2\n        /* \"#utility.yul\":885:918   */\n      tag_38\n      jump\t// in\n    tag_37:\n        /* \"#utility.yul\":785:924   */\n      swap3\n      swap2\n      pop\n      pop\n      jump\t// out\n        /* \"#utility.yul\":930:1584   */\n    tag_6:\n        /* \"#utility.yul\":1008:1014   */\n      0x00\n        /* \"#utility.yul\":1016:1022   */\n      dup1\n        /* \"#utility.yul\":1065:1067   */\n      0x40\n        /* \"#utility.yul\":1053:1062   */\n      dup4\n        /* \"#utility.yul\":1044:1051   */\n      dup6\n        /* \"#utility.yul\":1040:1063   */\n      sub\n        /* \"#utility.yul\":1036:1068   */\n      slt\n        /* \"#utility.yul\":1033:1152   */\n      iszero\n      tag_40\n      jumpi\n        /* \"#utility.yul\":1071:1150   */\n      tag_41\n      tag_42\n      jump\t// in\n    tag_41:\n        /* \"#utility.yul\":1033:1152   */\n    tag_40:\n        /* \"#utility.yul\":1191:1192   */\n      0x00\n        /* \"#utility.yul\":1216:1269   */\n      tag_43\n        /* \"#utility.yul\":1261:1268   */\n      dup6\n        /* \"#utility.yul\":1252:1258   */\n      dup3\n        /* \"#utility.yul\":1241:1250   */\n      dup7\n        /* \"#utility.yul\":1237:1259   */\n      add\n        /* \"#utility.yul\":1216:1269   */\n      tag_35\n      jump\t// in\n    tag_43:\n        /* \"#utility.yul\":1206:1269   */\n      swap3\n      pop\n        /* \"#utility.yul\":1162:1279   */\n      pop\n        /* \"#utility.yul\":1346:1348   */\n      0x20\n        /* \"#utility.yul\":1335:1344   */\n      dup4\n        /* \"#utility.yul\":1331:1349   */\n      add\n        /* \"#utility.yul\":1318:1350   */\n      calldataload\n        /* \"#utility.yul\":1377:1395   */\n      0xffffffffffffffff\n        /* \"#utility.yul\":1369:1375   */\n      dup2\n        /* \"#utility.yul\":1366:1396   */\n      gt\n        /* \"#utility.yul\":1363:1480   */\n      iszero\n      tag_44\n      jumpi\n        /* \"#utility.yul\":1399:1478   */\n      tag_45\n      tag_46\n      jump\t// in\n    tag_45:\n        /* \"#utility.yul\":1363:1480   */\n    tag_44:\n        /* \"#utility.yul\":1504:1567   */\n      tag_47\n        /* \"#utility.yul\":1559:1566   */\n      dup6\n        /* \"#utility.yul\":1550:1556   */\n      dup3\n        /* \"#utility.yul\":1539:1548   */\n      dup7\n        /* \"#utility.yul\":1535:1557   */\n      add\n        /* \"#utility.yul\":1504:1567   */\n      tag_29\n      jump\t// in\n    tag_47:\n        /* \"#utility.yul\":1494:1567   */\n      swap2\n      pop\n        /* \"#utility.yul\":1289:1577   */\n      pop\n        /* \"#utility.yul\":930:1584   */\n      swap3\n      pop\n      swap3\n      swap1\n      pop\n      jump\t// out\n        /* \"#utility.yul\":1590:1954   */\n    tag_48:\n        /* \"#utility.yul\":1678:1681   */\n      0x00\n        /* \"#utility.yul\":1706:1745   */\n      tag_50\n        /* \"#utility.yul\":1739:1744   */\n      dup3\n        /* \"#utility.yul\":1706:1745   */\n      tag_51\n      jump\t// in\n    tag_50:\n        /* \"#utility.yul\":1761:1832   */\n      tag_52\n        /* \"#utility.yul\":1825:1831   */\n      dup2\n        /* \"#utility.yul\":1820:1823   */\n      dup6\n        /* \"#utility.yul\":1761:1832   */\n      tag_53\n      jump\t// in\n    tag_52:\n        /* \"#utility.yul\":1754:1832   */\n      swap4\n      pop\n        /* \"#utility.yul\":1841:1893   */\n      tag_54\n        /* \"#utility.yul\":1886:1892   */\n      dup2\n        /* \"#utility.yul\":1881:1884   */\n      dup6\n        /* \"#utility.yul\":1874:1878   */\n      0x20\n        /* \"#utility.yul\":1867:1872   */\n      dup7\n        /* \"#utility.yul\":1863:1879   */\n      add\n        /* \"#utility.yul\":1841:1893   */\n      tag_55\n      jump\t// in\n    tag_54:\n        /* \"#utility.yul\":1918:1947   */\n      tag_56\n        /* \"#utility.yul\":1940:1946   */\n      dup2\n        /* \"#utility.yul\":1918:1947   */\n      tag_57\n      jump\t// in\n    tag_56:\n        /* \"#utility.yul\":1913:1916   */\n      dup5\n        /* \"#utility.yul\":1909:1948   */\n      add\n        /* \"#utility.yul\":1902:1948   */\n      swap2\n      pop\n        /* \"#utility.yul\":1682:1954   */\n      pop\n        /* \"#utility.yul\":1590:1954   */\n      swap3\n      swap2\n      pop\n      pop\n      jump\t// out\n        /* \"#utility.yul\":1960:2326   */\n    tag_58:\n        /* \"#utility.yul\":2102:2105   */\n      0x00\n        /* \"#utility.yul\":2123:2190   */\n      tag_60\n        /* \"#utility.yul\":2187:2189   */\n      0x15\n        /* \"#utility.yul\":2182:2185   */\n      dup4\n        /* \"#utility.yul\":2123:2190   */\n      tag_53\n      jump\t// in\n    tag_60:\n        /* \"#utility.yul\":2116:2190   */\n      swap2\n      pop\n        /* \"#utility.yul\":2199:2292   */\n      tag_61\n        /* \"#utility.yul\":2288:2291   */\n      dup3\n        /* \"#utility.yul\":2199:2292   */\n      tag_62\n      jump\t// in\n    tag_61:\n        /* \"#utility.yul\":2317:2319   */\n      0x20\n        /* \"#utility.yul\":2312:2315   */\n      dup3\n        /* \"#utility.yul\":2308:2320   */\n      add\n        /* \"#utility.yul\":2301:2320   */\n      swap1\n      pop\n        /* \"#utility.yul\":1960:2326   */\n      swap2\n      swap1\n      pop\n      jump\t// out\n        /* \"#utility.yul\":2332:2450   */\n    tag_63:\n        /* \"#utility.yul\":2419:2443   */\n      tag_65\n        /* \"#utility.yul\":2437:2442   */\n      dup2\n        /* \"#utility.yul\":2419:2443   */\n      tag_66\n      jump\t// in\n    tag_65:\n        /* \"#utility.yul\":2414:2417   */\n      dup3\n        /* \"#utility.yul\":2407:2444   */\n      mstore\n        /* \"#utility.yul\":2332:2450   */\n      pop\n      pop\n      jump\t// out\n        /* \"#utility.yul\":2456:2875   */\n    tag_11:\n        /* \"#utility.yul\":2622:2626   */\n      0x00\n        /* \"#utility.yul\":2660:2662   */\n      0x20\n        /* \"#utility.yul\":2649:2658   */\n      dup3\n        /* \"#utility.yul\":2645:2663   */\n      add\n        /* \"#utility.yul\":2637:2663   */\n      swap1\n      pop\n        /* \"#utility.yul\":2709:2718   */\n      dup2\n        /* \"#utility.yul\":2703:2707   */\n      dup2\n        /* \"#utility.yul\":2699:2719   */\n      sub\n        /* \"#utility.yul\":2695:2696   */\n      0x00\n        /* \"#utility.yul\":2684:2693   */\n      dup4\n        /* \"#utility.yul\":2680:2697   */\n      add\n        /* \"#utility.yul\":2673:2720   */\n      mstore\n        /* \"#utility.yul\":2737:2868   */\n      tag_68\n        /* \"#utility.yul\":2863:2867   */\n      dup2\n        /* \"#utility.yul\":2737:2868   */\n      tag_58\n      jump\t// in\n    tag_68:\n        /* \"#utility.yul\":2729:2868   */\n      swap1\n      pop\n        /* \"#utility.yul\":2456:2875   */\n      swap2\n      swap1\n      pop\n      jump\t// out\n        /* \"#utility.yul\":2881:3304   */\n    tag_15:\n        /* \"#utility.yul\":3022:3026   */\n      0x00\n        /* \"#utility.yul\":3060:3062   */\n      0x40\n        /* \"#utility.yul\":3049:3058   */\n      dup3\n        /* \"#utility.yul\":3045:3063   */\n      add\n        /* \"#utility.yul\":3037:3063   */\n      swap1\n      pop\n        /* \"#utility.yul\":3073:3144   */\n      tag_70\n        /* \"#utility.yul\":3141:3142   */\n      0x00\n        /* \"#utility.yul\":3130:3139   */\n      dup4\n        /* \"#utility.yul\":3126:3143   */\n      add\n        /* \"#utility.yul\":3117:3123   */\n      dup6\n        /* \"#utility.yul\":3073:3144   */\n      tag_63\n      jump\t// in\n    tag_70:\n        /* \"#utility.yul\":3191:3200   */\n      dup2\n        /* \"#utility.yul\":3185:3189   */\n      dup2\n        /* \"#utility.yul\":3181:3201   */\n      sub\n        /* \"#utility.yul\":3176:3178   */\n      0x20\n        /* \"#utility.yul\":3165:3174   */\n      dup4\n        /* \"#utility.yul\":3161:3179   */\n      add\n        /* \"#utility.yul\":3154:3202   */\n      mstore\n        /* \"#utility.yul\":3219:3297   */\n      tag_71\n        /* \"#utility.yul\":3292:3296   */\n      dup2\n        /* \"#utility.yul\":3283:3289   */\n      dup5\n        /* \"#utility.yul\":3219:3297   */\n      tag_48\n      jump\t// in\n    tag_71:\n        /* \"#utility.yul\":3211:3297   */\n      swap1\n      pop\n        /* \"#utility.yul\":2881:3304   */\n      swap4\n      swap3\n      pop\n      pop\n      pop\n      jump\t// out\n        /* \"#utility.yul\":3310:3439   */\n    tag_23:\n        /* \"#utility.yul\":3344:3350   */\n      0x00\n        /* \"#utility.yul\":3371:3391   */\n      tag_73\n      tag_74\n      jump\t// in\n    tag_73:\n        /* \"#utility.yul\":3361:3391   */\n      swap1\n      pop\n        /* \"#utility.yul\":3400:3433   */\n      tag_75\n        /* \"#utility.yul\":3428:3432   */\n      dup3\n        /* \"#utility.yul\":3420:3426   */\n      dup3\n        /* \"#utility.yul\":3400:3433   */\n      tag_76\n      jump\t// in\n    tag_75:\n        /* \"#utility.yul\":3310:3439   */\n      swap2\n      swap1\n      pop\n      jump\t// out\n        /* \"#utility.yul\":3445:3520   */\n    tag_74:\n        /* \"#utility.yul\":3478:3484   */\n      0x00\n        /* \"#utility.yul\":3511:3513   */\n      0x40\n        /* \"#utility.yul\":3505:3514   */\n      mload\n        /* \"#utility.yul\":3495:3514   */\n      swap1\n      pop\n        /* \"#utility.yul\":3445:3520   */\n      swap1\n      jump\t// out\n        /* \"#utility.yul\":3526:3834   */\n    tag_22:\n        /* \"#utility.yul\":3588:3592   */\n      0x00\n        /* \"#utility.yul\":3678:3696   */\n      0xffffffffffffffff\n        /* \"#utility.yul\":3670:3676   */\n      dup3\n        /* \"#utility.yul\":3667:3697   */\n      gt\n        /* \"#utility.yul\":3664:3720   */\n      iszero\n      tag_79\n      jumpi\n        /* \"#utility.yul\":3700:3718   */\n      tag_80\n      tag_81\n      jump\t// in\n    tag_80:\n        /* \"#utility.yul\":3664:3720   */\n    tag_79:\n        /* \"#utility.yul\":3738:3767   */\n      tag_82\n        /* \"#utility.yul\":3760:3766   */\n      dup3\n        /* \"#utility.yul\":3738:3767   */\n      tag_57\n      jump\t// in\n    tag_82:\n        /* \"#utility.yul\":3730:3767   */\n      swap1\n      pop\n        /* \"#utility.yul\":3822:3826   */\n      0x20\n        /* \"#utility.yul\":3816:3820   */\n      dup2\n        /* \"#utility.yul\":3812:3827   */\n      add\n        /* \"#utility.yul\":3804:3827   */\n      swap1\n      pop\n        /* \"#utility.yul\":3526:3834   */\n      swap2\n      swap1\n      pop\n      jump\t// out\n        /* \"#utility.yul\":3840:3939   */\n    tag_51:\n        /* \"#utility.yul\":3892:3898   */\n      0x00\n        /* \"#utility.yul\":3926:3931   */\n      dup2\n        /* \"#utility.yul\":3920:3932   */\n      mload\n        /* \"#utility.yul\":3910:3932   */\n      swap1\n      pop\n        /* \"#utility.yul\":3840:3939   */\n      swap2\n      swap1\n      pop\n      jump\t// out\n        /* \"#utility.yul\":3945:4114   */\n    tag_53:\n        /* \"#utility.yul\":4029:4040   */\n      0x00\n        /* \"#utility.yul\":4063:4069   */\n      dup3\n        /* \"#utility.yul\":4058:4061   */\n      dup3\n        /* \"#utility.yul\":4051:4070   */\n      mstore\n        /* \"#utility.yul\":4103:4107   */\n      0x20\n        /* \"#utility.yul\":4098:4101   */\n      dup3\n        /* \"#utility.yul\":4094:4108   */\n      add\n        /* \"#utility.yul\":4079:4108   */\n      swap1\n      pop\n        /* \"#utility.yul\":3945:4114   */\n      swap3\n      swap2\n      pop\n      pop\n      jump\t// out\n        /* \"#utility.yul\":4120:4197   */\n    tag_66:\n        /* \"#utility.yul\":4157:4164   */\n      0x00\n        /* \"#utility.yul\":4186:4191   */\n      dup2\n        /* \"#utility.yul\":4175:4191   */\n      swap1\n      pop\n        /* \"#utility.yul\":4120:4197   */\n      swap2\n      swap1\n      pop\n      jump\t// out\n        /* \"#utility.yul\":4203:4357   */\n    tag_28:\n        /* \"#utility.yul\":4287:4293   */\n      dup3\n        /* \"#utility.yul\":4282:4285   */\n      dup2\n        /* \"#utility.yul\":4277:4280   */\n      dup4\n        /* \"#utility.yul\":4264:4294   */\n      calldatacopy\n        /* \"#utility.yul\":4349:4350   */\n      0x00\n        /* \"#utility.yul\":4340:4346   */\n      dup4\n        /* \"#utility.yul\":4335:4338   */\n      dup4\n        /* \"#utility.yul\":4331:4347   */\n      add\n        /* \"#utility.yul\":4324:4351   */\n      mstore\n        /* \"#utility.yul\":4203:4357   */\n      pop\n      pop\n      pop\n      jump\t// out\n        /* \"#utility.yul\":4363:4670   */\n    tag_55:\n        /* \"#utility.yul\":4431:4432   */\n      0x00\n        /* \"#utility.yul\":4441:4554   */\n    tag_88:\n        /* \"#utility.yul\":4455:4461   */\n      dup4\n        /* \"#utility.yul\":4452:4453   */\n      dup2\n        /* \"#utility.yul\":4449:4462   */\n      lt\n        /* \"#utility.yul\":4441:4554   */\n      iszero\n      tag_90\n      jumpi\n        /* \"#utility.yul\":4540:4541   */\n      dup1\n        /* \"#utility.yul\":4535:4538   */\n      dup3\n        /* \"#utility.yul\":4531:4542   */\n      add\n        /* \"#utility.yul\":4525:4543   */\n      mload\n        /* \"#utility.yul\":4521:4522   */\n      dup2\n        /* \"#utility.yul\":4516:4519   */\n      dup5\n        /* \"#utility.yul\":4512:4523   */\n      add\n        /* \"#utility.yul\":4505:4544   */\n      mstore\n        /* \"#utility.yul\":4477:4479   */\n      0x20\n        /* \"#utility.yul\":4474:4475   */\n      dup2\n        /* \"#utility.yul\":4470:4480   */\n      add\n        /* \"#utility.yul\":4465:4480   */\n      swap1\n      pop\n        /* \"#utility.yul\":4441:4554   */\n      jump(tag_88)\n    tag_90:\n        /* \"#utility.yul\":4572:4578   */\n      dup4\n        /* \"#utility.yul\":4569:4570   */\n      dup2\n        /* \"#utility.yul\":4566:4579   */\n      gt\n        /* \"#utility.yul\":4563:4664   */\n      iszero\n      tag_91\n      jumpi\n        /* \"#utility.yul\":4652:4653   */\n      0x00\n        /* \"#utility.yul\":4643:4649   */\n      dup5\n        /* \"#utility.yul\":4638:4641   */\n      dup5\n        /* \"#utility.yul\":4634:4650   */\n      add\n        /* \"#utility.yul\":4627:4654   */\n      mstore\n        /* \"#utility.yul\":4563:4664   */\n    tag_91:\n        /* \"#utility.yul\":4412:4670   */\n      pop\n        /* \"#utility.yul\":4363:4670   */\n      pop\n      pop\n      pop\n      jump\t// out\n        /* \"#utility.yul\":4676:4957   */\n    tag_76:\n        /* \"#utility.yul\":4759:4786   */\n      tag_93\n        /* \"#utility.yul\":4781:4785   */\n      dup3\n        /* \"#utility.yul\":4759:4786   */\n      tag_57\n      jump\t// in\n    tag_93:\n        /* \"#utility.yul\":4751:4757   */\n      dup2\n        /* \"#utility.yul\":4747:4787   */\n      add\n        /* \"#utility.yul\":4889:4895   */\n      dup2\n        /* \"#utility.yul\":4877:4887   */\n      dup2\n        /* \"#utility.yul\":4874:4896   */\n      lt\n        /* \"#utility.yul\":4853:4871   */\n      0xffffffffffffffff\n        /* \"#utility.yul\":4841:4851   */\n      dup3\n        /* \"#utility.yul\":4838:4872   */\n      gt\n        /* \"#utility.yul\":4835:4897   */\n      or\n        /* \"#utility.yul\":4832:4920   */\n      iszero\n      tag_94\n      jumpi\n        /* \"#utility.yul\":4900:4918   */\n      tag_95\n      tag_81\n      jump\t// in\n    tag_95:\n        /* \"#utility.yul\":4832:4920   */\n    tag_94:\n        /* \"#utility.yul\":4940:4950   */\n      dup1\n        /* \"#utility.yul\":4936:4938   */\n      0x40\n        /* \"#utility.yul\":4929:4951   */\n      mstore\n        /* \"#utility.yul\":4719:4957   */\n      pop\n        /* \"#utility.yul\":4676:4957   */\n      pop\n      pop\n      jump\t// out\n        /* \"#utility.yul\":4963:5143   */\n    tag_81:\n        /* \"#utility.yul\":5011:5088   */\n      0x4e487b7100000000000000000000000000000000000000000000000000000000\n        /* \"#utility.yul\":5008:5009   */\n      0x00\n        /* \"#utility.yul\":5001:5089   */\n      mstore\n        /* \"#utility.yul\":5108:5112   */\n      0x41\n        /* \"#utility.yul\":5105:5106   */\n      0x04\n        /* \"#utility.yul\":5098:5113   */\n      mstore\n        /* \"#utility.yul\":5132:5136   */\n      0x24\n        /* \"#utility.yul\":5129:5130   */\n      0x00\n        /* \"#utility.yul\":5122:5137   */\n      revert\n        /* \"#utility.yul\":5149:5266   */\n    tag_33:\n        /* \"#utility.yul\":5258:5259   */\n      0x00\n        /* \"#utility.yul\":5255:5256   */\n      dup1\n        /* \"#utility.yul\":5248:5260   */\n      revert\n        /* \"#utility.yul\":5272:5389   */\n    tag_26:\n        /* \"#utility.yul\":5381:5382   */\n      0x00\n        /* \"#utility.yul\":5378:5379   */\n      dup1\n        /* \"#utility.yul\":5371:5383   */\n      revert\n        /* \"#utility.yul\":5395:5512   */\n    tag_46:\n        /* \"#utility.yul\":5504:5505   */\n      0x00\n        /* \"#utility.yul\":5501:5502   */\n      dup1\n        /* \"#utility.yul\":5494:5506   */\n      revert\n        /* \"#utility.yul\":5518:5635   */\n    tag_42:\n        /* \"#utility.yul\":5627:5628   */\n      0x00\n        /* \"#utility.yul\":5624:5625   */\n      dup1\n        /* \"#utility.yul\":5617:5629   */\n      revert\n        /* \"#utility.yul\":5641:5743   */\n    tag_57:\n        /* \"#utility.yul\":5682:5688   */\n      0x00\n        /* \"#utility.yul\":5733:5735   */\n      0x1f\n        /* \"#utility.yul\":5729:5736   */\n      not\n        /* \"#utility.yul\":5724:5726   */\n      0x1f\n        /* \"#utility.yul\":5717:5722   */\n      dup4\n        /* \"#utility.yul\":5713:5727   */\n      add\n        /* \"#utility.yul\":5709:5737   */\n      and\n        /* \"#utility.yul\":5699:5737   */\n      swap1\n      pop\n        /* \"#utility.yul\":5641:5743   */\n      swap2\n      swap1\n      pop\n      jump\t// out\n        /* \"#utility.yul\":5749:5920   */\n    tag_62:\n        /* \"#utility.yul\":5889:5912   */\n      0x63616c6c6572206973206e6f74204d616e616765720000000000000000000000\n        /* \"#utility.yul\":5885:5886   */\n      0x00\n        /* \"#utility.yul\":5877:5883   */\n      dup3\n        /* \"#utility.yul\":5873:5887   */\n      add\n        /* \"#utility.yul\":5866:5913   */\n      mstore\n        /* \"#utility.yul\":5749:5920   */\n      pop\n      jump\t// out\n        /* \"#utility.yul\":5926:6048   */\n    tag_38:\n        /* \"#utility.yul\":5999:6023   */\n      tag_104\n        /* \"#utility.yul\":6017:6022   */\n      dup2\n        /* \"#utility.yul\":5999:6023   */\n      tag_66\n      jump\t// in\n    tag_104:\n        /* \"#utility.yul\":5992:5997   */\n      dup2\n        /* \"#utility.yul\":5989:6024   */\n      eq\n        /* \"#utility.yul\":5979:6042   */\n      tag_105\n      jumpi\n        /* \"#utility.yul\":6038:6039   */\n      0x00\n        /* \"#utility.yul\":6035:6036   */\n      dup1\n        /* \"#utility.yul\":6028:6040   */\n      revert\n        /* \"#utility.yul\":5979:6042   */\n    tag_105:\n        /* \"#utility.yul\":5926:6048   */\n      pop\n      jump\t// out\n    stop\n\n    sub_0: assembly {\n            /* \"contracts/Bus.sol\":102:633  contract Bus{... */\n          mstore(0x40, 0x80)\n            /* \"contracts/Bus.sol\":299:418  constructor(uint _num, string memory _destination){... */\n          callvalue\n          dup1\n          iszero\n          tag_1\n          jumpi\n          0x00\n          dup1\n          revert\n        tag_1:\n          pop\n          mload(0x40)\n          sub(codesize, bytecodeSize)\n          dup1\n          bytecodeSize\n          dup4\n          codecopy\n          dup2\n          dup2\n          add\n          0x40\n          mstore\n          dup2\n          add\n          swap1\n          tag_2\n          swap2\n          swap1\n          tag_3\n          jump\t// in\n        tag_2:\n            /* \"contracts/Bus.sol\":369:373  _num */\n          dup2\n            /* \"contracts/Bus.sol\":360:366  busNum */\n          0x01\n            /* \"contracts/Bus.sol\":360:373  busNum = _num */\n          dup2\n          swap1\n          sstore\n          pop\n            /* \"contracts/Bus.sol\":398:410  _destination */\n          dup1\n            /* \"contracts/Bus.sol\":384:395  destination */\n          0x02\n            /* \"contracts/Bus.sol\":384:410  destination = _destination */\n          swap1\n          dup1\n          mload\n          swap1\n          0x20\n          add\n          swap1\n          tag_6\n          swap3\n          swap2\n          swap1\n          tag_7\n          jump\t// in\n        tag_6:\n          pop\n            /* \"contracts/Bus.sol\":299:418  constructor(uint _num, string memory _destination){... */\n          pop\n          pop\n            /* \"contracts/Bus.sol\":102:633  contract Bus{... */\n          jump(tag_8)\n        tag_7:\n          dup3\n          dup1\n          sload\n          tag_9\n          swap1\n          tag_10\n          jump\t// in\n        tag_9:\n          swap1\n          0x00\n          mstore\n          keccak256(0x00, 0x20)\n          swap1\n          0x1f\n          add\n          0x20\n          swap1\n          div\n          dup2\n          add\n          swap3\n          dup3\n          tag_12\n          jumpi\n          0x00\n          dup6\n          sstore\n          jump(tag_11)\n        tag_12:\n          dup3\n          0x1f\n          lt\n          tag_13\n          jumpi\n          dup1\n          mload\n          not(0xff)\n          and\n          dup4\n          dup1\n          add\n          or\n          dup6\n          sstore\n          jump(tag_11)\n        tag_13:\n          dup3\n          dup1\n          add\n          0x01\n          add\n          dup6\n          sstore\n          dup3\n          iszero\n          tag_11\n          jumpi\n          swap2\n          dup3\n          add\n        tag_14:\n          dup3\n          dup2\n          gt\n          iszero\n          tag_15\n          jumpi\n          dup3\n          mload\n          dup3\n          sstore\n          swap2\n          0x20\n          add\n          swap2\n          swap1\n          0x01\n          add\n          swap1\n          jump(tag_14)\n        tag_15:\n        tag_11:\n          pop\n          swap1\n          pop\n          tag_16\n          swap2\n          swap1\n          tag_17\n          jump\t// in\n        tag_16:\n          pop\n          swap1\n          jump\t// out\n        tag_17:\n        tag_18:\n          dup1\n          dup3\n          gt\n          iszero\n          tag_19\n          jumpi\n          0x00\n          dup2\n          0x00\n          swap1\n          sstore\n          pop\n          0x01\n          add\n          jump(tag_18)\n        tag_19:\n          pop\n          swap1\n          jump\t// out\n            /* \"#utility.yul\":7:428   */\n        tag_21:\n            /* \"#utility.yul\":96:101   */\n          0x00\n            /* \"#utility.yul\":121:187   */\n          tag_23\n            /* \"#utility.yul\":137:186   */\n          tag_24\n            /* \"#utility.yul\":179:185   */\n          dup5\n            /* \"#utility.yul\":137:186   */\n          tag_25\n          jump\t// in\n        tag_24:\n            /* \"#utility.yul\":121:187   */\n          tag_26\n          jump\t// in\n        tag_23:\n            /* \"#utility.yul\":112:187   */\n          swap1\n          pop\n            /* \"#utility.yul\":210:216   */\n          dup3\n            /* \"#utility.yul\":203:208   */\n          dup2\n            /* \"#utility.yul\":196:217   */\n          mstore\n            /* \"#utility.yul\":248:252   */\n          0x20\n            /* \"#utility.yul\":241:246   */\n          dup2\n            /* \"#utility.yul\":237:253   */\n          add\n            /* \"#utility.yul\":286:289   */\n          dup5\n            /* \"#utility.yul\":277:283   */\n          dup5\n            /* \"#utility.yul\":272:275   */\n          dup5\n            /* \"#utility.yul\":268:284   */\n          add\n            /* \"#utility.yul\":265:290   */\n          gt\n            /* \"#utility.yul\":262:374   */\n          iszero\n          tag_27\n          jumpi\n            /* \"#utility.yul\":293:372   */\n          tag_28\n          tag_29\n          jump\t// in\n        tag_28:\n            /* \"#utility.yul\":262:374   */\n        tag_27:\n            /* \"#utility.yul\":383:422   */\n          tag_30\n            /* \"#utility.yul\":415:421   */\n          dup5\n            /* \"#utility.yul\":410:413   */\n          dup3\n            /* \"#utility.yul\":405:408   */\n          dup6\n            /* \"#utility.yul\":383:422   */\n          tag_31\n          jump\t// in\n        tag_30:\n            /* \"#utility.yul\":102:428   */\n          pop\n            /* \"#utility.yul\":7:428   */\n          swap4\n          swap3\n          pop\n          pop\n          pop\n          jump\t// out\n            /* \"#utility.yul\":448:803   */\n        tag_32:\n            /* \"#utility.yul\":515:520   */\n          0x00\n            /* \"#utility.yul\":564:567   */\n          dup3\n            /* \"#utility.yul\":557:561   */\n          0x1f\n            /* \"#utility.yul\":549:555   */\n          dup4\n            /* \"#utility.yul\":545:562   */\n          add\n            /* \"#utility.yul\":541:568   */\n          slt\n            /* \"#utility.yul\":531:653   */\n          tag_34\n          jumpi\n            /* \"#utility.yul\":572:651   */\n          tag_35\n          tag_36\n          jump\t// in\n        tag_35:\n            /* \"#utility.yul\":531:653   */\n        tag_34:\n            /* \"#utility.yul\":682:688   */\n          dup2\n            /* \"#utility.yul\":676:689   */\n          mload\n            /* \"#utility.yul\":707:797   */\n          tag_37\n            /* \"#utility.yul\":793:796   */\n          dup5\n            /* \"#utility.yul\":785:791   */\n          dup3\n            /* \"#utility.yul\":778:782   */\n          0x20\n            /* \"#utility.yul\":770:776   */\n          dup7\n            /* \"#utility.yul\":766:783   */\n          add\n            /* \"#utility.yul\":707:797   */\n          tag_21\n          jump\t// in\n        tag_37:\n            /* \"#utility.yul\":698:797   */\n          swap2\n          pop\n            /* \"#utility.yul\":521:803   */\n          pop\n            /* \"#utility.yul\":448:803   */\n          swap3\n          swap2\n          pop\n          pop\n          jump\t// out\n            /* \"#utility.yul\":809:952   */\n        tag_38:\n            /* \"#utility.yul\":866:871   */\n          0x00\n            /* \"#utility.yul\":897:903   */\n          dup2\n            /* \"#utility.yul\":891:904   */\n          mload\n            /* \"#utility.yul\":882:904   */\n          swap1\n          pop\n            /* \"#utility.yul\":913:946   */\n          tag_40\n            /* \"#utility.yul\":940:945   */\n          dup2\n            /* \"#utility.yul\":913:946   */\n          tag_41\n          jump\t// in\n        tag_40:\n            /* \"#utility.yul\":809:952   */\n          swap3\n          swap2\n          pop\n          pop\n          jump\t// out\n            /* \"#utility.yul\":958:1638   */\n        tag_3:\n            /* \"#utility.yul\":1047:1053   */\n          0x00\n            /* \"#utility.yul\":1055:1061   */\n          dup1\n            /* \"#utility.yul\":1104:1106   */\n          0x40\n            /* \"#utility.yul\":1092:1101   */\n          dup4\n            /* \"#utility.yul\":1083:1090   */\n          dup6\n            /* \"#utility.yul\":1079:1102   */\n          sub\n            /* \"#utility.yul\":1075:1107   */\n          slt\n            /* \"#utility.yul\":1072:1191   */\n          iszero\n          tag_43\n          jumpi\n            /* \"#utility.yul\":1110:1189   */\n          tag_44\n          tag_45\n          jump\t// in\n        tag_44:\n            /* \"#utility.yul\":1072:1191   */\n        tag_43:\n            /* \"#utility.yul\":1230:1231   */\n          0x00\n            /* \"#utility.yul\":1255:1319   */\n          tag_46\n            /* \"#utility.yul\":1311:1318   */\n          dup6\n            /* \"#utility.yul\":1302:1308   */\n          dup3\n            /* \"#utility.yul\":1291:1300   */\n          dup7\n            /* \"#utility.yul\":1287:1309   */\n          add\n            /* \"#utility.yul\":1255:1319   */\n          tag_38\n          jump\t// in\n        tag_46:\n            /* \"#utility.yul\":1245:1319   */\n          swap3\n          pop\n            /* \"#utility.yul\":1201:1329   */\n          pop\n            /* \"#utility.yul\":1389:1391   */\n          0x20\n            /* \"#utility.yul\":1378:1387   */\n          dup4\n            /* \"#utility.yul\":1374:1392   */\n          add\n            /* \"#utility.yul\":1368:1393   */\n          mload\n            /* \"#utility.yul\":1420:1438   */\n          0xffffffffffffffff\n            /* \"#utility.yul\":1412:1418   */\n          dup2\n            /* \"#utility.yul\":1409:1439   */\n          gt\n            /* \"#utility.yul\":1406:1523   */\n          iszero\n          tag_47\n          jumpi\n            /* \"#utility.yul\":1442:1521   */\n          tag_48\n          tag_49\n          jump\t// in\n        tag_48:\n            /* \"#utility.yul\":1406:1523   */\n        tag_47:\n            /* \"#utility.yul\":1547:1621   */\n          tag_50\n            /* \"#utility.yul\":1613:1620   */\n          dup6\n            /* \"#utility.yul\":1604:1610   */\n          dup3\n            /* \"#utility.yul\":1593:1602   */\n          dup7\n            /* \"#utility.yul\":1589:1611   */\n          add\n            /* \"#utility.yul\":1547:1621   */\n          tag_32\n          jump\t// in\n        tag_50:\n            /* \"#utility.yul\":1537:1621   */\n          swap2\n          pop\n            /* \"#utility.yul\":1339:1631   */\n          pop\n            /* \"#utility.yul\":958:1638   */\n          swap3\n          pop\n          swap3\n          swap1\n          pop\n          jump\t// out\n            /* \"#utility.yul\":1644:1773   */\n        tag_26:\n            /* \"#utility.yul\":1678:1684   */\n          0x00\n            /* \"#utility.yul\":1705:1725   */\n          tag_52\n          tag_53\n          jump\t// in\n        tag_52:\n            /* \"#utility.yul\":1695:1725   */\n          swap1\n          pop\n            /* \"#utility.yul\":1734:1767   */\n          tag_54\n            /* \"#utility.yul\":1762:1766   */\n          dup3\n            /* \"#utility.yul\":1754:1760   */\n          dup3\n            /* \"#utility.yul\":1734:1767   */\n          tag_55\n          jump\t// in\n        tag_54:\n            /* \"#utility.yul\":1644:1773   */\n          swap2\n          swap1\n          pop\n          jump\t// out\n            /* \"#utility.yul\":1779:1854   */\n        tag_53:\n            /* \"#utility.yul\":1812:1818   */\n          0x00\n            /* \"#utility.yul\":1845:1847   */\n          0x40\n            /* \"#utility.yul\":1839:1848   */\n          mload\n            /* \"#utility.yul\":1829:1848   */\n          swap1\n          pop\n            /* \"#utility.yul\":1779:1854   */\n          swap1\n          jump\t// out\n            /* \"#utility.yul\":1860:2168   */\n        tag_25:\n            /* \"#utility.yul\":1922:1926   */\n          0x00\n            /* \"#utility.yul\":2012:2030   */\n          0xffffffffffffffff\n            /* \"#utility.yul\":2004:2010   */\n          dup3\n            /* \"#utility.yul\":2001:2031   */\n          gt\n            /* \"#utility.yul\":1998:2054   */\n          iszero\n          tag_58\n          jumpi\n            /* \"#utility.yul\":2034:2052   */\n          tag_59\n          tag_60\n          jump\t// in\n        tag_59:\n            /* \"#utility.yul\":1998:2054   */\n        tag_58:\n            /* \"#utility.yul\":2072:2101   */\n          tag_61\n            /* \"#utility.yul\":2094:2100   */\n          dup3\n            /* \"#utility.yul\":2072:2101   */\n          tag_62\n          jump\t// in\n        tag_61:\n            /* \"#utility.yul\":2064:2101   */\n          swap1\n          pop\n            /* \"#utility.yul\":2156:2160   */\n          0x20\n            /* \"#utility.yul\":2150:2154   */\n          dup2\n            /* \"#utility.yul\":2146:2161   */\n          add\n            /* \"#utility.yul\":2138:2161   */\n          swap1\n          pop\n            /* \"#utility.yul\":1860:2168   */\n          swap2\n          swap1\n          pop\n          jump\t// out\n            /* \"#utility.yul\":2174:2251   */\n        tag_63:\n            /* \"#utility.yul\":2211:2218   */\n          0x00\n            /* \"#utility.yul\":2240:2245   */\n          dup2\n            /* \"#utility.yul\":2229:2245   */\n          swap1\n          pop\n            /* \"#utility.yul\":2174:2251   */\n          swap2\n          swap1\n          pop\n          jump\t// out\n            /* \"#utility.yul\":2257:2564   */\n        tag_31:\n            /* \"#utility.yul\":2325:2326   */\n          0x00\n            /* \"#utility.yul\":2335:2448   */\n        tag_66:\n            /* \"#utility.yul\":2349:2355   */\n          dup4\n            /* \"#utility.yul\":2346:2347   */\n          dup2\n            /* \"#utility.yul\":2343:2356   */\n          lt\n            /* \"#utility.yul\":2335:2448   */\n          iszero\n          tag_68\n          jumpi\n            /* \"#utility.yul\":2434:2435   */\n          dup1\n            /* \"#utility.yul\":2429:2432   */\n          dup3\n            /* \"#utility.yul\":2425:2436   */\n          add\n            /* \"#utility.yul\":2419:2437   */\n          mload\n            /* \"#utility.yul\":2415:2416   */\n          dup2\n            /* \"#utility.yul\":2410:2413   */\n          dup5\n            /* \"#utility.yul\":2406:2417   */\n          add\n            /* \"#utility.yul\":2399:2438   */\n          mstore\n            /* \"#utility.yul\":2371:2373   */\n          0x20\n            /* \"#utility.yul\":2368:2369   */\n          dup2\n            /* \"#utility.yul\":2364:2374   */\n          add\n            /* \"#utility.yul\":2359:2374   */\n          swap1\n          pop\n            /* \"#utility.yul\":2335:2448   */\n          jump(tag_66)\n        tag_68:\n            /* \"#utility.yul\":2466:2472   */\n          dup4\n            /* \"#utility.yul\":2463:2464   */\n          dup2\n            /* \"#utility.yul\":2460:2473   */\n          gt\n            /* \"#utility.yul\":2457:2558   */\n          iszero\n          tag_69\n          jumpi\n            /* \"#utility.yul\":2546:2547   */\n          0x00\n            /* \"#utility.yul\":2537:2543   */\n          dup5\n            /* \"#utility.yul\":2532:2535   */\n          dup5\n            /* \"#utility.yul\":2528:2544   */\n          add\n            /* \"#utility.yul\":2521:2548   */\n          mstore\n            /* \"#utility.yul\":2457:2558   */\n        tag_69:\n            /* \"#utility.yul\":2306:2564   */\n          pop\n            /* \"#utility.yul\":2257:2564   */\n          pop\n          pop\n          pop\n          jump\t// out\n            /* \"#utility.yul\":2570:2890   */\n        tag_10:\n            /* \"#utility.yul\":2614:2620   */\n          0x00\n            /* \"#utility.yul\":2651:2652   */\n          0x02\n            /* \"#utility.yul\":2645:2649   */\n          dup3\n            /* \"#utility.yul\":2641:2653   */\n          div\n            /* \"#utility.yul\":2631:2653   */\n          swap1\n          pop\n            /* \"#utility.yul\":2698:2699   */\n          0x01\n            /* \"#utility.yul\":2692:2696   */\n          dup3\n            /* \"#utility.yul\":2688:2700   */\n          and\n            /* \"#utility.yul\":2719:2737   */\n          dup1\n            /* \"#utility.yul\":2709:2790   */\n          tag_71\n          jumpi\n            /* \"#utility.yul\":2775:2779   */\n          0x7f\n            /* \"#utility.yul\":2767:2773   */\n          dup3\n            /* \"#utility.yul\":2763:2780   */\n          and\n            /* \"#utility.yul\":2753:2780   */\n          swap2\n          pop\n            /* \"#utility.yul\":2709:2790   */\n        tag_71:\n            /* \"#utility.yul\":2837:2839   */\n          0x20\n            /* \"#utility.yul\":2829:2835   */\n          dup3\n            /* \"#utility.yul\":2826:2840   */\n          lt\n            /* \"#utility.yul\":2806:2824   */\n          dup2\n            /* \"#utility.yul\":2803:2841   */\n          eq\n            /* \"#utility.yul\":2800:2884   */\n          iszero\n          tag_72\n          jumpi\n            /* \"#utility.yul\":2856:2874   */\n          tag_73\n          tag_74\n          jump\t// in\n        tag_73:\n            /* \"#utility.yul\":2800:2884   */\n        tag_72:\n            /* \"#utility.yul\":2621:2890   */\n          pop\n            /* \"#utility.yul\":2570:2890   */\n          swap2\n          swap1\n          pop\n          jump\t// out\n            /* \"#utility.yul\":2896:3177   */\n        tag_55:\n            /* \"#utility.yul\":2979:3006   */\n          tag_76\n            /* \"#utility.yul\":3001:3005   */\n          dup3\n            /* \"#utility.yul\":2979:3006   */\n          tag_62\n          jump\t// in\n        tag_76:\n            /* \"#utility.yul\":2971:2977   */\n          dup2\n            /* \"#utility.yul\":2967:3007   */\n          add\n            /* \"#utility.yul\":3109:3115   */\n          dup2\n            /* \"#utility.yul\":3097:3107   */\n          dup2\n            /* \"#utility.yul\":3094:3116   */\n          lt\n            /* \"#utility.yul\":3073:3091   */\n          0xffffffffffffffff\n            /* \"#utility.yul\":3061:3071   */\n          dup3\n            /* \"#utility.yul\":3058:3092   */\n          gt\n            /* \"#utility.yul\":3055:3117   */\n          or\n            /* \"#utility.yul\":3052:3140   */\n          iszero\n          tag_77\n          jumpi\n            /* \"#utility.yul\":3120:3138   */\n          tag_78\n          tag_60\n          jump\t// in\n        tag_78:\n            /* \"#utility.yul\":3052:3140   */\n        tag_77:\n            /* \"#utility.yul\":3160:3170   */\n          dup1\n            /* \"#utility.yul\":3156:3158   */\n          0x40\n            /* \"#utility.yul\":3149:3171   */\n          mstore\n            /* \"#utility.yul\":2939:3177   */\n          pop\n            /* \"#utility.yul\":2896:3177   */\n          pop\n          pop\n          jump\t// out\n            /* \"#utility.yul\":3183:3363   */\n        tag_74:\n            /* \"#utility.yul\":3231:3308   */\n          0x4e487b7100000000000000000000000000000000000000000000000000000000\n            /* \"#utility.yul\":3228:3229   */\n          0x00\n            /* \"#utility.yul\":3221:3309   */\n          mstore\n            /* \"#utility.yul\":3328:3332   */\n          0x22\n            /* \"#utility.yul\":3325:3326   */\n          0x04\n            /* \"#utility.yul\":3318:3333   */\n          mstore\n            /* \"#utility.yul\":3352:3356   */\n          0x24\n            /* \"#utility.yul\":3349:3350   */\n          0x00\n            /* \"#utility.yul\":3342:3357   */\n          revert\n            /* \"#utility.yul\":3369:3549   */\n        tag_60:\n            /* \"#utility.yul\":3417:3494   */\n          0x4e487b7100000000000000000000000000000000000000000000000000000000\n            /* \"#utility.yul\":3414:3415   */\n          0x00\n            /* \"#utility.yul\":3407:3495   */\n          mstore\n            /* \"#utility.yul\":3514:3518   */\n          0x41\n            /* \"#utility.yul\":3511:3512   */\n          0x04\n            /* \"#utility.yul\":3504:3519   */\n          mstore\n            /* \"#utility.yul\":3538:3542   */\n          0x24\n            /* \"#utility.yul\":3535:3536   */\n          0x00\n            /* \"#utility.yul\":3528:3543   */\n          revert\n            /* \"#utility.yul\":3555:3672   */\n        tag_36:\n            /* \"#utility.yul\":3664:3665   */\n          0x00\n            /* \"#utility.yul\":3661:3662   */\n          dup1\n            /* \"#utility.yul\":3654:3666   */\n          revert\n            /* \"#utility.yul\":3678:3795   */\n        tag_29:\n            /* \"#utility.yul\":3787:3788   */\n          0x00\n            /* \"#utility.yul\":3784:3785   */\n          dup1\n            /* \"#utility.yul\":3777:3789   */\n          revert\n            /* \"#utility.yul\":3801:3918   */\n        tag_49:\n            /* \"#utility.yul\":3910:3911   */\n          0x00\n            /* \"#utility.yul\":3907:3908   */\n          dup1\n            /* \"#utility.yul\":3900:3912   */\n          revert\n            /* \"#utility.yul\":3924:4041   */\n        tag_45:\n            /* \"#utility.yul\":4033:4034   */\n          0x00\n            /* \"#utility.yul\":4030:4031   */\n          dup1\n            /* \"#utility.yul\":4023:4035   */\n          revert\n            /* \"#utility.yul\":4047:4149   */\n        tag_62:\n            /* \"#utility.yul\":4088:4094   */\n          0x00\n            /* \"#utility.yul\":4139:4141   */\n          0x1f\n            /* \"#utility.yul\":4135:4142   */\n          not\n            /* \"#utility.yul\":4130:4132   */\n          0x1f\n            /* \"#utility.yul\":4123:4128   */\n          dup4\n            /* \"#utility.yul\":4119:4133   */\n          add\n            /* \"#utility.yul\":4115:4143   */\n          and\n            /* \"#utility.yul\":4105:4143   */\n          swap1\n          pop\n            /* \"#utility.yul\":4047:4149   */\n          swap2\n          swap1\n          pop\n          jump\t// out\n            /* \"#utility.yul\":4155:4277   */\n        tag_41:\n            /* \"#utility.yul\":4228:4252   */\n          tag_87\n            /* \"#utility.yul\":4246:4251   */\n          dup2\n            /* \"#utility.yul\":4228:4252   */\n          tag_63\n          jump\t// in\n        tag_87:\n            /* \"#utility.yul\":4221:4226   */\n          dup2\n            /* \"#utility.yul\":4218:4253   */\n          eq\n            /* \"#utility.yul\":4208:4271   */\n          tag_88\n          jumpi\n            /* \"#utility.yul\":4267:4268   */\n          0x00\n            /* \"#utility.yul\":4264:4265   */\n          dup1\n            /* \"#utility.yul\":4257:4269   */\n          revert\n            /* \"#utility.yul\":4208:4271   */\n        tag_88:\n            /* \"#utility.yul\":4155:4277   */\n          pop\n          jump\t// out\n            /* \"contracts/Bus.sol\":102:633  contract Bus{... */\n        tag_8:\n          dataSize(sub_0)\n          dup1\n          dataOffset(sub_0)\n          0x00\n          codecopy\n          0x00\n          return\n        stop\n\n        sub_0: assembly {\n                /* \"contracts/Bus.sol\":102:633  contract Bus{... */\n              mstore(0x40, 0x80)\n              callvalue\n              dup1\n              iszero\n              tag_1\n              jumpi\n              0x00\n              dup1\n              revert\n            tag_1:\n              pop\n              jumpi(tag_2, lt(calldatasize, 0x04))\n              shr(0xe0, calldataload(0x00))\n              dup1\n              0x2a9788cd\n              eq\n              tag_3\n              jumpi\n              dup1\n              0xa434261f\n              eq\n              tag_4\n              jumpi\n            tag_2:\n              0x00\n              dup1\n              revert\n                /* \"contracts/Bus.sol\":431:467  mapping(uint => seat) public busSeat */\n            tag_3:\n              tag_5\n              0x04\n              dup1\n              calldatasize\n              sub\n              dup2\n              add\n              swap1\n              tag_6\n              swap2\n              swap1\n              tag_7\n              jump\t// in\n            tag_6:\n              tag_8\n              jump\t// in\n            tag_5:\n              mload(0x40)\n              tag_9\n              swap4\n              swap3\n              swap2\n              swap1\n              tag_10\n              jump\t// in\n            tag_9:\n              mload(0x40)\n              dup1\n              swap2\n              sub\n              swap1\n              return\n                /* \"contracts/Bus.sol\":474:629  function reservationBus( uint _seatNum, uint _studentId, address _student) public {... */\n            tag_4:\n              tag_11\n              0x04\n              dup1\n              calldatasize\n              sub\n              dup2\n              add\n              swap1\n              tag_12\n              swap2\n              swap1\n              tag_13\n              jump\t// in\n            tag_12:\n              tag_14\n              jump\t// in\n            tag_11:\n              stop\n                /* \"contracts/Bus.sol\":431:467  mapping(uint => seat) public busSeat */\n            tag_8:\n              mstore(0x20, 0x03)\n              dup1\n              0x00\n              mstore\n              keccak256(0x00, 0x40)\n              0x00\n              swap2\n              pop\n              swap1\n              pop\n              dup1\n              0x00\n              add\n              sload\n              swap1\n              dup1\n              0x01\n              add\n              sload\n              swap1\n              dup1\n              0x02\n              add\n              0x00\n              swap1\n              sload\n              swap1\n              0x0100\n              exp\n              swap1\n              div\n              0xffffffffffffffffffffffffffffffffffffffff\n              and\n              swap1\n              pop\n              dup4\n              jump\t// out\n                /* \"contracts/Bus.sol\":474:629  function reservationBus( uint _seatNum, uint _studentId, address _student) public {... */\n            tag_14:\n                /* \"contracts/Bus.sol\":586:622  seat(_seatNum, _studentId, _student) */\n              mload(0x40)\n              dup1\n              0x60\n              add\n              0x40\n              mstore\n              dup1\n                /* \"contracts/Bus.sol\":591:599  _seatNum */\n              dup5\n                /* \"contracts/Bus.sol\":586:622  seat(_seatNum, _studentId, _student) */\n              dup2\n              mstore\n              0x20\n              add\n                /* \"contracts/Bus.sol\":601:611  _studentId */\n              dup4\n                /* \"contracts/Bus.sol\":586:622  seat(_seatNum, _studentId, _student) */\n              dup2\n              mstore\n              0x20\n              add\n                /* \"contracts/Bus.sol\":613:621  _student */\n              dup3\n                /* \"contracts/Bus.sol\":586:622  seat(_seatNum, _studentId, _student) */\n              0xffffffffffffffffffffffffffffffffffffffff\n              and\n              dup2\n              mstore\n              pop\n                /* \"contracts/Bus.sol\":566:573  busSeat */\n              0x03\n                /* \"contracts/Bus.sol\":566:583  busSeat[_seatNum] */\n              0x00\n                /* \"contracts/Bus.sol\":574:582  _seatNum */\n              dup6\n                /* \"contracts/Bus.sol\":566:583  busSeat[_seatNum] */\n              dup2\n              mstore\n              0x20\n              add\n              swap1\n              dup2\n              mstore\n              0x20\n              add\n              0x00\n              keccak256\n                /* \"contracts/Bus.sol\":566:622  busSeat[_seatNum] = seat(_seatNum, _studentId, _student) */\n              0x00\n              dup3\n              add\n              mload\n              dup2\n              0x00\n              add\n              sstore\n              0x20\n              dup3\n              add\n              mload\n              dup2\n              0x01\n              add\n              sstore\n              0x40\n              dup3\n              add\n              mload\n              dup2\n              0x02\n              add\n              exp(0x0100, 0x00)\n              dup2\n              sload\n              dup2\n              0xffffffffffffffffffffffffffffffffffffffff\n              mul\n              not\n              and\n              swap1\n              dup4\n              0xffffffffffffffffffffffffffffffffffffffff\n              and\n              mul\n              or\n              swap1\n              sstore\n              pop\n              swap1\n              pop\n              pop\n                /* \"contracts/Bus.sol\":474:629  function reservationBus( uint _seatNum, uint _studentId, address _student) public {... */\n              pop\n              pop\n              pop\n              jump\t// out\n                /* \"#utility.yul\":7:146   */\n            tag_17:\n                /* \"#utility.yul\":53:58   */\n              0x00\n                /* \"#utility.yul\":91:97   */\n              dup2\n                /* \"#utility.yul\":78:98   */\n              calldataload\n                /* \"#utility.yul\":69:98   */\n              swap1\n              pop\n                /* \"#utility.yul\":107:140   */\n              tag_19\n                /* \"#utility.yul\":134:139   */\n              dup2\n                /* \"#utility.yul\":107:140   */\n              tag_20\n              jump\t// in\n            tag_19:\n                /* \"#utility.yul\":7:146   */\n              swap3\n              swap2\n              pop\n              pop\n              jump\t// out\n                /* \"#utility.yul\":152:291   */\n            tag_21:\n                /* \"#utility.yul\":198:203   */\n              0x00\n                /* \"#utility.yul\":236:242   */\n              dup2\n                /* \"#utility.yul\":223:243   */\n              calldataload\n                /* \"#utility.yul\":214:243   */\n              swap1\n              pop\n                /* \"#utility.yul\":252:285   */\n              tag_23\n                /* \"#utility.yul\":279:284   */\n              dup2\n                /* \"#utility.yul\":252:285   */\n              tag_24\n              jump\t// in\n            tag_23:\n                /* \"#utility.yul\":152:291   */\n              swap3\n              swap2\n              pop\n              pop\n              jump\t// out\n                /* \"#utility.yul\":297:626   */\n            tag_7:\n                /* \"#utility.yul\":356:362   */\n              0x00\n                /* \"#utility.yul\":405:407   */\n              0x20\n                /* \"#utility.yul\":393:402   */\n              dup3\n                /* \"#utility.yul\":384:391   */\n              dup5\n                /* \"#utility.yul\":380:403   */\n              sub\n                /* \"#utility.yul\":376:408   */\n              slt\n                /* \"#utility.yul\":373:492   */\n              iszero\n              tag_26\n              jumpi\n                /* \"#utility.yul\":411:490   */\n              tag_27\n              tag_28\n              jump\t// in\n            tag_27:\n                /* \"#utility.yul\":373:492   */\n            tag_26:\n                /* \"#utility.yul\":531:532   */\n              0x00\n                /* \"#utility.yul\":556:609   */\n              tag_29\n                /* \"#utility.yul\":601:608   */\n              dup5\n                /* \"#utility.yul\":592:598   */\n              dup3\n                /* \"#utility.yul\":581:590   */\n              dup6\n                /* \"#utility.yul\":577:599   */\n              add\n                /* \"#utility.yul\":556:609   */\n              tag_21\n              jump\t// in\n            tag_29:\n                /* \"#utility.yul\":546:609   */\n              swap2\n              pop\n                /* \"#utility.yul\":502:619   */\n              pop\n                /* \"#utility.yul\":297:626   */\n              swap3\n              swap2\n              pop\n              pop\n              jump\t// out\n                /* \"#utility.yul\":632:1251   */\n            tag_13:\n                /* \"#utility.yul\":709:715   */\n              0x00\n                /* \"#utility.yul\":717:723   */\n              dup1\n                /* \"#utility.yul\":725:731   */\n              0x00\n                /* \"#utility.yul\":774:776   */\n              0x60\n                /* \"#utility.yul\":762:771   */\n              dup5\n                /* \"#utility.yul\":753:760   */\n              dup7\n                /* \"#utility.yul\":749:772   */\n              sub\n                /* \"#utility.yul\":745:777   */\n              slt\n                /* \"#utility.yul\":742:861   */\n              iszero\n              tag_31\n              jumpi\n                /* \"#utility.yul\":780:859   */\n              tag_32\n              tag_28\n              jump\t// in\n            tag_32:\n                /* \"#utility.yul\":742:861   */\n            tag_31:\n                /* \"#utility.yul\":900:901   */\n              0x00\n                /* \"#utility.yul\":925:978   */\n              tag_33\n                /* \"#utility.yul\":970:977   */\n              dup7\n                /* \"#utility.yul\":961:967   */\n              dup3\n                /* \"#utility.yul\":950:959   */\n              dup8\n                /* \"#utility.yul\":946:968   */\n              add\n                /* \"#utility.yul\":925:978   */\n              tag_21\n              jump\t// in\n            tag_33:\n                /* \"#utility.yul\":915:978   */\n              swap4\n              pop\n                /* \"#utility.yul\":871:988   */\n              pop\n                /* \"#utility.yul\":1027:1029   */\n              0x20\n                /* \"#utility.yul\":1053:1106   */\n              tag_34\n                /* \"#utility.yul\":1098:1105   */\n              dup7\n                /* \"#utility.yul\":1089:1095   */\n              dup3\n                /* \"#utility.yul\":1078:1087   */\n              dup8\n                /* \"#utility.yul\":1074:1096   */\n              add\n                /* \"#utility.yul\":1053:1106   */\n              tag_21\n              jump\t// in\n            tag_34:\n                /* \"#utility.yul\":1043:1106   */\n              swap3\n              pop\n                /* \"#utility.yul\":998:1116   */\n              pop\n                /* \"#utility.yul\":1155:1157   */\n              0x40\n                /* \"#utility.yul\":1181:1234   */\n              tag_35\n                /* \"#utility.yul\":1226:1233   */\n              dup7\n                /* \"#utility.yul\":1217:1223   */\n              dup3\n                /* \"#utility.yul\":1206:1215   */\n              dup8\n                /* \"#utility.yul\":1202:1224   */\n              add\n                /* \"#utility.yul\":1181:1234   */\n              tag_17\n              jump\t// in\n            tag_35:\n                /* \"#utility.yul\":1171:1234   */\n              swap2\n              pop\n                /* \"#utility.yul\":1126:1244   */\n              pop\n                /* \"#utility.yul\":632:1251   */\n              swap3\n              pop\n              swap3\n              pop\n              swap3\n              jump\t// out\n                /* \"#utility.yul\":1257:1375   */\n            tag_36:\n                /* \"#utility.yul\":1344:1368   */\n              tag_38\n                /* \"#utility.yul\":1362:1367   */\n              dup2\n                /* \"#utility.yul\":1344:1368   */\n              tag_39\n              jump\t// in\n            tag_38:\n                /* \"#utility.yul\":1339:1342   */\n              dup3\n                /* \"#utility.yul\":1332:1369   */\n              mstore\n                /* \"#utility.yul\":1257:1375   */\n              pop\n              pop\n              jump\t// out\n                /* \"#utility.yul\":1381:1499   */\n            tag_40:\n                /* \"#utility.yul\":1468:1492   */\n              tag_42\n                /* \"#utility.yul\":1486:1491   */\n              dup2\n                /* \"#utility.yul\":1468:1492   */\n              tag_43\n              jump\t// in\n            tag_42:\n                /* \"#utility.yul\":1463:1466   */\n              dup3\n                /* \"#utility.yul\":1456:1493   */\n              mstore\n                /* \"#utility.yul\":1381:1499   */\n              pop\n              pop\n              jump\t// out\n                /* \"#utility.yul\":1505:1947   */\n            tag_10:\n                /* \"#utility.yul\":1654:1658   */\n              0x00\n                /* \"#utility.yul\":1692:1694   */\n              0x60\n                /* \"#utility.yul\":1681:1690   */\n              dup3\n                /* \"#utility.yul\":1677:1695   */\n              add\n                /* \"#utility.yul\":1669:1695   */\n              swap1\n              pop\n                /* \"#utility.yul\":1705:1776   */\n              tag_45\n                /* \"#utility.yul\":1773:1774   */\n              0x00\n                /* \"#utility.yul\":1762:1771   */\n              dup4\n                /* \"#utility.yul\":1758:1775   */\n              add\n                /* \"#utility.yul\":1749:1755   */\n              dup7\n                /* \"#utility.yul\":1705:1776   */\n              tag_40\n              jump\t// in\n            tag_45:\n                /* \"#utility.yul\":1786:1858   */\n              tag_46\n                /* \"#utility.yul\":1854:1856   */\n              0x20\n                /* \"#utility.yul\":1843:1852   */\n              dup4\n                /* \"#utility.yul\":1839:1857   */\n              add\n                /* \"#utility.yul\":1830:1836   */\n              dup6\n                /* \"#utility.yul\":1786:1858   */\n              tag_40\n              jump\t// in\n            tag_46:\n                /* \"#utility.yul\":1868:1940   */\n              tag_47\n                /* \"#utility.yul\":1936:1938   */\n              0x40\n                /* \"#utility.yul\":1925:1934   */\n              dup4\n                /* \"#utility.yul\":1921:1939   */\n              add\n                /* \"#utility.yul\":1912:1918   */\n              dup5\n                /* \"#utility.yul\":1868:1940   */\n              tag_36\n              jump\t// in\n            tag_47:\n                /* \"#utility.yul\":1505:1947   */\n              swap5\n              swap4\n              pop\n              pop\n              pop\n              pop\n              jump\t// out\n                /* \"#utility.yul\":2034:2130   */\n            tag_39:\n                /* \"#utility.yul\":2071:2078   */\n              0x00\n                /* \"#utility.yul\":2100:2124   */\n              tag_51\n                /* \"#utility.yul\":2118:2123   */\n              dup3\n                /* \"#utility.yul\":2100:2124   */\n              tag_52\n              jump\t// in\n            tag_51:\n                /* \"#utility.yul\":2089:2124   */\n              swap1\n              pop\n                /* \"#utility.yul\":2034:2130   */\n              swap2\n              swap1\n              pop\n              jump\t// out\n                /* \"#utility.yul\":2136:2262   */\n            tag_52:\n                /* \"#utility.yul\":2173:2180   */\n              0x00\n                /* \"#utility.yul\":2213:2255   */\n              0xffffffffffffffffffffffffffffffffffffffff\n                /* \"#utility.yul\":2206:2211   */\n              dup3\n                /* \"#utility.yul\":2202:2256   */\n              and\n                /* \"#utility.yul\":2191:2256   */\n              swap1\n              pop\n                /* \"#utility.yul\":2136:2262   */\n              swap2\n              swap1\n              pop\n              jump\t// out\n                /* \"#utility.yul\":2268:2345   */\n            tag_43:\n                /* \"#utility.yul\":2305:2312   */\n              0x00\n                /* \"#utility.yul\":2334:2339   */\n              dup2\n                /* \"#utility.yul\":2323:2339   */\n              swap1\n              pop\n                /* \"#utility.yul\":2268:2345   */\n              swap2\n              swap1\n              pop\n              jump\t// out\n                /* \"#utility.yul\":2474:2591   */\n            tag_28:\n                /* \"#utility.yul\":2583:2584   */\n              0x00\n                /* \"#utility.yul\":2580:2581   */\n              dup1\n                /* \"#utility.yul\":2573:2585   */\n              revert\n                /* \"#utility.yul\":2597:2719   */\n            tag_20:\n                /* \"#utility.yul\":2670:2694   */\n              tag_59\n                /* \"#utility.yul\":2688:2693   */\n              dup2\n                /* \"#utility.yul\":2670:2694   */\n              tag_39\n              jump\t// in\n            tag_59:\n                /* \"#utility.yul\":2663:2668   */\n              dup2\n                /* \"#utility.yul\":2660:2695   */\n              eq\n                /* \"#utility.yul\":2650:2713   */\n              tag_60\n              jumpi\n                /* \"#utility.yul\":2709:2710   */\n              0x00\n                /* \"#utility.yul\":2706:2707   */\n              dup1\n                /* \"#utility.yul\":2699:2711   */\n              revert\n                /* \"#utility.yul\":2650:2713   */\n            tag_60:\n                /* \"#utility.yul\":2597:2719   */\n              pop\n              jump\t// out\n                /* \"#utility.yul\":2725:2847   */\n            tag_24:\n                /* \"#utility.yul\":2798:2822   */\n              tag_62\n                /* \"#utility.yul\":2816:2821   */\n              dup2\n                /* \"#utility.yul\":2798:2822   */\n              tag_43\n              jump\t// in\n            tag_62:\n                /* \"#utility.yul\":2791:2796   */\n              dup2\n                /* \"#utility.yul\":2788:2823   */\n              eq\n                /* \"#utility.yul\":2778:2841   */\n              tag_63\n              jumpi\n                /* \"#utility.yul\":2837:2838   */\n              0x00\n                /* \"#utility.yul\":2834:2835   */\n              dup1\n                /* \"#utility.yul\":2827:2839   */\n              revert\n                /* \"#utility.yul\":2778:2841   */\n            tag_63:\n                /* \"#utility.yul\":2725:2847   */\n              pop\n              jump\t// out\n\n            auxdata: 0xa2646970667358221220c5782275b55bc175b803a921922ba08573fff24f79875d74922bafe09295d43364736f6c63430008070033\n        }\n    }\n\n    auxdata: 0xa2646970667358221220d299f377e79cd23d69ba5257da096e26e16365cb3c81915df1c54a5b431fd12964736f6c63430008070033\n}\n",
				"bytecode": {
					"linkReferences": {},
					"object": "608060405234801561001057600080fd5b50336000806101000a81548173ffffffffffffffffffffffffffffffffffffffff021916908373ffffffffffffffffffffffffffffffffffffffff160217905550610bb1806100606000396000f3fe60806040523480156200001157600080fd5b50600436106200002e5760003560e01c8063fbcc6cb51462000033575b600080fd5b6200005160048036038101906200004b919062000217565b62000053565b005b60008054906101000a900473ffffffffffffffffffffffffffffffffffffffff1673ffffffffffffffffffffffffffffffffffffffff163373ffffffffffffffffffffffffffffffffffffffff1614620000e4576040517f08c379a0000000000000000000000000000000000000000000000000000000008152600401620000db90620002f6565b60405180910390fd5b8181604051620000f49062000174565b6200010192919062000318565b604051809103906000f0801580156200011e573d6000803e3d6000fd5b506001600084815260200190815260200160002060006101000a81548173ffffffffffffffffffffffffffffffffffffffff021916908373ffffffffffffffffffffffffffffffffffffffff1602179055505050565b61069880620004e483390190565b600062000199620001938462000375565b6200034c565b905082815260208101848484011115620001b857620001b762000480565b5b620001c5848285620003d1565b509392505050565b600082601f830112620001e557620001e46200047b565b5b8135620001f784826020860162000182565b91505092915050565b6000813590506200021181620004c9565b92915050565b600080604083850312156200023157620002306200048a565b5b6000620002418582860162000200565b925050602083013567ffffffffffffffff81111562000265576200026462000485565b5b6200027385828601620001cd565b9150509250929050565b60006200028a82620003ab565b620002968185620003b6565b9350620002a8818560208601620003e0565b620002b3816200048f565b840191505092915050565b6000620002cd601583620003b6565b9150620002da82620004a0565b602082019050919050565b620002f081620003c7565b82525050565b600060208201905081810360008301526200031181620002be565b9050919050565b60006040820190506200032f6000830185620002e5565b81810360208301526200034381846200027d565b90509392505050565b6000620003586200036b565b905062000366828262000416565b919050565b6000604051905090565b600067ffffffffffffffff8211156200039357620003926200044c565b5b6200039e826200048f565b9050602081019050919050565b600081519050919050565b600082825260208201905092915050565b6000819050919050565b82818337600083830152505050565b60005b8381101562000400578082015181840152602081019050620003e3565b8381111562000410576000848401525b50505050565b62000421826200048f565b810181811067ffffffffffffffff821117156200044357620004426200044c565b5b80604052505050565b7f4e487b7100000000000000000000000000000000000000000000000000000000600052604160045260246000fd5b600080fd5b600080fd5b600080fd5b600080fd5b6000601f19601f8301169050919050565b7f63616c6c6572206973206e6f74204d616e616765720000000000000000000000600082015250565b620004d481620003c7565b8114620004e057600080fd5b5056fe608060405234801561001057600080fd5b506040516106983803806106988339818101604052810190610032919061017f565b81600181905550806002908051906020019061004f929190610057565b50505061036b565b8280546100639061026e565b90600052602060002090601f01602090048101928261008557600085556100cc565b82601f1061009e57805160ff19168380011785556100cc565b828001600101855582156100cc579182015b828111156100cb5782518255916020019190600101906100b0565b5b5090506100d991906100dd565b5090565b5b808211156100f65760008160009055506001016100de565b5090565b600061010d61010884610200565b6101db565b90508281526020810184848401111561012957610128610334565b5b61013484828561023b565b509392505050565b600082601f8301126101515761015061032f565b5b81516101618482602086016100fa565b91505092915050565b60008151905061017981610354565b92915050565b600080604083850312156101965761019561033e565b5b60006101a48582860161016a565b925050602083015167ffffffffffffffff8111156101c5576101c4610339565b5b6101d18582860161013c565b9150509250929050565b60006101e56101f6565b90506101f182826102a0565b919050565b6000604051905090565b600067ffffffffffffffff82111561021b5761021a610300565b5b61022482610343565b9050602081019050919050565b6000819050919050565b60005b8381101561025957808201518184015260208101905061023e565b83811115610268576000848401525b50505050565b6000600282049050600182168061028657607f821691505b6020821081141561029a576102996102d1565b5b50919050565b6102a982610343565b810181811067ffffffffffffffff821117156102c8576102c7610300565b5b80604052505050565b7f4e487b7100000000000000000000000000000000000000000000000000000000600052602260045260246000fd5b7f4e487b7100000000000000000000000000000000000000000000000000000000600052604160045260246000fd5b600080fd5b600080fd5b600080fd5b600080fd5b6000601f19601f8301169050919050565b61035d81610231565b811461036857600080fd5b50565b61031e8061037a6000396000f3fe608060405234801561001057600080fd5b50600436106100365760003560e01c80632a9788cd1461003b578063a434261f1461006d575b600080fd5b610055600480360381019061005091906101a4565b610089565b60405161006493929190610242565b60405180910390f35b610087600480360381019061008291906101d1565b6100d3565b005b60036020528060005260406000206000915090508060000154908060010154908060020160009054906101000a900473ffffffffffffffffffffffffffffffffffffffff16905083565b60405180606001604052808481526020018381526020018273ffffffffffffffffffffffffffffffffffffffff1681525060036000858152602001908152602001600020600082015181600001556020820151816001015560408201518160020160006101000a81548173ffffffffffffffffffffffffffffffffffffffff021916908373ffffffffffffffffffffffffffffffffffffffff160217905550905050505050565b600081359050610189816102ba565b92915050565b60008135905061019e816102d1565b92915050565b6000602082840312156101ba576101b96102b5565b5b60006101c88482850161018f565b91505092915050565b6000806000606084860312156101ea576101e96102b5565b5b60006101f88682870161018f565b93505060206102098682870161018f565b925050604061021a8682870161017a565b9150509250925092565b61022d81610279565b82525050565b61023c816102ab565b82525050565b60006060820190506102576000830186610233565b6102646020830185610233565b6102716040830184610224565b949350505050565b60006102848261028b565b9050919050565b600073ffffffffffffffffffffffffffffffffffffffff82169050919050565b6000819050919050565b600080fd5b6102c381610279565b81146102ce57600080fd5b50565b6102da816102ab565b81146102e557600080fd5b5056fea2646970667358221220c5782275b55bc175b803a921922ba08573fff24f79875d74922bafe09295d43364736f6c63430008070033a2646970667358221220d299f377e79cd23d69ba5257da096e26e16365cb3c81915df1c54a5b431fd12964736f6c63430008070033",
					"opcodes": "PUSH1 0x80 PUSH1 0x40 MSTORE CALLVALUE DUP1 ISZERO PUSH2 0x10 JUMPI PUSH1 0x0 DUP1 REVERT JUMPDEST POP CALLER PUSH1 0x0 DUP1 PUSH2 0x100 EXP DUP2 SLOAD DUP2 PUSH20 0xFFFFFFFFFFFFFFFFFFFFFFFFFFFFFFFFFFFFFFFF MUL NOT AND SWAP1 DUP4 PUSH20 0xFFFFFFFFFFFFFFFFFFFFFFFFFFFFFFFFFFFFFFFF AND MUL OR SWAP1 SSTORE POP PUSH2 0xBB1 DUP1 PUSH2 0x60 PUSH1 0x0 CODECOPY PUSH1 0x0 RETURN INVALID PUSH1 0x80 PUSH1 0x40 MSTORE CALLVALUE DUP1 ISZERO PUSH3 0x11 JUMPI PUSH1 0x0 DUP1 REVERT JUMPDEST POP PUSH1 0x4 CALLDATASIZE LT PUSH3 0x2E JUMPI PUSH1 0x0 CALLDATALOAD PUSH1 0xE0 SHR DUP1 PUSH4 0xFBCC6CB5 EQ PUSH3 0x33 JUMPI JUMPDEST PUSH1 0x0 DUP1 REVERT JUMPDEST PUSH3 0x51 PUSH1 0x4 DUP1 CALLDATASIZE SUB DUP2 ADD SWAP1 PUSH3 0x4B SWAP2 SWAP1 PUSH3 0x217 JUMP JUMPDEST PUSH3 0x53 JUMP JUMPDEST STOP JUMPDEST PUSH1 0x0 DUP1 SLOAD SWAP1 PUSH2 0x100 EXP SWAP1 DIV PUSH20 0xFFFFFFFFFFFFFFFFFFFFFFFFFFFFFFFFFFFFFFFF AND PUSH20 0xFFFFFFFFFFFFFFFFFFFFFFFFFFFFFFFFFFFFFFFF AND CALLER PUSH20 0xFFFFFFFFFFFFFFFFFFFFFFFFFFFFFFFFFFFFFFFF AND EQ PUSH3 0xE4 JUMPI PUSH1 0x40 MLOAD PUSH32 0x8C379A000000000000000000000000000000000000000000000000000000000 DUP2 MSTORE PUSH1 0x4 ADD PUSH3 0xDB SWAP1 PUSH3 0x2F6 JUMP JUMPDEST PUSH1 0x40 MLOAD DUP1 SWAP2 SUB SWAP1 REVERT JUMPDEST DUP2 DUP2 PUSH1 0x40 MLOAD PUSH3 0xF4 SWAP1 PUSH3 0x174 JUMP JUMPDEST PUSH3 0x101 SWAP3 SWAP2 SWAP1 PUSH3 0x318 JUMP JUMPDEST PUSH1 0x40 MLOAD DUP1 SWAP2 SUB SWAP1 PUSH1 0x0 CREATE DUP1 ISZERO DUP1 ISZERO PUSH3 0x11E JUMPI RETURNDATASIZE PUSH1 0x0 DUP1 RETURNDATACOPY RETURNDATASIZE PUSH1 0x0 REVERT JUMPDEST POP PUSH1 0x1 PUSH1 0x0 DUP5 DUP2 MSTORE PUSH1 0x20 ADD SWAP1 DUP2 MSTORE PUSH1 0x20 ADD PUSH1 0x0 KECCAK256 PUSH1 0x0 PUSH2 0x100 EXP DUP2 SLOAD DUP2 PUSH20 0xFFFFFFFFFFFFFFFFFFFFFFFFFFFFFFFFFFFFFFFF MUL NOT AND SWAP1 DUP4 PUSH20 0xFFFFFFFFFFFFFFFFFFFFFFFFFFFFFFFFFFFFFFFF AND MUL OR SWAP1 SSTORE POP POP POP JUMP JUMPDEST PUSH2 0x698 DUP1 PUSH3 0x4E4 DUP4 CODECOPY ADD SWAP1 JUMP JUMPDEST PUSH1 0x0 PUSH3 0x199 PUSH3 0x193 DUP5 PUSH3 0x375 JUMP JUMPDEST PUSH3 0x34C JUMP JUMPDEST SWAP1 POP DUP3 DUP2 MSTORE PUSH1 0x20 DUP2 ADD DUP5 DUP5 DUP5 ADD GT ISZERO PUSH3 0x1B8 JUMPI PUSH3 0x1B7 PUSH3 0x480 JUMP JUMPDEST JUMPDEST PUSH3 0x1C5 DUP5 DUP3 DUP6 PUSH3 0x3D1 JUMP JUMPDEST POP SWAP4 SWAP3 POP POP POP JUMP JUMPDEST PUSH1 0x0 DUP3 PUSH1 0x1F DUP4 ADD SLT PUSH3 0x1E5 JUMPI PUSH3 0x1E4 PUSH3 0x47B JUMP JUMPDEST JUMPDEST DUP2 CALLDATALOAD PUSH3 0x1F7 DUP5 DUP3 PUSH1 0x20 DUP7 ADD PUSH3 0x182 JUMP JUMPDEST SWAP2 POP POP SWAP3 SWAP2 POP POP JUMP JUMPDEST PUSH1 0x0 DUP2 CALLDATALOAD SWAP1 POP PUSH3 0x211 DUP2 PUSH3 0x4C9 JUMP JUMPDEST SWAP3 SWAP2 POP POP JUMP JUMPDEST PUSH1 0x0 DUP1 PUSH1 0x40 DUP4 DUP6 SUB SLT ISZERO PUSH3 0x231 JUMPI PUSH3 0x230 PUSH3 0x48A JUMP JUMPDEST JUMPDEST PUSH1 0x0 PUSH3 0x241 DUP6 DUP3 DUP7 ADD PUSH3 0x200 JUMP JUMPDEST SWAP3 POP POP PUSH1 0x20 DUP4 ADD CALLDATALOAD PUSH8 0xFFFFFFFFFFFFFFFF DUP2 GT ISZERO PUSH3 0x265 JUMPI PUSH3 0x264 PUSH3 0x485 JUMP JUMPDEST JUMPDEST PUSH3 0x273 DUP6 DUP3 DUP7 ADD PUSH3 0x1CD JUMP JUMPDEST SWAP2 POP POP SWAP3 POP SWAP3 SWAP1 POP JUMP JUMPDEST PUSH1 0x0 PUSH3 0x28A DUP3 PUSH3 0x3AB JUMP JUMPDEST PUSH3 0x296 DUP2 DUP6 PUSH3 0x3B6 JUMP JUMPDEST SWAP4 POP PUSH3 0x2A8 DUP2 DUP6 PUSH1 0x20 DUP7 ADD PUSH3 0x3E0 JUMP JUMPDEST PUSH3 0x2B3 DUP2 PUSH3 0x48F JUMP JUMPDEST DUP5 ADD SWAP2 POP POP SWAP3 SWAP2 POP POP JUMP JUMPDEST PUSH1 0x0 PUSH3 0x2CD PUSH1 0x15 DUP4 PUSH3 0x3B6 JUMP JUMPDEST SWAP2 POP PUSH3 0x2DA DUP3 PUSH3 0x4A0 JUMP JUMPDEST PUSH1 0x20 DUP3 ADD SWAP1 POP SWAP2 SWAP1 POP JUMP JUMPDEST PUSH3 0x2F0 DUP2 PUSH3 0x3C7 JUMP JUMPDEST DUP3 MSTORE POP POP JUMP JUMPDEST PUSH1 0x0 PUSH1 0x20 DUP3 ADD SWAP1 POP DUP2 DUP2 SUB PUSH1 0x0 DUP4 ADD MSTORE PUSH3 0x311 DUP2 PUSH3 0x2BE JUMP JUMPDEST SWAP1 POP SWAP2 SWAP1 POP JUMP JUMPDEST PUSH1 0x0 PUSH1 0x40 DUP3 ADD SWAP1 POP PUSH3 0x32F PUSH1 0x0 DUP4 ADD DUP6 PUSH3 0x2E5 JUMP JUMPDEST DUP2 DUP2 SUB PUSH1 0x20 DUP4 ADD MSTORE PUSH3 0x343 DUP2 DUP5 PUSH3 0x27D JUMP JUMPDEST SWAP1 POP SWAP4 SWAP3 POP POP POP JUMP JUMPDEST PUSH1 0x0 PUSH3 0x358 PUSH3 0x36B JUMP JUMPDEST SWAP1 POP PUSH3 0x366 DUP3 DUP3 PUSH3 0x416 JUMP JUMPDEST SWAP2 SWAP1 POP JUMP JUMPDEST PUSH1 0x0 PUSH1 0x40 MLOAD SWAP1 POP SWAP1 JUMP JUMPDEST PUSH1 0x0 PUSH8 0xFFFFFFFFFFFFFFFF DUP3 GT ISZERO PUSH3 0x393 JUMPI PUSH3 0x392 PUSH3 0x44C JUMP JUMPDEST JUMPDEST PUSH3 0x39E DUP3 PUSH3 0x48F JUMP JUMPDEST SWAP1 POP PUSH1 0x20 DUP2 ADD SWAP1 POP SWAP2 SWAP1 POP JUMP JUMPDEST PUSH1 0x0 DUP2 MLOAD SWAP1 POP SWAP2 SWAP1 POP JUMP JUMPDEST PUSH1 0x0 DUP3 DUP3 MSTORE PUSH1 0x20 DUP3 ADD SWAP1 POP SWAP3 SWAP2 POP POP JUMP JUMPDEST PUSH1 0x0 DUP2 SWAP1 POP SWAP2 SWAP1 POP JUMP JUMPDEST DUP3 DUP2 DUP4 CALLDATACOPY PUSH1 0x0 DUP4 DUP4 ADD MSTORE POP POP POP JUMP JUMPDEST PUSH1 0x0 JUMPDEST DUP4 DUP2 LT ISZERO PUSH3 0x400 JUMPI DUP1 DUP3 ADD MLOAD DUP2 DUP5 ADD MSTORE PUSH1 0x20 DUP2 ADD SWAP1 POP PUSH3 0x3E3 JUMP JUMPDEST DUP4 DUP2 GT ISZERO PUSH3 0x410 JUMPI PUSH1 0x0 DUP5 DUP5 ADD MSTORE JUMPDEST POP POP POP POP JUMP JUMPDEST PUSH3 0x421 DUP3 PUSH3 0x48F JUMP JUMPDEST DUP2 ADD DUP2 DUP2 LT PUSH8 0xFFFFFFFFFFFFFFFF DUP3 GT OR ISZERO PUSH3 0x443 JUMPI PUSH3 0x442 PUSH3 0x44C JUMP JUMPDEST JUMPDEST DUP1 PUSH1 0x40 MSTORE POP POP POP JUMP JUMPDEST PUSH32 0x4E487B7100000000000000000000000000000000000000000000000000000000 PUSH1 0x0 MSTORE PUSH1 0x41 PUSH1 0x4 MSTORE PUSH1 0x24 PUSH1 0x0 REVERT JUMPDEST PUSH1 0x0 DUP1 REVERT JUMPDEST PUSH1 0x0 DUP1 REVERT JUMPDEST PUSH1 0x0 DUP1 REVERT JUMPDEST PUSH1 0x0 DUP1 REVERT JUMPDEST PUSH1 0x0 PUSH1 0x1F NOT PUSH1 0x1F DUP4 ADD AND SWAP1 POP SWAP2 SWAP1 POP JUMP JUMPDEST PUSH32 0x63616C6C6572206973206E6F74204D616E616765720000000000000000000000 PUSH1 0x0 DUP3 ADD MSTORE POP JUMP JUMPDEST PUSH3 0x4D4 DUP2 PUSH3 0x3C7 JUMP JUMPDEST DUP2 EQ PUSH3 0x4E0 JUMPI PUSH1 0x0 DUP1 REVERT JUMPDEST POP JUMP INVALID PUSH1 0x80 PUSH1 0x40 MSTORE CALLVALUE DUP1 ISZERO PUSH2 0x10 JUMPI PUSH1 0x0 DUP1 REVERT JUMPDEST POP PUSH1 0x40 MLOAD PUSH2 0x698 CODESIZE SUB DUP1 PUSH2 0x698 DUP4 CODECOPY DUP2 DUP2 ADD PUSH1 0x40 MSTORE DUP2 ADD SWAP1 PUSH2 0x32 SWAP2 SWAP1 PUSH2 0x17F JUMP JUMPDEST DUP2 PUSH1 0x1 DUP2 SWAP1 SSTORE POP DUP1 PUSH1 0x2 SWAP1 DUP1 MLOAD SWAP1 PUSH1 0x20 ADD SWAP1 PUSH2 0x4F SWAP3 SWAP2 SWAP1 PUSH2 0x57 JUMP JUMPDEST POP POP POP PUSH2 0x36B JUMP JUMPDEST DUP3 DUP1 SLOAD PUSH2 0x63 SWAP1 PUSH2 0x26E JUMP JUMPDEST SWAP1 PUSH1 0x0 MSTORE PUSH1 0x20 PUSH1 0x0 KECCAK256 SWAP1 PUSH1 0x1F ADD PUSH1 0x20 SWAP1 DIV DUP2 ADD SWAP3 DUP3 PUSH2 0x85 JUMPI PUSH1 0x0 DUP6 SSTORE PUSH2 0xCC JUMP JUMPDEST DUP3 PUSH1 0x1F LT PUSH2 0x9E JUMPI DUP1 MLOAD PUSH1 0xFF NOT AND DUP4 DUP1 ADD OR DUP6 SSTORE PUSH2 0xCC JUMP JUMPDEST DUP3 DUP1 ADD PUSH1 0x1 ADD DUP6 SSTORE DUP3 ISZERO PUSH2 0xCC JUMPI SWAP2 DUP3 ADD JUMPDEST DUP3 DUP2 GT ISZERO PUSH2 0xCB JUMPI DUP3 MLOAD DUP3 SSTORE SWAP2 PUSH1 0x20 ADD SWAP2 SWAP1 PUSH1 0x1 ADD SWAP1 PUSH2 0xB0 JUMP JUMPDEST JUMPDEST POP SWAP1 POP PUSH2 0xD9 SWAP2 SWAP1 PUSH2 0xDD JUMP JUMPDEST POP SWAP1 JUMP JUMPDEST JUMPDEST DUP1 DUP3 GT ISZERO PUSH2 0xF6 JUMPI PUSH1 0x0 DUP2 PUSH1 0x0 SWAP1 SSTORE POP PUSH1 0x1 ADD PUSH2 0xDE JUMP JUMPDEST POP SWAP1 JUMP JUMPDEST PUSH1 0x0 PUSH2 0x10D PUSH2 0x108 DUP5 PUSH2 0x200 JUMP JUMPDEST PUSH2 0x1DB JUMP JUMPDEST SWAP1 POP DUP3 DUP2 MSTORE PUSH1 0x20 DUP2 ADD DUP5 DUP5 DUP5 ADD GT ISZERO PUSH2 0x129 JUMPI PUSH2 0x128 PUSH2 0x334 JUMP JUMPDEST JUMPDEST PUSH2 0x134 DUP5 DUP3 DUP6 PUSH2 0x23B JUMP JUMPDEST POP SWAP4 SWAP3 POP POP POP JUMP JUMPDEST PUSH1 0x0 DUP3 PUSH1 0x1F DUP4 ADD SLT PUSH2 0x151 JUMPI PUSH2 0x150 PUSH2 0x32F JUMP JUMPDEST JUMPDEST DUP2 MLOAD PUSH2 0x161 DUP5 DUP3 PUSH1 0x20 DUP7 ADD PUSH2 0xFA JUMP JUMPDEST SWAP2 POP POP SWAP3 SWAP2 POP POP JUMP JUMPDEST PUSH1 0x0 DUP2 MLOAD SWAP1 POP PUSH2 0x179 DUP2 PUSH2 0x354 JUMP JUMPDEST SWAP3 SWAP2 POP POP JUMP JUMPDEST PUSH1 0x0 DUP1 PUSH1 0x40 DUP4 DUP6 SUB SLT ISZERO PUSH2 0x196 JUMPI PUSH2 0x195 PUSH2 0x33E JUMP JUMPDEST JUMPDEST PUSH1 0x0 PUSH2 0x1A4 DUP6 DUP3 DUP7 ADD PUSH2 0x16A JUMP JUMPDEST SWAP3 POP POP PUSH1 0x20 DUP4 ADD MLOAD PUSH8 0xFFFFFFFFFFFFFFFF DUP2 GT ISZERO PUSH2 0x1C5 JUMPI PUSH2 0x1C4 PUSH2 0x339 JUMP JUMPDEST JUMPDEST PUSH2 0x1D1 DUP6 DUP3 DUP7 ADD PUSH2 0x13C JUMP JUMPDEST SWAP2 POP POP SWAP3 POP SWAP3 SWAP1 POP JUMP JUMPDEST PUSH1 0x0 PUSH2 0x1E5 PUSH2 0x1F6 JUMP JUMPDEST SWAP1 POP PUSH2 0x1F1 DUP3 DUP3 PUSH2 0x2A0 JUMP JUMPDEST SWAP2 SWAP1 POP JUMP JUMPDEST PUSH1 0x0 PUSH1 0x40 MLOAD SWAP1 POP SWAP1 JUMP JUMPDEST PUSH1 0x0 PUSH8 0xFFFFFFFFFFFFFFFF DUP3 GT ISZERO PUSH2 0x21B JUMPI PUSH2 0x21A PUSH2 0x300 JUMP JUMPDEST JUMPDEST PUSH2 0x224 DUP3 PUSH2 0x343 JUMP JUMPDEST SWAP1 POP PUSH1 0x20 DUP2 ADD SWAP1 POP SWAP2 SWAP1 POP JUMP JUMPDEST PUSH1 0x0 DUP2 SWAP1 POP SWAP2 SWAP1 POP JUMP JUMPDEST PUSH1 0x0 JUMPDEST DUP4 DUP2 LT ISZERO PUSH2 0x259 JUMPI DUP1 DUP3 ADD MLOAD DUP2 DUP5 ADD MSTORE PUSH1 0x20 DUP2 ADD SWAP1 POP PUSH2 0x23E JUMP JUMPDEST DUP4 DUP2 GT ISZERO PUSH2 0x268 JUMPI PUSH1 0x0 DUP5 DUP5 ADD MSTORE JUMPDEST POP POP POP POP JUMP JUMPDEST PUSH1 0x0 PUSH1 0x2 DUP3 DIV SWAP1 POP PUSH1 0x1 DUP3 AND DUP1 PUSH2 0x286 JUMPI PUSH1 0x7F DUP3 AND SWAP2 POP JUMPDEST PUSH1 0x20 DUP3 LT DUP2 EQ ISZERO PUSH2 0x29A JUMPI PUSH2 0x299 PUSH2 0x2D1 JUMP JUMPDEST JUMPDEST POP SWAP2 SWAP1 POP JUMP JUMPDEST PUSH2 0x2A9 DUP3 PUSH2 0x343 JUMP JUMPDEST DUP2 ADD DUP2 DUP2 LT PUSH8 0xFFFFFFFFFFFFFFFF DUP3 GT OR ISZERO PUSH2 0x2C8 JUMPI PUSH2 0x2C7 PUSH2 0x300 JUMP JUMPDEST JUMPDEST DUP1 PUSH1 0x40 MSTORE POP POP POP JUMP JUMPDEST PUSH32 0x4E487B7100000000000000000000000000000000000000000000000000000000 PUSH1 0x0 MSTORE PUSH1 0x22 PUSH1 0x4 MSTORE PUSH1 0x24 PUSH1 0x0 REVERT JUMPDEST PUSH32 0x4E487B7100000000000000000000000000000000000000000000000000000000 PUSH1 0x0 MSTORE PUSH1 0x41 PUSH1 0x4 MSTORE PUSH1 0x24 PUSH1 0x0 REVERT JUMPDEST PUSH1 0x0 DUP1 REVERT JUMPDEST PUSH1 0x0 DUP1 REVERT JUMPDEST PUSH1 0x0 DUP1 REVERT JUMPDEST PUSH1 0x0 DUP1 REVERT JUMPDEST PUSH1 0x0 PUSH1 0x1F NOT PUSH1 0x1F DUP4 ADD AND SWAP1 POP SWAP2 SWAP1 POP JUMP JUMPDEST PUSH2 0x35D DUP2 PUSH2 0x231 JUMP JUMPDEST DUP2 EQ PUSH2 0x368 JUMPI PUSH1 0x0 DUP1 REVERT JUMPDEST POP JUMP JUMPDEST PUSH2 0x31E DUP1 PUSH2 0x37A PUSH1 0x0 CODECOPY PUSH1 0x0 RETURN INVALID PUSH1 0x80 PUSH1 0x40 MSTORE CALLVALUE DUP1 ISZERO PUSH2 0x10 JUMPI PUSH1 0x0 DUP1 REVERT JUMPDEST POP PUSH1 0x4 CALLDATASIZE LT PUSH2 0x36 JUMPI PUSH1 0x0 CALLDATALOAD PUSH1 0xE0 SHR DUP1 PUSH4 0x2A9788CD EQ PUSH2 0x3B JUMPI DUP1 PUSH4 0xA434261F EQ PUSH2 0x6D JUMPI JUMPDEST PUSH1 0x0 DUP1 REVERT JUMPDEST PUSH2 0x55 PUSH1 0x4 DUP1 CALLDATASIZE SUB DUP2 ADD SWAP1 PUSH2 0x50 SWAP2 SWAP1 PUSH2 0x1A4 JUMP JUMPDEST PUSH2 0x89 JUMP JUMPDEST PUSH1 0x40 MLOAD PUSH2 0x64 SWAP4 SWAP3 SWAP2 SWAP1 PUSH2 0x242 JUMP JUMPDEST PUSH1 0x40 MLOAD DUP1 SWAP2 SUB SWAP1 RETURN JUMPDEST PUSH2 0x87 PUSH1 0x4 DUP1 CALLDATASIZE SUB DUP2 ADD SWAP1 PUSH2 0x82 SWAP2 SWAP1 PUSH2 0x1D1 JUMP JUMPDEST PUSH2 0xD3 JUMP JUMPDEST STOP JUMPDEST PUSH1 0x3 PUSH1 0x20 MSTORE DUP1 PUSH1 0x0 MSTORE PUSH1 0x40 PUSH1 0x0 KECCAK256 PUSH1 0x0 SWAP2 POP SWAP1 POP DUP1 PUSH1 0x0 ADD SLOAD SWAP1 DUP1 PUSH1 0x1 ADD SLOAD SWAP1 DUP1 PUSH1 0x2 ADD PUSH1 0x0 SWAP1 SLOAD SWAP1 PUSH2 0x100 EXP SWAP1 DIV PUSH20 0xFFFFFFFFFFFFFFFFFFFFFFFFFFFFFFFFFFFFFFFF AND SWAP1 POP DUP4 JUMP JUMPDEST PUSH1 0x40 MLOAD DUP1 PUSH1 0x60 ADD PUSH1 0x40 MSTORE DUP1 DUP5 DUP2 MSTORE PUSH1 0x20 ADD DUP4 DUP2 MSTORE PUSH1 0x20 ADD DUP3 PUSH20 0xFFFFFFFFFFFFFFFFFFFFFFFFFFFFFFFFFFFFFFFF AND DUP2 MSTORE POP PUSH1 0x3 PUSH1 0x0 DUP6 DUP2 MSTORE PUSH1 0x20 ADD SWAP1 DUP2 MSTORE PUSH1 0x20 ADD PUSH1 0x0 KECCAK256 PUSH1 0x0 DUP3 ADD MLOAD DUP2 PUSH1 0x0 ADD SSTORE PUSH1 0x20 DUP3 ADD MLOAD DUP2 PUSH1 0x1 ADD SSTORE PUSH1 0x40 DUP3 ADD MLOAD DUP2 PUSH1 0x2 ADD PUSH1 0x0 PUSH2 0x100 EXP DUP2 SLOAD DUP2 PUSH20 0xFFFFFFFFFFFFFFFFFFFFFFFFFFFFFFFFFFFFFFFF MUL NOT AND SWAP1 DUP4 PUSH20 0xFFFFFFFFFFFFFFFFFFFFFFFFFFFFFFFFFFFFFFFF AND MUL OR SWAP1 SSTORE POP SWAP1 POP POP POP POP POP JUMP JUMPDEST PUSH1 0x0 DUP2 CALLDATALOAD SWAP1 POP PUSH2 0x189 DUP2 PUSH2 0x2BA JUMP JUMPDEST SWAP3 SWAP2 POP POP JUMP JUMPDEST PUSH1 0x0 DUP2 CALLDATALOAD SWAP1 POP PUSH2 0x19E DUP2 PUSH2 0x2D1 JUMP JUMPDEST SWAP3 SWAP2 POP POP JUMP JUMPDEST PUSH1 0x0 PUSH1 0x20 DUP3 DUP5 SUB SLT ISZERO PUSH2 0x1BA JUMPI PUSH2 0x1B9 PUSH2 0x2B5 JUMP JUMPDEST JUMPDEST PUSH1 0x0 PUSH2 0x1C8 DUP5 DUP3 DUP6 ADD PUSH2 0x18F JUMP JUMPDEST SWAP2 POP POP SWAP3 SWAP2 POP POP JUMP JUMPDEST PUSH1 0x0 DUP1 PUSH1 0x0 PUSH1 0x60 DUP5 DUP7 SUB SLT ISZERO PUSH2 0x1EA JUMPI PUSH2 0x1E9 PUSH2 0x2B5 JUMP JUMPDEST JUMPDEST PUSH1 0x0 PUSH2 0x1F8 DUP7 DUP3 DUP8 ADD PUSH2 0x18F JUMP JUMPDEST SWAP4 POP POP PUSH1 0x20 PUSH2 0x209 DUP7 DUP3 DUP8 ADD PUSH2 0x18F JUMP JUMPDEST SWAP3 POP POP PUSH1 0x40 PUSH2 0x21A DUP7 DUP3 DUP8 ADD PUSH2 0x17A JUMP JUMPDEST SWAP2 POP POP SWAP3 POP SWAP3 POP SWAP3 JUMP JUMPDEST PUSH2 0x22D DUP2 PUSH2 0x279 JUMP JUMPDEST DUP3 MSTORE POP POP JUMP JUMPDEST PUSH2 0x23C DUP2 PUSH2 0x2AB JUMP JUMPDEST DUP3 MSTORE POP POP JUMP JUMPDEST PUSH1 0x0 PUSH1 0x60 DUP3 ADD SWAP1 POP PUSH2 0x257 PUSH1 0x0 DUP4 ADD DUP7 PUSH2 0x233 JUMP JUMPDEST PUSH2 0x264 PUSH1 0x20 DUP4 ADD DUP6 PUSH2 0x233 JUMP JUMPDEST PUSH2 0x271 PUSH1 0x40 DUP4 ADD DUP5 PUSH2 0x224 JUMP JUMPDEST SWAP5 SWAP4 POP POP POP POP JUMP JUMPDEST PUSH1 0x0 PUSH2 0x284 DUP3 PUSH2 0x28B JUMP JUMPDEST SWAP1 POP SWAP2 SWAP1 POP JUMP JUMPDEST PUSH1 0x0 PUSH20 0xFFFFFFFFFFFFFFFFFFFFFFFFFFFFFFFFFFFFFFFF DUP3 AND SWAP1 POP SWAP2 SWAP1 POP JUMP JUMPDEST PUSH1 0x0 DUP2 SWAP1 POP SWAP2 SWAP1 POP JUMP JUMPDEST PUSH1 0x0 DUP1 REVERT JUMPDEST PUSH2 0x2C3 DUP2 PUSH2 0x279 JUMP JUMPDEST DUP2 EQ PUSH2 0x2CE JUMPI PUSH1 0x0 DUP1 REVERT JUMPDEST POP JUMP JUMPDEST PUSH2 0x2DA DUP2 PUSH2 0x2AB JUMP JUMPDEST DUP2 EQ PUSH2 0x2E5 JUMPI PUSH1 0x0 DUP1 REVERT JUMPDEST POP JUMP INVALID LOG2 PUSH5 0x6970667358 0x22 SLT KECCAK256 0xC5 PUSH25 0x2275B55BC175B803A921922BA08573FFF24F79875D74922BAF 0xE0 SWAP3 SWAP6 0xD4 CALLER PUSH5 0x736F6C6343 STOP ADDMOD SMOD STOP CALLER LOG2 PUSH5 0x6970667358 0x22 SLT KECCAK256 0xD2 SWAP10 RETURN PUSH24 0xE79CD23D69BA5257DA096E26E16365CB3C81915DF1C54A5B NUMBER 0x1F 0xD1 0x29 PUSH5 0x736F6C6343 STOP ADDMOD SMOD STOP CALLER "
				},
				"gasEstimates": {
					"creation": {
						"codeDepositCost": "598600",
						"executionCost": "24898",
						"totalCost": "623498"
					},
					"external": {
						"addBus(uint256,string)": "infinite"
					}
				},
				"methodIdentifiers": {
					"addBus(uint256,string)": "fbcc6cb5"
				}
			},
			"storageLayout": {
				"storage": [
					{
						"astId": 64,
						"contract": "contracts/main.sol:smartReservation",
						"label": "manager",
						"offset": 0,
						"slot": "0",
						"type": "t_address"
					},
					{
						"astId": 69,
						"contract": "contracts/main.sol:smartReservation",
						"label": "bus",
						"offset": 0,
						"slot": "1",
						"type": "t_mapping(t_uint256,t_contract(Bus)57)"
					}
				],
				"types": {
					"t_address": {
						"encoding": "inplace",
						"label": "address",
						"numberOfBytes": "20"
					},
					"t_contract(Bus)57": {
						"encoding": "inplace",
						"label": "contract Bus",
						"numberOfBytes": "20"
					},
					"t_mapping(t_uint256,t_contract(Bus)57)": {
						"encoding": "mapping",
						"key": "t_uint256",
						"label": "mapping(uint256 => contract Bus)",
						"numberOfBytes": "32",
						"value": "t_contract(Bus)57"
					},
					"t_uint256": {
						"encoding": "inplace",
						"label": "uint256",
						"numberOfBytes": "32"
					}
				}
			},
			"userdoc": {
				"kind": "user",
				"methods": {},
				"version": 1
			}
		}
	}
}