{
	"contracts/Database.sol": {
		"Database": {
			"abi": [
				{
					"inputs": [],
					"stateMutability": "nonpayable",
					"type": "constructor"
				},
				{
					"inputs": [
						{
							"internalType": "uint256",
							"name": "studentNum",
							"type": "uint256"
						},
						{
							"internalType": "string",
							"name": "busNum",
							"type": "string"
						},
						{
							"internalType": "uint256",
							"name": "seat",
							"type": "uint256"
						}
					],
					"name": "Reservation",
					"outputs": [
						{
							"internalType": "string",
							"name": "",
							"type": "string"
						}
					],
					"stateMutability": "nonpayable",
					"type": "function"
				},
				{
					"inputs": [
						{
							"internalType": "address",
							"name": "_bus",
							"type": "address"
						}
					],
					"name": "Resetbus",
					"outputs": [
						{
							"internalType": "address",
							"name": "",
							"type": "address"
						},
						{
							"internalType": "uint256[45]",
							"name": "",
							"type": "uint256[45]"
						}
					],
					"stateMutability": "nonpayable",
					"type": "function"
				},
				{
					"inputs": [
						{
							"internalType": "address",
							"name": "bus",
							"type": "address"
						},
						{
							"internalType": "string",
							"name": "destination",
							"type": "string"
						},
						{
							"internalType": "uint256",
							"name": "start_time",
							"type": "uint256"
						},
						{
							"internalType": "string",
							"name": "busnum",
							"type": "string"
						}
					],
					"name": "addBus",
					"outputs": [],
					"stateMutability": "nonpayable",
					"type": "function"
				},
				{
					"inputs": [
						{
							"internalType": "address",
							"name": "student",
							"type": "address"
						},
						{
							"internalType": "string",
							"name": "student_name",
							"type": "string"
						},
						{
							"internalType": "uint256",
							"name": "studentnum",
							"type": "uint256"
						}
					],
					"name": "addStudent",
					"outputs": [],
					"stateMutability": "nonpayable",
					"type": "function"
				},
				{
					"inputs": [
						{
							"internalType": "string",
							"name": "busNum",
							"type": "string"
						},
						{
							"internalType": "uint256",
							"name": "seat",
							"type": "uint256"
						}
					],
					"name": "cancelReservation",
					"outputs": [],
					"stateMutability": "nonpayable",
					"type": "function"
				},
				{
					"inputs": [
						{
							"internalType": "string",
							"name": "BusNum",
							"type": "string"
						}
					],
					"name": "deleteBus",
					"outputs": [
						{
							"internalType": "string",
							"name": "",
							"type": "string"
						}
					],
					"stateMutability": "nonpayable",
					"type": "function"
				},
				{
					"inputs": [
						{
							"internalType": "uint256",
							"name": "student_Num",
							"type": "uint256"
						}
					],
					"name": "deleteStudent",
					"outputs": [
						{
							"internalType": "string",
							"name": "",
							"type": "string"
						}
					],
					"stateMutability": "nonpayable",
					"type": "function"
				},
				{
					"inputs": [],
					"name": "getAllBus",
					"outputs": [
						{
							"internalType": "address[]",
							"name": "",
							"type": "address[]"
						}
					],
					"stateMutability": "view",
					"type": "function"
				},
				{
					"inputs": [],
					"name": "getAllStudent",
					"outputs": [
						{
							"internalType": "address[]",
							"name": "",
							"type": "address[]"
						}
					],
					"stateMutability": "view",
					"type": "function"
				},
				{
					"inputs": [
						{
							"internalType": "string",
							"name": "busNum",
							"type": "string"
						}
					],
					"name": "getBus",
					"outputs": [
						{
							"internalType": "address",
							"name": "",
							"type": "address"
						},
						{
							"internalType": "string",
							"name": "",
							"type": "string"
						},
						{
							"internalType": "uint256",
							"name": "",
							"type": "uint256"
						},
						{
							"internalType": "uint256[45]",
							"name": "",
							"type": "uint256[45]"
						}
					],
					"stateMutability": "view",
					"type": "function"
				},
				{
					"inputs": [
						{
							"internalType": "uint256",
							"name": "studentNum",
							"type": "uint256"
						}
					],
					"name": "getStudent",
					"outputs": [
						{
							"internalType": "address",
							"name": "",
							"type": "address"
						},
						{
							"internalType": "string",
							"name": "",
							"type": "string"
						}
					],
					"stateMutability": "view",
					"type": "function"
				},
				{
					"inputs": [
						{
							"internalType": "uint256",
							"name": "studentNum",
							"type": "uint256"
						}
					],
					"name": "getStudentAdress",
					"outputs": [
						{
							"internalType": "address",
							"name": "",
							"type": "address"
						}
					],
					"stateMutability": "view",
					"type": "function"
				},
				{
					"inputs": [],
					"name": "getbusNums",
					"outputs": [
						{
							"internalType": "string[]",
							"name": "",
							"type": "string[]"
						}
					],
					"stateMutability": "view",
					"type": "function"
				}
			],
			"devdoc": {
				"details": "Save Database",
				"kind": "dev",
				"methods": {},
				"title": "Database",
				"version": 1
			},
			"evm": {
				"assembly": "    /* \"contracts/Database.sol\":151:5337  contract Database{... */\n  mstore(0x40, 0x80)\n    /* \"contracts/Database.sol\":643:701  constructor() public {... */\n  callvalue\n  dup1\n  iszero\n  tag_1\n  jumpi\n  0x00\n  dup1\n  revert\ntag_1:\n  pop\n    /* \"contracts/Database.sol\":684:694  msg.sender */\n  caller\n    /* \"contracts/Database.sol\":674:681  manager */\n  0x00\n  dup1\n    /* \"contracts/Database.sol\":674:694  manager = msg.sender */\n  0x0100\n  exp\n  dup2\n  sload\n  dup2\n  0xffffffffffffffffffffffffffffffffffffffff\n  mul\n  not\n  and\n  swap1\n  dup4\n  0xffffffffffffffffffffffffffffffffffffffff\n  and\n  mul\n  or\n  swap1\n  sstore\n  pop\n    /* \"contracts/Database.sol\":151:5337  contract Database{... */\n  dataSize(sub_0)\n  dup1\n  dataOffset(sub_0)\n  0x00\n  codecopy\n  0x00\n  return\nstop\n\nsub_0: assembly {\n        /* \"contracts/Database.sol\":151:5337  contract Database{... */\n      mstore(0x40, 0x80)\n      callvalue\n      dup1\n      iszero\n      tag_1\n      jumpi\n      0x00\n      dup1\n      revert\n    tag_1:\n      pop\n      jumpi(tag_2, lt(calldatasize, 0x04))\n      shr(0xe0, calldataload(0x00))\n      dup1\n      0x642f9163\n      gt\n      tag_16\n      jumpi\n      dup1\n      0xb645307d\n      gt\n      tag_17\n      jumpi\n      dup1\n      0xb645307d\n      eq\n      tag_12\n      jumpi\n      dup1\n      0xc56700c1\n      eq\n      tag_13\n      jumpi\n      dup1\n      0xdbd5c356\n      eq\n      tag_14\n      jumpi\n      dup1\n      0xf041f73f\n      eq\n      tag_15\n      jumpi\n      jump(tag_2)\n    tag_17:\n      dup1\n      0x642f9163\n      eq\n      tag_9\n      jumpi\n      dup1\n      0x75285b65\n      eq\n      tag_10\n      jumpi\n      dup1\n      0x80e1127b\n      eq\n      tag_11\n      jumpi\n      jump(tag_2)\n    tag_16:\n      dup1\n      0x9a4d3c\n      eq\n      tag_3\n      jumpi\n      dup1\n      0x133d0460\n      eq\n      tag_4\n      jumpi\n      dup1\n      0x2bf4ef72\n      eq\n      tag_5\n      jumpi\n      dup1\n      0x2c52f03e\n      eq\n      tag_6\n      jumpi\n      dup1\n      0x6269ba34\n      eq\n      tag_7\n      jumpi\n      dup1\n      0x62a80162\n      eq\n      tag_8\n      jumpi\n    tag_2:\n      0x00\n      dup1\n      revert\n        /* \"contracts/Database.sol\":1790:2062  function addBus(address bus, string memory destination, uint start_time, string memory busnum) public {... */\n    tag_3:\n      tag_18\n      0x04\n      dup1\n      calldatasize\n      sub\n      dup2\n      add\n      swap1\n      tag_19\n      swap2\n      swap1\n      tag_20\n      jump\t// in\n    tag_19:\n      tag_21\n      jump\t// in\n    tag_18:\n      stop\n        /* \"contracts/Database.sol\":1353:1448  function getAllStudent() public view returns (address[] memory){... */\n    tag_4:\n      tag_22\n      tag_23\n      jump\t// in\n    tag_22:\n      mload(0x40)\n      tag_24\n      swap2\n      swap1\n      tag_25\n      jump\t// in\n    tag_24:\n      mload(0x40)\n      dup1\n      swap2\n      sub\n      swap1\n      return\n        /* \"contracts/Database.sol\":4304:4763  function Reservation(uint studentNum, string memory busNum, uint seat) public returns (string memory){... */\n    tag_5:\n      tag_26\n      0x04\n      dup1\n      calldatasize\n      sub\n      dup2\n      add\n      swap1\n      tag_27\n      swap2\n      swap1\n      tag_28\n      jump\t// in\n    tag_27:\n      tag_29\n      jump\t// in\n    tag_26:\n      mload(0x40)\n      tag_30\n      swap2\n      swap1\n      tag_31\n      jump\t// in\n    tag_30:\n      mload(0x40)\n      dup1\n      swap2\n      sub\n      swap1\n      return\n        /* \"contracts/Database.sol\":4805:4927  function cancelReservation(string memory busNum, uint seat) public {... */\n    tag_6:\n      tag_32\n      0x04\n      dup1\n      calldatasize\n      sub\n      dup2\n      add\n      swap1\n      tag_33\n      swap2\n      swap1\n      tag_34\n      jump\t// in\n    tag_33:\n      tag_35\n      jump\t// in\n    tag_32:\n      stop\n        /* \"contracts/Database.sol\":794:888  function getbusNums() public view returns (string[] memory)... */\n    tag_7:\n      tag_36\n      tag_37\n      jump\t// in\n    tag_36:\n      mload(0x40)\n      tag_38\n      swap2\n      swap1\n      tag_39\n      jump\t// in\n    tag_38:\n      mload(0x40)\n      dup1\n      swap2\n      sub\n      swap1\n      return\n        /* \"contracts/Database.sol\":3302:3876  function deleteBus(string memory BusNum) public returns(string memory){... */\n    tag_8:\n      tag_40\n      0x04\n      dup1\n      calldatasize\n      sub\n      dup2\n      add\n      swap1\n      tag_41\n      swap2\n      swap1\n      tag_42\n      jump\t// in\n    tag_41:\n      tag_43\n      jump\t// in\n    tag_40:\n      mload(0x40)\n      tag_44\n      swap2\n      swap1\n      tag_31\n      jump\t// in\n    tag_44:\n      mload(0x40)\n      dup1\n      swap2\n      sub\n      swap1\n      return\n        /* \"contracts/Database.sol\":1520:1781  function getStudent(uint studentNum) public view returns (address, string memory) {... */\n    tag_9:\n      tag_45\n      0x04\n      dup1\n      calldatasize\n      sub\n      dup2\n      add\n      swap1\n      tag_46\n      swap2\n      swap1\n      tag_47\n      jump\t// in\n    tag_46:\n      tag_48\n      jump\t// in\n    tag_45:\n      mload(0x40)\n      tag_49\n      swap3\n      swap2\n      swap1\n      tag_50\n      jump\t// in\n    tag_49:\n      mload(0x40)\n      dup1\n      swap2\n      sub\n      swap1\n      return\n        /* \"contracts/Database.sol\":2069:2162  function getAllBus() public view returns (address[] memory)... */\n    tag_10:\n      tag_51\n      tag_52\n      jump\t// in\n    tag_51:\n      mload(0x40)\n      tag_53\n      swap2\n      swap1\n      tag_25\n      jump\t// in\n    tag_53:\n      mload(0x40)\n      dup1\n      swap2\n      sub\n      swap1\n      return\n        /* \"contracts/Database.sol\":2258:2640  function getBus(string memory busNum) public view returns (address, string memory, uint, uint[45] memory) {... */\n    tag_11:\n      tag_54\n      0x04\n      dup1\n      calldatasize\n      sub\n      dup2\n      add\n      swap1\n      tag_55\n      swap2\n      swap1\n      tag_42\n      jump\t// in\n    tag_55:\n      tag_56\n      jump\t// in\n    tag_54:\n      mload(0x40)\n      tag_57\n      swap5\n      swap4\n      swap3\n      swap2\n      swap1\n      tag_58\n      jump\t// in\n    tag_57:\n      mload(0x40)\n      dup1\n      swap2\n      sub\n      swap1\n      return\n        /* \"contracts/Database.sol\":2686:3254  function deleteStudent(uint student_Num) public returns(string memory){... */\n    tag_12:\n      tag_59\n      0x04\n      dup1\n      calldatasize\n      sub\n      dup2\n      add\n      swap1\n      tag_60\n      swap2\n      swap1\n      tag_47\n      jump\t// in\n    tag_60:\n      tag_61\n      jump\t// in\n    tag_59:\n      mload(0x40)\n      tag_62\n      swap2\n      swap1\n      tag_31\n      jump\t// in\n    tag_62:\n      mload(0x40)\n      dup1\n      swap2\n      sub\n      swap1\n      return\n        /* \"contracts/Database.sol\":4984:5335  function Resetbus(address _bus) public returns (address, uint[45] memory){... */\n    tag_13:\n      tag_63\n      0x04\n      dup1\n      calldatasize\n      sub\n      dup2\n      add\n      swap1\n      tag_64\n      swap2\n      swap1\n      tag_65\n      jump\t// in\n    tag_64:\n      tag_66\n      jump\t// in\n    tag_63:\n      mload(0x40)\n      tag_67\n      swap3\n      swap2\n      swap1\n      tag_68\n      jump\t// in\n    tag_67:\n      mload(0x40)\n      dup1\n      swap2\n      sub\n      swap1\n      return\n        /* \"contracts/Database.sol\":1182:1346  function getStudentAdress(uint studentNum) public view returns (address) {... */\n    tag_14:\n      tag_69\n      0x04\n      dup1\n      calldatasize\n      sub\n      dup2\n      add\n      swap1\n      tag_70\n      swap2\n      swap1\n      tag_47\n      jump\t// in\n    tag_70:\n      tag_71\n      jump\t// in\n    tag_69:\n      mload(0x40)\n      tag_72\n      swap2\n      swap1\n      tag_73\n      jump\t// in\n    tag_72:\n      mload(0x40)\n      dup1\n      swap2\n      sub\n      swap1\n      return\n        /* \"contracts/Database.sol\":895:1124  function addStudent(address student, string memory student_name, uint studentnum) public {... */\n    tag_15:\n      tag_74\n      0x04\n      dup1\n      calldatasize\n      sub\n      dup2\n      add\n      swap1\n      tag_75\n      swap2\n      swap1\n      tag_76\n      jump\t// in\n    tag_75:\n      tag_77\n      jump\t// in\n    tag_74:\n      stop\n        /* \"contracts/Database.sol\":1790:2062  function addBus(address bus, string memory destination, uint start_time, string memory busnum) public {... */\n    tag_21:\n        /* \"contracts/Database.sol\":1900:1920  uint[45] memory seat */\n      tag_79\n      tag_80\n      jump\t// in\n    tag_79:\n        /* \"contracts/Database.sol\":1928:1939  delete seat */\n      tag_81\n      tag_80\n      jump\t// in\n    tag_81:\n      swap1\n      pop\n        /* \"contracts/Database.sol\":1947:1952  buses */\n      0x01\n        /* \"contracts/Database.sol\":1958:1961  bus */\n      dup6\n        /* \"contracts/Database.sol\":1947:1962  buses.push(bus) */\n      swap1\n      dup1\n      0x01\n      dup2\n      sload\n      add\n      dup1\n      dup3\n      sstore\n      dup1\n      swap2\n      pop\n      pop\n      0x01\n      swap1\n      sub\n      swap1\n      0x00\n      mstore\n      keccak256(0x00, 0x20)\n      add\n      0x00\n      swap1\n      swap2\n      swap1\n      swap2\n      swap1\n      swap2\n      0x0100\n      exp\n      dup2\n      sload\n      dup2\n      0xffffffffffffffffffffffffffffffffffffffff\n      mul\n      not\n      and\n      swap1\n      dup4\n      0xffffffffffffffffffffffffffffffffffffffff\n      and\n      mul\n      or\n      swap1\n      sstore\n      pop\n        /* \"contracts/Database.sol\":1970:1976  busNum */\n      0x03\n        /* \"contracts/Database.sol\":1982:1988  busnum */\n      dup3\n        /* \"contracts/Database.sol\":1970:1989  busNum.push(busnum) */\n      swap1\n      dup1\n      0x01\n      dup2\n      sload\n      add\n      dup1\n      dup3\n      sstore\n      dup1\n      swap2\n      pop\n      pop\n      0x01\n      swap1\n      sub\n      swap1\n      0x00\n      mstore\n      keccak256(0x00, 0x20)\n      add\n      0x00\n      swap1\n      swap2\n      swap1\n      swap2\n      swap1\n      swap2\n      pop\n      swap1\n      dup1\n      mload\n      swap1\n      0x20\n      add\n      swap1\n      tag_84\n      swap3\n      swap2\n      swap1\n      tag_85\n      jump\t// in\n    tag_84:\n      pop\n        /* \"contracts/Database.sol\":2013:2055  Bus_DB(bus, destination, start_time, seat) */\n      mload(0x40)\n      dup1\n      0x80\n      add\n      0x40\n      mstore\n      dup1\n        /* \"contracts/Database.sol\":2020:2023  bus */\n      dup7\n        /* \"contracts/Database.sol\":2013:2055  Bus_DB(bus, destination, start_time, seat) */\n      0xffffffffffffffffffffffffffffffffffffffff\n      and\n      dup2\n      mstore\n      0x20\n      add\n        /* \"contracts/Database.sol\":2025:2036  destination */\n      dup6\n        /* \"contracts/Database.sol\":2013:2055  Bus_DB(bus, destination, start_time, seat) */\n      dup2\n      mstore\n      0x20\n      add\n        /* \"contracts/Database.sol\":2038:2048  start_time */\n      dup5\n        /* \"contracts/Database.sol\":2013:2055  Bus_DB(bus, destination, start_time, seat) */\n      dup2\n      mstore\n      0x20\n      add\n        /* \"contracts/Database.sol\":2050:2054  seat */\n      dup3\n        /* \"contracts/Database.sol\":2013:2055  Bus_DB(bus, destination, start_time, seat) */\n      dup2\n      mstore\n      pop\n        /* \"contracts/Database.sol\":1997:2002  BusDB */\n      0x05\n        /* \"contracts/Database.sol\":2003:2009  busnum */\n      dup4\n        /* \"contracts/Database.sol\":1997:2010  BusDB[busnum] */\n      mload(0x40)\n      tag_86\n      swap2\n      swap1\n      tag_87\n      jump\t// in\n    tag_86:\n      swap1\n      dup2\n      mstore\n      0x20\n      add\n      mload(0x40)\n      dup1\n      swap2\n      sub\n      swap1\n      keccak256\n        /* \"contracts/Database.sol\":1997:2055  BusDB[busnum] = Bus_DB(bus, destination, start_time, seat) */\n      0x00\n      dup3\n      add\n      mload\n      dup2\n      0x00\n      add\n      exp(0x0100, 0x00)\n      dup2\n      sload\n      dup2\n      0xffffffffffffffffffffffffffffffffffffffff\n      mul\n      not\n      and\n      swap1\n      dup4\n      0xffffffffffffffffffffffffffffffffffffffff\n      and\n      mul\n      or\n      swap1\n      sstore\n      pop\n      0x20\n      dup3\n      add\n      mload\n      dup2\n      0x01\n      add\n      swap1\n      dup1\n      mload\n      swap1\n      0x20\n      add\n      swap1\n      tag_88\n      swap3\n      swap2\n      swap1\n      tag_85\n      jump\t// in\n    tag_88:\n      pop\n      0x40\n      dup3\n      add\n      mload\n      dup2\n      0x02\n      add\n      sstore\n      0x60\n      dup3\n      add\n      mload\n      dup2\n      0x03\n      add\n      swap1\n      0x2d\n      tag_89\n      swap3\n      swap2\n      swap1\n      tag_90\n      jump\t// in\n    tag_89:\n      pop\n      swap1\n      pop\n      pop\n        /* \"contracts/Database.sol\":1892:2062  {... */\n      pop\n        /* \"contracts/Database.sol\":1790:2062  function addBus(address bus, string memory destination, uint start_time, string memory busnum) public {... */\n      pop\n      pop\n      pop\n      pop\n      jump\t// out\n        /* \"contracts/Database.sol\":1353:1448  function getAllStudent() public view returns (address[] memory){... */\n    tag_23:\n        /* \"contracts/Database.sol\":1399:1415  address[] memory */\n      0x60\n        /* \"contracts/Database.sol\":1433:1441  students */\n      0x02\n        /* \"contracts/Database.sol\":1426:1441  return students */\n      dup1\n      sload\n      dup1\n      0x20\n      mul\n      0x20\n      add\n      mload(0x40)\n      swap1\n      dup2\n      add\n      0x40\n      mstore\n      dup1\n      swap3\n      swap2\n      swap1\n      dup2\n      dup2\n      mstore\n      0x20\n      add\n      dup3\n      dup1\n      sload\n      dup1\n      iszero\n      tag_92\n      jumpi\n      0x20\n      mul\n      dup3\n      add\n      swap2\n      swap1\n      0x00\n      mstore\n      keccak256(0x00, 0x20)\n      swap1\n    tag_93:\n      dup2\n      0x00\n      swap1\n      sload\n      swap1\n      0x0100\n      exp\n      swap1\n      div\n      0xffffffffffffffffffffffffffffffffffffffff\n      and\n      0xffffffffffffffffffffffffffffffffffffffff\n      and\n      dup2\n      mstore\n      0x20\n      add\n      swap1\n      0x01\n      add\n      swap1\n      dup1\n      dup4\n      gt\n      tag_93\n      jumpi\n    tag_92:\n      pop\n      pop\n      pop\n      pop\n      pop\n      swap1\n      pop\n        /* \"contracts/Database.sol\":1353:1448  function getAllStudent() public view returns (address[] memory){... */\n      swap1\n      jump\t// out\n        /* \"contracts/Database.sol\":4304:4763  function Reservation(uint studentNum, string memory busNum, uint seat) public returns (string memory){... */\n    tag_29:\n        /* \"contracts/Database.sol\":4391:4404  string memory */\n      0x60\n        /* \"contracts/Database.sol\":4466:4467  0 */\n      0x00\n        /* \"contracts/Database.sol\":4429:4434  BusDB */\n      0x05\n        /* \"contracts/Database.sol\":4435:4441  busNum */\n      dup5\n        /* \"contracts/Database.sol\":4429:4442  BusDB[busNum] */\n      mload(0x40)\n      tag_95\n      swap2\n      swap1\n      tag_87\n      jump\t// in\n    tag_95:\n      swap1\n      dup2\n      mstore\n      0x20\n      add\n      mload(0x40)\n      dup1\n      swap2\n      sub\n      swap1\n      keccak256\n        /* \"contracts/Database.sol\":4429:4454  BusDB[busNum].destination */\n      0x01\n      add\n        /* \"contracts/Database.sol\":4423:4462  bytes(BusDB[busNum].destination).length */\n      dup1\n      sload\n      tag_96\n      swap1\n      tag_97\n      jump\t// in\n    tag_96:\n      swap1\n      pop\n        /* \"contracts/Database.sol\":4423:4467  bytes(BusDB[busNum].destination).length != 0 */\n      eq\n      iszero\n        /* \"contracts/Database.sol\":4415:4487  require(bytes(BusDB[busNum].destination).length != 0, \"There is no BUS\") */\n      tag_98\n      jumpi\n      mload(0x40)\n      0x08c379a000000000000000000000000000000000000000000000000000000000\n      dup2\n      mstore\n      0x04\n      add\n      tag_99\n      swap1\n      tag_100\n      jump\t// in\n    tag_99:\n      mload(0x40)\n      dup1\n      swap2\n      sub\n      swap1\n      revert\n    tag_98:\n        /* \"contracts/Database.sol\":4583:4584  0 */\n      0x00\n        /* \"contracts/Database.sol\":4548:4553  BusDB */\n      0x05\n        /* \"contracts/Database.sol\":4554:4560  busNum */\n      dup5\n        /* \"contracts/Database.sol\":4548:4561  BusDB[busNum] */\n      mload(0x40)\n      tag_101\n      swap2\n      swap1\n      tag_87\n      jump\t// in\n    tag_101:\n      swap1\n      dup2\n      mstore\n      0x20\n      add\n      mload(0x40)\n      dup1\n      swap2\n      sub\n      swap1\n      keccak256\n        /* \"contracts/Database.sol\":4548:4573  BusDB[busNum].Seat_number */\n      0x03\n      add\n        /* \"contracts/Database.sol\":4574:4578  seat */\n      dup4\n        /* \"contracts/Database.sol\":4548:4579  BusDB[busNum].Seat_number[seat] */\n      0x2d\n      dup2\n      lt\n      tag_102\n      jumpi\n      tag_103\n      tag_104\n      jump\t// in\n    tag_103:\n    tag_102:\n      add\n      sload\n        /* \"contracts/Database.sol\":4548:4584  BusDB[busNum].Seat_number[seat] == 0 */\n      eq\n        /* \"contracts/Database.sol\":4540:4610  require(BusDB[busNum].Seat_number[seat] == 0, \"It's already reserved\") */\n      tag_106\n      jumpi\n      mload(0x40)\n      0x08c379a000000000000000000000000000000000000000000000000000000000\n      dup2\n      mstore\n      0x04\n      add\n      tag_107\n      swap1\n      tag_108\n      jump\t// in\n    tag_107:\n      mload(0x40)\n      dup1\n      swap2\n      sub\n      swap1\n      revert\n    tag_106:\n        /* \"contracts/Database.sol\":4708:4718  studentNum */\n      dup4\n        /* \"contracts/Database.sol\":4674:4679  BusDB */\n      0x05\n        /* \"contracts/Database.sol\":4680:4686  busNum */\n      dup5\n        /* \"contracts/Database.sol\":4674:4687  BusDB[busNum] */\n      mload(0x40)\n      tag_109\n      swap2\n      swap1\n      tag_87\n      jump\t// in\n    tag_109:\n      swap1\n      dup2\n      mstore\n      0x20\n      add\n      mload(0x40)\n      dup1\n      swap2\n      sub\n      swap1\n      keccak256\n        /* \"contracts/Database.sol\":4674:4699  BusDB[busNum].Seat_number */\n      0x03\n      add\n        /* \"contracts/Database.sol\":4700:4704  seat */\n      dup4\n        /* \"contracts/Database.sol\":4674:4705  BusDB[busNum].Seat_number[seat] */\n      0x2d\n      dup2\n      lt\n      tag_110\n      jumpi\n      tag_111\n      tag_104\n      jump\t// in\n    tag_111:\n    tag_110:\n      add\n        /* \"contracts/Database.sol\":4674:4718  BusDB[busNum].Seat_number[seat] = studentNum */\n      dup2\n      swap1\n      sstore\n      pop\n        /* \"contracts/Database.sol\":4728:4756  return \"Reservation success\" */\n      mload(0x40)\n      dup1\n      0x40\n      add\n      0x40\n      mstore\n      dup1\n      0x13\n      dup2\n      mstore\n      0x20\n      add\n      0x5265736572766174696f6e207375636365737300000000000000000000000000\n      dup2\n      mstore\n      pop\n      swap1\n      pop\n        /* \"contracts/Database.sol\":4304:4763  function Reservation(uint studentNum, string memory busNum, uint seat) public returns (string memory){... */\n      swap4\n      swap3\n      pop\n      pop\n      pop\n      jump\t// out\n        /* \"contracts/Database.sol\":4805:4927  function cancelReservation(string memory busNum, uint seat) public {... */\n    tag_35:\n        /* \"contracts/Database.sol\":4889:4894  BusDB */\n      0x05\n        /* \"contracts/Database.sol\":4895:4901  busNum */\n      dup3\n        /* \"contracts/Database.sol\":4889:4902  BusDB[busNum] */\n      mload(0x40)\n      tag_114\n      swap2\n      swap1\n      tag_87\n      jump\t// in\n    tag_114:\n      swap1\n      dup2\n      mstore\n      0x20\n      add\n      mload(0x40)\n      dup1\n      swap2\n      sub\n      swap1\n      keccak256\n        /* \"contracts/Database.sol\":4889:4914  BusDB[busNum].Seat_number */\n      0x03\n      add\n        /* \"contracts/Database.sol\":4915:4919  seat */\n      dup2\n        /* \"contracts/Database.sol\":4889:4920  BusDB[busNum].Seat_number[seat] */\n      0x2d\n      dup2\n      lt\n      tag_115\n      jumpi\n      tag_116\n      tag_104\n      jump\t// in\n    tag_116:\n    tag_115:\n      add\n        /* \"contracts/Database.sol\":4882:4920  delete BusDB[busNum].Seat_number[seat] */\n      0x00\n      swap1\n      sstore\n        /* \"contracts/Database.sol\":4805:4927  function cancelReservation(string memory busNum, uint seat) public {... */\n      pop\n      pop\n      jump\t// out\n        /* \"contracts/Database.sol\":794:888  function getbusNums() public view returns (string[] memory)... */\n    tag_37:\n        /* \"contracts/Database.sol\":837:852  string[] memory */\n      0x60\n        /* \"contracts/Database.sol\":875:881  busNum */\n      0x03\n        /* \"contracts/Database.sol\":868:881  return busNum */\n      dup1\n      sload\n      dup1\n      0x20\n      mul\n      0x20\n      add\n      mload(0x40)\n      swap1\n      dup2\n      add\n      0x40\n      mstore\n      dup1\n      swap3\n      swap2\n      swap1\n      dup2\n      dup2\n      mstore\n      0x20\n      add\n      0x00\n      swap1\n    tag_119:\n      dup3\n      dup3\n      lt\n      iszero\n      tag_120\n      jumpi\n      dup4\n      dup3\n      swap1\n      0x00\n      mstore\n      keccak256(0x00, 0x20)\n      add\n      dup1\n      sload\n      tag_122\n      swap1\n      tag_97\n      jump\t// in\n    tag_122:\n      dup1\n      0x1f\n      add\n      0x20\n      dup1\n      swap2\n      div\n      mul\n      0x20\n      add\n      mload(0x40)\n      swap1\n      dup2\n      add\n      0x40\n      mstore\n      dup1\n      swap3\n      swap2\n      swap1\n      dup2\n      dup2\n      mstore\n      0x20\n      add\n      dup3\n      dup1\n      sload\n      tag_123\n      swap1\n      tag_97\n      jump\t// in\n    tag_123:\n      dup1\n      iszero\n      tag_124\n      jumpi\n      dup1\n      0x1f\n      lt\n      tag_125\n      jumpi\n      0x0100\n      dup1\n      dup4\n      sload\n      div\n      mul\n      dup4\n      mstore\n      swap2\n      0x20\n      add\n      swap2\n      jump(tag_124)\n    tag_125:\n      dup3\n      add\n      swap2\n      swap1\n      0x00\n      mstore\n      keccak256(0x00, 0x20)\n      swap1\n    tag_126:\n      dup2\n      sload\n      dup2\n      mstore\n      swap1\n      0x01\n      add\n      swap1\n      0x20\n      add\n      dup1\n      dup4\n      gt\n      tag_126\n      jumpi\n      dup3\n      swap1\n      sub\n      0x1f\n      and\n      dup3\n      add\n      swap2\n    tag_124:\n      pop\n      pop\n      pop\n      pop\n      pop\n      dup2\n      mstore\n      0x20\n      add\n      swap1\n      0x01\n      add\n      swap1\n      jump(tag_119)\n    tag_120:\n      pop\n      pop\n      pop\n      pop\n      swap1\n      pop\n        /* \"contracts/Database.sol\":794:888  function getbusNums() public view returns (string[] memory)... */\n      swap1\n      jump\t// out\n        /* \"contracts/Database.sol\":3302:3876  function deleteBus(string memory BusNum) public returns(string memory){... */\n    tag_43:\n        /* \"contracts/Database.sol\":3358:3371  string memory */\n      0x60\n        /* \"contracts/Database.sol\":3432:3433  0 */\n      0x00\n        /* \"contracts/Database.sol\":3395:3400  BusDB */\n      0x05\n        /* \"contracts/Database.sol\":3401:3407  BusNum */\n      dup4\n        /* \"contracts/Database.sol\":3395:3408  BusDB[BusNum] */\n      mload(0x40)\n      tag_128\n      swap2\n      swap1\n      tag_87\n      jump\t// in\n    tag_128:\n      swap1\n      dup2\n      mstore\n      0x20\n      add\n      mload(0x40)\n      dup1\n      swap2\n      sub\n      swap1\n      keccak256\n        /* \"contracts/Database.sol\":3395:3420  BusDB[BusNum].destination */\n      0x01\n      add\n        /* \"contracts/Database.sol\":3389:3428  bytes(BusDB[BusNum].destination).length */\n      dup1\n      sload\n      tag_129\n      swap1\n      tag_97\n      jump\t// in\n    tag_129:\n      swap1\n      pop\n        /* \"contracts/Database.sol\":3389:3433  bytes(BusDB[BusNum].destination).length != 0 */\n      eq\n      iszero\n        /* \"contracts/Database.sol\":3381:3453  require(bytes(BusDB[BusNum].destination).length != 0, \"There is no BUS\") */\n      tag_130\n      jumpi\n      mload(0x40)\n      0x08c379a000000000000000000000000000000000000000000000000000000000\n      dup2\n      mstore\n      0x04\n      add\n      tag_131\n      swap1\n      tag_100\n      jump\t// in\n    tag_131:\n      mload(0x40)\n      dup1\n      swap2\n      sub\n      swap1\n      revert\n    tag_130:\n        /* \"contracts/Database.sol\":3530:3535  BusDB */\n      0x05\n        /* \"contracts/Database.sol\":3536:3542  BusNum */\n      dup3\n        /* \"contracts/Database.sol\":3530:3543  BusDB[BusNum] */\n      mload(0x40)\n      tag_132\n      swap2\n      swap1\n      tag_87\n      jump\t// in\n    tag_132:\n      swap1\n      dup2\n      mstore\n      0x20\n      add\n      mload(0x40)\n      dup1\n      swap2\n      sub\n      swap1\n      keccak256\n      0x00\n        /* \"contracts/Database.sol\":3523:3543  delete BusDB[BusNum] */\n      dup1\n      dup3\n      add\n      exp(0x0100, 0x00)\n      dup2\n      sload\n      swap1\n      0xffffffffffffffffffffffffffffffffffffffff\n      mul\n      not\n      and\n      swap1\n      sstore\n      0x01\n      dup3\n      add\n      0x00\n      tag_133\n      swap2\n      swap1\n      tag_134\n      jump\t// in\n    tag_133:\n      0x02\n      dup3\n      add\n      0x00\n      swap1\n      sstore\n      0x03\n      dup3\n      add\n      0x00\n      tag_135\n      swap2\n      swap1\n      tag_136\n      jump\t// in\n    tag_135:\n      pop\n      pop\n        /* \"contracts/Database.sol\":3590:3596  uint i */\n      0x00\n        /* \"contracts/Database.sol\":3586:3796  for(uint i=0; i<busNum.length; i++) {... */\n    tag_137:\n        /* \"contracts/Database.sol\":3602:3608  busNum */\n      0x03\n        /* \"contracts/Database.sol\":3602:3615  busNum.length */\n      dup1\n      sload\n      swap1\n      pop\n        /* \"contracts/Database.sol\":3600:3601  i */\n      dup2\n        /* \"contracts/Database.sol\":3600:3615  i<busNum.length */\n      lt\n        /* \"contracts/Database.sol\":3586:3796  for(uint i=0; i<busNum.length; i++) {... */\n      iszero\n      tag_138\n      jumpi\n        /* \"contracts/Database.sol\":3635:3652  string memory tmp */\n      0x00\n        /* \"contracts/Database.sol\":3655:3661  busNum */\n      0x03\n        /* \"contracts/Database.sol\":3662:3663  i */\n      dup3\n        /* \"contracts/Database.sol\":3655:3664  busNum[i] */\n      dup2\n      sload\n      dup2\n      lt\n      tag_140\n      jumpi\n      tag_141\n      tag_104\n      jump\t// in\n    tag_141:\n    tag_140:\n      swap1\n      0x00\n      mstore\n      keccak256(0x00, 0x20)\n      add\n        /* \"contracts/Database.sol\":3635:3664  string memory tmp = busNum[i] */\n      dup1\n      sload\n      tag_143\n      swap1\n      tag_97\n      jump\t// in\n    tag_143:\n      dup1\n      0x1f\n      add\n      0x20\n      dup1\n      swap2\n      div\n      mul\n      0x20\n      add\n      mload(0x40)\n      swap1\n      dup2\n      add\n      0x40\n      mstore\n      dup1\n      swap3\n      swap2\n      swap1\n      dup2\n      dup2\n      mstore\n      0x20\n      add\n      dup3\n      dup1\n      sload\n      tag_144\n      swap1\n      tag_97\n      jump\t// in\n    tag_144:\n      dup1\n      iszero\n      tag_145\n      jumpi\n      dup1\n      0x1f\n      lt\n      tag_146\n      jumpi\n      0x0100\n      dup1\n      dup4\n      sload\n      div\n      mul\n      dup4\n      mstore\n      swap2\n      0x20\n      add\n      swap2\n      jump(tag_145)\n    tag_146:\n      dup3\n      add\n      swap2\n      swap1\n      0x00\n      mstore\n      keccak256(0x00, 0x20)\n      swap1\n    tag_147:\n      dup2\n      sload\n      dup2\n      mstore\n      swap1\n      0x01\n      add\n      swap1\n      0x20\n      add\n      dup1\n      dup4\n      gt\n      tag_147\n      jumpi\n      dup3\n      swap1\n      sub\n      0x1f\n      and\n      dup3\n      add\n      swap2\n    tag_145:\n      pop\n      pop\n      pop\n      pop\n      pop\n      swap1\n      pop\n        /* \"contracts/Database.sol\":3681:3706  stringsEquals(tmp,BusNum) */\n      tag_148\n        /* \"contracts/Database.sol\":3695:3698  tmp */\n      dup2\n        /* \"contracts/Database.sol\":3699:3705  BusNum */\n      dup6\n        /* \"contracts/Database.sol\":3681:3694  stringsEquals */\n      tag_149\n        /* \"contracts/Database.sol\":3681:3706  stringsEquals(tmp,BusNum) */\n      jump\t// in\n    tag_148:\n        /* \"contracts/Database.sol\":3677:3787  if (stringsEquals(tmp,BusNum)) {... */\n      iszero\n      tag_150\n      jumpi\n        /* \"contracts/Database.sol\":3732:3738  busNum */\n      0x03\n        /* \"contracts/Database.sol\":3739:3740  i */\n      dup3\n        /* \"contracts/Database.sol\":3732:3741  busNum[i] */\n      dup2\n      sload\n      dup2\n      lt\n      tag_151\n      jumpi\n      tag_152\n      tag_104\n      jump\t// in\n    tag_152:\n    tag_151:\n      swap1\n      0x00\n      mstore\n      keccak256(0x00, 0x20)\n      add\n      0x00\n        /* \"contracts/Database.sol\":3725:3741  delete busNum[i] */\n      tag_154\n      swap2\n      swap1\n      tag_134\n      jump\t// in\n    tag_154:\n        /* \"contracts/Database.sol\":3765:3770  buses */\n      0x01\n        /* \"contracts/Database.sol\":3771:3772  i */\n      dup3\n        /* \"contracts/Database.sol\":3765:3773  buses[i] */\n      dup2\n      sload\n      dup2\n      lt\n      tag_155\n      jumpi\n      tag_156\n      tag_104\n      jump\t// in\n    tag_156:\n    tag_155:\n      swap1\n      0x00\n      mstore\n      keccak256(0x00, 0x20)\n      add\n      0x00\n        /* \"contracts/Database.sol\":3758:3773  delete buses[i] */\n      0x0100\n      exp\n      dup2\n      sload\n      swap1\n      0xffffffffffffffffffffffffffffffffffffffff\n      mul\n      not\n      and\n      swap1\n      sstore\n        /* \"contracts/Database.sol\":3677:3787  if (stringsEquals(tmp,BusNum)) {... */\n    tag_150:\n        /* \"contracts/Database.sol\":3622:3796  {... */\n      pop\n        /* \"contracts/Database.sol\":3617:3620  i++ */\n      dup1\n      dup1\n      tag_158\n      swap1\n      tag_159\n      jump\t// in\n    tag_158:\n      swap2\n      pop\n      pop\n        /* \"contracts/Database.sol\":3586:3796  for(uint i=0; i<busNum.length; i++) {... */\n      jump(tag_137)\n    tag_138:\n      pop\n        /* \"contracts/Database.sol\":3804:3827  return \"Delete success\" */\n      mload(0x40)\n      dup1\n      0x40\n      add\n      0x40\n      mstore\n      dup1\n      0x0e\n      dup2\n      mstore\n      0x20\n      add\n      0x44656c6574652073756363657373000000000000000000000000000000000000\n      dup2\n      mstore\n      pop\n      swap1\n      pop\n        /* \"contracts/Database.sol\":3302:3876  function deleteBus(string memory BusNum) public returns(string memory){... */\n      swap2\n      swap1\n      pop\n      jump\t// out\n        /* \"contracts/Database.sol\":1520:1781  function getStudent(uint studentNum) public view returns (address, string memory) {... */\n    tag_48:\n        /* \"contracts/Database.sol\":1578:1585  address */\n      0x00\n        /* \"contracts/Database.sol\":1587:1600  string memory */\n      0x60\n        /* \"contracts/Database.sol\":1613:1628  address student */\n      0x00\n        /* \"contracts/Database.sol\":1631:1640  StudentDB */\n      0x06\n        /* \"contracts/Database.sol\":1631:1652  StudentDB[studentNum] */\n      0x00\n        /* \"contracts/Database.sol\":1641:1651  studentNum */\n      dup6\n        /* \"contracts/Database.sol\":1631:1652  StudentDB[studentNum] */\n      dup2\n      mstore\n      0x20\n      add\n      swap1\n      dup2\n      mstore\n      0x20\n      add\n      0x00\n      keccak256\n        /* \"contracts/Database.sol\":1631:1660  StudentDB[studentNum].student */\n      0x01\n      add\n      0x00\n      swap1\n      sload\n      swap1\n      0x0100\n      exp\n      swap1\n      div\n      0xffffffffffffffffffffffffffffffffffffffff\n      and\n        /* \"contracts/Database.sol\":1613:1660  address student = StudentDB[studentNum].student */\n      swap1\n      pop\n        /* \"contracts/Database.sol\":1671:1697  string memory student_name */\n      0x00\n        /* \"contracts/Database.sol\":1700:1709  StudentDB */\n      0x06\n        /* \"contracts/Database.sol\":1700:1721  StudentDB[studentNum] */\n      0x00\n        /* \"contracts/Database.sol\":1710:1720  studentNum */\n      dup7\n        /* \"contracts/Database.sol\":1700:1721  StudentDB[studentNum] */\n      dup2\n      mstore\n      0x20\n      add\n      swap1\n      dup2\n      mstore\n      0x20\n      add\n      0x00\n      keccak256\n        /* \"contracts/Database.sol\":1700:1734  StudentDB[studentNum].student_name */\n      0x00\n      add\n        /* \"contracts/Database.sol\":1671:1734  string memory student_name = StudentDB[studentNum].student_name */\n      dup1\n      sload\n      tag_161\n      swap1\n      tag_97\n      jump\t// in\n    tag_161:\n      dup1\n      0x1f\n      add\n      0x20\n      dup1\n      swap2\n      div\n      mul\n      0x20\n      add\n      mload(0x40)\n      swap1\n      dup2\n      add\n      0x40\n      mstore\n      dup1\n      swap3\n      swap2\n      swap1\n      dup2\n      dup2\n      mstore\n      0x20\n      add\n      dup3\n      dup1\n      sload\n      tag_162\n      swap1\n      tag_97\n      jump\t// in\n    tag_162:\n      dup1\n      iszero\n      tag_163\n      jumpi\n      dup1\n      0x1f\n      lt\n      tag_164\n      jumpi\n      0x0100\n      dup1\n      dup4\n      sload\n      div\n      mul\n      dup4\n      mstore\n      swap2\n      0x20\n      add\n      swap2\n      jump(tag_163)\n    tag_164:\n      dup3\n      add\n      swap2\n      swap1\n      0x00\n      mstore\n      keccak256(0x00, 0x20)\n      swap1\n    tag_165:\n      dup2\n      sload\n      dup2\n      mstore\n      swap1\n      0x01\n      add\n      swap1\n      0x20\n      add\n      dup1\n      dup4\n      gt\n      tag_165\n      jumpi\n      dup3\n      swap1\n      sub\n      0x1f\n      and\n      dup3\n      add\n      swap2\n    tag_163:\n      pop\n      pop\n      pop\n      pop\n      pop\n      swap1\n      pop\n        /* \"contracts/Database.sol\":1752:1759  student */\n      dup2\n        /* \"contracts/Database.sol\":1761:1773  student_name */\n      dup2\n        /* \"contracts/Database.sol\":1745:1774  return(student, student_name) */\n      swap4\n      pop\n      swap4\n      pop\n      pop\n      pop\n        /* \"contracts/Database.sol\":1520:1781  function getStudent(uint studentNum) public view returns (address, string memory) {... */\n      swap2\n      pop\n      swap2\n      jump\t// out\n        /* \"contracts/Database.sol\":2069:2162  function getAllBus() public view returns (address[] memory)... */\n    tag_52:\n        /* \"contracts/Database.sol\":2111:2127  address[] memory */\n      0x60\n        /* \"contracts/Database.sol\":2150:2155  buses */\n      0x01\n        /* \"contracts/Database.sol\":2143:2155  return buses */\n      dup1\n      sload\n      dup1\n      0x20\n      mul\n      0x20\n      add\n      mload(0x40)\n      swap1\n      dup2\n      add\n      0x40\n      mstore\n      dup1\n      swap3\n      swap2\n      swap1\n      dup2\n      dup2\n      mstore\n      0x20\n      add\n      dup3\n      dup1\n      sload\n      dup1\n      iszero\n      tag_167\n      jumpi\n      0x20\n      mul\n      dup3\n      add\n      swap2\n      swap1\n      0x00\n      mstore\n      keccak256(0x00, 0x20)\n      swap1\n    tag_168:\n      dup2\n      0x00\n      swap1\n      sload\n      swap1\n      0x0100\n      exp\n      swap1\n      div\n      0xffffffffffffffffffffffffffffffffffffffff\n      and\n      0xffffffffffffffffffffffffffffffffffffffff\n      and\n      dup2\n      mstore\n      0x20\n      add\n      swap1\n      0x01\n      add\n      swap1\n      dup1\n      dup4\n      gt\n      tag_168\n      jumpi\n    tag_167:\n      pop\n      pop\n      pop\n      pop\n      pop\n      swap1\n      pop\n        /* \"contracts/Database.sol\":2069:2162  function getAllBus() public view returns (address[] memory)... */\n      swap1\n      jump\t// out\n        /* \"contracts/Database.sol\":2258:2640  function getBus(string memory busNum) public view returns (address, string memory, uint, uint[45] memory) {... */\n    tag_56:\n        /* \"contracts/Database.sol\":2317:2324  address */\n      0x00\n        /* \"contracts/Database.sol\":2326:2339  string memory */\n      0x60\n        /* \"contracts/Database.sol\":2341:2345  uint */\n      0x00\n        /* \"contracts/Database.sol\":2347:2362  uint[45] memory */\n      tag_169\n      tag_80\n      jump\t// in\n    tag_169:\n        /* \"contracts/Database.sol\":2375:2386  address Bus */\n      0x00\n        /* \"contracts/Database.sol\":2389:2394  BusDB */\n      0x05\n        /* \"contracts/Database.sol\":2395:2401  busNum */\n      dup7\n        /* \"contracts/Database.sol\":2389:2402  BusDB[busNum] */\n      mload(0x40)\n      tag_171\n      swap2\n      swap1\n      tag_87\n      jump\t// in\n    tag_171:\n      swap1\n      dup2\n      mstore\n      0x20\n      add\n      mload(0x40)\n      dup1\n      swap2\n      sub\n      swap1\n      keccak256\n        /* \"contracts/Database.sol\":2389:2406  BusDB[busNum].bus */\n      0x00\n      add\n      0x00\n      swap1\n      sload\n      swap1\n      0x0100\n      exp\n      swap1\n      div\n      0xffffffffffffffffffffffffffffffffffffffff\n      and\n        /* \"contracts/Database.sol\":2375:2406  address Bus = BusDB[busNum].bus */\n      swap1\n      pop\n        /* \"contracts/Database.sol\":2417:2442  string memory destination */\n      0x00\n        /* \"contracts/Database.sol\":2445:2450  BusDB */\n      0x05\n        /* \"contracts/Database.sol\":2451:2457  busNum */\n      dup8\n        /* \"contracts/Database.sol\":2445:2458  BusDB[busNum] */\n      mload(0x40)\n      tag_172\n      swap2\n      swap1\n      tag_87\n      jump\t// in\n    tag_172:\n      swap1\n      dup2\n      mstore\n      0x20\n      add\n      mload(0x40)\n      dup1\n      swap2\n      sub\n      swap1\n      keccak256\n        /* \"contracts/Database.sol\":2445:2470  BusDB[busNum].destination */\n      0x01\n      add\n        /* \"contracts/Database.sol\":2417:2470  string memory destination = BusDB[busNum].destination */\n      dup1\n      sload\n      tag_173\n      swap1\n      tag_97\n      jump\t// in\n    tag_173:\n      dup1\n      0x1f\n      add\n      0x20\n      dup1\n      swap2\n      div\n      mul\n      0x20\n      add\n      mload(0x40)\n      swap1\n      dup2\n      add\n      0x40\n      mstore\n      dup1\n      swap3\n      swap2\n      swap1\n      dup2\n      dup2\n      mstore\n      0x20\n      add\n      dup3\n      dup1\n      sload\n      tag_174\n      swap1\n      tag_97\n      jump\t// in\n    tag_174:\n      dup1\n      iszero\n      tag_175\n      jumpi\n      dup1\n      0x1f\n      lt\n      tag_176\n      jumpi\n      0x0100\n      dup1\n      dup4\n      sload\n      div\n      mul\n      dup4\n      mstore\n      swap2\n      0x20\n      add\n      swap2\n      jump(tag_175)\n    tag_176:\n      dup3\n      add\n      swap2\n      swap1\n      0x00\n      mstore\n      keccak256(0x00, 0x20)\n      swap1\n    tag_177:\n      dup2\n      sload\n      dup2\n      mstore\n      swap1\n      0x01\n      add\n      swap1\n      0x20\n      add\n      dup1\n      dup4\n      gt\n      tag_177\n      jumpi\n      dup3\n      swap1\n      sub\n      0x1f\n      and\n      dup3\n      add\n      swap2\n    tag_175:\n      pop\n      pop\n      pop\n      pop\n      pop\n      swap1\n      pop\n        /* \"contracts/Database.sol\":2481:2496  uint start_time */\n      0x00\n        /* \"contracts/Database.sol\":2497:2502  BusDB */\n      0x05\n        /* \"contracts/Database.sol\":2503:2509  busNum */\n      dup9\n        /* \"contracts/Database.sol\":2497:2510  BusDB[busNum] */\n      mload(0x40)\n      tag_178\n      swap2\n      swap1\n      tag_87\n      jump\t// in\n    tag_178:\n      swap1\n      dup2\n      mstore\n      0x20\n      add\n      mload(0x40)\n      dup1\n      swap2\n      sub\n      swap1\n      keccak256\n        /* \"contracts/Database.sol\":2497:2521  BusDB[busNum].start_time */\n      0x02\n      add\n      sload\n        /* \"contracts/Database.sol\":2481:2521  uint start_time=BusDB[busNum].start_time */\n      swap1\n      pop\n        /* \"contracts/Database.sol\":2532:2552  uint[45] memory Seat */\n      0x00\n        /* \"contracts/Database.sol\":2555:2560  BusDB */\n      0x05\n        /* \"contracts/Database.sol\":2561:2567  busNum */\n      dup10\n        /* \"contracts/Database.sol\":2555:2568  BusDB[busNum] */\n      mload(0x40)\n      tag_179\n      swap2\n      swap1\n      tag_87\n      jump\t// in\n    tag_179:\n      swap1\n      dup2\n      mstore\n      0x20\n      add\n      mload(0x40)\n      dup1\n      swap2\n      sub\n      swap1\n      keccak256\n        /* \"contracts/Database.sol\":2555:2580  BusDB[busNum].Seat_number */\n      0x03\n      add\n        /* \"contracts/Database.sol\":2532:2580  uint[45] memory Seat = BusDB[busNum].Seat_number */\n      0x2d\n      dup1\n      0x20\n      mul\n      mload(0x40)\n      swap1\n      dup2\n      add\n      0x40\n      mstore\n      dup1\n      swap3\n      swap2\n      swap1\n      dup3\n      0x2d\n      dup1\n      iszero\n      tag_180\n      jumpi\n      0x20\n      mul\n      dup3\n      add\n      swap2\n    tag_181:\n      dup2\n      sload\n      dup2\n      mstore\n      0x20\n      add\n      swap1\n      0x01\n      add\n      swap1\n      dup1\n      dup4\n      gt\n      tag_181\n      jumpi\n    tag_180:\n      pop\n      pop\n      pop\n      pop\n      pop\n      swap1\n      pop\n        /* \"contracts/Database.sol\":2598:2601  Bus */\n      dup4\n        /* \"contracts/Database.sol\":2603:2614  destination */\n      dup4\n        /* \"contracts/Database.sol\":2616:2626  start_time */\n      dup4\n        /* \"contracts/Database.sol\":2628:2632  Seat */\n      dup4\n        /* \"contracts/Database.sol\":2591:2633  return(Bus, destination, start_time, Seat) */\n      swap8\n      pop\n      swap8\n      pop\n      swap8\n      pop\n      swap8\n      pop\n      pop\n      pop\n      pop\n      pop\n        /* \"contracts/Database.sol\":2258:2640  function getBus(string memory busNum) public view returns (address, string memory, uint, uint[45] memory) {... */\n      swap2\n      swap4\n      pop\n      swap2\n      swap4\n      jump\t// out\n        /* \"contracts/Database.sol\":2686:3254  function deleteStudent(uint student_Num) public returns(string memory){... */\n    tag_61:\n        /* \"contracts/Database.sol\":2742:2755  string memory */\n      0x60\n        /* \"contracts/Database.sol\":2826:2827  0 */\n      0x00\n        /* \"contracts/Database.sol\":2779:2788  StudentDB */\n      0x06\n        /* \"contracts/Database.sol\":2779:2801  StudentDB[student_Num] */\n      0x00\n        /* \"contracts/Database.sol\":2789:2800  student_Num */\n      dup5\n        /* \"contracts/Database.sol\":2779:2801  StudentDB[student_Num] */\n      dup2\n      mstore\n      0x20\n      add\n      swap1\n      dup2\n      mstore\n      0x20\n      add\n      0x00\n      keccak256\n        /* \"contracts/Database.sol\":2779:2814  StudentDB[student_Num].student_name */\n      0x00\n      add\n        /* \"contracts/Database.sol\":2773:2822  bytes(StudentDB[student_Num].student_name).length */\n      dup1\n      sload\n      tag_183\n      swap1\n      tag_97\n      jump\t// in\n    tag_183:\n      swap1\n      pop\n        /* \"contracts/Database.sol\":2773:2827  bytes(StudentDB[student_Num].student_name).length != 0 */\n      eq\n      iszero\n        /* \"contracts/Database.sol\":2765:2851  require(bytes(StudentDB[student_Num].student_name).length != 0, \"There is no Student\") */\n      tag_184\n      jumpi\n      mload(0x40)\n      0x08c379a000000000000000000000000000000000000000000000000000000000\n      dup2\n      mstore\n      0x04\n      add\n      tag_185\n      swap1\n      tag_186\n      jump\t// in\n    tag_185:\n      mload(0x40)\n      dup1\n      swap2\n      sub\n      swap1\n      revert\n    tag_184:\n        /* \"contracts/Database.sol\":2928:2937  StudentDB */\n      0x06\n        /* \"contracts/Database.sol\":2928:2950  StudentDB[student_Num] */\n      0x00\n        /* \"contracts/Database.sol\":2938:2949  student_Num */\n      dup4\n        /* \"contracts/Database.sol\":2928:2950  StudentDB[student_Num] */\n      dup2\n      mstore\n      0x20\n      add\n      swap1\n      dup2\n      mstore\n      0x20\n      add\n      0x00\n      keccak256\n      0x00\n        /* \"contracts/Database.sol\":2921:2950  delete StudentDB[student_Num] */\n      dup1\n      dup3\n      add\n      0x00\n      tag_187\n      swap2\n      swap1\n      tag_134\n      jump\t// in\n    tag_187:\n      0x01\n      dup3\n      add\n      exp(0x0100, 0x00)\n      dup2\n      sload\n      swap1\n      0xffffffffffffffffffffffffffffffffffffffff\n      mul\n      not\n      and\n      swap1\n      sstore\n      pop\n      pop\n        /* \"contracts/Database.sol\":2998:3004  uint i */\n      0x00\n        /* \"contracts/Database.sol\":2994:3174  for(uint i=0; i<studentNum.length; i++) {... */\n    tag_188:\n        /* \"contracts/Database.sol\":3010:3020  studentNum */\n      0x04\n        /* \"contracts/Database.sol\":3010:3027  studentNum.length */\n      dup1\n      sload\n      swap1\n      pop\n        /* \"contracts/Database.sol\":3008:3009  i */\n      dup2\n        /* \"contracts/Database.sol\":3008:3027  i<studentNum.length */\n      lt\n        /* \"contracts/Database.sol\":2994:3174  for(uint i=0; i<studentNum.length; i++) {... */\n      iszero\n      tag_189\n      jumpi\n        /* \"contracts/Database.sol\":3066:3077  student_Num */\n      dup3\n        /* \"contracts/Database.sol\":3051:3061  studentNum */\n      0x04\n        /* \"contracts/Database.sol\":3062:3063  i */\n      dup3\n        /* \"contracts/Database.sol\":3051:3064  studentNum[i] */\n      dup2\n      sload\n      dup2\n      lt\n      tag_191\n      jumpi\n      tag_192\n      tag_104\n      jump\t// in\n    tag_192:\n    tag_191:\n      swap1\n      0x00\n      mstore\n      keccak256(0x00, 0x20)\n      add\n      sload\n        /* \"contracts/Database.sol\":3051:3077  studentNum[i]==student_Num */\n      eq\n        /* \"contracts/Database.sol\":3047:3165  if (studentNum[i]==student_Num) {... */\n      iszero\n      tag_194\n      jumpi\n        /* \"contracts/Database.sol\":3103:3113  studentNum */\n      0x04\n        /* \"contracts/Database.sol\":3114:3115  i */\n      dup2\n        /* \"contracts/Database.sol\":3103:3116  studentNum[i] */\n      dup2\n      sload\n      dup2\n      lt\n      tag_195\n      jumpi\n      tag_196\n      tag_104\n      jump\t// in\n    tag_196:\n    tag_195:\n      swap1\n      0x00\n      mstore\n      keccak256(0x00, 0x20)\n      add\n        /* \"contracts/Database.sol\":3096:3116  delete studentNum[i] */\n      0x00\n      swap1\n      sstore\n        /* \"contracts/Database.sol\":3140:3148  students */\n      0x02\n        /* \"contracts/Database.sol\":3149:3150  i */\n      dup2\n        /* \"contracts/Database.sol\":3140:3151  students[i] */\n      dup2\n      sload\n      dup2\n      lt\n      tag_198\n      jumpi\n      tag_199\n      tag_104\n      jump\t// in\n    tag_199:\n    tag_198:\n      swap1\n      0x00\n      mstore\n      keccak256(0x00, 0x20)\n      add\n      0x00\n        /* \"contracts/Database.sol\":3133:3151  delete students[i] */\n      0x0100\n      exp\n      dup2\n      sload\n      swap1\n      0xffffffffffffffffffffffffffffffffffffffff\n      mul\n      not\n      and\n      swap1\n      sstore\n        /* \"contracts/Database.sol\":3047:3165  if (studentNum[i]==student_Num) {... */\n    tag_194:\n        /* \"contracts/Database.sol\":3029:3032  i++ */\n      dup1\n      dup1\n      tag_201\n      swap1\n      tag_159\n      jump\t// in\n    tag_201:\n      swap2\n      pop\n      pop\n        /* \"contracts/Database.sol\":2994:3174  for(uint i=0; i<studentNum.length; i++) {... */\n      jump(tag_188)\n    tag_189:\n      pop\n        /* \"contracts/Database.sol\":3182:3205  return \"Delete success\" */\n      mload(0x40)\n      dup1\n      0x40\n      add\n      0x40\n      mstore\n      dup1\n      0x0e\n      dup2\n      mstore\n      0x20\n      add\n      0x44656c6574652073756363657373000000000000000000000000000000000000\n      dup2\n      mstore\n      pop\n      swap1\n      pop\n        /* \"contracts/Database.sol\":2686:3254  function deleteStudent(uint student_Num) public returns(string memory){... */\n      swap2\n      swap1\n      pop\n      jump\t// out\n        /* \"contracts/Database.sol\":4984:5335  function Resetbus(address _bus) public returns (address, uint[45] memory){... */\n    tag_66:\n        /* \"contracts/Database.sol\":5032:5039  address */\n      0x00\n        /* \"contracts/Database.sol\":5041:5056  uint[45] memory */\n      tag_202\n      tag_80\n      jump\t// in\n    tag_202:\n        /* \"contracts/Database.sol\":5074:5080  uint i */\n      0x00\n        /* \"contracts/Database.sol\":5069:5329  for (uint i=0; i<busNum.length; i++)... */\n    tag_204:\n        /* \"contracts/Database.sol\":5086:5092  busNum */\n      0x03\n        /* \"contracts/Database.sol\":5086:5099  busNum.length */\n      dup1\n      sload\n      swap1\n      pop\n        /* \"contracts/Database.sol\":5084:5085  i */\n      dup2\n        /* \"contracts/Database.sol\":5084:5099  i<busNum.length */\n      lt\n        /* \"contracts/Database.sol\":5069:5329  for (uint i=0; i<busNum.length; i++)... */\n      iszero\n      tag_205\n      jumpi\n        /* \"contracts/Database.sol\":5156:5160  _bus */\n      dup4\n        /* \"contracts/Database.sol\":5132:5160  BusDB[busNum[i]].bus == _bus */\n      0xffffffffffffffffffffffffffffffffffffffff\n      and\n        /* \"contracts/Database.sol\":5132:5137  BusDB */\n      0x05\n        /* \"contracts/Database.sol\":5138:5144  busNum */\n      0x03\n        /* \"contracts/Database.sol\":5145:5146  i */\n      dup4\n        /* \"contracts/Database.sol\":5138:5147  busNum[i] */\n      dup2\n      sload\n      dup2\n      lt\n      tag_207\n      jumpi\n      tag_208\n      tag_104\n      jump\t// in\n    tag_208:\n    tag_207:\n      swap1\n      0x00\n      mstore\n      keccak256(0x00, 0x20)\n      add\n        /* \"contracts/Database.sol\":5132:5148  BusDB[busNum[i]] */\n      mload(0x40)\n      tag_210\n      swap2\n      swap1\n      tag_211\n      jump\t// in\n    tag_210:\n      swap1\n      dup2\n      mstore\n      0x20\n      add\n      mload(0x40)\n      dup1\n      swap2\n      sub\n      swap1\n      keccak256\n        /* \"contracts/Database.sol\":5132:5152  BusDB[busNum[i]].bus */\n      0x00\n      add\n      0x00\n      swap1\n      sload\n      swap1\n      0x0100\n      exp\n      swap1\n      div\n      0xffffffffffffffffffffffffffffffffffffffff\n      and\n        /* \"contracts/Database.sol\":5132:5160  BusDB[busNum[i]].bus == _bus */\n      0xffffffffffffffffffffffffffffffffffffffff\n      and\n      eq\n        /* \"contracts/Database.sol\":5128:5319  if (BusDB[busNum[i]].bus == _bus)... */\n      iszero\n      tag_212\n      jumpi\n        /* \"contracts/Database.sol\":5199:5204  BusDB */\n      0x05\n        /* \"contracts/Database.sol\":5205:5211  busNum */\n      0x03\n        /* \"contracts/Database.sol\":5212:5213  i */\n      dup3\n        /* \"contracts/Database.sol\":5205:5214  busNum[i] */\n      dup2\n      sload\n      dup2\n      lt\n      tag_213\n      jumpi\n      tag_214\n      tag_104\n      jump\t// in\n    tag_214:\n    tag_213:\n      swap1\n      0x00\n      mstore\n      keccak256(0x00, 0x20)\n      add\n        /* \"contracts/Database.sol\":5199:5215  BusDB[busNum[i]] */\n      mload(0x40)\n      tag_216\n      swap2\n      swap1\n      tag_211\n      jump\t// in\n    tag_216:\n      swap1\n      dup2\n      mstore\n      0x20\n      add\n      mload(0x40)\n      dup1\n      swap2\n      sub\n      swap1\n      keccak256\n        /* \"contracts/Database.sol\":5199:5227  BusDB[busNum[i]].Seat_number */\n      0x03\n      add\n      0x00\n        /* \"contracts/Database.sol\":5192:5227  delete BusDB[busNum[i]].Seat_number */\n      tag_217\n      swap2\n      swap1\n      tag_136\n      jump\t// in\n    tag_217:\n        /* \"contracts/Database.sol\":5253:5258  BusDB */\n      0x05\n        /* \"contracts/Database.sol\":5259:5265  busNum */\n      0x03\n        /* \"contracts/Database.sol\":5266:5267  i */\n      dup3\n        /* \"contracts/Database.sol\":5259:5268  busNum[i] */\n      dup2\n      sload\n      dup2\n      lt\n      tag_218\n      jumpi\n      tag_219\n      tag_104\n      jump\t// in\n    tag_219:\n    tag_218:\n      swap1\n      0x00\n      mstore\n      keccak256(0x00, 0x20)\n      add\n        /* \"contracts/Database.sol\":5253:5269  BusDB[busNum[i]] */\n      mload(0x40)\n      tag_221\n      swap2\n      swap1\n      tag_211\n      jump\t// in\n    tag_221:\n      swap1\n      dup2\n      mstore\n      0x20\n      add\n      mload(0x40)\n      dup1\n      swap2\n      sub\n      swap1\n      keccak256\n        /* \"contracts/Database.sol\":5253:5273  BusDB[busNum[i]].bus */\n      0x00\n      add\n      0x00\n      swap1\n      sload\n      swap1\n      0x0100\n      exp\n      swap1\n      div\n      0xffffffffffffffffffffffffffffffffffffffff\n      and\n        /* \"contracts/Database.sol\":5275:5280  BusDB */\n      0x05\n        /* \"contracts/Database.sol\":5281:5287  busNum */\n      0x03\n        /* \"contracts/Database.sol\":5288:5289  i */\n      dup4\n        /* \"contracts/Database.sol\":5281:5290  busNum[i] */\n      dup2\n      sload\n      dup2\n      lt\n      tag_222\n      jumpi\n      tag_223\n      tag_104\n      jump\t// in\n    tag_223:\n    tag_222:\n      swap1\n      0x00\n      mstore\n      keccak256(0x00, 0x20)\n      add\n        /* \"contracts/Database.sol\":5275:5291  BusDB[busNum[i]] */\n      mload(0x40)\n      tag_225\n      swap2\n      swap1\n      tag_211\n      jump\t// in\n    tag_225:\n      swap1\n      dup2\n      mstore\n      0x20\n      add\n      mload(0x40)\n      dup1\n      swap2\n      sub\n      swap1\n      keccak256\n        /* \"contracts/Database.sol\":5275:5303  BusDB[busNum[i]].Seat_number */\n      0x03\n      add\n        /* \"contracts/Database.sol\":5245:5304  return (BusDB[busNum[i]].bus, BusDB[busNum[i]].Seat_number) */\n      dup1\n      0x2d\n      dup1\n      0x20\n      mul\n      mload(0x40)\n      swap1\n      dup2\n      add\n      0x40\n      mstore\n      dup1\n      swap3\n      swap2\n      swap1\n      dup3\n      0x2d\n      dup1\n      iszero\n      tag_226\n      jumpi\n      0x20\n      mul\n      dup3\n      add\n      swap2\n    tag_227:\n      dup2\n      sload\n      dup2\n      mstore\n      0x20\n      add\n      swap1\n      0x01\n      add\n      swap1\n      dup1\n      dup4\n      gt\n      tag_227\n      jumpi\n    tag_226:\n      pop\n      pop\n      pop\n      pop\n      pop\n      swap1\n      pop\n      swap3\n      pop\n      swap3\n      pop\n      pop\n      jump(tag_203)\n        /* \"contracts/Database.sol\":5128:5319  if (BusDB[busNum[i]].bus == _bus)... */\n    tag_212:\n        /* \"contracts/Database.sol\":5101:5104  i++ */\n      dup1\n      dup1\n      tag_228\n      swap1\n      tag_159\n      jump\t// in\n    tag_228:\n      swap2\n      pop\n      pop\n        /* \"contracts/Database.sol\":5069:5329  for (uint i=0; i<busNum.length; i++)... */\n      jump(tag_204)\n    tag_205:\n      pop\n        /* \"contracts/Database.sol\":4984:5335  function Resetbus(address _bus) public returns (address, uint[45] memory){... */\n    tag_203:\n      swap2\n      pop\n      swap2\n      jump\t// out\n        /* \"contracts/Database.sol\":1182:1346  function getStudentAdress(uint studentNum) public view returns (address) {... */\n    tag_71:\n        /* \"contracts/Database.sol\":1246:1253  address */\n      0x00\n        /* \"contracts/Database.sol\":1266:1281  address student */\n      dup1\n        /* \"contracts/Database.sol\":1284:1293  StudentDB */\n      0x06\n        /* \"contracts/Database.sol\":1284:1305  StudentDB[studentNum] */\n      0x00\n        /* \"contracts/Database.sol\":1294:1304  studentNum */\n      dup5\n        /* \"contracts/Database.sol\":1284:1305  StudentDB[studentNum] */\n      dup2\n      mstore\n      0x20\n      add\n      swap1\n      dup2\n      mstore\n      0x20\n      add\n      0x00\n      keccak256\n        /* \"contracts/Database.sol\":1284:1313  StudentDB[studentNum].student */\n      0x01\n      add\n      0x00\n      swap1\n      sload\n      swap1\n      0x0100\n      exp\n      swap1\n      div\n      0xffffffffffffffffffffffffffffffffffffffff\n      and\n        /* \"contracts/Database.sol\":1266:1313  address student = StudentDB[studentNum].student */\n      swap1\n      pop\n        /* \"contracts/Database.sol\":1331:1338  student */\n      dup1\n        /* \"contracts/Database.sol\":1324:1339  return(student) */\n      swap2\n      pop\n      pop\n        /* \"contracts/Database.sol\":1182:1346  function getStudentAdress(uint studentNum) public view returns (address) {... */\n      swap2\n      swap1\n      pop\n      jump\t// out\n        /* \"contracts/Database.sol\":895:1124  function addStudent(address student, string memory student_name, uint studentnum) public {... */\n    tag_77:\n        /* \"contracts/Database.sol\":993:1003  studentNum */\n      0x04\n        /* \"contracts/Database.sol\":1009:1019  studentnum */\n      dup2\n        /* \"contracts/Database.sol\":993:1020  studentNum.push(studentnum) */\n      swap1\n      dup1\n      0x01\n      dup2\n      sload\n      add\n      dup1\n      dup3\n      sstore\n      dup1\n      swap2\n      pop\n      pop\n      0x01\n      swap1\n      sub\n      swap1\n      0x00\n      mstore\n      keccak256(0x00, 0x20)\n      add\n      0x00\n      swap1\n      swap2\n      swap1\n      swap2\n      swap1\n      swap2\n      pop\n      sstore\n        /* \"contracts/Database.sol\":1029:1037  students */\n      0x02\n        /* \"contracts/Database.sol\":1043:1050  student */\n      dup4\n        /* \"contracts/Database.sol\":1029:1051  students.push(student) */\n      swap1\n      dup1\n      0x01\n      dup2\n      sload\n      add\n      dup1\n      dup3\n      sstore\n      dup1\n      swap2\n      pop\n      pop\n      0x01\n      swap1\n      sub\n      swap1\n      0x00\n      mstore\n      keccak256(0x00, 0x20)\n      add\n      0x00\n      swap1\n      swap2\n      swap1\n      swap2\n      swap1\n      swap2\n      0x0100\n      exp\n      dup2\n      sload\n      dup2\n      0xffffffffffffffffffffffffffffffffffffffff\n      mul\n      not\n      and\n      swap1\n      dup4\n      0xffffffffffffffffffffffffffffffffffffffff\n      and\n      mul\n      or\n      swap1\n      sstore\n      pop\n        /* \"contracts/Database.sol\":1084:1117  Student_DB(student_name, student) */\n      mload(0x40)\n      dup1\n      0x40\n      add\n      0x40\n      mstore\n      dup1\n        /* \"contracts/Database.sol\":1095:1107  student_name */\n      dup4\n        /* \"contracts/Database.sol\":1084:1117  Student_DB(student_name, student) */\n      dup2\n      mstore\n      0x20\n      add\n        /* \"contracts/Database.sol\":1109:1116  student */\n      dup5\n        /* \"contracts/Database.sol\":1084:1117  Student_DB(student_name, student) */\n      0xffffffffffffffffffffffffffffffffffffffff\n      and\n      dup2\n      mstore\n      pop\n        /* \"contracts/Database.sol\":1060:1069  StudentDB */\n      0x06\n        /* \"contracts/Database.sol\":1060:1081  StudentDB[studentnum] */\n      0x00\n        /* \"contracts/Database.sol\":1070:1080  studentnum */\n      dup4\n        /* \"contracts/Database.sol\":1060:1081  StudentDB[studentnum] */\n      dup2\n      mstore\n      0x20\n      add\n      swap1\n      dup2\n      mstore\n      0x20\n      add\n      0x00\n      keccak256\n        /* \"contracts/Database.sol\":1060:1117  StudentDB[studentnum] = Student_DB(student_name, student) */\n      0x00\n      dup3\n      add\n      mload\n      dup2\n      0x00\n      add\n      swap1\n      dup1\n      mload\n      swap1\n      0x20\n      add\n      swap1\n      tag_233\n      swap3\n      swap2\n      swap1\n      tag_85\n      jump\t// in\n    tag_233:\n      pop\n      0x20\n      dup3\n      add\n      mload\n      dup2\n      0x01\n      add\n      exp(0x0100, 0x00)\n      dup2\n      sload\n      dup2\n      0xffffffffffffffffffffffffffffffffffffffff\n      mul\n      not\n      and\n      swap1\n      dup4\n      0xffffffffffffffffffffffffffffffffffffffff\n      and\n      mul\n      or\n      swap1\n      sstore\n      pop\n      swap1\n      pop\n      pop\n        /* \"contracts/Database.sol\":895:1124  function addStudent(address student, string memory student_name, uint studentnum) public {... */\n      pop\n      pop\n      pop\n      jump\t// out\n        /* \"contracts/Database.sol\":3912:4283  function stringsEquals(string memory s1, string memory s2) private pure returns (bool) {... */\n    tag_149:\n        /* \"contracts/Database.sol\":3993:3997  bool */\n      0x00\n        /* \"contracts/Database.sol\":4009:4024  bytes memory b1 */\n      dup1\n        /* \"contracts/Database.sol\":4033:4035  s1 */\n      dup4\n        /* \"contracts/Database.sol\":4009:4036  bytes memory b1 = bytes(s1) */\n      swap1\n      pop\n        /* \"contracts/Database.sol\":4046:4061  bytes memory b2 */\n      0x00\n        /* \"contracts/Database.sol\":4070:4072  s2 */\n      dup4\n        /* \"contracts/Database.sol\":4046:4073  bytes memory b2 = bytes(s2) */\n      swap1\n      pop\n        /* \"contracts/Database.sol\":4083:4093  uint256 l1 */\n      0x00\n        /* \"contracts/Database.sol\":4096:4098  b1 */\n      dup3\n        /* \"contracts/Database.sol\":4096:4105  b1.length */\n      mload\n        /* \"contracts/Database.sol\":4083:4105  uint256 l1 = b1.length */\n      swap1\n      pop\n        /* \"contracts/Database.sol\":4125:4127  b2 */\n      dup2\n        /* \"contracts/Database.sol\":4125:4134  b2.length */\n      mload\n        /* \"contracts/Database.sol\":4119:4121  l1 */\n      dup2\n        /* \"contracts/Database.sol\":4119:4134  l1 != b2.length */\n      eq\n        /* \"contracts/Database.sol\":4115:4148  if (l1 != b2.length) return false */\n      tag_235\n      jumpi\n        /* \"contracts/Database.sol\":4143:4148  false */\n      0x00\n        /* \"contracts/Database.sol\":4136:4148  return false */\n      swap4\n      pop\n      pop\n      pop\n      pop\n      jump(tag_234)\n        /* \"contracts/Database.sol\":4115:4148  if (l1 != b2.length) return false */\n    tag_235:\n        /* \"contracts/Database.sol\":4167:4176  uint256 i */\n      0x00\n        /* \"contracts/Database.sol\":4162:4256  for (uint256 i=0; i<l1; i++) {... */\n    tag_236:\n        /* \"contracts/Database.sol\":4182:4184  l1 */\n      dup2\n        /* \"contracts/Database.sol\":4180:4181  i */\n      dup2\n        /* \"contracts/Database.sol\":4180:4184  i<l1 */\n      lt\n        /* \"contracts/Database.sol\":4162:4256  for (uint256 i=0; i<l1; i++) {... */\n      iszero\n      tag_237\n      jumpi\n        /* \"contracts/Database.sol\":4222:4224  b2 */\n      dup3\n        /* \"contracts/Database.sol\":4225:4226  i */\n      dup2\n        /* \"contracts/Database.sol\":4222:4227  b2[i] */\n      dup2\n      mload\n      dup2\n      lt\n      tag_239\n      jumpi\n      tag_240\n      tag_104\n      jump\t// in\n    tag_240:\n    tag_239:\n      0x20\n      add\n      add\n      mload\n      0xf8\n      shr\n      0xf8\n      shl\n        /* \"contracts/Database.sol\":4213:4227  b1[i] != b2[i] */\n      not(0xffffffffffffffffffffffffffffffffffffffffffffffffffffffffffffff)\n      and\n        /* \"contracts/Database.sol\":4213:4215  b1 */\n      dup5\n        /* \"contracts/Database.sol\":4216:4217  i */\n      dup3\n        /* \"contracts/Database.sol\":4213:4218  b1[i] */\n      dup2\n      mload\n      dup2\n      lt\n      tag_241\n      jumpi\n      tag_242\n      tag_104\n      jump\t// in\n    tag_242:\n    tag_241:\n      0x20\n      add\n      add\n      mload\n      0xf8\n      shr\n      0xf8\n      shl\n        /* \"contracts/Database.sol\":4213:4227  b1[i] != b2[i] */\n      not(0xffffffffffffffffffffffffffffffffffffffffffffffffffffffffffffff)\n      and\n      eq\n        /* \"contracts/Database.sol\":4209:4241  if (b1[i] != b2[i]) return false */\n      tag_243\n      jumpi\n        /* \"contracts/Database.sol\":4236:4241  false */\n      0x00\n        /* \"contracts/Database.sol\":4229:4241  return false */\n      swap5\n      pop\n      pop\n      pop\n      pop\n      pop\n      jump(tag_234)\n        /* \"contracts/Database.sol\":4209:4241  if (b1[i] != b2[i]) return false */\n    tag_243:\n        /* \"contracts/Database.sol\":4186:4189  i++ */\n      dup1\n      dup1\n      tag_244\n      swap1\n      tag_159\n      jump\t// in\n    tag_244:\n      swap2\n      pop\n      pop\n        /* \"contracts/Database.sol\":4162:4256  for (uint256 i=0; i<l1; i++) {... */\n      jump(tag_236)\n    tag_237:\n      pop\n        /* \"contracts/Database.sol\":4272:4276  true */\n      0x01\n        /* \"contracts/Database.sol\":4265:4276  return true */\n      swap4\n      pop\n      pop\n      pop\n      pop\n        /* \"contracts/Database.sol\":3912:4283  function stringsEquals(string memory s1, string memory s2) private pure returns (bool) {... */\n    tag_234:\n      swap3\n      swap2\n      pop\n      pop\n      jump\t// out\n    tag_80:\n      mload(0x40)\n      dup1\n      0x05a0\n      add\n      0x40\n      mstore\n      dup1\n      0x2d\n      swap1\n      0x20\n      dup3\n      mul\n      dup1\n      calldatasize\n      dup4\n      calldatacopy\n      dup1\n      dup3\n      add\n      swap2\n      pop\n      pop\n      swap1\n      pop\n      pop\n      swap1\n      jump\t// out\n    tag_85:\n      dup3\n      dup1\n      sload\n      tag_245\n      swap1\n      tag_97\n      jump\t// in\n    tag_245:\n      swap1\n      0x00\n      mstore\n      keccak256(0x00, 0x20)\n      swap1\n      0x1f\n      add\n      0x20\n      swap1\n      div\n      dup2\n      add\n      swap3\n      dup3\n      tag_247\n      jumpi\n      0x00\n      dup6\n      sstore\n      jump(tag_246)\n    tag_247:\n      dup3\n      0x1f\n      lt\n      tag_248\n      jumpi\n      dup1\n      mload\n      not(0xff)\n      and\n      dup4\n      dup1\n      add\n      or\n      dup6\n      sstore\n      jump(tag_246)\n    tag_248:\n      dup3\n      dup1\n      add\n      0x01\n      add\n      dup6\n      sstore\n      dup3\n      iszero\n      tag_246\n      jumpi\n      swap2\n      dup3\n      add\n    tag_249:\n      dup3\n      dup2\n      gt\n      iszero\n      tag_250\n      jumpi\n      dup3\n      mload\n      dup3\n      sstore\n      swap2\n      0x20\n      add\n      swap2\n      swap1\n      0x01\n      add\n      swap1\n      jump(tag_249)\n    tag_250:\n    tag_246:\n      pop\n      swap1\n      pop\n      tag_251\n      swap2\n      swap1\n      tag_252\n      jump\t// in\n    tag_251:\n      pop\n      swap1\n      jump\t// out\n    tag_90:\n      dup3\n      0x2d\n      dup2\n      add\n      swap3\n      dup3\n      iszero\n      tag_253\n      jumpi\n      swap2\n      0x20\n      mul\n      dup3\n      add\n    tag_254:\n      dup3\n      dup2\n      gt\n      iszero\n      tag_255\n      jumpi\n      dup3\n      mload\n      dup3\n      sstore\n      swap2\n      0x20\n      add\n      swap2\n      swap1\n      0x01\n      add\n      swap1\n      jump(tag_254)\n    tag_255:\n    tag_253:\n      pop\n      swap1\n      pop\n      tag_256\n      swap2\n      swap1\n      tag_252\n      jump\t// in\n    tag_256:\n      pop\n      swap1\n      jump\t// out\n    tag_134:\n      pop\n      dup1\n      sload\n      tag_257\n      swap1\n      tag_97\n      jump\t// in\n    tag_257:\n      0x00\n      dup3\n      sstore\n      dup1\n      0x1f\n      lt\n      tag_259\n      jumpi\n      pop\n      jump(tag_258)\n    tag_259:\n      0x1f\n      add\n      0x20\n      swap1\n      div\n      swap1\n      0x00\n      mstore\n      keccak256(0x00, 0x20)\n      swap1\n      dup2\n      add\n      swap1\n      tag_260\n      swap2\n      swap1\n      tag_252\n      jump\t// in\n    tag_260:\n    tag_258:\n      pop\n      jump\t// out\n    tag_136:\n      pop\n      dup1\n      0x2d\n      add\n      swap1\n      tag_261\n      swap2\n      swap1\n      tag_252\n      jump\t// in\n    tag_261:\n      pop\n      jump\t// out\n    tag_252:\n    tag_262:\n      dup1\n      dup3\n      gt\n      iszero\n      tag_263\n      jumpi\n      0x00\n      dup2\n      0x00\n      swap1\n      sstore\n      pop\n      0x01\n      add\n      jump(tag_262)\n    tag_263:\n      pop\n      swap1\n      jump\t// out\n        /* \"#utility.yul\":7:419   */\n    tag_265:\n        /* \"#utility.yul\":85:90   */\n      0x00\n        /* \"#utility.yul\":110:176   */\n      tag_267\n        /* \"#utility.yul\":126:175   */\n      tag_268\n        /* \"#utility.yul\":168:174   */\n      dup5\n        /* \"#utility.yul\":126:175   */\n      tag_269\n      jump\t// in\n    tag_268:\n        /* \"#utility.yul\":110:176   */\n      tag_270\n      jump\t// in\n    tag_267:\n        /* \"#utility.yul\":101:176   */\n      swap1\n      pop\n        /* \"#utility.yul\":199:205   */\n      dup3\n        /* \"#utility.yul\":192:197   */\n      dup2\n        /* \"#utility.yul\":185:206   */\n      mstore\n        /* \"#utility.yul\":237:241   */\n      0x20\n        /* \"#utility.yul\":230:235   */\n      dup2\n        /* \"#utility.yul\":226:242   */\n      add\n        /* \"#utility.yul\":275:278   */\n      dup5\n        /* \"#utility.yul\":266:272   */\n      dup5\n        /* \"#utility.yul\":261:264   */\n      dup5\n        /* \"#utility.yul\":257:273   */\n      add\n        /* \"#utility.yul\":254:279   */\n      gt\n        /* \"#utility.yul\":251:363   */\n      iszero\n      tag_271\n      jumpi\n        /* \"#utility.yul\":282:361   */\n      tag_272\n      tag_273\n      jump\t// in\n    tag_272:\n        /* \"#utility.yul\":251:363   */\n    tag_271:\n        /* \"#utility.yul\":372:413   */\n      tag_274\n        /* \"#utility.yul\":406:412   */\n      dup5\n        /* \"#utility.yul\":401:404   */\n      dup3\n        /* \"#utility.yul\":396:399   */\n      dup6\n        /* \"#utility.yul\":372:413   */\n      tag_275\n      jump\t// in\n    tag_274:\n        /* \"#utility.yul\":91:419   */\n      pop\n        /* \"#utility.yul\":7:419   */\n      swap4\n      swap3\n      pop\n      pop\n      pop\n      jump\t// out\n        /* \"#utility.yul\":425:564   */\n    tag_276:\n        /* \"#utility.yul\":471:476   */\n      0x00\n        /* \"#utility.yul\":509:515   */\n      dup2\n        /* \"#utility.yul\":496:516   */\n      calldataload\n        /* \"#utility.yul\":487:516   */\n      swap1\n      pop\n        /* \"#utility.yul\":525:558   */\n      tag_278\n        /* \"#utility.yul\":552:557   */\n      dup2\n        /* \"#utility.yul\":525:558   */\n      tag_279\n      jump\t// in\n    tag_278:\n        /* \"#utility.yul\":425:564   */\n      swap3\n      swap2\n      pop\n      pop\n      jump\t// out\n        /* \"#utility.yul\":584:924   */\n    tag_280:\n        /* \"#utility.yul\":640:645   */\n      0x00\n        /* \"#utility.yul\":689:692   */\n      dup3\n        /* \"#utility.yul\":682:686   */\n      0x1f\n        /* \"#utility.yul\":674:680   */\n      dup4\n        /* \"#utility.yul\":670:687   */\n      add\n        /* \"#utility.yul\":666:693   */\n      slt\n        /* \"#utility.yul\":656:778   */\n      tag_282\n      jumpi\n        /* \"#utility.yul\":697:776   */\n      tag_283\n      tag_284\n      jump\t// in\n    tag_283:\n        /* \"#utility.yul\":656:778   */\n    tag_282:\n        /* \"#utility.yul\":814:820   */\n      dup2\n        /* \"#utility.yul\":801:821   */\n      calldataload\n        /* \"#utility.yul\":839:918   */\n      tag_285\n        /* \"#utility.yul\":914:917   */\n      dup5\n        /* \"#utility.yul\":906:912   */\n      dup3\n        /* \"#utility.yul\":899:903   */\n      0x20\n        /* \"#utility.yul\":891:897   */\n      dup7\n        /* \"#utility.yul\":887:904   */\n      add\n        /* \"#utility.yul\":839:918   */\n      tag_265\n      jump\t// in\n    tag_285:\n        /* \"#utility.yul\":830:918   */\n      swap2\n      pop\n        /* \"#utility.yul\":646:924   */\n      pop\n        /* \"#utility.yul\":584:924   */\n      swap3\n      swap2\n      pop\n      pop\n      jump\t// out\n        /* \"#utility.yul\":930:1069   */\n    tag_286:\n        /* \"#utility.yul\":976:981   */\n      0x00\n        /* \"#utility.yul\":1014:1020   */\n      dup2\n        /* \"#utility.yul\":1001:1021   */\n      calldataload\n        /* \"#utility.yul\":992:1021   */\n      swap1\n      pop\n        /* \"#utility.yul\":1030:1063   */\n      tag_288\n        /* \"#utility.yul\":1057:1062   */\n      dup2\n        /* \"#utility.yul\":1030:1063   */\n      tag_289\n      jump\t// in\n    tag_288:\n        /* \"#utility.yul\":930:1069   */\n      swap3\n      swap2\n      pop\n      pop\n      jump\t// out\n        /* \"#utility.yul\":1075:1404   */\n    tag_65:\n        /* \"#utility.yul\":1134:1140   */\n      0x00\n        /* \"#utility.yul\":1183:1185   */\n      0x20\n        /* \"#utility.yul\":1171:1180   */\n      dup3\n        /* \"#utility.yul\":1162:1169   */\n      dup5\n        /* \"#utility.yul\":1158:1181   */\n      sub\n        /* \"#utility.yul\":1154:1186   */\n      slt\n        /* \"#utility.yul\":1151:1270   */\n      iszero\n      tag_291\n      jumpi\n        /* \"#utility.yul\":1189:1268   */\n      tag_292\n      tag_293\n      jump\t// in\n    tag_292:\n        /* \"#utility.yul\":1151:1270   */\n    tag_291:\n        /* \"#utility.yul\":1309:1310   */\n      0x00\n        /* \"#utility.yul\":1334:1387   */\n      tag_294\n        /* \"#utility.yul\":1379:1386   */\n      dup5\n        /* \"#utility.yul\":1370:1376   */\n      dup3\n        /* \"#utility.yul\":1359:1368   */\n      dup6\n        /* \"#utility.yul\":1355:1377   */\n      add\n        /* \"#utility.yul\":1334:1387   */\n      tag_276\n      jump\t// in\n    tag_294:\n        /* \"#utility.yul\":1324:1387   */\n      swap2\n      pop\n        /* \"#utility.yul\":1280:1397   */\n      pop\n        /* \"#utility.yul\":1075:1404   */\n      swap3\n      swap2\n      pop\n      pop\n      jump\t// out\n        /* \"#utility.yul\":1410:2209   */\n    tag_76:\n        /* \"#utility.yul\":1497:1503   */\n      0x00\n        /* \"#utility.yul\":1505:1511   */\n      dup1\n        /* \"#utility.yul\":1513:1519   */\n      0x00\n        /* \"#utility.yul\":1562:1564   */\n      0x60\n        /* \"#utility.yul\":1550:1559   */\n      dup5\n        /* \"#utility.yul\":1541:1548   */\n      dup7\n        /* \"#utility.yul\":1537:1560   */\n      sub\n        /* \"#utility.yul\":1533:1565   */\n      slt\n        /* \"#utility.yul\":1530:1649   */\n      iszero\n      tag_296\n      jumpi\n        /* \"#utility.yul\":1568:1647   */\n      tag_297\n      tag_293\n      jump\t// in\n    tag_297:\n        /* \"#utility.yul\":1530:1649   */\n    tag_296:\n        /* \"#utility.yul\":1688:1689   */\n      0x00\n        /* \"#utility.yul\":1713:1766   */\n      tag_298\n        /* \"#utility.yul\":1758:1765   */\n      dup7\n        /* \"#utility.yul\":1749:1755   */\n      dup3\n        /* \"#utility.yul\":1738:1747   */\n      dup8\n        /* \"#utility.yul\":1734:1756   */\n      add\n        /* \"#utility.yul\":1713:1766   */\n      tag_276\n      jump\t// in\n    tag_298:\n        /* \"#utility.yul\":1703:1766   */\n      swap4\n      pop\n        /* \"#utility.yul\":1659:1776   */\n      pop\n        /* \"#utility.yul\":1843:1845   */\n      0x20\n        /* \"#utility.yul\":1832:1841   */\n      dup5\n        /* \"#utility.yul\":1828:1846   */\n      add\n        /* \"#utility.yul\":1815:1847   */\n      calldataload\n        /* \"#utility.yul\":1874:1892   */\n      0xffffffffffffffff\n        /* \"#utility.yul\":1866:1872   */\n      dup2\n        /* \"#utility.yul\":1863:1893   */\n      gt\n        /* \"#utility.yul\":1860:1977   */\n      iszero\n      tag_299\n      jumpi\n        /* \"#utility.yul\":1896:1975   */\n      tag_300\n      tag_301\n      jump\t// in\n    tag_300:\n        /* \"#utility.yul\":1860:1977   */\n    tag_299:\n        /* \"#utility.yul\":2001:2064   */\n      tag_302\n        /* \"#utility.yul\":2056:2063   */\n      dup7\n        /* \"#utility.yul\":2047:2053   */\n      dup3\n        /* \"#utility.yul\":2036:2045   */\n      dup8\n        /* \"#utility.yul\":2032:2054   */\n      add\n        /* \"#utility.yul\":2001:2064   */\n      tag_280\n      jump\t// in\n    tag_302:\n        /* \"#utility.yul\":1991:2064   */\n      swap3\n      pop\n        /* \"#utility.yul\":1786:2074   */\n      pop\n        /* \"#utility.yul\":2113:2115   */\n      0x40\n        /* \"#utility.yul\":2139:2192   */\n      tag_303\n        /* \"#utility.yul\":2184:2191   */\n      dup7\n        /* \"#utility.yul\":2175:2181   */\n      dup3\n        /* \"#utility.yul\":2164:2173   */\n      dup8\n        /* \"#utility.yul\":2160:2182   */\n      add\n        /* \"#utility.yul\":2139:2192   */\n      tag_286\n      jump\t// in\n    tag_303:\n        /* \"#utility.yul\":2129:2192   */\n      swap2\n      pop\n        /* \"#utility.yul\":2084:2202   */\n      pop\n        /* \"#utility.yul\":1410:2209   */\n      swap3\n      pop\n      swap3\n      pop\n      swap3\n      jump\t// out\n        /* \"#utility.yul\":2215:3340   */\n    tag_20:\n        /* \"#utility.yul\":2321:2327   */\n      0x00\n        /* \"#utility.yul\":2329:2335   */\n      dup1\n        /* \"#utility.yul\":2337:2343   */\n      0x00\n        /* \"#utility.yul\":2345:2351   */\n      dup1\n        /* \"#utility.yul\":2394:2397   */\n      0x80\n        /* \"#utility.yul\":2382:2391   */\n      dup6\n        /* \"#utility.yul\":2373:2380   */\n      dup8\n        /* \"#utility.yul\":2369:2392   */\n      sub\n        /* \"#utility.yul\":2365:2398   */\n      slt\n        /* \"#utility.yul\":2362:2482   */\n      iszero\n      tag_305\n      jumpi\n        /* \"#utility.yul\":2401:2480   */\n      tag_306\n      tag_293\n      jump\t// in\n    tag_306:\n        /* \"#utility.yul\":2362:2482   */\n    tag_305:\n        /* \"#utility.yul\":2521:2522   */\n      0x00\n        /* \"#utility.yul\":2546:2599   */\n      tag_307\n        /* \"#utility.yul\":2591:2598   */\n      dup8\n        /* \"#utility.yul\":2582:2588   */\n      dup3\n        /* \"#utility.yul\":2571:2580   */\n      dup9\n        /* \"#utility.yul\":2567:2589   */\n      add\n        /* \"#utility.yul\":2546:2599   */\n      tag_276\n      jump\t// in\n    tag_307:\n        /* \"#utility.yul\":2536:2599   */\n      swap5\n      pop\n        /* \"#utility.yul\":2492:2609   */\n      pop\n        /* \"#utility.yul\":2676:2678   */\n      0x20\n        /* \"#utility.yul\":2665:2674   */\n      dup6\n        /* \"#utility.yul\":2661:2679   */\n      add\n        /* \"#utility.yul\":2648:2680   */\n      calldataload\n        /* \"#utility.yul\":2707:2725   */\n      0xffffffffffffffff\n        /* \"#utility.yul\":2699:2705   */\n      dup2\n        /* \"#utility.yul\":2696:2726   */\n      gt\n        /* \"#utility.yul\":2693:2810   */\n      iszero\n      tag_308\n      jumpi\n        /* \"#utility.yul\":2729:2808   */\n      tag_309\n      tag_301\n      jump\t// in\n    tag_309:\n        /* \"#utility.yul\":2693:2810   */\n    tag_308:\n        /* \"#utility.yul\":2834:2897   */\n      tag_310\n        /* \"#utility.yul\":2889:2896   */\n      dup8\n        /* \"#utility.yul\":2880:2886   */\n      dup3\n        /* \"#utility.yul\":2869:2878   */\n      dup9\n        /* \"#utility.yul\":2865:2887   */\n      add\n        /* \"#utility.yul\":2834:2897   */\n      tag_280\n      jump\t// in\n    tag_310:\n        /* \"#utility.yul\":2824:2897   */\n      swap4\n      pop\n        /* \"#utility.yul\":2619:2907   */\n      pop\n        /* \"#utility.yul\":2946:2948   */\n      0x40\n        /* \"#utility.yul\":2972:3025   */\n      tag_311\n        /* \"#utility.yul\":3017:3024   */\n      dup8\n        /* \"#utility.yul\":3008:3014   */\n      dup3\n        /* \"#utility.yul\":2997:3006   */\n      dup9\n        /* \"#utility.yul\":2993:3015   */\n      add\n        /* \"#utility.yul\":2972:3025   */\n      tag_286\n      jump\t// in\n    tag_311:\n        /* \"#utility.yul\":2962:3025   */\n      swap3\n      pop\n        /* \"#utility.yul\":2917:3035   */\n      pop\n        /* \"#utility.yul\":3102:3104   */\n      0x60\n        /* \"#utility.yul\":3091:3100   */\n      dup6\n        /* \"#utility.yul\":3087:3105   */\n      add\n        /* \"#utility.yul\":3074:3106   */\n      calldataload\n        /* \"#utility.yul\":3133:3151   */\n      0xffffffffffffffff\n        /* \"#utility.yul\":3125:3131   */\n      dup2\n        /* \"#utility.yul\":3122:3152   */\n      gt\n        /* \"#utility.yul\":3119:3236   */\n      iszero\n      tag_312\n      jumpi\n        /* \"#utility.yul\":3155:3234   */\n      tag_313\n      tag_301\n      jump\t// in\n    tag_313:\n        /* \"#utility.yul\":3119:3236   */\n    tag_312:\n        /* \"#utility.yul\":3260:3323   */\n      tag_314\n        /* \"#utility.yul\":3315:3322   */\n      dup8\n        /* \"#utility.yul\":3306:3312   */\n      dup3\n        /* \"#utility.yul\":3295:3304   */\n      dup9\n        /* \"#utility.yul\":3291:3313   */\n      add\n        /* \"#utility.yul\":3260:3323   */\n      tag_280\n      jump\t// in\n    tag_314:\n        /* \"#utility.yul\":3250:3323   */\n      swap2\n      pop\n        /* \"#utility.yul\":3045:3333   */\n      pop\n        /* \"#utility.yul\":2215:3340   */\n      swap3\n      swap6\n      swap2\n      swap5\n      pop\n      swap3\n      pop\n      jump\t// out\n        /* \"#utility.yul\":3346:3855   */\n    tag_42:\n        /* \"#utility.yul\":3415:3421   */\n      0x00\n        /* \"#utility.yul\":3464:3466   */\n      0x20\n        /* \"#utility.yul\":3452:3461   */\n      dup3\n        /* \"#utility.yul\":3443:3450   */\n      dup5\n        /* \"#utility.yul\":3439:3462   */\n      sub\n        /* \"#utility.yul\":3435:3467   */\n      slt\n        /* \"#utility.yul\":3432:3551   */\n      iszero\n      tag_316\n      jumpi\n        /* \"#utility.yul\":3470:3549   */\n      tag_317\n      tag_293\n      jump\t// in\n    tag_317:\n        /* \"#utility.yul\":3432:3551   */\n    tag_316:\n        /* \"#utility.yul\":3618:3619   */\n      0x00\n        /* \"#utility.yul\":3607:3616   */\n      dup3\n        /* \"#utility.yul\":3603:3620   */\n      add\n        /* \"#utility.yul\":3590:3621   */\n      calldataload\n        /* \"#utility.yul\":3648:3666   */\n      0xffffffffffffffff\n        /* \"#utility.yul\":3640:3646   */\n      dup2\n        /* \"#utility.yul\":3637:3667   */\n      gt\n        /* \"#utility.yul\":3634:3751   */\n      iszero\n      tag_318\n      jumpi\n        /* \"#utility.yul\":3670:3749   */\n      tag_319\n      tag_301\n      jump\t// in\n    tag_319:\n        /* \"#utility.yul\":3634:3751   */\n    tag_318:\n        /* \"#utility.yul\":3775:3838   */\n      tag_320\n        /* \"#utility.yul\":3830:3837   */\n      dup5\n        /* \"#utility.yul\":3821:3827   */\n      dup3\n        /* \"#utility.yul\":3810:3819   */\n      dup6\n        /* \"#utility.yul\":3806:3828   */\n      add\n        /* \"#utility.yul\":3775:3838   */\n      tag_280\n      jump\t// in\n    tag_320:\n        /* \"#utility.yul\":3765:3838   */\n      swap2\n      pop\n        /* \"#utility.yul\":3561:3848   */\n      pop\n        /* \"#utility.yul\":3346:3855   */\n      swap3\n      swap2\n      pop\n      pop\n      jump\t// out\n        /* \"#utility.yul\":3861:4515   */\n    tag_34:\n        /* \"#utility.yul\":3939:3945   */\n      0x00\n        /* \"#utility.yul\":3947:3953   */\n      dup1\n        /* \"#utility.yul\":3996:3998   */\n      0x40\n        /* \"#utility.yul\":3984:3993   */\n      dup4\n        /* \"#utility.yul\":3975:3982   */\n      dup6\n        /* \"#utility.yul\":3971:3994   */\n      sub\n        /* \"#utility.yul\":3967:3999   */\n      slt\n        /* \"#utility.yul\":3964:4083   */\n      iszero\n      tag_322\n      jumpi\n        /* \"#utility.yul\":4002:4081   */\n      tag_323\n      tag_293\n      jump\t// in\n    tag_323:\n        /* \"#utility.yul\":3964:4083   */\n    tag_322:\n        /* \"#utility.yul\":4150:4151   */\n      0x00\n        /* \"#utility.yul\":4139:4148   */\n      dup4\n        /* \"#utility.yul\":4135:4152   */\n      add\n        /* \"#utility.yul\":4122:4153   */\n      calldataload\n        /* \"#utility.yul\":4180:4198   */\n      0xffffffffffffffff\n        /* \"#utility.yul\":4172:4178   */\n      dup2\n        /* \"#utility.yul\":4169:4199   */\n      gt\n        /* \"#utility.yul\":4166:4283   */\n      iszero\n      tag_324\n      jumpi\n        /* \"#utility.yul\":4202:4281   */\n      tag_325\n      tag_301\n      jump\t// in\n    tag_325:\n        /* \"#utility.yul\":4166:4283   */\n    tag_324:\n        /* \"#utility.yul\":4307:4370   */\n      tag_326\n        /* \"#utility.yul\":4362:4369   */\n      dup6\n        /* \"#utility.yul\":4353:4359   */\n      dup3\n        /* \"#utility.yul\":4342:4351   */\n      dup7\n        /* \"#utility.yul\":4338:4360   */\n      add\n        /* \"#utility.yul\":4307:4370   */\n      tag_280\n      jump\t// in\n    tag_326:\n        /* \"#utility.yul\":4297:4370   */\n      swap3\n      pop\n        /* \"#utility.yul\":4093:4380   */\n      pop\n        /* \"#utility.yul\":4419:4421   */\n      0x20\n        /* \"#utility.yul\":4445:4498   */\n      tag_327\n        /* \"#utility.yul\":4490:4497   */\n      dup6\n        /* \"#utility.yul\":4481:4487   */\n      dup3\n        /* \"#utility.yul\":4470:4479   */\n      dup7\n        /* \"#utility.yul\":4466:4488   */\n      add\n        /* \"#utility.yul\":4445:4498   */\n      tag_286\n      jump\t// in\n    tag_327:\n        /* \"#utility.yul\":4435:4498   */\n      swap2\n      pop\n        /* \"#utility.yul\":4390:4508   */\n      pop\n        /* \"#utility.yul\":3861:4515   */\n      swap3\n      pop\n      swap3\n      swap1\n      pop\n      jump\t// out\n        /* \"#utility.yul\":4521:4850   */\n    tag_47:\n        /* \"#utility.yul\":4580:4586   */\n      0x00\n        /* \"#utility.yul\":4629:4631   */\n      0x20\n        /* \"#utility.yul\":4617:4626   */\n      dup3\n        /* \"#utility.yul\":4608:4615   */\n      dup5\n        /* \"#utility.yul\":4604:4627   */\n      sub\n        /* \"#utility.yul\":4600:4632   */\n      slt\n        /* \"#utility.yul\":4597:4716   */\n      iszero\n      tag_329\n      jumpi\n        /* \"#utility.yul\":4635:4714   */\n      tag_330\n      tag_293\n      jump\t// in\n    tag_330:\n        /* \"#utility.yul\":4597:4716   */\n    tag_329:\n        /* \"#utility.yul\":4755:4756   */\n      0x00\n        /* \"#utility.yul\":4780:4833   */\n      tag_331\n        /* \"#utility.yul\":4825:4832   */\n      dup5\n        /* \"#utility.yul\":4816:4822   */\n      dup3\n        /* \"#utility.yul\":4805:4814   */\n      dup6\n        /* \"#utility.yul\":4801:4823   */\n      add\n        /* \"#utility.yul\":4780:4833   */\n      tag_286\n      jump\t// in\n    tag_331:\n        /* \"#utility.yul\":4770:4833   */\n      swap2\n      pop\n        /* \"#utility.yul\":4726:4843   */\n      pop\n        /* \"#utility.yul\":4521:4850   */\n      swap3\n      swap2\n      pop\n      pop\n      jump\t// out\n        /* \"#utility.yul\":4856:5655   */\n    tag_28:\n        /* \"#utility.yul\":4943:4949   */\n      0x00\n        /* \"#utility.yul\":4951:4957   */\n      dup1\n        /* \"#utility.yul\":4959:4965   */\n      0x00\n        /* \"#utility.yul\":5008:5010   */\n      0x60\n        /* \"#utility.yul\":4996:5005   */\n      dup5\n        /* \"#utility.yul\":4987:4994   */\n      dup7\n        /* \"#utility.yul\":4983:5006   */\n      sub\n        /* \"#utility.yul\":4979:5011   */\n      slt\n        /* \"#utility.yul\":4976:5095   */\n      iszero\n      tag_333\n      jumpi\n        /* \"#utility.yul\":5014:5093   */\n      tag_334\n      tag_293\n      jump\t// in\n    tag_334:\n        /* \"#utility.yul\":4976:5095   */\n    tag_333:\n        /* \"#utility.yul\":5134:5135   */\n      0x00\n        /* \"#utility.yul\":5159:5212   */\n      tag_335\n        /* \"#utility.yul\":5204:5211   */\n      dup7\n        /* \"#utility.yul\":5195:5201   */\n      dup3\n        /* \"#utility.yul\":5184:5193   */\n      dup8\n        /* \"#utility.yul\":5180:5202   */\n      add\n        /* \"#utility.yul\":5159:5212   */\n      tag_286\n      jump\t// in\n    tag_335:\n        /* \"#utility.yul\":5149:5212   */\n      swap4\n      pop\n        /* \"#utility.yul\":5105:5222   */\n      pop\n        /* \"#utility.yul\":5289:5291   */\n      0x20\n        /* \"#utility.yul\":5278:5287   */\n      dup5\n        /* \"#utility.yul\":5274:5292   */\n      add\n        /* \"#utility.yul\":5261:5293   */\n      calldataload\n        /* \"#utility.yul\":5320:5338   */\n      0xffffffffffffffff\n        /* \"#utility.yul\":5312:5318   */\n      dup2\n        /* \"#utility.yul\":5309:5339   */\n      gt\n        /* \"#utility.yul\":5306:5423   */\n      iszero\n      tag_336\n      jumpi\n        /* \"#utility.yul\":5342:5421   */\n      tag_337\n      tag_301\n      jump\t// in\n    tag_337:\n        /* \"#utility.yul\":5306:5423   */\n    tag_336:\n        /* \"#utility.yul\":5447:5510   */\n      tag_338\n        /* \"#utility.yul\":5502:5509   */\n      dup7\n        /* \"#utility.yul\":5493:5499   */\n      dup3\n        /* \"#utility.yul\":5482:5491   */\n      dup8\n        /* \"#utility.yul\":5478:5500   */\n      add\n        /* \"#utility.yul\":5447:5510   */\n      tag_280\n      jump\t// in\n    tag_338:\n        /* \"#utility.yul\":5437:5510   */\n      swap3\n      pop\n        /* \"#utility.yul\":5232:5520   */\n      pop\n        /* \"#utility.yul\":5559:5561   */\n      0x40\n        /* \"#utility.yul\":5585:5638   */\n      tag_339\n        /* \"#utility.yul\":5630:5637   */\n      dup7\n        /* \"#utility.yul\":5621:5627   */\n      dup3\n        /* \"#utility.yul\":5610:5619   */\n      dup8\n        /* \"#utility.yul\":5606:5628   */\n      add\n        /* \"#utility.yul\":5585:5638   */\n      tag_286\n      jump\t// in\n    tag_339:\n        /* \"#utility.yul\":5575:5638   */\n      swap2\n      pop\n        /* \"#utility.yul\":5530:5648   */\n      pop\n        /* \"#utility.yul\":4856:5655   */\n      swap3\n      pop\n      swap3\n      pop\n      swap3\n      jump\t// out\n        /* \"#utility.yul\":5661:5840   */\n    tag_340:\n        /* \"#utility.yul\":5730:5740   */\n      0x00\n        /* \"#utility.yul\":5751:5797   */\n      tag_342\n        /* \"#utility.yul\":5793:5796   */\n      dup4\n        /* \"#utility.yul\":5785:5791   */\n      dup4\n        /* \"#utility.yul\":5751:5797   */\n      tag_343\n      jump\t// in\n    tag_342:\n        /* \"#utility.yul\":5829:5833   */\n      0x20\n        /* \"#utility.yul\":5824:5827   */\n      dup4\n        /* \"#utility.yul\":5820:5834   */\n      add\n        /* \"#utility.yul\":5806:5834   */\n      swap1\n      pop\n        /* \"#utility.yul\":5661:5840   */\n      swap3\n      swap2\n      pop\n      pop\n      jump\t// out\n        /* \"#utility.yul\":5846:6042   */\n    tag_344:\n        /* \"#utility.yul\":5935:5945   */\n      0x00\n        /* \"#utility.yul\":5970:6036   */\n      tag_346\n        /* \"#utility.yul\":6032:6035   */\n      dup4\n        /* \"#utility.yul\":6024:6030   */\n      dup4\n        /* \"#utility.yul\":5970:6036   */\n      tag_347\n      jump\t// in\n    tag_346:\n        /* \"#utility.yul\":5956:6036   */\n      swap1\n      pop\n        /* \"#utility.yul\":5846:6042   */\n      swap3\n      swap2\n      pop\n      pop\n      jump\t// out\n        /* \"#utility.yul\":6048:6227   */\n    tag_348:\n        /* \"#utility.yul\":6117:6127   */\n      0x00\n        /* \"#utility.yul\":6138:6184   */\n      tag_350\n        /* \"#utility.yul\":6180:6183   */\n      dup4\n        /* \"#utility.yul\":6172:6178   */\n      dup4\n        /* \"#utility.yul\":6138:6184   */\n      tag_351\n      jump\t// in\n    tag_350:\n        /* \"#utility.yul\":6216:6220   */\n      0x20\n        /* \"#utility.yul\":6211:6214   */\n      dup4\n        /* \"#utility.yul\":6207:6221   */\n      add\n        /* \"#utility.yul\":6193:6221   */\n      swap1\n      pop\n        /* \"#utility.yul\":6048:6227   */\n      swap3\n      swap2\n      pop\n      pop\n      jump\t// out\n        /* \"#utility.yul\":6233:6341   */\n    tag_343:\n        /* \"#utility.yul\":6310:6334   */\n      tag_353\n        /* \"#utility.yul\":6328:6333   */\n      dup2\n        /* \"#utility.yul\":6310:6334   */\n      tag_354\n      jump\t// in\n    tag_353:\n        /* \"#utility.yul\":6305:6308   */\n      dup3\n        /* \"#utility.yul\":6298:6335   */\n      mstore\n        /* \"#utility.yul\":6233:6341   */\n      pop\n      pop\n      jump\t// out\n        /* \"#utility.yul\":6347:6465   */\n    tag_355:\n        /* \"#utility.yul\":6434:6458   */\n      tag_357\n        /* \"#utility.yul\":6452:6457   */\n      dup2\n        /* \"#utility.yul\":6434:6458   */\n      tag_354\n      jump\t// in\n    tag_357:\n        /* \"#utility.yul\":6429:6432   */\n      dup3\n        /* \"#utility.yul\":6422:6459   */\n      mstore\n        /* \"#utility.yul\":6347:6465   */\n      pop\n      pop\n      jump\t// out\n        /* \"#utility.yul\":6501:7233   */\n    tag_358:\n        /* \"#utility.yul\":6620:6623   */\n      0x00\n        /* \"#utility.yul\":6649:6703   */\n      tag_360\n        /* \"#utility.yul\":6697:6702   */\n      dup3\n        /* \"#utility.yul\":6649:6703   */\n      tag_361\n      jump\t// in\n    tag_360:\n        /* \"#utility.yul\":6719:6805   */\n      tag_362\n        /* \"#utility.yul\":6798:6804   */\n      dup2\n        /* \"#utility.yul\":6793:6796   */\n      dup6\n        /* \"#utility.yul\":6719:6805   */\n      tag_363\n      jump\t// in\n    tag_362:\n        /* \"#utility.yul\":6712:6805   */\n      swap4\n      pop\n        /* \"#utility.yul\":6829:6885   */\n      tag_364\n        /* \"#utility.yul\":6879:6884   */\n      dup4\n        /* \"#utility.yul\":6829:6885   */\n      tag_365\n      jump\t// in\n    tag_364:\n        /* \"#utility.yul\":6908:6915   */\n      dup1\n        /* \"#utility.yul\":6939:6940   */\n      0x00\n        /* \"#utility.yul\":6924:7208   */\n    tag_366:\n        /* \"#utility.yul\":6949:6955   */\n      dup4\n        /* \"#utility.yul\":6946:6947   */\n      dup2\n        /* \"#utility.yul\":6943:6956   */\n      lt\n        /* \"#utility.yul\":6924:7208   */\n      iszero\n      tag_368\n      jumpi\n        /* \"#utility.yul\":7025:7031   */\n      dup2\n        /* \"#utility.yul\":7019:7032   */\n      mload\n        /* \"#utility.yul\":7052:7115   */\n      tag_369\n        /* \"#utility.yul\":7111:7114   */\n      dup9\n        /* \"#utility.yul\":7096:7109   */\n      dup3\n        /* \"#utility.yul\":7052:7115   */\n      tag_340\n      jump\t// in\n    tag_369:\n        /* \"#utility.yul\":7045:7115   */\n      swap8\n      pop\n        /* \"#utility.yul\":7138:7198   */\n      tag_370\n        /* \"#utility.yul\":7191:7197   */\n      dup4\n        /* \"#utility.yul\":7138:7198   */\n      tag_371\n      jump\t// in\n    tag_370:\n        /* \"#utility.yul\":7128:7198   */\n      swap3\n      pop\n        /* \"#utility.yul\":6984:7208   */\n      pop\n        /* \"#utility.yul\":6971:6972   */\n      0x01\n        /* \"#utility.yul\":6968:6969   */\n      dup2\n        /* \"#utility.yul\":6964:6973   */\n      add\n        /* \"#utility.yul\":6959:6973   */\n      swap1\n      pop\n        /* \"#utility.yul\":6924:7208   */\n      jump(tag_366)\n    tag_368:\n        /* \"#utility.yul\":6928:6942   */\n      pop\n        /* \"#utility.yul\":7224:7227   */\n      dup6\n        /* \"#utility.yul\":7217:7227   */\n      swap4\n      pop\n        /* \"#utility.yul\":6625:7233   */\n      pop\n      pop\n      pop\n        /* \"#utility.yul\":6501:7233   */\n      swap3\n      swap2\n      pop\n      pop\n      jump\t// out\n        /* \"#utility.yul\":7267:8258   */\n    tag_372:\n        /* \"#utility.yul\":7406:7409   */\n      0x00\n        /* \"#utility.yul\":7435:7499   */\n      tag_374\n        /* \"#utility.yul\":7493:7498   */\n      dup3\n        /* \"#utility.yul\":7435:7499   */\n      tag_375\n      jump\t// in\n    tag_374:\n        /* \"#utility.yul\":7515:7611   */\n      tag_376\n        /* \"#utility.yul\":7604:7610   */\n      dup2\n        /* \"#utility.yul\":7599:7602   */\n      dup6\n        /* \"#utility.yul\":7515:7611   */\n      tag_377\n      jump\t// in\n    tag_376:\n        /* \"#utility.yul\":7508:7611   */\n      swap4\n      pop\n        /* \"#utility.yul\":7637:7640   */\n      dup4\n        /* \"#utility.yul\":7682:7686   */\n      0x20\n        /* \"#utility.yul\":7674:7680   */\n      dup3\n        /* \"#utility.yul\":7670:7687   */\n      mul\n        /* \"#utility.yul\":7665:7668   */\n      dup6\n        /* \"#utility.yul\":7661:7688   */\n      add\n        /* \"#utility.yul\":7712:7778   */\n      tag_378\n        /* \"#utility.yul\":7772:7777   */\n      dup6\n        /* \"#utility.yul\":7712:7778   */\n      tag_379\n      jump\t// in\n    tag_378:\n        /* \"#utility.yul\":7801:7808   */\n      dup1\n        /* \"#utility.yul\":7832:7833   */\n      0x00\n        /* \"#utility.yul\":7817:8213   */\n    tag_380:\n        /* \"#utility.yul\":7842:7848   */\n      dup6\n        /* \"#utility.yul\":7839:7840   */\n      dup2\n        /* \"#utility.yul\":7836:7849   */\n      lt\n        /* \"#utility.yul\":7817:8213   */\n      iszero\n      tag_382\n      jumpi\n        /* \"#utility.yul\":7913:7922   */\n      dup5\n        /* \"#utility.yul\":7907:7911   */\n      dup5\n        /* \"#utility.yul\":7903:7923   */\n      sub\n        /* \"#utility.yul\":7898:7901   */\n      dup10\n        /* \"#utility.yul\":7891:7924   */\n      mstore\n        /* \"#utility.yul\":7964:7970   */\n      dup2\n        /* \"#utility.yul\":7958:7971   */\n      mload\n        /* \"#utility.yul\":7992:8076   */\n      tag_383\n        /* \"#utility.yul\":8071:8075   */\n      dup6\n        /* \"#utility.yul\":8056:8069   */\n      dup3\n        /* \"#utility.yul\":7992:8076   */\n      tag_344\n      jump\t// in\n    tag_383:\n        /* \"#utility.yul\":7984:8076   */\n      swap5\n      pop\n        /* \"#utility.yul\":8099:8169   */\n      tag_384\n        /* \"#utility.yul\":8162:8168   */\n      dup4\n        /* \"#utility.yul\":8099:8169   */\n      tag_385\n      jump\t// in\n    tag_384:\n        /* \"#utility.yul\":8089:8169   */\n      swap3\n      pop\n        /* \"#utility.yul\":8198:8202   */\n      0x20\n        /* \"#utility.yul\":8193:8196   */\n      dup11\n        /* \"#utility.yul\":8189:8203   */\n      add\n        /* \"#utility.yul\":8182:8203   */\n      swap10\n      pop\n        /* \"#utility.yul\":7877:8213   */\n      pop\n        /* \"#utility.yul\":7864:7865   */\n      0x01\n        /* \"#utility.yul\":7861:7862   */\n      dup2\n        /* \"#utility.yul\":7857:7866   */\n      add\n        /* \"#utility.yul\":7852:7866   */\n      swap1\n      pop\n        /* \"#utility.yul\":7817:8213   */\n      jump(tag_380)\n    tag_382:\n        /* \"#utility.yul\":7821:7835   */\n      pop\n        /* \"#utility.yul\":8229:8233   */\n      dup3\n        /* \"#utility.yul\":8222:8233   */\n      swap8\n      pop\n        /* \"#utility.yul\":8249:8252   */\n      dup8\n        /* \"#utility.yul\":8242:8252   */\n      swap6\n      pop\n        /* \"#utility.yul\":7411:8258   */\n      pop\n      pop\n      pop\n      pop\n      pop\n        /* \"#utility.yul\":7267:8258   */\n      swap3\n      swap2\n      pop\n      pop\n      jump\t// out\n        /* \"#utility.yul\":8298:8998   */\n    tag_386:\n        /* \"#utility.yul\":8436:8489   */\n      tag_388\n        /* \"#utility.yul\":8483:8488   */\n      dup2\n        /* \"#utility.yul\":8436:8489   */\n      tag_389\n      jump\t// in\n    tag_388:\n        /* \"#utility.yul\":8505:8590   */\n      tag_390\n        /* \"#utility.yul\":8583:8589   */\n      dup2\n        /* \"#utility.yul\":8578:8581   */\n      dup5\n        /* \"#utility.yul\":8505:8590   */\n      tag_391\n      jump\t// in\n    tag_390:\n        /* \"#utility.yul\":8498:8590   */\n      swap3\n      pop\n        /* \"#utility.yul\":8614:8669   */\n      tag_392\n        /* \"#utility.yul\":8663:8668   */\n      dup3\n        /* \"#utility.yul\":8614:8669   */\n      tag_393\n      jump\t// in\n    tag_392:\n        /* \"#utility.yul\":8692:8699   */\n      dup1\n        /* \"#utility.yul\":8723:8724   */\n      0x00\n        /* \"#utility.yul\":8708:8991   */\n    tag_394:\n        /* \"#utility.yul\":8733:8739   */\n      dup4\n        /* \"#utility.yul\":8730:8731   */\n      dup2\n        /* \"#utility.yul\":8727:8740   */\n      lt\n        /* \"#utility.yul\":8708:8991   */\n      iszero\n      tag_396\n      jumpi\n        /* \"#utility.yul\":8809:8815   */\n      dup2\n        /* \"#utility.yul\":8803:8816   */\n      mload\n        /* \"#utility.yul\":8836:8899   */\n      tag_397\n        /* \"#utility.yul\":8895:8898   */\n      dup8\n        /* \"#utility.yul\":8880:8893   */\n      dup3\n        /* \"#utility.yul\":8836:8899   */\n      tag_348\n      jump\t// in\n    tag_397:\n        /* \"#utility.yul\":8829:8899   */\n      swap7\n      pop\n        /* \"#utility.yul\":8922:8981   */\n      tag_398\n        /* \"#utility.yul\":8974:8980   */\n      dup4\n        /* \"#utility.yul\":8922:8981   */\n      tag_399\n      jump\t// in\n    tag_398:\n        /* \"#utility.yul\":8912:8981   */\n      swap3\n      pop\n        /* \"#utility.yul\":8768:8991   */\n      pop\n        /* \"#utility.yul\":8755:8756   */\n      0x01\n        /* \"#utility.yul\":8752:8753   */\n      dup2\n        /* \"#utility.yul\":8748:8757   */\n      add\n        /* \"#utility.yul\":8743:8757   */\n      swap1\n      pop\n        /* \"#utility.yul\":8708:8991   */\n      jump(tag_394)\n    tag_396:\n        /* \"#utility.yul\":8712:8726   */\n      pop\n        /* \"#utility.yul\":8412:8998   */\n      pop\n      pop\n      pop\n        /* \"#utility.yul\":8298:8998   */\n      pop\n      pop\n      jump\t// out\n        /* \"#utility.yul\":9004:9348   */\n    tag_347:\n        /* \"#utility.yul\":9082:9085   */\n      0x00\n        /* \"#utility.yul\":9110:9149   */\n      tag_401\n        /* \"#utility.yul\":9143:9148   */\n      dup3\n        /* \"#utility.yul\":9110:9149   */\n      tag_402\n      jump\t// in\n    tag_401:\n        /* \"#utility.yul\":9165:9226   */\n      tag_403\n        /* \"#utility.yul\":9219:9225   */\n      dup2\n        /* \"#utility.yul\":9214:9217   */\n      dup6\n        /* \"#utility.yul\":9165:9226   */\n      tag_404\n      jump\t// in\n    tag_403:\n        /* \"#utility.yul\":9158:9226   */\n      swap4\n      pop\n        /* \"#utility.yul\":9235:9287   */\n      tag_405\n        /* \"#utility.yul\":9280:9286   */\n      dup2\n        /* \"#utility.yul\":9275:9278   */\n      dup6\n        /* \"#utility.yul\":9268:9272   */\n      0x20\n        /* \"#utility.yul\":9261:9266   */\n      dup7\n        /* \"#utility.yul\":9257:9273   */\n      add\n        /* \"#utility.yul\":9235:9287   */\n      tag_406\n      jump\t// in\n    tag_405:\n        /* \"#utility.yul\":9312:9341   */\n      tag_407\n        /* \"#utility.yul\":9334:9340   */\n      dup2\n        /* \"#utility.yul\":9312:9341   */\n      tag_408\n      jump\t// in\n    tag_407:\n        /* \"#utility.yul\":9307:9310   */\n      dup5\n        /* \"#utility.yul\":9303:9342   */\n      add\n        /* \"#utility.yul\":9296:9342   */\n      swap2\n      pop\n        /* \"#utility.yul\":9086:9348   */\n      pop\n        /* \"#utility.yul\":9004:9348   */\n      swap3\n      swap2\n      pop\n      pop\n      jump\t// out\n        /* \"#utility.yul\":9354:9718   */\n    tag_409:\n        /* \"#utility.yul\":9442:9445   */\n      0x00\n        /* \"#utility.yul\":9470:9509   */\n      tag_411\n        /* \"#utility.yul\":9503:9508   */\n      dup3\n        /* \"#utility.yul\":9470:9509   */\n      tag_402\n      jump\t// in\n    tag_411:\n        /* \"#utility.yul\":9525:9596   */\n      tag_412\n        /* \"#utility.yul\":9589:9595   */\n      dup2\n        /* \"#utility.yul\":9584:9587   */\n      dup6\n        /* \"#utility.yul\":9525:9596   */\n      tag_413\n      jump\t// in\n    tag_412:\n        /* \"#utility.yul\":9518:9596   */\n      swap4\n      pop\n        /* \"#utility.yul\":9605:9657   */\n      tag_414\n        /* \"#utility.yul\":9650:9656   */\n      dup2\n        /* \"#utility.yul\":9645:9648   */\n      dup6\n        /* \"#utility.yul\":9638:9642   */\n      0x20\n        /* \"#utility.yul\":9631:9636   */\n      dup7\n        /* \"#utility.yul\":9627:9643   */\n      add\n        /* \"#utility.yul\":9605:9657   */\n      tag_406\n      jump\t// in\n    tag_414:\n        /* \"#utility.yul\":9682:9711   */\n      tag_415\n        /* \"#utility.yul\":9704:9710   */\n      dup2\n        /* \"#utility.yul\":9682:9711   */\n      tag_408\n      jump\t// in\n    tag_415:\n        /* \"#utility.yul\":9677:9680   */\n      dup5\n        /* \"#utility.yul\":9673:9712   */\n      add\n        /* \"#utility.yul\":9666:9712   */\n      swap2\n      pop\n        /* \"#utility.yul\":9446:9718   */\n      pop\n        /* \"#utility.yul\":9354:9718   */\n      swap3\n      swap2\n      pop\n      pop\n      jump\t// out\n        /* \"#utility.yul\":9724:10101   */\n    tag_416:\n        /* \"#utility.yul\":9830:9833   */\n      0x00\n        /* \"#utility.yul\":9858:9897   */\n      tag_418\n        /* \"#utility.yul\":9891:9896   */\n      dup3\n        /* \"#utility.yul\":9858:9897   */\n      tag_402\n      jump\t// in\n    tag_418:\n        /* \"#utility.yul\":9913:10002   */\n      tag_419\n        /* \"#utility.yul\":9995:10001   */\n      dup2\n        /* \"#utility.yul\":9990:9993   */\n      dup6\n        /* \"#utility.yul\":9913:10002   */\n      tag_420\n      jump\t// in\n    tag_419:\n        /* \"#utility.yul\":9906:10002   */\n      swap4\n      pop\n        /* \"#utility.yul\":10011:10063   */\n      tag_421\n        /* \"#utility.yul\":10056:10062   */\n      dup2\n        /* \"#utility.yul\":10051:10054   */\n      dup6\n        /* \"#utility.yul\":10044:10048   */\n      0x20\n        /* \"#utility.yul\":10037:10042   */\n      dup7\n        /* \"#utility.yul\":10033:10049   */\n      add\n        /* \"#utility.yul\":10011:10063   */\n      tag_406\n      jump\t// in\n    tag_421:\n        /* \"#utility.yul\":10088:10094   */\n      dup1\n        /* \"#utility.yul\":10083:10086   */\n      dup5\n        /* \"#utility.yul\":10079:10095   */\n      add\n        /* \"#utility.yul\":10072:10095   */\n      swap2\n      pop\n        /* \"#utility.yul\":9834:10101   */\n      pop\n        /* \"#utility.yul\":9724:10101   */\n      swap3\n      swap2\n      pop\n      pop\n      jump\t// out\n        /* \"#utility.yul\":10131:10976   */\n    tag_422:\n        /* \"#utility.yul\":10234:10237   */\n      0x00\n        /* \"#utility.yul\":10271:10276   */\n      dup2\n        /* \"#utility.yul\":10265:10277   */\n      sload\n        /* \"#utility.yul\":10300:10336   */\n      tag_424\n        /* \"#utility.yul\":10326:10335   */\n      dup2\n        /* \"#utility.yul\":10300:10336   */\n      tag_97\n      jump\t// in\n    tag_424:\n        /* \"#utility.yul\":10352:10441   */\n      tag_425\n        /* \"#utility.yul\":10434:10440   */\n      dup2\n        /* \"#utility.yul\":10429:10432   */\n      dup7\n        /* \"#utility.yul\":10352:10441   */\n      tag_420\n      jump\t// in\n    tag_425:\n        /* \"#utility.yul\":10345:10441   */\n      swap5\n      pop\n        /* \"#utility.yul\":10472:10473   */\n      0x01\n        /* \"#utility.yul\":10461:10470   */\n      dup3\n        /* \"#utility.yul\":10457:10474   */\n      and\n        /* \"#utility.yul\":10488:10489   */\n      0x00\n        /* \"#utility.yul\":10483:10620   */\n      dup2\n      eq\n      tag_427\n      jumpi\n        /* \"#utility.yul\":10634:10635   */\n      0x01\n        /* \"#utility.yul\":10629:10970   */\n      dup2\n      eq\n      tag_428\n      jumpi\n        /* \"#utility.yul\":10450:10970   */\n      jump(tag_426)\n        /* \"#utility.yul\":10483:10620   */\n    tag_427:\n        /* \"#utility.yul\":10567:10571   */\n      0xff\n        /* \"#utility.yul\":10563:10572   */\n      not\n        /* \"#utility.yul\":10552:10561   */\n      dup4\n        /* \"#utility.yul\":10548:10573   */\n      and\n        /* \"#utility.yul\":10543:10546   */\n      dup7\n        /* \"#utility.yul\":10536:10574   */\n      mstore\n        /* \"#utility.yul\":10603:10609   */\n      dup2\n        /* \"#utility.yul\":10598:10601   */\n      dup7\n        /* \"#utility.yul\":10594:10610   */\n      add\n        /* \"#utility.yul\":10587:10610   */\n      swap4\n      pop\n        /* \"#utility.yul\":10483:10620   */\n      jump(tag_426)\n        /* \"#utility.yul\":10629:10970   */\n    tag_428:\n        /* \"#utility.yul\":10696:10734   */\n      tag_429\n        /* \"#utility.yul\":10728:10733   */\n      dup6\n        /* \"#utility.yul\":10696:10734   */\n      tag_430\n      jump\t// in\n    tag_429:\n        /* \"#utility.yul\":10756:10757   */\n      0x00\n        /* \"#utility.yul\":10770:10924   */\n    tag_431:\n        /* \"#utility.yul\":10784:10790   */\n      dup4\n        /* \"#utility.yul\":10781:10782   */\n      dup2\n        /* \"#utility.yul\":10778:10791   */\n      lt\n        /* \"#utility.yul\":10770:10924   */\n      iszero\n      tag_433\n      jumpi\n        /* \"#utility.yul\":10858:10865   */\n      dup2\n        /* \"#utility.yul\":10852:10866   */\n      sload\n        /* \"#utility.yul\":10848:10849   */\n      dup2\n        /* \"#utility.yul\":10843:10846   */\n      dup10\n        /* \"#utility.yul\":10839:10850   */\n      add\n        /* \"#utility.yul\":10832:10867   */\n      mstore\n        /* \"#utility.yul\":10908:10909   */\n      0x01\n        /* \"#utility.yul\":10899:10906   */\n      dup3\n        /* \"#utility.yul\":10895:10910   */\n      add\n        /* \"#utility.yul\":10884:10910   */\n      swap2\n      pop\n        /* \"#utility.yul\":10806:10810   */\n      0x20\n        /* \"#utility.yul\":10803:10804   */\n      dup2\n        /* \"#utility.yul\":10799:10811   */\n      add\n        /* \"#utility.yul\":10794:10811   */\n      swap1\n      pop\n        /* \"#utility.yul\":10770:10924   */\n      jump(tag_431)\n    tag_433:\n        /* \"#utility.yul\":10953:10959   */\n      dup4\n        /* \"#utility.yul\":10948:10951   */\n      dup9\n        /* \"#utility.yul\":10944:10960   */\n      add\n        /* \"#utility.yul\":10937:10960   */\n      swap6\n      pop\n        /* \"#utility.yul\":10636:10970   */\n      pop\n      pop\n        /* \"#utility.yul\":10450:10970   */\n    tag_426:\n      pop\n        /* \"#utility.yul\":10238:10976   */\n      pop\n      pop\n        /* \"#utility.yul\":10131:10976   */\n      swap3\n      swap2\n      pop\n      pop\n      jump\t// out\n        /* \"#utility.yul\":10982:11348   */\n    tag_434:\n        /* \"#utility.yul\":11124:11127   */\n      0x00\n        /* \"#utility.yul\":11145:11212   */\n      tag_436\n        /* \"#utility.yul\":11209:11211   */\n      0x13\n        /* \"#utility.yul\":11204:11207   */\n      dup4\n        /* \"#utility.yul\":11145:11212   */\n      tag_413\n      jump\t// in\n    tag_436:\n        /* \"#utility.yul\":11138:11212   */\n      swap2\n      pop\n        /* \"#utility.yul\":11221:11314   */\n      tag_437\n        /* \"#utility.yul\":11310:11313   */\n      dup3\n        /* \"#utility.yul\":11221:11314   */\n      tag_438\n      jump\t// in\n    tag_437:\n        /* \"#utility.yul\":11339:11341   */\n      0x20\n        /* \"#utility.yul\":11334:11337   */\n      dup3\n        /* \"#utility.yul\":11330:11342   */\n      add\n        /* \"#utility.yul\":11323:11342   */\n      swap1\n      pop\n        /* \"#utility.yul\":10982:11348   */\n      swap2\n      swap1\n      pop\n      jump\t// out\n        /* \"#utility.yul\":11354:11720   */\n    tag_439:\n        /* \"#utility.yul\":11496:11499   */\n      0x00\n        /* \"#utility.yul\":11517:11584   */\n      tag_441\n        /* \"#utility.yul\":11581:11583   */\n      0x15\n        /* \"#utility.yul\":11576:11579   */\n      dup4\n        /* \"#utility.yul\":11517:11584   */\n      tag_413\n      jump\t// in\n    tag_441:\n        /* \"#utility.yul\":11510:11584   */\n      swap2\n      pop\n        /* \"#utility.yul\":11593:11686   */\n      tag_442\n        /* \"#utility.yul\":11682:11685   */\n      dup3\n        /* \"#utility.yul\":11593:11686   */\n      tag_443\n      jump\t// in\n    tag_442:\n        /* \"#utility.yul\":11711:11713   */\n      0x20\n        /* \"#utility.yul\":11706:11709   */\n      dup3\n        /* \"#utility.yul\":11702:11714   */\n      add\n        /* \"#utility.yul\":11695:11714   */\n      swap1\n      pop\n        /* \"#utility.yul\":11354:11720   */\n      swap2\n      swap1\n      pop\n      jump\t// out\n        /* \"#utility.yul\":11726:12092   */\n    tag_444:\n        /* \"#utility.yul\":11868:11871   */\n      0x00\n        /* \"#utility.yul\":11889:11956   */\n      tag_446\n        /* \"#utility.yul\":11953:11955   */\n      0x0f\n        /* \"#utility.yul\":11948:11951   */\n      dup4\n        /* \"#utility.yul\":11889:11956   */\n      tag_413\n      jump\t// in\n    tag_446:\n        /* \"#utility.yul\":11882:11956   */\n      swap2\n      pop\n        /* \"#utility.yul\":11965:12058   */\n      tag_447\n        /* \"#utility.yul\":12054:12057   */\n      dup3\n        /* \"#utility.yul\":11965:12058   */\n      tag_448\n      jump\t// in\n    tag_447:\n        /* \"#utility.yul\":12083:12085   */\n      0x20\n        /* \"#utility.yul\":12078:12081   */\n      dup3\n        /* \"#utility.yul\":12074:12086   */\n      add\n        /* \"#utility.yul\":12067:12086   */\n      swap1\n      pop\n        /* \"#utility.yul\":11726:12092   */\n      swap2\n      swap1\n      pop\n      jump\t// out\n        /* \"#utility.yul\":12098:12206   */\n    tag_351:\n        /* \"#utility.yul\":12175:12199   */\n      tag_450\n        /* \"#utility.yul\":12193:12198   */\n      dup2\n        /* \"#utility.yul\":12175:12199   */\n      tag_451\n      jump\t// in\n    tag_450:\n        /* \"#utility.yul\":12170:12173   */\n      dup3\n        /* \"#utility.yul\":12163:12200   */\n      mstore\n        /* \"#utility.yul\":12098:12206   */\n      pop\n      pop\n      jump\t// out\n        /* \"#utility.yul\":12212:12330   */\n    tag_452:\n        /* \"#utility.yul\":12299:12323   */\n      tag_454\n        /* \"#utility.yul\":12317:12322   */\n      dup2\n        /* \"#utility.yul\":12299:12323   */\n      tag_451\n      jump\t// in\n    tag_454:\n        /* \"#utility.yul\":12294:12297   */\n      dup3\n        /* \"#utility.yul\":12287:12324   */\n      mstore\n        /* \"#utility.yul\":12212:12330   */\n      pop\n      pop\n      jump\t// out\n        /* \"#utility.yul\":12336:12611   */\n    tag_87:\n        /* \"#utility.yul\":12468:12471   */\n      0x00\n        /* \"#utility.yul\":12490:12585   */\n      tag_456\n        /* \"#utility.yul\":12581:12584   */\n      dup3\n        /* \"#utility.yul\":12572:12578   */\n      dup5\n        /* \"#utility.yul\":12490:12585   */\n      tag_416\n      jump\t// in\n    tag_456:\n        /* \"#utility.yul\":12483:12585   */\n      swap2\n      pop\n        /* \"#utility.yul\":12602:12605   */\n      dup2\n        /* \"#utility.yul\":12595:12605   */\n      swap1\n      pop\n        /* \"#utility.yul\":12336:12611   */\n      swap3\n      swap2\n      pop\n      pop\n      jump\t// out\n        /* \"#utility.yul\":12617:12886   */\n    tag_211:\n        /* \"#utility.yul\":12746:12749   */\n      0x00\n        /* \"#utility.yul\":12768:12860   */\n      tag_458\n        /* \"#utility.yul\":12856:12859   */\n      dup3\n        /* \"#utility.yul\":12847:12853   */\n      dup5\n        /* \"#utility.yul\":12768:12860   */\n      tag_422\n      jump\t// in\n    tag_458:\n        /* \"#utility.yul\":12761:12860   */\n      swap2\n      pop\n        /* \"#utility.yul\":12877:12880   */\n      dup2\n        /* \"#utility.yul\":12870:12880   */\n      swap1\n      pop\n        /* \"#utility.yul\":12617:12886   */\n      swap3\n      swap2\n      pop\n      pop\n      jump\t// out\n        /* \"#utility.yul\":12892:13114   */\n    tag_73:\n        /* \"#utility.yul\":12985:12989   */\n      0x00\n        /* \"#utility.yul\":13023:13025   */\n      0x20\n        /* \"#utility.yul\":13012:13021   */\n      dup3\n        /* \"#utility.yul\":13008:13026   */\n      add\n        /* \"#utility.yul\":13000:13026   */\n      swap1\n      pop\n        /* \"#utility.yul\":13036:13107   */\n      tag_460\n        /* \"#utility.yul\":13104:13105   */\n      0x00\n        /* \"#utility.yul\":13093:13102   */\n      dup4\n        /* \"#utility.yul\":13089:13106   */\n      add\n        /* \"#utility.yul\":13080:13086   */\n      dup5\n        /* \"#utility.yul\":13036:13107   */\n      tag_355\n      jump\t// in\n    tag_460:\n        /* \"#utility.yul\":12892:13114   */\n      swap3\n      swap2\n      pop\n      pop\n      jump\t// out\n        /* \"#utility.yul\":13120:13550   */\n    tag_68:\n        /* \"#utility.yul\":13289:13293   */\n      0x00\n        /* \"#utility.yul\":13327:13331   */\n      0x05c0\n        /* \"#utility.yul\":13316:13325   */\n      dup3\n        /* \"#utility.yul\":13312:13332   */\n      add\n        /* \"#utility.yul\":13304:13332   */\n      swap1\n      pop\n        /* \"#utility.yul\":13342:13413   */\n      tag_462\n        /* \"#utility.yul\":13410:13411   */\n      0x00\n        /* \"#utility.yul\":13399:13408   */\n      dup4\n        /* \"#utility.yul\":13395:13412   */\n      add\n        /* \"#utility.yul\":13386:13392   */\n      dup6\n        /* \"#utility.yul\":13342:13413   */\n      tag_355\n      jump\t// in\n    tag_462:\n        /* \"#utility.yul\":13423:13543   */\n      tag_463\n        /* \"#utility.yul\":13539:13541   */\n      0x20\n        /* \"#utility.yul\":13528:13537   */\n      dup4\n        /* \"#utility.yul\":13524:13542   */\n      add\n        /* \"#utility.yul\":13515:13521   */\n      dup5\n        /* \"#utility.yul\":13423:13543   */\n      tag_386\n      jump\t// in\n    tag_463:\n        /* \"#utility.yul\":13120:13550   */\n      swap4\n      swap3\n      pop\n      pop\n      pop\n      jump\t// out\n        /* \"#utility.yul\":13556:13979   */\n    tag_50:\n        /* \"#utility.yul\":13697:13701   */\n      0x00\n        /* \"#utility.yul\":13735:13737   */\n      0x40\n        /* \"#utility.yul\":13724:13733   */\n      dup3\n        /* \"#utility.yul\":13720:13738   */\n      add\n        /* \"#utility.yul\":13712:13738   */\n      swap1\n      pop\n        /* \"#utility.yul\":13748:13819   */\n      tag_465\n        /* \"#utility.yul\":13816:13817   */\n      0x00\n        /* \"#utility.yul\":13805:13814   */\n      dup4\n        /* \"#utility.yul\":13801:13818   */\n      add\n        /* \"#utility.yul\":13792:13798   */\n      dup6\n        /* \"#utility.yul\":13748:13819   */\n      tag_355\n      jump\t// in\n    tag_465:\n        /* \"#utility.yul\":13866:13875   */\n      dup2\n        /* \"#utility.yul\":13860:13864   */\n      dup2\n        /* \"#utility.yul\":13856:13876   */\n      sub\n        /* \"#utility.yul\":13851:13853   */\n      0x20\n        /* \"#utility.yul\":13840:13849   */\n      dup4\n        /* \"#utility.yul\":13836:13854   */\n      add\n        /* \"#utility.yul\":13829:13877   */\n      mstore\n        /* \"#utility.yul\":13894:13972   */\n      tag_466\n        /* \"#utility.yul\":13967:13971   */\n      dup2\n        /* \"#utility.yul\":13958:13964   */\n      dup5\n        /* \"#utility.yul\":13894:13972   */\n      tag_409\n      jump\t// in\n    tag_466:\n        /* \"#utility.yul\":13886:13972   */\n      swap1\n      pop\n        /* \"#utility.yul\":13556:13979   */\n      swap4\n      swap3\n      pop\n      pop\n      pop\n      jump\t// out\n        /* \"#utility.yul\":13985:14726   */\n    tag_58:\n        /* \"#utility.yul\":14230:14234   */\n      0x00\n        /* \"#utility.yul\":14268:14272   */\n      0x0600\n        /* \"#utility.yul\":14257:14266   */\n      dup3\n        /* \"#utility.yul\":14253:14273   */\n      add\n        /* \"#utility.yul\":14245:14273   */\n      swap1\n      pop\n        /* \"#utility.yul\":14283:14354   */\n      tag_468\n        /* \"#utility.yul\":14351:14352   */\n      0x00\n        /* \"#utility.yul\":14340:14349   */\n      dup4\n        /* \"#utility.yul\":14336:14353   */\n      add\n        /* \"#utility.yul\":14327:14333   */\n      dup8\n        /* \"#utility.yul\":14283:14354   */\n      tag_355\n      jump\t// in\n    tag_468:\n        /* \"#utility.yul\":14401:14410   */\n      dup2\n        /* \"#utility.yul\":14395:14399   */\n      dup2\n        /* \"#utility.yul\":14391:14411   */\n      sub\n        /* \"#utility.yul\":14386:14388   */\n      0x20\n        /* \"#utility.yul\":14375:14384   */\n      dup4\n        /* \"#utility.yul\":14371:14389   */\n      add\n        /* \"#utility.yul\":14364:14412   */\n      mstore\n        /* \"#utility.yul\":14429:14507   */\n      tag_469\n        /* \"#utility.yul\":14502:14506   */\n      dup2\n        /* \"#utility.yul\":14493:14499   */\n      dup7\n        /* \"#utility.yul\":14429:14507   */\n      tag_409\n      jump\t// in\n    tag_469:\n        /* \"#utility.yul\":14421:14507   */\n      swap1\n      pop\n        /* \"#utility.yul\":14517:14589   */\n      tag_470\n        /* \"#utility.yul\":14585:14587   */\n      0x40\n        /* \"#utility.yul\":14574:14583   */\n      dup4\n        /* \"#utility.yul\":14570:14588   */\n      add\n        /* \"#utility.yul\":14561:14567   */\n      dup6\n        /* \"#utility.yul\":14517:14589   */\n      tag_452\n      jump\t// in\n    tag_470:\n        /* \"#utility.yul\":14599:14719   */\n      tag_471\n        /* \"#utility.yul\":14715:14717   */\n      0x60\n        /* \"#utility.yul\":14704:14713   */\n      dup4\n        /* \"#utility.yul\":14700:14718   */\n      add\n        /* \"#utility.yul\":14691:14697   */\n      dup5\n        /* \"#utility.yul\":14599:14719   */\n      tag_386\n      jump\t// in\n    tag_471:\n        /* \"#utility.yul\":13985:14726   */\n      swap6\n      swap5\n      pop\n      pop\n      pop\n      pop\n      pop\n      jump\t// out\n        /* \"#utility.yul\":14732:15105   */\n    tag_25:\n        /* \"#utility.yul\":14875:14879   */\n      0x00\n        /* \"#utility.yul\":14913:14915   */\n      0x20\n        /* \"#utility.yul\":14902:14911   */\n      dup3\n        /* \"#utility.yul\":14898:14916   */\n      add\n        /* \"#utility.yul\":14890:14916   */\n      swap1\n      pop\n        /* \"#utility.yul\":14962:14971   */\n      dup2\n        /* \"#utility.yul\":14956:14960   */\n      dup2\n        /* \"#utility.yul\":14952:14972   */\n      sub\n        /* \"#utility.yul\":14948:14949   */\n      0x00\n        /* \"#utility.yul\":14937:14946   */\n      dup4\n        /* \"#utility.yul\":14933:14950   */\n      add\n        /* \"#utility.yul\":14926:14973   */\n      mstore\n        /* \"#utility.yul\":14990:15098   */\n      tag_473\n        /* \"#utility.yul\":15093:15097   */\n      dup2\n        /* \"#utility.yul\":15084:15090   */\n      dup5\n        /* \"#utility.yul\":14990:15098   */\n      tag_358\n      jump\t// in\n    tag_473:\n        /* \"#utility.yul\":14982:15098   */\n      swap1\n      pop\n        /* \"#utility.yul\":14732:15105   */\n      swap3\n      swap2\n      pop\n      pop\n      jump\t// out\n        /* \"#utility.yul\":15111:15524   */\n    tag_39:\n        /* \"#utility.yul\":15274:15278   */\n      0x00\n        /* \"#utility.yul\":15312:15314   */\n      0x20\n        /* \"#utility.yul\":15301:15310   */\n      dup3\n        /* \"#utility.yul\":15297:15315   */\n      add\n        /* \"#utility.yul\":15289:15315   */\n      swap1\n      pop\n        /* \"#utility.yul\":15361:15370   */\n      dup2\n        /* \"#utility.yul\":15355:15359   */\n      dup2\n        /* \"#utility.yul\":15351:15371   */\n      sub\n        /* \"#utility.yul\":15347:15348   */\n      0x00\n        /* \"#utility.yul\":15336:15345   */\n      dup4\n        /* \"#utility.yul\":15332:15349   */\n      add\n        /* \"#utility.yul\":15325:15372   */\n      mstore\n        /* \"#utility.yul\":15389:15517   */\n      tag_475\n        /* \"#utility.yul\":15512:15516   */\n      dup2\n        /* \"#utility.yul\":15503:15509   */\n      dup5\n        /* \"#utility.yul\":15389:15517   */\n      tag_372\n      jump\t// in\n    tag_475:\n        /* \"#utility.yul\":15381:15517   */\n      swap1\n      pop\n        /* \"#utility.yul\":15111:15524   */\n      swap3\n      swap2\n      pop\n      pop\n      jump\t// out\n        /* \"#utility.yul\":15530:15843   */\n    tag_31:\n        /* \"#utility.yul\":15643:15647   */\n      0x00\n        /* \"#utility.yul\":15681:15683   */\n      0x20\n        /* \"#utility.yul\":15670:15679   */\n      dup3\n        /* \"#utility.yul\":15666:15684   */\n      add\n        /* \"#utility.yul\":15658:15684   */\n      swap1\n      pop\n        /* \"#utility.yul\":15730:15739   */\n      dup2\n        /* \"#utility.yul\":15724:15728   */\n      dup2\n        /* \"#utility.yul\":15720:15740   */\n      sub\n        /* \"#utility.yul\":15716:15717   */\n      0x00\n        /* \"#utility.yul\":15705:15714   */\n      dup4\n        /* \"#utility.yul\":15701:15718   */\n      add\n        /* \"#utility.yul\":15694:15741   */\n      mstore\n        /* \"#utility.yul\":15758:15836   */\n      tag_477\n        /* \"#utility.yul\":15831:15835   */\n      dup2\n        /* \"#utility.yul\":15822:15828   */\n      dup5\n        /* \"#utility.yul\":15758:15836   */\n      tag_409\n      jump\t// in\n    tag_477:\n        /* \"#utility.yul\":15750:15836   */\n      swap1\n      pop\n        /* \"#utility.yul\":15530:15843   */\n      swap3\n      swap2\n      pop\n      pop\n      jump\t// out\n        /* \"#utility.yul\":15849:16268   */\n    tag_186:\n        /* \"#utility.yul\":16015:16019   */\n      0x00\n        /* \"#utility.yul\":16053:16055   */\n      0x20\n        /* \"#utility.yul\":16042:16051   */\n      dup3\n        /* \"#utility.yul\":16038:16056   */\n      add\n        /* \"#utility.yul\":16030:16056   */\n      swap1\n      pop\n        /* \"#utility.yul\":16102:16111   */\n      dup2\n        /* \"#utility.yul\":16096:16100   */\n      dup2\n        /* \"#utility.yul\":16092:16112   */\n      sub\n        /* \"#utility.yul\":16088:16089   */\n      0x00\n        /* \"#utility.yul\":16077:16086   */\n      dup4\n        /* \"#utility.yul\":16073:16090   */\n      add\n        /* \"#utility.yul\":16066:16113   */\n      mstore\n        /* \"#utility.yul\":16130:16261   */\n      tag_479\n        /* \"#utility.yul\":16256:16260   */\n      dup2\n        /* \"#utility.yul\":16130:16261   */\n      tag_434\n      jump\t// in\n    tag_479:\n        /* \"#utility.yul\":16122:16261   */\n      swap1\n      pop\n        /* \"#utility.yul\":15849:16268   */\n      swap2\n      swap1\n      pop\n      jump\t// out\n        /* \"#utility.yul\":16274:16693   */\n    tag_108:\n        /* \"#utility.yul\":16440:16444   */\n      0x00\n        /* \"#utility.yul\":16478:16480   */\n      0x20\n        /* \"#utility.yul\":16467:16476   */\n      dup3\n        /* \"#utility.yul\":16463:16481   */\n      add\n        /* \"#utility.yul\":16455:16481   */\n      swap1\n      pop\n        /* \"#utility.yul\":16527:16536   */\n      dup2\n        /* \"#utility.yul\":16521:16525   */\n      dup2\n        /* \"#utility.yul\":16517:16537   */\n      sub\n        /* \"#utility.yul\":16513:16514   */\n      0x00\n        /* \"#utility.yul\":16502:16511   */\n      dup4\n        /* \"#utility.yul\":16498:16515   */\n      add\n        /* \"#utility.yul\":16491:16538   */\n      mstore\n        /* \"#utility.yul\":16555:16686   */\n      tag_481\n        /* \"#utility.yul\":16681:16685   */\n      dup2\n        /* \"#utility.yul\":16555:16686   */\n      tag_439\n      jump\t// in\n    tag_481:\n        /* \"#utility.yul\":16547:16686   */\n      swap1\n      pop\n        /* \"#utility.yul\":16274:16693   */\n      swap2\n      swap1\n      pop\n      jump\t// out\n        /* \"#utility.yul\":16699:17118   */\n    tag_100:\n        /* \"#utility.yul\":16865:16869   */\n      0x00\n        /* \"#utility.yul\":16903:16905   */\n      0x20\n        /* \"#utility.yul\":16892:16901   */\n      dup3\n        /* \"#utility.yul\":16888:16906   */\n      add\n        /* \"#utility.yul\":16880:16906   */\n      swap1\n      pop\n        /* \"#utility.yul\":16952:16961   */\n      dup2\n        /* \"#utility.yul\":16946:16950   */\n      dup2\n        /* \"#utility.yul\":16942:16962   */\n      sub\n        /* \"#utility.yul\":16938:16939   */\n      0x00\n        /* \"#utility.yul\":16927:16936   */\n      dup4\n        /* \"#utility.yul\":16923:16940   */\n      add\n        /* \"#utility.yul\":16916:16963   */\n      mstore\n        /* \"#utility.yul\":16980:17111   */\n      tag_483\n        /* \"#utility.yul\":17106:17110   */\n      dup2\n        /* \"#utility.yul\":16980:17111   */\n      tag_444\n      jump\t// in\n    tag_483:\n        /* \"#utility.yul\":16972:17111   */\n      swap1\n      pop\n        /* \"#utility.yul\":16699:17118   */\n      swap2\n      swap1\n      pop\n      jump\t// out\n        /* \"#utility.yul\":17124:17253   */\n    tag_270:\n        /* \"#utility.yul\":17158:17164   */\n      0x00\n        /* \"#utility.yul\":17185:17205   */\n      tag_485\n      tag_486\n      jump\t// in\n    tag_485:\n        /* \"#utility.yul\":17175:17205   */\n      swap1\n      pop\n        /* \"#utility.yul\":17214:17247   */\n      tag_487\n        /* \"#utility.yul\":17242:17246   */\n      dup3\n        /* \"#utility.yul\":17234:17240   */\n      dup3\n        /* \"#utility.yul\":17214:17247   */\n      tag_488\n      jump\t// in\n    tag_487:\n        /* \"#utility.yul\":17124:17253   */\n      swap2\n      swap1\n      pop\n      jump\t// out\n        /* \"#utility.yul\":17259:17334   */\n    tag_486:\n        /* \"#utility.yul\":17292:17298   */\n      0x00\n        /* \"#utility.yul\":17325:17327   */\n      0x40\n        /* \"#utility.yul\":17319:17328   */\n      mload\n        /* \"#utility.yul\":17309:17328   */\n      swap1\n      pop\n        /* \"#utility.yul\":17259:17334   */\n      swap1\n      jump\t// out\n        /* \"#utility.yul\":17340:17648   */\n    tag_269:\n        /* \"#utility.yul\":17402:17406   */\n      0x00\n        /* \"#utility.yul\":17492:17510   */\n      0xffffffffffffffff\n        /* \"#utility.yul\":17484:17490   */\n      dup3\n        /* \"#utility.yul\":17481:17511   */\n      gt\n        /* \"#utility.yul\":17478:17534   */\n      iszero\n      tag_491\n      jumpi\n        /* \"#utility.yul\":17514:17532   */\n      tag_492\n      tag_493\n      jump\t// in\n    tag_492:\n        /* \"#utility.yul\":17478:17534   */\n    tag_491:\n        /* \"#utility.yul\":17552:17581   */\n      tag_494\n        /* \"#utility.yul\":17574:17580   */\n      dup3\n        /* \"#utility.yul\":17552:17581   */\n      tag_408\n      jump\t// in\n    tag_494:\n        /* \"#utility.yul\":17544:17581   */\n      swap1\n      pop\n        /* \"#utility.yul\":17636:17640   */\n      0x20\n        /* \"#utility.yul\":17630:17634   */\n      dup2\n        /* \"#utility.yul\":17626:17641   */\n      add\n        /* \"#utility.yul\":17618:17641   */\n      swap1\n      pop\n        /* \"#utility.yul\":17340:17648   */\n      swap2\n      swap1\n      pop\n      jump\t// out\n        /* \"#utility.yul\":17654:17786   */\n    tag_365:\n        /* \"#utility.yul\":17721:17725   */\n      0x00\n        /* \"#utility.yul\":17744:17747   */\n      dup2\n        /* \"#utility.yul\":17736:17747   */\n      swap1\n      pop\n        /* \"#utility.yul\":17774:17778   */\n      0x20\n        /* \"#utility.yul\":17769:17772   */\n      dup3\n        /* \"#utility.yul\":17765:17779   */\n      add\n        /* \"#utility.yul\":17757:17779   */\n      swap1\n      pop\n        /* \"#utility.yul\":17654:17786   */\n      swap2\n      swap1\n      pop\n      jump\t// out\n        /* \"#utility.yul\":17792:17934   */\n    tag_379:\n        /* \"#utility.yul\":17869:17873   */\n      0x00\n        /* \"#utility.yul\":17892:17895   */\n      dup2\n        /* \"#utility.yul\":17884:17895   */\n      swap1\n      pop\n        /* \"#utility.yul\":17922:17926   */\n      0x20\n        /* \"#utility.yul\":17917:17920   */\n      dup3\n        /* \"#utility.yul\":17913:17927   */\n      add\n        /* \"#utility.yul\":17905:17927   */\n      swap1\n      pop\n        /* \"#utility.yul\":17792:17934   */\n      swap2\n      swap1\n      pop\n      jump\t// out\n        /* \"#utility.yul\":17940:18039   */\n    tag_393:\n        /* \"#utility.yul\":18006:18010   */\n      0x00\n        /* \"#utility.yul\":18029:18032   */\n      dup2\n        /* \"#utility.yul\":18021:18032   */\n      swap1\n      pop\n        /* \"#utility.yul\":17940:18039   */\n      swap2\n      swap1\n      pop\n      jump\t// out\n        /* \"#utility.yul\":18045:18186   */\n    tag_430:\n        /* \"#utility.yul\":18094:18098   */\n      0x00\n        /* \"#utility.yul\":18117:18120   */\n      dup2\n        /* \"#utility.yul\":18109:18120   */\n      swap1\n      pop\n        /* \"#utility.yul\":18140:18143   */\n      dup2\n        /* \"#utility.yul\":18137:18138   */\n      0x00\n        /* \"#utility.yul\":18130:18144   */\n      mstore\n        /* \"#utility.yul\":18174:18178   */\n      0x20\n        /* \"#utility.yul\":18171:18172   */\n      0x00\n        /* \"#utility.yul\":18161:18179   */\n      keccak256\n        /* \"#utility.yul\":18153:18179   */\n      swap1\n      pop\n        /* \"#utility.yul\":18045:18186   */\n      swap2\n      swap1\n      pop\n      jump\t// out\n        /* \"#utility.yul\":18192:18306   */\n    tag_361:\n        /* \"#utility.yul\":18259:18265   */\n      0x00\n        /* \"#utility.yul\":18293:18298   */\n      dup2\n        /* \"#utility.yul\":18287:18299   */\n      mload\n        /* \"#utility.yul\":18277:18299   */\n      swap1\n      pop\n        /* \"#utility.yul\":18192:18306   */\n      swap2\n      swap1\n      pop\n      jump\t// out\n        /* \"#utility.yul\":18312:18436   */\n    tag_375:\n        /* \"#utility.yul\":18389:18395   */\n      0x00\n        /* \"#utility.yul\":18423:18428   */\n      dup2\n        /* \"#utility.yul\":18417:18429   */\n      mload\n        /* \"#utility.yul\":18407:18429   */\n      swap1\n      pop\n        /* \"#utility.yul\":18312:18436   */\n      swap2\n      swap1\n      pop\n      jump\t// out\n        /* \"#utility.yul\":18442:18547   */\n    tag_389:\n        /* \"#utility.yul\":18508:18514   */\n      0x00\n        /* \"#utility.yul\":18536:18540   */\n      0x2d\n        /* \"#utility.yul\":18526:18540   */\n      swap1\n      pop\n        /* \"#utility.yul\":18442:18547   */\n      swap2\n      swap1\n      pop\n      jump\t// out\n        /* \"#utility.yul\":18553:18652   */\n    tag_402:\n        /* \"#utility.yul\":18605:18611   */\n      0x00\n        /* \"#utility.yul\":18639:18644   */\n      dup2\n        /* \"#utility.yul\":18633:18645   */\n      mload\n        /* \"#utility.yul\":18623:18645   */\n      swap1\n      pop\n        /* \"#utility.yul\":18553:18652   */\n      swap2\n      swap1\n      pop\n      jump\t// out\n        /* \"#utility.yul\":18658:18771   */\n    tag_371:\n        /* \"#utility.yul\":18728:18732   */\n      0x00\n        /* \"#utility.yul\":18760:18764   */\n      0x20\n        /* \"#utility.yul\":18755:18758   */\n      dup3\n        /* \"#utility.yul\":18751:18765   */\n      add\n        /* \"#utility.yul\":18743:18765   */\n      swap1\n      pop\n        /* \"#utility.yul\":18658:18771   */\n      swap2\n      swap1\n      pop\n      jump\t// out\n        /* \"#utility.yul\":18777:18900   */\n    tag_385:\n        /* \"#utility.yul\":18857:18861   */\n      0x00\n        /* \"#utility.yul\":18889:18893   */\n      0x20\n        /* \"#utility.yul\":18884:18887   */\n      dup3\n        /* \"#utility.yul\":18880:18894   */\n      add\n        /* \"#utility.yul\":18872:18894   */\n      swap1\n      pop\n        /* \"#utility.yul\":18777:18900   */\n      swap2\n      swap1\n      pop\n      jump\t// out\n        /* \"#utility.yul\":18906:19018   */\n    tag_399:\n        /* \"#utility.yul\":18975:18979   */\n      0x00\n        /* \"#utility.yul\":19007:19011   */\n      0x20\n        /* \"#utility.yul\":19002:19005   */\n      dup3\n        /* \"#utility.yul\":18998:19012   */\n      add\n        /* \"#utility.yul\":18990:19012   */\n      swap1\n      pop\n        /* \"#utility.yul\":18906:19018   */\n      swap2\n      swap1\n      pop\n      jump\t// out\n        /* \"#utility.yul\":19024:19208   */\n    tag_363:\n        /* \"#utility.yul\":19123:19134   */\n      0x00\n        /* \"#utility.yul\":19157:19163   */\n      dup3\n        /* \"#utility.yul\":19152:19155   */\n      dup3\n        /* \"#utility.yul\":19145:19164   */\n      mstore\n        /* \"#utility.yul\":19197:19201   */\n      0x20\n        /* \"#utility.yul\":19192:19195   */\n      dup3\n        /* \"#utility.yul\":19188:19202   */\n      add\n        /* \"#utility.yul\":19173:19202   */\n      swap1\n      pop\n        /* \"#utility.yul\":19024:19208   */\n      swap3\n      swap2\n      pop\n      pop\n      jump\t// out\n        /* \"#utility.yul\":19214:19408   */\n    tag_377:\n        /* \"#utility.yul\":19323:19334   */\n      0x00\n        /* \"#utility.yul\":19357:19363   */\n      dup3\n        /* \"#utility.yul\":19352:19355   */\n      dup3\n        /* \"#utility.yul\":19345:19364   */\n      mstore\n        /* \"#utility.yul\":19397:19401   */\n      0x20\n        /* \"#utility.yul\":19392:19395   */\n      dup3\n        /* \"#utility.yul\":19388:19402   */\n      add\n        /* \"#utility.yul\":19373:19402   */\n      swap1\n      pop\n        /* \"#utility.yul\":19214:19408   */\n      swap3\n      swap2\n      pop\n      pop\n      jump\t// out\n        /* \"#utility.yul\":19414:19558   */\n    tag_391:\n        /* \"#utility.yul\":19512:19523   */\n      0x00\n        /* \"#utility.yul\":19549:19552   */\n      dup2\n        /* \"#utility.yul\":19534:19552   */\n      swap1\n      pop\n        /* \"#utility.yul\":19414:19558   */\n      swap3\n      swap2\n      pop\n      pop\n      jump\t// out\n        /* \"#utility.yul\":19564:19723   */\n    tag_404:\n        /* \"#utility.yul\":19638:19649   */\n      0x00\n        /* \"#utility.yul\":19672:19678   */\n      dup3\n        /* \"#utility.yul\":19667:19670   */\n      dup3\n        /* \"#utility.yul\":19660:19679   */\n      mstore\n        /* \"#utility.yul\":19712:19716   */\n      0x20\n        /* \"#utility.yul\":19707:19710   */\n      dup3\n        /* \"#utility.yul\":19703:19717   */\n      add\n        /* \"#utility.yul\":19688:19717   */\n      swap1\n      pop\n        /* \"#utility.yul\":19564:19723   */\n      swap3\n      swap2\n      pop\n      pop\n      jump\t// out\n        /* \"#utility.yul\":19729:19898   */\n    tag_413:\n        /* \"#utility.yul\":19813:19824   */\n      0x00\n        /* \"#utility.yul\":19847:19853   */\n      dup3\n        /* \"#utility.yul\":19842:19845   */\n      dup3\n        /* \"#utility.yul\":19835:19854   */\n      mstore\n        /* \"#utility.yul\":19887:19891   */\n      0x20\n        /* \"#utility.yul\":19882:19885   */\n      dup3\n        /* \"#utility.yul\":19878:19892   */\n      add\n        /* \"#utility.yul\":19863:19892   */\n      swap1\n      pop\n        /* \"#utility.yul\":19729:19898   */\n      swap3\n      swap2\n      pop\n      pop\n      jump\t// out\n        /* \"#utility.yul\":19904:20052   */\n    tag_420:\n        /* \"#utility.yul\":20006:20017   */\n      0x00\n        /* \"#utility.yul\":20043:20046   */\n      dup2\n        /* \"#utility.yul\":20028:20046   */\n      swap1\n      pop\n        /* \"#utility.yul\":19904:20052   */\n      swap3\n      swap2\n      pop\n      pop\n      jump\t// out\n        /* \"#utility.yul\":20058:20154   */\n    tag_354:\n        /* \"#utility.yul\":20095:20102   */\n      0x00\n        /* \"#utility.yul\":20124:20148   */\n      tag_513\n        /* \"#utility.yul\":20142:20147   */\n      dup3\n        /* \"#utility.yul\":20124:20148   */\n      tag_514\n      jump\t// in\n    tag_513:\n        /* \"#utility.yul\":20113:20148   */\n      swap1\n      pop\n        /* \"#utility.yul\":20058:20154   */\n      swap2\n      swap1\n      pop\n      jump\t// out\n        /* \"#utility.yul\":20160:20286   */\n    tag_514:\n        /* \"#utility.yul\":20197:20204   */\n      0x00\n        /* \"#utility.yul\":20237:20279   */\n      0xffffffffffffffffffffffffffffffffffffffff\n        /* \"#utility.yul\":20230:20235   */\n      dup3\n        /* \"#utility.yul\":20226:20280   */\n      and\n        /* \"#utility.yul\":20215:20280   */\n      swap1\n      pop\n        /* \"#utility.yul\":20160:20286   */\n      swap2\n      swap1\n      pop\n      jump\t// out\n        /* \"#utility.yul\":20292:20369   */\n    tag_451:\n        /* \"#utility.yul\":20329:20336   */\n      0x00\n        /* \"#utility.yul\":20358:20363   */\n      dup2\n        /* \"#utility.yul\":20347:20363   */\n      swap1\n      pop\n        /* \"#utility.yul\":20292:20369   */\n      swap2\n      swap1\n      pop\n      jump\t// out\n        /* \"#utility.yul\":20375:20529   */\n    tag_275:\n        /* \"#utility.yul\":20459:20465   */\n      dup3\n        /* \"#utility.yul\":20454:20457   */\n      dup2\n        /* \"#utility.yul\":20449:20452   */\n      dup4\n        /* \"#utility.yul\":20436:20466   */\n      calldatacopy\n        /* \"#utility.yul\":20521:20522   */\n      0x00\n        /* \"#utility.yul\":20512:20518   */\n      dup4\n        /* \"#utility.yul\":20507:20510   */\n      dup4\n        /* \"#utility.yul\":20503:20519   */\n      add\n        /* \"#utility.yul\":20496:20523   */\n      mstore\n        /* \"#utility.yul\":20375:20529   */\n      pop\n      pop\n      pop\n      jump\t// out\n        /* \"#utility.yul\":20535:20842   */\n    tag_406:\n        /* \"#utility.yul\":20603:20604   */\n      0x00\n        /* \"#utility.yul\":20613:20726   */\n    tag_519:\n        /* \"#utility.yul\":20627:20633   */\n      dup4\n        /* \"#utility.yul\":20624:20625   */\n      dup2\n        /* \"#utility.yul\":20621:20634   */\n      lt\n        /* \"#utility.yul\":20613:20726   */\n      iszero\n      tag_521\n      jumpi\n        /* \"#utility.yul\":20712:20713   */\n      dup1\n        /* \"#utility.yul\":20707:20710   */\n      dup3\n        /* \"#utility.yul\":20703:20714   */\n      add\n        /* \"#utility.yul\":20697:20715   */\n      mload\n        /* \"#utility.yul\":20693:20694   */\n      dup2\n        /* \"#utility.yul\":20688:20691   */\n      dup5\n        /* \"#utility.yul\":20684:20695   */\n      add\n        /* \"#utility.yul\":20677:20716   */\n      mstore\n        /* \"#utility.yul\":20649:20651   */\n      0x20\n        /* \"#utility.yul\":20646:20647   */\n      dup2\n        /* \"#utility.yul\":20642:20652   */\n      add\n        /* \"#utility.yul\":20637:20652   */\n      swap1\n      pop\n        /* \"#utility.yul\":20613:20726   */\n      jump(tag_519)\n    tag_521:\n        /* \"#utility.yul\":20744:20750   */\n      dup4\n        /* \"#utility.yul\":20741:20742   */\n      dup2\n        /* \"#utility.yul\":20738:20751   */\n      gt\n        /* \"#utility.yul\":20735:20836   */\n      iszero\n      tag_522\n      jumpi\n        /* \"#utility.yul\":20824:20825   */\n      0x00\n        /* \"#utility.yul\":20815:20821   */\n      dup5\n        /* \"#utility.yul\":20810:20813   */\n      dup5\n        /* \"#utility.yul\":20806:20822   */\n      add\n        /* \"#utility.yul\":20799:20826   */\n      mstore\n        /* \"#utility.yul\":20735:20836   */\n    tag_522:\n        /* \"#utility.yul\":20584:20842   */\n      pop\n        /* \"#utility.yul\":20535:20842   */\n      pop\n      pop\n      pop\n      jump\t// out\n        /* \"#utility.yul\":20848:21168   */\n    tag_97:\n        /* \"#utility.yul\":20892:20898   */\n      0x00\n        /* \"#utility.yul\":20929:20930   */\n      0x02\n        /* \"#utility.yul\":20923:20927   */\n      dup3\n        /* \"#utility.yul\":20919:20931   */\n      div\n        /* \"#utility.yul\":20909:20931   */\n      swap1\n      pop\n        /* \"#utility.yul\":20976:20977   */\n      0x01\n        /* \"#utility.yul\":20970:20974   */\n      dup3\n        /* \"#utility.yul\":20966:20978   */\n      and\n        /* \"#utility.yul\":20997:21015   */\n      dup1\n        /* \"#utility.yul\":20987:21068   */\n      tag_524\n      jumpi\n        /* \"#utility.yul\":21053:21057   */\n      0x7f\n        /* \"#utility.yul\":21045:21051   */\n      dup3\n        /* \"#utility.yul\":21041:21058   */\n      and\n        /* \"#utility.yul\":21031:21058   */\n      swap2\n      pop\n        /* \"#utility.yul\":20987:21068   */\n    tag_524:\n        /* \"#utility.yul\":21115:21117   */\n      0x20\n        /* \"#utility.yul\":21107:21113   */\n      dup3\n        /* \"#utility.yul\":21104:21118   */\n      lt\n        /* \"#utility.yul\":21084:21102   */\n      dup2\n        /* \"#utility.yul\":21081:21119   */\n      eq\n        /* \"#utility.yul\":21078:21162   */\n      iszero\n      tag_525\n      jumpi\n        /* \"#utility.yul\":21134:21152   */\n      tag_526\n      tag_527\n      jump\t// in\n    tag_526:\n        /* \"#utility.yul\":21078:21162   */\n    tag_525:\n        /* \"#utility.yul\":20899:21168   */\n      pop\n        /* \"#utility.yul\":20848:21168   */\n      swap2\n      swap1\n      pop\n      jump\t// out\n        /* \"#utility.yul\":21174:21455   */\n    tag_488:\n        /* \"#utility.yul\":21257:21284   */\n      tag_529\n        /* \"#utility.yul\":21279:21283   */\n      dup3\n        /* \"#utility.yul\":21257:21284   */\n      tag_408\n      jump\t// in\n    tag_529:\n        /* \"#utility.yul\":21249:21255   */\n      dup2\n        /* \"#utility.yul\":21245:21285   */\n      add\n        /* \"#utility.yul\":21387:21393   */\n      dup2\n        /* \"#utility.yul\":21375:21385   */\n      dup2\n        /* \"#utility.yul\":21372:21394   */\n      lt\n        /* \"#utility.yul\":21351:21369   */\n      0xffffffffffffffff\n        /* \"#utility.yul\":21339:21349   */\n      dup3\n        /* \"#utility.yul\":21336:21370   */\n      gt\n        /* \"#utility.yul\":21333:21395   */\n      or\n        /* \"#utility.yul\":21330:21418   */\n      iszero\n      tag_530\n      jumpi\n        /* \"#utility.yul\":21398:21416   */\n      tag_531\n      tag_493\n      jump\t// in\n    tag_531:\n        /* \"#utility.yul\":21330:21418   */\n    tag_530:\n        /* \"#utility.yul\":21438:21448   */\n      dup1\n        /* \"#utility.yul\":21434:21436   */\n      0x40\n        /* \"#utility.yul\":21427:21449   */\n      mstore\n        /* \"#utility.yul\":21217:21455   */\n      pop\n        /* \"#utility.yul\":21174:21455   */\n      pop\n      pop\n      jump\t// out\n        /* \"#utility.yul\":21461:21694   */\n    tag_159:\n        /* \"#utility.yul\":21500:21503   */\n      0x00\n        /* \"#utility.yul\":21523:21547   */\n      tag_533\n        /* \"#utility.yul\":21541:21546   */\n      dup3\n        /* \"#utility.yul\":21523:21547   */\n      tag_451\n      jump\t// in\n    tag_533:\n        /* \"#utility.yul\":21514:21547   */\n      swap2\n      pop\n        /* \"#utility.yul\":21569:21635   */\n      0xffffffffffffffffffffffffffffffffffffffffffffffffffffffffffffffff\n        /* \"#utility.yul\":21562:21567   */\n      dup3\n        /* \"#utility.yul\":21559:21636   */\n      eq\n        /* \"#utility.yul\":21556:21659   */\n      iszero\n      tag_534\n      jumpi\n        /* \"#utility.yul\":21639:21657   */\n      tag_535\n      tag_536\n      jump\t// in\n    tag_535:\n        /* \"#utility.yul\":21556:21659   */\n    tag_534:\n        /* \"#utility.yul\":21686:21687   */\n      0x01\n        /* \"#utility.yul\":21679:21684   */\n      dup3\n        /* \"#utility.yul\":21675:21688   */\n      add\n        /* \"#utility.yul\":21668:21688   */\n      swap1\n      pop\n        /* \"#utility.yul\":21461:21694   */\n      swap2\n      swap1\n      pop\n      jump\t// out\n        /* \"#utility.yul\":21700:21880   */\n    tag_536:\n        /* \"#utility.yul\":21748:21825   */\n      0x4e487b7100000000000000000000000000000000000000000000000000000000\n        /* \"#utility.yul\":21745:21746   */\n      0x00\n        /* \"#utility.yul\":21738:21826   */\n      mstore\n        /* \"#utility.yul\":21845:21849   */\n      0x11\n        /* \"#utility.yul\":21842:21843   */\n      0x04\n        /* \"#utility.yul\":21835:21850   */\n      mstore\n        /* \"#utility.yul\":21869:21873   */\n      0x24\n        /* \"#utility.yul\":21866:21867   */\n      0x00\n        /* \"#utility.yul\":21859:21874   */\n      revert\n        /* \"#utility.yul\":21886:22066   */\n    tag_527:\n        /* \"#utility.yul\":21934:22011   */\n      0x4e487b7100000000000000000000000000000000000000000000000000000000\n        /* \"#utility.yul\":21931:21932   */\n      0x00\n        /* \"#utility.yul\":21924:22012   */\n      mstore\n        /* \"#utility.yul\":22031:22035   */\n      0x22\n        /* \"#utility.yul\":22028:22029   */\n      0x04\n        /* \"#utility.yul\":22021:22036   */\n      mstore\n        /* \"#utility.yul\":22055:22059   */\n      0x24\n        /* \"#utility.yul\":22052:22053   */\n      0x00\n        /* \"#utility.yul\":22045:22060   */\n      revert\n        /* \"#utility.yul\":22072:22252   */\n    tag_104:\n        /* \"#utility.yul\":22120:22197   */\n      0x4e487b7100000000000000000000000000000000000000000000000000000000\n        /* \"#utility.yul\":22117:22118   */\n      0x00\n        /* \"#utility.yul\":22110:22198   */\n      mstore\n        /* \"#utility.yul\":22217:22221   */\n      0x32\n        /* \"#utility.yul\":22214:22215   */\n      0x04\n        /* \"#utility.yul\":22207:22222   */\n      mstore\n        /* \"#utility.yul\":22241:22245   */\n      0x24\n        /* \"#utility.yul\":22238:22239   */\n      0x00\n        /* \"#utility.yul\":22231:22246   */\n      revert\n        /* \"#utility.yul\":22258:22438   */\n    tag_493:\n        /* \"#utility.yul\":22306:22383   */\n      0x4e487b7100000000000000000000000000000000000000000000000000000000\n        /* \"#utility.yul\":22303:22304   */\n      0x00\n        /* \"#utility.yul\":22296:22384   */\n      mstore\n        /* \"#utility.yul\":22403:22407   */\n      0x41\n        /* \"#utility.yul\":22400:22401   */\n      0x04\n        /* \"#utility.yul\":22393:22408   */\n      mstore\n        /* \"#utility.yul\":22427:22431   */\n      0x24\n        /* \"#utility.yul\":22424:22425   */\n      0x00\n        /* \"#utility.yul\":22417:22432   */\n      revert\n        /* \"#utility.yul\":22444:22561   */\n    tag_284:\n        /* \"#utility.yul\":22553:22554   */\n      0x00\n        /* \"#utility.yul\":22550:22551   */\n      dup1\n        /* \"#utility.yul\":22543:22555   */\n      revert\n        /* \"#utility.yul\":22567:22684   */\n    tag_273:\n        /* \"#utility.yul\":22676:22677   */\n      0x00\n        /* \"#utility.yul\":22673:22674   */\n      dup1\n        /* \"#utility.yul\":22666:22678   */\n      revert\n        /* \"#utility.yul\":22690:22807   */\n    tag_301:\n        /* \"#utility.yul\":22799:22800   */\n      0x00\n        /* \"#utility.yul\":22796:22797   */\n      dup1\n        /* \"#utility.yul\":22789:22801   */\n      revert\n        /* \"#utility.yul\":22813:22930   */\n    tag_293:\n        /* \"#utility.yul\":22922:22923   */\n      0x00\n        /* \"#utility.yul\":22919:22920   */\n      dup1\n        /* \"#utility.yul\":22912:22924   */\n      revert\n        /* \"#utility.yul\":22936:23038   */\n    tag_408:\n        /* \"#utility.yul\":22977:22983   */\n      0x00\n        /* \"#utility.yul\":23028:23030   */\n      0x1f\n        /* \"#utility.yul\":23024:23031   */\n      not\n        /* \"#utility.yul\":23019:23021   */\n      0x1f\n        /* \"#utility.yul\":23012:23017   */\n      dup4\n        /* \"#utility.yul\":23008:23022   */\n      add\n        /* \"#utility.yul\":23004:23032   */\n      and\n        /* \"#utility.yul\":22994:23032   */\n      swap1\n      pop\n        /* \"#utility.yul\":22936:23038   */\n      swap2\n      swap1\n      pop\n      jump\t// out\n        /* \"#utility.yul\":23044:23213   */\n    tag_438:\n        /* \"#utility.yul\":23184:23205   */\n      0x5468657265206973206e6f2053747564656e7400000000000000000000000000\n        /* \"#utility.yul\":23180:23181   */\n      0x00\n        /* \"#utility.yul\":23172:23178   */\n      dup3\n        /* \"#utility.yul\":23168:23182   */\n      add\n        /* \"#utility.yul\":23161:23206   */\n      mstore\n        /* \"#utility.yul\":23044:23213   */\n      pop\n      jump\t// out\n        /* \"#utility.yul\":23219:23390   */\n    tag_443:\n        /* \"#utility.yul\":23359:23382   */\n      0x4974277320616c72656164792072657365727665640000000000000000000000\n        /* \"#utility.yul\":23355:23356   */\n      0x00\n        /* \"#utility.yul\":23347:23353   */\n      dup3\n        /* \"#utility.yul\":23343:23357   */\n      add\n        /* \"#utility.yul\":23336:23383   */\n      mstore\n        /* \"#utility.yul\":23219:23390   */\n      pop\n      jump\t// out\n        /* \"#utility.yul\":23396:23561   */\n    tag_448:\n        /* \"#utility.yul\":23536:23553   */\n      0x5468657265206973206e6f204255530000000000000000000000000000000000\n        /* \"#utility.yul\":23532:23533   */\n      0x00\n        /* \"#utility.yul\":23524:23530   */\n      dup3\n        /* \"#utility.yul\":23520:23534   */\n      add\n        /* \"#utility.yul\":23513:23554   */\n      mstore\n        /* \"#utility.yul\":23396:23561   */\n      pop\n      jump\t// out\n        /* \"#utility.yul\":23567:23689   */\n    tag_279:\n        /* \"#utility.yul\":23640:23664   */\n      tag_550\n        /* \"#utility.yul\":23658:23663   */\n      dup2\n        /* \"#utility.yul\":23640:23664   */\n      tag_354\n      jump\t// in\n    tag_550:\n        /* \"#utility.yul\":23633:23638   */\n      dup2\n        /* \"#utility.yul\":23630:23665   */\n      eq\n        /* \"#utility.yul\":23620:23683   */\n      tag_551\n      jumpi\n        /* \"#utility.yul\":23679:23680   */\n      0x00\n        /* \"#utility.yul\":23676:23677   */\n      dup1\n        /* \"#utility.yul\":23669:23681   */\n      revert\n        /* \"#utility.yul\":23620:23683   */\n    tag_551:\n        /* \"#utility.yul\":23567:23689   */\n      pop\n      jump\t// out\n        /* \"#utility.yul\":23695:23817   */\n    tag_289:\n        /* \"#utility.yul\":23768:23792   */\n      tag_553\n        /* \"#utility.yul\":23786:23791   */\n      dup2\n        /* \"#utility.yul\":23768:23792   */\n      tag_451\n      jump\t// in\n    tag_553:\n        /* \"#utility.yul\":23761:23766   */\n      dup2\n        /* \"#utility.yul\":23758:23793   */\n      eq\n        /* \"#utility.yul\":23748:23811   */\n      tag_554\n      jumpi\n        /* \"#utility.yul\":23807:23808   */\n      0x00\n        /* \"#utility.yul\":23804:23805   */\n      dup1\n        /* \"#utility.yul\":23797:23809   */\n      revert\n        /* \"#utility.yul\":23748:23811   */\n    tag_554:\n        /* \"#utility.yul\":23695:23817   */\n      pop\n      jump\t// out\n\n    auxdata: 0xa2646970667358221220cd9a6a2d4bd92f06fd1b3e383a5b35e4f300f9154c22c86354a6d16bc53a6dd764736f6c63430008070033\n}\n",
				"bytecode": {
					"linkReferences": {},
					"object": "608060405234801561001057600080fd5b50336000806101000a81548173ffffffffffffffffffffffffffffffffffffffff021916908373ffffffffffffffffffffffffffffffffffffffff160217905550612074806100606000396000f3fe608060405234801561001057600080fd5b50600436106100ce5760003560e01c8063642f91631161008c578063b645307d11610066578063b645307d14610229578063c56700c114610259578063dbd5c3561461028a578063f041f73f146102ba576100ce565b8063642f9163146101a757806375285b65146101d857806380e1127b146101f6576100ce565b80629a4d3c146100d3578063133d0460146100ef5780632bf4ef721461010d5780632c52f03e1461013d5780636269ba341461015957806362a8016214610177575b600080fd5b6100ed60048036038101906100e8919061157d565b6102d6565b005b6100f761046c565b6040516101049190611b82565b60405180910390f35b610127600480360381019061012291906116ee565b6104fa565b6040516101349190611bc6565b60405180910390f35b61015760048036038101906101529190611665565b61065c565b005b610161610698565b60405161016e9190611ba4565b60405180910390f35b610191600480360381019061018c919061161c565b610771565b60405161019e9190611bc6565b60405180910390f35b6101c160048036038101906101bc91906116c1565b6109dc565b6040516101cf929190611b05565b60405180910390f35b6101e0610acb565b6040516101ed9190611b82565b60405180910390f35b610210600480360381019061020b919061161c565b610b59565b6040516102209493929190611b35565b60405180910390f35b610243600480360381019061023e91906116c1565b610cf9565b6040516102509190611bc6565b60405180910390f35b610273600480360381019061026e91906114e1565b610e99565b604051610281929190611adb565b60405180910390f35b6102a4600480360381019061029f91906116c1565b61108f565b6040516102b19190611ac0565b60405180910390f35b6102d460048036038101906102cf919061150e565b6110d4565b005b6102de6112ee565b6102e66112ee565b90506001859080600181540180825580915050600190039060005260206000200160009091909190916101000a81548173ffffffffffffffffffffffffffffffffffffffff021916908373ffffffffffffffffffffffffffffffffffffffff160217905550600382908060018154018082558091505060019003906000526020600020016000909190919091509080519060200190610386929190611311565b5060405180608001604052808673ffffffffffffffffffffffffffffffffffffffff168152602001858152602001848152602001828152506005836040516103ce9190611a92565b908152602001604051809103902060008201518160000160006101000a81548173ffffffffffffffffffffffffffffffffffffffff021916908373ffffffffffffffffffffffffffffffffffffffff160217905550602082015181600101908051906020019061043f929190611311565b506040820151816002015560608201518160030190602d610461929190611397565b509050505050505050565b606060028054806020026020016040519081016040528092919081815260200182805480156104f057602002820191906000526020600020905b8160009054906101000a900473ffffffffffffffffffffffffffffffffffffffff1673ffffffffffffffffffffffffffffffffffffffff16815260200190600101908083116104a6575b5050505050905090565b6060600060058460405161050e9190611a92565b9081526020016040518091039020600101805461052a90611e08565b9050141561056d576040517f08c379a000000000000000000000000000000000000000000000000000000000815260040161056490611c28565b60405180910390fd5b600060058460405161057f9190611a92565b908152602001604051809103902060030183602d81106105a2576105a1611f12565b5b0154146105e4576040517f08c379a00000000000000000000000000000000000000000000000000000000081526004016105db90611c08565b60405180910390fd5b836005846040516105f59190611a92565b908152602001604051809103902060030183602d811061061857610617611f12565b5b01819055506040518060400160405280601381526020017f5265736572766174696f6e20737563636573730000000000000000000000000081525090509392505050565b60058260405161066c9190611a92565b908152602001604051809103902060030181602d811061068f5761068e611f12565b5b01600090555050565b60606003805480602002602001604051908101604052809291908181526020016000905b828210156107685783829060005260206000200180546106db90611e08565b80601f016020809104026020016040519081016040528092919081815260200182805461070790611e08565b80156107545780601f1061072957610100808354040283529160200191610754565b820191906000526020600020905b81548152906001019060200180831161073757829003601f168201915b5050505050815260200190600101906106bc565b50505050905090565b606060006005836040516107859190611a92565b908152602001604051809103902060010180546107a190611e08565b905014156107e4576040517f08c379a00000000000000000000000000000000000000000000000000000000081526004016107db90611c28565b60405180910390fd5b6005826040516107f49190611a92565b9081526020016040518091039020600080820160006101000a81549073ffffffffffffffffffffffffffffffffffffffff021916905560018201600061083a91906113d7565b60028201600090556003820160006108529190611417565b505060005b60038054905081101561099e5760006003828154811061087a57610879611f12565b5b90600052602060002001805461088f90611e08565b80601f01602080910402602001604051908101604052809291908181526020018280546108bb90611e08565b80156109085780601f106108dd57610100808354040283529160200191610908565b820191906000526020600020905b8154815290600101906020018083116108eb57829003601f168201915b50505050509050610919818561120a565b1561098a576003828154811061093257610931611f12565b5b90600052602060002001600061094891906113d7565b6001828154811061095c5761095b611f12565b5b9060005260206000200160006101000a81549073ffffffffffffffffffffffffffffffffffffffff02191690555b50808061099690611e6b565b915050610857565b506040518060400160405280600e81526020017f44656c65746520737563636573730000000000000000000000000000000000008152509050919050565b6000606060006006600085815260200190815260200160002060010160009054906101000a900473ffffffffffffffffffffffffffffffffffffffff1690506000600660008681526020019081526020016000206000018054610a3e90611e08565b80601f0160208091040260200160405190810160405280929190818152602001828054610a6a90611e08565b8015610ab75780601f10610a8c57610100808354040283529160200191610ab7565b820191906000526020600020905b815481529060010190602001808311610a9a57829003601f168201915b505050505090508181935093505050915091565b60606001805480602002602001604051908101604052809291908181526020018280548015610b4f57602002820191906000526020600020905b8160009054906101000a900473ffffffffffffffffffffffffffffffffffffffff1673ffffffffffffffffffffffffffffffffffffffff1681526020019060010190808311610b05575b5050505050905090565b600060606000610b676112ee565b6000600586604051610b799190611a92565b908152602001604051809103902060000160009054906101000a900473ffffffffffffffffffffffffffffffffffffffff1690506000600587604051610bbf9190611a92565b90815260200160405180910390206001018054610bdb90611e08565b80601f0160208091040260200160405190810160405280929190818152602001828054610c0790611e08565b8015610c545780601f10610c2957610100808354040283529160200191610c54565b820191906000526020600020905b815481529060010190602001808311610c3757829003601f168201915b505050505090506000600588604051610c6d9190611a92565b90815260200160405180910390206002015490506000600589604051610c939190611a92565b9081526020016040518091039020600301602d806020026040519081016040528092919082602d8015610cdb576020028201915b815481526020019060010190808311610cc7575b50505050509050838383839750975097509750505050509193509193565b60606000600660008481526020019081526020016000206000018054610d1e90611e08565b90501415610d61576040517f08c379a0000000000000000000000000000000000000000000000000000000008152600401610d5890611be8565b60405180910390fd5b6006600083815260200190815260200160002060008082016000610d8591906113d7565b6001820160006101000a81549073ffffffffffffffffffffffffffffffffffffffff0219169055505060005b600480549050811015610e5b578260048281548110610dd357610dd2611f12565b5b90600052602060002001541415610e485760048181548110610df857610df7611f12565b5b906000526020600020016000905560028181548110610e1a57610e19611f12565b5b9060005260206000200160006101000a81549073ffffffffffffffffffffffffffffffffffffffff02191690555b8080610e5390611e6b565b915050610db1565b506040518060400160405280600e81526020017f44656c65746520737563636573730000000000000000000000000000000000008152509050919050565b6000610ea36112ee565b60005b600380549050811015611088578373ffffffffffffffffffffffffffffffffffffffff16600560038381548110610ee057610edf611f12565b5b90600052602060002001604051610ef79190611aa9565b908152602001604051809103902060000160009054906101000a900473ffffffffffffffffffffffffffffffffffffffff1673ffffffffffffffffffffffffffffffffffffffff16141561107557600560038281548110610f5b57610f5a611f12565b5b90600052602060002001604051610f729190611aa9565b90815260200160405180910390206003016000610f8f9190611417565b600560038281548110610fa557610fa4611f12565b5b90600052602060002001604051610fbc9190611aa9565b908152602001604051809103902060000160009054906101000a900473ffffffffffffffffffffffffffffffffffffffff1660056003838154811061100457611003611f12565b5b9060005260206000200160405161101b9190611aa9565b908152602001604051809103902060030180602d806020026040519081016040528092919082602d8015611064576020028201915b815481526020019060010190808311611050575b50505050509050925092505061108a565b808061108090611e6b565b915050610ea6565b505b915091565b6000806006600084815260200190815260200160002060010160009054906101000a900473ffffffffffffffffffffffffffffffffffffffff16905080915050919050565b60048190806001815401808255809150506001900390600052602060002001600090919091909150556002839080600181540180825580915050600190039060005260206000200160009091909190916101000a81548173ffffffffffffffffffffffffffffffffffffffff021916908373ffffffffffffffffffffffffffffffffffffffff16021790555060405180604001604052808381526020018473ffffffffffffffffffffffffffffffffffffffff168152506006600083815260200190815260200160002060008201518160000190805190602001906111ba929190611311565b5060208201518160010160006101000a81548173ffffffffffffffffffffffffffffffffffffffff021916908373ffffffffffffffffffffffffffffffffffffffff160217905550905050505050565b60008083905060008390506000825190508151811461122f57600093505050506112e8565b60005b818110156112df5782818151811061124d5761124c611f12565b5b602001015160f81c60f81b7effffffffffffffffffffffffffffffffffffffffffffffffffffffffffffff191684828151811061128d5761128c611f12565b5b602001015160f81c60f81b7effffffffffffffffffffffffffffffffffffffffffffffffffffffffffffff1916146112cc5760009450505050506112e8565b80806112d790611e6b565b915050611232565b50600193505050505b92915050565b604051806105a00160405280602d90602082028036833780820191505090505090565b82805461131d90611e08565b90600052602060002090601f01602090048101928261133f5760008555611386565b82601f1061135857805160ff1916838001178555611386565b82800160010185558215611386579182015b8281111561138557825182559160200191906001019061136a565b5b509050611393919061142a565b5090565b82602d81019282156113c6579160200282015b828111156113c55782518255916020019190600101906113aa565b5b5090506113d3919061142a565b5090565b5080546113e390611e08565b6000825580601f106113f55750611414565b601f016020900490600052602060002090810190611413919061142a565b5b50565b5080602d0190611427919061142a565b50565b5b8082111561144357600081600090555060010161142b565b5090565b600061145a61145584611c6d565b611c48565b90508281526020810184848401111561147657611475611f75565b5b611481848285611dc6565b509392505050565b60008135905061149881612010565b92915050565b600082601f8301126114b3576114b2611f70565b5b81356114c3848260208601611447565b91505092915050565b6000813590506114db81612027565b92915050565b6000602082840312156114f7576114f6611f7f565b5b600061150584828501611489565b91505092915050565b60008060006060848603121561152757611526611f7f565b5b600061153586828701611489565b935050602084013567ffffffffffffffff81111561155657611555611f7a565b5b6115628682870161149e565b9250506040611573868287016114cc565b9150509250925092565b6000806000806080858703121561159757611596611f7f565b5b60006115a587828801611489565b945050602085013567ffffffffffffffff8111156115c6576115c5611f7a565b5b6115d28782880161149e565b93505060406115e3878288016114cc565b925050606085013567ffffffffffffffff81111561160457611603611f7a565b5b6116108782880161149e565b91505092959194509250565b60006020828403121561163257611631611f7f565b5b600082013567ffffffffffffffff8111156116505761164f611f7a565b5b61165c8482850161149e565b91505092915050565b6000806040838503121561167c5761167b611f7f565b5b600083013567ffffffffffffffff81111561169a57611699611f7a565b5b6116a68582860161149e565b92505060206116b7858286016114cc565b9150509250929050565b6000602082840312156116d7576116d6611f7f565b5b60006116e5848285016114cc565b91505092915050565b60008060006060848603121561170757611706611f7f565b5b6000611715868287016114cc565b935050602084013567ffffffffffffffff81111561173657611735611f7a565b5b6117428682870161149e565b9250506040611753868287016114cc565b9150509250925092565b600061176983836117a1565b60208301905092915050565b600061178183836118e9565b905092915050565b60006117958383611a74565b60208301905092915050565b6117aa81611d8a565b82525050565b6117b981611d8a565b82525050565b60006117ca82611cdd565b6117d48185611d30565b93506117df83611c9e565b8060005b838110156118105781516117f7888261175d565b975061180283611d09565b9250506001810190506117e3565b5085935050505092915050565b600061182882611ce8565b6118328185611d41565b93508360208202850161184485611cae565b8060005b8581101561188057848403895281516118618582611775565b945061186c83611d16565b925060208a01995050600181019050611848565b50829750879550505050505092915050565b61189b81611cf3565b6118a58184611d52565b92506118b082611cbe565b8060005b838110156118e15781516118c88782611789565b96506118d383611d23565b9250506001810190506118b4565b505050505050565b60006118f482611cfe565b6118fe8185611d5d565b935061190e818560208601611dd5565b61191781611f84565b840191505092915050565b600061192d82611cfe565b6119378185611d6e565b9350611947818560208601611dd5565b61195081611f84565b840191505092915050565b600061196682611cfe565b6119708185611d7f565b9350611980818560208601611dd5565b80840191505092915050565b6000815461199981611e08565b6119a38186611d7f565b945060018216600081146119be57600181146119cf57611a02565b60ff19831686528186019350611a02565b6119d885611cc8565b60005b838110156119fa578154818901526001820191506020810190506119db565b838801955050505b50505092915050565b6000611a18601383611d6e565b9150611a2382611f95565b602082019050919050565b6000611a3b601583611d6e565b9150611a4682611fbe565b602082019050919050565b6000611a5e600f83611d6e565b9150611a6982611fe7565b602082019050919050565b611a7d81611dbc565b82525050565b611a8c81611dbc565b82525050565b6000611a9e828461195b565b915081905092915050565b6000611ab5828461198c565b915081905092915050565b6000602082019050611ad560008301846117b0565b92915050565b60006105c082019050611af160008301856117b0565b611afe6020830184611892565b9392505050565b6000604082019050611b1a60008301856117b0565b8181036020830152611b2c8184611922565b90509392505050565b600061060082019050611b4b60008301876117b0565b8181036020830152611b5d8186611922565b9050611b6c6040830185611a83565b611b796060830184611892565b95945050505050565b60006020820190508181036000830152611b9c81846117bf565b905092915050565b60006020820190508181036000830152611bbe818461181d565b905092915050565b60006020820190508181036000830152611be08184611922565b905092915050565b60006020820190508181036000830152611c0181611a0b565b9050919050565b60006020820190508181036000830152611c2181611a2e565b9050919050565b60006020820190508181036000830152611c4181611a51565b9050919050565b6000611c52611c63565b9050611c5e8282611e3a565b919050565b6000604051905090565b600067ffffffffffffffff821115611c8857611c87611f41565b5b611c9182611f84565b9050602081019050919050565b6000819050602082019050919050565b6000819050602082019050919050565b6000819050919050565b60008190508160005260206000209050919050565b600081519050919050565b600081519050919050565b6000602d9050919050565b600081519050919050565b6000602082019050919050565b6000602082019050919050565b6000602082019050919050565b600082825260208201905092915050565b600082825260208201905092915050565b600081905092915050565b600082825260208201905092915050565b600082825260208201905092915050565b600081905092915050565b6000611d9582611d9c565b9050919050565b600073ffffffffffffffffffffffffffffffffffffffff82169050919050565b6000819050919050565b82818337600083830152505050565b60005b83811015611df3578082015181840152602081019050611dd8565b83811115611e02576000848401525b50505050565b60006002820490506001821680611e2057607f821691505b60208210811415611e3457611e33611ee3565b5b50919050565b611e4382611f84565b810181811067ffffffffffffffff82111715611e6257611e61611f41565b5b80604052505050565b6000611e7682611dbc565b91507fffffffffffffffffffffffffffffffffffffffffffffffffffffffffffffffff821415611ea957611ea8611eb4565b5b600182019050919050565b7f4e487b7100000000000000000000000000000000000000000000000000000000600052601160045260246000fd5b7f4e487b7100000000000000000000000000000000000000000000000000000000600052602260045260246000fd5b7f4e487b7100000000000000000000000000000000000000000000000000000000600052603260045260246000fd5b7f4e487b7100000000000000000000000000000000000000000000000000000000600052604160045260246000fd5b600080fd5b600080fd5b600080fd5b600080fd5b6000601f19601f8301169050919050565b7f5468657265206973206e6f2053747564656e7400000000000000000000000000600082015250565b7f4974277320616c72656164792072657365727665640000000000000000000000600082015250565b7f5468657265206973206e6f204255530000000000000000000000000000000000600082015250565b61201981611d8a565b811461202457600080fd5b50565b61203081611dbc565b811461203b57600080fd5b5056fea2646970667358221220cd9a6a2d4bd92f06fd1b3e383a5b35e4f300f9154c22c86354a6d16bc53a6dd764736f6c63430008070033",
					"opcodes": "PUSH1 0x80 PUSH1 0x40 MSTORE CALLVALUE DUP1 ISZERO PUSH2 0x10 JUMPI PUSH1 0x0 DUP1 REVERT JUMPDEST POP CALLER PUSH1 0x0 DUP1 PUSH2 0x100 EXP DUP2 SLOAD DUP2 PUSH20 0xFFFFFFFFFFFFFFFFFFFFFFFFFFFFFFFFFFFFFFFF MUL NOT AND SWAP1 DUP4 PUSH20 0xFFFFFFFFFFFFFFFFFFFFFFFFFFFFFFFFFFFFFFFF AND MUL OR SWAP1 SSTORE POP PUSH2 0x2074 DUP1 PUSH2 0x60 PUSH1 0x0 CODECOPY PUSH1 0x0 RETURN INVALID PUSH1 0x80 PUSH1 0x40 MSTORE CALLVALUE DUP1 ISZERO PUSH2 0x10 JUMPI PUSH1 0x0 DUP1 REVERT JUMPDEST POP PUSH1 0x4 CALLDATASIZE LT PUSH2 0xCE JUMPI PUSH1 0x0 CALLDATALOAD PUSH1 0xE0 SHR DUP1 PUSH4 0x642F9163 GT PUSH2 0x8C JUMPI DUP1 PUSH4 0xB645307D GT PUSH2 0x66 JUMPI DUP1 PUSH4 0xB645307D EQ PUSH2 0x229 JUMPI DUP1 PUSH4 0xC56700C1 EQ PUSH2 0x259 JUMPI DUP1 PUSH4 0xDBD5C356 EQ PUSH2 0x28A JUMPI DUP1 PUSH4 0xF041F73F EQ PUSH2 0x2BA JUMPI PUSH2 0xCE JUMP JUMPDEST DUP1 PUSH4 0x642F9163 EQ PUSH2 0x1A7 JUMPI DUP1 PUSH4 0x75285B65 EQ PUSH2 0x1D8 JUMPI DUP1 PUSH4 0x80E1127B EQ PUSH2 0x1F6 JUMPI PUSH2 0xCE JUMP JUMPDEST DUP1 PUSH3 0x9A4D3C EQ PUSH2 0xD3 JUMPI DUP1 PUSH4 0x133D0460 EQ PUSH2 0xEF JUMPI DUP1 PUSH4 0x2BF4EF72 EQ PUSH2 0x10D JUMPI DUP1 PUSH4 0x2C52F03E EQ PUSH2 0x13D JUMPI DUP1 PUSH4 0x6269BA34 EQ PUSH2 0x159 JUMPI DUP1 PUSH4 0x62A80162 EQ PUSH2 0x177 JUMPI JUMPDEST PUSH1 0x0 DUP1 REVERT JUMPDEST PUSH2 0xED PUSH1 0x4 DUP1 CALLDATASIZE SUB DUP2 ADD SWAP1 PUSH2 0xE8 SWAP2 SWAP1 PUSH2 0x157D JUMP JUMPDEST PUSH2 0x2D6 JUMP JUMPDEST STOP JUMPDEST PUSH2 0xF7 PUSH2 0x46C JUMP JUMPDEST PUSH1 0x40 MLOAD PUSH2 0x104 SWAP2 SWAP1 PUSH2 0x1B82 JUMP JUMPDEST PUSH1 0x40 MLOAD DUP1 SWAP2 SUB SWAP1 RETURN JUMPDEST PUSH2 0x127 PUSH1 0x4 DUP1 CALLDATASIZE SUB DUP2 ADD SWAP1 PUSH2 0x122 SWAP2 SWAP1 PUSH2 0x16EE JUMP JUMPDEST PUSH2 0x4FA JUMP JUMPDEST PUSH1 0x40 MLOAD PUSH2 0x134 SWAP2 SWAP1 PUSH2 0x1BC6 JUMP JUMPDEST PUSH1 0x40 MLOAD DUP1 SWAP2 SUB SWAP1 RETURN JUMPDEST PUSH2 0x157 PUSH1 0x4 DUP1 CALLDATASIZE SUB DUP2 ADD SWAP1 PUSH2 0x152 SWAP2 SWAP1 PUSH2 0x1665 JUMP JUMPDEST PUSH2 0x65C JUMP JUMPDEST STOP JUMPDEST PUSH2 0x161 PUSH2 0x698 JUMP JUMPDEST PUSH1 0x40 MLOAD PUSH2 0x16E SWAP2 SWAP1 PUSH2 0x1BA4 JUMP JUMPDEST PUSH1 0x40 MLOAD DUP1 SWAP2 SUB SWAP1 RETURN JUMPDEST PUSH2 0x191 PUSH1 0x4 DUP1 CALLDATASIZE SUB DUP2 ADD SWAP1 PUSH2 0x18C SWAP2 SWAP1 PUSH2 0x161C JUMP JUMPDEST PUSH2 0x771 JUMP JUMPDEST PUSH1 0x40 MLOAD PUSH2 0x19E SWAP2 SWAP1 PUSH2 0x1BC6 JUMP JUMPDEST PUSH1 0x40 MLOAD DUP1 SWAP2 SUB SWAP1 RETURN JUMPDEST PUSH2 0x1C1 PUSH1 0x4 DUP1 CALLDATASIZE SUB DUP2 ADD SWAP1 PUSH2 0x1BC SWAP2 SWAP1 PUSH2 0x16C1 JUMP JUMPDEST PUSH2 0x9DC JUMP JUMPDEST PUSH1 0x40 MLOAD PUSH2 0x1CF SWAP3 SWAP2 SWAP1 PUSH2 0x1B05 JUMP JUMPDEST PUSH1 0x40 MLOAD DUP1 SWAP2 SUB SWAP1 RETURN JUMPDEST PUSH2 0x1E0 PUSH2 0xACB JUMP JUMPDEST PUSH1 0x40 MLOAD PUSH2 0x1ED SWAP2 SWAP1 PUSH2 0x1B82 JUMP JUMPDEST PUSH1 0x40 MLOAD DUP1 SWAP2 SUB SWAP1 RETURN JUMPDEST PUSH2 0x210 PUSH1 0x4 DUP1 CALLDATASIZE SUB DUP2 ADD SWAP1 PUSH2 0x20B SWAP2 SWAP1 PUSH2 0x161C JUMP JUMPDEST PUSH2 0xB59 JUMP JUMPDEST PUSH1 0x40 MLOAD PUSH2 0x220 SWAP5 SWAP4 SWAP3 SWAP2 SWAP1 PUSH2 0x1B35 JUMP JUMPDEST PUSH1 0x40 MLOAD DUP1 SWAP2 SUB SWAP1 RETURN JUMPDEST PUSH2 0x243 PUSH1 0x4 DUP1 CALLDATASIZE SUB DUP2 ADD SWAP1 PUSH2 0x23E SWAP2 SWAP1 PUSH2 0x16C1 JUMP JUMPDEST PUSH2 0xCF9 JUMP JUMPDEST PUSH1 0x40 MLOAD PUSH2 0x250 SWAP2 SWAP1 PUSH2 0x1BC6 JUMP JUMPDEST PUSH1 0x40 MLOAD DUP1 SWAP2 SUB SWAP1 RETURN JUMPDEST PUSH2 0x273 PUSH1 0x4 DUP1 CALLDATASIZE SUB DUP2 ADD SWAP1 PUSH2 0x26E SWAP2 SWAP1 PUSH2 0x14E1 JUMP JUMPDEST PUSH2 0xE99 JUMP JUMPDEST PUSH1 0x40 MLOAD PUSH2 0x281 SWAP3 SWAP2 SWAP1 PUSH2 0x1ADB JUMP JUMPDEST PUSH1 0x40 MLOAD DUP1 SWAP2 SUB SWAP1 RETURN JUMPDEST PUSH2 0x2A4 PUSH1 0x4 DUP1 CALLDATASIZE SUB DUP2 ADD SWAP1 PUSH2 0x29F SWAP2 SWAP1 PUSH2 0x16C1 JUMP JUMPDEST PUSH2 0x108F JUMP JUMPDEST PUSH1 0x40 MLOAD PUSH2 0x2B1 SWAP2 SWAP1 PUSH2 0x1AC0 JUMP JUMPDEST PUSH1 0x40 MLOAD DUP1 SWAP2 SUB SWAP1 RETURN JUMPDEST PUSH2 0x2D4 PUSH1 0x4 DUP1 CALLDATASIZE SUB DUP2 ADD SWAP1 PUSH2 0x2CF SWAP2 SWAP1 PUSH2 0x150E JUMP JUMPDEST PUSH2 0x10D4 JUMP JUMPDEST STOP JUMPDEST PUSH2 0x2DE PUSH2 0x12EE JUMP JUMPDEST PUSH2 0x2E6 PUSH2 0x12EE JUMP JUMPDEST SWAP1 POP PUSH1 0x1 DUP6 SWAP1 DUP1 PUSH1 0x1 DUP2 SLOAD ADD DUP1 DUP3 SSTORE DUP1 SWAP2 POP POP PUSH1 0x1 SWAP1 SUB SWAP1 PUSH1 0x0 MSTORE PUSH1 0x20 PUSH1 0x0 KECCAK256 ADD PUSH1 0x0 SWAP1 SWAP2 SWAP1 SWAP2 SWAP1 SWAP2 PUSH2 0x100 EXP DUP2 SLOAD DUP2 PUSH20 0xFFFFFFFFFFFFFFFFFFFFFFFFFFFFFFFFFFFFFFFF MUL NOT AND SWAP1 DUP4 PUSH20 0xFFFFFFFFFFFFFFFFFFFFFFFFFFFFFFFFFFFFFFFF AND MUL OR SWAP1 SSTORE POP PUSH1 0x3 DUP3 SWAP1 DUP1 PUSH1 0x1 DUP2 SLOAD ADD DUP1 DUP3 SSTORE DUP1 SWAP2 POP POP PUSH1 0x1 SWAP1 SUB SWAP1 PUSH1 0x0 MSTORE PUSH1 0x20 PUSH1 0x0 KECCAK256 ADD PUSH1 0x0 SWAP1 SWAP2 SWAP1 SWAP2 SWAP1 SWAP2 POP SWAP1 DUP1 MLOAD SWAP1 PUSH1 0x20 ADD SWAP1 PUSH2 0x386 SWAP3 SWAP2 SWAP1 PUSH2 0x1311 JUMP JUMPDEST POP PUSH1 0x40 MLOAD DUP1 PUSH1 0x80 ADD PUSH1 0x40 MSTORE DUP1 DUP7 PUSH20 0xFFFFFFFFFFFFFFFFFFFFFFFFFFFFFFFFFFFFFFFF AND DUP2 MSTORE PUSH1 0x20 ADD DUP6 DUP2 MSTORE PUSH1 0x20 ADD DUP5 DUP2 MSTORE PUSH1 0x20 ADD DUP3 DUP2 MSTORE POP PUSH1 0x5 DUP4 PUSH1 0x40 MLOAD PUSH2 0x3CE SWAP2 SWAP1 PUSH2 0x1A92 JUMP JUMPDEST SWAP1 DUP2 MSTORE PUSH1 0x20 ADD PUSH1 0x40 MLOAD DUP1 SWAP2 SUB SWAP1 KECCAK256 PUSH1 0x0 DUP3 ADD MLOAD DUP2 PUSH1 0x0 ADD PUSH1 0x0 PUSH2 0x100 EXP DUP2 SLOAD DUP2 PUSH20 0xFFFFFFFFFFFFFFFFFFFFFFFFFFFFFFFFFFFFFFFF MUL NOT AND SWAP1 DUP4 PUSH20 0xFFFFFFFFFFFFFFFFFFFFFFFFFFFFFFFFFFFFFFFF AND MUL OR SWAP1 SSTORE POP PUSH1 0x20 DUP3 ADD MLOAD DUP2 PUSH1 0x1 ADD SWAP1 DUP1 MLOAD SWAP1 PUSH1 0x20 ADD SWAP1 PUSH2 0x43F SWAP3 SWAP2 SWAP1 PUSH2 0x1311 JUMP JUMPDEST POP PUSH1 0x40 DUP3 ADD MLOAD DUP2 PUSH1 0x2 ADD SSTORE PUSH1 0x60 DUP3 ADD MLOAD DUP2 PUSH1 0x3 ADD SWAP1 PUSH1 0x2D PUSH2 0x461 SWAP3 SWAP2 SWAP1 PUSH2 0x1397 JUMP JUMPDEST POP SWAP1 POP POP POP POP POP POP POP JUMP JUMPDEST PUSH1 0x60 PUSH1 0x2 DUP1 SLOAD DUP1 PUSH1 0x20 MUL PUSH1 0x20 ADD PUSH1 0x40 MLOAD SWAP1 DUP2 ADD PUSH1 0x40 MSTORE DUP1 SWAP3 SWAP2 SWAP1 DUP2 DUP2 MSTORE PUSH1 0x20 ADD DUP3 DUP1 SLOAD DUP1 ISZERO PUSH2 0x4F0 JUMPI PUSH1 0x20 MUL DUP3 ADD SWAP2 SWAP1 PUSH1 0x0 MSTORE PUSH1 0x20 PUSH1 0x0 KECCAK256 SWAP1 JUMPDEST DUP2 PUSH1 0x0 SWAP1 SLOAD SWAP1 PUSH2 0x100 EXP SWAP1 DIV PUSH20 0xFFFFFFFFFFFFFFFFFFFFFFFFFFFFFFFFFFFFFFFF AND PUSH20 0xFFFFFFFFFFFFFFFFFFFFFFFFFFFFFFFFFFFFFFFF AND DUP2 MSTORE PUSH1 0x20 ADD SWAP1 PUSH1 0x1 ADD SWAP1 DUP1 DUP4 GT PUSH2 0x4A6 JUMPI JUMPDEST POP POP POP POP POP SWAP1 POP SWAP1 JUMP JUMPDEST PUSH1 0x60 PUSH1 0x0 PUSH1 0x5 DUP5 PUSH1 0x40 MLOAD PUSH2 0x50E SWAP2 SWAP1 PUSH2 0x1A92 JUMP JUMPDEST SWAP1 DUP2 MSTORE PUSH1 0x20 ADD PUSH1 0x40 MLOAD DUP1 SWAP2 SUB SWAP1 KECCAK256 PUSH1 0x1 ADD DUP1 SLOAD PUSH2 0x52A SWAP1 PUSH2 0x1E08 JUMP JUMPDEST SWAP1 POP EQ ISZERO PUSH2 0x56D JUMPI PUSH1 0x40 MLOAD PUSH32 0x8C379A000000000000000000000000000000000000000000000000000000000 DUP2 MSTORE PUSH1 0x4 ADD PUSH2 0x564 SWAP1 PUSH2 0x1C28 JUMP JUMPDEST PUSH1 0x40 MLOAD DUP1 SWAP2 SUB SWAP1 REVERT JUMPDEST PUSH1 0x0 PUSH1 0x5 DUP5 PUSH1 0x40 MLOAD PUSH2 0x57F SWAP2 SWAP1 PUSH2 0x1A92 JUMP JUMPDEST SWAP1 DUP2 MSTORE PUSH1 0x20 ADD PUSH1 0x40 MLOAD DUP1 SWAP2 SUB SWAP1 KECCAK256 PUSH1 0x3 ADD DUP4 PUSH1 0x2D DUP2 LT PUSH2 0x5A2 JUMPI PUSH2 0x5A1 PUSH2 0x1F12 JUMP JUMPDEST JUMPDEST ADD SLOAD EQ PUSH2 0x5E4 JUMPI PUSH1 0x40 MLOAD PUSH32 0x8C379A000000000000000000000000000000000000000000000000000000000 DUP2 MSTORE PUSH1 0x4 ADD PUSH2 0x5DB SWAP1 PUSH2 0x1C08 JUMP JUMPDEST PUSH1 0x40 MLOAD DUP1 SWAP2 SUB SWAP1 REVERT JUMPDEST DUP4 PUSH1 0x5 DUP5 PUSH1 0x40 MLOAD PUSH2 0x5F5 SWAP2 SWAP1 PUSH2 0x1A92 JUMP JUMPDEST SWAP1 DUP2 MSTORE PUSH1 0x20 ADD PUSH1 0x40 MLOAD DUP1 SWAP2 SUB SWAP1 KECCAK256 PUSH1 0x3 ADD DUP4 PUSH1 0x2D DUP2 LT PUSH2 0x618 JUMPI PUSH2 0x617 PUSH2 0x1F12 JUMP JUMPDEST JUMPDEST ADD DUP2 SWAP1 SSTORE POP PUSH1 0x40 MLOAD DUP1 PUSH1 0x40 ADD PUSH1 0x40 MSTORE DUP1 PUSH1 0x13 DUP2 MSTORE PUSH1 0x20 ADD PUSH32 0x5265736572766174696F6E207375636365737300000000000000000000000000 DUP2 MSTORE POP SWAP1 POP SWAP4 SWAP3 POP POP POP JUMP JUMPDEST PUSH1 0x5 DUP3 PUSH1 0x40 MLOAD PUSH2 0x66C SWAP2 SWAP1 PUSH2 0x1A92 JUMP JUMPDEST SWAP1 DUP2 MSTORE PUSH1 0x20 ADD PUSH1 0x40 MLOAD DUP1 SWAP2 SUB SWAP1 KECCAK256 PUSH1 0x3 ADD DUP2 PUSH1 0x2D DUP2 LT PUSH2 0x68F JUMPI PUSH2 0x68E PUSH2 0x1F12 JUMP JUMPDEST JUMPDEST ADD PUSH1 0x0 SWAP1 SSTORE POP POP JUMP JUMPDEST PUSH1 0x60 PUSH1 0x3 DUP1 SLOAD DUP1 PUSH1 0x20 MUL PUSH1 0x20 ADD PUSH1 0x40 MLOAD SWAP1 DUP2 ADD PUSH1 0x40 MSTORE DUP1 SWAP3 SWAP2 SWAP1 DUP2 DUP2 MSTORE PUSH1 0x20 ADD PUSH1 0x0 SWAP1 JUMPDEST DUP3 DUP3 LT ISZERO PUSH2 0x768 JUMPI DUP4 DUP3 SWAP1 PUSH1 0x0 MSTORE PUSH1 0x20 PUSH1 0x0 KECCAK256 ADD DUP1 SLOAD PUSH2 0x6DB SWAP1 PUSH2 0x1E08 JUMP JUMPDEST DUP1 PUSH1 0x1F ADD PUSH1 0x20 DUP1 SWAP2 DIV MUL PUSH1 0x20 ADD PUSH1 0x40 MLOAD SWAP1 DUP2 ADD PUSH1 0x40 MSTORE DUP1 SWAP3 SWAP2 SWAP1 DUP2 DUP2 MSTORE PUSH1 0x20 ADD DUP3 DUP1 SLOAD PUSH2 0x707 SWAP1 PUSH2 0x1E08 JUMP JUMPDEST DUP1 ISZERO PUSH2 0x754 JUMPI DUP1 PUSH1 0x1F LT PUSH2 0x729 JUMPI PUSH2 0x100 DUP1 DUP4 SLOAD DIV MUL DUP4 MSTORE SWAP2 PUSH1 0x20 ADD SWAP2 PUSH2 0x754 JUMP JUMPDEST DUP3 ADD SWAP2 SWAP1 PUSH1 0x0 MSTORE PUSH1 0x20 PUSH1 0x0 KECCAK256 SWAP1 JUMPDEST DUP2 SLOAD DUP2 MSTORE SWAP1 PUSH1 0x1 ADD SWAP1 PUSH1 0x20 ADD DUP1 DUP4 GT PUSH2 0x737 JUMPI DUP3 SWAP1 SUB PUSH1 0x1F AND DUP3 ADD SWAP2 JUMPDEST POP POP POP POP POP DUP2 MSTORE PUSH1 0x20 ADD SWAP1 PUSH1 0x1 ADD SWAP1 PUSH2 0x6BC JUMP JUMPDEST POP POP POP POP SWAP1 POP SWAP1 JUMP JUMPDEST PUSH1 0x60 PUSH1 0x0 PUSH1 0x5 DUP4 PUSH1 0x40 MLOAD PUSH2 0x785 SWAP2 SWAP1 PUSH2 0x1A92 JUMP JUMPDEST SWAP1 DUP2 MSTORE PUSH1 0x20 ADD PUSH1 0x40 MLOAD DUP1 SWAP2 SUB SWAP1 KECCAK256 PUSH1 0x1 ADD DUP1 SLOAD PUSH2 0x7A1 SWAP1 PUSH2 0x1E08 JUMP JUMPDEST SWAP1 POP EQ ISZERO PUSH2 0x7E4 JUMPI PUSH1 0x40 MLOAD PUSH32 0x8C379A000000000000000000000000000000000000000000000000000000000 DUP2 MSTORE PUSH1 0x4 ADD PUSH2 0x7DB SWAP1 PUSH2 0x1C28 JUMP JUMPDEST PUSH1 0x40 MLOAD DUP1 SWAP2 SUB SWAP1 REVERT JUMPDEST PUSH1 0x5 DUP3 PUSH1 0x40 MLOAD PUSH2 0x7F4 SWAP2 SWAP1 PUSH2 0x1A92 JUMP JUMPDEST SWAP1 DUP2 MSTORE PUSH1 0x20 ADD PUSH1 0x40 MLOAD DUP1 SWAP2 SUB SWAP1 KECCAK256 PUSH1 0x0 DUP1 DUP3 ADD PUSH1 0x0 PUSH2 0x100 EXP DUP2 SLOAD SWAP1 PUSH20 0xFFFFFFFFFFFFFFFFFFFFFFFFFFFFFFFFFFFFFFFF MUL NOT AND SWAP1 SSTORE PUSH1 0x1 DUP3 ADD PUSH1 0x0 PUSH2 0x83A SWAP2 SWAP1 PUSH2 0x13D7 JUMP JUMPDEST PUSH1 0x2 DUP3 ADD PUSH1 0x0 SWAP1 SSTORE PUSH1 0x3 DUP3 ADD PUSH1 0x0 PUSH2 0x852 SWAP2 SWAP1 PUSH2 0x1417 JUMP JUMPDEST POP POP PUSH1 0x0 JUMPDEST PUSH1 0x3 DUP1 SLOAD SWAP1 POP DUP2 LT ISZERO PUSH2 0x99E JUMPI PUSH1 0x0 PUSH1 0x3 DUP3 DUP2 SLOAD DUP2 LT PUSH2 0x87A JUMPI PUSH2 0x879 PUSH2 0x1F12 JUMP JUMPDEST JUMPDEST SWAP1 PUSH1 0x0 MSTORE PUSH1 0x20 PUSH1 0x0 KECCAK256 ADD DUP1 SLOAD PUSH2 0x88F SWAP1 PUSH2 0x1E08 JUMP JUMPDEST DUP1 PUSH1 0x1F ADD PUSH1 0x20 DUP1 SWAP2 DIV MUL PUSH1 0x20 ADD PUSH1 0x40 MLOAD SWAP1 DUP2 ADD PUSH1 0x40 MSTORE DUP1 SWAP3 SWAP2 SWAP1 DUP2 DUP2 MSTORE PUSH1 0x20 ADD DUP3 DUP1 SLOAD PUSH2 0x8BB SWAP1 PUSH2 0x1E08 JUMP JUMPDEST DUP1 ISZERO PUSH2 0x908 JUMPI DUP1 PUSH1 0x1F LT PUSH2 0x8DD JUMPI PUSH2 0x100 DUP1 DUP4 SLOAD DIV MUL DUP4 MSTORE SWAP2 PUSH1 0x20 ADD SWAP2 PUSH2 0x908 JUMP JUMPDEST DUP3 ADD SWAP2 SWAP1 PUSH1 0x0 MSTORE PUSH1 0x20 PUSH1 0x0 KECCAK256 SWAP1 JUMPDEST DUP2 SLOAD DUP2 MSTORE SWAP1 PUSH1 0x1 ADD SWAP1 PUSH1 0x20 ADD DUP1 DUP4 GT PUSH2 0x8EB JUMPI DUP3 SWAP1 SUB PUSH1 0x1F AND DUP3 ADD SWAP2 JUMPDEST POP POP POP POP POP SWAP1 POP PUSH2 0x919 DUP2 DUP6 PUSH2 0x120A JUMP JUMPDEST ISZERO PUSH2 0x98A JUMPI PUSH1 0x3 DUP3 DUP2 SLOAD DUP2 LT PUSH2 0x932 JUMPI PUSH2 0x931 PUSH2 0x1F12 JUMP JUMPDEST JUMPDEST SWAP1 PUSH1 0x0 MSTORE PUSH1 0x20 PUSH1 0x0 KECCAK256 ADD PUSH1 0x0 PUSH2 0x948 SWAP2 SWAP1 PUSH2 0x13D7 JUMP JUMPDEST PUSH1 0x1 DUP3 DUP2 SLOAD DUP2 LT PUSH2 0x95C JUMPI PUSH2 0x95B PUSH2 0x1F12 JUMP JUMPDEST JUMPDEST SWAP1 PUSH1 0x0 MSTORE PUSH1 0x20 PUSH1 0x0 KECCAK256 ADD PUSH1 0x0 PUSH2 0x100 EXP DUP2 SLOAD SWAP1 PUSH20 0xFFFFFFFFFFFFFFFFFFFFFFFFFFFFFFFFFFFFFFFF MUL NOT AND SWAP1 SSTORE JUMPDEST POP DUP1 DUP1 PUSH2 0x996 SWAP1 PUSH2 0x1E6B JUMP JUMPDEST SWAP2 POP POP PUSH2 0x857 JUMP JUMPDEST POP PUSH1 0x40 MLOAD DUP1 PUSH1 0x40 ADD PUSH1 0x40 MSTORE DUP1 PUSH1 0xE DUP2 MSTORE PUSH1 0x20 ADD PUSH32 0x44656C6574652073756363657373000000000000000000000000000000000000 DUP2 MSTORE POP SWAP1 POP SWAP2 SWAP1 POP JUMP JUMPDEST PUSH1 0x0 PUSH1 0x60 PUSH1 0x0 PUSH1 0x6 PUSH1 0x0 DUP6 DUP2 MSTORE PUSH1 0x20 ADD SWAP1 DUP2 MSTORE PUSH1 0x20 ADD PUSH1 0x0 KECCAK256 PUSH1 0x1 ADD PUSH1 0x0 SWAP1 SLOAD SWAP1 PUSH2 0x100 EXP SWAP1 DIV PUSH20 0xFFFFFFFFFFFFFFFFFFFFFFFFFFFFFFFFFFFFFFFF AND SWAP1 POP PUSH1 0x0 PUSH1 0x6 PUSH1 0x0 DUP7 DUP2 MSTORE PUSH1 0x20 ADD SWAP1 DUP2 MSTORE PUSH1 0x20 ADD PUSH1 0x0 KECCAK256 PUSH1 0x0 ADD DUP1 SLOAD PUSH2 0xA3E SWAP1 PUSH2 0x1E08 JUMP JUMPDEST DUP1 PUSH1 0x1F ADD PUSH1 0x20 DUP1 SWAP2 DIV MUL PUSH1 0x20 ADD PUSH1 0x40 MLOAD SWAP1 DUP2 ADD PUSH1 0x40 MSTORE DUP1 SWAP3 SWAP2 SWAP1 DUP2 DUP2 MSTORE PUSH1 0x20 ADD DUP3 DUP1 SLOAD PUSH2 0xA6A SWAP1 PUSH2 0x1E08 JUMP JUMPDEST DUP1 ISZERO PUSH2 0xAB7 JUMPI DUP1 PUSH1 0x1F LT PUSH2 0xA8C JUMPI PUSH2 0x100 DUP1 DUP4 SLOAD DIV MUL DUP4 MSTORE SWAP2 PUSH1 0x20 ADD SWAP2 PUSH2 0xAB7 JUMP JUMPDEST DUP3 ADD SWAP2 SWAP1 PUSH1 0x0 MSTORE PUSH1 0x20 PUSH1 0x0 KECCAK256 SWAP1 JUMPDEST DUP2 SLOAD DUP2 MSTORE SWAP1 PUSH1 0x1 ADD SWAP1 PUSH1 0x20 ADD DUP1 DUP4 GT PUSH2 0xA9A JUMPI DUP3 SWAP1 SUB PUSH1 0x1F AND DUP3 ADD SWAP2 JUMPDEST POP POP POP POP POP SWAP1 POP DUP2 DUP2 SWAP4 POP SWAP4 POP POP POP SWAP2 POP SWAP2 JUMP JUMPDEST PUSH1 0x60 PUSH1 0x1 DUP1 SLOAD DUP1 PUSH1 0x20 MUL PUSH1 0x20 ADD PUSH1 0x40 MLOAD SWAP1 DUP2 ADD PUSH1 0x40 MSTORE DUP1 SWAP3 SWAP2 SWAP1 DUP2 DUP2 MSTORE PUSH1 0x20 ADD DUP3 DUP1 SLOAD DUP1 ISZERO PUSH2 0xB4F JUMPI PUSH1 0x20 MUL DUP3 ADD SWAP2 SWAP1 PUSH1 0x0 MSTORE PUSH1 0x20 PUSH1 0x0 KECCAK256 SWAP1 JUMPDEST DUP2 PUSH1 0x0 SWAP1 SLOAD SWAP1 PUSH2 0x100 EXP SWAP1 DIV PUSH20 0xFFFFFFFFFFFFFFFFFFFFFFFFFFFFFFFFFFFFFFFF AND PUSH20 0xFFFFFFFFFFFFFFFFFFFFFFFFFFFFFFFFFFFFFFFF AND DUP2 MSTORE PUSH1 0x20 ADD SWAP1 PUSH1 0x1 ADD SWAP1 DUP1 DUP4 GT PUSH2 0xB05 JUMPI JUMPDEST POP POP POP POP POP SWAP1 POP SWAP1 JUMP JUMPDEST PUSH1 0x0 PUSH1 0x60 PUSH1 0x0 PUSH2 0xB67 PUSH2 0x12EE JUMP JUMPDEST PUSH1 0x0 PUSH1 0x5 DUP7 PUSH1 0x40 MLOAD PUSH2 0xB79 SWAP2 SWAP1 PUSH2 0x1A92 JUMP JUMPDEST SWAP1 DUP2 MSTORE PUSH1 0x20 ADD PUSH1 0x40 MLOAD DUP1 SWAP2 SUB SWAP1 KECCAK256 PUSH1 0x0 ADD PUSH1 0x0 SWAP1 SLOAD SWAP1 PUSH2 0x100 EXP SWAP1 DIV PUSH20 0xFFFFFFFFFFFFFFFFFFFFFFFFFFFFFFFFFFFFFFFF AND SWAP1 POP PUSH1 0x0 PUSH1 0x5 DUP8 PUSH1 0x40 MLOAD PUSH2 0xBBF SWAP2 SWAP1 PUSH2 0x1A92 JUMP JUMPDEST SWAP1 DUP2 MSTORE PUSH1 0x20 ADD PUSH1 0x40 MLOAD DUP1 SWAP2 SUB SWAP1 KECCAK256 PUSH1 0x1 ADD DUP1 SLOAD PUSH2 0xBDB SWAP1 PUSH2 0x1E08 JUMP JUMPDEST DUP1 PUSH1 0x1F ADD PUSH1 0x20 DUP1 SWAP2 DIV MUL PUSH1 0x20 ADD PUSH1 0x40 MLOAD SWAP1 DUP2 ADD PUSH1 0x40 MSTORE DUP1 SWAP3 SWAP2 SWAP1 DUP2 DUP2 MSTORE PUSH1 0x20 ADD DUP3 DUP1 SLOAD PUSH2 0xC07 SWAP1 PUSH2 0x1E08 JUMP JUMPDEST DUP1 ISZERO PUSH2 0xC54 JUMPI DUP1 PUSH1 0x1F LT PUSH2 0xC29 JUMPI PUSH2 0x100 DUP1 DUP4 SLOAD DIV MUL DUP4 MSTORE SWAP2 PUSH1 0x20 ADD SWAP2 PUSH2 0xC54 JUMP JUMPDEST DUP3 ADD SWAP2 SWAP1 PUSH1 0x0 MSTORE PUSH1 0x20 PUSH1 0x0 KECCAK256 SWAP1 JUMPDEST DUP2 SLOAD DUP2 MSTORE SWAP1 PUSH1 0x1 ADD SWAP1 PUSH1 0x20 ADD DUP1 DUP4 GT PUSH2 0xC37 JUMPI DUP3 SWAP1 SUB PUSH1 0x1F AND DUP3 ADD SWAP2 JUMPDEST POP POP POP POP POP SWAP1 POP PUSH1 0x0 PUSH1 0x5 DUP9 PUSH1 0x40 MLOAD PUSH2 0xC6D SWAP2 SWAP1 PUSH2 0x1A92 JUMP JUMPDEST SWAP1 DUP2 MSTORE PUSH1 0x20 ADD PUSH1 0x40 MLOAD DUP1 SWAP2 SUB SWAP1 KECCAK256 PUSH1 0x2 ADD SLOAD SWAP1 POP PUSH1 0x0 PUSH1 0x5 DUP10 PUSH1 0x40 MLOAD PUSH2 0xC93 SWAP2 SWAP1 PUSH2 0x1A92 JUMP JUMPDEST SWAP1 DUP2 MSTORE PUSH1 0x20 ADD PUSH1 0x40 MLOAD DUP1 SWAP2 SUB SWAP1 KECCAK256 PUSH1 0x3 ADD PUSH1 0x2D DUP1 PUSH1 0x20 MUL PUSH1 0x40 MLOAD SWAP1 DUP2 ADD PUSH1 0x40 MSTORE DUP1 SWAP3 SWAP2 SWAP1 DUP3 PUSH1 0x2D DUP1 ISZERO PUSH2 0xCDB JUMPI PUSH1 0x20 MUL DUP3 ADD SWAP2 JUMPDEST DUP2 SLOAD DUP2 MSTORE PUSH1 0x20 ADD SWAP1 PUSH1 0x1 ADD SWAP1 DUP1 DUP4 GT PUSH2 0xCC7 JUMPI JUMPDEST POP POP POP POP POP SWAP1 POP DUP4 DUP4 DUP4 DUP4 SWAP8 POP SWAP8 POP SWAP8 POP SWAP8 POP POP POP POP POP SWAP2 SWAP4 POP SWAP2 SWAP4 JUMP JUMPDEST PUSH1 0x60 PUSH1 0x0 PUSH1 0x6 PUSH1 0x0 DUP5 DUP2 MSTORE PUSH1 0x20 ADD SWAP1 DUP2 MSTORE PUSH1 0x20 ADD PUSH1 0x0 KECCAK256 PUSH1 0x0 ADD DUP1 SLOAD PUSH2 0xD1E SWAP1 PUSH2 0x1E08 JUMP JUMPDEST SWAP1 POP EQ ISZERO PUSH2 0xD61 JUMPI PUSH1 0x40 MLOAD PUSH32 0x8C379A000000000000000000000000000000000000000000000000000000000 DUP2 MSTORE PUSH1 0x4 ADD PUSH2 0xD58 SWAP1 PUSH2 0x1BE8 JUMP JUMPDEST PUSH1 0x40 MLOAD DUP1 SWAP2 SUB SWAP1 REVERT JUMPDEST PUSH1 0x6 PUSH1 0x0 DUP4 DUP2 MSTORE PUSH1 0x20 ADD SWAP1 DUP2 MSTORE PUSH1 0x20 ADD PUSH1 0x0 KECCAK256 PUSH1 0x0 DUP1 DUP3 ADD PUSH1 0x0 PUSH2 0xD85 SWAP2 SWAP1 PUSH2 0x13D7 JUMP JUMPDEST PUSH1 0x1 DUP3 ADD PUSH1 0x0 PUSH2 0x100 EXP DUP2 SLOAD SWAP1 PUSH20 0xFFFFFFFFFFFFFFFFFFFFFFFFFFFFFFFFFFFFFFFF MUL NOT AND SWAP1 SSTORE POP POP PUSH1 0x0 JUMPDEST PUSH1 0x4 DUP1 SLOAD SWAP1 POP DUP2 LT ISZERO PUSH2 0xE5B JUMPI DUP3 PUSH1 0x4 DUP3 DUP2 SLOAD DUP2 LT PUSH2 0xDD3 JUMPI PUSH2 0xDD2 PUSH2 0x1F12 JUMP JUMPDEST JUMPDEST SWAP1 PUSH1 0x0 MSTORE PUSH1 0x20 PUSH1 0x0 KECCAK256 ADD SLOAD EQ ISZERO PUSH2 0xE48 JUMPI PUSH1 0x4 DUP2 DUP2 SLOAD DUP2 LT PUSH2 0xDF8 JUMPI PUSH2 0xDF7 PUSH2 0x1F12 JUMP JUMPDEST JUMPDEST SWAP1 PUSH1 0x0 MSTORE PUSH1 0x20 PUSH1 0x0 KECCAK256 ADD PUSH1 0x0 SWAP1 SSTORE PUSH1 0x2 DUP2 DUP2 SLOAD DUP2 LT PUSH2 0xE1A JUMPI PUSH2 0xE19 PUSH2 0x1F12 JUMP JUMPDEST JUMPDEST SWAP1 PUSH1 0x0 MSTORE PUSH1 0x20 PUSH1 0x0 KECCAK256 ADD PUSH1 0x0 PUSH2 0x100 EXP DUP2 SLOAD SWAP1 PUSH20 0xFFFFFFFFFFFFFFFFFFFFFFFFFFFFFFFFFFFFFFFF MUL NOT AND SWAP1 SSTORE JUMPDEST DUP1 DUP1 PUSH2 0xE53 SWAP1 PUSH2 0x1E6B JUMP JUMPDEST SWAP2 POP POP PUSH2 0xDB1 JUMP JUMPDEST POP PUSH1 0x40 MLOAD DUP1 PUSH1 0x40 ADD PUSH1 0x40 MSTORE DUP1 PUSH1 0xE DUP2 MSTORE PUSH1 0x20 ADD PUSH32 0x44656C6574652073756363657373000000000000000000000000000000000000 DUP2 MSTORE POP SWAP1 POP SWAP2 SWAP1 POP JUMP JUMPDEST PUSH1 0x0 PUSH2 0xEA3 PUSH2 0x12EE JUMP JUMPDEST PUSH1 0x0 JUMPDEST PUSH1 0x3 DUP1 SLOAD SWAP1 POP DUP2 LT ISZERO PUSH2 0x1088 JUMPI DUP4 PUSH20 0xFFFFFFFFFFFFFFFFFFFFFFFFFFFFFFFFFFFFFFFF AND PUSH1 0x5 PUSH1 0x3 DUP4 DUP2 SLOAD DUP2 LT PUSH2 0xEE0 JUMPI PUSH2 0xEDF PUSH2 0x1F12 JUMP JUMPDEST JUMPDEST SWAP1 PUSH1 0x0 MSTORE PUSH1 0x20 PUSH1 0x0 KECCAK256 ADD PUSH1 0x40 MLOAD PUSH2 0xEF7 SWAP2 SWAP1 PUSH2 0x1AA9 JUMP JUMPDEST SWAP1 DUP2 MSTORE PUSH1 0x20 ADD PUSH1 0x40 MLOAD DUP1 SWAP2 SUB SWAP1 KECCAK256 PUSH1 0x0 ADD PUSH1 0x0 SWAP1 SLOAD SWAP1 PUSH2 0x100 EXP SWAP1 DIV PUSH20 0xFFFFFFFFFFFFFFFFFFFFFFFFFFFFFFFFFFFFFFFF AND PUSH20 0xFFFFFFFFFFFFFFFFFFFFFFFFFFFFFFFFFFFFFFFF AND EQ ISZERO PUSH2 0x1075 JUMPI PUSH1 0x5 PUSH1 0x3 DUP3 DUP2 SLOAD DUP2 LT PUSH2 0xF5B JUMPI PUSH2 0xF5A PUSH2 0x1F12 JUMP JUMPDEST JUMPDEST SWAP1 PUSH1 0x0 MSTORE PUSH1 0x20 PUSH1 0x0 KECCAK256 ADD PUSH1 0x40 MLOAD PUSH2 0xF72 SWAP2 SWAP1 PUSH2 0x1AA9 JUMP JUMPDEST SWAP1 DUP2 MSTORE PUSH1 0x20 ADD PUSH1 0x40 MLOAD DUP1 SWAP2 SUB SWAP1 KECCAK256 PUSH1 0x3 ADD PUSH1 0x0 PUSH2 0xF8F SWAP2 SWAP1 PUSH2 0x1417 JUMP JUMPDEST PUSH1 0x5 PUSH1 0x3 DUP3 DUP2 SLOAD DUP2 LT PUSH2 0xFA5 JUMPI PUSH2 0xFA4 PUSH2 0x1F12 JUMP JUMPDEST JUMPDEST SWAP1 PUSH1 0x0 MSTORE PUSH1 0x20 PUSH1 0x0 KECCAK256 ADD PUSH1 0x40 MLOAD PUSH2 0xFBC SWAP2 SWAP1 PUSH2 0x1AA9 JUMP JUMPDEST SWAP1 DUP2 MSTORE PUSH1 0x20 ADD PUSH1 0x40 MLOAD DUP1 SWAP2 SUB SWAP1 KECCAK256 PUSH1 0x0 ADD PUSH1 0x0 SWAP1 SLOAD SWAP1 PUSH2 0x100 EXP SWAP1 DIV PUSH20 0xFFFFFFFFFFFFFFFFFFFFFFFFFFFFFFFFFFFFFFFF AND PUSH1 0x5 PUSH1 0x3 DUP4 DUP2 SLOAD DUP2 LT PUSH2 0x1004 JUMPI PUSH2 0x1003 PUSH2 0x1F12 JUMP JUMPDEST JUMPDEST SWAP1 PUSH1 0x0 MSTORE PUSH1 0x20 PUSH1 0x0 KECCAK256 ADD PUSH1 0x40 MLOAD PUSH2 0x101B SWAP2 SWAP1 PUSH2 0x1AA9 JUMP JUMPDEST SWAP1 DUP2 MSTORE PUSH1 0x20 ADD PUSH1 0x40 MLOAD DUP1 SWAP2 SUB SWAP1 KECCAK256 PUSH1 0x3 ADD DUP1 PUSH1 0x2D DUP1 PUSH1 0x20 MUL PUSH1 0x40 MLOAD SWAP1 DUP2 ADD PUSH1 0x40 MSTORE DUP1 SWAP3 SWAP2 SWAP1 DUP3 PUSH1 0x2D DUP1 ISZERO PUSH2 0x1064 JUMPI PUSH1 0x20 MUL DUP3 ADD SWAP2 JUMPDEST DUP2 SLOAD DUP2 MSTORE PUSH1 0x20 ADD SWAP1 PUSH1 0x1 ADD SWAP1 DUP1 DUP4 GT PUSH2 0x1050 JUMPI JUMPDEST POP POP POP POP POP SWAP1 POP SWAP3 POP SWAP3 POP POP PUSH2 0x108A JUMP JUMPDEST DUP1 DUP1 PUSH2 0x1080 SWAP1 PUSH2 0x1E6B JUMP JUMPDEST SWAP2 POP POP PUSH2 0xEA6 JUMP JUMPDEST POP JUMPDEST SWAP2 POP SWAP2 JUMP JUMPDEST PUSH1 0x0 DUP1 PUSH1 0x6 PUSH1 0x0 DUP5 DUP2 MSTORE PUSH1 0x20 ADD SWAP1 DUP2 MSTORE PUSH1 0x20 ADD PUSH1 0x0 KECCAK256 PUSH1 0x1 ADD PUSH1 0x0 SWAP1 SLOAD SWAP1 PUSH2 0x100 EXP SWAP1 DIV PUSH20 0xFFFFFFFFFFFFFFFFFFFFFFFFFFFFFFFFFFFFFFFF AND SWAP1 POP DUP1 SWAP2 POP POP SWAP2 SWAP1 POP JUMP JUMPDEST PUSH1 0x4 DUP2 SWAP1 DUP1 PUSH1 0x1 DUP2 SLOAD ADD DUP1 DUP3 SSTORE DUP1 SWAP2 POP POP PUSH1 0x1 SWAP1 SUB SWAP1 PUSH1 0x0 MSTORE PUSH1 0x20 PUSH1 0x0 KECCAK256 ADD PUSH1 0x0 SWAP1 SWAP2 SWAP1 SWAP2 SWAP1 SWAP2 POP SSTORE PUSH1 0x2 DUP4 SWAP1 DUP1 PUSH1 0x1 DUP2 SLOAD ADD DUP1 DUP3 SSTORE DUP1 SWAP2 POP POP PUSH1 0x1 SWAP1 SUB SWAP1 PUSH1 0x0 MSTORE PUSH1 0x20 PUSH1 0x0 KECCAK256 ADD PUSH1 0x0 SWAP1 SWAP2 SWAP1 SWAP2 SWAP1 SWAP2 PUSH2 0x100 EXP DUP2 SLOAD DUP2 PUSH20 0xFFFFFFFFFFFFFFFFFFFFFFFFFFFFFFFFFFFFFFFF MUL NOT AND SWAP1 DUP4 PUSH20 0xFFFFFFFFFFFFFFFFFFFFFFFFFFFFFFFFFFFFFFFF AND MUL OR SWAP1 SSTORE POP PUSH1 0x40 MLOAD DUP1 PUSH1 0x40 ADD PUSH1 0x40 MSTORE DUP1 DUP4 DUP2 MSTORE PUSH1 0x20 ADD DUP5 PUSH20 0xFFFFFFFFFFFFFFFFFFFFFFFFFFFFFFFFFFFFFFFF AND DUP2 MSTORE POP PUSH1 0x6 PUSH1 0x0 DUP4 DUP2 MSTORE PUSH1 0x20 ADD SWAP1 DUP2 MSTORE PUSH1 0x20 ADD PUSH1 0x0 KECCAK256 PUSH1 0x0 DUP3 ADD MLOAD DUP2 PUSH1 0x0 ADD SWAP1 DUP1 MLOAD SWAP1 PUSH1 0x20 ADD SWAP1 PUSH2 0x11BA SWAP3 SWAP2 SWAP1 PUSH2 0x1311 JUMP JUMPDEST POP PUSH1 0x20 DUP3 ADD MLOAD DUP2 PUSH1 0x1 ADD PUSH1 0x0 PUSH2 0x100 EXP DUP2 SLOAD DUP2 PUSH20 0xFFFFFFFFFFFFFFFFFFFFFFFFFFFFFFFFFFFFFFFF MUL NOT AND SWAP1 DUP4 PUSH20 0xFFFFFFFFFFFFFFFFFFFFFFFFFFFFFFFFFFFFFFFF AND MUL OR SWAP1 SSTORE POP SWAP1 POP POP POP POP POP JUMP JUMPDEST PUSH1 0x0 DUP1 DUP4 SWAP1 POP PUSH1 0x0 DUP4 SWAP1 POP PUSH1 0x0 DUP3 MLOAD SWAP1 POP DUP2 MLOAD DUP2 EQ PUSH2 0x122F JUMPI PUSH1 0x0 SWAP4 POP POP POP POP PUSH2 0x12E8 JUMP JUMPDEST PUSH1 0x0 JUMPDEST DUP2 DUP2 LT ISZERO PUSH2 0x12DF JUMPI DUP3 DUP2 DUP2 MLOAD DUP2 LT PUSH2 0x124D JUMPI PUSH2 0x124C PUSH2 0x1F12 JUMP JUMPDEST JUMPDEST PUSH1 0x20 ADD ADD MLOAD PUSH1 0xF8 SHR PUSH1 0xF8 SHL PUSH31 0xFFFFFFFFFFFFFFFFFFFFFFFFFFFFFFFFFFFFFFFFFFFFFFFFFFFFFFFFFFFFFF NOT AND DUP5 DUP3 DUP2 MLOAD DUP2 LT PUSH2 0x128D JUMPI PUSH2 0x128C PUSH2 0x1F12 JUMP JUMPDEST JUMPDEST PUSH1 0x20 ADD ADD MLOAD PUSH1 0xF8 SHR PUSH1 0xF8 SHL PUSH31 0xFFFFFFFFFFFFFFFFFFFFFFFFFFFFFFFFFFFFFFFFFFFFFFFFFFFFFFFFFFFFFF NOT AND EQ PUSH2 0x12CC JUMPI PUSH1 0x0 SWAP5 POP POP POP POP POP PUSH2 0x12E8 JUMP JUMPDEST DUP1 DUP1 PUSH2 0x12D7 SWAP1 PUSH2 0x1E6B JUMP JUMPDEST SWAP2 POP POP PUSH2 0x1232 JUMP JUMPDEST POP PUSH1 0x1 SWAP4 POP POP POP POP JUMPDEST SWAP3 SWAP2 POP POP JUMP JUMPDEST PUSH1 0x40 MLOAD DUP1 PUSH2 0x5A0 ADD PUSH1 0x40 MSTORE DUP1 PUSH1 0x2D SWAP1 PUSH1 0x20 DUP3 MUL DUP1 CALLDATASIZE DUP4 CALLDATACOPY DUP1 DUP3 ADD SWAP2 POP POP SWAP1 POP POP SWAP1 JUMP JUMPDEST DUP3 DUP1 SLOAD PUSH2 0x131D SWAP1 PUSH2 0x1E08 JUMP JUMPDEST SWAP1 PUSH1 0x0 MSTORE PUSH1 0x20 PUSH1 0x0 KECCAK256 SWAP1 PUSH1 0x1F ADD PUSH1 0x20 SWAP1 DIV DUP2 ADD SWAP3 DUP3 PUSH2 0x133F JUMPI PUSH1 0x0 DUP6 SSTORE PUSH2 0x1386 JUMP JUMPDEST DUP3 PUSH1 0x1F LT PUSH2 0x1358 JUMPI DUP1 MLOAD PUSH1 0xFF NOT AND DUP4 DUP1 ADD OR DUP6 SSTORE PUSH2 0x1386 JUMP JUMPDEST DUP3 DUP1 ADD PUSH1 0x1 ADD DUP6 SSTORE DUP3 ISZERO PUSH2 0x1386 JUMPI SWAP2 DUP3 ADD JUMPDEST DUP3 DUP2 GT ISZERO PUSH2 0x1385 JUMPI DUP3 MLOAD DUP3 SSTORE SWAP2 PUSH1 0x20 ADD SWAP2 SWAP1 PUSH1 0x1 ADD SWAP1 PUSH2 0x136A JUMP JUMPDEST JUMPDEST POP SWAP1 POP PUSH2 0x1393 SWAP2 SWAP1 PUSH2 0x142A JUMP JUMPDEST POP SWAP1 JUMP JUMPDEST DUP3 PUSH1 0x2D DUP2 ADD SWAP3 DUP3 ISZERO PUSH2 0x13C6 JUMPI SWAP2 PUSH1 0x20 MUL DUP3 ADD JUMPDEST DUP3 DUP2 GT ISZERO PUSH2 0x13C5 JUMPI DUP3 MLOAD DUP3 SSTORE SWAP2 PUSH1 0x20 ADD SWAP2 SWAP1 PUSH1 0x1 ADD SWAP1 PUSH2 0x13AA JUMP JUMPDEST JUMPDEST POP SWAP1 POP PUSH2 0x13D3 SWAP2 SWAP1 PUSH2 0x142A JUMP JUMPDEST POP SWAP1 JUMP JUMPDEST POP DUP1 SLOAD PUSH2 0x13E3 SWAP1 PUSH2 0x1E08 JUMP JUMPDEST PUSH1 0x0 DUP3 SSTORE DUP1 PUSH1 0x1F LT PUSH2 0x13F5 JUMPI POP PUSH2 0x1414 JUMP JUMPDEST PUSH1 0x1F ADD PUSH1 0x20 SWAP1 DIV SWAP1 PUSH1 0x0 MSTORE PUSH1 0x20 PUSH1 0x0 KECCAK256 SWAP1 DUP2 ADD SWAP1 PUSH2 0x1413 SWAP2 SWAP1 PUSH2 0x142A JUMP JUMPDEST JUMPDEST POP JUMP JUMPDEST POP DUP1 PUSH1 0x2D ADD SWAP1 PUSH2 0x1427 SWAP2 SWAP1 PUSH2 0x142A JUMP JUMPDEST POP JUMP JUMPDEST JUMPDEST DUP1 DUP3 GT ISZERO PUSH2 0x1443 JUMPI PUSH1 0x0 DUP2 PUSH1 0x0 SWAP1 SSTORE POP PUSH1 0x1 ADD PUSH2 0x142B JUMP JUMPDEST POP SWAP1 JUMP JUMPDEST PUSH1 0x0 PUSH2 0x145A PUSH2 0x1455 DUP5 PUSH2 0x1C6D JUMP JUMPDEST PUSH2 0x1C48 JUMP JUMPDEST SWAP1 POP DUP3 DUP2 MSTORE PUSH1 0x20 DUP2 ADD DUP5 DUP5 DUP5 ADD GT ISZERO PUSH2 0x1476 JUMPI PUSH2 0x1475 PUSH2 0x1F75 JUMP JUMPDEST JUMPDEST PUSH2 0x1481 DUP5 DUP3 DUP6 PUSH2 0x1DC6 JUMP JUMPDEST POP SWAP4 SWAP3 POP POP POP JUMP JUMPDEST PUSH1 0x0 DUP2 CALLDATALOAD SWAP1 POP PUSH2 0x1498 DUP2 PUSH2 0x2010 JUMP JUMPDEST SWAP3 SWAP2 POP POP JUMP JUMPDEST PUSH1 0x0 DUP3 PUSH1 0x1F DUP4 ADD SLT PUSH2 0x14B3 JUMPI PUSH2 0x14B2 PUSH2 0x1F70 JUMP JUMPDEST JUMPDEST DUP2 CALLDATALOAD PUSH2 0x14C3 DUP5 DUP3 PUSH1 0x20 DUP7 ADD PUSH2 0x1447 JUMP JUMPDEST SWAP2 POP POP SWAP3 SWAP2 POP POP JUMP JUMPDEST PUSH1 0x0 DUP2 CALLDATALOAD SWAP1 POP PUSH2 0x14DB DUP2 PUSH2 0x2027 JUMP JUMPDEST SWAP3 SWAP2 POP POP JUMP JUMPDEST PUSH1 0x0 PUSH1 0x20 DUP3 DUP5 SUB SLT ISZERO PUSH2 0x14F7 JUMPI PUSH2 0x14F6 PUSH2 0x1F7F JUMP JUMPDEST JUMPDEST PUSH1 0x0 PUSH2 0x1505 DUP5 DUP3 DUP6 ADD PUSH2 0x1489 JUMP JUMPDEST SWAP2 POP POP SWAP3 SWAP2 POP POP JUMP JUMPDEST PUSH1 0x0 DUP1 PUSH1 0x0 PUSH1 0x60 DUP5 DUP7 SUB SLT ISZERO PUSH2 0x1527 JUMPI PUSH2 0x1526 PUSH2 0x1F7F JUMP JUMPDEST JUMPDEST PUSH1 0x0 PUSH2 0x1535 DUP7 DUP3 DUP8 ADD PUSH2 0x1489 JUMP JUMPDEST SWAP4 POP POP PUSH1 0x20 DUP5 ADD CALLDATALOAD PUSH8 0xFFFFFFFFFFFFFFFF DUP2 GT ISZERO PUSH2 0x1556 JUMPI PUSH2 0x1555 PUSH2 0x1F7A JUMP JUMPDEST JUMPDEST PUSH2 0x1562 DUP7 DUP3 DUP8 ADD PUSH2 0x149E JUMP JUMPDEST SWAP3 POP POP PUSH1 0x40 PUSH2 0x1573 DUP7 DUP3 DUP8 ADD PUSH2 0x14CC JUMP JUMPDEST SWAP2 POP POP SWAP3 POP SWAP3 POP SWAP3 JUMP JUMPDEST PUSH1 0x0 DUP1 PUSH1 0x0 DUP1 PUSH1 0x80 DUP6 DUP8 SUB SLT ISZERO PUSH2 0x1597 JUMPI PUSH2 0x1596 PUSH2 0x1F7F JUMP JUMPDEST JUMPDEST PUSH1 0x0 PUSH2 0x15A5 DUP8 DUP3 DUP9 ADD PUSH2 0x1489 JUMP JUMPDEST SWAP5 POP POP PUSH1 0x20 DUP6 ADD CALLDATALOAD PUSH8 0xFFFFFFFFFFFFFFFF DUP2 GT ISZERO PUSH2 0x15C6 JUMPI PUSH2 0x15C5 PUSH2 0x1F7A JUMP JUMPDEST JUMPDEST PUSH2 0x15D2 DUP8 DUP3 DUP9 ADD PUSH2 0x149E JUMP JUMPDEST SWAP4 POP POP PUSH1 0x40 PUSH2 0x15E3 DUP8 DUP3 DUP9 ADD PUSH2 0x14CC JUMP JUMPDEST SWAP3 POP POP PUSH1 0x60 DUP6 ADD CALLDATALOAD PUSH8 0xFFFFFFFFFFFFFFFF DUP2 GT ISZERO PUSH2 0x1604 JUMPI PUSH2 0x1603 PUSH2 0x1F7A JUMP JUMPDEST JUMPDEST PUSH2 0x1610 DUP8 DUP3 DUP9 ADD PUSH2 0x149E JUMP JUMPDEST SWAP2 POP POP SWAP3 SWAP6 SWAP2 SWAP5 POP SWAP3 POP JUMP JUMPDEST PUSH1 0x0 PUSH1 0x20 DUP3 DUP5 SUB SLT ISZERO PUSH2 0x1632 JUMPI PUSH2 0x1631 PUSH2 0x1F7F JUMP JUMPDEST JUMPDEST PUSH1 0x0 DUP3 ADD CALLDATALOAD PUSH8 0xFFFFFFFFFFFFFFFF DUP2 GT ISZERO PUSH2 0x1650 JUMPI PUSH2 0x164F PUSH2 0x1F7A JUMP JUMPDEST JUMPDEST PUSH2 0x165C DUP5 DUP3 DUP6 ADD PUSH2 0x149E JUMP JUMPDEST SWAP2 POP POP SWAP3 SWAP2 POP POP JUMP JUMPDEST PUSH1 0x0 DUP1 PUSH1 0x40 DUP4 DUP6 SUB SLT ISZERO PUSH2 0x167C JUMPI PUSH2 0x167B PUSH2 0x1F7F JUMP JUMPDEST JUMPDEST PUSH1 0x0 DUP4 ADD CALLDATALOAD PUSH8 0xFFFFFFFFFFFFFFFF DUP2 GT ISZERO PUSH2 0x169A JUMPI PUSH2 0x1699 PUSH2 0x1F7A JUMP JUMPDEST JUMPDEST PUSH2 0x16A6 DUP6 DUP3 DUP7 ADD PUSH2 0x149E JUMP JUMPDEST SWAP3 POP POP PUSH1 0x20 PUSH2 0x16B7 DUP6 DUP3 DUP7 ADD PUSH2 0x14CC JUMP JUMPDEST SWAP2 POP POP SWAP3 POP SWAP3 SWAP1 POP JUMP JUMPDEST PUSH1 0x0 PUSH1 0x20 DUP3 DUP5 SUB SLT ISZERO PUSH2 0x16D7 JUMPI PUSH2 0x16D6 PUSH2 0x1F7F JUMP JUMPDEST JUMPDEST PUSH1 0x0 PUSH2 0x16E5 DUP5 DUP3 DUP6 ADD PUSH2 0x14CC JUMP JUMPDEST SWAP2 POP POP SWAP3 SWAP2 POP POP JUMP JUMPDEST PUSH1 0x0 DUP1 PUSH1 0x0 PUSH1 0x60 DUP5 DUP7 SUB SLT ISZERO PUSH2 0x1707 JUMPI PUSH2 0x1706 PUSH2 0x1F7F JUMP JUMPDEST JUMPDEST PUSH1 0x0 PUSH2 0x1715 DUP7 DUP3 DUP8 ADD PUSH2 0x14CC JUMP JUMPDEST SWAP4 POP POP PUSH1 0x20 DUP5 ADD CALLDATALOAD PUSH8 0xFFFFFFFFFFFFFFFF DUP2 GT ISZERO PUSH2 0x1736 JUMPI PUSH2 0x1735 PUSH2 0x1F7A JUMP JUMPDEST JUMPDEST PUSH2 0x1742 DUP7 DUP3 DUP8 ADD PUSH2 0x149E JUMP JUMPDEST SWAP3 POP POP PUSH1 0x40 PUSH2 0x1753 DUP7 DUP3 DUP8 ADD PUSH2 0x14CC JUMP JUMPDEST SWAP2 POP POP SWAP3 POP SWAP3 POP SWAP3 JUMP JUMPDEST PUSH1 0x0 PUSH2 0x1769 DUP4 DUP4 PUSH2 0x17A1 JUMP JUMPDEST PUSH1 0x20 DUP4 ADD SWAP1 POP SWAP3 SWAP2 POP POP JUMP JUMPDEST PUSH1 0x0 PUSH2 0x1781 DUP4 DUP4 PUSH2 0x18E9 JUMP JUMPDEST SWAP1 POP SWAP3 SWAP2 POP POP JUMP JUMPDEST PUSH1 0x0 PUSH2 0x1795 DUP4 DUP4 PUSH2 0x1A74 JUMP JUMPDEST PUSH1 0x20 DUP4 ADD SWAP1 POP SWAP3 SWAP2 POP POP JUMP JUMPDEST PUSH2 0x17AA DUP2 PUSH2 0x1D8A JUMP JUMPDEST DUP3 MSTORE POP POP JUMP JUMPDEST PUSH2 0x17B9 DUP2 PUSH2 0x1D8A JUMP JUMPDEST DUP3 MSTORE POP POP JUMP JUMPDEST PUSH1 0x0 PUSH2 0x17CA DUP3 PUSH2 0x1CDD JUMP JUMPDEST PUSH2 0x17D4 DUP2 DUP6 PUSH2 0x1D30 JUMP JUMPDEST SWAP4 POP PUSH2 0x17DF DUP4 PUSH2 0x1C9E JUMP JUMPDEST DUP1 PUSH1 0x0 JUMPDEST DUP4 DUP2 LT ISZERO PUSH2 0x1810 JUMPI DUP2 MLOAD PUSH2 0x17F7 DUP9 DUP3 PUSH2 0x175D JUMP JUMPDEST SWAP8 POP PUSH2 0x1802 DUP4 PUSH2 0x1D09 JUMP JUMPDEST SWAP3 POP POP PUSH1 0x1 DUP2 ADD SWAP1 POP PUSH2 0x17E3 JUMP JUMPDEST POP DUP6 SWAP4 POP POP POP POP SWAP3 SWAP2 POP POP JUMP JUMPDEST PUSH1 0x0 PUSH2 0x1828 DUP3 PUSH2 0x1CE8 JUMP JUMPDEST PUSH2 0x1832 DUP2 DUP6 PUSH2 0x1D41 JUMP JUMPDEST SWAP4 POP DUP4 PUSH1 0x20 DUP3 MUL DUP6 ADD PUSH2 0x1844 DUP6 PUSH2 0x1CAE JUMP JUMPDEST DUP1 PUSH1 0x0 JUMPDEST DUP6 DUP2 LT ISZERO PUSH2 0x1880 JUMPI DUP5 DUP5 SUB DUP10 MSTORE DUP2 MLOAD PUSH2 0x1861 DUP6 DUP3 PUSH2 0x1775 JUMP JUMPDEST SWAP5 POP PUSH2 0x186C DUP4 PUSH2 0x1D16 JUMP JUMPDEST SWAP3 POP PUSH1 0x20 DUP11 ADD SWAP10 POP POP PUSH1 0x1 DUP2 ADD SWAP1 POP PUSH2 0x1848 JUMP JUMPDEST POP DUP3 SWAP8 POP DUP8 SWAP6 POP POP POP POP POP POP SWAP3 SWAP2 POP POP JUMP JUMPDEST PUSH2 0x189B DUP2 PUSH2 0x1CF3 JUMP JUMPDEST PUSH2 0x18A5 DUP2 DUP5 PUSH2 0x1D52 JUMP JUMPDEST SWAP3 POP PUSH2 0x18B0 DUP3 PUSH2 0x1CBE JUMP JUMPDEST DUP1 PUSH1 0x0 JUMPDEST DUP4 DUP2 LT ISZERO PUSH2 0x18E1 JUMPI DUP2 MLOAD PUSH2 0x18C8 DUP8 DUP3 PUSH2 0x1789 JUMP JUMPDEST SWAP7 POP PUSH2 0x18D3 DUP4 PUSH2 0x1D23 JUMP JUMPDEST SWAP3 POP POP PUSH1 0x1 DUP2 ADD SWAP1 POP PUSH2 0x18B4 JUMP JUMPDEST POP POP POP POP POP POP JUMP JUMPDEST PUSH1 0x0 PUSH2 0x18F4 DUP3 PUSH2 0x1CFE JUMP JUMPDEST PUSH2 0x18FE DUP2 DUP6 PUSH2 0x1D5D JUMP JUMPDEST SWAP4 POP PUSH2 0x190E DUP2 DUP6 PUSH1 0x20 DUP7 ADD PUSH2 0x1DD5 JUMP JUMPDEST PUSH2 0x1917 DUP2 PUSH2 0x1F84 JUMP JUMPDEST DUP5 ADD SWAP2 POP POP SWAP3 SWAP2 POP POP JUMP JUMPDEST PUSH1 0x0 PUSH2 0x192D DUP3 PUSH2 0x1CFE JUMP JUMPDEST PUSH2 0x1937 DUP2 DUP6 PUSH2 0x1D6E JUMP JUMPDEST SWAP4 POP PUSH2 0x1947 DUP2 DUP6 PUSH1 0x20 DUP7 ADD PUSH2 0x1DD5 JUMP JUMPDEST PUSH2 0x1950 DUP2 PUSH2 0x1F84 JUMP JUMPDEST DUP5 ADD SWAP2 POP POP SWAP3 SWAP2 POP POP JUMP JUMPDEST PUSH1 0x0 PUSH2 0x1966 DUP3 PUSH2 0x1CFE JUMP JUMPDEST PUSH2 0x1970 DUP2 DUP6 PUSH2 0x1D7F JUMP JUMPDEST SWAP4 POP PUSH2 0x1980 DUP2 DUP6 PUSH1 0x20 DUP7 ADD PUSH2 0x1DD5 JUMP JUMPDEST DUP1 DUP5 ADD SWAP2 POP POP SWAP3 SWAP2 POP POP JUMP JUMPDEST PUSH1 0x0 DUP2 SLOAD PUSH2 0x1999 DUP2 PUSH2 0x1E08 JUMP JUMPDEST PUSH2 0x19A3 DUP2 DUP7 PUSH2 0x1D7F JUMP JUMPDEST SWAP5 POP PUSH1 0x1 DUP3 AND PUSH1 0x0 DUP2 EQ PUSH2 0x19BE JUMPI PUSH1 0x1 DUP2 EQ PUSH2 0x19CF JUMPI PUSH2 0x1A02 JUMP JUMPDEST PUSH1 0xFF NOT DUP4 AND DUP7 MSTORE DUP2 DUP7 ADD SWAP4 POP PUSH2 0x1A02 JUMP JUMPDEST PUSH2 0x19D8 DUP6 PUSH2 0x1CC8 JUMP JUMPDEST PUSH1 0x0 JUMPDEST DUP4 DUP2 LT ISZERO PUSH2 0x19FA JUMPI DUP2 SLOAD DUP2 DUP10 ADD MSTORE PUSH1 0x1 DUP3 ADD SWAP2 POP PUSH1 0x20 DUP2 ADD SWAP1 POP PUSH2 0x19DB JUMP JUMPDEST DUP4 DUP9 ADD SWAP6 POP POP POP JUMPDEST POP POP POP SWAP3 SWAP2 POP POP JUMP JUMPDEST PUSH1 0x0 PUSH2 0x1A18 PUSH1 0x13 DUP4 PUSH2 0x1D6E JUMP JUMPDEST SWAP2 POP PUSH2 0x1A23 DUP3 PUSH2 0x1F95 JUMP JUMPDEST PUSH1 0x20 DUP3 ADD SWAP1 POP SWAP2 SWAP1 POP JUMP JUMPDEST PUSH1 0x0 PUSH2 0x1A3B PUSH1 0x15 DUP4 PUSH2 0x1D6E JUMP JUMPDEST SWAP2 POP PUSH2 0x1A46 DUP3 PUSH2 0x1FBE JUMP JUMPDEST PUSH1 0x20 DUP3 ADD SWAP1 POP SWAP2 SWAP1 POP JUMP JUMPDEST PUSH1 0x0 PUSH2 0x1A5E PUSH1 0xF DUP4 PUSH2 0x1D6E JUMP JUMPDEST SWAP2 POP PUSH2 0x1A69 DUP3 PUSH2 0x1FE7 JUMP JUMPDEST PUSH1 0x20 DUP3 ADD SWAP1 POP SWAP2 SWAP1 POP JUMP JUMPDEST PUSH2 0x1A7D DUP2 PUSH2 0x1DBC JUMP JUMPDEST DUP3 MSTORE POP POP JUMP JUMPDEST PUSH2 0x1A8C DUP2 PUSH2 0x1DBC JUMP JUMPDEST DUP3 MSTORE POP POP JUMP JUMPDEST PUSH1 0x0 PUSH2 0x1A9E DUP3 DUP5 PUSH2 0x195B JUMP JUMPDEST SWAP2 POP DUP2 SWAP1 POP SWAP3 SWAP2 POP POP JUMP JUMPDEST PUSH1 0x0 PUSH2 0x1AB5 DUP3 DUP5 PUSH2 0x198C JUMP JUMPDEST SWAP2 POP DUP2 SWAP1 POP SWAP3 SWAP2 POP POP JUMP JUMPDEST PUSH1 0x0 PUSH1 0x20 DUP3 ADD SWAP1 POP PUSH2 0x1AD5 PUSH1 0x0 DUP4 ADD DUP5 PUSH2 0x17B0 JUMP JUMPDEST SWAP3 SWAP2 POP POP JUMP JUMPDEST PUSH1 0x0 PUSH2 0x5C0 DUP3 ADD SWAP1 POP PUSH2 0x1AF1 PUSH1 0x0 DUP4 ADD DUP6 PUSH2 0x17B0 JUMP JUMPDEST PUSH2 0x1AFE PUSH1 0x20 DUP4 ADD DUP5 PUSH2 0x1892 JUMP JUMPDEST SWAP4 SWAP3 POP POP POP JUMP JUMPDEST PUSH1 0x0 PUSH1 0x40 DUP3 ADD SWAP1 POP PUSH2 0x1B1A PUSH1 0x0 DUP4 ADD DUP6 PUSH2 0x17B0 JUMP JUMPDEST DUP2 DUP2 SUB PUSH1 0x20 DUP4 ADD MSTORE PUSH2 0x1B2C DUP2 DUP5 PUSH2 0x1922 JUMP JUMPDEST SWAP1 POP SWAP4 SWAP3 POP POP POP JUMP JUMPDEST PUSH1 0x0 PUSH2 0x600 DUP3 ADD SWAP1 POP PUSH2 0x1B4B PUSH1 0x0 DUP4 ADD DUP8 PUSH2 0x17B0 JUMP JUMPDEST DUP2 DUP2 SUB PUSH1 0x20 DUP4 ADD MSTORE PUSH2 0x1B5D DUP2 DUP7 PUSH2 0x1922 JUMP JUMPDEST SWAP1 POP PUSH2 0x1B6C PUSH1 0x40 DUP4 ADD DUP6 PUSH2 0x1A83 JUMP JUMPDEST PUSH2 0x1B79 PUSH1 0x60 DUP4 ADD DUP5 PUSH2 0x1892 JUMP JUMPDEST SWAP6 SWAP5 POP POP POP POP POP JUMP JUMPDEST PUSH1 0x0 PUSH1 0x20 DUP3 ADD SWAP1 POP DUP2 DUP2 SUB PUSH1 0x0 DUP4 ADD MSTORE PUSH2 0x1B9C DUP2 DUP5 PUSH2 0x17BF JUMP JUMPDEST SWAP1 POP SWAP3 SWAP2 POP POP JUMP JUMPDEST PUSH1 0x0 PUSH1 0x20 DUP3 ADD SWAP1 POP DUP2 DUP2 SUB PUSH1 0x0 DUP4 ADD MSTORE PUSH2 0x1BBE DUP2 DUP5 PUSH2 0x181D JUMP JUMPDEST SWAP1 POP SWAP3 SWAP2 POP POP JUMP JUMPDEST PUSH1 0x0 PUSH1 0x20 DUP3 ADD SWAP1 POP DUP2 DUP2 SUB PUSH1 0x0 DUP4 ADD MSTORE PUSH2 0x1BE0 DUP2 DUP5 PUSH2 0x1922 JUMP JUMPDEST SWAP1 POP SWAP3 SWAP2 POP POP JUMP JUMPDEST PUSH1 0x0 PUSH1 0x20 DUP3 ADD SWAP1 POP DUP2 DUP2 SUB PUSH1 0x0 DUP4 ADD MSTORE PUSH2 0x1C01 DUP2 PUSH2 0x1A0B JUMP JUMPDEST SWAP1 POP SWAP2 SWAP1 POP JUMP JUMPDEST PUSH1 0x0 PUSH1 0x20 DUP3 ADD SWAP1 POP DUP2 DUP2 SUB PUSH1 0x0 DUP4 ADD MSTORE PUSH2 0x1C21 DUP2 PUSH2 0x1A2E JUMP JUMPDEST SWAP1 POP SWAP2 SWAP1 POP JUMP JUMPDEST PUSH1 0x0 PUSH1 0x20 DUP3 ADD SWAP1 POP DUP2 DUP2 SUB PUSH1 0x0 DUP4 ADD MSTORE PUSH2 0x1C41 DUP2 PUSH2 0x1A51 JUMP JUMPDEST SWAP1 POP SWAP2 SWAP1 POP JUMP JUMPDEST PUSH1 0x0 PUSH2 0x1C52 PUSH2 0x1C63 JUMP JUMPDEST SWAP1 POP PUSH2 0x1C5E DUP3 DUP3 PUSH2 0x1E3A JUMP JUMPDEST SWAP2 SWAP1 POP JUMP JUMPDEST PUSH1 0x0 PUSH1 0x40 MLOAD SWAP1 POP SWAP1 JUMP JUMPDEST PUSH1 0x0 PUSH8 0xFFFFFFFFFFFFFFFF DUP3 GT ISZERO PUSH2 0x1C88 JUMPI PUSH2 0x1C87 PUSH2 0x1F41 JUMP JUMPDEST JUMPDEST PUSH2 0x1C91 DUP3 PUSH2 0x1F84 JUMP JUMPDEST SWAP1 POP PUSH1 0x20 DUP2 ADD SWAP1 POP SWAP2 SWAP1 POP JUMP JUMPDEST PUSH1 0x0 DUP2 SWAP1 POP PUSH1 0x20 DUP3 ADD SWAP1 POP SWAP2 SWAP1 POP JUMP JUMPDEST PUSH1 0x0 DUP2 SWAP1 POP PUSH1 0x20 DUP3 ADD SWAP1 POP SWAP2 SWAP1 POP JUMP JUMPDEST PUSH1 0x0 DUP2 SWAP1 POP SWAP2 SWAP1 POP JUMP JUMPDEST PUSH1 0x0 DUP2 SWAP1 POP DUP2 PUSH1 0x0 MSTORE PUSH1 0x20 PUSH1 0x0 KECCAK256 SWAP1 POP SWAP2 SWAP1 POP JUMP JUMPDEST PUSH1 0x0 DUP2 MLOAD SWAP1 POP SWAP2 SWAP1 POP JUMP JUMPDEST PUSH1 0x0 DUP2 MLOAD SWAP1 POP SWAP2 SWAP1 POP JUMP JUMPDEST PUSH1 0x0 PUSH1 0x2D SWAP1 POP SWAP2 SWAP1 POP JUMP JUMPDEST PUSH1 0x0 DUP2 MLOAD SWAP1 POP SWAP2 SWAP1 POP JUMP JUMPDEST PUSH1 0x0 PUSH1 0x20 DUP3 ADD SWAP1 POP SWAP2 SWAP1 POP JUMP JUMPDEST PUSH1 0x0 PUSH1 0x20 DUP3 ADD SWAP1 POP SWAP2 SWAP1 POP JUMP JUMPDEST PUSH1 0x0 PUSH1 0x20 DUP3 ADD SWAP1 POP SWAP2 SWAP1 POP JUMP JUMPDEST PUSH1 0x0 DUP3 DUP3 MSTORE PUSH1 0x20 DUP3 ADD SWAP1 POP SWAP3 SWAP2 POP POP JUMP JUMPDEST PUSH1 0x0 DUP3 DUP3 MSTORE PUSH1 0x20 DUP3 ADD SWAP1 POP SWAP3 SWAP2 POP POP JUMP JUMPDEST PUSH1 0x0 DUP2 SWAP1 POP SWAP3 SWAP2 POP POP JUMP JUMPDEST PUSH1 0x0 DUP3 DUP3 MSTORE PUSH1 0x20 DUP3 ADD SWAP1 POP SWAP3 SWAP2 POP POP JUMP JUMPDEST PUSH1 0x0 DUP3 DUP3 MSTORE PUSH1 0x20 DUP3 ADD SWAP1 POP SWAP3 SWAP2 POP POP JUMP JUMPDEST PUSH1 0x0 DUP2 SWAP1 POP SWAP3 SWAP2 POP POP JUMP JUMPDEST PUSH1 0x0 PUSH2 0x1D95 DUP3 PUSH2 0x1D9C JUMP JUMPDEST SWAP1 POP SWAP2 SWAP1 POP JUMP JUMPDEST PUSH1 0x0 PUSH20 0xFFFFFFFFFFFFFFFFFFFFFFFFFFFFFFFFFFFFFFFF DUP3 AND SWAP1 POP SWAP2 SWAP1 POP JUMP JUMPDEST PUSH1 0x0 DUP2 SWAP1 POP SWAP2 SWAP1 POP JUMP JUMPDEST DUP3 DUP2 DUP4 CALLDATACOPY PUSH1 0x0 DUP4 DUP4 ADD MSTORE POP POP POP JUMP JUMPDEST PUSH1 0x0 JUMPDEST DUP4 DUP2 LT ISZERO PUSH2 0x1DF3 JUMPI DUP1 DUP3 ADD MLOAD DUP2 DUP5 ADD MSTORE PUSH1 0x20 DUP2 ADD SWAP1 POP PUSH2 0x1DD8 JUMP JUMPDEST DUP4 DUP2 GT ISZERO PUSH2 0x1E02 JUMPI PUSH1 0x0 DUP5 DUP5 ADD MSTORE JUMPDEST POP POP POP POP JUMP JUMPDEST PUSH1 0x0 PUSH1 0x2 DUP3 DIV SWAP1 POP PUSH1 0x1 DUP3 AND DUP1 PUSH2 0x1E20 JUMPI PUSH1 0x7F DUP3 AND SWAP2 POP JUMPDEST PUSH1 0x20 DUP3 LT DUP2 EQ ISZERO PUSH2 0x1E34 JUMPI PUSH2 0x1E33 PUSH2 0x1EE3 JUMP JUMPDEST JUMPDEST POP SWAP2 SWAP1 POP JUMP JUMPDEST PUSH2 0x1E43 DUP3 PUSH2 0x1F84 JUMP JUMPDEST DUP2 ADD DUP2 DUP2 LT PUSH8 0xFFFFFFFFFFFFFFFF DUP3 GT OR ISZERO PUSH2 0x1E62 JUMPI PUSH2 0x1E61 PUSH2 0x1F41 JUMP JUMPDEST JUMPDEST DUP1 PUSH1 0x40 MSTORE POP POP POP JUMP JUMPDEST PUSH1 0x0 PUSH2 0x1E76 DUP3 PUSH2 0x1DBC JUMP JUMPDEST SWAP2 POP PUSH32 0xFFFFFFFFFFFFFFFFFFFFFFFFFFFFFFFFFFFFFFFFFFFFFFFFFFFFFFFFFFFFFFFF DUP3 EQ ISZERO PUSH2 0x1EA9 JUMPI PUSH2 0x1EA8 PUSH2 0x1EB4 JUMP JUMPDEST JUMPDEST PUSH1 0x1 DUP3 ADD SWAP1 POP SWAP2 SWAP1 POP JUMP JUMPDEST PUSH32 0x4E487B7100000000000000000000000000000000000000000000000000000000 PUSH1 0x0 MSTORE PUSH1 0x11 PUSH1 0x4 MSTORE PUSH1 0x24 PUSH1 0x0 REVERT JUMPDEST PUSH32 0x4E487B7100000000000000000000000000000000000000000000000000000000 PUSH1 0x0 MSTORE PUSH1 0x22 PUSH1 0x4 MSTORE PUSH1 0x24 PUSH1 0x0 REVERT JUMPDEST PUSH32 0x4E487B7100000000000000000000000000000000000000000000000000000000 PUSH1 0x0 MSTORE PUSH1 0x32 PUSH1 0x4 MSTORE PUSH1 0x24 PUSH1 0x0 REVERT JUMPDEST PUSH32 0x4E487B7100000000000000000000000000000000000000000000000000000000 PUSH1 0x0 MSTORE PUSH1 0x41 PUSH1 0x4 MSTORE PUSH1 0x24 PUSH1 0x0 REVERT JUMPDEST PUSH1 0x0 DUP1 REVERT JUMPDEST PUSH1 0x0 DUP1 REVERT JUMPDEST PUSH1 0x0 DUP1 REVERT JUMPDEST PUSH1 0x0 DUP1 REVERT JUMPDEST PUSH1 0x0 PUSH1 0x1F NOT PUSH1 0x1F DUP4 ADD AND SWAP1 POP SWAP2 SWAP1 POP JUMP JUMPDEST PUSH32 0x5468657265206973206E6F2053747564656E7400000000000000000000000000 PUSH1 0x0 DUP3 ADD MSTORE POP JUMP JUMPDEST PUSH32 0x4974277320616C72656164792072657365727665640000000000000000000000 PUSH1 0x0 DUP3 ADD MSTORE POP JUMP JUMPDEST PUSH32 0x5468657265206973206E6F204255530000000000000000000000000000000000 PUSH1 0x0 DUP3 ADD MSTORE POP JUMP JUMPDEST PUSH2 0x2019 DUP2 PUSH2 0x1D8A JUMP JUMPDEST DUP2 EQ PUSH2 0x2024 JUMPI PUSH1 0x0 DUP1 REVERT JUMPDEST POP JUMP JUMPDEST PUSH2 0x2030 DUP2 PUSH2 0x1DBC JUMP JUMPDEST DUP2 EQ PUSH2 0x203B JUMPI PUSH1 0x0 DUP1 REVERT JUMPDEST POP JUMP INVALID LOG2 PUSH5 0x6970667358 0x22 SLT KECCAK256 0xCD SWAP11 PUSH11 0x2D4BD92F06FD1B3E383A5B CALLDATALOAD 0xE4 RETURN STOP 0xF9 ISZERO 0x4C 0x22 0xC8 PUSH4 0x54A6D16B 0xC5 GASPRICE PUSH14 0xD764736F6C634300080700330000 "
				},
				"gasEstimates": {
					"creation": {
						"codeDepositCost": "1661600",
						"executionCost": "26009",
						"totalCost": "1687609"
					},
					"external": {
						"Reservation(uint256,string,uint256)": "infinite",
						"Resetbus(address)": "infinite",
						"addBus(address,string,uint256,string)": "infinite",
						"addStudent(address,string,uint256)": "infinite",
						"cancelReservation(string,uint256)": "infinite",
						"deleteBus(string)": "infinite",
						"deleteStudent(uint256)": "infinite",
						"getAllBus()": "infinite",
						"getAllStudent()": "infinite",
						"getBus(string)": "infinite",
						"getStudent(uint256)": "infinite",
						"getStudentAdress(uint256)": "2950",
						"getbusNums()": "infinite"
					},
					"internal": {
						"stringsEquals(string memory,string memory)": "infinite"
					}
				},
				"methodIdentifiers": {
					"Reservation(uint256,string,uint256)": "2bf4ef72",
					"Resetbus(address)": "c56700c1",
					"addBus(address,string,uint256,string)": "009a4d3c",
					"addStudent(address,string,uint256)": "f041f73f",
					"cancelReservation(string,uint256)": "2c52f03e",
					"deleteBus(string)": "62a80162",
					"deleteStudent(uint256)": "b645307d",
					"getAllBus()": "75285b65",
					"getAllStudent()": "133d0460",
					"getBus(string)": "80e1127b",
					"getStudent(uint256)": "642f9163",
					"getStudentAdress(uint256)": "dbd5c356",
					"getbusNums()": "6269ba34"
				}
			},
			"storageLayout": {
				"storage": [
					{
						"astId": 21,
						"contract": "contracts/Database.sol:Database",
						"label": "manager",
						"offset": 0,
						"slot": "0",
						"type": "t_address"
					},
					{
						"astId": 24,
						"contract": "contracts/Database.sol:Database",
						"label": "buses",
						"offset": 0,
						"slot": "1",
						"type": "t_array(t_address)dyn_storage"
					},
					{
						"astId": 27,
						"contract": "contracts/Database.sol:Database",
						"label": "students",
						"offset": 0,
						"slot": "2",
						"type": "t_array(t_address)dyn_storage"
					},
					{
						"astId": 30,
						"contract": "contracts/Database.sol:Database",
						"label": "busNum",
						"offset": 0,
						"slot": "3",
						"type": "t_array(t_string_storage)dyn_storage"
					},
					{
						"astId": 33,
						"contract": "contracts/Database.sol:Database",
						"label": "studentNum",
						"offset": 0,
						"slot": "4",
						"type": "t_array(t_uint256)dyn_storage"
					},
					{
						"astId": 47,
						"contract": "contracts/Database.sol:Database",
						"label": "BusDB",
						"offset": 0,
						"slot": "5",
						"type": "t_mapping(t_string_memory_ptr,t_struct(Bus_DB)19_storage)"
					},
					{
						"astId": 52,
						"contract": "contracts/Database.sol:Database",
						"label": "StudentDB",
						"offset": 0,
						"slot": "6",
						"type": "t_mapping(t_uint256,t_struct(Student_DB)8_storage)"
					}
				],
				"types": {
					"t_address": {
						"encoding": "inplace",
						"label": "address",
						"numberOfBytes": "20"
					},
					"t_array(t_address)dyn_storage": {
						"base": "t_address",
						"encoding": "dynamic_array",
						"label": "address[]",
						"numberOfBytes": "32"
					},
					"t_array(t_string_storage)dyn_storage": {
						"base": "t_string_storage",
						"encoding": "dynamic_array",
						"label": "string[]",
						"numberOfBytes": "32"
					},
					"t_array(t_uint256)45_storage": {
						"base": "t_uint256",
						"encoding": "inplace",
						"label": "uint256[45]",
						"numberOfBytes": "1440"
					},
					"t_array(t_uint256)dyn_storage": {
						"base": "t_uint256",
						"encoding": "dynamic_array",
						"label": "uint256[]",
						"numberOfBytes": "32"
					},
					"t_mapping(t_string_memory_ptr,t_struct(Bus_DB)19_storage)": {
						"encoding": "mapping",
						"key": "t_string_memory_ptr",
						"label": "mapping(string => struct Database.Bus_DB)",
						"numberOfBytes": "32",
						"value": "t_struct(Bus_DB)19_storage"
					},
					"t_mapping(t_uint256,t_struct(Student_DB)8_storage)": {
						"encoding": "mapping",
						"key": "t_uint256",
						"label": "mapping(uint256 => struct Database.Student_DB)",
						"numberOfBytes": "32",
						"value": "t_struct(Student_DB)8_storage"
					},
					"t_string_memory_ptr": {
						"encoding": "bytes",
						"label": "string",
						"numberOfBytes": "32"
					},
					"t_string_storage": {
						"encoding": "bytes",
						"label": "string",
						"numberOfBytes": "32"
					},
					"t_struct(Bus_DB)19_storage": {
						"encoding": "inplace",
						"label": "struct Database.Bus_DB",
						"members": [
							{
								"astId": 10,
								"contract": "contracts/Database.sol:Database",
								"label": "bus",
								"offset": 0,
								"slot": "0",
								"type": "t_address"
							},
							{
								"astId": 12,
								"contract": "contracts/Database.sol:Database",
								"label": "destination",
								"offset": 0,
								"slot": "1",
								"type": "t_string_storage"
							},
							{
								"astId": 14,
								"contract": "contracts/Database.sol:Database",
								"label": "start_time",
								"offset": 0,
								"slot": "2",
								"type": "t_uint256"
							},
							{
								"astId": 18,
								"contract": "contracts/Database.sol:Database",
								"label": "Seat_number",
								"offset": 0,
								"slot": "3",
								"type": "t_array(t_uint256)45_storage"
							}
						],
						"numberOfBytes": "1536"
					},
					"t_struct(Student_DB)8_storage": {
						"encoding": "inplace",
						"label": "struct Database.Student_DB",
						"members": [
							{
								"astId": 5,
								"contract": "contracts/Database.sol:Database",
								"label": "student_name",
								"offset": 0,
								"slot": "0",
								"type": "t_string_storage"
							},
							{
								"astId": 7,
								"contract": "contracts/Database.sol:Database",
								"label": "student",
								"offset": 0,
								"slot": "1",
								"type": "t_address"
							}
						],
						"numberOfBytes": "64"
					},
					"t_uint256": {
						"encoding": "inplace",
						"label": "uint256",
						"numberOfBytes": "32"
					}
				}
			},
			"userdoc": {
				"kind": "user",
				"methods": {},
				"version": 1
			}
		}
	}
}