{
	"contracts/main.sol": {
		"smartReservation": {
			"abi": [
				{
					"inputs": [],
					"stateMutability": "nonpayable",
					"type": "constructor"
				},
				{
					"inputs": [
						{
							"internalType": "uint256",
							"name": "_num",
							"type": "uint256"
						},
						{
							"internalType": "string",
							"name": "_destination",
							"type": "string"
						}
					],
					"name": "addBus",
					"outputs": [
						{
							"internalType": "contract Bus",
							"name": "",
							"type": "address"
						}
					],
					"stateMutability": "nonpayable",
					"type": "function"
				},
				{
					"inputs": [
						{
							"internalType": "uint256",
							"name": "_num",
							"type": "uint256"
						}
					],
					"name": "getBusInformation",
					"outputs": [
						{
							"internalType": "uint256",
							"name": "",
							"type": "uint256"
						},
						{
							"internalType": "string",
							"name": "",
							"type": "string"
						}
					],
					"stateMutability": "view",
					"type": "function"
				}
			],
			"devdoc": {
				"kind": "dev",
				"methods": {},
				"version": 1
			},
			"evm": {
				"assembly": "    /* \"contracts/main.sol\":144:733  contract smartReservation{... */\n  mstore(0x40, 0x80)\n    /* \"contracts/main.sol\":237:287  constructor(){... */\n  callvalue\n  dup1\n  iszero\n  tag_1\n  jumpi\n  0x00\n  dup1\n  revert\ntag_1:\n  pop\n    /* \"contracts/main.sol\":270:280  msg.sender */\n  caller\n    /* \"contracts/main.sol\":260:267  manager */\n  0x00\n  dup1\n    /* \"contracts/main.sol\":260:280  manager = msg.sender */\n  0x0100\n  exp\n  dup2\n  sload\n  dup2\n  0xffffffffffffffffffffffffffffffffffffffff\n  mul\n  not\n  and\n  swap1\n  dup4\n  0xffffffffffffffffffffffffffffffffffffffff\n  and\n  mul\n  or\n  swap1\n  sstore\n  pop\n    /* \"contracts/main.sol\":144:733  contract smartReservation{... */\n  dataSize(sub_0)\n  dup1\n  dataOffset(sub_0)\n  0x00\n  codecopy\n  0x00\n  return\nstop\n\nsub_0: assembly {\n        /* \"contracts/main.sol\":144:733  contract smartReservation{... */\n      mstore(0x40, 0x80)\n      callvalue\n      dup1\n      iszero\n      tag_1\n      jumpi\n      0x00\n      dup1\n      revert\n    tag_1:\n      pop\n      jumpi(tag_2, lt(calldatasize, 0x04))\n      shr(0xe0, calldataload(0x00))\n      dup1\n      0x9221aa1a\n      eq\n      tag_3\n      jumpi\n      dup1\n      0xfbcc6cb5\n      eq\n      tag_4\n      jumpi\n    tag_2:\n      0x00\n      dup1\n      revert\n        /* \"contracts/main.sol\":606:731  function getBusInformation(uint _num) public view returns(uint, string memory) {... */\n    tag_3:\n      tag_5\n      0x04\n      dup1\n      calldatasize\n      sub\n      dup2\n      add\n      swap1\n      tag_6\n      swap2\n      swap1\n      tag_7\n      jump\t// in\n    tag_6:\n      tag_8\n      jump\t// in\n    tag_5:\n      mload(0x40)\n      tag_9\n      swap3\n      swap2\n      swap1\n      tag_10\n      jump\t// in\n    tag_9:\n      mload(0x40)\n      dup1\n      swap2\n      sub\n      swap1\n      return\n        /* \"contracts/main.sol\":364:600  function addBus(uint _num,string memory _destination) public returns(Bus){... */\n    tag_4:\n      tag_11\n      0x04\n      dup1\n      calldatasize\n      sub\n      dup2\n      add\n      swap1\n      tag_12\n      swap2\n      swap1\n      tag_13\n      jump\t// in\n    tag_12:\n      tag_14\n      jump\t// in\n    tag_11:\n      mload(0x40)\n      tag_15\n      swap2\n      swap1\n      tag_16\n      jump\t// in\n    tag_15:\n      mload(0x40)\n      dup1\n      swap2\n      sub\n      swap1\n      return\n        /* \"contracts/main.sol\":606:731  function getBusInformation(uint _num) public view returns(uint, string memory) {... */\n    tag_8:\n        /* \"contracts/main.sol\":664:668  uint */\n      0x00\n        /* \"contracts/main.sol\":670:683  string memory */\n      0x60\n        /* \"contracts/main.sol\":702:705  bus */\n      0x01\n        /* \"contracts/main.sol\":702:711  bus[_num] */\n      0x00\n        /* \"contracts/main.sol\":706:710  _num */\n      dup5\n        /* \"contracts/main.sol\":702:711  bus[_num] */\n      dup2\n      mstore\n      0x20\n      add\n      swap1\n      dup2\n      mstore\n      0x20\n      add\n      0x00\n      keccak256\n      0x00\n      swap1\n      sload\n      swap1\n      0x0100\n      exp\n      swap1\n      div\n      0xffffffffffffffffffffffffffffffffffffffff\n      and\n        /* \"contracts/main.sol\":702:722  bus[_num].getBusInfo */\n      0xffffffffffffffffffffffffffffffffffffffff\n      and\n      0x26002bf1\n        /* \"contracts/main.sol\":702:724  bus[_num].getBusInfo() */\n      mload(0x40)\n      dup2\n      0xffffffff\n      and\n      0xe0\n      shl\n      dup2\n      mstore\n      0x04\n      add\n      0x00\n      mload(0x40)\n      dup1\n      dup4\n      sub\n      dup2\n      dup7\n      dup1\n      extcodesize\n      iszero\n      dup1\n      iszero\n      tag_18\n      jumpi\n      0x00\n      dup1\n      revert\n    tag_18:\n      pop\n      gas\n      staticcall\n      iszero\n      dup1\n      iszero\n      tag_20\n      jumpi\n      returndatasize\n      0x00\n      dup1\n      returndatacopy\n      revert(0x00, returndatasize)\n    tag_20:\n      pop\n      pop\n      pop\n      pop\n      mload(0x40)\n      returndatasize\n      0x00\n      dup3\n      returndatacopy\n      returndatasize\n      not(0x1f)\n      0x1f\n      dup3\n      add\n      and\n      dup3\n      add\n      dup1\n      0x40\n      mstore\n      pop\n      dup2\n      add\n      swap1\n      tag_21\n      swap2\n      swap1\n      tag_22\n      jump\t// in\n    tag_21:\n        /* \"contracts/main.sol\":695:724  return bus[_num].getBusInfo() */\n      swap2\n      pop\n      swap2\n      pop\n        /* \"contracts/main.sol\":606:731  function getBusInformation(uint _num) public view returns(uint, string memory) {... */\n      swap2\n      pop\n      swap2\n      jump\t// out\n        /* \"contracts/main.sol\":364:600  function addBus(uint _num,string memory _destination) public returns(Bus){... */\n    tag_14:\n        /* \"contracts/main.sol\":433:436  Bus */\n      0x00\n        /* \"contracts/main.sol\":469:476  manager */\n      dup1\n      0x00\n      swap1\n      sload\n      swap1\n      0x0100\n      exp\n      swap1\n      div\n      0xffffffffffffffffffffffffffffffffffffffff\n      and\n        /* \"contracts/main.sol\":455:476  msg.sender == manager */\n      0xffffffffffffffffffffffffffffffffffffffff\n      and\n        /* \"contracts/main.sol\":455:465  msg.sender */\n      caller\n        /* \"contracts/main.sol\":455:476  msg.sender == manager */\n      0xffffffffffffffffffffffffffffffffffffffff\n      and\n      eq\n        /* \"contracts/main.sol\":447:514  require(msg.sender == manager,... */\n      tag_24\n      jumpi\n      mload(0x40)\n      0x08c379a000000000000000000000000000000000000000000000000000000000\n      dup2\n      mstore\n      0x04\n      add\n      tag_25\n      swap1\n      tag_26\n      jump\t// in\n    tag_25:\n      mload(0x40)\n      dup1\n      swap2\n      sub\n      swap1\n      revert\n    tag_24:\n        /* \"contracts/main.sol\":549:553  _num */\n      dup3\n        /* \"contracts/main.sol\":554:566  _destination */\n      dup3\n        /* \"contracts/main.sol\":541:567  new Bus(_num,_destination) */\n      mload(0x40)\n      tag_27\n      swap1\n      tag_28\n      jump\t// in\n    tag_27:\n      tag_29\n      swap3\n      swap2\n      swap1\n      tag_10\n      jump\t// in\n    tag_29:\n      mload(0x40)\n      dup1\n      swap2\n      sub\n      swap1\n      0x00\n      create\n      dup1\n      iszero\n      dup1\n      iszero\n      tag_30\n      jumpi\n      returndatasize\n      0x00\n      dup1\n      returndatacopy\n      revert(0x00, returndatasize)\n    tag_30:\n      pop\n        /* \"contracts/main.sol\":529:532  bus */\n      0x01\n        /* \"contracts/main.sol\":529:538  bus[_num] */\n      0x00\n        /* \"contracts/main.sol\":533:537  _num */\n      dup6\n        /* \"contracts/main.sol\":529:538  bus[_num] */\n      dup2\n      mstore\n      0x20\n      add\n      swap1\n      dup2\n      mstore\n      0x20\n      add\n      0x00\n      keccak256\n      0x00\n        /* \"contracts/main.sol\":529:567  bus[_num] = new Bus(_num,_destination) */\n      0x0100\n      exp\n      dup2\n      sload\n      dup2\n      0xffffffffffffffffffffffffffffffffffffffff\n      mul\n      not\n      and\n      swap1\n      dup4\n      0xffffffffffffffffffffffffffffffffffffffff\n      and\n      mul\n      or\n      swap1\n      sstore\n      pop\n        /* \"contracts/main.sol\":584:587  bus */\n      0x01\n        /* \"contracts/main.sol\":584:593  bus[_num] */\n      0x00\n        /* \"contracts/main.sol\":588:592  _num */\n      dup5\n        /* \"contracts/main.sol\":584:593  bus[_num] */\n      dup2\n      mstore\n      0x20\n      add\n      swap1\n      dup2\n      mstore\n      0x20\n      add\n      0x00\n      keccak256\n      0x00\n      swap1\n      sload\n      swap1\n      0x0100\n      exp\n      swap1\n      div\n      0xffffffffffffffffffffffffffffffffffffffff\n      and\n        /* \"contracts/main.sol\":577:593  return bus[_num] */\n      swap1\n      pop\n        /* \"contracts/main.sol\":364:600  function addBus(uint _num,string memory _destination) public returns(Bus){... */\n      swap3\n      swap2\n      pop\n      pop\n      jump\t// out\n    tag_28:\n      dataSize(sub_0)\n      dup1\n      dataOffset(sub_0)\n      dup4\n      codecopy\n      add\n      swap1\n      jump\t// out\n        /* \"#utility.yul\":7:419   */\n    tag_32:\n        /* \"#utility.yul\":85:90   */\n      0x00\n        /* \"#utility.yul\":110:176   */\n      tag_34\n        /* \"#utility.yul\":126:175   */\n      tag_35\n        /* \"#utility.yul\":168:174   */\n      dup5\n        /* \"#utility.yul\":126:175   */\n      tag_36\n      jump\t// in\n    tag_35:\n        /* \"#utility.yul\":110:176   */\n      tag_37\n      jump\t// in\n    tag_34:\n        /* \"#utility.yul\":101:176   */\n      swap1\n      pop\n        /* \"#utility.yul\":199:205   */\n      dup3\n        /* \"#utility.yul\":192:197   */\n      dup2\n        /* \"#utility.yul\":185:206   */\n      mstore\n        /* \"#utility.yul\":237:241   */\n      0x20\n        /* \"#utility.yul\":230:235   */\n      dup2\n        /* \"#utility.yul\":226:242   */\n      add\n        /* \"#utility.yul\":275:278   */\n      dup5\n        /* \"#utility.yul\":266:272   */\n      dup5\n        /* \"#utility.yul\":261:264   */\n      dup5\n        /* \"#utility.yul\":257:273   */\n      add\n        /* \"#utility.yul\":254:279   */\n      gt\n        /* \"#utility.yul\":251:363   */\n      iszero\n      tag_38\n      jumpi\n        /* \"#utility.yul\":282:361   */\n      tag_39\n      tag_40\n      jump\t// in\n    tag_39:\n        /* \"#utility.yul\":251:363   */\n    tag_38:\n        /* \"#utility.yul\":372:413   */\n      tag_41\n        /* \"#utility.yul\":406:412   */\n      dup5\n        /* \"#utility.yul\":401:404   */\n      dup3\n        /* \"#utility.yul\":396:399   */\n      dup6\n        /* \"#utility.yul\":372:413   */\n      tag_42\n      jump\t// in\n    tag_41:\n        /* \"#utility.yul\":91:419   */\n      pop\n        /* \"#utility.yul\":7:419   */\n      swap4\n      swap3\n      pop\n      pop\n      pop\n      jump\t// out\n        /* \"#utility.yul\":425:846   */\n    tag_43:\n        /* \"#utility.yul\":514:519   */\n      0x00\n        /* \"#utility.yul\":539:605   */\n      tag_45\n        /* \"#utility.yul\":555:604   */\n      tag_46\n        /* \"#utility.yul\":597:603   */\n      dup5\n        /* \"#utility.yul\":555:604   */\n      tag_36\n      jump\t// in\n    tag_46:\n        /* \"#utility.yul\":539:605   */\n      tag_37\n      jump\t// in\n    tag_45:\n        /* \"#utility.yul\":530:605   */\n      swap1\n      pop\n        /* \"#utility.yul\":628:634   */\n      dup3\n        /* \"#utility.yul\":621:626   */\n      dup2\n        /* \"#utility.yul\":614:635   */\n      mstore\n        /* \"#utility.yul\":666:670   */\n      0x20\n        /* \"#utility.yul\":659:664   */\n      dup2\n        /* \"#utility.yul\":655:671   */\n      add\n        /* \"#utility.yul\":704:707   */\n      dup5\n        /* \"#utility.yul\":695:701   */\n      dup5\n        /* \"#utility.yul\":690:693   */\n      dup5\n        /* \"#utility.yul\":686:702   */\n      add\n        /* \"#utility.yul\":683:708   */\n      gt\n        /* \"#utility.yul\":680:792   */\n      iszero\n      tag_47\n      jumpi\n        /* \"#utility.yul\":711:790   */\n      tag_48\n      tag_40\n      jump\t// in\n    tag_48:\n        /* \"#utility.yul\":680:792   */\n    tag_47:\n        /* \"#utility.yul\":801:840   */\n      tag_49\n        /* \"#utility.yul\":833:839   */\n      dup5\n        /* \"#utility.yul\":828:831   */\n      dup3\n        /* \"#utility.yul\":823:826   */\n      dup6\n        /* \"#utility.yul\":801:840   */\n      tag_50\n      jump\t// in\n    tag_49:\n        /* \"#utility.yul\":520:846   */\n      pop\n        /* \"#utility.yul\":425:846   */\n      swap4\n      swap3\n      pop\n      pop\n      pop\n      jump\t// out\n        /* \"#utility.yul\":866:1206   */\n    tag_51:\n        /* \"#utility.yul\":922:927   */\n      0x00\n        /* \"#utility.yul\":971:974   */\n      dup3\n        /* \"#utility.yul\":964:968   */\n      0x1f\n        /* \"#utility.yul\":956:962   */\n      dup4\n        /* \"#utility.yul\":952:969   */\n      add\n        /* \"#utility.yul\":948:975   */\n      slt\n        /* \"#utility.yul\":938:1060   */\n      tag_53\n      jumpi\n        /* \"#utility.yul\":979:1058   */\n      tag_54\n      tag_55\n      jump\t// in\n    tag_54:\n        /* \"#utility.yul\":938:1060   */\n    tag_53:\n        /* \"#utility.yul\":1096:1102   */\n      dup2\n        /* \"#utility.yul\":1083:1103   */\n      calldataload\n        /* \"#utility.yul\":1121:1200   */\n      tag_56\n        /* \"#utility.yul\":1196:1199   */\n      dup5\n        /* \"#utility.yul\":1188:1194   */\n      dup3\n        /* \"#utility.yul\":1181:1185   */\n      0x20\n        /* \"#utility.yul\":1173:1179   */\n      dup7\n        /* \"#utility.yul\":1169:1186   */\n      add\n        /* \"#utility.yul\":1121:1200   */\n      tag_32\n      jump\t// in\n    tag_56:\n        /* \"#utility.yul\":1112:1200   */\n      swap2\n      pop\n        /* \"#utility.yul\":928:1206   */\n      pop\n        /* \"#utility.yul\":866:1206   */\n      swap3\n      swap2\n      pop\n      pop\n      jump\t// out\n        /* \"#utility.yul\":1226:1581   */\n    tag_57:\n        /* \"#utility.yul\":1293:1298   */\n      0x00\n        /* \"#utility.yul\":1342:1345   */\n      dup3\n        /* \"#utility.yul\":1335:1339   */\n      0x1f\n        /* \"#utility.yul\":1327:1333   */\n      dup4\n        /* \"#utility.yul\":1323:1340   */\n      add\n        /* \"#utility.yul\":1319:1346   */\n      slt\n        /* \"#utility.yul\":1309:1431   */\n      tag_59\n      jumpi\n        /* \"#utility.yul\":1350:1429   */\n      tag_60\n      tag_55\n      jump\t// in\n    tag_60:\n        /* \"#utility.yul\":1309:1431   */\n    tag_59:\n        /* \"#utility.yul\":1460:1466   */\n      dup2\n        /* \"#utility.yul\":1454:1467   */\n      mload\n        /* \"#utility.yul\":1485:1575   */\n      tag_61\n        /* \"#utility.yul\":1571:1574   */\n      dup5\n        /* \"#utility.yul\":1563:1569   */\n      dup3\n        /* \"#utility.yul\":1556:1560   */\n      0x20\n        /* \"#utility.yul\":1548:1554   */\n      dup7\n        /* \"#utility.yul\":1544:1561   */\n      add\n        /* \"#utility.yul\":1485:1575   */\n      tag_43\n      jump\t// in\n    tag_61:\n        /* \"#utility.yul\":1476:1575   */\n      swap2\n      pop\n        /* \"#utility.yul\":1299:1581   */\n      pop\n        /* \"#utility.yul\":1226:1581   */\n      swap3\n      swap2\n      pop\n      pop\n      jump\t// out\n        /* \"#utility.yul\":1587:1726   */\n    tag_62:\n        /* \"#utility.yul\":1633:1638   */\n      0x00\n        /* \"#utility.yul\":1671:1677   */\n      dup2\n        /* \"#utility.yul\":1658:1678   */\n      calldataload\n        /* \"#utility.yul\":1649:1678   */\n      swap1\n      pop\n        /* \"#utility.yul\":1687:1720   */\n      tag_64\n        /* \"#utility.yul\":1714:1719   */\n      dup2\n        /* \"#utility.yul\":1687:1720   */\n      tag_65\n      jump\t// in\n    tag_64:\n        /* \"#utility.yul\":1587:1726   */\n      swap3\n      swap2\n      pop\n      pop\n      jump\t// out\n        /* \"#utility.yul\":1732:1875   */\n    tag_66:\n        /* \"#utility.yul\":1789:1794   */\n      0x00\n        /* \"#utility.yul\":1820:1826   */\n      dup2\n        /* \"#utility.yul\":1814:1827   */\n      mload\n        /* \"#utility.yul\":1805:1827   */\n      swap1\n      pop\n        /* \"#utility.yul\":1836:1869   */\n      tag_68\n        /* \"#utility.yul\":1863:1868   */\n      dup2\n        /* \"#utility.yul\":1836:1869   */\n      tag_65\n      jump\t// in\n    tag_68:\n        /* \"#utility.yul\":1732:1875   */\n      swap3\n      swap2\n      pop\n      pop\n      jump\t// out\n        /* \"#utility.yul\":1881:2210   */\n    tag_7:\n        /* \"#utility.yul\":1940:1946   */\n      0x00\n        /* \"#utility.yul\":1989:1991   */\n      0x20\n        /* \"#utility.yul\":1977:1986   */\n      dup3\n        /* \"#utility.yul\":1968:1975   */\n      dup5\n        /* \"#utility.yul\":1964:1987   */\n      sub\n        /* \"#utility.yul\":1960:1992   */\n      slt\n        /* \"#utility.yul\":1957:2076   */\n      iszero\n      tag_70\n      jumpi\n        /* \"#utility.yul\":1995:2074   */\n      tag_71\n      tag_72\n      jump\t// in\n    tag_71:\n        /* \"#utility.yul\":1957:2076   */\n    tag_70:\n        /* \"#utility.yul\":2115:2116   */\n      0x00\n        /* \"#utility.yul\":2140:2193   */\n      tag_73\n        /* \"#utility.yul\":2185:2192   */\n      dup5\n        /* \"#utility.yul\":2176:2182   */\n      dup3\n        /* \"#utility.yul\":2165:2174   */\n      dup6\n        /* \"#utility.yul\":2161:2183   */\n      add\n        /* \"#utility.yul\":2140:2193   */\n      tag_62\n      jump\t// in\n    tag_73:\n        /* \"#utility.yul\":2130:2193   */\n      swap2\n      pop\n        /* \"#utility.yul\":2086:2203   */\n      pop\n        /* \"#utility.yul\":1881:2210   */\n      swap3\n      swap2\n      pop\n      pop\n      jump\t// out\n        /* \"#utility.yul\":2216:2870   */\n    tag_13:\n        /* \"#utility.yul\":2294:2300   */\n      0x00\n        /* \"#utility.yul\":2302:2308   */\n      dup1\n        /* \"#utility.yul\":2351:2353   */\n      0x40\n        /* \"#utility.yul\":2339:2348   */\n      dup4\n        /* \"#utility.yul\":2330:2337   */\n      dup6\n        /* \"#utility.yul\":2326:2349   */\n      sub\n        /* \"#utility.yul\":2322:2354   */\n      slt\n        /* \"#utility.yul\":2319:2438   */\n      iszero\n      tag_75\n      jumpi\n        /* \"#utility.yul\":2357:2436   */\n      tag_76\n      tag_72\n      jump\t// in\n    tag_76:\n        /* \"#utility.yul\":2319:2438   */\n    tag_75:\n        /* \"#utility.yul\":2477:2478   */\n      0x00\n        /* \"#utility.yul\":2502:2555   */\n      tag_77\n        /* \"#utility.yul\":2547:2554   */\n      dup6\n        /* \"#utility.yul\":2538:2544   */\n      dup3\n        /* \"#utility.yul\":2527:2536   */\n      dup7\n        /* \"#utility.yul\":2523:2545   */\n      add\n        /* \"#utility.yul\":2502:2555   */\n      tag_62\n      jump\t// in\n    tag_77:\n        /* \"#utility.yul\":2492:2555   */\n      swap3\n      pop\n        /* \"#utility.yul\":2448:2565   */\n      pop\n        /* \"#utility.yul\":2632:2634   */\n      0x20\n        /* \"#utility.yul\":2621:2630   */\n      dup4\n        /* \"#utility.yul\":2617:2635   */\n      add\n        /* \"#utility.yul\":2604:2636   */\n      calldataload\n        /* \"#utility.yul\":2663:2681   */\n      0xffffffffffffffff\n        /* \"#utility.yul\":2655:2661   */\n      dup2\n        /* \"#utility.yul\":2652:2682   */\n      gt\n        /* \"#utility.yul\":2649:2766   */\n      iszero\n      tag_78\n      jumpi\n        /* \"#utility.yul\":2685:2764   */\n      tag_79\n      tag_80\n      jump\t// in\n    tag_79:\n        /* \"#utility.yul\":2649:2766   */\n    tag_78:\n        /* \"#utility.yul\":2790:2853   */\n      tag_81\n        /* \"#utility.yul\":2845:2852   */\n      dup6\n        /* \"#utility.yul\":2836:2842   */\n      dup3\n        /* \"#utility.yul\":2825:2834   */\n      dup7\n        /* \"#utility.yul\":2821:2843   */\n      add\n        /* \"#utility.yul\":2790:2853   */\n      tag_51\n      jump\t// in\n    tag_81:\n        /* \"#utility.yul\":2780:2853   */\n      swap2\n      pop\n        /* \"#utility.yul\":2575:2863   */\n      pop\n        /* \"#utility.yul\":2216:2870   */\n      swap3\n      pop\n      swap3\n      swap1\n      pop\n      jump\t// out\n        /* \"#utility.yul\":2876:3556   */\n    tag_22:\n        /* \"#utility.yul\":2965:2971   */\n      0x00\n        /* \"#utility.yul\":2973:2979   */\n      dup1\n        /* \"#utility.yul\":3022:3024   */\n      0x40\n        /* \"#utility.yul\":3010:3019   */\n      dup4\n        /* \"#utility.yul\":3001:3008   */\n      dup6\n        /* \"#utility.yul\":2997:3020   */\n      sub\n        /* \"#utility.yul\":2993:3025   */\n      slt\n        /* \"#utility.yul\":2990:3109   */\n      iszero\n      tag_83\n      jumpi\n        /* \"#utility.yul\":3028:3107   */\n      tag_84\n      tag_72\n      jump\t// in\n    tag_84:\n        /* \"#utility.yul\":2990:3109   */\n    tag_83:\n        /* \"#utility.yul\":3148:3149   */\n      0x00\n        /* \"#utility.yul\":3173:3237   */\n      tag_85\n        /* \"#utility.yul\":3229:3236   */\n      dup6\n        /* \"#utility.yul\":3220:3226   */\n      dup3\n        /* \"#utility.yul\":3209:3218   */\n      dup7\n        /* \"#utility.yul\":3205:3227   */\n      add\n        /* \"#utility.yul\":3173:3237   */\n      tag_66\n      jump\t// in\n    tag_85:\n        /* \"#utility.yul\":3163:3237   */\n      swap3\n      pop\n        /* \"#utility.yul\":3119:3247   */\n      pop\n        /* \"#utility.yul\":3307:3309   */\n      0x20\n        /* \"#utility.yul\":3296:3305   */\n      dup4\n        /* \"#utility.yul\":3292:3310   */\n      add\n        /* \"#utility.yul\":3286:3311   */\n      mload\n        /* \"#utility.yul\":3338:3356   */\n      0xffffffffffffffff\n        /* \"#utility.yul\":3330:3336   */\n      dup2\n        /* \"#utility.yul\":3327:3357   */\n      gt\n        /* \"#utility.yul\":3324:3441   */\n      iszero\n      tag_86\n      jumpi\n        /* \"#utility.yul\":3360:3439   */\n      tag_87\n      tag_80\n      jump\t// in\n    tag_87:\n        /* \"#utility.yul\":3324:3441   */\n    tag_86:\n        /* \"#utility.yul\":3465:3539   */\n      tag_88\n        /* \"#utility.yul\":3531:3538   */\n      dup6\n        /* \"#utility.yul\":3522:3528   */\n      dup3\n        /* \"#utility.yul\":3511:3520   */\n      dup7\n        /* \"#utility.yul\":3507:3529   */\n      add\n        /* \"#utility.yul\":3465:3539   */\n      tag_57\n      jump\t// in\n    tag_88:\n        /* \"#utility.yul\":3455:3539   */\n      swap2\n      pop\n        /* \"#utility.yul\":3257:3549   */\n      pop\n        /* \"#utility.yul\":2876:3556   */\n      swap3\n      pop\n      swap3\n      swap1\n      pop\n      jump\t// out\n        /* \"#utility.yul\":3562:3713   */\n    tag_89:\n        /* \"#utility.yul\":3659:3706   */\n      tag_91\n        /* \"#utility.yul\":3700:3705   */\n      dup2\n        /* \"#utility.yul\":3659:3706   */\n      tag_92\n      jump\t// in\n    tag_91:\n        /* \"#utility.yul\":3654:3657   */\n      dup3\n        /* \"#utility.yul\":3647:3707   */\n      mstore\n        /* \"#utility.yul\":3562:3713   */\n      pop\n      pop\n      jump\t// out\n        /* \"#utility.yul\":3719:4083   */\n    tag_93:\n        /* \"#utility.yul\":3807:3810   */\n      0x00\n        /* \"#utility.yul\":3835:3874   */\n      tag_95\n        /* \"#utility.yul\":3868:3873   */\n      dup3\n        /* \"#utility.yul\":3835:3874   */\n      tag_96\n      jump\t// in\n    tag_95:\n        /* \"#utility.yul\":3890:3961   */\n      tag_97\n        /* \"#utility.yul\":3954:3960   */\n      dup2\n        /* \"#utility.yul\":3949:3952   */\n      dup6\n        /* \"#utility.yul\":3890:3961   */\n      tag_98\n      jump\t// in\n    tag_97:\n        /* \"#utility.yul\":3883:3961   */\n      swap4\n      pop\n        /* \"#utility.yul\":3970:4022   */\n      tag_99\n        /* \"#utility.yul\":4015:4021   */\n      dup2\n        /* \"#utility.yul\":4010:4013   */\n      dup6\n        /* \"#utility.yul\":4003:4007   */\n      0x20\n        /* \"#utility.yul\":3996:4001   */\n      dup7\n        /* \"#utility.yul\":3992:4008   */\n      add\n        /* \"#utility.yul\":3970:4022   */\n      tag_50\n      jump\t// in\n    tag_99:\n        /* \"#utility.yul\":4047:4076   */\n      tag_100\n        /* \"#utility.yul\":4069:4075   */\n      dup2\n        /* \"#utility.yul\":4047:4076   */\n      tag_101\n      jump\t// in\n    tag_100:\n        /* \"#utility.yul\":4042:4045   */\n      dup5\n        /* \"#utility.yul\":4038:4077   */\n      add\n        /* \"#utility.yul\":4031:4077   */\n      swap2\n      pop\n        /* \"#utility.yul\":3811:4083   */\n      pop\n        /* \"#utility.yul\":3719:4083   */\n      swap3\n      swap2\n      pop\n      pop\n      jump\t// out\n        /* \"#utility.yul\":4089:4455   */\n    tag_102:\n        /* \"#utility.yul\":4231:4234   */\n      0x00\n        /* \"#utility.yul\":4252:4319   */\n      tag_104\n        /* \"#utility.yul\":4316:4318   */\n      0x15\n        /* \"#utility.yul\":4311:4314   */\n      dup4\n        /* \"#utility.yul\":4252:4319   */\n      tag_98\n      jump\t// in\n    tag_104:\n        /* \"#utility.yul\":4245:4319   */\n      swap2\n      pop\n        /* \"#utility.yul\":4328:4421   */\n      tag_105\n        /* \"#utility.yul\":4417:4420   */\n      dup3\n        /* \"#utility.yul\":4328:4421   */\n      tag_106\n      jump\t// in\n    tag_105:\n        /* \"#utility.yul\":4446:4448   */\n      0x20\n        /* \"#utility.yul\":4441:4444   */\n      dup3\n        /* \"#utility.yul\":4437:4449   */\n      add\n        /* \"#utility.yul\":4430:4449   */\n      swap1\n      pop\n        /* \"#utility.yul\":4089:4455   */\n      swap2\n      swap1\n      pop\n      jump\t// out\n        /* \"#utility.yul\":4461:4579   */\n    tag_107:\n        /* \"#utility.yul\":4548:4572   */\n      tag_109\n        /* \"#utility.yul\":4566:4571   */\n      dup2\n        /* \"#utility.yul\":4548:4572   */\n      tag_110\n      jump\t// in\n    tag_109:\n        /* \"#utility.yul\":4543:4546   */\n      dup3\n        /* \"#utility.yul\":4536:4573   */\n      mstore\n        /* \"#utility.yul\":4461:4579   */\n      pop\n      pop\n      jump\t// out\n        /* \"#utility.yul\":4585:4827   */\n    tag_16:\n        /* \"#utility.yul\":4688:4692   */\n      0x00\n        /* \"#utility.yul\":4726:4728   */\n      0x20\n        /* \"#utility.yul\":4715:4724   */\n      dup3\n        /* \"#utility.yul\":4711:4729   */\n      add\n        /* \"#utility.yul\":4703:4729   */\n      swap1\n      pop\n        /* \"#utility.yul\":4739:4820   */\n      tag_112\n        /* \"#utility.yul\":4817:4818   */\n      0x00\n        /* \"#utility.yul\":4806:4815   */\n      dup4\n        /* \"#utility.yul\":4802:4819   */\n      add\n        /* \"#utility.yul\":4793:4799   */\n      dup5\n        /* \"#utility.yul\":4739:4820   */\n      tag_89\n      jump\t// in\n    tag_112:\n        /* \"#utility.yul\":4585:4827   */\n      swap3\n      swap2\n      pop\n      pop\n      jump\t// out\n        /* \"#utility.yul\":4833:5252   */\n    tag_26:\n        /* \"#utility.yul\":4999:5003   */\n      0x00\n        /* \"#utility.yul\":5037:5039   */\n      0x20\n        /* \"#utility.yul\":5026:5035   */\n      dup3\n        /* \"#utility.yul\":5022:5040   */\n      add\n        /* \"#utility.yul\":5014:5040   */\n      swap1\n      pop\n        /* \"#utility.yul\":5086:5095   */\n      dup2\n        /* \"#utility.yul\":5080:5084   */\n      dup2\n        /* \"#utility.yul\":5076:5096   */\n      sub\n        /* \"#utility.yul\":5072:5073   */\n      0x00\n        /* \"#utility.yul\":5061:5070   */\n      dup4\n        /* \"#utility.yul\":5057:5074   */\n      add\n        /* \"#utility.yul\":5050:5097   */\n      mstore\n        /* \"#utility.yul\":5114:5245   */\n      tag_114\n        /* \"#utility.yul\":5240:5244   */\n      dup2\n        /* \"#utility.yul\":5114:5245   */\n      tag_102\n      jump\t// in\n    tag_114:\n        /* \"#utility.yul\":5106:5245   */\n      swap1\n      pop\n        /* \"#utility.yul\":4833:5252   */\n      swap2\n      swap1\n      pop\n      jump\t// out\n        /* \"#utility.yul\":5258:5681   */\n    tag_10:\n        /* \"#utility.yul\":5399:5403   */\n      0x00\n        /* \"#utility.yul\":5437:5439   */\n      0x40\n        /* \"#utility.yul\":5426:5435   */\n      dup3\n        /* \"#utility.yul\":5422:5440   */\n      add\n        /* \"#utility.yul\":5414:5440   */\n      swap1\n      pop\n        /* \"#utility.yul\":5450:5521   */\n      tag_116\n        /* \"#utility.yul\":5518:5519   */\n      0x00\n        /* \"#utility.yul\":5507:5516   */\n      dup4\n        /* \"#utility.yul\":5503:5520   */\n      add\n        /* \"#utility.yul\":5494:5500   */\n      dup6\n        /* \"#utility.yul\":5450:5521   */\n      tag_107\n      jump\t// in\n    tag_116:\n        /* \"#utility.yul\":5568:5577   */\n      dup2\n        /* \"#utility.yul\":5562:5566   */\n      dup2\n        /* \"#utility.yul\":5558:5578   */\n      sub\n        /* \"#utility.yul\":5553:5555   */\n      0x20\n        /* \"#utility.yul\":5542:5551   */\n      dup4\n        /* \"#utility.yul\":5538:5556   */\n      add\n        /* \"#utility.yul\":5531:5579   */\n      mstore\n        /* \"#utility.yul\":5596:5674   */\n      tag_117\n        /* \"#utility.yul\":5669:5673   */\n      dup2\n        /* \"#utility.yul\":5660:5666   */\n      dup5\n        /* \"#utility.yul\":5596:5674   */\n      tag_93\n      jump\t// in\n    tag_117:\n        /* \"#utility.yul\":5588:5674   */\n      swap1\n      pop\n        /* \"#utility.yul\":5258:5681   */\n      swap4\n      swap3\n      pop\n      pop\n      pop\n      jump\t// out\n        /* \"#utility.yul\":5687:5816   */\n    tag_37:\n        /* \"#utility.yul\":5721:5727   */\n      0x00\n        /* \"#utility.yul\":5748:5768   */\n      tag_119\n      tag_120\n      jump\t// in\n    tag_119:\n        /* \"#utility.yul\":5738:5768   */\n      swap1\n      pop\n        /* \"#utility.yul\":5777:5810   */\n      tag_121\n        /* \"#utility.yul\":5805:5809   */\n      dup3\n        /* \"#utility.yul\":5797:5803   */\n      dup3\n        /* \"#utility.yul\":5777:5810   */\n      tag_122\n      jump\t// in\n    tag_121:\n        /* \"#utility.yul\":5687:5816   */\n      swap2\n      swap1\n      pop\n      jump\t// out\n        /* \"#utility.yul\":5822:5897   */\n    tag_120:\n        /* \"#utility.yul\":5855:5861   */\n      0x00\n        /* \"#utility.yul\":5888:5890   */\n      0x40\n        /* \"#utility.yul\":5882:5891   */\n      mload\n        /* \"#utility.yul\":5872:5891   */\n      swap1\n      pop\n        /* \"#utility.yul\":5822:5897   */\n      swap1\n      jump\t// out\n        /* \"#utility.yul\":5903:6211   */\n    tag_36:\n        /* \"#utility.yul\":5965:5969   */\n      0x00\n        /* \"#utility.yul\":6055:6073   */\n      0xffffffffffffffff\n        /* \"#utility.yul\":6047:6053   */\n      dup3\n        /* \"#utility.yul\":6044:6074   */\n      gt\n        /* \"#utility.yul\":6041:6097   */\n      iszero\n      tag_125\n      jumpi\n        /* \"#utility.yul\":6077:6095   */\n      tag_126\n      tag_127\n      jump\t// in\n    tag_126:\n        /* \"#utility.yul\":6041:6097   */\n    tag_125:\n        /* \"#utility.yul\":6115:6144   */\n      tag_128\n        /* \"#utility.yul\":6137:6143   */\n      dup3\n        /* \"#utility.yul\":6115:6144   */\n      tag_101\n      jump\t// in\n    tag_128:\n        /* \"#utility.yul\":6107:6144   */\n      swap1\n      pop\n        /* \"#utility.yul\":6199:6203   */\n      0x20\n        /* \"#utility.yul\":6193:6197   */\n      dup2\n        /* \"#utility.yul\":6189:6204   */\n      add\n        /* \"#utility.yul\":6181:6204   */\n      swap1\n      pop\n        /* \"#utility.yul\":5903:6211   */\n      swap2\n      swap1\n      pop\n      jump\t// out\n        /* \"#utility.yul\":6217:6316   */\n    tag_96:\n        /* \"#utility.yul\":6269:6275   */\n      0x00\n        /* \"#utility.yul\":6303:6308   */\n      dup2\n        /* \"#utility.yul\":6297:6309   */\n      mload\n        /* \"#utility.yul\":6287:6309   */\n      swap1\n      pop\n        /* \"#utility.yul\":6217:6316   */\n      swap2\n      swap1\n      pop\n      jump\t// out\n        /* \"#utility.yul\":6322:6491   */\n    tag_98:\n        /* \"#utility.yul\":6406:6417   */\n      0x00\n        /* \"#utility.yul\":6440:6446   */\n      dup3\n        /* \"#utility.yul\":6435:6438   */\n      dup3\n        /* \"#utility.yul\":6428:6447   */\n      mstore\n        /* \"#utility.yul\":6480:6484   */\n      0x20\n        /* \"#utility.yul\":6475:6478   */\n      dup3\n        /* \"#utility.yul\":6471:6485   */\n      add\n        /* \"#utility.yul\":6456:6485   */\n      swap1\n      pop\n        /* \"#utility.yul\":6322:6491   */\n      swap3\n      swap2\n      pop\n      pop\n      jump\t// out\n        /* \"#utility.yul\":6497:6623   */\n    tag_131:\n        /* \"#utility.yul\":6534:6541   */\n      0x00\n        /* \"#utility.yul\":6574:6616   */\n      0xffffffffffffffffffffffffffffffffffffffff\n        /* \"#utility.yul\":6567:6572   */\n      dup3\n        /* \"#utility.yul\":6563:6617   */\n      and\n        /* \"#utility.yul\":6552:6617   */\n      swap1\n      pop\n        /* \"#utility.yul\":6497:6623   */\n      swap2\n      swap1\n      pop\n      jump\t// out\n        /* \"#utility.yul\":6629:6706   */\n    tag_110:\n        /* \"#utility.yul\":6666:6673   */\n      0x00\n        /* \"#utility.yul\":6695:6700   */\n      dup2\n        /* \"#utility.yul\":6684:6700   */\n      swap1\n      pop\n        /* \"#utility.yul\":6629:6706   */\n      swap2\n      swap1\n      pop\n      jump\t// out\n        /* \"#utility.yul\":6712:6848   */\n    tag_92:\n        /* \"#utility.yul\":6772:6781   */\n      0x00\n        /* \"#utility.yul\":6805:6842   */\n      tag_135\n        /* \"#utility.yul\":6836:6841   */\n      dup3\n        /* \"#utility.yul\":6805:6842   */\n      tag_136\n      jump\t// in\n    tag_135:\n        /* \"#utility.yul\":6792:6842   */\n      swap1\n      pop\n        /* \"#utility.yul\":6712:6848   */\n      swap2\n      swap1\n      pop\n      jump\t// out\n        /* \"#utility.yul\":6854:6980   */\n    tag_136:\n        /* \"#utility.yul\":6904:6913   */\n      0x00\n        /* \"#utility.yul\":6937:6974   */\n      tag_138\n        /* \"#utility.yul\":6968:6973   */\n      dup3\n        /* \"#utility.yul\":6937:6974   */\n      tag_139\n      jump\t// in\n    tag_138:\n        /* \"#utility.yul\":6924:6974   */\n      swap1\n      pop\n        /* \"#utility.yul\":6854:6980   */\n      swap2\n      swap1\n      pop\n      jump\t// out\n        /* \"#utility.yul\":6986:7099   */\n    tag_139:\n        /* \"#utility.yul\":7036:7045   */\n      0x00\n        /* \"#utility.yul\":7069:7093   */\n      tag_141\n        /* \"#utility.yul\":7087:7092   */\n      dup3\n        /* \"#utility.yul\":7069:7093   */\n      tag_131\n      jump\t// in\n    tag_141:\n        /* \"#utility.yul\":7056:7093   */\n      swap1\n      pop\n        /* \"#utility.yul\":6986:7099   */\n      swap2\n      swap1\n      pop\n      jump\t// out\n        /* \"#utility.yul\":7105:7259   */\n    tag_42:\n        /* \"#utility.yul\":7189:7195   */\n      dup3\n        /* \"#utility.yul\":7184:7187   */\n      dup2\n        /* \"#utility.yul\":7179:7182   */\n      dup4\n        /* \"#utility.yul\":7166:7196   */\n      calldatacopy\n        /* \"#utility.yul\":7251:7252   */\n      0x00\n        /* \"#utility.yul\":7242:7248   */\n      dup4\n        /* \"#utility.yul\":7237:7240   */\n      dup4\n        /* \"#utility.yul\":7233:7249   */\n      add\n        /* \"#utility.yul\":7226:7253   */\n      mstore\n        /* \"#utility.yul\":7105:7259   */\n      pop\n      pop\n      pop\n      jump\t// out\n        /* \"#utility.yul\":7265:7572   */\n    tag_50:\n        /* \"#utility.yul\":7333:7334   */\n      0x00\n        /* \"#utility.yul\":7343:7456   */\n    tag_144:\n        /* \"#utility.yul\":7357:7363   */\n      dup4\n        /* \"#utility.yul\":7354:7355   */\n      dup2\n        /* \"#utility.yul\":7351:7364   */\n      lt\n        /* \"#utility.yul\":7343:7456   */\n      iszero\n      tag_146\n      jumpi\n        /* \"#utility.yul\":7442:7443   */\n      dup1\n        /* \"#utility.yul\":7437:7440   */\n      dup3\n        /* \"#utility.yul\":7433:7444   */\n      add\n        /* \"#utility.yul\":7427:7445   */\n      mload\n        /* \"#utility.yul\":7423:7424   */\n      dup2\n        /* \"#utility.yul\":7418:7421   */\n      dup5\n        /* \"#utility.yul\":7414:7425   */\n      add\n        /* \"#utility.yul\":7407:7446   */\n      mstore\n        /* \"#utility.yul\":7379:7381   */\n      0x20\n        /* \"#utility.yul\":7376:7377   */\n      dup2\n        /* \"#utility.yul\":7372:7382   */\n      add\n        /* \"#utility.yul\":7367:7382   */\n      swap1\n      pop\n        /* \"#utility.yul\":7343:7456   */\n      jump(tag_144)\n    tag_146:\n        /* \"#utility.yul\":7474:7480   */\n      dup4\n        /* \"#utility.yul\":7471:7472   */\n      dup2\n        /* \"#utility.yul\":7468:7481   */\n      gt\n        /* \"#utility.yul\":7465:7566   */\n      iszero\n      tag_147\n      jumpi\n        /* \"#utility.yul\":7554:7555   */\n      0x00\n        /* \"#utility.yul\":7545:7551   */\n      dup5\n        /* \"#utility.yul\":7540:7543   */\n      dup5\n        /* \"#utility.yul\":7536:7552   */\n      add\n        /* \"#utility.yul\":7529:7556   */\n      mstore\n        /* \"#utility.yul\":7465:7566   */\n    tag_147:\n        /* \"#utility.yul\":7314:7572   */\n      pop\n        /* \"#utility.yul\":7265:7572   */\n      pop\n      pop\n      pop\n      jump\t// out\n        /* \"#utility.yul\":7578:7859   */\n    tag_122:\n        /* \"#utility.yul\":7661:7688   */\n      tag_149\n        /* \"#utility.yul\":7683:7687   */\n      dup3\n        /* \"#utility.yul\":7661:7688   */\n      tag_101\n      jump\t// in\n    tag_149:\n        /* \"#utility.yul\":7653:7659   */\n      dup2\n        /* \"#utility.yul\":7649:7689   */\n      add\n        /* \"#utility.yul\":7791:7797   */\n      dup2\n        /* \"#utility.yul\":7779:7789   */\n      dup2\n        /* \"#utility.yul\":7776:7798   */\n      lt\n        /* \"#utility.yul\":7755:7773   */\n      0xffffffffffffffff\n        /* \"#utility.yul\":7743:7753   */\n      dup3\n        /* \"#utility.yul\":7740:7774   */\n      gt\n        /* \"#utility.yul\":7737:7799   */\n      or\n        /* \"#utility.yul\":7734:7822   */\n      iszero\n      tag_150\n      jumpi\n        /* \"#utility.yul\":7802:7820   */\n      tag_151\n      tag_127\n      jump\t// in\n    tag_151:\n        /* \"#utility.yul\":7734:7822   */\n    tag_150:\n        /* \"#utility.yul\":7842:7852   */\n      dup1\n        /* \"#utility.yul\":7838:7840   */\n      0x40\n        /* \"#utility.yul\":7831:7853   */\n      mstore\n        /* \"#utility.yul\":7621:7859   */\n      pop\n        /* \"#utility.yul\":7578:7859   */\n      pop\n      pop\n      jump\t// out\n        /* \"#utility.yul\":7865:8045   */\n    tag_127:\n        /* \"#utility.yul\":7913:7990   */\n      0x4e487b7100000000000000000000000000000000000000000000000000000000\n        /* \"#utility.yul\":7910:7911   */\n      0x00\n        /* \"#utility.yul\":7903:7991   */\n      mstore\n        /* \"#utility.yul\":8010:8014   */\n      0x41\n        /* \"#utility.yul\":8007:8008   */\n      0x04\n        /* \"#utility.yul\":8000:8015   */\n      mstore\n        /* \"#utility.yul\":8034:8038   */\n      0x24\n        /* \"#utility.yul\":8031:8032   */\n      0x00\n        /* \"#utility.yul\":8024:8039   */\n      revert\n        /* \"#utility.yul\":8051:8168   */\n    tag_55:\n        /* \"#utility.yul\":8160:8161   */\n      0x00\n        /* \"#utility.yul\":8157:8158   */\n      dup1\n        /* \"#utility.yul\":8150:8162   */\n      revert\n        /* \"#utility.yul\":8174:8291   */\n    tag_40:\n        /* \"#utility.yul\":8283:8284   */\n      0x00\n        /* \"#utility.yul\":8280:8281   */\n      dup1\n        /* \"#utility.yul\":8273:8285   */\n      revert\n        /* \"#utility.yul\":8297:8414   */\n    tag_80:\n        /* \"#utility.yul\":8406:8407   */\n      0x00\n        /* \"#utility.yul\":8403:8404   */\n      dup1\n        /* \"#utility.yul\":8396:8408   */\n      revert\n        /* \"#utility.yul\":8420:8537   */\n    tag_72:\n        /* \"#utility.yul\":8529:8530   */\n      0x00\n        /* \"#utility.yul\":8526:8527   */\n      dup1\n        /* \"#utility.yul\":8519:8531   */\n      revert\n        /* \"#utility.yul\":8543:8645   */\n    tag_101:\n        /* \"#utility.yul\":8584:8590   */\n      0x00\n        /* \"#utility.yul\":8635:8637   */\n      0x1f\n        /* \"#utility.yul\":8631:8638   */\n      not\n        /* \"#utility.yul\":8626:8628   */\n      0x1f\n        /* \"#utility.yul\":8619:8624   */\n      dup4\n        /* \"#utility.yul\":8615:8629   */\n      add\n        /* \"#utility.yul\":8611:8639   */\n      and\n        /* \"#utility.yul\":8601:8639   */\n      swap1\n      pop\n        /* \"#utility.yul\":8543:8645   */\n      swap2\n      swap1\n      pop\n      jump\t// out\n        /* \"#utility.yul\":8651:8822   */\n    tag_106:\n        /* \"#utility.yul\":8791:8814   */\n      0x63616c6c6572206973206e6f74204d616e616765720000000000000000000000\n        /* \"#utility.yul\":8787:8788   */\n      0x00\n        /* \"#utility.yul\":8779:8785   */\n      dup3\n        /* \"#utility.yul\":8775:8789   */\n      add\n        /* \"#utility.yul\":8768:8815   */\n      mstore\n        /* \"#utility.yul\":8651:8822   */\n      pop\n      jump\t// out\n        /* \"#utility.yul\":8828:8950   */\n    tag_65:\n        /* \"#utility.yul\":8901:8925   */\n      tag_160\n        /* \"#utility.yul\":8919:8924   */\n      dup2\n        /* \"#utility.yul\":8901:8925   */\n      tag_110\n      jump\t// in\n    tag_160:\n        /* \"#utility.yul\":8894:8899   */\n      dup2\n        /* \"#utility.yul\":8891:8926   */\n      eq\n        /* \"#utility.yul\":8881:8944   */\n      tag_161\n      jumpi\n        /* \"#utility.yul\":8940:8941   */\n      0x00\n        /* \"#utility.yul\":8937:8938   */\n      dup1\n        /* \"#utility.yul\":8930:8942   */\n      revert\n        /* \"#utility.yul\":8881:8944   */\n    tag_161:\n        /* \"#utility.yul\":8828:8950   */\n      pop\n      jump\t// out\n    stop\n\n    sub_0: assembly {\n            /* \"contracts/Bus.sol\":102:883  contract Bus{... */\n          mstore(0x40, 0x80)\n            /* \"contracts/Bus.sol\":301:455  constructor(uint _num, string memory _destination){... */\n          callvalue\n          dup1\n          iszero\n          tag_1\n          jumpi\n          0x00\n          dup1\n          revert\n        tag_1:\n          pop\n          mload(0x40)\n          sub(codesize, bytecodeSize)\n          dup1\n          bytecodeSize\n          dup4\n          codecopy\n          dup2\n          dup2\n          add\n          0x40\n          mstore\n          dup2\n          add\n          swap1\n          tag_2\n          swap2\n          swap1\n          tag_3\n          jump\t// in\n        tag_2:\n            /* \"contracts/Bus.sol\":371:375  _num */\n          dup2\n            /* \"contracts/Bus.sol\":362:368  busNum */\n          0x01\n            /* \"contracts/Bus.sol\":362:375  busNum = _num */\n          dup2\n          swap1\n          sstore\n          pop\n            /* \"contracts/Bus.sol\":400:412  _destination */\n          dup1\n            /* \"contracts/Bus.sol\":386:397  destination */\n          0x02\n            /* \"contracts/Bus.sol\":386:412  destination = _destination */\n          swap1\n          dup1\n          mload\n          swap1\n          0x20\n          add\n          swap1\n          tag_6\n          swap3\n          swap2\n          swap1\n          tag_7\n          jump\t// in\n        tag_6:\n          pop\n            /* \"contracts/Bus.sol\":423:430  student */\n          0x00\n            /* \"contracts/Bus.sol\":436:446  msg.sender */\n          caller\n            /* \"contracts/Bus.sol\":423:447  student.push(msg.sender) */\n          swap1\n          dup1\n          0x01\n          dup2\n          sload\n          add\n          dup1\n          dup3\n          sstore\n          dup1\n          swap2\n          pop\n          pop\n          0x01\n          swap1\n          sub\n          swap1\n          0x00\n          mstore\n          keccak256(0x00, 0x20)\n          add\n          0x00\n          swap1\n          swap2\n          swap1\n          swap2\n          swap1\n          swap2\n          0x0100\n          exp\n          dup2\n          sload\n          dup2\n          0xffffffffffffffffffffffffffffffffffffffff\n          mul\n          not\n          and\n          swap1\n          dup4\n          0xffffffffffffffffffffffffffffffffffffffff\n          and\n          mul\n          or\n          swap1\n          sstore\n          pop\n            /* \"contracts/Bus.sol\":301:455  constructor(uint _num, string memory _destination){... */\n          pop\n          pop\n            /* \"contracts/Bus.sol\":102:883  contract Bus{... */\n          jump(tag_9)\n        tag_7:\n          dup3\n          dup1\n          sload\n          tag_10\n          swap1\n          tag_11\n          jump\t// in\n        tag_10:\n          swap1\n          0x00\n          mstore\n          keccak256(0x00, 0x20)\n          swap1\n          0x1f\n          add\n          0x20\n          swap1\n          div\n          dup2\n          add\n          swap3\n          dup3\n          tag_13\n          jumpi\n          0x00\n          dup6\n          sstore\n          jump(tag_12)\n        tag_13:\n          dup3\n          0x1f\n          lt\n          tag_14\n          jumpi\n          dup1\n          mload\n          not(0xff)\n          and\n          dup4\n          dup1\n          add\n          or\n          dup6\n          sstore\n          jump(tag_12)\n        tag_14:\n          dup3\n          dup1\n          add\n          0x01\n          add\n          dup6\n          sstore\n          dup3\n          iszero\n          tag_12\n          jumpi\n          swap2\n          dup3\n          add\n        tag_15:\n          dup3\n          dup2\n          gt\n          iszero\n          tag_16\n          jumpi\n          dup3\n          mload\n          dup3\n          sstore\n          swap2\n          0x20\n          add\n          swap2\n          swap1\n          0x01\n          add\n          swap1\n          jump(tag_15)\n        tag_16:\n        tag_12:\n          pop\n          swap1\n          pop\n          tag_17\n          swap2\n          swap1\n          tag_18\n          jump\t// in\n        tag_17:\n          pop\n          swap1\n          jump\t// out\n        tag_18:\n        tag_19:\n          dup1\n          dup3\n          gt\n          iszero\n          tag_20\n          jumpi\n          0x00\n          dup2\n          0x00\n          swap1\n          sstore\n          pop\n          0x01\n          add\n          jump(tag_19)\n        tag_20:\n          pop\n          swap1\n          jump\t// out\n            /* \"#utility.yul\":7:428   */\n        tag_22:\n            /* \"#utility.yul\":96:101   */\n          0x00\n            /* \"#utility.yul\":121:187   */\n          tag_24\n            /* \"#utility.yul\":137:186   */\n          tag_25\n            /* \"#utility.yul\":179:185   */\n          dup5\n            /* \"#utility.yul\":137:186   */\n          tag_26\n          jump\t// in\n        tag_25:\n            /* \"#utility.yul\":121:187   */\n          tag_27\n          jump\t// in\n        tag_24:\n            /* \"#utility.yul\":112:187   */\n          swap1\n          pop\n            /* \"#utility.yul\":210:216   */\n          dup3\n            /* \"#utility.yul\":203:208   */\n          dup2\n            /* \"#utility.yul\":196:217   */\n          mstore\n            /* \"#utility.yul\":248:252   */\n          0x20\n            /* \"#utility.yul\":241:246   */\n          dup2\n            /* \"#utility.yul\":237:253   */\n          add\n            /* \"#utility.yul\":286:289   */\n          dup5\n            /* \"#utility.yul\":277:283   */\n          dup5\n            /* \"#utility.yul\":272:275   */\n          dup5\n            /* \"#utility.yul\":268:284   */\n          add\n            /* \"#utility.yul\":265:290   */\n          gt\n            /* \"#utility.yul\":262:374   */\n          iszero\n          tag_28\n          jumpi\n            /* \"#utility.yul\":293:372   */\n          tag_29\n          tag_30\n          jump\t// in\n        tag_29:\n            /* \"#utility.yul\":262:374   */\n        tag_28:\n            /* \"#utility.yul\":383:422   */\n          tag_31\n            /* \"#utility.yul\":415:421   */\n          dup5\n            /* \"#utility.yul\":410:413   */\n          dup3\n            /* \"#utility.yul\":405:408   */\n          dup6\n            /* \"#utility.yul\":383:422   */\n          tag_32\n          jump\t// in\n        tag_31:\n            /* \"#utility.yul\":102:428   */\n          pop\n            /* \"#utility.yul\":7:428   */\n          swap4\n          swap3\n          pop\n          pop\n          pop\n          jump\t// out\n            /* \"#utility.yul\":448:803   */\n        tag_33:\n            /* \"#utility.yul\":515:520   */\n          0x00\n            /* \"#utility.yul\":564:567   */\n          dup3\n            /* \"#utility.yul\":557:561   */\n          0x1f\n            /* \"#utility.yul\":549:555   */\n          dup4\n            /* \"#utility.yul\":545:562   */\n          add\n            /* \"#utility.yul\":541:568   */\n          slt\n            /* \"#utility.yul\":531:653   */\n          tag_35\n          jumpi\n            /* \"#utility.yul\":572:651   */\n          tag_36\n          tag_37\n          jump\t// in\n        tag_36:\n            /* \"#utility.yul\":531:653   */\n        tag_35:\n            /* \"#utility.yul\":682:688   */\n          dup2\n            /* \"#utility.yul\":676:689   */\n          mload\n            /* \"#utility.yul\":707:797   */\n          tag_38\n            /* \"#utility.yul\":793:796   */\n          dup5\n            /* \"#utility.yul\":785:791   */\n          dup3\n            /* \"#utility.yul\":778:782   */\n          0x20\n            /* \"#utility.yul\":770:776   */\n          dup7\n            /* \"#utility.yul\":766:783   */\n          add\n            /* \"#utility.yul\":707:797   */\n          tag_22\n          jump\t// in\n        tag_38:\n            /* \"#utility.yul\":698:797   */\n          swap2\n          pop\n            /* \"#utility.yul\":521:803   */\n          pop\n            /* \"#utility.yul\":448:803   */\n          swap3\n          swap2\n          pop\n          pop\n          jump\t// out\n            /* \"#utility.yul\":809:952   */\n        tag_39:\n            /* \"#utility.yul\":866:871   */\n          0x00\n            /* \"#utility.yul\":897:903   */\n          dup2\n            /* \"#utility.yul\":891:904   */\n          mload\n            /* \"#utility.yul\":882:904   */\n          swap1\n          pop\n            /* \"#utility.yul\":913:946   */\n          tag_41\n            /* \"#utility.yul\":940:945   */\n          dup2\n            /* \"#utility.yul\":913:946   */\n          tag_42\n          jump\t// in\n        tag_41:\n            /* \"#utility.yul\":809:952   */\n          swap3\n          swap2\n          pop\n          pop\n          jump\t// out\n            /* \"#utility.yul\":958:1638   */\n        tag_3:\n            /* \"#utility.yul\":1047:1053   */\n          0x00\n            /* \"#utility.yul\":1055:1061   */\n          dup1\n            /* \"#utility.yul\":1104:1106   */\n          0x40\n            /* \"#utility.yul\":1092:1101   */\n          dup4\n            /* \"#utility.yul\":1083:1090   */\n          dup6\n            /* \"#utility.yul\":1079:1102   */\n          sub\n            /* \"#utility.yul\":1075:1107   */\n          slt\n            /* \"#utility.yul\":1072:1191   */\n          iszero\n          tag_44\n          jumpi\n            /* \"#utility.yul\":1110:1189   */\n          tag_45\n          tag_46\n          jump\t// in\n        tag_45:\n            /* \"#utility.yul\":1072:1191   */\n        tag_44:\n            /* \"#utility.yul\":1230:1231   */\n          0x00\n            /* \"#utility.yul\":1255:1319   */\n          tag_47\n            /* \"#utility.yul\":1311:1318   */\n          dup6\n            /* \"#utility.yul\":1302:1308   */\n          dup3\n            /* \"#utility.yul\":1291:1300   */\n          dup7\n            /* \"#utility.yul\":1287:1309   */\n          add\n            /* \"#utility.yul\":1255:1319   */\n          tag_39\n          jump\t// in\n        tag_47:\n            /* \"#utility.yul\":1245:1319   */\n          swap3\n          pop\n            /* \"#utility.yul\":1201:1329   */\n          pop\n            /* \"#utility.yul\":1389:1391   */\n          0x20\n            /* \"#utility.yul\":1378:1387   */\n          dup4\n            /* \"#utility.yul\":1374:1392   */\n          add\n            /* \"#utility.yul\":1368:1393   */\n          mload\n            /* \"#utility.yul\":1420:1438   */\n          0xffffffffffffffff\n            /* \"#utility.yul\":1412:1418   */\n          dup2\n            /* \"#utility.yul\":1409:1439   */\n          gt\n            /* \"#utility.yul\":1406:1523   */\n          iszero\n          tag_48\n          jumpi\n            /* \"#utility.yul\":1442:1521   */\n          tag_49\n          tag_50\n          jump\t// in\n        tag_49:\n            /* \"#utility.yul\":1406:1523   */\n        tag_48:\n            /* \"#utility.yul\":1547:1621   */\n          tag_51\n            /* \"#utility.yul\":1613:1620   */\n          dup6\n            /* \"#utility.yul\":1604:1610   */\n          dup3\n            /* \"#utility.yul\":1593:1602   */\n          dup7\n            /* \"#utility.yul\":1589:1611   */\n          add\n            /* \"#utility.yul\":1547:1621   */\n          tag_33\n          jump\t// in\n        tag_51:\n            /* \"#utility.yul\":1537:1621   */\n          swap2\n          pop\n            /* \"#utility.yul\":1339:1631   */\n          pop\n            /* \"#utility.yul\":958:1638   */\n          swap3\n          pop\n          swap3\n          swap1\n          pop\n          jump\t// out\n            /* \"#utility.yul\":1644:1773   */\n        tag_27:\n            /* \"#utility.yul\":1678:1684   */\n          0x00\n            /* \"#utility.yul\":1705:1725   */\n          tag_53\n          tag_54\n          jump\t// in\n        tag_53:\n            /* \"#utility.yul\":1695:1725   */\n          swap1\n          pop\n            /* \"#utility.yul\":1734:1767   */\n          tag_55\n            /* \"#utility.yul\":1762:1766   */\n          dup3\n            /* \"#utility.yul\":1754:1760   */\n          dup3\n            /* \"#utility.yul\":1734:1767   */\n          tag_56\n          jump\t// in\n        tag_55:\n            /* \"#utility.yul\":1644:1773   */\n          swap2\n          swap1\n          pop\n          jump\t// out\n            /* \"#utility.yul\":1779:1854   */\n        tag_54:\n            /* \"#utility.yul\":1812:1818   */\n          0x00\n            /* \"#utility.yul\":1845:1847   */\n          0x40\n            /* \"#utility.yul\":1839:1848   */\n          mload\n            /* \"#utility.yul\":1829:1848   */\n          swap1\n          pop\n            /* \"#utility.yul\":1779:1854   */\n          swap1\n          jump\t// out\n            /* \"#utility.yul\":1860:2168   */\n        tag_26:\n            /* \"#utility.yul\":1922:1926   */\n          0x00\n            /* \"#utility.yul\":2012:2030   */\n          0xffffffffffffffff\n            /* \"#utility.yul\":2004:2010   */\n          dup3\n            /* \"#utility.yul\":2001:2031   */\n          gt\n            /* \"#utility.yul\":1998:2054   */\n          iszero\n          tag_59\n          jumpi\n            /* \"#utility.yul\":2034:2052   */\n          tag_60\n          tag_61\n          jump\t// in\n        tag_60:\n            /* \"#utility.yul\":1998:2054   */\n        tag_59:\n            /* \"#utility.yul\":2072:2101   */\n          tag_62\n            /* \"#utility.yul\":2094:2100   */\n          dup3\n            /* \"#utility.yul\":2072:2101   */\n          tag_63\n          jump\t// in\n        tag_62:\n            /* \"#utility.yul\":2064:2101   */\n          swap1\n          pop\n            /* \"#utility.yul\":2156:2160   */\n          0x20\n            /* \"#utility.yul\":2150:2154   */\n          dup2\n            /* \"#utility.yul\":2146:2161   */\n          add\n            /* \"#utility.yul\":2138:2161   */\n          swap1\n          pop\n            /* \"#utility.yul\":1860:2168   */\n          swap2\n          swap1\n          pop\n          jump\t// out\n            /* \"#utility.yul\":2174:2251   */\n        tag_64:\n            /* \"#utility.yul\":2211:2218   */\n          0x00\n            /* \"#utility.yul\":2240:2245   */\n          dup2\n            /* \"#utility.yul\":2229:2245   */\n          swap1\n          pop\n            /* \"#utility.yul\":2174:2251   */\n          swap2\n          swap1\n          pop\n          jump\t// out\n            /* \"#utility.yul\":2257:2564   */\n        tag_32:\n            /* \"#utility.yul\":2325:2326   */\n          0x00\n            /* \"#utility.yul\":2335:2448   */\n        tag_67:\n            /* \"#utility.yul\":2349:2355   */\n          dup4\n            /* \"#utility.yul\":2346:2347   */\n          dup2\n            /* \"#utility.yul\":2343:2356   */\n          lt\n            /* \"#utility.yul\":2335:2448   */\n          iszero\n          tag_69\n          jumpi\n            /* \"#utility.yul\":2434:2435   */\n          dup1\n            /* \"#utility.yul\":2429:2432   */\n          dup3\n            /* \"#utility.yul\":2425:2436   */\n          add\n            /* \"#utility.yul\":2419:2437   */\n          mload\n            /* \"#utility.yul\":2415:2416   */\n          dup2\n            /* \"#utility.yul\":2410:2413   */\n          dup5\n            /* \"#utility.yul\":2406:2417   */\n          add\n            /* \"#utility.yul\":2399:2438   */\n          mstore\n            /* \"#utility.yul\":2371:2373   */\n          0x20\n            /* \"#utility.yul\":2368:2369   */\n          dup2\n            /* \"#utility.yul\":2364:2374   */\n          add\n            /* \"#utility.yul\":2359:2374   */\n          swap1\n          pop\n            /* \"#utility.yul\":2335:2448   */\n          jump(tag_67)\n        tag_69:\n            /* \"#utility.yul\":2466:2472   */\n          dup4\n            /* \"#utility.yul\":2463:2464   */\n          dup2\n            /* \"#utility.yul\":2460:2473   */\n          gt\n            /* \"#utility.yul\":2457:2558   */\n          iszero\n          tag_70\n          jumpi\n            /* \"#utility.yul\":2546:2547   */\n          0x00\n            /* \"#utility.yul\":2537:2543   */\n          dup5\n            /* \"#utility.yul\":2532:2535   */\n          dup5\n            /* \"#utility.yul\":2528:2544   */\n          add\n            /* \"#utility.yul\":2521:2548   */\n          mstore\n            /* \"#utility.yul\":2457:2558   */\n        tag_70:\n            /* \"#utility.yul\":2306:2564   */\n          pop\n            /* \"#utility.yul\":2257:2564   */\n          pop\n          pop\n          pop\n          jump\t// out\n            /* \"#utility.yul\":2570:2890   */\n        tag_11:\n            /* \"#utility.yul\":2614:2620   */\n          0x00\n            /* \"#utility.yul\":2651:2652   */\n          0x02\n            /* \"#utility.yul\":2645:2649   */\n          dup3\n            /* \"#utility.yul\":2641:2653   */\n          div\n            /* \"#utility.yul\":2631:2653   */\n          swap1\n          pop\n            /* \"#utility.yul\":2698:2699   */\n          0x01\n            /* \"#utility.yul\":2692:2696   */\n          dup3\n            /* \"#utility.yul\":2688:2700   */\n          and\n            /* \"#utility.yul\":2719:2737   */\n          dup1\n            /* \"#utility.yul\":2709:2790   */\n          tag_72\n          jumpi\n            /* \"#utility.yul\":2775:2779   */\n          0x7f\n            /* \"#utility.yul\":2767:2773   */\n          dup3\n            /* \"#utility.yul\":2763:2780   */\n          and\n            /* \"#utility.yul\":2753:2780   */\n          swap2\n          pop\n            /* \"#utility.yul\":2709:2790   */\n        tag_72:\n            /* \"#utility.yul\":2837:2839   */\n          0x20\n            /* \"#utility.yul\":2829:2835   */\n          dup3\n            /* \"#utility.yul\":2826:2840   */\n          lt\n            /* \"#utility.yul\":2806:2824   */\n          dup2\n            /* \"#utility.yul\":2803:2841   */\n          eq\n            /* \"#utility.yul\":2800:2884   */\n          iszero\n          tag_73\n          jumpi\n            /* \"#utility.yul\":2856:2874   */\n          tag_74\n          tag_75\n          jump\t// in\n        tag_74:\n            /* \"#utility.yul\":2800:2884   */\n        tag_73:\n            /* \"#utility.yul\":2621:2890   */\n          pop\n            /* \"#utility.yul\":2570:2890   */\n          swap2\n          swap1\n          pop\n          jump\t// out\n            /* \"#utility.yul\":2896:3177   */\n        tag_56:\n            /* \"#utility.yul\":2979:3006   */\n          tag_77\n            /* \"#utility.yul\":3001:3005   */\n          dup3\n            /* \"#utility.yul\":2979:3006   */\n          tag_63\n          jump\t// in\n        tag_77:\n            /* \"#utility.yul\":2971:2977   */\n          dup2\n            /* \"#utility.yul\":2967:3007   */\n          add\n            /* \"#utility.yul\":3109:3115   */\n          dup2\n            /* \"#utility.yul\":3097:3107   */\n          dup2\n            /* \"#utility.yul\":3094:3116   */\n          lt\n            /* \"#utility.yul\":3073:3091   */\n          0xffffffffffffffff\n            /* \"#utility.yul\":3061:3071   */\n          dup3\n            /* \"#utility.yul\":3058:3092   */\n          gt\n            /* \"#utility.yul\":3055:3117   */\n          or\n            /* \"#utility.yul\":3052:3140   */\n          iszero\n          tag_78\n          jumpi\n            /* \"#utility.yul\":3120:3138   */\n          tag_79\n          tag_61\n          jump\t// in\n        tag_79:\n            /* \"#utility.yul\":3052:3140   */\n        tag_78:\n            /* \"#utility.yul\":3160:3170   */\n          dup1\n            /* \"#utility.yul\":3156:3158   */\n          0x40\n            /* \"#utility.yul\":3149:3171   */\n          mstore\n            /* \"#utility.yul\":2939:3177   */\n          pop\n            /* \"#utility.yul\":2896:3177   */\n          pop\n          pop\n          jump\t// out\n            /* \"#utility.yul\":3183:3363   */\n        tag_75:\n            /* \"#utility.yul\":3231:3308   */\n          0x4e487b7100000000000000000000000000000000000000000000000000000000\n            /* \"#utility.yul\":3228:3229   */\n          0x00\n            /* \"#utility.yul\":3221:3309   */\n          mstore\n            /* \"#utility.yul\":3328:3332   */\n          0x22\n            /* \"#utility.yul\":3325:3326   */\n          0x04\n            /* \"#utility.yul\":3318:3333   */\n          mstore\n            /* \"#utility.yul\":3352:3356   */\n          0x24\n            /* \"#utility.yul\":3349:3350   */\n          0x00\n            /* \"#utility.yul\":3342:3357   */\n          revert\n            /* \"#utility.yul\":3369:3549   */\n        tag_61:\n            /* \"#utility.yul\":3417:3494   */\n          0x4e487b7100000000000000000000000000000000000000000000000000000000\n            /* \"#utility.yul\":3414:3415   */\n          0x00\n            /* \"#utility.yul\":3407:3495   */\n          mstore\n            /* \"#utility.yul\":3514:3518   */\n          0x41\n            /* \"#utility.yul\":3511:3512   */\n          0x04\n            /* \"#utility.yul\":3504:3519   */\n          mstore\n            /* \"#utility.yul\":3538:3542   */\n          0x24\n            /* \"#utility.yul\":3535:3536   */\n          0x00\n            /* \"#utility.yul\":3528:3543   */\n          revert\n            /* \"#utility.yul\":3555:3672   */\n        tag_37:\n            /* \"#utility.yul\":3664:3665   */\n          0x00\n            /* \"#utility.yul\":3661:3662   */\n          dup1\n            /* \"#utility.yul\":3654:3666   */\n          revert\n            /* \"#utility.yul\":3678:3795   */\n        tag_30:\n            /* \"#utility.yul\":3787:3788   */\n          0x00\n            /* \"#utility.yul\":3784:3785   */\n          dup1\n            /* \"#utility.yul\":3777:3789   */\n          revert\n            /* \"#utility.yul\":3801:3918   */\n        tag_50:\n            /* \"#utility.yul\":3910:3911   */\n          0x00\n            /* \"#utility.yul\":3907:3908   */\n          dup1\n            /* \"#utility.yul\":3900:3912   */\n          revert\n            /* \"#utility.yul\":3924:4041   */\n        tag_46:\n            /* \"#utility.yul\":4033:4034   */\n          0x00\n            /* \"#utility.yul\":4030:4031   */\n          dup1\n            /* \"#utility.yul\":4023:4035   */\n          revert\n            /* \"#utility.yul\":4047:4149   */\n        tag_63:\n            /* \"#utility.yul\":4088:4094   */\n          0x00\n            /* \"#utility.yul\":4139:4141   */\n          0x1f\n            /* \"#utility.yul\":4135:4142   */\n          not\n            /* \"#utility.yul\":4130:4132   */\n          0x1f\n            /* \"#utility.yul\":4123:4128   */\n          dup4\n            /* \"#utility.yul\":4119:4133   */\n          add\n            /* \"#utility.yul\":4115:4143   */\n          and\n            /* \"#utility.yul\":4105:4143   */\n          swap1\n          pop\n            /* \"#utility.yul\":4047:4149   */\n          swap2\n          swap1\n          pop\n          jump\t// out\n            /* \"#utility.yul\":4155:4277   */\n        tag_42:\n            /* \"#utility.yul\":4228:4252   */\n          tag_88\n            /* \"#utility.yul\":4246:4251   */\n          dup2\n            /* \"#utility.yul\":4228:4252   */\n          tag_64\n          jump\t// in\n        tag_88:\n            /* \"#utility.yul\":4221:4226   */\n          dup2\n            /* \"#utility.yul\":4218:4253   */\n          eq\n            /* \"#utility.yul\":4208:4271   */\n          tag_89\n          jumpi\n            /* \"#utility.yul\":4267:4268   */\n          0x00\n            /* \"#utility.yul\":4264:4265   */\n          dup1\n            /* \"#utility.yul\":4257:4269   */\n          revert\n            /* \"#utility.yul\":4208:4271   */\n        tag_89:\n            /* \"#utility.yul\":4155:4277   */\n          pop\n          jump\t// out\n            /* \"contracts/Bus.sol\":102:883  contract Bus{... */\n        tag_9:\n          dataSize(sub_0)\n          dup1\n          dataOffset(sub_0)\n          0x00\n          codecopy\n          0x00\n          return\n        stop\n\n        sub_0: assembly {\n                /* \"contracts/Bus.sol\":102:883  contract Bus{... */\n              mstore(0x40, 0x80)\n              callvalue\n              dup1\n              iszero\n              tag_1\n              jumpi\n              0x00\n              dup1\n              revert\n            tag_1:\n              pop\n              jumpi(tag_2, lt(calldatasize, 0x04))\n              shr(0xe0, calldataload(0x00))\n              dup1\n              0x26002bf1\n              eq\n              tag_3\n              jumpi\n              dup1\n              0xa434261f\n              eq\n              tag_4\n              jumpi\n              dup1\n              0xbb4f860d\n              eq\n              tag_5\n              jumpi\n            tag_2:\n              0x00\n              dup1\n              revert\n                /* \"contracts/Bus.sol\":773:879  function getBusInfo() public view returns(uint, string memory){... */\n            tag_3:\n              tag_6\n              tag_7\n              jump\t// in\n            tag_6:\n              mload(0x40)\n              tag_8\n              swap3\n              swap2\n              swap1\n              tag_9\n              jump\t// in\n            tag_8:\n              mload(0x40)\n              dup1\n              swap2\n              sub\n              swap1\n              return\n                /* \"contracts/Bus.sol\":505:659  function reservationBus( uint _seatNum, uint _studentId, address _student) public{... */\n            tag_4:\n              tag_10\n              0x04\n              dup1\n              calldatasize\n              sub\n              dup2\n              add\n              swap1\n              tag_11\n              swap2\n              swap1\n              tag_12\n              jump\t// in\n            tag_11:\n              tag_13\n              jump\t// in\n            tag_10:\n              stop\n                /* \"contracts/Bus.sol\":664:768  function getSeatDetail(uint _num) public view returns(seat memory){... */\n            tag_5:\n              tag_14\n              0x04\n              dup1\n              calldatasize\n              sub\n              dup2\n              add\n              swap1\n              tag_15\n              swap2\n              swap1\n              tag_16\n              jump\t// in\n            tag_15:\n              tag_17\n              jump\t// in\n            tag_14:\n              mload(0x40)\n              tag_18\n              swap2\n              swap1\n              tag_19\n              jump\t// in\n            tag_18:\n              mload(0x40)\n              dup1\n              swap2\n              sub\n              swap1\n              return\n                /* \"contracts/Bus.sol\":773:879  function getBusInfo() public view returns(uint, string memory){... */\n            tag_7:\n                /* \"contracts/Bus.sol\":815:819  uint */\n              0x00\n                /* \"contracts/Bus.sol\":821:834  string memory */\n              0x60\n                /* \"contracts/Bus.sol\":852:858  busNum */\n              sload(0x01)\n                /* \"contracts/Bus.sol\":860:871  destination */\n              0x02\n                /* \"contracts/Bus.sol\":845:872  return(busNum, destination) */\n              dup1\n              dup1\n              sload\n              tag_21\n              swap1\n              tag_22\n              jump\t// in\n            tag_21:\n              dup1\n              0x1f\n              add\n              0x20\n              dup1\n              swap2\n              div\n              mul\n              0x20\n              add\n              mload(0x40)\n              swap1\n              dup2\n              add\n              0x40\n              mstore\n              dup1\n              swap3\n              swap2\n              swap1\n              dup2\n              dup2\n              mstore\n              0x20\n              add\n              dup3\n              dup1\n              sload\n              tag_23\n              swap1\n              tag_22\n              jump\t// in\n            tag_23:\n              dup1\n              iszero\n              tag_24\n              jumpi\n              dup1\n              0x1f\n              lt\n              tag_25\n              jumpi\n              0x0100\n              dup1\n              dup4\n              sload\n              div\n              mul\n              dup4\n              mstore\n              swap2\n              0x20\n              add\n              swap2\n              jump(tag_24)\n            tag_25:\n              dup3\n              add\n              swap2\n              swap1\n              0x00\n              mstore\n              keccak256(0x00, 0x20)\n              swap1\n            tag_26:\n              dup2\n              sload\n              dup2\n              mstore\n              swap1\n              0x01\n              add\n              swap1\n              0x20\n              add\n              dup1\n              dup4\n              gt\n              tag_26\n              jumpi\n              dup3\n              swap1\n              sub\n              0x1f\n              and\n              dup3\n              add\n              swap2\n            tag_24:\n              pop\n              pop\n              pop\n              pop\n              pop\n              swap1\n              pop\n              swap2\n              pop\n              swap2\n              pop\n                /* \"contracts/Bus.sol\":773:879  function getBusInfo() public view returns(uint, string memory){... */\n              swap1\n              swap2\n              jump\t// out\n                /* \"contracts/Bus.sol\":505:659  function reservationBus( uint _seatNum, uint _studentId, address _student) public{... */\n            tag_13:\n                /* \"contracts/Bus.sol\":616:652  seat(_seatNum, _studentId, _student) */\n              mload(0x40)\n              dup1\n              0x60\n              add\n              0x40\n              mstore\n              dup1\n                /* \"contracts/Bus.sol\":621:629  _seatNum */\n              dup5\n                /* \"contracts/Bus.sol\":616:652  seat(_seatNum, _studentId, _student) */\n              dup2\n              mstore\n              0x20\n              add\n                /* \"contracts/Bus.sol\":631:641  _studentId */\n              dup4\n                /* \"contracts/Bus.sol\":616:652  seat(_seatNum, _studentId, _student) */\n              dup2\n              mstore\n              0x20\n              add\n                /* \"contracts/Bus.sol\":643:651  _student */\n              dup3\n                /* \"contracts/Bus.sol\":616:652  seat(_seatNum, _studentId, _student) */\n              0xffffffffffffffffffffffffffffffffffffffff\n              and\n              dup2\n              mstore\n              pop\n                /* \"contracts/Bus.sol\":596:603  busSeat */\n              0x03\n                /* \"contracts/Bus.sol\":596:613  busSeat[_seatNum] */\n              0x00\n                /* \"contracts/Bus.sol\":604:612  _seatNum */\n              dup6\n                /* \"contracts/Bus.sol\":596:613  busSeat[_seatNum] */\n              dup2\n              mstore\n              0x20\n              add\n              swap1\n              dup2\n              mstore\n              0x20\n              add\n              0x00\n              keccak256\n                /* \"contracts/Bus.sol\":596:652  busSeat[_seatNum] = seat(_seatNum, _studentId, _student) */\n              0x00\n              dup3\n              add\n              mload\n              dup2\n              0x00\n              add\n              sstore\n              0x20\n              dup3\n              add\n              mload\n              dup2\n              0x01\n              add\n              sstore\n              0x40\n              dup3\n              add\n              mload\n              dup2\n              0x02\n              add\n              exp(0x0100, 0x00)\n              dup2\n              sload\n              dup2\n              0xffffffffffffffffffffffffffffffffffffffff\n              mul\n              not\n              and\n              swap1\n              dup4\n              0xffffffffffffffffffffffffffffffffffffffff\n              and\n              mul\n              or\n              swap1\n              sstore\n              pop\n              swap1\n              pop\n              pop\n                /* \"contracts/Bus.sol\":505:659  function reservationBus( uint _seatNum, uint _studentId, address _student) public{... */\n              pop\n              pop\n              pop\n              jump\t// out\n                /* \"contracts/Bus.sol\":664:768  function getSeatDetail(uint _num) public view returns(seat memory){... */\n            tag_17:\n                /* \"contracts/Bus.sol\":718:729  seat memory */\n              tag_28\n              tag_29\n              jump\t// in\n            tag_28:\n                /* \"contracts/Bus.sol\":747:754  busSeat */\n              0x03\n                /* \"contracts/Bus.sol\":747:760  busSeat[_num] */\n              0x00\n                /* \"contracts/Bus.sol\":755:759  _num */\n              dup4\n                /* \"contracts/Bus.sol\":747:760  busSeat[_num] */\n              dup2\n              mstore\n              0x20\n              add\n              swap1\n              dup2\n              mstore\n              0x20\n              add\n              0x00\n              keccak256\n                /* \"contracts/Bus.sol\":740:761  return(busSeat[_num]) */\n              mload(0x40)\n              dup1\n              0x60\n              add\n              0x40\n              mstore\n              swap1\n              dup2\n              0x00\n              dup3\n              add\n              sload\n              dup2\n              mstore\n              0x20\n              add\n              0x01\n              dup3\n              add\n              sload\n              dup2\n              mstore\n              0x20\n              add\n              0x02\n              dup3\n              add\n              0x00\n              swap1\n              sload\n              swap1\n              0x0100\n              exp\n              swap1\n              div\n              0xffffffffffffffffffffffffffffffffffffffff\n              and\n              0xffffffffffffffffffffffffffffffffffffffff\n              and\n              0xffffffffffffffffffffffffffffffffffffffff\n              and\n              dup2\n              mstore\n              pop\n              pop\n              swap1\n              pop\n                /* \"contracts/Bus.sol\":664:768  function getSeatDetail(uint _num) public view returns(seat memory){... */\n              swap2\n              swap1\n              pop\n              jump\t// out\n            tag_29:\n              mload(0x40)\n              dup1\n              0x60\n              add\n              0x40\n              mstore\n              dup1\n              0x00\n              dup2\n              mstore\n              0x20\n              add\n              0x00\n              dup2\n              mstore\n              0x20\n              add\n              and(0xffffffffffffffffffffffffffffffffffffffff, 0x00)\n              dup2\n              mstore\n              pop\n              swap1\n              jump\t// out\n                /* \"#utility.yul\":7:146   */\n            tag_32:\n                /* \"#utility.yul\":53:58   */\n              0x00\n                /* \"#utility.yul\":91:97   */\n              dup2\n                /* \"#utility.yul\":78:98   */\n              calldataload\n                /* \"#utility.yul\":69:98   */\n              swap1\n              pop\n                /* \"#utility.yul\":107:140   */\n              tag_34\n                /* \"#utility.yul\":134:139   */\n              dup2\n                /* \"#utility.yul\":107:140   */\n              tag_35\n              jump\t// in\n            tag_34:\n                /* \"#utility.yul\":7:146   */\n              swap3\n              swap2\n              pop\n              pop\n              jump\t// out\n                /* \"#utility.yul\":152:291   */\n            tag_36:\n                /* \"#utility.yul\":198:203   */\n              0x00\n                /* \"#utility.yul\":236:242   */\n              dup2\n                /* \"#utility.yul\":223:243   */\n              calldataload\n                /* \"#utility.yul\":214:243   */\n              swap1\n              pop\n                /* \"#utility.yul\":252:285   */\n              tag_38\n                /* \"#utility.yul\":279:284   */\n              dup2\n                /* \"#utility.yul\":252:285   */\n              tag_39\n              jump\t// in\n            tag_38:\n                /* \"#utility.yul\":152:291   */\n              swap3\n              swap2\n              pop\n              pop\n              jump\t// out\n                /* \"#utility.yul\":297:626   */\n            tag_16:\n                /* \"#utility.yul\":356:362   */\n              0x00\n                /* \"#utility.yul\":405:407   */\n              0x20\n                /* \"#utility.yul\":393:402   */\n              dup3\n                /* \"#utility.yul\":384:391   */\n              dup5\n                /* \"#utility.yul\":380:403   */\n              sub\n                /* \"#utility.yul\":376:408   */\n              slt\n                /* \"#utility.yul\":373:492   */\n              iszero\n              tag_41\n              jumpi\n                /* \"#utility.yul\":411:490   */\n              tag_42\n              tag_43\n              jump\t// in\n            tag_42:\n                /* \"#utility.yul\":373:492   */\n            tag_41:\n                /* \"#utility.yul\":531:532   */\n              0x00\n                /* \"#utility.yul\":556:609   */\n              tag_44\n                /* \"#utility.yul\":601:608   */\n              dup5\n                /* \"#utility.yul\":592:598   */\n              dup3\n                /* \"#utility.yul\":581:590   */\n              dup6\n                /* \"#utility.yul\":577:599   */\n              add\n                /* \"#utility.yul\":556:609   */\n              tag_36\n              jump\t// in\n            tag_44:\n                /* \"#utility.yul\":546:609   */\n              swap2\n              pop\n                /* \"#utility.yul\":502:619   */\n              pop\n                /* \"#utility.yul\":297:626   */\n              swap3\n              swap2\n              pop\n              pop\n              jump\t// out\n                /* \"#utility.yul\":632:1251   */\n            tag_12:\n                /* \"#utility.yul\":709:715   */\n              0x00\n                /* \"#utility.yul\":717:723   */\n              dup1\n                /* \"#utility.yul\":725:731   */\n              0x00\n                /* \"#utility.yul\":774:776   */\n              0x60\n                /* \"#utility.yul\":762:771   */\n              dup5\n                /* \"#utility.yul\":753:760   */\n              dup7\n                /* \"#utility.yul\":749:772   */\n              sub\n                /* \"#utility.yul\":745:777   */\n              slt\n                /* \"#utility.yul\":742:861   */\n              iszero\n              tag_46\n              jumpi\n                /* \"#utility.yul\":780:859   */\n              tag_47\n              tag_43\n              jump\t// in\n            tag_47:\n                /* \"#utility.yul\":742:861   */\n            tag_46:\n                /* \"#utility.yul\":900:901   */\n              0x00\n                /* \"#utility.yul\":925:978   */\n              tag_48\n                /* \"#utility.yul\":970:977   */\n              dup7\n                /* \"#utility.yul\":961:967   */\n              dup3\n                /* \"#utility.yul\":950:959   */\n              dup8\n                /* \"#utility.yul\":946:968   */\n              add\n                /* \"#utility.yul\":925:978   */\n              tag_36\n              jump\t// in\n            tag_48:\n                /* \"#utility.yul\":915:978   */\n              swap4\n              pop\n                /* \"#utility.yul\":871:988   */\n              pop\n                /* \"#utility.yul\":1027:1029   */\n              0x20\n                /* \"#utility.yul\":1053:1106   */\n              tag_49\n                /* \"#utility.yul\":1098:1105   */\n              dup7\n                /* \"#utility.yul\":1089:1095   */\n              dup3\n                /* \"#utility.yul\":1078:1087   */\n              dup8\n                /* \"#utility.yul\":1074:1096   */\n              add\n                /* \"#utility.yul\":1053:1106   */\n              tag_36\n              jump\t// in\n            tag_49:\n                /* \"#utility.yul\":1043:1106   */\n              swap3\n              pop\n                /* \"#utility.yul\":998:1116   */\n              pop\n                /* \"#utility.yul\":1155:1157   */\n              0x40\n                /* \"#utility.yul\":1181:1234   */\n              tag_50\n                /* \"#utility.yul\":1226:1233   */\n              dup7\n                /* \"#utility.yul\":1217:1223   */\n              dup3\n                /* \"#utility.yul\":1206:1215   */\n              dup8\n                /* \"#utility.yul\":1202:1224   */\n              add\n                /* \"#utility.yul\":1181:1234   */\n              tag_32\n              jump\t// in\n            tag_50:\n                /* \"#utility.yul\":1171:1234   */\n              swap2\n              pop\n                /* \"#utility.yul\":1126:1244   */\n              pop\n                /* \"#utility.yul\":632:1251   */\n              swap3\n              pop\n              swap3\n              pop\n              swap3\n              jump\t// out\n                /* \"#utility.yul\":1257:1365   */\n            tag_51:\n                /* \"#utility.yul\":1334:1358   */\n              tag_53\n                /* \"#utility.yul\":1352:1357   */\n              dup2\n                /* \"#utility.yul\":1334:1358   */\n              tag_54\n              jump\t// in\n            tag_53:\n                /* \"#utility.yul\":1329:1332   */\n              dup3\n                /* \"#utility.yul\":1322:1359   */\n              mstore\n                /* \"#utility.yul\":1257:1365   */\n              pop\n              pop\n              jump\t// out\n                /* \"#utility.yul\":1371:1735   */\n            tag_55:\n                /* \"#utility.yul\":1459:1462   */\n              0x00\n                /* \"#utility.yul\":1487:1526   */\n              tag_57\n                /* \"#utility.yul\":1520:1525   */\n              dup3\n                /* \"#utility.yul\":1487:1526   */\n              tag_58\n              jump\t// in\n            tag_57:\n                /* \"#utility.yul\":1542:1613   */\n              tag_59\n                /* \"#utility.yul\":1606:1612   */\n              dup2\n                /* \"#utility.yul\":1601:1604   */\n              dup6\n                /* \"#utility.yul\":1542:1613   */\n              tag_60\n              jump\t// in\n            tag_59:\n                /* \"#utility.yul\":1535:1613   */\n              swap4\n              pop\n                /* \"#utility.yul\":1622:1674   */\n              tag_61\n                /* \"#utility.yul\":1667:1673   */\n              dup2\n                /* \"#utility.yul\":1662:1665   */\n              dup6\n                /* \"#utility.yul\":1655:1659   */\n              0x20\n                /* \"#utility.yul\":1648:1653   */\n              dup7\n                /* \"#utility.yul\":1644:1660   */\n              add\n                /* \"#utility.yul\":1622:1674   */\n              tag_62\n              jump\t// in\n            tag_61:\n                /* \"#utility.yul\":1699:1728   */\n              tag_63\n                /* \"#utility.yul\":1721:1727   */\n              dup2\n                /* \"#utility.yul\":1699:1728   */\n              tag_64\n              jump\t// in\n            tag_63:\n                /* \"#utility.yul\":1694:1697   */\n              dup5\n                /* \"#utility.yul\":1690:1729   */\n              add\n                /* \"#utility.yul\":1683:1729   */\n              swap2\n              pop\n                /* \"#utility.yul\":1463:1735   */\n              pop\n                /* \"#utility.yul\":1371:1735   */\n              swap3\n              swap2\n              pop\n              pop\n              jump\t// out\n                /* \"#utility.yul\":1783:2463   */\n            tag_65:\n                /* \"#utility.yul\":1918:1922   */\n              0x60\n                /* \"#utility.yul\":1913:1916   */\n              dup3\n                /* \"#utility.yul\":1909:1923   */\n              add\n                /* \"#utility.yul\":2008:2012   */\n              0x00\n                /* \"#utility.yul\":2001:2006   */\n              dup3\n                /* \"#utility.yul\":1997:2013   */\n              add\n                /* \"#utility.yul\":1991:2014   */\n              mload\n                /* \"#utility.yul\":2027:2090   */\n              tag_67\n                /* \"#utility.yul\":2084:2088   */\n              0x00\n                /* \"#utility.yul\":2079:2082   */\n              dup6\n                /* \"#utility.yul\":2075:2089   */\n              add\n                /* \"#utility.yul\":2061:2073   */\n              dup3\n                /* \"#utility.yul\":2027:2090   */\n              tag_68\n              jump\t// in\n            tag_67:\n                /* \"#utility.yul\":1933:2100   */\n              pop\n                /* \"#utility.yul\":2187:2191   */\n              0x20\n                /* \"#utility.yul\":2180:2185   */\n              dup3\n                /* \"#utility.yul\":2176:2192   */\n              add\n                /* \"#utility.yul\":2170:2193   */\n              mload\n                /* \"#utility.yul\":2206:2269   */\n              tag_69\n                /* \"#utility.yul\":2263:2267   */\n              0x20\n                /* \"#utility.yul\":2258:2261   */\n              dup6\n                /* \"#utility.yul\":2254:2268   */\n              add\n                /* \"#utility.yul\":2240:2252   */\n              dup3\n                /* \"#utility.yul\":2206:2269   */\n              tag_68\n              jump\t// in\n            tag_69:\n                /* \"#utility.yul\":2110:2279   */\n              pop\n                /* \"#utility.yul\":2364:2368   */\n              0x40\n                /* \"#utility.yul\":2357:2362   */\n              dup3\n                /* \"#utility.yul\":2353:2369   */\n              add\n                /* \"#utility.yul\":2347:2370   */\n              mload\n                /* \"#utility.yul\":2383:2446   */\n              tag_70\n                /* \"#utility.yul\":2440:2444   */\n              0x40\n                /* \"#utility.yul\":2435:2438   */\n              dup6\n                /* \"#utility.yul\":2431:2445   */\n              add\n                /* \"#utility.yul\":2417:2429   */\n              dup3\n                /* \"#utility.yul\":2383:2446   */\n              tag_51\n              jump\t// in\n            tag_70:\n                /* \"#utility.yul\":2289:2456   */\n              pop\n                /* \"#utility.yul\":1887:2463   */\n              pop\n                /* \"#utility.yul\":1783:2463   */\n              pop\n              pop\n              jump\t// out\n                /* \"#utility.yul\":2469:2577   */\n            tag_68:\n                /* \"#utility.yul\":2546:2570   */\n              tag_72\n                /* \"#utility.yul\":2564:2569   */\n              dup2\n                /* \"#utility.yul\":2546:2570   */\n              tag_73\n              jump\t// in\n            tag_72:\n                /* \"#utility.yul\":2541:2544   */\n              dup3\n                /* \"#utility.yul\":2534:2571   */\n              mstore\n                /* \"#utility.yul\":2469:2577   */\n              pop\n              pop\n              jump\t// out\n                /* \"#utility.yul\":2583:2701   */\n            tag_74:\n                /* \"#utility.yul\":2670:2694   */\n              tag_76\n                /* \"#utility.yul\":2688:2693   */\n              dup2\n                /* \"#utility.yul\":2670:2694   */\n              tag_73\n              jump\t// in\n            tag_76:\n                /* \"#utility.yul\":2665:2668   */\n              dup3\n                /* \"#utility.yul\":2658:2695   */\n              mstore\n                /* \"#utility.yul\":2583:2701   */\n              pop\n              pop\n              jump\t// out\n                /* \"#utility.yul\":2707:3005   */\n            tag_19:\n                /* \"#utility.yul\":2838:2842   */\n              0x00\n                /* \"#utility.yul\":2876:2878   */\n              0x60\n                /* \"#utility.yul\":2865:2874   */\n              dup3\n                /* \"#utility.yul\":2861:2879   */\n              add\n                /* \"#utility.yul\":2853:2879   */\n              swap1\n              pop\n                /* \"#utility.yul\":2889:2998   */\n              tag_78\n                /* \"#utility.yul\":2995:2996   */\n              0x00\n                /* \"#utility.yul\":2984:2993   */\n              dup4\n                /* \"#utility.yul\":2980:2997   */\n              add\n                /* \"#utility.yul\":2971:2977   */\n              dup5\n                /* \"#utility.yul\":2889:2998   */\n              tag_65\n              jump\t// in\n            tag_78:\n                /* \"#utility.yul\":2707:3005   */\n              swap3\n              swap2\n              pop\n              pop\n              jump\t// out\n                /* \"#utility.yul\":3011:3434   */\n            tag_9:\n                /* \"#utility.yul\":3152:3156   */\n              0x00\n                /* \"#utility.yul\":3190:3192   */\n              0x40\n                /* \"#utility.yul\":3179:3188   */\n              dup3\n                /* \"#utility.yul\":3175:3193   */\n              add\n                /* \"#utility.yul\":3167:3193   */\n              swap1\n              pop\n                /* \"#utility.yul\":3203:3274   */\n              tag_80\n                /* \"#utility.yul\":3271:3272   */\n              0x00\n                /* \"#utility.yul\":3260:3269   */\n              dup4\n                /* \"#utility.yul\":3256:3273   */\n              add\n                /* \"#utility.yul\":3247:3253   */\n              dup6\n                /* \"#utility.yul\":3203:3274   */\n              tag_74\n              jump\t// in\n            tag_80:\n                /* \"#utility.yul\":3321:3330   */\n              dup2\n                /* \"#utility.yul\":3315:3319   */\n              dup2\n                /* \"#utility.yul\":3311:3331   */\n              sub\n                /* \"#utility.yul\":3306:3308   */\n              0x20\n                /* \"#utility.yul\":3295:3304   */\n              dup4\n                /* \"#utility.yul\":3291:3309   */\n              add\n                /* \"#utility.yul\":3284:3332   */\n              mstore\n                /* \"#utility.yul\":3349:3427   */\n              tag_81\n                /* \"#utility.yul\":3422:3426   */\n              dup2\n                /* \"#utility.yul\":3413:3419   */\n              dup5\n                /* \"#utility.yul\":3349:3427   */\n              tag_55\n              jump\t// in\n            tag_81:\n                /* \"#utility.yul\":3341:3427   */\n              swap1\n              pop\n                /* \"#utility.yul\":3011:3434   */\n              swap4\n              swap3\n              pop\n              pop\n              pop\n              jump\t// out\n                /* \"#utility.yul\":3521:3620   */\n            tag_58:\n                /* \"#utility.yul\":3573:3579   */\n              0x00\n                /* \"#utility.yul\":3607:3612   */\n              dup2\n                /* \"#utility.yul\":3601:3613   */\n              mload\n                /* \"#utility.yul\":3591:3613   */\n              swap1\n              pop\n                /* \"#utility.yul\":3521:3620   */\n              swap2\n              swap1\n              pop\n              jump\t// out\n                /* \"#utility.yul\":3626:3795   */\n            tag_60:\n                /* \"#utility.yul\":3710:3721   */\n              0x00\n                /* \"#utility.yul\":3744:3750   */\n              dup3\n                /* \"#utility.yul\":3739:3742   */\n              dup3\n                /* \"#utility.yul\":3732:3751   */\n              mstore\n                /* \"#utility.yul\":3784:3788   */\n              0x20\n                /* \"#utility.yul\":3779:3782   */\n              dup3\n                /* \"#utility.yul\":3775:3789   */\n              add\n                /* \"#utility.yul\":3760:3789   */\n              swap1\n              pop\n                /* \"#utility.yul\":3626:3795   */\n              swap3\n              swap2\n              pop\n              pop\n              jump\t// out\n                /* \"#utility.yul\":3801:3897   */\n            tag_54:\n                /* \"#utility.yul\":3838:3845   */\n              0x00\n                /* \"#utility.yul\":3867:3891   */\n              tag_87\n                /* \"#utility.yul\":3885:3890   */\n              dup3\n                /* \"#utility.yul\":3867:3891   */\n              tag_88\n              jump\t// in\n            tag_87:\n                /* \"#utility.yul\":3856:3891   */\n              swap1\n              pop\n                /* \"#utility.yul\":3801:3897   */\n              swap2\n              swap1\n              pop\n              jump\t// out\n                /* \"#utility.yul\":3903:4029   */\n            tag_88:\n                /* \"#utility.yul\":3940:3947   */\n              0x00\n                /* \"#utility.yul\":3980:4022   */\n              0xffffffffffffffffffffffffffffffffffffffff\n                /* \"#utility.yul\":3973:3978   */\n              dup3\n                /* \"#utility.yul\":3969:4023   */\n              and\n                /* \"#utility.yul\":3958:4023   */\n              swap1\n              pop\n                /* \"#utility.yul\":3903:4029   */\n              swap2\n              swap1\n              pop\n              jump\t// out\n                /* \"#utility.yul\":4035:4112   */\n            tag_73:\n                /* \"#utility.yul\":4072:4079   */\n              0x00\n                /* \"#utility.yul\":4101:4106   */\n              dup2\n                /* \"#utility.yul\":4090:4106   */\n              swap1\n              pop\n                /* \"#utility.yul\":4035:4112   */\n              swap2\n              swap1\n              pop\n              jump\t// out\n                /* \"#utility.yul\":4118:4425   */\n            tag_62:\n                /* \"#utility.yul\":4186:4187   */\n              0x00\n                /* \"#utility.yul\":4196:4309   */\n            tag_92:\n                /* \"#utility.yul\":4210:4216   */\n              dup4\n                /* \"#utility.yul\":4207:4208   */\n              dup2\n                /* \"#utility.yul\":4204:4217   */\n              lt\n                /* \"#utility.yul\":4196:4309   */\n              iszero\n              tag_94\n              jumpi\n                /* \"#utility.yul\":4295:4296   */\n              dup1\n                /* \"#utility.yul\":4290:4293   */\n              dup3\n                /* \"#utility.yul\":4286:4297   */\n              add\n                /* \"#utility.yul\":4280:4298   */\n              mload\n                /* \"#utility.yul\":4276:4277   */\n              dup2\n                /* \"#utility.yul\":4271:4274   */\n              dup5\n                /* \"#utility.yul\":4267:4278   */\n              add\n                /* \"#utility.yul\":4260:4299   */\n              mstore\n                /* \"#utility.yul\":4232:4234   */\n              0x20\n                /* \"#utility.yul\":4229:4230   */\n              dup2\n                /* \"#utility.yul\":4225:4235   */\n              add\n                /* \"#utility.yul\":4220:4235   */\n              swap1\n              pop\n                /* \"#utility.yul\":4196:4309   */\n              jump(tag_92)\n            tag_94:\n                /* \"#utility.yul\":4327:4333   */\n              dup4\n                /* \"#utility.yul\":4324:4325   */\n              dup2\n                /* \"#utility.yul\":4321:4334   */\n              gt\n                /* \"#utility.yul\":4318:4419   */\n              iszero\n              tag_95\n              jumpi\n                /* \"#utility.yul\":4407:4408   */\n              0x00\n                /* \"#utility.yul\":4398:4404   */\n              dup5\n                /* \"#utility.yul\":4393:4396   */\n              dup5\n                /* \"#utility.yul\":4389:4405   */\n              add\n                /* \"#utility.yul\":4382:4409   */\n              mstore\n                /* \"#utility.yul\":4318:4419   */\n            tag_95:\n                /* \"#utility.yul\":4167:4425   */\n              pop\n                /* \"#utility.yul\":4118:4425   */\n              pop\n              pop\n              pop\n              jump\t// out\n                /* \"#utility.yul\":4431:4751   */\n            tag_22:\n                /* \"#utility.yul\":4475:4481   */\n              0x00\n                /* \"#utility.yul\":4512:4513   */\n              0x02\n                /* \"#utility.yul\":4506:4510   */\n              dup3\n                /* \"#utility.yul\":4502:4514   */\n              div\n                /* \"#utility.yul\":4492:4514   */\n              swap1\n              pop\n                /* \"#utility.yul\":4559:4560   */\n              0x01\n                /* \"#utility.yul\":4553:4557   */\n              dup3\n                /* \"#utility.yul\":4549:4561   */\n              and\n                /* \"#utility.yul\":4580:4598   */\n              dup1\n                /* \"#utility.yul\":4570:4651   */\n              tag_97\n              jumpi\n                /* \"#utility.yul\":4636:4640   */\n              0x7f\n                /* \"#utility.yul\":4628:4634   */\n              dup3\n                /* \"#utility.yul\":4624:4641   */\n              and\n                /* \"#utility.yul\":4614:4641   */\n              swap2\n              pop\n                /* \"#utility.yul\":4570:4651   */\n            tag_97:\n                /* \"#utility.yul\":4698:4700   */\n              0x20\n                /* \"#utility.yul\":4690:4696   */\n              dup3\n                /* \"#utility.yul\":4687:4701   */\n              lt\n                /* \"#utility.yul\":4667:4685   */\n              dup2\n                /* \"#utility.yul\":4664:4702   */\n              eq\n                /* \"#utility.yul\":4661:4745   */\n              iszero\n              tag_98\n              jumpi\n                /* \"#utility.yul\":4717:4735   */\n              tag_99\n              tag_100\n              jump\t// in\n            tag_99:\n                /* \"#utility.yul\":4661:4745   */\n            tag_98:\n                /* \"#utility.yul\":4482:4751   */\n              pop\n                /* \"#utility.yul\":4431:4751   */\n              swap2\n              swap1\n              pop\n              jump\t// out\n                /* \"#utility.yul\":4757:4937   */\n            tag_100:\n                /* \"#utility.yul\":4805:4882   */\n              0x4e487b7100000000000000000000000000000000000000000000000000000000\n                /* \"#utility.yul\":4802:4803   */\n              0x00\n                /* \"#utility.yul\":4795:4883   */\n              mstore\n                /* \"#utility.yul\":4902:4906   */\n              0x22\n                /* \"#utility.yul\":4899:4900   */\n              0x04\n                /* \"#utility.yul\":4892:4907   */\n              mstore\n                /* \"#utility.yul\":4926:4930   */\n              0x24\n                /* \"#utility.yul\":4923:4924   */\n              0x00\n                /* \"#utility.yul\":4916:4931   */\n              revert\n                /* \"#utility.yul\":5066:5183   */\n            tag_43:\n                /* \"#utility.yul\":5175:5176   */\n              0x00\n                /* \"#utility.yul\":5172:5173   */\n              dup1\n                /* \"#utility.yul\":5165:5177   */\n              revert\n                /* \"#utility.yul\":5189:5291   */\n            tag_64:\n                /* \"#utility.yul\":5230:5236   */\n              0x00\n                /* \"#utility.yul\":5281:5283   */\n              0x1f\n                /* \"#utility.yul\":5277:5284   */\n              not\n                /* \"#utility.yul\":5272:5274   */\n              0x1f\n                /* \"#utility.yul\":5265:5270   */\n              dup4\n                /* \"#utility.yul\":5261:5275   */\n              add\n                /* \"#utility.yul\":5257:5285   */\n              and\n                /* \"#utility.yul\":5247:5285   */\n              swap1\n              pop\n                /* \"#utility.yul\":5189:5291   */\n              swap2\n              swap1\n              pop\n              jump\t// out\n                /* \"#utility.yul\":5297:5419   */\n            tag_35:\n                /* \"#utility.yul\":5370:5394   */\n              tag_107\n                /* \"#utility.yul\":5388:5393   */\n              dup2\n                /* \"#utility.yul\":5370:5394   */\n              tag_54\n              jump\t// in\n            tag_107:\n                /* \"#utility.yul\":5363:5368   */\n              dup2\n                /* \"#utility.yul\":5360:5395   */\n              eq\n                /* \"#utility.yul\":5350:5413   */\n              tag_108\n              jumpi\n                /* \"#utility.yul\":5409:5410   */\n              0x00\n                /* \"#utility.yul\":5406:5407   */\n              dup1\n                /* \"#utility.yul\":5399:5411   */\n              revert\n                /* \"#utility.yul\":5350:5413   */\n            tag_108:\n                /* \"#utility.yul\":5297:5419   */\n              pop\n              jump\t// out\n                /* \"#utility.yul\":5425:5547   */\n            tag_39:\n                /* \"#utility.yul\":5498:5522   */\n              tag_110\n                /* \"#utility.yul\":5516:5521   */\n              dup2\n                /* \"#utility.yul\":5498:5522   */\n              tag_73\n              jump\t// in\n            tag_110:\n                /* \"#utility.yul\":5491:5496   */\n              dup2\n                /* \"#utility.yul\":5488:5523   */\n              eq\n                /* \"#utility.yul\":5478:5541   */\n              tag_111\n              jumpi\n                /* \"#utility.yul\":5537:5538   */\n              0x00\n                /* \"#utility.yul\":5534:5535   */\n              dup1\n                /* \"#utility.yul\":5527:5539   */\n              revert\n                /* \"#utility.yul\":5478:5541   */\n            tag_111:\n                /* \"#utility.yul\":5425:5547   */\n              pop\n              jump\t// out\n\n            auxdata: 0xa26469706673582212208fbaf1c209f367c27afc91917fdf5cdb3be9d5e4cf32bc7f3a4f12f5cbf8955464736f6c63430008070033\n        }\n    }\n\n    auxdata: 0xa2646970667358221220870560c547728620c5085d4fd39002d26fc3d12263d9983ed318d5fc4a98231b64736f6c63430008070033\n}\n",
				"bytecode": {
					"linkReferences": {},
					"object": "608060405234801561001057600080fd5b50336000806101000a81548173ffffffffffffffffffffffffffffffffffffffff021916908373ffffffffffffffffffffffffffffffffffffffff160217905550611216806100606000396000f3fe60806040523480156200001157600080fd5b50600436106200003a5760003560e01c80639221aa1a146200003f578063fbcc6cb51462000076575b600080fd5b6200005d600480360381019062000057919062000407565b620000ac565b6040516200006d929190620005ce565b60405180910390f35b6200009460048036038101906200008e919062000439565b62000173565b604051620000a391906200058f565b60405180910390f35b600060606001600084815260200190815260200160002060009054906101000a900473ffffffffffffffffffffffffffffffffffffffff1673ffffffffffffffffffffffffffffffffffffffff166326002bf16040518163ffffffff1660e01b815260040160006040518083038186803b1580156200012a57600080fd5b505afa1580156200013f573d6000803e3d6000fd5b505050506040513d6000823e3d601f19601f820116820180604052508101906200016a91906200049f565b91509150915091565b60008060009054906101000a900473ffffffffffffffffffffffffffffffffffffffff1673ffffffffffffffffffffffffffffffffffffffff163373ffffffffffffffffffffffffffffffffffffffff161462000207576040517f08c379a0000000000000000000000000000000000000000000000000000000008152600401620001fe90620005ac565b60405180910390fd5b82826040516200021790620002cf565b62000224929190620005ce565b604051809103906000f08015801562000241573d6000803e3d6000fd5b506001600085815260200190815260200160002060006101000a81548173ffffffffffffffffffffffffffffffffffffffff021916908373ffffffffffffffffffffffffffffffffffffffff1602179055506001600084815260200190815260200160002060009054906101000a900473ffffffffffffffffffffffffffffffffffffffff16905092915050565b6109eb80620007f683390190565b6000620002f4620002ee846200062b565b62000602565b90508281526020810184848401111562000313576200031262000792565b5b62000320848285620006e3565b509392505050565b60006200033f62000339846200062b565b62000602565b9050828152602081018484840111156200035e576200035d62000792565b5b6200036b848285620006f2565b509392505050565b600082601f8301126200038b576200038a6200078d565b5b81356200039d848260208601620002dd565b91505092915050565b600082601f830112620003be57620003bd6200078d565b5b8151620003d084826020860162000328565b91505092915050565b600081359050620003ea81620007db565b92915050565b6000815190506200040181620007db565b92915050565b60006020828403121562000420576200041f6200079c565b5b60006200043084828501620003d9565b91505092915050565b600080604083850312156200045357620004526200079c565b5b60006200046385828601620003d9565b925050602083013567ffffffffffffffff81111562000487576200048662000797565b5b620004958582860162000373565b9150509250929050565b60008060408385031215620004b957620004b86200079c565b5b6000620004c985828601620003f0565b925050602083015167ffffffffffffffff811115620004ed57620004ec62000797565b5b620004fb85828601620003a6565b9150509250929050565b6200051081620006a7565b82525050565b6000620005238262000661565b6200052f81856200066c565b935062000541818560208601620006f2565b6200054c81620007a1565b840191505092915050565b6000620005666015836200066c565b91506200057382620007b2565b602082019050919050565b62000589816200069d565b82525050565b6000602082019050620005a6600083018462000505565b92915050565b60006020820190508181036000830152620005c78162000557565b9050919050565b6000604082019050620005e560008301856200057e565b8181036020830152620005f9818462000516565b90509392505050565b60006200060e62000621565b90506200061c828262000728565b919050565b6000604051905090565b600067ffffffffffffffff8211156200064957620006486200075e565b5b6200065482620007a1565b9050602081019050919050565b600081519050919050565b600082825260208201905092915050565b600073ffffffffffffffffffffffffffffffffffffffff82169050919050565b6000819050919050565b6000620006b482620006bb565b9050919050565b6000620006c882620006cf565b9050919050565b6000620006dc826200067d565b9050919050565b82818337600083830152505050565b60005b8381101562000712578082015181840152602081019050620006f5565b8381111562000722576000848401525b50505050565b6200073382620007a1565b810181811067ffffffffffffffff821117156200075557620007546200075e565b5b80604052505050565b7f4e487b7100000000000000000000000000000000000000000000000000000000600052604160045260246000fd5b600080fd5b600080fd5b600080fd5b600080fd5b6000601f19601f8301169050919050565b7f63616c6c6572206973206e6f74204d616e616765720000000000000000000000600082015250565b620007e6816200069d565b8114620007f257600080fd5b5056fe60806040523480156200001157600080fd5b50604051620009eb380380620009eb833981810160405281019062000037919062000207565b81600181905550806002908051906020019062000056929190620000c2565b506000339080600181540180825580915050600190039060005260206000200160009091909190916101000a81548173ffffffffffffffffffffffffffffffffffffffff021916908373ffffffffffffffffffffffffffffffffffffffff160217905550505062000415565b828054620000d0906200030c565b90600052602060002090601f016020900481019282620000f4576000855562000140565b82601f106200010f57805160ff191683800117855562000140565b8280016001018555821562000140579182015b828111156200013f57825182559160200191906001019062000122565b5b5090506200014f919062000153565b5090565b5b808211156200016e57600081600090555060010162000154565b5090565b600062000189620001838462000296565b6200026d565b905082815260208101848484011115620001a857620001a7620003db565b5b620001b5848285620002d6565b509392505050565b600082601f830112620001d557620001d4620003d6565b5b8151620001e784826020860162000172565b91505092915050565b6000815190506200020181620003fb565b92915050565b60008060408385031215620002215762000220620003e5565b5b60006200023185828601620001f0565b925050602083015167ffffffffffffffff811115620002555762000254620003e0565b5b6200026385828601620001bd565b9150509250929050565b6000620002796200028c565b905062000287828262000342565b919050565b6000604051905090565b600067ffffffffffffffff821115620002b457620002b3620003a7565b5b620002bf82620003ea565b9050602081019050919050565b6000819050919050565b60005b83811015620002f6578082015181840152602081019050620002d9565b8381111562000306576000848401525b50505050565b600060028204905060018216806200032557607f821691505b602082108114156200033c576200033b62000378565b5b50919050565b6200034d82620003ea565b810181811067ffffffffffffffff821117156200036f576200036e620003a7565b5b80604052505050565b7f4e487b7100000000000000000000000000000000000000000000000000000000600052602260045260246000fd5b7f4e487b7100000000000000000000000000000000000000000000000000000000600052604160045260246000fd5b600080fd5b600080fd5b600080fd5b600080fd5b6000601f19601f8301169050919050565b6200040681620002cc565b81146200041257600080fd5b50565b6105c680620004256000396000f3fe608060405234801561001057600080fd5b50600436106100415760003560e01c806326002bf114610046578063a434261f14610065578063bb4f860d14610081575b600080fd5b61004e6100b1565b60405161005c929190610430565b60405180910390f35b61007f600480360381019061007a919061031a565b61014e565b005b61009b600480360381019061009691906102ed565b6101f5565b6040516100a89190610415565b60405180910390f35b6000606060015460028080546100c6906104eb565b80601f01602080910402602001604051908101604052809291908181526020018280546100f2906104eb565b801561013f5780601f106101145761010080835404028352916020019161013f565b820191906000526020600020905b81548152906001019060200180831161012257829003601f168201915b50505050509050915091509091565b60405180606001604052808481526020018381526020018273ffffffffffffffffffffffffffffffffffffffff1681525060036000858152602001908152602001600020600082015181600001556020820151816001015560408201518160020160006101000a81548173ffffffffffffffffffffffffffffffffffffffff021916908373ffffffffffffffffffffffffffffffffffffffff160217905550905050505050565b6101fd61028c565b6003600083815260200190815260200160002060405180606001604052908160008201548152602001600182015481526020016002820160009054906101000a900473ffffffffffffffffffffffffffffffffffffffff1673ffffffffffffffffffffffffffffffffffffffff1673ffffffffffffffffffffffffffffffffffffffff16815250509050919050565b60405180606001604052806000815260200160008152602001600073ffffffffffffffffffffffffffffffffffffffff1681525090565b6000813590506102d281610562565b92915050565b6000813590506102e781610579565b92915050565b6000602082840312156103035761030261054c565b5b6000610311848285016102d8565b91505092915050565b6000806000606084860312156103335761033261054c565b5b6000610341868287016102d8565b9350506020610352868287016102d8565b9250506040610363868287016102c3565b9150509250925092565b6103768161047c565b82525050565b600061038782610460565b610391818561046b565b93506103a18185602086016104b8565b6103aa81610551565b840191505092915050565b6060820160008201516103cb60008501826103f7565b5060208201516103de60208501826103f7565b5060408201516103f1604085018261036d565b50505050565b610400816104ae565b82525050565b61040f816104ae565b82525050565b600060608201905061042a60008301846103b5565b92915050565b60006040820190506104456000830185610406565b8181036020830152610457818461037c565b90509392505050565b600081519050919050565b600082825260208201905092915050565b60006104878261048e565b9050919050565b600073ffffffffffffffffffffffffffffffffffffffff82169050919050565b6000819050919050565b60005b838110156104d65780820151818401526020810190506104bb565b838111156104e5576000848401525b50505050565b6000600282049050600182168061050357607f821691505b602082108114156105175761051661051d565b5b50919050565b7f4e487b7100000000000000000000000000000000000000000000000000000000600052602260045260246000fd5b600080fd5b6000601f19601f8301169050919050565b61056b8161047c565b811461057657600080fd5b50565b610582816104ae565b811461058d57600080fd5b5056fea26469706673582212208fbaf1c209f367c27afc91917fdf5cdb3be9d5e4cf32bc7f3a4f12f5cbf8955464736f6c63430008070033a2646970667358221220870560c547728620c5085d4fd39002d26fc3d12263d9983ed318d5fc4a98231b64736f6c63430008070033",
					"opcodes": "PUSH1 0x80 PUSH1 0x40 MSTORE CALLVALUE DUP1 ISZERO PUSH2 0x10 JUMPI PUSH1 0x0 DUP1 REVERT JUMPDEST POP CALLER PUSH1 0x0 DUP1 PUSH2 0x100 EXP DUP2 SLOAD DUP2 PUSH20 0xFFFFFFFFFFFFFFFFFFFFFFFFFFFFFFFFFFFFFFFF MUL NOT AND SWAP1 DUP4 PUSH20 0xFFFFFFFFFFFFFFFFFFFFFFFFFFFFFFFFFFFFFFFF AND MUL OR SWAP1 SSTORE POP PUSH2 0x1216 DUP1 PUSH2 0x60 PUSH1 0x0 CODECOPY PUSH1 0x0 RETURN INVALID PUSH1 0x80 PUSH1 0x40 MSTORE CALLVALUE DUP1 ISZERO PUSH3 0x11 JUMPI PUSH1 0x0 DUP1 REVERT JUMPDEST POP PUSH1 0x4 CALLDATASIZE LT PUSH3 0x3A JUMPI PUSH1 0x0 CALLDATALOAD PUSH1 0xE0 SHR DUP1 PUSH4 0x9221AA1A EQ PUSH3 0x3F JUMPI DUP1 PUSH4 0xFBCC6CB5 EQ PUSH3 0x76 JUMPI JUMPDEST PUSH1 0x0 DUP1 REVERT JUMPDEST PUSH3 0x5D PUSH1 0x4 DUP1 CALLDATASIZE SUB DUP2 ADD SWAP1 PUSH3 0x57 SWAP2 SWAP1 PUSH3 0x407 JUMP JUMPDEST PUSH3 0xAC JUMP JUMPDEST PUSH1 0x40 MLOAD PUSH3 0x6D SWAP3 SWAP2 SWAP1 PUSH3 0x5CE JUMP JUMPDEST PUSH1 0x40 MLOAD DUP1 SWAP2 SUB SWAP1 RETURN JUMPDEST PUSH3 0x94 PUSH1 0x4 DUP1 CALLDATASIZE SUB DUP2 ADD SWAP1 PUSH3 0x8E SWAP2 SWAP1 PUSH3 0x439 JUMP JUMPDEST PUSH3 0x173 JUMP JUMPDEST PUSH1 0x40 MLOAD PUSH3 0xA3 SWAP2 SWAP1 PUSH3 0x58F JUMP JUMPDEST PUSH1 0x40 MLOAD DUP1 SWAP2 SUB SWAP1 RETURN JUMPDEST PUSH1 0x0 PUSH1 0x60 PUSH1 0x1 PUSH1 0x0 DUP5 DUP2 MSTORE PUSH1 0x20 ADD SWAP1 DUP2 MSTORE PUSH1 0x20 ADD PUSH1 0x0 KECCAK256 PUSH1 0x0 SWAP1 SLOAD SWAP1 PUSH2 0x100 EXP SWAP1 DIV PUSH20 0xFFFFFFFFFFFFFFFFFFFFFFFFFFFFFFFFFFFFFFFF AND PUSH20 0xFFFFFFFFFFFFFFFFFFFFFFFFFFFFFFFFFFFFFFFF AND PUSH4 0x26002BF1 PUSH1 0x40 MLOAD DUP2 PUSH4 0xFFFFFFFF AND PUSH1 0xE0 SHL DUP2 MSTORE PUSH1 0x4 ADD PUSH1 0x0 PUSH1 0x40 MLOAD DUP1 DUP4 SUB DUP2 DUP7 DUP1 EXTCODESIZE ISZERO DUP1 ISZERO PUSH3 0x12A JUMPI PUSH1 0x0 DUP1 REVERT JUMPDEST POP GAS STATICCALL ISZERO DUP1 ISZERO PUSH3 0x13F JUMPI RETURNDATASIZE PUSH1 0x0 DUP1 RETURNDATACOPY RETURNDATASIZE PUSH1 0x0 REVERT JUMPDEST POP POP POP POP PUSH1 0x40 MLOAD RETURNDATASIZE PUSH1 0x0 DUP3 RETURNDATACOPY RETURNDATASIZE PUSH1 0x1F NOT PUSH1 0x1F DUP3 ADD AND DUP3 ADD DUP1 PUSH1 0x40 MSTORE POP DUP2 ADD SWAP1 PUSH3 0x16A SWAP2 SWAP1 PUSH3 0x49F JUMP JUMPDEST SWAP2 POP SWAP2 POP SWAP2 POP SWAP2 JUMP JUMPDEST PUSH1 0x0 DUP1 PUSH1 0x0 SWAP1 SLOAD SWAP1 PUSH2 0x100 EXP SWAP1 DIV PUSH20 0xFFFFFFFFFFFFFFFFFFFFFFFFFFFFFFFFFFFFFFFF AND PUSH20 0xFFFFFFFFFFFFFFFFFFFFFFFFFFFFFFFFFFFFFFFF AND CALLER PUSH20 0xFFFFFFFFFFFFFFFFFFFFFFFFFFFFFFFFFFFFFFFF AND EQ PUSH3 0x207 JUMPI PUSH1 0x40 MLOAD PUSH32 0x8C379A000000000000000000000000000000000000000000000000000000000 DUP2 MSTORE PUSH1 0x4 ADD PUSH3 0x1FE SWAP1 PUSH3 0x5AC JUMP JUMPDEST PUSH1 0x40 MLOAD DUP1 SWAP2 SUB SWAP1 REVERT JUMPDEST DUP3 DUP3 PUSH1 0x40 MLOAD PUSH3 0x217 SWAP1 PUSH3 0x2CF JUMP JUMPDEST PUSH3 0x224 SWAP3 SWAP2 SWAP1 PUSH3 0x5CE JUMP JUMPDEST PUSH1 0x40 MLOAD DUP1 SWAP2 SUB SWAP1 PUSH1 0x0 CREATE DUP1 ISZERO DUP1 ISZERO PUSH3 0x241 JUMPI RETURNDATASIZE PUSH1 0x0 DUP1 RETURNDATACOPY RETURNDATASIZE PUSH1 0x0 REVERT JUMPDEST POP PUSH1 0x1 PUSH1 0x0 DUP6 DUP2 MSTORE PUSH1 0x20 ADD SWAP1 DUP2 MSTORE PUSH1 0x20 ADD PUSH1 0x0 KECCAK256 PUSH1 0x0 PUSH2 0x100 EXP DUP2 SLOAD DUP2 PUSH20 0xFFFFFFFFFFFFFFFFFFFFFFFFFFFFFFFFFFFFFFFF MUL NOT AND SWAP1 DUP4 PUSH20 0xFFFFFFFFFFFFFFFFFFFFFFFFFFFFFFFFFFFFFFFF AND MUL OR SWAP1 SSTORE POP PUSH1 0x1 PUSH1 0x0 DUP5 DUP2 MSTORE PUSH1 0x20 ADD SWAP1 DUP2 MSTORE PUSH1 0x20 ADD PUSH1 0x0 KECCAK256 PUSH1 0x0 SWAP1 SLOAD SWAP1 PUSH2 0x100 EXP SWAP1 DIV PUSH20 0xFFFFFFFFFFFFFFFFFFFFFFFFFFFFFFFFFFFFFFFF AND SWAP1 POP SWAP3 SWAP2 POP POP JUMP JUMPDEST PUSH2 0x9EB DUP1 PUSH3 0x7F6 DUP4 CODECOPY ADD SWAP1 JUMP JUMPDEST PUSH1 0x0 PUSH3 0x2F4 PUSH3 0x2EE DUP5 PUSH3 0x62B JUMP JUMPDEST PUSH3 0x602 JUMP JUMPDEST SWAP1 POP DUP3 DUP2 MSTORE PUSH1 0x20 DUP2 ADD DUP5 DUP5 DUP5 ADD GT ISZERO PUSH3 0x313 JUMPI PUSH3 0x312 PUSH3 0x792 JUMP JUMPDEST JUMPDEST PUSH3 0x320 DUP5 DUP3 DUP6 PUSH3 0x6E3 JUMP JUMPDEST POP SWAP4 SWAP3 POP POP POP JUMP JUMPDEST PUSH1 0x0 PUSH3 0x33F PUSH3 0x339 DUP5 PUSH3 0x62B JUMP JUMPDEST PUSH3 0x602 JUMP JUMPDEST SWAP1 POP DUP3 DUP2 MSTORE PUSH1 0x20 DUP2 ADD DUP5 DUP5 DUP5 ADD GT ISZERO PUSH3 0x35E JUMPI PUSH3 0x35D PUSH3 0x792 JUMP JUMPDEST JUMPDEST PUSH3 0x36B DUP5 DUP3 DUP6 PUSH3 0x6F2 JUMP JUMPDEST POP SWAP4 SWAP3 POP POP POP JUMP JUMPDEST PUSH1 0x0 DUP3 PUSH1 0x1F DUP4 ADD SLT PUSH3 0x38B JUMPI PUSH3 0x38A PUSH3 0x78D JUMP JUMPDEST JUMPDEST DUP2 CALLDATALOAD PUSH3 0x39D DUP5 DUP3 PUSH1 0x20 DUP7 ADD PUSH3 0x2DD JUMP JUMPDEST SWAP2 POP POP SWAP3 SWAP2 POP POP JUMP JUMPDEST PUSH1 0x0 DUP3 PUSH1 0x1F DUP4 ADD SLT PUSH3 0x3BE JUMPI PUSH3 0x3BD PUSH3 0x78D JUMP JUMPDEST JUMPDEST DUP2 MLOAD PUSH3 0x3D0 DUP5 DUP3 PUSH1 0x20 DUP7 ADD PUSH3 0x328 JUMP JUMPDEST SWAP2 POP POP SWAP3 SWAP2 POP POP JUMP JUMPDEST PUSH1 0x0 DUP2 CALLDATALOAD SWAP1 POP PUSH3 0x3EA DUP2 PUSH3 0x7DB JUMP JUMPDEST SWAP3 SWAP2 POP POP JUMP JUMPDEST PUSH1 0x0 DUP2 MLOAD SWAP1 POP PUSH3 0x401 DUP2 PUSH3 0x7DB JUMP JUMPDEST SWAP3 SWAP2 POP POP JUMP JUMPDEST PUSH1 0x0 PUSH1 0x20 DUP3 DUP5 SUB SLT ISZERO PUSH3 0x420 JUMPI PUSH3 0x41F PUSH3 0x79C JUMP JUMPDEST JUMPDEST PUSH1 0x0 PUSH3 0x430 DUP5 DUP3 DUP6 ADD PUSH3 0x3D9 JUMP JUMPDEST SWAP2 POP POP SWAP3 SWAP2 POP POP JUMP JUMPDEST PUSH1 0x0 DUP1 PUSH1 0x40 DUP4 DUP6 SUB SLT ISZERO PUSH3 0x453 JUMPI PUSH3 0x452 PUSH3 0x79C JUMP JUMPDEST JUMPDEST PUSH1 0x0 PUSH3 0x463 DUP6 DUP3 DUP7 ADD PUSH3 0x3D9 JUMP JUMPDEST SWAP3 POP POP PUSH1 0x20 DUP4 ADD CALLDATALOAD PUSH8 0xFFFFFFFFFFFFFFFF DUP2 GT ISZERO PUSH3 0x487 JUMPI PUSH3 0x486 PUSH3 0x797 JUMP JUMPDEST JUMPDEST PUSH3 0x495 DUP6 DUP3 DUP7 ADD PUSH3 0x373 JUMP JUMPDEST SWAP2 POP POP SWAP3 POP SWAP3 SWAP1 POP JUMP JUMPDEST PUSH1 0x0 DUP1 PUSH1 0x40 DUP4 DUP6 SUB SLT ISZERO PUSH3 0x4B9 JUMPI PUSH3 0x4B8 PUSH3 0x79C JUMP JUMPDEST JUMPDEST PUSH1 0x0 PUSH3 0x4C9 DUP6 DUP3 DUP7 ADD PUSH3 0x3F0 JUMP JUMPDEST SWAP3 POP POP PUSH1 0x20 DUP4 ADD MLOAD PUSH8 0xFFFFFFFFFFFFFFFF DUP2 GT ISZERO PUSH3 0x4ED JUMPI PUSH3 0x4EC PUSH3 0x797 JUMP JUMPDEST JUMPDEST PUSH3 0x4FB DUP6 DUP3 DUP7 ADD PUSH3 0x3A6 JUMP JUMPDEST SWAP2 POP POP SWAP3 POP SWAP3 SWAP1 POP JUMP JUMPDEST PUSH3 0x510 DUP2 PUSH3 0x6A7 JUMP JUMPDEST DUP3 MSTORE POP POP JUMP JUMPDEST PUSH1 0x0 PUSH3 0x523 DUP3 PUSH3 0x661 JUMP JUMPDEST PUSH3 0x52F DUP2 DUP6 PUSH3 0x66C JUMP JUMPDEST SWAP4 POP PUSH3 0x541 DUP2 DUP6 PUSH1 0x20 DUP7 ADD PUSH3 0x6F2 JUMP JUMPDEST PUSH3 0x54C DUP2 PUSH3 0x7A1 JUMP JUMPDEST DUP5 ADD SWAP2 POP POP SWAP3 SWAP2 POP POP JUMP JUMPDEST PUSH1 0x0 PUSH3 0x566 PUSH1 0x15 DUP4 PUSH3 0x66C JUMP JUMPDEST SWAP2 POP PUSH3 0x573 DUP3 PUSH3 0x7B2 JUMP JUMPDEST PUSH1 0x20 DUP3 ADD SWAP1 POP SWAP2 SWAP1 POP JUMP JUMPDEST PUSH3 0x589 DUP2 PUSH3 0x69D JUMP JUMPDEST DUP3 MSTORE POP POP JUMP JUMPDEST PUSH1 0x0 PUSH1 0x20 DUP3 ADD SWAP1 POP PUSH3 0x5A6 PUSH1 0x0 DUP4 ADD DUP5 PUSH3 0x505 JUMP JUMPDEST SWAP3 SWAP2 POP POP JUMP JUMPDEST PUSH1 0x0 PUSH1 0x20 DUP3 ADD SWAP1 POP DUP2 DUP2 SUB PUSH1 0x0 DUP4 ADD MSTORE PUSH3 0x5C7 DUP2 PUSH3 0x557 JUMP JUMPDEST SWAP1 POP SWAP2 SWAP1 POP JUMP JUMPDEST PUSH1 0x0 PUSH1 0x40 DUP3 ADD SWAP1 POP PUSH3 0x5E5 PUSH1 0x0 DUP4 ADD DUP6 PUSH3 0x57E JUMP JUMPDEST DUP2 DUP2 SUB PUSH1 0x20 DUP4 ADD MSTORE PUSH3 0x5F9 DUP2 DUP5 PUSH3 0x516 JUMP JUMPDEST SWAP1 POP SWAP4 SWAP3 POP POP POP JUMP JUMPDEST PUSH1 0x0 PUSH3 0x60E PUSH3 0x621 JUMP JUMPDEST SWAP1 POP PUSH3 0x61C DUP3 DUP3 PUSH3 0x728 JUMP JUMPDEST SWAP2 SWAP1 POP JUMP JUMPDEST PUSH1 0x0 PUSH1 0x40 MLOAD SWAP1 POP SWAP1 JUMP JUMPDEST PUSH1 0x0 PUSH8 0xFFFFFFFFFFFFFFFF DUP3 GT ISZERO PUSH3 0x649 JUMPI PUSH3 0x648 PUSH3 0x75E JUMP JUMPDEST JUMPDEST PUSH3 0x654 DUP3 PUSH3 0x7A1 JUMP JUMPDEST SWAP1 POP PUSH1 0x20 DUP2 ADD SWAP1 POP SWAP2 SWAP1 POP JUMP JUMPDEST PUSH1 0x0 DUP2 MLOAD SWAP1 POP SWAP2 SWAP1 POP JUMP JUMPDEST PUSH1 0x0 DUP3 DUP3 MSTORE PUSH1 0x20 DUP3 ADD SWAP1 POP SWAP3 SWAP2 POP POP JUMP JUMPDEST PUSH1 0x0 PUSH20 0xFFFFFFFFFFFFFFFFFFFFFFFFFFFFFFFFFFFFFFFF DUP3 AND SWAP1 POP SWAP2 SWAP1 POP JUMP JUMPDEST PUSH1 0x0 DUP2 SWAP1 POP SWAP2 SWAP1 POP JUMP JUMPDEST PUSH1 0x0 PUSH3 0x6B4 DUP3 PUSH3 0x6BB JUMP JUMPDEST SWAP1 POP SWAP2 SWAP1 POP JUMP JUMPDEST PUSH1 0x0 PUSH3 0x6C8 DUP3 PUSH3 0x6CF JUMP JUMPDEST SWAP1 POP SWAP2 SWAP1 POP JUMP JUMPDEST PUSH1 0x0 PUSH3 0x6DC DUP3 PUSH3 0x67D JUMP JUMPDEST SWAP1 POP SWAP2 SWAP1 POP JUMP JUMPDEST DUP3 DUP2 DUP4 CALLDATACOPY PUSH1 0x0 DUP4 DUP4 ADD MSTORE POP POP POP JUMP JUMPDEST PUSH1 0x0 JUMPDEST DUP4 DUP2 LT ISZERO PUSH3 0x712 JUMPI DUP1 DUP3 ADD MLOAD DUP2 DUP5 ADD MSTORE PUSH1 0x20 DUP2 ADD SWAP1 POP PUSH3 0x6F5 JUMP JUMPDEST DUP4 DUP2 GT ISZERO PUSH3 0x722 JUMPI PUSH1 0x0 DUP5 DUP5 ADD MSTORE JUMPDEST POP POP POP POP JUMP JUMPDEST PUSH3 0x733 DUP3 PUSH3 0x7A1 JUMP JUMPDEST DUP2 ADD DUP2 DUP2 LT PUSH8 0xFFFFFFFFFFFFFFFF DUP3 GT OR ISZERO PUSH3 0x755 JUMPI PUSH3 0x754 PUSH3 0x75E JUMP JUMPDEST JUMPDEST DUP1 PUSH1 0x40 MSTORE POP POP POP JUMP JUMPDEST PUSH32 0x4E487B7100000000000000000000000000000000000000000000000000000000 PUSH1 0x0 MSTORE PUSH1 0x41 PUSH1 0x4 MSTORE PUSH1 0x24 PUSH1 0x0 REVERT JUMPDEST PUSH1 0x0 DUP1 REVERT JUMPDEST PUSH1 0x0 DUP1 REVERT JUMPDEST PUSH1 0x0 DUP1 REVERT JUMPDEST PUSH1 0x0 DUP1 REVERT JUMPDEST PUSH1 0x0 PUSH1 0x1F NOT PUSH1 0x1F DUP4 ADD AND SWAP1 POP SWAP2 SWAP1 POP JUMP JUMPDEST PUSH32 0x63616C6C6572206973206E6F74204D616E616765720000000000000000000000 PUSH1 0x0 DUP3 ADD MSTORE POP JUMP JUMPDEST PUSH3 0x7E6 DUP2 PUSH3 0x69D JUMP JUMPDEST DUP2 EQ PUSH3 0x7F2 JUMPI PUSH1 0x0 DUP1 REVERT JUMPDEST POP JUMP INVALID PUSH1 0x80 PUSH1 0x40 MSTORE CALLVALUE DUP1 ISZERO PUSH3 0x11 JUMPI PUSH1 0x0 DUP1 REVERT JUMPDEST POP PUSH1 0x40 MLOAD PUSH3 0x9EB CODESIZE SUB DUP1 PUSH3 0x9EB DUP4 CODECOPY DUP2 DUP2 ADD PUSH1 0x40 MSTORE DUP2 ADD SWAP1 PUSH3 0x37 SWAP2 SWAP1 PUSH3 0x207 JUMP JUMPDEST DUP2 PUSH1 0x1 DUP2 SWAP1 SSTORE POP DUP1 PUSH1 0x2 SWAP1 DUP1 MLOAD SWAP1 PUSH1 0x20 ADD SWAP1 PUSH3 0x56 SWAP3 SWAP2 SWAP1 PUSH3 0xC2 JUMP JUMPDEST POP PUSH1 0x0 CALLER SWAP1 DUP1 PUSH1 0x1 DUP2 SLOAD ADD DUP1 DUP3 SSTORE DUP1 SWAP2 POP POP PUSH1 0x1 SWAP1 SUB SWAP1 PUSH1 0x0 MSTORE PUSH1 0x20 PUSH1 0x0 KECCAK256 ADD PUSH1 0x0 SWAP1 SWAP2 SWAP1 SWAP2 SWAP1 SWAP2 PUSH2 0x100 EXP DUP2 SLOAD DUP2 PUSH20 0xFFFFFFFFFFFFFFFFFFFFFFFFFFFFFFFFFFFFFFFF MUL NOT AND SWAP1 DUP4 PUSH20 0xFFFFFFFFFFFFFFFFFFFFFFFFFFFFFFFFFFFFFFFF AND MUL OR SWAP1 SSTORE POP POP POP PUSH3 0x415 JUMP JUMPDEST DUP3 DUP1 SLOAD PUSH3 0xD0 SWAP1 PUSH3 0x30C JUMP JUMPDEST SWAP1 PUSH1 0x0 MSTORE PUSH1 0x20 PUSH1 0x0 KECCAK256 SWAP1 PUSH1 0x1F ADD PUSH1 0x20 SWAP1 DIV DUP2 ADD SWAP3 DUP3 PUSH3 0xF4 JUMPI PUSH1 0x0 DUP6 SSTORE PUSH3 0x140 JUMP JUMPDEST DUP3 PUSH1 0x1F LT PUSH3 0x10F JUMPI DUP1 MLOAD PUSH1 0xFF NOT AND DUP4 DUP1 ADD OR DUP6 SSTORE PUSH3 0x140 JUMP JUMPDEST DUP3 DUP1 ADD PUSH1 0x1 ADD DUP6 SSTORE DUP3 ISZERO PUSH3 0x140 JUMPI SWAP2 DUP3 ADD JUMPDEST DUP3 DUP2 GT ISZERO PUSH3 0x13F JUMPI DUP3 MLOAD DUP3 SSTORE SWAP2 PUSH1 0x20 ADD SWAP2 SWAP1 PUSH1 0x1 ADD SWAP1 PUSH3 0x122 JUMP JUMPDEST JUMPDEST POP SWAP1 POP PUSH3 0x14F SWAP2 SWAP1 PUSH3 0x153 JUMP JUMPDEST POP SWAP1 JUMP JUMPDEST JUMPDEST DUP1 DUP3 GT ISZERO PUSH3 0x16E JUMPI PUSH1 0x0 DUP2 PUSH1 0x0 SWAP1 SSTORE POP PUSH1 0x1 ADD PUSH3 0x154 JUMP JUMPDEST POP SWAP1 JUMP JUMPDEST PUSH1 0x0 PUSH3 0x189 PUSH3 0x183 DUP5 PUSH3 0x296 JUMP JUMPDEST PUSH3 0x26D JUMP JUMPDEST SWAP1 POP DUP3 DUP2 MSTORE PUSH1 0x20 DUP2 ADD DUP5 DUP5 DUP5 ADD GT ISZERO PUSH3 0x1A8 JUMPI PUSH3 0x1A7 PUSH3 0x3DB JUMP JUMPDEST JUMPDEST PUSH3 0x1B5 DUP5 DUP3 DUP6 PUSH3 0x2D6 JUMP JUMPDEST POP SWAP4 SWAP3 POP POP POP JUMP JUMPDEST PUSH1 0x0 DUP3 PUSH1 0x1F DUP4 ADD SLT PUSH3 0x1D5 JUMPI PUSH3 0x1D4 PUSH3 0x3D6 JUMP JUMPDEST JUMPDEST DUP2 MLOAD PUSH3 0x1E7 DUP5 DUP3 PUSH1 0x20 DUP7 ADD PUSH3 0x172 JUMP JUMPDEST SWAP2 POP POP SWAP3 SWAP2 POP POP JUMP JUMPDEST PUSH1 0x0 DUP2 MLOAD SWAP1 POP PUSH3 0x201 DUP2 PUSH3 0x3FB JUMP JUMPDEST SWAP3 SWAP2 POP POP JUMP JUMPDEST PUSH1 0x0 DUP1 PUSH1 0x40 DUP4 DUP6 SUB SLT ISZERO PUSH3 0x221 JUMPI PUSH3 0x220 PUSH3 0x3E5 JUMP JUMPDEST JUMPDEST PUSH1 0x0 PUSH3 0x231 DUP6 DUP3 DUP7 ADD PUSH3 0x1F0 JUMP JUMPDEST SWAP3 POP POP PUSH1 0x20 DUP4 ADD MLOAD PUSH8 0xFFFFFFFFFFFFFFFF DUP2 GT ISZERO PUSH3 0x255 JUMPI PUSH3 0x254 PUSH3 0x3E0 JUMP JUMPDEST JUMPDEST PUSH3 0x263 DUP6 DUP3 DUP7 ADD PUSH3 0x1BD JUMP JUMPDEST SWAP2 POP POP SWAP3 POP SWAP3 SWAP1 POP JUMP JUMPDEST PUSH1 0x0 PUSH3 0x279 PUSH3 0x28C JUMP JUMPDEST SWAP1 POP PUSH3 0x287 DUP3 DUP3 PUSH3 0x342 JUMP JUMPDEST SWAP2 SWAP1 POP JUMP JUMPDEST PUSH1 0x0 PUSH1 0x40 MLOAD SWAP1 POP SWAP1 JUMP JUMPDEST PUSH1 0x0 PUSH8 0xFFFFFFFFFFFFFFFF DUP3 GT ISZERO PUSH3 0x2B4 JUMPI PUSH3 0x2B3 PUSH3 0x3A7 JUMP JUMPDEST JUMPDEST PUSH3 0x2BF DUP3 PUSH3 0x3EA JUMP JUMPDEST SWAP1 POP PUSH1 0x20 DUP2 ADD SWAP1 POP SWAP2 SWAP1 POP JUMP JUMPDEST PUSH1 0x0 DUP2 SWAP1 POP SWAP2 SWAP1 POP JUMP JUMPDEST PUSH1 0x0 JUMPDEST DUP4 DUP2 LT ISZERO PUSH3 0x2F6 JUMPI DUP1 DUP3 ADD MLOAD DUP2 DUP5 ADD MSTORE PUSH1 0x20 DUP2 ADD SWAP1 POP PUSH3 0x2D9 JUMP JUMPDEST DUP4 DUP2 GT ISZERO PUSH3 0x306 JUMPI PUSH1 0x0 DUP5 DUP5 ADD MSTORE JUMPDEST POP POP POP POP JUMP JUMPDEST PUSH1 0x0 PUSH1 0x2 DUP3 DIV SWAP1 POP PUSH1 0x1 DUP3 AND DUP1 PUSH3 0x325 JUMPI PUSH1 0x7F DUP3 AND SWAP2 POP JUMPDEST PUSH1 0x20 DUP3 LT DUP2 EQ ISZERO PUSH3 0x33C JUMPI PUSH3 0x33B PUSH3 0x378 JUMP JUMPDEST JUMPDEST POP SWAP2 SWAP1 POP JUMP JUMPDEST PUSH3 0x34D DUP3 PUSH3 0x3EA JUMP JUMPDEST DUP2 ADD DUP2 DUP2 LT PUSH8 0xFFFFFFFFFFFFFFFF DUP3 GT OR ISZERO PUSH3 0x36F JUMPI PUSH3 0x36E PUSH3 0x3A7 JUMP JUMPDEST JUMPDEST DUP1 PUSH1 0x40 MSTORE POP POP POP JUMP JUMPDEST PUSH32 0x4E487B7100000000000000000000000000000000000000000000000000000000 PUSH1 0x0 MSTORE PUSH1 0x22 PUSH1 0x4 MSTORE PUSH1 0x24 PUSH1 0x0 REVERT JUMPDEST PUSH32 0x4E487B7100000000000000000000000000000000000000000000000000000000 PUSH1 0x0 MSTORE PUSH1 0x41 PUSH1 0x4 MSTORE PUSH1 0x24 PUSH1 0x0 REVERT JUMPDEST PUSH1 0x0 DUP1 REVERT JUMPDEST PUSH1 0x0 DUP1 REVERT JUMPDEST PUSH1 0x0 DUP1 REVERT JUMPDEST PUSH1 0x0 DUP1 REVERT JUMPDEST PUSH1 0x0 PUSH1 0x1F NOT PUSH1 0x1F DUP4 ADD AND SWAP1 POP SWAP2 SWAP1 POP JUMP JUMPDEST PUSH3 0x406 DUP2 PUSH3 0x2CC JUMP JUMPDEST DUP2 EQ PUSH3 0x412 JUMPI PUSH1 0x0 DUP1 REVERT JUMPDEST POP JUMP JUMPDEST PUSH2 0x5C6 DUP1 PUSH3 0x425 PUSH1 0x0 CODECOPY PUSH1 0x0 RETURN INVALID PUSH1 0x80 PUSH1 0x40 MSTORE CALLVALUE DUP1 ISZERO PUSH2 0x10 JUMPI PUSH1 0x0 DUP1 REVERT JUMPDEST POP PUSH1 0x4 CALLDATASIZE LT PUSH2 0x41 JUMPI PUSH1 0x0 CALLDATALOAD PUSH1 0xE0 SHR DUP1 PUSH4 0x26002BF1 EQ PUSH2 0x46 JUMPI DUP1 PUSH4 0xA434261F EQ PUSH2 0x65 JUMPI DUP1 PUSH4 0xBB4F860D EQ PUSH2 0x81 JUMPI JUMPDEST PUSH1 0x0 DUP1 REVERT JUMPDEST PUSH2 0x4E PUSH2 0xB1 JUMP JUMPDEST PUSH1 0x40 MLOAD PUSH2 0x5C SWAP3 SWAP2 SWAP1 PUSH2 0x430 JUMP JUMPDEST PUSH1 0x40 MLOAD DUP1 SWAP2 SUB SWAP1 RETURN JUMPDEST PUSH2 0x7F PUSH1 0x4 DUP1 CALLDATASIZE SUB DUP2 ADD SWAP1 PUSH2 0x7A SWAP2 SWAP1 PUSH2 0x31A JUMP JUMPDEST PUSH2 0x14E JUMP JUMPDEST STOP JUMPDEST PUSH2 0x9B PUSH1 0x4 DUP1 CALLDATASIZE SUB DUP2 ADD SWAP1 PUSH2 0x96 SWAP2 SWAP1 PUSH2 0x2ED JUMP JUMPDEST PUSH2 0x1F5 JUMP JUMPDEST PUSH1 0x40 MLOAD PUSH2 0xA8 SWAP2 SWAP1 PUSH2 0x415 JUMP JUMPDEST PUSH1 0x40 MLOAD DUP1 SWAP2 SUB SWAP1 RETURN JUMPDEST PUSH1 0x0 PUSH1 0x60 PUSH1 0x1 SLOAD PUSH1 0x2 DUP1 DUP1 SLOAD PUSH2 0xC6 SWAP1 PUSH2 0x4EB JUMP JUMPDEST DUP1 PUSH1 0x1F ADD PUSH1 0x20 DUP1 SWAP2 DIV MUL PUSH1 0x20 ADD PUSH1 0x40 MLOAD SWAP1 DUP2 ADD PUSH1 0x40 MSTORE DUP1 SWAP3 SWAP2 SWAP1 DUP2 DUP2 MSTORE PUSH1 0x20 ADD DUP3 DUP1 SLOAD PUSH2 0xF2 SWAP1 PUSH2 0x4EB JUMP JUMPDEST DUP1 ISZERO PUSH2 0x13F JUMPI DUP1 PUSH1 0x1F LT PUSH2 0x114 JUMPI PUSH2 0x100 DUP1 DUP4 SLOAD DIV MUL DUP4 MSTORE SWAP2 PUSH1 0x20 ADD SWAP2 PUSH2 0x13F JUMP JUMPDEST DUP3 ADD SWAP2 SWAP1 PUSH1 0x0 MSTORE PUSH1 0x20 PUSH1 0x0 KECCAK256 SWAP1 JUMPDEST DUP2 SLOAD DUP2 MSTORE SWAP1 PUSH1 0x1 ADD SWAP1 PUSH1 0x20 ADD DUP1 DUP4 GT PUSH2 0x122 JUMPI DUP3 SWAP1 SUB PUSH1 0x1F AND DUP3 ADD SWAP2 JUMPDEST POP POP POP POP POP SWAP1 POP SWAP2 POP SWAP2 POP SWAP1 SWAP2 JUMP JUMPDEST PUSH1 0x40 MLOAD DUP1 PUSH1 0x60 ADD PUSH1 0x40 MSTORE DUP1 DUP5 DUP2 MSTORE PUSH1 0x20 ADD DUP4 DUP2 MSTORE PUSH1 0x20 ADD DUP3 PUSH20 0xFFFFFFFFFFFFFFFFFFFFFFFFFFFFFFFFFFFFFFFF AND DUP2 MSTORE POP PUSH1 0x3 PUSH1 0x0 DUP6 DUP2 MSTORE PUSH1 0x20 ADD SWAP1 DUP2 MSTORE PUSH1 0x20 ADD PUSH1 0x0 KECCAK256 PUSH1 0x0 DUP3 ADD MLOAD DUP2 PUSH1 0x0 ADD SSTORE PUSH1 0x20 DUP3 ADD MLOAD DUP2 PUSH1 0x1 ADD SSTORE PUSH1 0x40 DUP3 ADD MLOAD DUP2 PUSH1 0x2 ADD PUSH1 0x0 PUSH2 0x100 EXP DUP2 SLOAD DUP2 PUSH20 0xFFFFFFFFFFFFFFFFFFFFFFFFFFFFFFFFFFFFFFFF MUL NOT AND SWAP1 DUP4 PUSH20 0xFFFFFFFFFFFFFFFFFFFFFFFFFFFFFFFFFFFFFFFF AND MUL OR SWAP1 SSTORE POP SWAP1 POP POP POP POP POP JUMP JUMPDEST PUSH2 0x1FD PUSH2 0x28C JUMP JUMPDEST PUSH1 0x3 PUSH1 0x0 DUP4 DUP2 MSTORE PUSH1 0x20 ADD SWAP1 DUP2 MSTORE PUSH1 0x20 ADD PUSH1 0x0 KECCAK256 PUSH1 0x40 MLOAD DUP1 PUSH1 0x60 ADD PUSH1 0x40 MSTORE SWAP1 DUP2 PUSH1 0x0 DUP3 ADD SLOAD DUP2 MSTORE PUSH1 0x20 ADD PUSH1 0x1 DUP3 ADD SLOAD DUP2 MSTORE PUSH1 0x20 ADD PUSH1 0x2 DUP3 ADD PUSH1 0x0 SWAP1 SLOAD SWAP1 PUSH2 0x100 EXP SWAP1 DIV PUSH20 0xFFFFFFFFFFFFFFFFFFFFFFFFFFFFFFFFFFFFFFFF AND PUSH20 0xFFFFFFFFFFFFFFFFFFFFFFFFFFFFFFFFFFFFFFFF AND PUSH20 0xFFFFFFFFFFFFFFFFFFFFFFFFFFFFFFFFFFFFFFFF AND DUP2 MSTORE POP POP SWAP1 POP SWAP2 SWAP1 POP JUMP JUMPDEST PUSH1 0x40 MLOAD DUP1 PUSH1 0x60 ADD PUSH1 0x40 MSTORE DUP1 PUSH1 0x0 DUP2 MSTORE PUSH1 0x20 ADD PUSH1 0x0 DUP2 MSTORE PUSH1 0x20 ADD PUSH1 0x0 PUSH20 0xFFFFFFFFFFFFFFFFFFFFFFFFFFFFFFFFFFFFFFFF AND DUP2 MSTORE POP SWAP1 JUMP JUMPDEST PUSH1 0x0 DUP2 CALLDATALOAD SWAP1 POP PUSH2 0x2D2 DUP2 PUSH2 0x562 JUMP JUMPDEST SWAP3 SWAP2 POP POP JUMP JUMPDEST PUSH1 0x0 DUP2 CALLDATALOAD SWAP1 POP PUSH2 0x2E7 DUP2 PUSH2 0x579 JUMP JUMPDEST SWAP3 SWAP2 POP POP JUMP JUMPDEST PUSH1 0x0 PUSH1 0x20 DUP3 DUP5 SUB SLT ISZERO PUSH2 0x303 JUMPI PUSH2 0x302 PUSH2 0x54C JUMP JUMPDEST JUMPDEST PUSH1 0x0 PUSH2 0x311 DUP5 DUP3 DUP6 ADD PUSH2 0x2D8 JUMP JUMPDEST SWAP2 POP POP SWAP3 SWAP2 POP POP JUMP JUMPDEST PUSH1 0x0 DUP1 PUSH1 0x0 PUSH1 0x60 DUP5 DUP7 SUB SLT ISZERO PUSH2 0x333 JUMPI PUSH2 0x332 PUSH2 0x54C JUMP JUMPDEST JUMPDEST PUSH1 0x0 PUSH2 0x341 DUP7 DUP3 DUP8 ADD PUSH2 0x2D8 JUMP JUMPDEST SWAP4 POP POP PUSH1 0x20 PUSH2 0x352 DUP7 DUP3 DUP8 ADD PUSH2 0x2D8 JUMP JUMPDEST SWAP3 POP POP PUSH1 0x40 PUSH2 0x363 DUP7 DUP3 DUP8 ADD PUSH2 0x2C3 JUMP JUMPDEST SWAP2 POP POP SWAP3 POP SWAP3 POP SWAP3 JUMP JUMPDEST PUSH2 0x376 DUP2 PUSH2 0x47C JUMP JUMPDEST DUP3 MSTORE POP POP JUMP JUMPDEST PUSH1 0x0 PUSH2 0x387 DUP3 PUSH2 0x460 JUMP JUMPDEST PUSH2 0x391 DUP2 DUP6 PUSH2 0x46B JUMP JUMPDEST SWAP4 POP PUSH2 0x3A1 DUP2 DUP6 PUSH1 0x20 DUP7 ADD PUSH2 0x4B8 JUMP JUMPDEST PUSH2 0x3AA DUP2 PUSH2 0x551 JUMP JUMPDEST DUP5 ADD SWAP2 POP POP SWAP3 SWAP2 POP POP JUMP JUMPDEST PUSH1 0x60 DUP3 ADD PUSH1 0x0 DUP3 ADD MLOAD PUSH2 0x3CB PUSH1 0x0 DUP6 ADD DUP3 PUSH2 0x3F7 JUMP JUMPDEST POP PUSH1 0x20 DUP3 ADD MLOAD PUSH2 0x3DE PUSH1 0x20 DUP6 ADD DUP3 PUSH2 0x3F7 JUMP JUMPDEST POP PUSH1 0x40 DUP3 ADD MLOAD PUSH2 0x3F1 PUSH1 0x40 DUP6 ADD DUP3 PUSH2 0x36D JUMP JUMPDEST POP POP POP POP JUMP JUMPDEST PUSH2 0x400 DUP2 PUSH2 0x4AE JUMP JUMPDEST DUP3 MSTORE POP POP JUMP JUMPDEST PUSH2 0x40F DUP2 PUSH2 0x4AE JUMP JUMPDEST DUP3 MSTORE POP POP JUMP JUMPDEST PUSH1 0x0 PUSH1 0x60 DUP3 ADD SWAP1 POP PUSH2 0x42A PUSH1 0x0 DUP4 ADD DUP5 PUSH2 0x3B5 JUMP JUMPDEST SWAP3 SWAP2 POP POP JUMP JUMPDEST PUSH1 0x0 PUSH1 0x40 DUP3 ADD SWAP1 POP PUSH2 0x445 PUSH1 0x0 DUP4 ADD DUP6 PUSH2 0x406 JUMP JUMPDEST DUP2 DUP2 SUB PUSH1 0x20 DUP4 ADD MSTORE PUSH2 0x457 DUP2 DUP5 PUSH2 0x37C JUMP JUMPDEST SWAP1 POP SWAP4 SWAP3 POP POP POP JUMP JUMPDEST PUSH1 0x0 DUP2 MLOAD SWAP1 POP SWAP2 SWAP1 POP JUMP JUMPDEST PUSH1 0x0 DUP3 DUP3 MSTORE PUSH1 0x20 DUP3 ADD SWAP1 POP SWAP3 SWAP2 POP POP JUMP JUMPDEST PUSH1 0x0 PUSH2 0x487 DUP3 PUSH2 0x48E JUMP JUMPDEST SWAP1 POP SWAP2 SWAP1 POP JUMP JUMPDEST PUSH1 0x0 PUSH20 0xFFFFFFFFFFFFFFFFFFFFFFFFFFFFFFFFFFFFFFFF DUP3 AND SWAP1 POP SWAP2 SWAP1 POP JUMP JUMPDEST PUSH1 0x0 DUP2 SWAP1 POP SWAP2 SWAP1 POP JUMP JUMPDEST PUSH1 0x0 JUMPDEST DUP4 DUP2 LT ISZERO PUSH2 0x4D6 JUMPI DUP1 DUP3 ADD MLOAD DUP2 DUP5 ADD MSTORE PUSH1 0x20 DUP2 ADD SWAP1 POP PUSH2 0x4BB JUMP JUMPDEST DUP4 DUP2 GT ISZERO PUSH2 0x4E5 JUMPI PUSH1 0x0 DUP5 DUP5 ADD MSTORE JUMPDEST POP POP POP POP JUMP JUMPDEST PUSH1 0x0 PUSH1 0x2 DUP3 DIV SWAP1 POP PUSH1 0x1 DUP3 AND DUP1 PUSH2 0x503 JUMPI PUSH1 0x7F DUP3 AND SWAP2 POP JUMPDEST PUSH1 0x20 DUP3 LT DUP2 EQ ISZERO PUSH2 0x517 JUMPI PUSH2 0x516 PUSH2 0x51D JUMP JUMPDEST JUMPDEST POP SWAP2 SWAP1 POP JUMP JUMPDEST PUSH32 0x4E487B7100000000000000000000000000000000000000000000000000000000 PUSH1 0x0 MSTORE PUSH1 0x22 PUSH1 0x4 MSTORE PUSH1 0x24 PUSH1 0x0 REVERT JUMPDEST PUSH1 0x0 DUP1 REVERT JUMPDEST PUSH1 0x0 PUSH1 0x1F NOT PUSH1 0x1F DUP4 ADD AND SWAP1 POP SWAP2 SWAP1 POP JUMP JUMPDEST PUSH2 0x56B DUP2 PUSH2 0x47C JUMP JUMPDEST DUP2 EQ PUSH2 0x576 JUMPI PUSH1 0x0 DUP1 REVERT JUMPDEST POP JUMP JUMPDEST PUSH2 0x582 DUP2 PUSH2 0x4AE JUMP JUMPDEST DUP2 EQ PUSH2 0x58D JUMPI PUSH1 0x0 DUP1 REVERT JUMPDEST POP JUMP INVALID LOG2 PUSH5 0x6970667358 0x22 SLT KECCAK256 DUP16 0xBA CALL 0xC2 MULMOD RETURN PUSH8 0xC27AFC91917FDF5C 0xDB EXTCODESIZE 0xE9 0xD5 0xE4 0xCF ORIGIN 0xBC PUSH32 0x3A4F12F5CBF8955464736F6C63430008070033A2646970667358221220870560 0xC5 SELFBALANCE PUSH19 0x8620C5085D4FD39002D26FC3D12263D9983ED3 XOR 0xD5 0xFC 0x4A SWAP9 0x23 SHL PUSH5 0x736F6C6343 STOP ADDMOD SMOD STOP CALLER "
				},
				"gasEstimates": {
					"creation": {
						"codeDepositCost": "926000",
						"executionCost": "25228",
						"totalCost": "951228"
					},
					"external": {
						"addBus(uint256,string)": "infinite",
						"getBusInformation(uint256)": "infinite"
					}
				},
				"methodIdentifiers": {
					"addBus(uint256,string)": "fbcc6cb5",
					"getBusInformation(uint256)": "9221aa1a"
				}
			},
			"storageLayout": {
				"storage": [
					{
						"astId": 98,
						"contract": "contracts/main.sol:smartReservation",
						"label": "manager",
						"offset": 0,
						"slot": "0",
						"type": "t_address"
					},
					{
						"astId": 103,
						"contract": "contracts/main.sol:smartReservation",
						"label": "bus",
						"offset": 0,
						"slot": "1",
						"type": "t_mapping(t_uint256,t_contract(Bus)91)"
					}
				],
				"types": {
					"t_address": {
						"encoding": "inplace",
						"label": "address",
						"numberOfBytes": "20"
					},
					"t_contract(Bus)91": {
						"encoding": "inplace",
						"label": "contract Bus",
						"numberOfBytes": "20"
					},
					"t_mapping(t_uint256,t_contract(Bus)91)": {
						"encoding": "mapping",
						"key": "t_uint256",
						"label": "mapping(uint256 => contract Bus)",
						"numberOfBytes": "32",
						"value": "t_contract(Bus)91"
					},
					"t_uint256": {
						"encoding": "inplace",
						"label": "uint256",
						"numberOfBytes": "32"
					}
				}
			},
			"userdoc": {
				"kind": "user",
				"methods": {},
				"version": 1
			}
		}
	}
}