{
	"contracts/student.sol": {
		"Student": {
			"abi": [
				{
					"inputs": [],
					"stateMutability": "nonpayable",
					"type": "constructor"
				},
				{
					"inputs": [
						{
							"internalType": "uint256",
							"name": "id",
							"type": "uint256"
						},
						{
							"internalType": "string",
							"name": "name",
							"type": "string"
						}
					],
					"name": "addStudentInfo",
					"outputs": [],
					"stateMutability": "nonpayable",
					"type": "function"
				},
				{
					"inputs": [],
					"name": "getStudentInfo",
					"outputs": [
						{
							"internalType": "uint256",
							"name": "",
							"type": "uint256"
						},
						{
							"internalType": "string",
							"name": "",
							"type": "string"
						},
						{
							"internalType": "address",
							"name": "",
							"type": "address"
						}
					],
					"stateMutability": "view",
					"type": "function"
				}
			],
			"devdoc": {
				"kind": "dev",
				"methods": {},
				"version": 1
			},
			"evm": {
				"assembly": "    /* \"contracts/student.sol\":97:939  contract Student{... */\n  mstore(0x40, 0x80)\n    /* \"contracts/student.sol\":264:291  information(0,\"null\",owner) */\n  mload(0x40)\n  dup1\n  0x60\n  add\n  0x40\n  mstore\n  dup1\n    /* \"contracts/student.sol\":276:277  0 */\n  0x00\n    /* \"contracts/student.sol\":264:291  information(0,\"null\",owner) */\n  dup2\n  mstore\n  0x20\n  add\n  mload(0x40)\n  dup1\n  0x40\n  add\n  0x40\n  mstore\n  dup1\n  0x04\n  dup2\n  mstore\n  0x20\n  add\n  0x6e756c6c00000000000000000000000000000000000000000000000000000000\n  dup2\n  mstore\n  pop\n  dup2\n  mstore\n  0x20\n  add\n    /* \"contracts/student.sol\":285:290  owner */\n  0x03\n  0x00\n  swap1\n  sload\n  swap1\n  0x0100\n  exp\n  swap1\n  div\n  0xffffffffffffffffffffffffffffffffffffffff\n  and\n    /* \"contracts/student.sol\":264:291  information(0,\"null\",owner) */\n  0xffffffffffffffffffffffffffffffffffffffff\n  and\n  dup2\n  mstore\n  pop\n    /* \"contracts/student.sol\":238:291  information studentInfo = information(0,\"null\",owner) */\n  0x00\n  dup1\n  dup3\n  add\n  mload\n  dup2\n  0x00\n  add\n  sstore\n  0x20\n  dup3\n  add\n  mload\n  dup2\n  0x01\n  add\n  swap1\n  dup1\n  mload\n  swap1\n  0x20\n  add\n  swap1\n  tag_1\n  swap3\n  swap2\n  swap1\n  tag_2\n  jump\t// in\ntag_1:\n  pop\n  0x40\n  dup3\n  add\n  mload\n  dup2\n  0x02\n  add\n  exp(0x0100, 0x00)\n  dup2\n  sload\n  dup2\n  0xffffffffffffffffffffffffffffffffffffffff\n  mul\n  not\n  and\n  swap1\n  dup4\n  0xffffffffffffffffffffffffffffffffffffffff\n  and\n  mul\n  or\n  swap1\n  sstore\n  pop\n  pop\n  pop\n    /* \"contracts/student.sol\":325:373  constructor(){... */\n  callvalue\n  dup1\n  iszero\n  tag_3\n  jumpi\n  0x00\n  dup1\n  revert\ntag_3:\n  pop\n    /* \"contracts/student.sol\":356:366  msg.sender */\n  caller\n    /* \"contracts/student.sol\":348:353  owner */\n  0x03\n  0x00\n    /* \"contracts/student.sol\":348:366  owner = msg.sender */\n  0x0100\n  exp\n  dup2\n  sload\n  dup2\n  0xffffffffffffffffffffffffffffffffffffffff\n  mul\n  not\n  and\n  swap1\n  dup4\n  0xffffffffffffffffffffffffffffffffffffffff\n  and\n  mul\n  or\n  swap1\n  sstore\n  pop\n    /* \"contracts/student.sol\":97:939  contract Student{... */\n  jump(tag_6)\ntag_2:\n  dup3\n  dup1\n  sload\n  tag_7\n  swap1\n  tag_8\n  jump\t// in\ntag_7:\n  swap1\n  0x00\n  mstore\n  keccak256(0x00, 0x20)\n  swap1\n  0x1f\n  add\n  0x20\n  swap1\n  div\n  dup2\n  add\n  swap3\n  dup3\n  tag_10\n  jumpi\n  0x00\n  dup6\n  sstore\n  jump(tag_9)\ntag_10:\n  dup3\n  0x1f\n  lt\n  tag_11\n  jumpi\n  dup1\n  mload\n  not(0xff)\n  and\n  dup4\n  dup1\n  add\n  or\n  dup6\n  sstore\n  jump(tag_9)\ntag_11:\n  dup3\n  dup1\n  add\n  0x01\n  add\n  dup6\n  sstore\n  dup3\n  iszero\n  tag_9\n  jumpi\n  swap2\n  dup3\n  add\ntag_12:\n  dup3\n  dup2\n  gt\n  iszero\n  tag_13\n  jumpi\n  dup3\n  mload\n  dup3\n  sstore\n  swap2\n  0x20\n  add\n  swap2\n  swap1\n  0x01\n  add\n  swap1\n  jump(tag_12)\ntag_13:\ntag_9:\n  pop\n  swap1\n  pop\n  tag_14\n  swap2\n  swap1\n  tag_15\n  jump\t// in\ntag_14:\n  pop\n  swap1\n  jump\t// out\ntag_15:\ntag_16:\n  dup1\n  dup3\n  gt\n  iszero\n  tag_17\n  jumpi\n  0x00\n  dup2\n  0x00\n  swap1\n  sstore\n  pop\n  0x01\n  add\n  jump(tag_16)\ntag_17:\n  pop\n  swap1\n  jump\t// out\n    /* \"#utility.yul\":7:327   */\ntag_8:\n    /* \"#utility.yul\":51:57   */\n  0x00\n    /* \"#utility.yul\":88:89   */\n  0x02\n    /* \"#utility.yul\":82:86   */\n  dup3\n    /* \"#utility.yul\":78:90   */\n  div\n    /* \"#utility.yul\":68:90   */\n  swap1\n  pop\n    /* \"#utility.yul\":135:136   */\n  0x01\n    /* \"#utility.yul\":129:133   */\n  dup3\n    /* \"#utility.yul\":125:137   */\n  and\n    /* \"#utility.yul\":156:174   */\n  dup1\n    /* \"#utility.yul\":146:227   */\n  tag_20\n  jumpi\n    /* \"#utility.yul\":212:216   */\n  0x7f\n    /* \"#utility.yul\":204:210   */\n  dup3\n    /* \"#utility.yul\":200:217   */\n  and\n    /* \"#utility.yul\":190:217   */\n  swap2\n  pop\n    /* \"#utility.yul\":146:227   */\ntag_20:\n    /* \"#utility.yul\":274:276   */\n  0x20\n    /* \"#utility.yul\":266:272   */\n  dup3\n    /* \"#utility.yul\":263:277   */\n  lt\n    /* \"#utility.yul\":243:261   */\n  dup2\n    /* \"#utility.yul\":240:278   */\n  eq\n    /* \"#utility.yul\":237:321   */\n  iszero\n  tag_21\n  jumpi\n    /* \"#utility.yul\":293:311   */\n  tag_22\n  tag_23\n  jump\t// in\ntag_22:\n    /* \"#utility.yul\":237:321   */\ntag_21:\n    /* \"#utility.yul\":58:327   */\n  pop\n    /* \"#utility.yul\":7:327   */\n  swap2\n  swap1\n  pop\n  jump\t// out\n    /* \"#utility.yul\":333:513   */\ntag_23:\n    /* \"#utility.yul\":381:458   */\n  0x4e487b7100000000000000000000000000000000000000000000000000000000\n    /* \"#utility.yul\":378:379   */\n  0x00\n    /* \"#utility.yul\":371:459   */\n  mstore\n    /* \"#utility.yul\":478:482   */\n  0x22\n    /* \"#utility.yul\":475:476   */\n  0x04\n    /* \"#utility.yul\":468:483   */\n  mstore\n    /* \"#utility.yul\":502:506   */\n  0x24\n    /* \"#utility.yul\":499:500   */\n  0x00\n    /* \"#utility.yul\":492:507   */\n  revert\n    /* \"contracts/student.sol\":97:939  contract Student{... */\ntag_6:\n  dataSize(sub_0)\n  dup1\n  dataOffset(sub_0)\n  0x00\n  codecopy\n  0x00\n  return\nstop\n\nsub_0: assembly {\n        /* \"contracts/student.sol\":97:939  contract Student{... */\n      mstore(0x40, 0x80)\n      callvalue\n      dup1\n      iszero\n      tag_1\n      jumpi\n      0x00\n      dup1\n      revert\n    tag_1:\n      pop\n      jumpi(tag_2, lt(calldatasize, 0x04))\n      shr(0xe0, calldataload(0x00))\n      dup1\n      0xa1e68c52\n      eq\n      tag_3\n      jumpi\n      dup1\n      0xbd657a85\n      eq\n      tag_4\n      jumpi\n    tag_2:\n      0x00\n      dup1\n      revert\n        /* \"contracts/student.sol\":626:904  function getStudentInfo() public view returns(uint,string memory,address){... */\n    tag_3:\n      tag_5\n      tag_6\n      jump\t// in\n    tag_5:\n      mload(0x40)\n      tag_7\n      swap4\n      swap3\n      swap2\n      swap1\n      tag_8\n      jump\t// in\n    tag_7:\n      mload(0x40)\n      dup1\n      swap2\n      sub\n      swap1\n      return\n        /* \"contracts/student.sol\":379:620  function addStudentInfo(uint id, string memory name) public {... */\n    tag_4:\n      tag_9\n      0x04\n      dup1\n      calldatasize\n      sub\n      dup2\n      add\n      swap1\n      tag_10\n      swap2\n      swap1\n      tag_11\n      jump\t// in\n    tag_10:\n      tag_12\n      jump\t// in\n    tag_9:\n      stop\n        /* \"contracts/student.sol\":626:904  function getStudentInfo() public view returns(uint,string memory,address){... */\n    tag_6:\n        /* \"contracts/student.sol\":672:676  uint */\n      0x00\n        /* \"contracts/student.sol\":677:690  string memory */\n      0x60\n        /* \"contracts/student.sol\":691:698  address */\n      0x00\n        /* \"contracts/student.sol\":709:716  uint id */\n      dup1\n        /* \"contracts/student.sol\":719:730  studentInfo */\n      0x00\n        /* \"contracts/student.sol\":719:740  studentInfo.studentId */\n      dup1\n      add\n      sload\n        /* \"contracts/student.sol\":709:740  uint id = studentInfo.studentId */\n      swap1\n      pop\n        /* \"contracts/student.sol\":750:768  string memory name */\n      0x00\n        /* \"contracts/student.sol\":771:782  studentInfo */\n      dup1\n        /* \"contracts/student.sol\":771:794  studentInfo.studentName */\n      0x01\n      add\n        /* \"contracts/student.sol\":750:794  string memory name = studentInfo.studentName */\n      dup1\n      sload\n      tag_14\n      swap1\n      tag_15\n      jump\t// in\n    tag_14:\n      dup1\n      0x1f\n      add\n      0x20\n      dup1\n      swap2\n      div\n      mul\n      0x20\n      add\n      mload(0x40)\n      swap1\n      dup2\n      add\n      0x40\n      mstore\n      dup1\n      swap3\n      swap2\n      swap1\n      dup2\n      dup2\n      mstore\n      0x20\n      add\n      dup3\n      dup1\n      sload\n      tag_16\n      swap1\n      tag_15\n      jump\t// in\n    tag_16:\n      dup1\n      iszero\n      tag_17\n      jumpi\n      dup1\n      0x1f\n      lt\n      tag_18\n      jumpi\n      0x0100\n      dup1\n      dup4\n      sload\n      div\n      mul\n      dup4\n      mstore\n      swap2\n      0x20\n      add\n      swap2\n      jump(tag_17)\n    tag_18:\n      dup3\n      add\n      swap2\n      swap1\n      0x00\n      mstore\n      keccak256(0x00, 0x20)\n      swap1\n    tag_19:\n      dup2\n      sload\n      dup2\n      mstore\n      swap1\n      0x01\n      add\n      swap1\n      0x20\n      add\n      dup1\n      dup4\n      gt\n      tag_19\n      jumpi\n      dup3\n      swap1\n      sub\n      0x1f\n      and\n      dup3\n      add\n      swap2\n    tag_17:\n      pop\n      pop\n      pop\n      pop\n      pop\n      swap1\n      pop\n        /* \"contracts/student.sol\":804:822  address studentAdd */\n      0x00\n        /* \"contracts/student.sol\":825:836  studentInfo */\n      dup1\n        /* \"contracts/student.sol\":825:851  studentInfo.studentAddress */\n      0x02\n      add\n      0x00\n      swap1\n      sload\n      swap1\n      0x0100\n      exp\n      swap1\n      div\n      0xffffffffffffffffffffffffffffffffffffffff\n      and\n        /* \"contracts/student.sol\":804:851  address studentAdd = studentInfo.studentAddress */\n      swap1\n      pop\n        /* \"contracts/student.sol\":878:880  id */\n      dup3\n        /* \"contracts/student.sol\":881:885  name */\n      dup3\n        /* \"contracts/student.sol\":886:896  studentAdd */\n      dup3\n        /* \"contracts/student.sol\":870:897  return (id,name,studentAdd) */\n      swap6\n      pop\n      swap6\n      pop\n      swap6\n      pop\n      pop\n      pop\n      pop\n        /* \"contracts/student.sol\":626:904  function getStudentInfo() public view returns(uint,string memory,address){... */\n      swap1\n      swap2\n      swap3\n      jump\t// out\n        /* \"contracts/student.sol\":379:620  function addStudentInfo(uint id, string memory name) public {... */\n    tag_12:\n        /* \"contracts/student.sol\":482:483  0 */\n      0x00\n        /* \"contracts/student.sol\":457:468  studentInfo */\n      dup1\n        /* \"contracts/student.sol\":457:478  studentInfo.studentId */\n      0x00\n      add\n      sload\n        /* \"contracts/student.sol\":457:483  studentInfo.studentId == 0 */\n      eq\n        /* \"contracts/student.sol\":449:521  require(studentInfo.studentId == 0, \"You'r infomation already registed\") */\n      tag_21\n      jumpi\n      mload(0x40)\n      0x08c379a000000000000000000000000000000000000000000000000000000000\n      dup2\n      mstore\n      0x04\n      add\n      tag_22\n      swap1\n      tag_23\n      jump\t// in\n    tag_22:\n      mload(0x40)\n      dup1\n      swap2\n      sub\n      swap1\n      revert\n    tag_21:\n        /* \"contracts/student.sol\":587:613  information(id,name,owner) */\n      mload(0x40)\n      dup1\n      0x60\n      add\n      0x40\n      mstore\n      dup1\n        /* \"contracts/student.sol\":599:601  id */\n      dup4\n        /* \"contracts/student.sol\":587:613  information(id,name,owner) */\n      dup2\n      mstore\n      0x20\n      add\n        /* \"contracts/student.sol\":602:606  name */\n      dup3\n        /* \"contracts/student.sol\":587:613  information(id,name,owner) */\n      dup2\n      mstore\n      0x20\n      add\n        /* \"contracts/student.sol\":607:612  owner */\n      0x03\n      0x00\n      swap1\n      sload\n      swap1\n      0x0100\n      exp\n      swap1\n      div\n      0xffffffffffffffffffffffffffffffffffffffff\n      and\n        /* \"contracts/student.sol\":587:613  information(id,name,owner) */\n      0xffffffffffffffffffffffffffffffffffffffff\n      and\n      dup2\n      mstore\n      pop\n        /* \"contracts/student.sol\":573:584  studentInfo */\n      0x00\n        /* \"contracts/student.sol\":573:613  studentInfo = information(id,name,owner) */\n      dup1\n      dup3\n      add\n      mload\n      dup2\n      0x00\n      add\n      sstore\n      0x20\n      dup3\n      add\n      mload\n      dup2\n      0x01\n      add\n      swap1\n      dup1\n      mload\n      swap1\n      0x20\n      add\n      swap1\n      tag_24\n      swap3\n      swap2\n      swap1\n      tag_25\n      jump\t// in\n    tag_24:\n      pop\n      0x40\n      dup3\n      add\n      mload\n      dup2\n      0x02\n      add\n      exp(0x0100, 0x00)\n      dup2\n      sload\n      dup2\n      0xffffffffffffffffffffffffffffffffffffffff\n      mul\n      not\n      and\n      swap1\n      dup4\n      0xffffffffffffffffffffffffffffffffffffffff\n      and\n      mul\n      or\n      swap1\n      sstore\n      pop\n      swap1\n      pop\n      pop\n        /* \"contracts/student.sol\":379:620  function addStudentInfo(uint id, string memory name) public {... */\n      pop\n      pop\n      jump\t// out\n    tag_25:\n      dup3\n      dup1\n      sload\n      tag_26\n      swap1\n      tag_15\n      jump\t// in\n    tag_26:\n      swap1\n      0x00\n      mstore\n      keccak256(0x00, 0x20)\n      swap1\n      0x1f\n      add\n      0x20\n      swap1\n      div\n      dup2\n      add\n      swap3\n      dup3\n      tag_28\n      jumpi\n      0x00\n      dup6\n      sstore\n      jump(tag_27)\n    tag_28:\n      dup3\n      0x1f\n      lt\n      tag_29\n      jumpi\n      dup1\n      mload\n      not(0xff)\n      and\n      dup4\n      dup1\n      add\n      or\n      dup6\n      sstore\n      jump(tag_27)\n    tag_29:\n      dup3\n      dup1\n      add\n      0x01\n      add\n      dup6\n      sstore\n      dup3\n      iszero\n      tag_27\n      jumpi\n      swap2\n      dup3\n      add\n    tag_30:\n      dup3\n      dup2\n      gt\n      iszero\n      tag_31\n      jumpi\n      dup3\n      mload\n      dup3\n      sstore\n      swap2\n      0x20\n      add\n      swap2\n      swap1\n      0x01\n      add\n      swap1\n      jump(tag_30)\n    tag_31:\n    tag_27:\n      pop\n      swap1\n      pop\n      tag_32\n      swap2\n      swap1\n      tag_33\n      jump\t// in\n    tag_32:\n      pop\n      swap1\n      jump\t// out\n    tag_33:\n    tag_34:\n      dup1\n      dup3\n      gt\n      iszero\n      tag_35\n      jumpi\n      0x00\n      dup2\n      0x00\n      swap1\n      sstore\n      pop\n      0x01\n      add\n      jump(tag_34)\n    tag_35:\n      pop\n      swap1\n      jump\t// out\n        /* \"#utility.yul\":7:419   */\n    tag_37:\n        /* \"#utility.yul\":85:90   */\n      0x00\n        /* \"#utility.yul\":110:176   */\n      tag_39\n        /* \"#utility.yul\":126:175   */\n      tag_40\n        /* \"#utility.yul\":168:174   */\n      dup5\n        /* \"#utility.yul\":126:175   */\n      tag_41\n      jump\t// in\n    tag_40:\n        /* \"#utility.yul\":110:176   */\n      tag_42\n      jump\t// in\n    tag_39:\n        /* \"#utility.yul\":101:176   */\n      swap1\n      pop\n        /* \"#utility.yul\":199:205   */\n      dup3\n        /* \"#utility.yul\":192:197   */\n      dup2\n        /* \"#utility.yul\":185:206   */\n      mstore\n        /* \"#utility.yul\":237:241   */\n      0x20\n        /* \"#utility.yul\":230:235   */\n      dup2\n        /* \"#utility.yul\":226:242   */\n      add\n        /* \"#utility.yul\":275:278   */\n      dup5\n        /* \"#utility.yul\":266:272   */\n      dup5\n        /* \"#utility.yul\":261:264   */\n      dup5\n        /* \"#utility.yul\":257:273   */\n      add\n        /* \"#utility.yul\":254:279   */\n      gt\n        /* \"#utility.yul\":251:363   */\n      iszero\n      tag_43\n      jumpi\n        /* \"#utility.yul\":282:361   */\n      tag_44\n      tag_45\n      jump\t// in\n    tag_44:\n        /* \"#utility.yul\":251:363   */\n    tag_43:\n        /* \"#utility.yul\":372:413   */\n      tag_46\n        /* \"#utility.yul\":406:412   */\n      dup5\n        /* \"#utility.yul\":401:404   */\n      dup3\n        /* \"#utility.yul\":396:399   */\n      dup6\n        /* \"#utility.yul\":372:413   */\n      tag_47\n      jump\t// in\n    tag_46:\n        /* \"#utility.yul\":91:419   */\n      pop\n        /* \"#utility.yul\":7:419   */\n      swap4\n      swap3\n      pop\n      pop\n      pop\n      jump\t// out\n        /* \"#utility.yul\":439:779   */\n    tag_48:\n        /* \"#utility.yul\":495:500   */\n      0x00\n        /* \"#utility.yul\":544:547   */\n      dup3\n        /* \"#utility.yul\":537:541   */\n      0x1f\n        /* \"#utility.yul\":529:535   */\n      dup4\n        /* \"#utility.yul\":525:542   */\n      add\n        /* \"#utility.yul\":521:548   */\n      slt\n        /* \"#utility.yul\":511:633   */\n      tag_50\n      jumpi\n        /* \"#utility.yul\":552:631   */\n      tag_51\n      tag_52\n      jump\t// in\n    tag_51:\n        /* \"#utility.yul\":511:633   */\n    tag_50:\n        /* \"#utility.yul\":669:675   */\n      dup2\n        /* \"#utility.yul\":656:676   */\n      calldataload\n        /* \"#utility.yul\":694:773   */\n      tag_53\n        /* \"#utility.yul\":769:772   */\n      dup5\n        /* \"#utility.yul\":761:767   */\n      dup3\n        /* \"#utility.yul\":754:758   */\n      0x20\n        /* \"#utility.yul\":746:752   */\n      dup7\n        /* \"#utility.yul\":742:759   */\n      add\n        /* \"#utility.yul\":694:773   */\n      tag_37\n      jump\t// in\n    tag_53:\n        /* \"#utility.yul\":685:773   */\n      swap2\n      pop\n        /* \"#utility.yul\":501:779   */\n      pop\n        /* \"#utility.yul\":439:779   */\n      swap3\n      swap2\n      pop\n      pop\n      jump\t// out\n        /* \"#utility.yul\":785:924   */\n    tag_54:\n        /* \"#utility.yul\":831:836   */\n      0x00\n        /* \"#utility.yul\":869:875   */\n      dup2\n        /* \"#utility.yul\":856:876   */\n      calldataload\n        /* \"#utility.yul\":847:876   */\n      swap1\n      pop\n        /* \"#utility.yul\":885:918   */\n      tag_56\n        /* \"#utility.yul\":912:917   */\n      dup2\n        /* \"#utility.yul\":885:918   */\n      tag_57\n      jump\t// in\n    tag_56:\n        /* \"#utility.yul\":785:924   */\n      swap3\n      swap2\n      pop\n      pop\n      jump\t// out\n        /* \"#utility.yul\":930:1584   */\n    tag_11:\n        /* \"#utility.yul\":1008:1014   */\n      0x00\n        /* \"#utility.yul\":1016:1022   */\n      dup1\n        /* \"#utility.yul\":1065:1067   */\n      0x40\n        /* \"#utility.yul\":1053:1062   */\n      dup4\n        /* \"#utility.yul\":1044:1051   */\n      dup6\n        /* \"#utility.yul\":1040:1063   */\n      sub\n        /* \"#utility.yul\":1036:1068   */\n      slt\n        /* \"#utility.yul\":1033:1152   */\n      iszero\n      tag_59\n      jumpi\n        /* \"#utility.yul\":1071:1150   */\n      tag_60\n      tag_61\n      jump\t// in\n    tag_60:\n        /* \"#utility.yul\":1033:1152   */\n    tag_59:\n        /* \"#utility.yul\":1191:1192   */\n      0x00\n        /* \"#utility.yul\":1216:1269   */\n      tag_62\n        /* \"#utility.yul\":1261:1268   */\n      dup6\n        /* \"#utility.yul\":1252:1258   */\n      dup3\n        /* \"#utility.yul\":1241:1250   */\n      dup7\n        /* \"#utility.yul\":1237:1259   */\n      add\n        /* \"#utility.yul\":1216:1269   */\n      tag_54\n      jump\t// in\n    tag_62:\n        /* \"#utility.yul\":1206:1269   */\n      swap3\n      pop\n        /* \"#utility.yul\":1162:1279   */\n      pop\n        /* \"#utility.yul\":1346:1348   */\n      0x20\n        /* \"#utility.yul\":1335:1344   */\n      dup4\n        /* \"#utility.yul\":1331:1349   */\n      add\n        /* \"#utility.yul\":1318:1350   */\n      calldataload\n        /* \"#utility.yul\":1377:1395   */\n      0xffffffffffffffff\n        /* \"#utility.yul\":1369:1375   */\n      dup2\n        /* \"#utility.yul\":1366:1396   */\n      gt\n        /* \"#utility.yul\":1363:1480   */\n      iszero\n      tag_63\n      jumpi\n        /* \"#utility.yul\":1399:1478   */\n      tag_64\n      tag_65\n      jump\t// in\n    tag_64:\n        /* \"#utility.yul\":1363:1480   */\n    tag_63:\n        /* \"#utility.yul\":1504:1567   */\n      tag_66\n        /* \"#utility.yul\":1559:1566   */\n      dup6\n        /* \"#utility.yul\":1550:1556   */\n      dup3\n        /* \"#utility.yul\":1539:1548   */\n      dup7\n        /* \"#utility.yul\":1535:1557   */\n      add\n        /* \"#utility.yul\":1504:1567   */\n      tag_48\n      jump\t// in\n    tag_66:\n        /* \"#utility.yul\":1494:1567   */\n      swap2\n      pop\n        /* \"#utility.yul\":1289:1577   */\n      pop\n        /* \"#utility.yul\":930:1584   */\n      swap3\n      pop\n      swap3\n      swap1\n      pop\n      jump\t// out\n        /* \"#utility.yul\":1590:1708   */\n    tag_67:\n        /* \"#utility.yul\":1677:1701   */\n      tag_69\n        /* \"#utility.yul\":1695:1700   */\n      dup2\n        /* \"#utility.yul\":1677:1701   */\n      tag_70\n      jump\t// in\n    tag_69:\n        /* \"#utility.yul\":1672:1675   */\n      dup3\n        /* \"#utility.yul\":1665:1702   */\n      mstore\n        /* \"#utility.yul\":1590:1708   */\n      pop\n      pop\n      jump\t// out\n        /* \"#utility.yul\":1714:2078   */\n    tag_71:\n        /* \"#utility.yul\":1802:1805   */\n      0x00\n        /* \"#utility.yul\":1830:1869   */\n      tag_73\n        /* \"#utility.yul\":1863:1868   */\n      dup3\n        /* \"#utility.yul\":1830:1869   */\n      tag_74\n      jump\t// in\n    tag_73:\n        /* \"#utility.yul\":1885:1956   */\n      tag_75\n        /* \"#utility.yul\":1949:1955   */\n      dup2\n        /* \"#utility.yul\":1944:1947   */\n      dup6\n        /* \"#utility.yul\":1885:1956   */\n      tag_76\n      jump\t// in\n    tag_75:\n        /* \"#utility.yul\":1878:1956   */\n      swap4\n      pop\n        /* \"#utility.yul\":1965:2017   */\n      tag_77\n        /* \"#utility.yul\":2010:2016   */\n      dup2\n        /* \"#utility.yul\":2005:2008   */\n      dup6\n        /* \"#utility.yul\":1998:2002   */\n      0x20\n        /* \"#utility.yul\":1991:1996   */\n      dup7\n        /* \"#utility.yul\":1987:2003   */\n      add\n        /* \"#utility.yul\":1965:2017   */\n      tag_78\n      jump\t// in\n    tag_77:\n        /* \"#utility.yul\":2042:2071   */\n      tag_79\n        /* \"#utility.yul\":2064:2070   */\n      dup2\n        /* \"#utility.yul\":2042:2071   */\n      tag_80\n      jump\t// in\n    tag_79:\n        /* \"#utility.yul\":2037:2040   */\n      dup5\n        /* \"#utility.yul\":2033:2072   */\n      add\n        /* \"#utility.yul\":2026:2072   */\n      swap2\n      pop\n        /* \"#utility.yul\":1806:2078   */\n      pop\n        /* \"#utility.yul\":1714:2078   */\n      swap3\n      swap2\n      pop\n      pop\n      jump\t// out\n        /* \"#utility.yul\":2084:2450   */\n    tag_81:\n        /* \"#utility.yul\":2226:2229   */\n      0x00\n        /* \"#utility.yul\":2247:2314   */\n      tag_83\n        /* \"#utility.yul\":2311:2313   */\n      0x21\n        /* \"#utility.yul\":2306:2309   */\n      dup4\n        /* \"#utility.yul\":2247:2314   */\n      tag_76\n      jump\t// in\n    tag_83:\n        /* \"#utility.yul\":2240:2314   */\n      swap2\n      pop\n        /* \"#utility.yul\":2323:2416   */\n      tag_84\n        /* \"#utility.yul\":2412:2415   */\n      dup3\n        /* \"#utility.yul\":2323:2416   */\n      tag_85\n      jump\t// in\n    tag_84:\n        /* \"#utility.yul\":2441:2443   */\n      0x40\n        /* \"#utility.yul\":2436:2439   */\n      dup3\n        /* \"#utility.yul\":2432:2444   */\n      add\n        /* \"#utility.yul\":2425:2444   */\n      swap1\n      pop\n        /* \"#utility.yul\":2084:2450   */\n      swap2\n      swap1\n      pop\n      jump\t// out\n        /* \"#utility.yul\":2456:2574   */\n    tag_86:\n        /* \"#utility.yul\":2543:2567   */\n      tag_88\n        /* \"#utility.yul\":2561:2566   */\n      dup2\n        /* \"#utility.yul\":2543:2567   */\n      tag_89\n      jump\t// in\n    tag_88:\n        /* \"#utility.yul\":2538:2541   */\n      dup3\n        /* \"#utility.yul\":2531:2568   */\n      mstore\n        /* \"#utility.yul\":2456:2574   */\n      pop\n      pop\n      jump\t// out\n        /* \"#utility.yul\":2580:2999   */\n    tag_23:\n        /* \"#utility.yul\":2746:2750   */\n      0x00\n        /* \"#utility.yul\":2784:2786   */\n      0x20\n        /* \"#utility.yul\":2773:2782   */\n      dup3\n        /* \"#utility.yul\":2769:2787   */\n      add\n        /* \"#utility.yul\":2761:2787   */\n      swap1\n      pop\n        /* \"#utility.yul\":2833:2842   */\n      dup2\n        /* \"#utility.yul\":2827:2831   */\n      dup2\n        /* \"#utility.yul\":2823:2843   */\n      sub\n        /* \"#utility.yul\":2819:2820   */\n      0x00\n        /* \"#utility.yul\":2808:2817   */\n      dup4\n        /* \"#utility.yul\":2804:2821   */\n      add\n        /* \"#utility.yul\":2797:2844   */\n      mstore\n        /* \"#utility.yul\":2861:2992   */\n      tag_91\n        /* \"#utility.yul\":2987:2991   */\n      dup2\n        /* \"#utility.yul\":2861:2992   */\n      tag_81\n      jump\t// in\n    tag_91:\n        /* \"#utility.yul\":2853:2992   */\n      swap1\n      pop\n        /* \"#utility.yul\":2580:2999   */\n      swap2\n      swap1\n      pop\n      jump\t// out\n        /* \"#utility.yul\":3005:3538   */\n    tag_8:\n        /* \"#utility.yul\":3174:3178   */\n      0x00\n        /* \"#utility.yul\":3212:3214   */\n      0x60\n        /* \"#utility.yul\":3201:3210   */\n      dup3\n        /* \"#utility.yul\":3197:3215   */\n      add\n        /* \"#utility.yul\":3189:3215   */\n      swap1\n      pop\n        /* \"#utility.yul\":3225:3296   */\n      tag_93\n        /* \"#utility.yul\":3293:3294   */\n      0x00\n        /* \"#utility.yul\":3282:3291   */\n      dup4\n        /* \"#utility.yul\":3278:3295   */\n      add\n        /* \"#utility.yul\":3269:3275   */\n      dup7\n        /* \"#utility.yul\":3225:3296   */\n      tag_86\n      jump\t// in\n    tag_93:\n        /* \"#utility.yul\":3343:3352   */\n      dup2\n        /* \"#utility.yul\":3337:3341   */\n      dup2\n        /* \"#utility.yul\":3333:3353   */\n      sub\n        /* \"#utility.yul\":3328:3330   */\n      0x20\n        /* \"#utility.yul\":3317:3326   */\n      dup4\n        /* \"#utility.yul\":3313:3331   */\n      add\n        /* \"#utility.yul\":3306:3354   */\n      mstore\n        /* \"#utility.yul\":3371:3449   */\n      tag_94\n        /* \"#utility.yul\":3444:3448   */\n      dup2\n        /* \"#utility.yul\":3435:3441   */\n      dup6\n        /* \"#utility.yul\":3371:3449   */\n      tag_71\n      jump\t// in\n    tag_94:\n        /* \"#utility.yul\":3363:3449   */\n      swap1\n      pop\n        /* \"#utility.yul\":3459:3531   */\n      tag_95\n        /* \"#utility.yul\":3527:3529   */\n      0x40\n        /* \"#utility.yul\":3516:3525   */\n      dup4\n        /* \"#utility.yul\":3512:3530   */\n      add\n        /* \"#utility.yul\":3503:3509   */\n      dup5\n        /* \"#utility.yul\":3459:3531   */\n      tag_67\n      jump\t// in\n    tag_95:\n        /* \"#utility.yul\":3005:3538   */\n      swap5\n      swap4\n      pop\n      pop\n      pop\n      pop\n      jump\t// out\n        /* \"#utility.yul\":3544:3673   */\n    tag_42:\n        /* \"#utility.yul\":3578:3584   */\n      0x00\n        /* \"#utility.yul\":3605:3625   */\n      tag_97\n      tag_98\n      jump\t// in\n    tag_97:\n        /* \"#utility.yul\":3595:3625   */\n      swap1\n      pop\n        /* \"#utility.yul\":3634:3667   */\n      tag_99\n        /* \"#utility.yul\":3662:3666   */\n      dup3\n        /* \"#utility.yul\":3654:3660   */\n      dup3\n        /* \"#utility.yul\":3634:3667   */\n      tag_100\n      jump\t// in\n    tag_99:\n        /* \"#utility.yul\":3544:3673   */\n      swap2\n      swap1\n      pop\n      jump\t// out\n        /* \"#utility.yul\":3679:3754   */\n    tag_98:\n        /* \"#utility.yul\":3712:3718   */\n      0x00\n        /* \"#utility.yul\":3745:3747   */\n      0x40\n        /* \"#utility.yul\":3739:3748   */\n      mload\n        /* \"#utility.yul\":3729:3748   */\n      swap1\n      pop\n        /* \"#utility.yul\":3679:3754   */\n      swap1\n      jump\t// out\n        /* \"#utility.yul\":3760:4068   */\n    tag_41:\n        /* \"#utility.yul\":3822:3826   */\n      0x00\n        /* \"#utility.yul\":3912:3930   */\n      0xffffffffffffffff\n        /* \"#utility.yul\":3904:3910   */\n      dup3\n        /* \"#utility.yul\":3901:3931   */\n      gt\n        /* \"#utility.yul\":3898:3954   */\n      iszero\n      tag_103\n      jumpi\n        /* \"#utility.yul\":3934:3952   */\n      tag_104\n      tag_105\n      jump\t// in\n    tag_104:\n        /* \"#utility.yul\":3898:3954   */\n    tag_103:\n        /* \"#utility.yul\":3972:4001   */\n      tag_106\n        /* \"#utility.yul\":3994:4000   */\n      dup3\n        /* \"#utility.yul\":3972:4001   */\n      tag_80\n      jump\t// in\n    tag_106:\n        /* \"#utility.yul\":3964:4001   */\n      swap1\n      pop\n        /* \"#utility.yul\":4056:4060   */\n      0x20\n        /* \"#utility.yul\":4050:4054   */\n      dup2\n        /* \"#utility.yul\":4046:4061   */\n      add\n        /* \"#utility.yul\":4038:4061   */\n      swap1\n      pop\n        /* \"#utility.yul\":3760:4068   */\n      swap2\n      swap1\n      pop\n      jump\t// out\n        /* \"#utility.yul\":4074:4173   */\n    tag_74:\n        /* \"#utility.yul\":4126:4132   */\n      0x00\n        /* \"#utility.yul\":4160:4165   */\n      dup2\n        /* \"#utility.yul\":4154:4166   */\n      mload\n        /* \"#utility.yul\":4144:4166   */\n      swap1\n      pop\n        /* \"#utility.yul\":4074:4173   */\n      swap2\n      swap1\n      pop\n      jump\t// out\n        /* \"#utility.yul\":4179:4348   */\n    tag_76:\n        /* \"#utility.yul\":4263:4274   */\n      0x00\n        /* \"#utility.yul\":4297:4303   */\n      dup3\n        /* \"#utility.yul\":4292:4295   */\n      dup3\n        /* \"#utility.yul\":4285:4304   */\n      mstore\n        /* \"#utility.yul\":4337:4341   */\n      0x20\n        /* \"#utility.yul\":4332:4335   */\n      dup3\n        /* \"#utility.yul\":4328:4342   */\n      add\n        /* \"#utility.yul\":4313:4342   */\n      swap1\n      pop\n        /* \"#utility.yul\":4179:4348   */\n      swap3\n      swap2\n      pop\n      pop\n      jump\t// out\n        /* \"#utility.yul\":4354:4450   */\n    tag_70:\n        /* \"#utility.yul\":4391:4398   */\n      0x00\n        /* \"#utility.yul\":4420:4444   */\n      tag_110\n        /* \"#utility.yul\":4438:4443   */\n      dup3\n        /* \"#utility.yul\":4420:4444   */\n      tag_111\n      jump\t// in\n    tag_110:\n        /* \"#utility.yul\":4409:4444   */\n      swap1\n      pop\n        /* \"#utility.yul\":4354:4450   */\n      swap2\n      swap1\n      pop\n      jump\t// out\n        /* \"#utility.yul\":4456:4582   */\n    tag_111:\n        /* \"#utility.yul\":4493:4500   */\n      0x00\n        /* \"#utility.yul\":4533:4575   */\n      0xffffffffffffffffffffffffffffffffffffffff\n        /* \"#utility.yul\":4526:4531   */\n      dup3\n        /* \"#utility.yul\":4522:4576   */\n      and\n        /* \"#utility.yul\":4511:4576   */\n      swap1\n      pop\n        /* \"#utility.yul\":4456:4582   */\n      swap2\n      swap1\n      pop\n      jump\t// out\n        /* \"#utility.yul\":4588:4665   */\n    tag_89:\n        /* \"#utility.yul\":4625:4632   */\n      0x00\n        /* \"#utility.yul\":4654:4659   */\n      dup2\n        /* \"#utility.yul\":4643:4659   */\n      swap1\n      pop\n        /* \"#utility.yul\":4588:4665   */\n      swap2\n      swap1\n      pop\n      jump\t// out\n        /* \"#utility.yul\":4671:4825   */\n    tag_47:\n        /* \"#utility.yul\":4755:4761   */\n      dup3\n        /* \"#utility.yul\":4750:4753   */\n      dup2\n        /* \"#utility.yul\":4745:4748   */\n      dup4\n        /* \"#utility.yul\":4732:4762   */\n      calldatacopy\n        /* \"#utility.yul\":4817:4818   */\n      0x00\n        /* \"#utility.yul\":4808:4814   */\n      dup4\n        /* \"#utility.yul\":4803:4806   */\n      dup4\n        /* \"#utility.yul\":4799:4815   */\n      add\n        /* \"#utility.yul\":4792:4819   */\n      mstore\n        /* \"#utility.yul\":4671:4825   */\n      pop\n      pop\n      pop\n      jump\t// out\n        /* \"#utility.yul\":4831:5138   */\n    tag_78:\n        /* \"#utility.yul\":4899:4900   */\n      0x00\n        /* \"#utility.yul\":4909:5022   */\n    tag_116:\n        /* \"#utility.yul\":4923:4929   */\n      dup4\n        /* \"#utility.yul\":4920:4921   */\n      dup2\n        /* \"#utility.yul\":4917:4930   */\n      lt\n        /* \"#utility.yul\":4909:5022   */\n      iszero\n      tag_118\n      jumpi\n        /* \"#utility.yul\":5008:5009   */\n      dup1\n        /* \"#utility.yul\":5003:5006   */\n      dup3\n        /* \"#utility.yul\":4999:5010   */\n      add\n        /* \"#utility.yul\":4993:5011   */\n      mload\n        /* \"#utility.yul\":4989:4990   */\n      dup2\n        /* \"#utility.yul\":4984:4987   */\n      dup5\n        /* \"#utility.yul\":4980:4991   */\n      add\n        /* \"#utility.yul\":4973:5012   */\n      mstore\n        /* \"#utility.yul\":4945:4947   */\n      0x20\n        /* \"#utility.yul\":4942:4943   */\n      dup2\n        /* \"#utility.yul\":4938:4948   */\n      add\n        /* \"#utility.yul\":4933:4948   */\n      swap1\n      pop\n        /* \"#utility.yul\":4909:5022   */\n      jump(tag_116)\n    tag_118:\n        /* \"#utility.yul\":5040:5046   */\n      dup4\n        /* \"#utility.yul\":5037:5038   */\n      dup2\n        /* \"#utility.yul\":5034:5047   */\n      gt\n        /* \"#utility.yul\":5031:5132   */\n      iszero\n      tag_119\n      jumpi\n        /* \"#utility.yul\":5120:5121   */\n      0x00\n        /* \"#utility.yul\":5111:5117   */\n      dup5\n        /* \"#utility.yul\":5106:5109   */\n      dup5\n        /* \"#utility.yul\":5102:5118   */\n      add\n        /* \"#utility.yul\":5095:5122   */\n      mstore\n        /* \"#utility.yul\":5031:5132   */\n    tag_119:\n        /* \"#utility.yul\":4880:5138   */\n      pop\n        /* \"#utility.yul\":4831:5138   */\n      pop\n      pop\n      pop\n      jump\t// out\n        /* \"#utility.yul\":5144:5464   */\n    tag_15:\n        /* \"#utility.yul\":5188:5194   */\n      0x00\n        /* \"#utility.yul\":5225:5226   */\n      0x02\n        /* \"#utility.yul\":5219:5223   */\n      dup3\n        /* \"#utility.yul\":5215:5227   */\n      div\n        /* \"#utility.yul\":5205:5227   */\n      swap1\n      pop\n        /* \"#utility.yul\":5272:5273   */\n      0x01\n        /* \"#utility.yul\":5266:5270   */\n      dup3\n        /* \"#utility.yul\":5262:5274   */\n      and\n        /* \"#utility.yul\":5293:5311   */\n      dup1\n        /* \"#utility.yul\":5283:5364   */\n      tag_121\n      jumpi\n        /* \"#utility.yul\":5349:5353   */\n      0x7f\n        /* \"#utility.yul\":5341:5347   */\n      dup3\n        /* \"#utility.yul\":5337:5354   */\n      and\n        /* \"#utility.yul\":5327:5354   */\n      swap2\n      pop\n        /* \"#utility.yul\":5283:5364   */\n    tag_121:\n        /* \"#utility.yul\":5411:5413   */\n      0x20\n        /* \"#utility.yul\":5403:5409   */\n      dup3\n        /* \"#utility.yul\":5400:5414   */\n      lt\n        /* \"#utility.yul\":5380:5398   */\n      dup2\n        /* \"#utility.yul\":5377:5415   */\n      eq\n        /* \"#utility.yul\":5374:5458   */\n      iszero\n      tag_122\n      jumpi\n        /* \"#utility.yul\":5430:5448   */\n      tag_123\n      tag_124\n      jump\t// in\n    tag_123:\n        /* \"#utility.yul\":5374:5458   */\n    tag_122:\n        /* \"#utility.yul\":5195:5464   */\n      pop\n        /* \"#utility.yul\":5144:5464   */\n      swap2\n      swap1\n      pop\n      jump\t// out\n        /* \"#utility.yul\":5470:5751   */\n    tag_100:\n        /* \"#utility.yul\":5553:5580   */\n      tag_126\n        /* \"#utility.yul\":5575:5579   */\n      dup3\n        /* \"#utility.yul\":5553:5580   */\n      tag_80\n      jump\t// in\n    tag_126:\n        /* \"#utility.yul\":5545:5551   */\n      dup2\n        /* \"#utility.yul\":5541:5581   */\n      add\n        /* \"#utility.yul\":5683:5689   */\n      dup2\n        /* \"#utility.yul\":5671:5681   */\n      dup2\n        /* \"#utility.yul\":5668:5690   */\n      lt\n        /* \"#utility.yul\":5647:5665   */\n      0xffffffffffffffff\n        /* \"#utility.yul\":5635:5645   */\n      dup3\n        /* \"#utility.yul\":5632:5666   */\n      gt\n        /* \"#utility.yul\":5629:5691   */\n      or\n        /* \"#utility.yul\":5626:5714   */\n      iszero\n      tag_127\n      jumpi\n        /* \"#utility.yul\":5694:5712   */\n      tag_128\n      tag_105\n      jump\t// in\n    tag_128:\n        /* \"#utility.yul\":5626:5714   */\n    tag_127:\n        /* \"#utility.yul\":5734:5744   */\n      dup1\n        /* \"#utility.yul\":5730:5732   */\n      0x40\n        /* \"#utility.yul\":5723:5745   */\n      mstore\n        /* \"#utility.yul\":5513:5751   */\n      pop\n        /* \"#utility.yul\":5470:5751   */\n      pop\n      pop\n      jump\t// out\n        /* \"#utility.yul\":5757:5937   */\n    tag_124:\n        /* \"#utility.yul\":5805:5882   */\n      0x4e487b7100000000000000000000000000000000000000000000000000000000\n        /* \"#utility.yul\":5802:5803   */\n      0x00\n        /* \"#utility.yul\":5795:5883   */\n      mstore\n        /* \"#utility.yul\":5902:5906   */\n      0x22\n        /* \"#utility.yul\":5899:5900   */\n      0x04\n        /* \"#utility.yul\":5892:5907   */\n      mstore\n        /* \"#utility.yul\":5926:5930   */\n      0x24\n        /* \"#utility.yul\":5923:5924   */\n      0x00\n        /* \"#utility.yul\":5916:5931   */\n      revert\n        /* \"#utility.yul\":5943:6123   */\n    tag_105:\n        /* \"#utility.yul\":5991:6068   */\n      0x4e487b7100000000000000000000000000000000000000000000000000000000\n        /* \"#utility.yul\":5988:5989   */\n      0x00\n        /* \"#utility.yul\":5981:6069   */\n      mstore\n        /* \"#utility.yul\":6088:6092   */\n      0x41\n        /* \"#utility.yul\":6085:6086   */\n      0x04\n        /* \"#utility.yul\":6078:6093   */\n      mstore\n        /* \"#utility.yul\":6112:6116   */\n      0x24\n        /* \"#utility.yul\":6109:6110   */\n      0x00\n        /* \"#utility.yul\":6102:6117   */\n      revert\n        /* \"#utility.yul\":6129:6246   */\n    tag_52:\n        /* \"#utility.yul\":6238:6239   */\n      0x00\n        /* \"#utility.yul\":6235:6236   */\n      dup1\n        /* \"#utility.yul\":6228:6240   */\n      revert\n        /* \"#utility.yul\":6252:6369   */\n    tag_45:\n        /* \"#utility.yul\":6361:6362   */\n      0x00\n        /* \"#utility.yul\":6358:6359   */\n      dup1\n        /* \"#utility.yul\":6351:6363   */\n      revert\n        /* \"#utility.yul\":6375:6492   */\n    tag_65:\n        /* \"#utility.yul\":6484:6485   */\n      0x00\n        /* \"#utility.yul\":6481:6482   */\n      dup1\n        /* \"#utility.yul\":6474:6486   */\n      revert\n        /* \"#utility.yul\":6498:6615   */\n    tag_61:\n        /* \"#utility.yul\":6607:6608   */\n      0x00\n        /* \"#utility.yul\":6604:6605   */\n      dup1\n        /* \"#utility.yul\":6597:6609   */\n      revert\n        /* \"#utility.yul\":6621:6723   */\n    tag_80:\n        /* \"#utility.yul\":6662:6668   */\n      0x00\n        /* \"#utility.yul\":6713:6715   */\n      0x1f\n        /* \"#utility.yul\":6709:6716   */\n      not\n        /* \"#utility.yul\":6704:6706   */\n      0x1f\n        /* \"#utility.yul\":6697:6702   */\n      dup4\n        /* \"#utility.yul\":6693:6707   */\n      add\n        /* \"#utility.yul\":6689:6717   */\n      and\n        /* \"#utility.yul\":6679:6717   */\n      swap1\n      pop\n        /* \"#utility.yul\":6621:6723   */\n      swap2\n      swap1\n      pop\n      jump\t// out\n        /* \"#utility.yul\":6729:6949   */\n    tag_85:\n        /* \"#utility.yul\":6869:6903   */\n      0x596f75277220696e666f6d6174696f6e20616c72656164792072656769737465\n        /* \"#utility.yul\":6865:6866   */\n      0x00\n        /* \"#utility.yul\":6857:6863   */\n      dup3\n        /* \"#utility.yul\":6853:6867   */\n      add\n        /* \"#utility.yul\":6846:6904   */\n      mstore\n        /* \"#utility.yul\":6938:6941   */\n      0x6400000000000000000000000000000000000000000000000000000000000000\n        /* \"#utility.yul\":6933:6935   */\n      0x20\n        /* \"#utility.yul\":6925:6931   */\n      dup3\n        /* \"#utility.yul\":6921:6936   */\n      add\n        /* \"#utility.yul\":6914:6942   */\n      mstore\n        /* \"#utility.yul\":6729:6949   */\n      pop\n      jump\t// out\n        /* \"#utility.yul\":6955:7077   */\n    tag_57:\n        /* \"#utility.yul\":7028:7052   */\n      tag_138\n        /* \"#utility.yul\":7046:7051   */\n      dup2\n        /* \"#utility.yul\":7028:7052   */\n      tag_89\n      jump\t// in\n    tag_138:\n        /* \"#utility.yul\":7021:7026   */\n      dup2\n        /* \"#utility.yul\":7018:7053   */\n      eq\n        /* \"#utility.yul\":7008:7071   */\n      tag_139\n      jumpi\n        /* \"#utility.yul\":7067:7068   */\n      0x00\n        /* \"#utility.yul\":7064:7065   */\n      dup1\n        /* \"#utility.yul\":7057:7069   */\n      revert\n        /* \"#utility.yul\":7008:7071   */\n    tag_139:\n        /* \"#utility.yul\":6955:7077   */\n      pop\n      jump\t// out\n\n    auxdata: 0xa264697066735822122069069de8da4ec8c33616512da33b2e1b285d67649aa451c52835b74e7ed018ad64736f6c63430008070033\n}\n",
				"bytecode": {
					"linkReferences": {},
					"object": "60806040526040518060600160405280600081526020016040518060400160405280600481526020017f6e756c6c000000000000000000000000000000000000000000000000000000008152508152602001600360009054906101000a900473ffffffffffffffffffffffffffffffffffffffff1673ffffffffffffffffffffffffffffffffffffffff16815250600080820151816000015560208201518160010190805190602001906100b4929190610151565b5060408201518160020160006101000a81548173ffffffffffffffffffffffffffffffffffffffff021916908373ffffffffffffffffffffffffffffffffffffffff160217905550505034801561010a57600080fd5b5033600360006101000a81548173ffffffffffffffffffffffffffffffffffffffff021916908373ffffffffffffffffffffffffffffffffffffffff160217905550610255565b82805461015d906101f4565b90600052602060002090601f01602090048101928261017f57600085556101c6565b82601f1061019857805160ff19168380011785556101c6565b828001600101855582156101c6579182015b828111156101c55782518255916020019190600101906101aa565b5b5090506101d391906101d7565b5090565b5b808211156101f05760008160009055506001016101d8565b5090565b6000600282049050600182168061020c57607f821691505b602082108114156102205761021f610226565b5b50919050565b7f4e487b7100000000000000000000000000000000000000000000000000000000600052602260045260246000fd5b61072e806102646000396000f3fe608060405234801561001057600080fd5b50600436106100365760003560e01c8063a1e68c521461003b578063bd657a851461005b575b600080fd5b610043610077565b6040516100529392919061047e565b60405180910390f35b61007560048036038101906100709190610388565b610150565b005b60006060600080600080015490506000806001018054610096906105ac565b80601f01602080910402602001604051908101604052809291908181526020018280546100c2906105ac565b801561010f5780601f106100e45761010080835404028352916020019161010f565b820191906000526020600020905b8154815290600101906020018083116100f257829003601f168201915b5050505050905060008060020160009054906101000a900473ffffffffffffffffffffffffffffffffffffffff169050828282955095509550505050909192565b6000806000015414610197576040517f08c379a000000000000000000000000000000000000000000000000000000000815260040161018e9061045e565b60405180910390fd5b6040518060600160405280838152602001828152602001600360009054906101000a900473ffffffffffffffffffffffffffffffffffffffff1673ffffffffffffffffffffffffffffffffffffffff1681525060008082015181600001556020820151816001019080519060200190610211929190610260565b5060408201518160020160006101000a81548173ffffffffffffffffffffffffffffffffffffffff021916908373ffffffffffffffffffffffffffffffffffffffff1602179055509050505050565b82805461026c906105ac565b90600052602060002090601f01602090048101928261028e57600085556102d5565b82601f106102a757805160ff19168380011785556102d5565b828001600101855582156102d5579182015b828111156102d45782518255916020019190600101906102b9565b5b5090506102e291906102e6565b5090565b5b808211156102ff5760008160009055506001016102e7565b5090565b6000610316610311846104e1565b6104bc565b90508281526020810184848401111561033257610331610672565b5b61033d84828561056a565b509392505050565b600082601f83011261035a5761035961066d565b5b813561036a848260208601610303565b91505092915050565b600081359050610382816106e1565b92915050565b6000806040838503121561039f5761039e61067c565b5b60006103ad85828601610373565b925050602083013567ffffffffffffffff8111156103ce576103cd610677565b5b6103da85828601610345565b9150509250929050565b6103ed8161052e565b82525050565b60006103fe82610512565b610408818561051d565b9350610418818560208601610579565b61042181610681565b840191505092915050565b600061043960218361051d565b915061044482610692565b604082019050919050565b61045881610560565b82525050565b600060208201905081810360008301526104778161042c565b9050919050565b6000606082019050610493600083018661044f565b81810360208301526104a581856103f3565b90506104b460408301846103e4565b949350505050565b60006104c66104d7565b90506104d282826105de565b919050565b6000604051905090565b600067ffffffffffffffff8211156104fc576104fb61063e565b5b61050582610681565b9050602081019050919050565b600081519050919050565b600082825260208201905092915050565b600061053982610540565b9050919050565b600073ffffffffffffffffffffffffffffffffffffffff82169050919050565b6000819050919050565b82818337600083830152505050565b60005b8381101561059757808201518184015260208101905061057c565b838111156105a6576000848401525b50505050565b600060028204905060018216806105c457607f821691505b602082108114156105d8576105d761060f565b5b50919050565b6105e782610681565b810181811067ffffffffffffffff821117156106065761060561063e565b5b80604052505050565b7f4e487b7100000000000000000000000000000000000000000000000000000000600052602260045260246000fd5b7f4e487b7100000000000000000000000000000000000000000000000000000000600052604160045260246000fd5b600080fd5b600080fd5b600080fd5b600080fd5b6000601f19601f8301169050919050565b7f596f75277220696e666f6d6174696f6e20616c7265616479207265676973746560008201527f6400000000000000000000000000000000000000000000000000000000000000602082015250565b6106ea81610560565b81146106f557600080fd5b5056fea264697066735822122069069de8da4ec8c33616512da33b2e1b285d67649aa451c52835b74e7ed018ad64736f6c63430008070033",
					"opcodes": "PUSH1 0x80 PUSH1 0x40 MSTORE PUSH1 0x40 MLOAD DUP1 PUSH1 0x60 ADD PUSH1 0x40 MSTORE DUP1 PUSH1 0x0 DUP2 MSTORE PUSH1 0x20 ADD PUSH1 0x40 MLOAD DUP1 PUSH1 0x40 ADD PUSH1 0x40 MSTORE DUP1 PUSH1 0x4 DUP2 MSTORE PUSH1 0x20 ADD PUSH32 0x6E756C6C00000000000000000000000000000000000000000000000000000000 DUP2 MSTORE POP DUP2 MSTORE PUSH1 0x20 ADD PUSH1 0x3 PUSH1 0x0 SWAP1 SLOAD SWAP1 PUSH2 0x100 EXP SWAP1 DIV PUSH20 0xFFFFFFFFFFFFFFFFFFFFFFFFFFFFFFFFFFFFFFFF AND PUSH20 0xFFFFFFFFFFFFFFFFFFFFFFFFFFFFFFFFFFFFFFFF AND DUP2 MSTORE POP PUSH1 0x0 DUP1 DUP3 ADD MLOAD DUP2 PUSH1 0x0 ADD SSTORE PUSH1 0x20 DUP3 ADD MLOAD DUP2 PUSH1 0x1 ADD SWAP1 DUP1 MLOAD SWAP1 PUSH1 0x20 ADD SWAP1 PUSH2 0xB4 SWAP3 SWAP2 SWAP1 PUSH2 0x151 JUMP JUMPDEST POP PUSH1 0x40 DUP3 ADD MLOAD DUP2 PUSH1 0x2 ADD PUSH1 0x0 PUSH2 0x100 EXP DUP2 SLOAD DUP2 PUSH20 0xFFFFFFFFFFFFFFFFFFFFFFFFFFFFFFFFFFFFFFFF MUL NOT AND SWAP1 DUP4 PUSH20 0xFFFFFFFFFFFFFFFFFFFFFFFFFFFFFFFFFFFFFFFF AND MUL OR SWAP1 SSTORE POP POP POP CALLVALUE DUP1 ISZERO PUSH2 0x10A JUMPI PUSH1 0x0 DUP1 REVERT JUMPDEST POP CALLER PUSH1 0x3 PUSH1 0x0 PUSH2 0x100 EXP DUP2 SLOAD DUP2 PUSH20 0xFFFFFFFFFFFFFFFFFFFFFFFFFFFFFFFFFFFFFFFF MUL NOT AND SWAP1 DUP4 PUSH20 0xFFFFFFFFFFFFFFFFFFFFFFFFFFFFFFFFFFFFFFFF AND MUL OR SWAP1 SSTORE POP PUSH2 0x255 JUMP JUMPDEST DUP3 DUP1 SLOAD PUSH2 0x15D SWAP1 PUSH2 0x1F4 JUMP JUMPDEST SWAP1 PUSH1 0x0 MSTORE PUSH1 0x20 PUSH1 0x0 KECCAK256 SWAP1 PUSH1 0x1F ADD PUSH1 0x20 SWAP1 DIV DUP2 ADD SWAP3 DUP3 PUSH2 0x17F JUMPI PUSH1 0x0 DUP6 SSTORE PUSH2 0x1C6 JUMP JUMPDEST DUP3 PUSH1 0x1F LT PUSH2 0x198 JUMPI DUP1 MLOAD PUSH1 0xFF NOT AND DUP4 DUP1 ADD OR DUP6 SSTORE PUSH2 0x1C6 JUMP JUMPDEST DUP3 DUP1 ADD PUSH1 0x1 ADD DUP6 SSTORE DUP3 ISZERO PUSH2 0x1C6 JUMPI SWAP2 DUP3 ADD JUMPDEST DUP3 DUP2 GT ISZERO PUSH2 0x1C5 JUMPI DUP3 MLOAD DUP3 SSTORE SWAP2 PUSH1 0x20 ADD SWAP2 SWAP1 PUSH1 0x1 ADD SWAP1 PUSH2 0x1AA JUMP JUMPDEST JUMPDEST POP SWAP1 POP PUSH2 0x1D3 SWAP2 SWAP1 PUSH2 0x1D7 JUMP JUMPDEST POP SWAP1 JUMP JUMPDEST JUMPDEST DUP1 DUP3 GT ISZERO PUSH2 0x1F0 JUMPI PUSH1 0x0 DUP2 PUSH1 0x0 SWAP1 SSTORE POP PUSH1 0x1 ADD PUSH2 0x1D8 JUMP JUMPDEST POP SWAP1 JUMP JUMPDEST PUSH1 0x0 PUSH1 0x2 DUP3 DIV SWAP1 POP PUSH1 0x1 DUP3 AND DUP1 PUSH2 0x20C JUMPI PUSH1 0x7F DUP3 AND SWAP2 POP JUMPDEST PUSH1 0x20 DUP3 LT DUP2 EQ ISZERO PUSH2 0x220 JUMPI PUSH2 0x21F PUSH2 0x226 JUMP JUMPDEST JUMPDEST POP SWAP2 SWAP1 POP JUMP JUMPDEST PUSH32 0x4E487B7100000000000000000000000000000000000000000000000000000000 PUSH1 0x0 MSTORE PUSH1 0x22 PUSH1 0x4 MSTORE PUSH1 0x24 PUSH1 0x0 REVERT JUMPDEST PUSH2 0x72E DUP1 PUSH2 0x264 PUSH1 0x0 CODECOPY PUSH1 0x0 RETURN INVALID PUSH1 0x80 PUSH1 0x40 MSTORE CALLVALUE DUP1 ISZERO PUSH2 0x10 JUMPI PUSH1 0x0 DUP1 REVERT JUMPDEST POP PUSH1 0x4 CALLDATASIZE LT PUSH2 0x36 JUMPI PUSH1 0x0 CALLDATALOAD PUSH1 0xE0 SHR DUP1 PUSH4 0xA1E68C52 EQ PUSH2 0x3B JUMPI DUP1 PUSH4 0xBD657A85 EQ PUSH2 0x5B JUMPI JUMPDEST PUSH1 0x0 DUP1 REVERT JUMPDEST PUSH2 0x43 PUSH2 0x77 JUMP JUMPDEST PUSH1 0x40 MLOAD PUSH2 0x52 SWAP4 SWAP3 SWAP2 SWAP1 PUSH2 0x47E JUMP JUMPDEST PUSH1 0x40 MLOAD DUP1 SWAP2 SUB SWAP1 RETURN JUMPDEST PUSH2 0x75 PUSH1 0x4 DUP1 CALLDATASIZE SUB DUP2 ADD SWAP1 PUSH2 0x70 SWAP2 SWAP1 PUSH2 0x388 JUMP JUMPDEST PUSH2 0x150 JUMP JUMPDEST STOP JUMPDEST PUSH1 0x0 PUSH1 0x60 PUSH1 0x0 DUP1 PUSH1 0x0 DUP1 ADD SLOAD SWAP1 POP PUSH1 0x0 DUP1 PUSH1 0x1 ADD DUP1 SLOAD PUSH2 0x96 SWAP1 PUSH2 0x5AC JUMP JUMPDEST DUP1 PUSH1 0x1F ADD PUSH1 0x20 DUP1 SWAP2 DIV MUL PUSH1 0x20 ADD PUSH1 0x40 MLOAD SWAP1 DUP2 ADD PUSH1 0x40 MSTORE DUP1 SWAP3 SWAP2 SWAP1 DUP2 DUP2 MSTORE PUSH1 0x20 ADD DUP3 DUP1 SLOAD PUSH2 0xC2 SWAP1 PUSH2 0x5AC JUMP JUMPDEST DUP1 ISZERO PUSH2 0x10F JUMPI DUP1 PUSH1 0x1F LT PUSH2 0xE4 JUMPI PUSH2 0x100 DUP1 DUP4 SLOAD DIV MUL DUP4 MSTORE SWAP2 PUSH1 0x20 ADD SWAP2 PUSH2 0x10F JUMP JUMPDEST DUP3 ADD SWAP2 SWAP1 PUSH1 0x0 MSTORE PUSH1 0x20 PUSH1 0x0 KECCAK256 SWAP1 JUMPDEST DUP2 SLOAD DUP2 MSTORE SWAP1 PUSH1 0x1 ADD SWAP1 PUSH1 0x20 ADD DUP1 DUP4 GT PUSH2 0xF2 JUMPI DUP3 SWAP1 SUB PUSH1 0x1F AND DUP3 ADD SWAP2 JUMPDEST POP POP POP POP POP SWAP1 POP PUSH1 0x0 DUP1 PUSH1 0x2 ADD PUSH1 0x0 SWAP1 SLOAD SWAP1 PUSH2 0x100 EXP SWAP1 DIV PUSH20 0xFFFFFFFFFFFFFFFFFFFFFFFFFFFFFFFFFFFFFFFF AND SWAP1 POP DUP3 DUP3 DUP3 SWAP6 POP SWAP6 POP SWAP6 POP POP POP POP SWAP1 SWAP2 SWAP3 JUMP JUMPDEST PUSH1 0x0 DUP1 PUSH1 0x0 ADD SLOAD EQ PUSH2 0x197 JUMPI PUSH1 0x40 MLOAD PUSH32 0x8C379A000000000000000000000000000000000000000000000000000000000 DUP2 MSTORE PUSH1 0x4 ADD PUSH2 0x18E SWAP1 PUSH2 0x45E JUMP JUMPDEST PUSH1 0x40 MLOAD DUP1 SWAP2 SUB SWAP1 REVERT JUMPDEST PUSH1 0x40 MLOAD DUP1 PUSH1 0x60 ADD PUSH1 0x40 MSTORE DUP1 DUP4 DUP2 MSTORE PUSH1 0x20 ADD DUP3 DUP2 MSTORE PUSH1 0x20 ADD PUSH1 0x3 PUSH1 0x0 SWAP1 SLOAD SWAP1 PUSH2 0x100 EXP SWAP1 DIV PUSH20 0xFFFFFFFFFFFFFFFFFFFFFFFFFFFFFFFFFFFFFFFF AND PUSH20 0xFFFFFFFFFFFFFFFFFFFFFFFFFFFFFFFFFFFFFFFF AND DUP2 MSTORE POP PUSH1 0x0 DUP1 DUP3 ADD MLOAD DUP2 PUSH1 0x0 ADD SSTORE PUSH1 0x20 DUP3 ADD MLOAD DUP2 PUSH1 0x1 ADD SWAP1 DUP1 MLOAD SWAP1 PUSH1 0x20 ADD SWAP1 PUSH2 0x211 SWAP3 SWAP2 SWAP1 PUSH2 0x260 JUMP JUMPDEST POP PUSH1 0x40 DUP3 ADD MLOAD DUP2 PUSH1 0x2 ADD PUSH1 0x0 PUSH2 0x100 EXP DUP2 SLOAD DUP2 PUSH20 0xFFFFFFFFFFFFFFFFFFFFFFFFFFFFFFFFFFFFFFFF MUL NOT AND SWAP1 DUP4 PUSH20 0xFFFFFFFFFFFFFFFFFFFFFFFFFFFFFFFFFFFFFFFF AND MUL OR SWAP1 SSTORE POP SWAP1 POP POP POP POP JUMP JUMPDEST DUP3 DUP1 SLOAD PUSH2 0x26C SWAP1 PUSH2 0x5AC JUMP JUMPDEST SWAP1 PUSH1 0x0 MSTORE PUSH1 0x20 PUSH1 0x0 KECCAK256 SWAP1 PUSH1 0x1F ADD PUSH1 0x20 SWAP1 DIV DUP2 ADD SWAP3 DUP3 PUSH2 0x28E JUMPI PUSH1 0x0 DUP6 SSTORE PUSH2 0x2D5 JUMP JUMPDEST DUP3 PUSH1 0x1F LT PUSH2 0x2A7 JUMPI DUP1 MLOAD PUSH1 0xFF NOT AND DUP4 DUP1 ADD OR DUP6 SSTORE PUSH2 0x2D5 JUMP JUMPDEST DUP3 DUP1 ADD PUSH1 0x1 ADD DUP6 SSTORE DUP3 ISZERO PUSH2 0x2D5 JUMPI SWAP2 DUP3 ADD JUMPDEST DUP3 DUP2 GT ISZERO PUSH2 0x2D4 JUMPI DUP3 MLOAD DUP3 SSTORE SWAP2 PUSH1 0x20 ADD SWAP2 SWAP1 PUSH1 0x1 ADD SWAP1 PUSH2 0x2B9 JUMP JUMPDEST JUMPDEST POP SWAP1 POP PUSH2 0x2E2 SWAP2 SWAP1 PUSH2 0x2E6 JUMP JUMPDEST POP SWAP1 JUMP JUMPDEST JUMPDEST DUP1 DUP3 GT ISZERO PUSH2 0x2FF JUMPI PUSH1 0x0 DUP2 PUSH1 0x0 SWAP1 SSTORE POP PUSH1 0x1 ADD PUSH2 0x2E7 JUMP JUMPDEST POP SWAP1 JUMP JUMPDEST PUSH1 0x0 PUSH2 0x316 PUSH2 0x311 DUP5 PUSH2 0x4E1 JUMP JUMPDEST PUSH2 0x4BC JUMP JUMPDEST SWAP1 POP DUP3 DUP2 MSTORE PUSH1 0x20 DUP2 ADD DUP5 DUP5 DUP5 ADD GT ISZERO PUSH2 0x332 JUMPI PUSH2 0x331 PUSH2 0x672 JUMP JUMPDEST JUMPDEST PUSH2 0x33D DUP5 DUP3 DUP6 PUSH2 0x56A JUMP JUMPDEST POP SWAP4 SWAP3 POP POP POP JUMP JUMPDEST PUSH1 0x0 DUP3 PUSH1 0x1F DUP4 ADD SLT PUSH2 0x35A JUMPI PUSH2 0x359 PUSH2 0x66D JUMP JUMPDEST JUMPDEST DUP2 CALLDATALOAD PUSH2 0x36A DUP5 DUP3 PUSH1 0x20 DUP7 ADD PUSH2 0x303 JUMP JUMPDEST SWAP2 POP POP SWAP3 SWAP2 POP POP JUMP JUMPDEST PUSH1 0x0 DUP2 CALLDATALOAD SWAP1 POP PUSH2 0x382 DUP2 PUSH2 0x6E1 JUMP JUMPDEST SWAP3 SWAP2 POP POP JUMP JUMPDEST PUSH1 0x0 DUP1 PUSH1 0x40 DUP4 DUP6 SUB SLT ISZERO PUSH2 0x39F JUMPI PUSH2 0x39E PUSH2 0x67C JUMP JUMPDEST JUMPDEST PUSH1 0x0 PUSH2 0x3AD DUP6 DUP3 DUP7 ADD PUSH2 0x373 JUMP JUMPDEST SWAP3 POP POP PUSH1 0x20 DUP4 ADD CALLDATALOAD PUSH8 0xFFFFFFFFFFFFFFFF DUP2 GT ISZERO PUSH2 0x3CE JUMPI PUSH2 0x3CD PUSH2 0x677 JUMP JUMPDEST JUMPDEST PUSH2 0x3DA DUP6 DUP3 DUP7 ADD PUSH2 0x345 JUMP JUMPDEST SWAP2 POP POP SWAP3 POP SWAP3 SWAP1 POP JUMP JUMPDEST PUSH2 0x3ED DUP2 PUSH2 0x52E JUMP JUMPDEST DUP3 MSTORE POP POP JUMP JUMPDEST PUSH1 0x0 PUSH2 0x3FE DUP3 PUSH2 0x512 JUMP JUMPDEST PUSH2 0x408 DUP2 DUP6 PUSH2 0x51D JUMP JUMPDEST SWAP4 POP PUSH2 0x418 DUP2 DUP6 PUSH1 0x20 DUP7 ADD PUSH2 0x579 JUMP JUMPDEST PUSH2 0x421 DUP2 PUSH2 0x681 JUMP JUMPDEST DUP5 ADD SWAP2 POP POP SWAP3 SWAP2 POP POP JUMP JUMPDEST PUSH1 0x0 PUSH2 0x439 PUSH1 0x21 DUP4 PUSH2 0x51D JUMP JUMPDEST SWAP2 POP PUSH2 0x444 DUP3 PUSH2 0x692 JUMP JUMPDEST PUSH1 0x40 DUP3 ADD SWAP1 POP SWAP2 SWAP1 POP JUMP JUMPDEST PUSH2 0x458 DUP2 PUSH2 0x560 JUMP JUMPDEST DUP3 MSTORE POP POP JUMP JUMPDEST PUSH1 0x0 PUSH1 0x20 DUP3 ADD SWAP1 POP DUP2 DUP2 SUB PUSH1 0x0 DUP4 ADD MSTORE PUSH2 0x477 DUP2 PUSH2 0x42C JUMP JUMPDEST SWAP1 POP SWAP2 SWAP1 POP JUMP JUMPDEST PUSH1 0x0 PUSH1 0x60 DUP3 ADD SWAP1 POP PUSH2 0x493 PUSH1 0x0 DUP4 ADD DUP7 PUSH2 0x44F JUMP JUMPDEST DUP2 DUP2 SUB PUSH1 0x20 DUP4 ADD MSTORE PUSH2 0x4A5 DUP2 DUP6 PUSH2 0x3F3 JUMP JUMPDEST SWAP1 POP PUSH2 0x4B4 PUSH1 0x40 DUP4 ADD DUP5 PUSH2 0x3E4 JUMP JUMPDEST SWAP5 SWAP4 POP POP POP POP JUMP JUMPDEST PUSH1 0x0 PUSH2 0x4C6 PUSH2 0x4D7 JUMP JUMPDEST SWAP1 POP PUSH2 0x4D2 DUP3 DUP3 PUSH2 0x5DE JUMP JUMPDEST SWAP2 SWAP1 POP JUMP JUMPDEST PUSH1 0x0 PUSH1 0x40 MLOAD SWAP1 POP SWAP1 JUMP JUMPDEST PUSH1 0x0 PUSH8 0xFFFFFFFFFFFFFFFF DUP3 GT ISZERO PUSH2 0x4FC JUMPI PUSH2 0x4FB PUSH2 0x63E JUMP JUMPDEST JUMPDEST PUSH2 0x505 DUP3 PUSH2 0x681 JUMP JUMPDEST SWAP1 POP PUSH1 0x20 DUP2 ADD SWAP1 POP SWAP2 SWAP1 POP JUMP JUMPDEST PUSH1 0x0 DUP2 MLOAD SWAP1 POP SWAP2 SWAP1 POP JUMP JUMPDEST PUSH1 0x0 DUP3 DUP3 MSTORE PUSH1 0x20 DUP3 ADD SWAP1 POP SWAP3 SWAP2 POP POP JUMP JUMPDEST PUSH1 0x0 PUSH2 0x539 DUP3 PUSH2 0x540 JUMP JUMPDEST SWAP1 POP SWAP2 SWAP1 POP JUMP JUMPDEST PUSH1 0x0 PUSH20 0xFFFFFFFFFFFFFFFFFFFFFFFFFFFFFFFFFFFFFFFF DUP3 AND SWAP1 POP SWAP2 SWAP1 POP JUMP JUMPDEST PUSH1 0x0 DUP2 SWAP1 POP SWAP2 SWAP1 POP JUMP JUMPDEST DUP3 DUP2 DUP4 CALLDATACOPY PUSH1 0x0 DUP4 DUP4 ADD MSTORE POP POP POP JUMP JUMPDEST PUSH1 0x0 JUMPDEST DUP4 DUP2 LT ISZERO PUSH2 0x597 JUMPI DUP1 DUP3 ADD MLOAD DUP2 DUP5 ADD MSTORE PUSH1 0x20 DUP2 ADD SWAP1 POP PUSH2 0x57C JUMP JUMPDEST DUP4 DUP2 GT ISZERO PUSH2 0x5A6 JUMPI PUSH1 0x0 DUP5 DUP5 ADD MSTORE JUMPDEST POP POP POP POP JUMP JUMPDEST PUSH1 0x0 PUSH1 0x2 DUP3 DIV SWAP1 POP PUSH1 0x1 DUP3 AND DUP1 PUSH2 0x5C4 JUMPI PUSH1 0x7F DUP3 AND SWAP2 POP JUMPDEST PUSH1 0x20 DUP3 LT DUP2 EQ ISZERO PUSH2 0x5D8 JUMPI PUSH2 0x5D7 PUSH2 0x60F JUMP JUMPDEST JUMPDEST POP SWAP2 SWAP1 POP JUMP JUMPDEST PUSH2 0x5E7 DUP3 PUSH2 0x681 JUMP JUMPDEST DUP2 ADD DUP2 DUP2 LT PUSH8 0xFFFFFFFFFFFFFFFF DUP3 GT OR ISZERO PUSH2 0x606 JUMPI PUSH2 0x605 PUSH2 0x63E JUMP JUMPDEST JUMPDEST DUP1 PUSH1 0x40 MSTORE POP POP POP JUMP JUMPDEST PUSH32 0x4E487B7100000000000000000000000000000000000000000000000000000000 PUSH1 0x0 MSTORE PUSH1 0x22 PUSH1 0x4 MSTORE PUSH1 0x24 PUSH1 0x0 REVERT JUMPDEST PUSH32 0x4E487B7100000000000000000000000000000000000000000000000000000000 PUSH1 0x0 MSTORE PUSH1 0x41 PUSH1 0x4 MSTORE PUSH1 0x24 PUSH1 0x0 REVERT JUMPDEST PUSH1 0x0 DUP1 REVERT JUMPDEST PUSH1 0x0 DUP1 REVERT JUMPDEST PUSH1 0x0 DUP1 REVERT JUMPDEST PUSH1 0x0 DUP1 REVERT JUMPDEST PUSH1 0x0 PUSH1 0x1F NOT PUSH1 0x1F DUP4 ADD AND SWAP1 POP SWAP2 SWAP1 POP JUMP JUMPDEST PUSH32 0x596F75277220696E666F6D6174696F6E20616C72656164792072656769737465 PUSH1 0x0 DUP3 ADD MSTORE PUSH32 0x6400000000000000000000000000000000000000000000000000000000000000 PUSH1 0x20 DUP3 ADD MSTORE POP JUMP JUMPDEST PUSH2 0x6EA DUP2 PUSH2 0x560 JUMP JUMPDEST DUP2 EQ PUSH2 0x6F5 JUMPI PUSH1 0x0 DUP1 REVERT JUMPDEST POP JUMP INVALID LOG2 PUSH5 0x6970667358 0x22 SLT KECCAK256 PUSH10 0x69DE8DA4EC8C3361651 0x2D LOG3 EXTCODESIZE 0x2E SHL 0x28 0x5D PUSH8 0x649AA451C52835B7 0x4E PUSH31 0xD018AD64736F6C634300080700330000000000000000000000000000000000 "
				},
				"gasEstimates": {
					"creation": {
						"codeDepositCost": "367600",
						"executionCost": "infinite",
						"totalCost": "infinite"
					},
					"external": {
						"addStudentInfo(uint256,string)": "infinite",
						"getStudentInfo()": "infinite"
					}
				},
				"methodIdentifiers": {
					"addStudentInfo(uint256,string)": "bd657a85",
					"getStudentInfo()": "a1e68c52"
				}
			},
			"storageLayout": {
				"storage": [
					{
						"astId": 118,
						"contract": "contracts/student.sol:Student",
						"label": "studentInfo",
						"offset": 0,
						"slot": "0",
						"type": "t_struct(information)110_storage"
					},
					{
						"astId": 120,
						"contract": "contracts/student.sol:Student",
						"label": "owner",
						"offset": 0,
						"slot": "3",
						"type": "t_address"
					}
				],
				"types": {
					"t_address": {
						"encoding": "inplace",
						"label": "address",
						"numberOfBytes": "20"
					},
					"t_string_storage": {
						"encoding": "bytes",
						"label": "string",
						"numberOfBytes": "32"
					},
					"t_struct(information)110_storage": {
						"encoding": "inplace",
						"label": "struct Student.information",
						"members": [
							{
								"astId": 105,
								"contract": "contracts/student.sol:Student",
								"label": "studentId",
								"offset": 0,
								"slot": "0",
								"type": "t_uint256"
							},
							{
								"astId": 107,
								"contract": "contracts/student.sol:Student",
								"label": "studentName",
								"offset": 0,
								"slot": "1",
								"type": "t_string_storage"
							},
							{
								"astId": 109,
								"contract": "contracts/student.sol:Student",
								"label": "studentAddress",
								"offset": 0,
								"slot": "2",
								"type": "t_address"
							}
						],
						"numberOfBytes": "96"
					},
					"t_uint256": {
						"encoding": "inplace",
						"label": "uint256",
						"numberOfBytes": "32"
					}
				}
			},
			"userdoc": {
				"kind": "user",
				"methods": {},
				"version": 1
			}
		}
	}
}