{
	"contracts/main.sol": {
		"smartReservation": {
			"abi": [
				{
					"inputs": [],
					"stateMutability": "nonpayable",
					"type": "constructor"
				},
				{
					"inputs": [
						{
							"internalType": "uint256",
							"name": "_num",
							"type": "uint256"
						},
						{
							"internalType": "string[]",
							"name": "_datas",
							"type": "string[]"
						}
					],
					"name": "addBus",
					"outputs": [],
					"stateMutability": "nonpayable",
					"type": "function"
				}
			],
			"devdoc": {
				"kind": "dev",
				"methods": {},
				"version": 1
			},
			"evm": {
				"assembly": "    /* \"contracts/main.sol\":144:546  contract smartReservation{... */\n  mstore(0x40, 0x80)\n    /* \"contracts/main.sol\":237:287  constructor(){... */\n  callvalue\n  dup1\n  iszero\n  tag_1\n  jumpi\n  0x00\n  dup1\n  revert\ntag_1:\n  pop\n    /* \"contracts/main.sol\":270:280  msg.sender */\n  caller\n    /* \"contracts/main.sol\":260:267  manager */\n  0x00\n  dup1\n    /* \"contracts/main.sol\":260:280  manager = msg.sender */\n  0x0100\n  exp\n  dup2\n  sload\n  dup2\n  0xffffffffffffffffffffffffffffffffffffffff\n  mul\n  not\n  and\n  swap1\n  dup4\n  0xffffffffffffffffffffffffffffffffffffffff\n  and\n  mul\n  or\n  swap1\n  sstore\n  pop\n    /* \"contracts/main.sol\":144:546  contract smartReservation{... */\n  dataSize(sub_0)\n  dup1\n  dataOffset(sub_0)\n  0x00\n  codecopy\n  0x00\n  return\nstop\n\nsub_0: assembly {\n        /* \"contracts/main.sol\":144:546  contract smartReservation{... */\n      mstore(0x40, 0x80)\n      callvalue\n      dup1\n      iszero\n      tag_1\n      jumpi\n      0x00\n      dup1\n      revert\n    tag_1:\n      pop\n      jumpi(tag_2, lt(calldatasize, 0x04))\n      shr(0xe0, calldataload(0x00))\n      dup1\n      0x807006bb\n      eq\n      tag_3\n      jumpi\n    tag_2:\n      0x00\n      dup1\n      revert\n        /* \"contracts/main.sol\":364:544  function addBus(uint _num,string[] memory _datas) public{... */\n    tag_3:\n      tag_4\n      0x04\n      dup1\n      calldatasize\n      sub\n      dup2\n      add\n      swap1\n      tag_5\n      swap2\n      swap1\n      tag_6\n      jump\t// in\n    tag_5:\n      tag_7\n      jump\t// in\n    tag_4:\n      stop\n    tag_7:\n        /* \"contracts/main.sol\":452:459  manager */\n      0x00\n      dup1\n      sload\n      swap1\n      0x0100\n      exp\n      swap1\n      div\n      0xffffffffffffffffffffffffffffffffffffffff\n      and\n        /* \"contracts/main.sol\":438:459  msg.sender == manager */\n      0xffffffffffffffffffffffffffffffffffffffff\n      and\n        /* \"contracts/main.sol\":438:448  msg.sender */\n      caller\n        /* \"contracts/main.sol\":438:459  msg.sender == manager */\n      0xffffffffffffffffffffffffffffffffffffffff\n      and\n      eq\n        /* \"contracts/main.sol\":430:497  require(msg.sender == manager,... */\n      tag_9\n      jumpi\n      mload(0x40)\n      0x08c379a000000000000000000000000000000000000000000000000000000000\n      dup2\n      mstore\n      0x04\n      add\n      tag_10\n      swap1\n      tag_11\n      jump\t// in\n    tag_10:\n      mload(0x40)\n      dup1\n      swap2\n      sub\n      swap1\n      revert\n    tag_9:\n        /* \"contracts/main.sol\":532:536  _num */\n      dup2\n        /* \"contracts/main.sol\":524:537  new Bus(_num) */\n      mload(0x40)\n      tag_12\n      swap1\n      tag_13\n      jump\t// in\n    tag_12:\n      tag_14\n      swap2\n      swap1\n      tag_15\n      jump\t// in\n    tag_14:\n      mload(0x40)\n      dup1\n      swap2\n      sub\n      swap1\n      0x00\n      create\n      dup1\n      iszero\n      dup1\n      iszero\n      tag_16\n      jumpi\n      returndatasize\n      0x00\n      dup1\n      returndatacopy\n      revert(0x00, returndatasize)\n    tag_16:\n      pop\n        /* \"contracts/main.sol\":512:515  bus */\n      0x01\n        /* \"contracts/main.sol\":512:521  bus[_num] */\n      0x00\n        /* \"contracts/main.sol\":516:520  _num */\n      dup5\n        /* \"contracts/main.sol\":512:521  bus[_num] */\n      dup2\n      mstore\n      0x20\n      add\n      swap1\n      dup2\n      mstore\n      0x20\n      add\n      0x00\n      keccak256\n      0x00\n        /* \"contracts/main.sol\":512:537  bus[_num] = new Bus(_num) */\n      0x0100\n      exp\n      dup2\n      sload\n      dup2\n      0xffffffffffffffffffffffffffffffffffffffff\n      mul\n      not\n      and\n      swap1\n      dup4\n      0xffffffffffffffffffffffffffffffffffffffff\n      and\n      mul\n      or\n      swap1\n      sstore\n      pop\n        /* \"contracts/main.sol\":364:544  function addBus(uint _num,string[] memory _datas) public{... */\n      pop\n      pop\n      jump\t// out\n    tag_13:\n      dataSize(sub_0)\n      dup1\n      dataOffset(sub_0)\n      dup4\n      codecopy\n      add\n      swap1\n      jump\t// out\n        /* \"#utility.yul\":23:980   */\n    tag_18:\n        /* \"#utility.yul\":129:134   */\n      0x00\n        /* \"#utility.yul\":154:245   */\n      tag_20\n        /* \"#utility.yul\":170:244   */\n      tag_21\n        /* \"#utility.yul\":237:243   */\n      dup5\n        /* \"#utility.yul\":170:244   */\n      tag_22\n      jump\t// in\n    tag_21:\n        /* \"#utility.yul\":154:245   */\n      tag_23\n      jump\t// in\n    tag_20:\n        /* \"#utility.yul\":145:245   */\n      swap1\n      pop\n        /* \"#utility.yul\":265:270   */\n      dup1\n        /* \"#utility.yul\":294:300   */\n      dup4\n        /* \"#utility.yul\":287:292   */\n      dup3\n        /* \"#utility.yul\":280:301   */\n      mstore\n        /* \"#utility.yul\":328:332   */\n      0x20\n        /* \"#utility.yul\":321:326   */\n      dup3\n        /* \"#utility.yul\":317:333   */\n      add\n        /* \"#utility.yul\":310:333   */\n      swap1\n      pop\n        /* \"#utility.yul\":354:360   */\n      dup3\n        /* \"#utility.yul\":404:407   */\n      dup6\n        /* \"#utility.yul\":396:400   */\n      0x20\n        /* \"#utility.yul\":388:394   */\n      dup7\n        /* \"#utility.yul\":384:401   */\n      mul\n        /* \"#utility.yul\":379:382   */\n      dup3\n        /* \"#utility.yul\":375:402   */\n      add\n        /* \"#utility.yul\":372:408   */\n      gt\n        /* \"#utility.yul\":369:512   */\n      iszero\n      tag_24\n      jumpi\n        /* \"#utility.yul\":423:502   */\n      tag_25\n      tag_26\n      jump\t// in\n    tag_25:\n        /* \"#utility.yul\":369:512   */\n    tag_24:\n        /* \"#utility.yul\":536:537   */\n      0x00\n        /* \"#utility.yul\":521:974   */\n    tag_27:\n        /* \"#utility.yul\":546:552   */\n      dup6\n        /* \"#utility.yul\":543:544   */\n      dup2\n        /* \"#utility.yul\":540:553   */\n      lt\n        /* \"#utility.yul\":521:974   */\n      iszero\n      tag_29\n      jumpi\n        /* \"#utility.yul\":628:631   */\n      dup2\n        /* \"#utility.yul\":615:632   */\n      calldataload\n        /* \"#utility.yul\":664:682   */\n      0xffffffffffffffff\n        /* \"#utility.yul\":651:662   */\n      dup2\n        /* \"#utility.yul\":648:683   */\n      gt\n        /* \"#utility.yul\":645:767   */\n      iszero\n      tag_30\n      jumpi\n        /* \"#utility.yul\":686:765   */\n      tag_31\n      tag_32\n      jump\t// in\n    tag_31:\n        /* \"#utility.yul\":645:767   */\n    tag_30:\n        /* \"#utility.yul\":810:821   */\n      dup1\n        /* \"#utility.yul\":802:808   */\n      dup7\n        /* \"#utility.yul\":798:822   */\n      add\n        /* \"#utility.yul\":848:895   */\n      tag_33\n        /* \"#utility.yul\":891:894   */\n      dup10\n        /* \"#utility.yul\":879:889   */\n      dup3\n        /* \"#utility.yul\":848:895   */\n      tag_34\n      jump\t// in\n    tag_33:\n        /* \"#utility.yul\":843:846   */\n      dup6\n        /* \"#utility.yul\":836:896   */\n      mstore\n        /* \"#utility.yul\":925:929   */\n      0x20\n        /* \"#utility.yul\":920:923   */\n      dup6\n        /* \"#utility.yul\":916:930   */\n      add\n        /* \"#utility.yul\":909:930   */\n      swap5\n      pop\n        /* \"#utility.yul\":959:963   */\n      0x20\n        /* \"#utility.yul\":954:957   */\n      dup5\n        /* \"#utility.yul\":950:964   */\n      add\n        /* \"#utility.yul\":943:964   */\n      swap4\n      pop\n        /* \"#utility.yul\":581:974   */\n      pop\n      pop\n        /* \"#utility.yul\":568:569   */\n      0x01\n        /* \"#utility.yul\":565:566   */\n      dup2\n        /* \"#utility.yul\":561:570   */\n      add\n        /* \"#utility.yul\":556:570   */\n      swap1\n      pop\n        /* \"#utility.yul\":521:974   */\n      jump(tag_27)\n    tag_29:\n        /* \"#utility.yul\":525:539   */\n      pop\n        /* \"#utility.yul\":135:980   */\n      pop\n      pop\n        /* \"#utility.yul\":23:980   */\n      swap4\n      swap3\n      pop\n      pop\n      pop\n      jump\t// out\n        /* \"#utility.yul\":986:1398   */\n    tag_35:\n        /* \"#utility.yul\":1064:1069   */\n      0x00\n        /* \"#utility.yul\":1089:1155   */\n      tag_37\n        /* \"#utility.yul\":1105:1154   */\n      tag_38\n        /* \"#utility.yul\":1147:1153   */\n      dup5\n        /* \"#utility.yul\":1105:1154   */\n      tag_39\n      jump\t// in\n    tag_38:\n        /* \"#utility.yul\":1089:1155   */\n      tag_23\n      jump\t// in\n    tag_37:\n        /* \"#utility.yul\":1080:1155   */\n      swap1\n      pop\n        /* \"#utility.yul\":1178:1184   */\n      dup3\n        /* \"#utility.yul\":1171:1176   */\n      dup2\n        /* \"#utility.yul\":1164:1185   */\n      mstore\n        /* \"#utility.yul\":1216:1220   */\n      0x20\n        /* \"#utility.yul\":1209:1214   */\n      dup2\n        /* \"#utility.yul\":1205:1221   */\n      add\n        /* \"#utility.yul\":1254:1257   */\n      dup5\n        /* \"#utility.yul\":1245:1251   */\n      dup5\n        /* \"#utility.yul\":1240:1243   */\n      dup5\n        /* \"#utility.yul\":1236:1252   */\n      add\n        /* \"#utility.yul\":1233:1258   */\n      gt\n        /* \"#utility.yul\":1230:1342   */\n      iszero\n      tag_40\n      jumpi\n        /* \"#utility.yul\":1261:1340   */\n      tag_41\n      tag_42\n      jump\t// in\n    tag_41:\n        /* \"#utility.yul\":1230:1342   */\n    tag_40:\n        /* \"#utility.yul\":1351:1392   */\n      tag_43\n        /* \"#utility.yul\":1385:1391   */\n      dup5\n        /* \"#utility.yul\":1380:1383   */\n      dup3\n        /* \"#utility.yul\":1375:1378   */\n      dup6\n        /* \"#utility.yul\":1351:1392   */\n      tag_44\n      jump\t// in\n    tag_43:\n        /* \"#utility.yul\":1070:1398   */\n      pop\n        /* \"#utility.yul\":986:1398   */\n      swap4\n      swap3\n      pop\n      pop\n      pop\n      jump\t// out\n        /* \"#utility.yul\":1420:1810   */\n    tag_45:\n        /* \"#utility.yul\":1501:1506   */\n      0x00\n        /* \"#utility.yul\":1550:1553   */\n      dup3\n        /* \"#utility.yul\":1543:1547   */\n      0x1f\n        /* \"#utility.yul\":1535:1541   */\n      dup4\n        /* \"#utility.yul\":1531:1548   */\n      add\n        /* \"#utility.yul\":1527:1554   */\n      slt\n        /* \"#utility.yul\":1517:1639   */\n      tag_47\n      jumpi\n        /* \"#utility.yul\":1558:1637   */\n      tag_48\n      tag_32\n      jump\t// in\n    tag_48:\n        /* \"#utility.yul\":1517:1639   */\n    tag_47:\n        /* \"#utility.yul\":1675:1681   */\n      dup2\n        /* \"#utility.yul\":1662:1682   */\n      calldataload\n        /* \"#utility.yul\":1700:1804   */\n      tag_49\n        /* \"#utility.yul\":1800:1803   */\n      dup5\n        /* \"#utility.yul\":1792:1798   */\n      dup3\n        /* \"#utility.yul\":1785:1789   */\n      0x20\n        /* \"#utility.yul\":1777:1783   */\n      dup7\n        /* \"#utility.yul\":1773:1790   */\n      add\n        /* \"#utility.yul\":1700:1804   */\n      tag_18\n      jump\t// in\n    tag_49:\n        /* \"#utility.yul\":1691:1804   */\n      swap2\n      pop\n        /* \"#utility.yul\":1507:1810   */\n      pop\n        /* \"#utility.yul\":1420:1810   */\n      swap3\n      swap2\n      pop\n      pop\n      jump\t// out\n        /* \"#utility.yul\":1830:2170   */\n    tag_34:\n        /* \"#utility.yul\":1886:1891   */\n      0x00\n        /* \"#utility.yul\":1935:1938   */\n      dup3\n        /* \"#utility.yul\":1928:1932   */\n      0x1f\n        /* \"#utility.yul\":1920:1926   */\n      dup4\n        /* \"#utility.yul\":1916:1933   */\n      add\n        /* \"#utility.yul\":1912:1939   */\n      slt\n        /* \"#utility.yul\":1902:2024   */\n      tag_51\n      jumpi\n        /* \"#utility.yul\":1943:2022   */\n      tag_52\n      tag_32\n      jump\t// in\n    tag_52:\n        /* \"#utility.yul\":1902:2024   */\n    tag_51:\n        /* \"#utility.yul\":2060:2066   */\n      dup2\n        /* \"#utility.yul\":2047:2067   */\n      calldataload\n        /* \"#utility.yul\":2085:2164   */\n      tag_53\n        /* \"#utility.yul\":2160:2163   */\n      dup5\n        /* \"#utility.yul\":2152:2158   */\n      dup3\n        /* \"#utility.yul\":2145:2149   */\n      0x20\n        /* \"#utility.yul\":2137:2143   */\n      dup7\n        /* \"#utility.yul\":2133:2150   */\n      add\n        /* \"#utility.yul\":2085:2164   */\n      tag_35\n      jump\t// in\n    tag_53:\n        /* \"#utility.yul\":2076:2164   */\n      swap2\n      pop\n        /* \"#utility.yul\":1892:2170   */\n      pop\n        /* \"#utility.yul\":1830:2170   */\n      swap3\n      swap2\n      pop\n      pop\n      jump\t// out\n        /* \"#utility.yul\":2176:2315   */\n    tag_54:\n        /* \"#utility.yul\":2222:2227   */\n      0x00\n        /* \"#utility.yul\":2260:2266   */\n      dup2\n        /* \"#utility.yul\":2247:2267   */\n      calldataload\n        /* \"#utility.yul\":2238:2267   */\n      swap1\n      pop\n        /* \"#utility.yul\":2276:2309   */\n      tag_56\n        /* \"#utility.yul\":2303:2308   */\n      dup2\n        /* \"#utility.yul\":2276:2309   */\n      tag_57\n      jump\t// in\n    tag_56:\n        /* \"#utility.yul\":2176:2315   */\n      swap3\n      swap2\n      pop\n      pop\n      jump\t// out\n        /* \"#utility.yul\":2321:3025   */\n    tag_6:\n        /* \"#utility.yul\":2424:2430   */\n      0x00\n        /* \"#utility.yul\":2432:2438   */\n      dup1\n        /* \"#utility.yul\":2481:2483   */\n      0x40\n        /* \"#utility.yul\":2469:2478   */\n      dup4\n        /* \"#utility.yul\":2460:2467   */\n      dup6\n        /* \"#utility.yul\":2456:2479   */\n      sub\n        /* \"#utility.yul\":2452:2484   */\n      slt\n        /* \"#utility.yul\":2449:2568   */\n      iszero\n      tag_59\n      jumpi\n        /* \"#utility.yul\":2487:2566   */\n      tag_60\n      tag_61\n      jump\t// in\n    tag_60:\n        /* \"#utility.yul\":2449:2568   */\n    tag_59:\n        /* \"#utility.yul\":2607:2608   */\n      0x00\n        /* \"#utility.yul\":2632:2685   */\n      tag_62\n        /* \"#utility.yul\":2677:2684   */\n      dup6\n        /* \"#utility.yul\":2668:2674   */\n      dup3\n        /* \"#utility.yul\":2657:2666   */\n      dup7\n        /* \"#utility.yul\":2653:2675   */\n      add\n        /* \"#utility.yul\":2632:2685   */\n      tag_54\n      jump\t// in\n    tag_62:\n        /* \"#utility.yul\":2622:2685   */\n      swap3\n      pop\n        /* \"#utility.yul\":2578:2695   */\n      pop\n        /* \"#utility.yul\":2762:2764   */\n      0x20\n        /* \"#utility.yul\":2751:2760   */\n      dup4\n        /* \"#utility.yul\":2747:2765   */\n      add\n        /* \"#utility.yul\":2734:2766   */\n      calldataload\n        /* \"#utility.yul\":2793:2811   */\n      0xffffffffffffffff\n        /* \"#utility.yul\":2785:2791   */\n      dup2\n        /* \"#utility.yul\":2782:2812   */\n      gt\n        /* \"#utility.yul\":2779:2896   */\n      iszero\n      tag_63\n      jumpi\n        /* \"#utility.yul\":2815:2894   */\n      tag_64\n      tag_65\n      jump\t// in\n    tag_64:\n        /* \"#utility.yul\":2779:2896   */\n    tag_63:\n        /* \"#utility.yul\":2920:3008   */\n      tag_66\n        /* \"#utility.yul\":3000:3007   */\n      dup6\n        /* \"#utility.yul\":2991:2997   */\n      dup3\n        /* \"#utility.yul\":2980:2989   */\n      dup7\n        /* \"#utility.yul\":2976:2998   */\n      add\n        /* \"#utility.yul\":2920:3008   */\n      tag_45\n      jump\t// in\n    tag_66:\n        /* \"#utility.yul\":2910:3008   */\n      swap2\n      pop\n        /* \"#utility.yul\":2705:3018   */\n      pop\n        /* \"#utility.yul\":2321:3025   */\n      swap3\n      pop\n      swap3\n      swap1\n      pop\n      jump\t// out\n        /* \"#utility.yul\":3031:3397   */\n    tag_67:\n        /* \"#utility.yul\":3173:3176   */\n      0x00\n        /* \"#utility.yul\":3194:3261   */\n      tag_69\n        /* \"#utility.yul\":3258:3260   */\n      0x15\n        /* \"#utility.yul\":3253:3256   */\n      dup4\n        /* \"#utility.yul\":3194:3261   */\n      tag_70\n      jump\t// in\n    tag_69:\n        /* \"#utility.yul\":3187:3261   */\n      swap2\n      pop\n        /* \"#utility.yul\":3270:3363   */\n      tag_71\n        /* \"#utility.yul\":3359:3362   */\n      dup3\n        /* \"#utility.yul\":3270:3363   */\n      tag_72\n      jump\t// in\n    tag_71:\n        /* \"#utility.yul\":3388:3390   */\n      0x20\n        /* \"#utility.yul\":3383:3386   */\n      dup3\n        /* \"#utility.yul\":3379:3391   */\n      add\n        /* \"#utility.yul\":3372:3391   */\n      swap1\n      pop\n        /* \"#utility.yul\":3031:3397   */\n      swap2\n      swap1\n      pop\n      jump\t// out\n        /* \"#utility.yul\":3403:3521   */\n    tag_73:\n        /* \"#utility.yul\":3490:3514   */\n      tag_75\n        /* \"#utility.yul\":3508:3513   */\n      dup2\n        /* \"#utility.yul\":3490:3514   */\n      tag_76\n      jump\t// in\n    tag_75:\n        /* \"#utility.yul\":3485:3488   */\n      dup3\n        /* \"#utility.yul\":3478:3515   */\n      mstore\n        /* \"#utility.yul\":3403:3521   */\n      pop\n      pop\n      jump\t// out\n        /* \"#utility.yul\":3527:3946   */\n    tag_11:\n        /* \"#utility.yul\":3693:3697   */\n      0x00\n        /* \"#utility.yul\":3731:3733   */\n      0x20\n        /* \"#utility.yul\":3720:3729   */\n      dup3\n        /* \"#utility.yul\":3716:3734   */\n      add\n        /* \"#utility.yul\":3708:3734   */\n      swap1\n      pop\n        /* \"#utility.yul\":3780:3789   */\n      dup2\n        /* \"#utility.yul\":3774:3778   */\n      dup2\n        /* \"#utility.yul\":3770:3790   */\n      sub\n        /* \"#utility.yul\":3766:3767   */\n      0x00\n        /* \"#utility.yul\":3755:3764   */\n      dup4\n        /* \"#utility.yul\":3751:3768   */\n      add\n        /* \"#utility.yul\":3744:3791   */\n      mstore\n        /* \"#utility.yul\":3808:3939   */\n      tag_78\n        /* \"#utility.yul\":3934:3938   */\n      dup2\n        /* \"#utility.yul\":3808:3939   */\n      tag_67\n      jump\t// in\n    tag_78:\n        /* \"#utility.yul\":3800:3939   */\n      swap1\n      pop\n        /* \"#utility.yul\":3527:3946   */\n      swap2\n      swap1\n      pop\n      jump\t// out\n        /* \"#utility.yul\":3952:4174   */\n    tag_15:\n        /* \"#utility.yul\":4045:4049   */\n      0x00\n        /* \"#utility.yul\":4083:4085   */\n      0x20\n        /* \"#utility.yul\":4072:4081   */\n      dup3\n        /* \"#utility.yul\":4068:4086   */\n      add\n        /* \"#utility.yul\":4060:4086   */\n      swap1\n      pop\n        /* \"#utility.yul\":4096:4167   */\n      tag_80\n        /* \"#utility.yul\":4164:4165   */\n      0x00\n        /* \"#utility.yul\":4153:4162   */\n      dup4\n        /* \"#utility.yul\":4149:4166   */\n      add\n        /* \"#utility.yul\":4140:4146   */\n      dup5\n        /* \"#utility.yul\":4096:4167   */\n      tag_73\n      jump\t// in\n    tag_80:\n        /* \"#utility.yul\":3952:4174   */\n      swap3\n      swap2\n      pop\n      pop\n      jump\t// out\n        /* \"#utility.yul\":4180:4309   */\n    tag_23:\n        /* \"#utility.yul\":4214:4220   */\n      0x00\n        /* \"#utility.yul\":4241:4261   */\n      tag_82\n      tag_83\n      jump\t// in\n    tag_82:\n        /* \"#utility.yul\":4231:4261   */\n      swap1\n      pop\n        /* \"#utility.yul\":4270:4303   */\n      tag_84\n        /* \"#utility.yul\":4298:4302   */\n      dup3\n        /* \"#utility.yul\":4290:4296   */\n      dup3\n        /* \"#utility.yul\":4270:4303   */\n      tag_85\n      jump\t// in\n    tag_84:\n        /* \"#utility.yul\":4180:4309   */\n      swap2\n      swap1\n      pop\n      jump\t// out\n        /* \"#utility.yul\":4315:4390   */\n    tag_83:\n        /* \"#utility.yul\":4348:4354   */\n      0x00\n        /* \"#utility.yul\":4381:4383   */\n      0x40\n        /* \"#utility.yul\":4375:4384   */\n      mload\n        /* \"#utility.yul\":4365:4384   */\n      swap1\n      pop\n        /* \"#utility.yul\":4315:4390   */\n      swap1\n      jump\t// out\n        /* \"#utility.yul\":4396:4717   */\n    tag_22:\n        /* \"#utility.yul\":4483:4487   */\n      0x00\n        /* \"#utility.yul\":4573:4591   */\n      0xffffffffffffffff\n        /* \"#utility.yul\":4565:4571   */\n      dup3\n        /* \"#utility.yul\":4562:4592   */\n      gt\n        /* \"#utility.yul\":4559:4615   */\n      iszero\n      tag_88\n      jumpi\n        /* \"#utility.yul\":4595:4613   */\n      tag_89\n      tag_90\n      jump\t// in\n    tag_89:\n        /* \"#utility.yul\":4559:4615   */\n    tag_88:\n        /* \"#utility.yul\":4645:4649   */\n      0x20\n        /* \"#utility.yul\":4637:4643   */\n      dup3\n        /* \"#utility.yul\":4633:4650   */\n      mul\n        /* \"#utility.yul\":4625:4650   */\n      swap1\n      pop\n        /* \"#utility.yul\":4705:4709   */\n      0x20\n        /* \"#utility.yul\":4699:4703   */\n      dup2\n        /* \"#utility.yul\":4695:4710   */\n      add\n        /* \"#utility.yul\":4687:4710   */\n      swap1\n      pop\n        /* \"#utility.yul\":4396:4717   */\n      swap2\n      swap1\n      pop\n      jump\t// out\n        /* \"#utility.yul\":4723:5031   */\n    tag_39:\n        /* \"#utility.yul\":4785:4789   */\n      0x00\n        /* \"#utility.yul\":4875:4893   */\n      0xffffffffffffffff\n        /* \"#utility.yul\":4867:4873   */\n      dup3\n        /* \"#utility.yul\":4864:4894   */\n      gt\n        /* \"#utility.yul\":4861:4917   */\n      iszero\n      tag_92\n      jumpi\n        /* \"#utility.yul\":4897:4915   */\n      tag_93\n      tag_90\n      jump\t// in\n    tag_93:\n        /* \"#utility.yul\":4861:4917   */\n    tag_92:\n        /* \"#utility.yul\":4935:4964   */\n      tag_94\n        /* \"#utility.yul\":4957:4963   */\n      dup3\n        /* \"#utility.yul\":4935:4964   */\n      tag_95\n      jump\t// in\n    tag_94:\n        /* \"#utility.yul\":4927:4964   */\n      swap1\n      pop\n        /* \"#utility.yul\":5019:5023   */\n      0x20\n        /* \"#utility.yul\":5013:5017   */\n      dup2\n        /* \"#utility.yul\":5009:5024   */\n      add\n        /* \"#utility.yul\":5001:5024   */\n      swap1\n      pop\n        /* \"#utility.yul\":4723:5031   */\n      swap2\n      swap1\n      pop\n      jump\t// out\n        /* \"#utility.yul\":5037:5206   */\n    tag_70:\n        /* \"#utility.yul\":5121:5132   */\n      0x00\n        /* \"#utility.yul\":5155:5161   */\n      dup3\n        /* \"#utility.yul\":5150:5153   */\n      dup3\n        /* \"#utility.yul\":5143:5162   */\n      mstore\n        /* \"#utility.yul\":5195:5199   */\n      0x20\n        /* \"#utility.yul\":5190:5193   */\n      dup3\n        /* \"#utility.yul\":5186:5200   */\n      add\n        /* \"#utility.yul\":5171:5200   */\n      swap1\n      pop\n        /* \"#utility.yul\":5037:5206   */\n      swap3\n      swap2\n      pop\n      pop\n      jump\t// out\n        /* \"#utility.yul\":5212:5289   */\n    tag_76:\n        /* \"#utility.yul\":5249:5256   */\n      0x00\n        /* \"#utility.yul\":5278:5283   */\n      dup2\n        /* \"#utility.yul\":5267:5283   */\n      swap1\n      pop\n        /* \"#utility.yul\":5212:5289   */\n      swap2\n      swap1\n      pop\n      jump\t// out\n        /* \"#utility.yul\":5295:5449   */\n    tag_44:\n        /* \"#utility.yul\":5379:5385   */\n      dup3\n        /* \"#utility.yul\":5374:5377   */\n      dup2\n        /* \"#utility.yul\":5369:5372   */\n      dup4\n        /* \"#utility.yul\":5356:5386   */\n      calldatacopy\n        /* \"#utility.yul\":5441:5442   */\n      0x00\n        /* \"#utility.yul\":5432:5438   */\n      dup4\n        /* \"#utility.yul\":5427:5430   */\n      dup4\n        /* \"#utility.yul\":5423:5439   */\n      add\n        /* \"#utility.yul\":5416:5443   */\n      mstore\n        /* \"#utility.yul\":5295:5449   */\n      pop\n      pop\n      pop\n      jump\t// out\n        /* \"#utility.yul\":5455:5736   */\n    tag_85:\n        /* \"#utility.yul\":5538:5565   */\n      tag_100\n        /* \"#utility.yul\":5560:5564   */\n      dup3\n        /* \"#utility.yul\":5538:5565   */\n      tag_95\n      jump\t// in\n    tag_100:\n        /* \"#utility.yul\":5530:5536   */\n      dup2\n        /* \"#utility.yul\":5526:5566   */\n      add\n        /* \"#utility.yul\":5668:5674   */\n      dup2\n        /* \"#utility.yul\":5656:5666   */\n      dup2\n        /* \"#utility.yul\":5653:5675   */\n      lt\n        /* \"#utility.yul\":5632:5650   */\n      0xffffffffffffffff\n        /* \"#utility.yul\":5620:5630   */\n      dup3\n        /* \"#utility.yul\":5617:5651   */\n      gt\n        /* \"#utility.yul\":5614:5676   */\n      or\n        /* \"#utility.yul\":5611:5699   */\n      iszero\n      tag_101\n      jumpi\n        /* \"#utility.yul\":5679:5697   */\n      tag_102\n      tag_90\n      jump\t// in\n    tag_102:\n        /* \"#utility.yul\":5611:5699   */\n    tag_101:\n        /* \"#utility.yul\":5719:5729   */\n      dup1\n        /* \"#utility.yul\":5715:5717   */\n      0x40\n        /* \"#utility.yul\":5708:5730   */\n      mstore\n        /* \"#utility.yul\":5498:5736   */\n      pop\n        /* \"#utility.yul\":5455:5736   */\n      pop\n      pop\n      jump\t// out\n        /* \"#utility.yul\":5742:5922   */\n    tag_90:\n        /* \"#utility.yul\":5790:5867   */\n      0x4e487b7100000000000000000000000000000000000000000000000000000000\n        /* \"#utility.yul\":5787:5788   */\n      0x00\n        /* \"#utility.yul\":5780:5868   */\n      mstore\n        /* \"#utility.yul\":5887:5891   */\n      0x41\n        /* \"#utility.yul\":5884:5885   */\n      0x04\n        /* \"#utility.yul\":5877:5892   */\n      mstore\n        /* \"#utility.yul\":5911:5915   */\n      0x24\n        /* \"#utility.yul\":5908:5909   */\n      0x00\n        /* \"#utility.yul\":5901:5916   */\n      revert\n        /* \"#utility.yul\":5928:6045   */\n    tag_32:\n        /* \"#utility.yul\":6037:6038   */\n      0x00\n        /* \"#utility.yul\":6034:6035   */\n      dup1\n        /* \"#utility.yul\":6027:6039   */\n      revert\n        /* \"#utility.yul\":6051:6168   */\n    tag_26:\n        /* \"#utility.yul\":6160:6161   */\n      0x00\n        /* \"#utility.yul\":6157:6158   */\n      dup1\n        /* \"#utility.yul\":6150:6162   */\n      revert\n        /* \"#utility.yul\":6174:6291   */\n    tag_42:\n        /* \"#utility.yul\":6283:6284   */\n      0x00\n        /* \"#utility.yul\":6280:6281   */\n      dup1\n        /* \"#utility.yul\":6273:6285   */\n      revert\n        /* \"#utility.yul\":6297:6414   */\n    tag_65:\n        /* \"#utility.yul\":6406:6407   */\n      0x00\n        /* \"#utility.yul\":6403:6404   */\n      dup1\n        /* \"#utility.yul\":6396:6408   */\n      revert\n        /* \"#utility.yul\":6420:6537   */\n    tag_61:\n        /* \"#utility.yul\":6529:6530   */\n      0x00\n        /* \"#utility.yul\":6526:6527   */\n      dup1\n        /* \"#utility.yul\":6519:6531   */\n      revert\n        /* \"#utility.yul\":6543:6645   */\n    tag_95:\n        /* \"#utility.yul\":6584:6590   */\n      0x00\n        /* \"#utility.yul\":6635:6637   */\n      0x1f\n        /* \"#utility.yul\":6631:6638   */\n      not\n        /* \"#utility.yul\":6626:6628   */\n      0x1f\n        /* \"#utility.yul\":6619:6624   */\n      dup4\n        /* \"#utility.yul\":6615:6629   */\n      add\n        /* \"#utility.yul\":6611:6639   */\n      and\n        /* \"#utility.yul\":6601:6639   */\n      swap1\n      pop\n        /* \"#utility.yul\":6543:6645   */\n      swap2\n      swap1\n      pop\n      jump\t// out\n        /* \"#utility.yul\":6651:6822   */\n    tag_72:\n        /* \"#utility.yul\":6791:6814   */\n      0x63616c6c6572206973206e6f74204d616e616765720000000000000000000000\n        /* \"#utility.yul\":6787:6788   */\n      0x00\n        /* \"#utility.yul\":6779:6785   */\n      dup3\n        /* \"#utility.yul\":6775:6789   */\n      add\n        /* \"#utility.yul\":6768:6815   */\n      mstore\n        /* \"#utility.yul\":6651:6822   */\n      pop\n      jump\t// out\n        /* \"#utility.yul\":6828:6950   */\n    tag_57:\n        /* \"#utility.yul\":6901:6925   */\n      tag_112\n        /* \"#utility.yul\":6919:6924   */\n      dup2\n        /* \"#utility.yul\":6901:6925   */\n      tag_76\n      jump\t// in\n    tag_112:\n        /* \"#utility.yul\":6894:6899   */\n      dup2\n        /* \"#utility.yul\":6891:6926   */\n      eq\n        /* \"#utility.yul\":6881:6944   */\n      tag_113\n      jumpi\n        /* \"#utility.yul\":6940:6941   */\n      0x00\n        /* \"#utility.yul\":6937:6938   */\n      dup1\n        /* \"#utility.yul\":6930:6942   */\n      revert\n        /* \"#utility.yul\":6881:6944   */\n    tag_113:\n        /* \"#utility.yul\":6828:6950   */\n      pop\n      jump\t// out\n    stop\n\n    sub_0: assembly {\n            /* \"contracts/Bus.sol\":102:604  contract Bus{... */\n          mstore(0x40, 0x80)\n            /* \"contracts/Bus.sol\":299:389  constructor(uint _num){... */\n          callvalue\n          dup1\n          iszero\n          tag_1\n          jumpi\n          0x00\n          dup1\n          revert\n        tag_1:\n          pop\n          mload(0x40)\n          sub(codesize, bytecodeSize)\n          dup1\n          bytecodeSize\n          dup4\n          codecopy\n          dup2\n          dup2\n          add\n          0x40\n          mstore\n          dup2\n          add\n          swap1\n          tag_2\n          swap2\n          swap1\n          tag_3\n          jump\t// in\n        tag_2:\n            /* \"contracts/Bus.sol\":341:345  _num */\n          dup1\n            /* \"contracts/Bus.sol\":332:338  busNum */\n          0x01\n            /* \"contracts/Bus.sol\":332:345  busNum = _num */\n          dup2\n          swap1\n          sstore\n          pop\n            /* \"contracts/Bus.sol\":299:389  constructor(uint _num){... */\n          pop\n            /* \"contracts/Bus.sol\":102:604  contract Bus{... */\n          jump(tag_6)\n            /* \"#utility.yul\":7:150   */\n        tag_8:\n            /* \"#utility.yul\":64:69   */\n          0x00\n            /* \"#utility.yul\":95:101   */\n          dup2\n            /* \"#utility.yul\":89:102   */\n          mload\n            /* \"#utility.yul\":80:102   */\n          swap1\n          pop\n            /* \"#utility.yul\":111:144   */\n          tag_10\n            /* \"#utility.yul\":138:143   */\n          dup2\n            /* \"#utility.yul\":111:144   */\n          tag_11\n          jump\t// in\n        tag_10:\n            /* \"#utility.yul\":7:150   */\n          swap3\n          swap2\n          pop\n          pop\n          jump\t// out\n            /* \"#utility.yul\":156:507   */\n        tag_3:\n            /* \"#utility.yul\":226:232   */\n          0x00\n            /* \"#utility.yul\":275:277   */\n          0x20\n            /* \"#utility.yul\":263:272   */\n          dup3\n            /* \"#utility.yul\":254:261   */\n          dup5\n            /* \"#utility.yul\":250:273   */\n          sub\n            /* \"#utility.yul\":246:278   */\n          slt\n            /* \"#utility.yul\":243:362   */\n          iszero\n          tag_13\n          jumpi\n            /* \"#utility.yul\":281:360   */\n          tag_14\n          tag_15\n          jump\t// in\n        tag_14:\n            /* \"#utility.yul\":243:362   */\n        tag_13:\n            /* \"#utility.yul\":401:402   */\n          0x00\n            /* \"#utility.yul\":426:490   */\n          tag_16\n            /* \"#utility.yul\":482:489   */\n          dup5\n            /* \"#utility.yul\":473:479   */\n          dup3\n            /* \"#utility.yul\":462:471   */\n          dup6\n            /* \"#utility.yul\":458:480   */\n          add\n            /* \"#utility.yul\":426:490   */\n          tag_8\n          jump\t// in\n        tag_16:\n            /* \"#utility.yul\":416:490   */\n          swap2\n          pop\n            /* \"#utility.yul\":372:500   */\n          pop\n            /* \"#utility.yul\":156:507   */\n          swap3\n          swap2\n          pop\n          pop\n          jump\t// out\n            /* \"#utility.yul\":594:671   */\n        tag_19:\n            /* \"#utility.yul\":631:638   */\n          0x00\n            /* \"#utility.yul\":660:665   */\n          dup2\n            /* \"#utility.yul\":649:665   */\n          swap1\n          pop\n            /* \"#utility.yul\":594:671   */\n          swap2\n          swap1\n          pop\n          jump\t// out\n            /* \"#utility.yul\":800:917   */\n        tag_15:\n            /* \"#utility.yul\":909:910   */\n          0x00\n            /* \"#utility.yul\":906:907   */\n          dup1\n            /* \"#utility.yul\":899:911   */\n          revert\n            /* \"#utility.yul\":923:1045   */\n        tag_11:\n            /* \"#utility.yul\":996:1020   */\n          tag_25\n            /* \"#utility.yul\":1014:1019   */\n          dup2\n            /* \"#utility.yul\":996:1020   */\n          tag_19\n          jump\t// in\n        tag_25:\n            /* \"#utility.yul\":989:994   */\n          dup2\n            /* \"#utility.yul\":986:1021   */\n          eq\n            /* \"#utility.yul\":976:1039   */\n          tag_26\n          jumpi\n            /* \"#utility.yul\":1035:1036   */\n          0x00\n            /* \"#utility.yul\":1032:1033   */\n          dup1\n            /* \"#utility.yul\":1025:1037   */\n          revert\n            /* \"#utility.yul\":976:1039   */\n        tag_26:\n            /* \"#utility.yul\":923:1045   */\n          pop\n          jump\t// out\n            /* \"contracts/Bus.sol\":102:604  contract Bus{... */\n        tag_6:\n          dataSize(sub_0)\n          dup1\n          dataOffset(sub_0)\n          0x00\n          codecopy\n          0x00\n          return\n        stop\n\n        sub_0: assembly {\n                /* \"contracts/Bus.sol\":102:604  contract Bus{... */\n              mstore(0x40, 0x80)\n              callvalue\n              dup1\n              iszero\n              tag_1\n              jumpi\n              0x00\n              dup1\n              revert\n            tag_1:\n              pop\n              jumpi(tag_2, lt(calldatasize, 0x04))\n              shr(0xe0, calldataload(0x00))\n              dup1\n              0x2a9788cd\n              eq\n              tag_3\n              jumpi\n              dup1\n              0xa434261f\n              eq\n              tag_4\n              jumpi\n            tag_2:\n              0x00\n              dup1\n              revert\n                /* \"contracts/Bus.sol\":402:438  mapping(uint => seat) public busSeat */\n            tag_3:\n              tag_5\n              0x04\n              dup1\n              calldatasize\n              sub\n              dup2\n              add\n              swap1\n              tag_6\n              swap2\n              swap1\n              tag_7\n              jump\t// in\n            tag_6:\n              tag_8\n              jump\t// in\n            tag_5:\n              mload(0x40)\n              tag_9\n              swap4\n              swap3\n              swap2\n              swap1\n              tag_10\n              jump\t// in\n            tag_9:\n              mload(0x40)\n              dup1\n              swap2\n              sub\n              swap1\n              return\n                /* \"contracts/Bus.sol\":445:600  function reservationBus( uint _seatNum, uint _studentId, address _student) public {... */\n            tag_4:\n              tag_11\n              0x04\n              dup1\n              calldatasize\n              sub\n              dup2\n              add\n              swap1\n              tag_12\n              swap2\n              swap1\n              tag_13\n              jump\t// in\n            tag_12:\n              tag_14\n              jump\t// in\n            tag_11:\n              stop\n                /* \"contracts/Bus.sol\":402:438  mapping(uint => seat) public busSeat */\n            tag_8:\n              mstore(0x20, 0x03)\n              dup1\n              0x00\n              mstore\n              keccak256(0x00, 0x40)\n              0x00\n              swap2\n              pop\n              swap1\n              pop\n              dup1\n              0x00\n              add\n              sload\n              swap1\n              dup1\n              0x01\n              add\n              sload\n              swap1\n              dup1\n              0x02\n              add\n              0x00\n              swap1\n              sload\n              swap1\n              0x0100\n              exp\n              swap1\n              div\n              0xffffffffffffffffffffffffffffffffffffffff\n              and\n              swap1\n              pop\n              dup4\n              jump\t// out\n                /* \"contracts/Bus.sol\":445:600  function reservationBus( uint _seatNum, uint _studentId, address _student) public {... */\n            tag_14:\n                /* \"contracts/Bus.sol\":557:593  seat(_seatNum, _studentId, _student) */\n              mload(0x40)\n              dup1\n              0x60\n              add\n              0x40\n              mstore\n              dup1\n                /* \"contracts/Bus.sol\":562:570  _seatNum */\n              dup5\n                /* \"contracts/Bus.sol\":557:593  seat(_seatNum, _studentId, _student) */\n              dup2\n              mstore\n              0x20\n              add\n                /* \"contracts/Bus.sol\":572:582  _studentId */\n              dup4\n                /* \"contracts/Bus.sol\":557:593  seat(_seatNum, _studentId, _student) */\n              dup2\n              mstore\n              0x20\n              add\n                /* \"contracts/Bus.sol\":584:592  _student */\n              dup3\n                /* \"contracts/Bus.sol\":557:593  seat(_seatNum, _studentId, _student) */\n              0xffffffffffffffffffffffffffffffffffffffff\n              and\n              dup2\n              mstore\n              pop\n                /* \"contracts/Bus.sol\":537:544  busSeat */\n              0x03\n                /* \"contracts/Bus.sol\":537:554  busSeat[_seatNum] */\n              0x00\n                /* \"contracts/Bus.sol\":545:553  _seatNum */\n              dup6\n                /* \"contracts/Bus.sol\":537:554  busSeat[_seatNum] */\n              dup2\n              mstore\n              0x20\n              add\n              swap1\n              dup2\n              mstore\n              0x20\n              add\n              0x00\n              keccak256\n                /* \"contracts/Bus.sol\":537:593  busSeat[_seatNum] = seat(_seatNum, _studentId, _student) */\n              0x00\n              dup3\n              add\n              mload\n              dup2\n              0x00\n              add\n              sstore\n              0x20\n              dup3\n              add\n              mload\n              dup2\n              0x01\n              add\n              sstore\n              0x40\n              dup3\n              add\n              mload\n              dup2\n              0x02\n              add\n              exp(0x0100, 0x00)\n              dup2\n              sload\n              dup2\n              0xffffffffffffffffffffffffffffffffffffffff\n              mul\n              not\n              and\n              swap1\n              dup4\n              0xffffffffffffffffffffffffffffffffffffffff\n              and\n              mul\n              or\n              swap1\n              sstore\n              pop\n              swap1\n              pop\n              pop\n                /* \"contracts/Bus.sol\":445:600  function reservationBus( uint _seatNum, uint _studentId, address _student) public {... */\n              pop\n              pop\n              pop\n              jump\t// out\n                /* \"#utility.yul\":7:146   */\n            tag_17:\n                /* \"#utility.yul\":53:58   */\n              0x00\n                /* \"#utility.yul\":91:97   */\n              dup2\n                /* \"#utility.yul\":78:98   */\n              calldataload\n                /* \"#utility.yul\":69:98   */\n              swap1\n              pop\n                /* \"#utility.yul\":107:140   */\n              tag_19\n                /* \"#utility.yul\":134:139   */\n              dup2\n                /* \"#utility.yul\":107:140   */\n              tag_20\n              jump\t// in\n            tag_19:\n                /* \"#utility.yul\":7:146   */\n              swap3\n              swap2\n              pop\n              pop\n              jump\t// out\n                /* \"#utility.yul\":152:291   */\n            tag_21:\n                /* \"#utility.yul\":198:203   */\n              0x00\n                /* \"#utility.yul\":236:242   */\n              dup2\n                /* \"#utility.yul\":223:243   */\n              calldataload\n                /* \"#utility.yul\":214:243   */\n              swap1\n              pop\n                /* \"#utility.yul\":252:285   */\n              tag_23\n                /* \"#utility.yul\":279:284   */\n              dup2\n                /* \"#utility.yul\":252:285   */\n              tag_24\n              jump\t// in\n            tag_23:\n                /* \"#utility.yul\":152:291   */\n              swap3\n              swap2\n              pop\n              pop\n              jump\t// out\n                /* \"#utility.yul\":297:626   */\n            tag_7:\n                /* \"#utility.yul\":356:362   */\n              0x00\n                /* \"#utility.yul\":405:407   */\n              0x20\n                /* \"#utility.yul\":393:402   */\n              dup3\n                /* \"#utility.yul\":384:391   */\n              dup5\n                /* \"#utility.yul\":380:403   */\n              sub\n                /* \"#utility.yul\":376:408   */\n              slt\n                /* \"#utility.yul\":373:492   */\n              iszero\n              tag_26\n              jumpi\n                /* \"#utility.yul\":411:490   */\n              tag_27\n              tag_28\n              jump\t// in\n            tag_27:\n                /* \"#utility.yul\":373:492   */\n            tag_26:\n                /* \"#utility.yul\":531:532   */\n              0x00\n                /* \"#utility.yul\":556:609   */\n              tag_29\n                /* \"#utility.yul\":601:608   */\n              dup5\n                /* \"#utility.yul\":592:598   */\n              dup3\n                /* \"#utility.yul\":581:590   */\n              dup6\n                /* \"#utility.yul\":577:599   */\n              add\n                /* \"#utility.yul\":556:609   */\n              tag_21\n              jump\t// in\n            tag_29:\n                /* \"#utility.yul\":546:609   */\n              swap2\n              pop\n                /* \"#utility.yul\":502:619   */\n              pop\n                /* \"#utility.yul\":297:626   */\n              swap3\n              swap2\n              pop\n              pop\n              jump\t// out\n                /* \"#utility.yul\":632:1251   */\n            tag_13:\n                /* \"#utility.yul\":709:715   */\n              0x00\n                /* \"#utility.yul\":717:723   */\n              dup1\n                /* \"#utility.yul\":725:731   */\n              0x00\n                /* \"#utility.yul\":774:776   */\n              0x60\n                /* \"#utility.yul\":762:771   */\n              dup5\n                /* \"#utility.yul\":753:760   */\n              dup7\n                /* \"#utility.yul\":749:772   */\n              sub\n                /* \"#utility.yul\":745:777   */\n              slt\n                /* \"#utility.yul\":742:861   */\n              iszero\n              tag_31\n              jumpi\n                /* \"#utility.yul\":780:859   */\n              tag_32\n              tag_28\n              jump\t// in\n            tag_32:\n                /* \"#utility.yul\":742:861   */\n            tag_31:\n                /* \"#utility.yul\":900:901   */\n              0x00\n                /* \"#utility.yul\":925:978   */\n              tag_33\n                /* \"#utility.yul\":970:977   */\n              dup7\n                /* \"#utility.yul\":961:967   */\n              dup3\n                /* \"#utility.yul\":950:959   */\n              dup8\n                /* \"#utility.yul\":946:968   */\n              add\n                /* \"#utility.yul\":925:978   */\n              tag_21\n              jump\t// in\n            tag_33:\n                /* \"#utility.yul\":915:978   */\n              swap4\n              pop\n                /* \"#utility.yul\":871:988   */\n              pop\n                /* \"#utility.yul\":1027:1029   */\n              0x20\n                /* \"#utility.yul\":1053:1106   */\n              tag_34\n                /* \"#utility.yul\":1098:1105   */\n              dup7\n                /* \"#utility.yul\":1089:1095   */\n              dup3\n                /* \"#utility.yul\":1078:1087   */\n              dup8\n                /* \"#utility.yul\":1074:1096   */\n              add\n                /* \"#utility.yul\":1053:1106   */\n              tag_21\n              jump\t// in\n            tag_34:\n                /* \"#utility.yul\":1043:1106   */\n              swap3\n              pop\n                /* \"#utility.yul\":998:1116   */\n              pop\n                /* \"#utility.yul\":1155:1157   */\n              0x40\n                /* \"#utility.yul\":1181:1234   */\n              tag_35\n                /* \"#utility.yul\":1226:1233   */\n              dup7\n                /* \"#utility.yul\":1217:1223   */\n              dup3\n                /* \"#utility.yul\":1206:1215   */\n              dup8\n                /* \"#utility.yul\":1202:1224   */\n              add\n                /* \"#utility.yul\":1181:1234   */\n              tag_17\n              jump\t// in\n            tag_35:\n                /* \"#utility.yul\":1171:1234   */\n              swap2\n              pop\n                /* \"#utility.yul\":1126:1244   */\n              pop\n                /* \"#utility.yul\":632:1251   */\n              swap3\n              pop\n              swap3\n              pop\n              swap3\n              jump\t// out\n                /* \"#utility.yul\":1257:1375   */\n            tag_36:\n                /* \"#utility.yul\":1344:1368   */\n              tag_38\n                /* \"#utility.yul\":1362:1367   */\n              dup2\n                /* \"#utility.yul\":1344:1368   */\n              tag_39\n              jump\t// in\n            tag_38:\n                /* \"#utility.yul\":1339:1342   */\n              dup3\n                /* \"#utility.yul\":1332:1369   */\n              mstore\n                /* \"#utility.yul\":1257:1375   */\n              pop\n              pop\n              jump\t// out\n                /* \"#utility.yul\":1381:1499   */\n            tag_40:\n                /* \"#utility.yul\":1468:1492   */\n              tag_42\n                /* \"#utility.yul\":1486:1491   */\n              dup2\n                /* \"#utility.yul\":1468:1492   */\n              tag_43\n              jump\t// in\n            tag_42:\n                /* \"#utility.yul\":1463:1466   */\n              dup3\n                /* \"#utility.yul\":1456:1493   */\n              mstore\n                /* \"#utility.yul\":1381:1499   */\n              pop\n              pop\n              jump\t// out\n                /* \"#utility.yul\":1505:1947   */\n            tag_10:\n                /* \"#utility.yul\":1654:1658   */\n              0x00\n                /* \"#utility.yul\":1692:1694   */\n              0x60\n                /* \"#utility.yul\":1681:1690   */\n              dup3\n                /* \"#utility.yul\":1677:1695   */\n              add\n                /* \"#utility.yul\":1669:1695   */\n              swap1\n              pop\n                /* \"#utility.yul\":1705:1776   */\n              tag_45\n                /* \"#utility.yul\":1773:1774   */\n              0x00\n                /* \"#utility.yul\":1762:1771   */\n              dup4\n                /* \"#utility.yul\":1758:1775   */\n              add\n                /* \"#utility.yul\":1749:1755   */\n              dup7\n                /* \"#utility.yul\":1705:1776   */\n              tag_40\n              jump\t// in\n            tag_45:\n                /* \"#utility.yul\":1786:1858   */\n              tag_46\n                /* \"#utility.yul\":1854:1856   */\n              0x20\n                /* \"#utility.yul\":1843:1852   */\n              dup4\n                /* \"#utility.yul\":1839:1857   */\n              add\n                /* \"#utility.yul\":1830:1836   */\n              dup6\n                /* \"#utility.yul\":1786:1858   */\n              tag_40\n              jump\t// in\n            tag_46:\n                /* \"#utility.yul\":1868:1940   */\n              tag_47\n                /* \"#utility.yul\":1936:1938   */\n              0x40\n                /* \"#utility.yul\":1925:1934   */\n              dup4\n                /* \"#utility.yul\":1921:1939   */\n              add\n                /* \"#utility.yul\":1912:1918   */\n              dup5\n                /* \"#utility.yul\":1868:1940   */\n              tag_36\n              jump\t// in\n            tag_47:\n                /* \"#utility.yul\":1505:1947   */\n              swap5\n              swap4\n              pop\n              pop\n              pop\n              pop\n              jump\t// out\n                /* \"#utility.yul\":2034:2130   */\n            tag_39:\n                /* \"#utility.yul\":2071:2078   */\n              0x00\n                /* \"#utility.yul\":2100:2124   */\n              tag_51\n                /* \"#utility.yul\":2118:2123   */\n              dup3\n                /* \"#utility.yul\":2100:2124   */\n              tag_52\n              jump\t// in\n            tag_51:\n                /* \"#utility.yul\":2089:2124   */\n              swap1\n              pop\n                /* \"#utility.yul\":2034:2130   */\n              swap2\n              swap1\n              pop\n              jump\t// out\n                /* \"#utility.yul\":2136:2262   */\n            tag_52:\n                /* \"#utility.yul\":2173:2180   */\n              0x00\n                /* \"#utility.yul\":2213:2255   */\n              0xffffffffffffffffffffffffffffffffffffffff\n                /* \"#utility.yul\":2206:2211   */\n              dup3\n                /* \"#utility.yul\":2202:2256   */\n              and\n                /* \"#utility.yul\":2191:2256   */\n              swap1\n              pop\n                /* \"#utility.yul\":2136:2262   */\n              swap2\n              swap1\n              pop\n              jump\t// out\n                /* \"#utility.yul\":2268:2345   */\n            tag_43:\n                /* \"#utility.yul\":2305:2312   */\n              0x00\n                /* \"#utility.yul\":2334:2339   */\n              dup2\n                /* \"#utility.yul\":2323:2339   */\n              swap1\n              pop\n                /* \"#utility.yul\":2268:2345   */\n              swap2\n              swap1\n              pop\n              jump\t// out\n                /* \"#utility.yul\":2474:2591   */\n            tag_28:\n                /* \"#utility.yul\":2583:2584   */\n              0x00\n                /* \"#utility.yul\":2580:2581   */\n              dup1\n                /* \"#utility.yul\":2573:2585   */\n              revert\n                /* \"#utility.yul\":2597:2719   */\n            tag_20:\n                /* \"#utility.yul\":2670:2694   */\n              tag_59\n                /* \"#utility.yul\":2688:2693   */\n              dup2\n                /* \"#utility.yul\":2670:2694   */\n              tag_39\n              jump\t// in\n            tag_59:\n                /* \"#utility.yul\":2663:2668   */\n              dup2\n                /* \"#utility.yul\":2660:2695   */\n              eq\n                /* \"#utility.yul\":2650:2713   */\n              tag_60\n              jumpi\n                /* \"#utility.yul\":2709:2710   */\n              0x00\n                /* \"#utility.yul\":2706:2707   */\n              dup1\n                /* \"#utility.yul\":2699:2711   */\n              revert\n                /* \"#utility.yul\":2650:2713   */\n            tag_60:\n                /* \"#utility.yul\":2597:2719   */\n              pop\n              jump\t// out\n                /* \"#utility.yul\":2725:2847   */\n            tag_24:\n                /* \"#utility.yul\":2798:2822   */\n              tag_62\n                /* \"#utility.yul\":2816:2821   */\n              dup2\n                /* \"#utility.yul\":2798:2822   */\n              tag_43\n              jump\t// in\n            tag_62:\n                /* \"#utility.yul\":2791:2796   */\n              dup2\n                /* \"#utility.yul\":2788:2823   */\n              eq\n                /* \"#utility.yul\":2778:2841   */\n              tag_63\n              jumpi\n                /* \"#utility.yul\":2837:2838   */\n              0x00\n                /* \"#utility.yul\":2834:2835   */\n              dup1\n                /* \"#utility.yul\":2827:2839   */\n              revert\n                /* \"#utility.yul\":2778:2841   */\n            tag_63:\n                /* \"#utility.yul\":2725:2847   */\n              pop\n              jump\t// out\n\n            auxdata: 0xa2646970667358221220d017fe7d6bc9dc5ce010b3d3c1d5044bc7cd3c8b088de6136675ad0f63ec518264736f6c63430008070033\n        }\n    }\n\n    auxdata: 0xa2646970667358221220b19836a71f6da6756698342f6429b902dce2c4e267cdbf5d623a3265067567a364736f6c63430008070033\n}\n",
				"bytecode": {
					"linkReferences": {},
					"object": "608060405234801561001057600080fd5b50336000806101000a81548173ffffffffffffffffffffffffffffffffffffffff021916908373ffffffffffffffffffffffffffffffffffffffff1602179055506108fa806100606000396000f3fe608060405234801561001057600080fd5b506004361061002b5760003560e01c8063807006bb14610030575b600080fd5b61004a600480360381019061004591906102b1565b61004c565b005b60008054906101000a900473ffffffffffffffffffffffffffffffffffffffff1673ffffffffffffffffffffffffffffffffffffffff163373ffffffffffffffffffffffffffffffffffffffff16146100da576040517f08c379a00000000000000000000000000000000000000000000000000000000081526004016100d19061033f565b60405180910390fd5b816040516100e790610163565b6100f1919061035f565b604051809103906000f08015801561010d573d6000803e3d6000fd5b506001600084815260200190815260200160002060006101000a81548173ffffffffffffffffffffffffffffffffffffffff021916908373ffffffffffffffffffffffffffffffffffffffff1602179055505050565b6103d4806104f183390190565b600061018361017e8461039f565b61037a565b905080838252602082019050828560208602820111156101a6576101a561048b565b5b60005b858110156101f457813567ffffffffffffffff8111156101cc576101cb610486565b5b8086016101d9898261026e565b855260208501945060208401935050506001810190506101a9565b5050509392505050565b600061021161020c846103cb565b61037a565b90508281526020810184848401111561022d5761022c610490565b5b610238848285610417565b509392505050565b600082601f83011261025557610254610486565b5b8135610265848260208601610170565b91505092915050565b600082601f83011261028357610282610486565b5b81356102938482602086016101fe565b91505092915050565b6000813590506102ab816104d9565b92915050565b600080604083850312156102c8576102c761049a565b5b60006102d68582860161029c565b925050602083013567ffffffffffffffff8111156102f7576102f6610495565b5b61030385828601610240565b9150509250929050565b600061031a6015836103fc565b9150610325826104b0565b602082019050919050565b6103398161040d565b82525050565b600060208201905081810360008301526103588161030d565b9050919050565b60006020820190506103746000830184610330565b92915050565b6000610384610395565b90506103908282610426565b919050565b6000604051905090565b600067ffffffffffffffff8211156103ba576103b9610457565b5b602082029050602081019050919050565b600067ffffffffffffffff8211156103e6576103e5610457565b5b6103ef8261049f565b9050602081019050919050565b600082825260208201905092915050565b6000819050919050565b82818337600083830152505050565b61042f8261049f565b810181811067ffffffffffffffff8211171561044e5761044d610457565b5b80604052505050565b7f4e487b7100000000000000000000000000000000000000000000000000000000600052604160045260246000fd5b600080fd5b600080fd5b600080fd5b600080fd5b600080fd5b6000601f19601f8301169050919050565b7f63616c6c6572206973206e6f74204d616e616765720000000000000000000000600082015250565b6104e28161040d565b81146104ed57600080fd5b5056fe608060405234801561001057600080fd5b506040516103d43803806103d483398181016040528101906100329190610054565b80600181905550506100a7565b60008151905061004e81610090565b92915050565b60006020828403121561006a5761006961008b565b5b60006100788482850161003f565b91505092915050565b6000819050919050565b600080fd5b61009981610081565b81146100a457600080fd5b50565b61031e806100b66000396000f3fe608060405234801561001057600080fd5b50600436106100365760003560e01c80632a9788cd1461003b578063a434261f1461006d575b600080fd5b610055600480360381019061005091906101a4565b610089565b60405161006493929190610242565b60405180910390f35b610087600480360381019061008291906101d1565b6100d3565b005b60036020528060005260406000206000915090508060000154908060010154908060020160009054906101000a900473ffffffffffffffffffffffffffffffffffffffff16905083565b60405180606001604052808481526020018381526020018273ffffffffffffffffffffffffffffffffffffffff1681525060036000858152602001908152602001600020600082015181600001556020820151816001015560408201518160020160006101000a81548173ffffffffffffffffffffffffffffffffffffffff021916908373ffffffffffffffffffffffffffffffffffffffff160217905550905050505050565b600081359050610189816102ba565b92915050565b60008135905061019e816102d1565b92915050565b6000602082840312156101ba576101b96102b5565b5b60006101c88482850161018f565b91505092915050565b6000806000606084860312156101ea576101e96102b5565b5b60006101f88682870161018f565b93505060206102098682870161018f565b925050604061021a8682870161017a565b9150509250925092565b61022d81610279565b82525050565b61023c816102ab565b82525050565b60006060820190506102576000830186610233565b6102646020830185610233565b6102716040830184610224565b949350505050565b60006102848261028b565b9050919050565b600073ffffffffffffffffffffffffffffffffffffffff82169050919050565b6000819050919050565b600080fd5b6102c381610279565b81146102ce57600080fd5b50565b6102da816102ab565b81146102e557600080fd5b5056fea2646970667358221220d017fe7d6bc9dc5ce010b3d3c1d5044bc7cd3c8b088de6136675ad0f63ec518264736f6c63430008070033a2646970667358221220b19836a71f6da6756698342f6429b902dce2c4e267cdbf5d623a3265067567a364736f6c63430008070033",
					"opcodes": "PUSH1 0x80 PUSH1 0x40 MSTORE CALLVALUE DUP1 ISZERO PUSH2 0x10 JUMPI PUSH1 0x0 DUP1 REVERT JUMPDEST POP CALLER PUSH1 0x0 DUP1 PUSH2 0x100 EXP DUP2 SLOAD DUP2 PUSH20 0xFFFFFFFFFFFFFFFFFFFFFFFFFFFFFFFFFFFFFFFF MUL NOT AND SWAP1 DUP4 PUSH20 0xFFFFFFFFFFFFFFFFFFFFFFFFFFFFFFFFFFFFFFFF AND MUL OR SWAP1 SSTORE POP PUSH2 0x8FA DUP1 PUSH2 0x60 PUSH1 0x0 CODECOPY PUSH1 0x0 RETURN INVALID PUSH1 0x80 PUSH1 0x40 MSTORE CALLVALUE DUP1 ISZERO PUSH2 0x10 JUMPI PUSH1 0x0 DUP1 REVERT JUMPDEST POP PUSH1 0x4 CALLDATASIZE LT PUSH2 0x2B JUMPI PUSH1 0x0 CALLDATALOAD PUSH1 0xE0 SHR DUP1 PUSH4 0x807006BB EQ PUSH2 0x30 JUMPI JUMPDEST PUSH1 0x0 DUP1 REVERT JUMPDEST PUSH2 0x4A PUSH1 0x4 DUP1 CALLDATASIZE SUB DUP2 ADD SWAP1 PUSH2 0x45 SWAP2 SWAP1 PUSH2 0x2B1 JUMP JUMPDEST PUSH2 0x4C JUMP JUMPDEST STOP JUMPDEST PUSH1 0x0 DUP1 SLOAD SWAP1 PUSH2 0x100 EXP SWAP1 DIV PUSH20 0xFFFFFFFFFFFFFFFFFFFFFFFFFFFFFFFFFFFFFFFF AND PUSH20 0xFFFFFFFFFFFFFFFFFFFFFFFFFFFFFFFFFFFFFFFF AND CALLER PUSH20 0xFFFFFFFFFFFFFFFFFFFFFFFFFFFFFFFFFFFFFFFF AND EQ PUSH2 0xDA JUMPI PUSH1 0x40 MLOAD PUSH32 0x8C379A000000000000000000000000000000000000000000000000000000000 DUP2 MSTORE PUSH1 0x4 ADD PUSH2 0xD1 SWAP1 PUSH2 0x33F JUMP JUMPDEST PUSH1 0x40 MLOAD DUP1 SWAP2 SUB SWAP1 REVERT JUMPDEST DUP2 PUSH1 0x40 MLOAD PUSH2 0xE7 SWAP1 PUSH2 0x163 JUMP JUMPDEST PUSH2 0xF1 SWAP2 SWAP1 PUSH2 0x35F JUMP JUMPDEST PUSH1 0x40 MLOAD DUP1 SWAP2 SUB SWAP1 PUSH1 0x0 CREATE DUP1 ISZERO DUP1 ISZERO PUSH2 0x10D JUMPI RETURNDATASIZE PUSH1 0x0 DUP1 RETURNDATACOPY RETURNDATASIZE PUSH1 0x0 REVERT JUMPDEST POP PUSH1 0x1 PUSH1 0x0 DUP5 DUP2 MSTORE PUSH1 0x20 ADD SWAP1 DUP2 MSTORE PUSH1 0x20 ADD PUSH1 0x0 KECCAK256 PUSH1 0x0 PUSH2 0x100 EXP DUP2 SLOAD DUP2 PUSH20 0xFFFFFFFFFFFFFFFFFFFFFFFFFFFFFFFFFFFFFFFF MUL NOT AND SWAP1 DUP4 PUSH20 0xFFFFFFFFFFFFFFFFFFFFFFFFFFFFFFFFFFFFFFFF AND MUL OR SWAP1 SSTORE POP POP POP JUMP JUMPDEST PUSH2 0x3D4 DUP1 PUSH2 0x4F1 DUP4 CODECOPY ADD SWAP1 JUMP JUMPDEST PUSH1 0x0 PUSH2 0x183 PUSH2 0x17E DUP5 PUSH2 0x39F JUMP JUMPDEST PUSH2 0x37A JUMP JUMPDEST SWAP1 POP DUP1 DUP4 DUP3 MSTORE PUSH1 0x20 DUP3 ADD SWAP1 POP DUP3 DUP6 PUSH1 0x20 DUP7 MUL DUP3 ADD GT ISZERO PUSH2 0x1A6 JUMPI PUSH2 0x1A5 PUSH2 0x48B JUMP JUMPDEST JUMPDEST PUSH1 0x0 JUMPDEST DUP6 DUP2 LT ISZERO PUSH2 0x1F4 JUMPI DUP2 CALLDATALOAD PUSH8 0xFFFFFFFFFFFFFFFF DUP2 GT ISZERO PUSH2 0x1CC JUMPI PUSH2 0x1CB PUSH2 0x486 JUMP JUMPDEST JUMPDEST DUP1 DUP7 ADD PUSH2 0x1D9 DUP10 DUP3 PUSH2 0x26E JUMP JUMPDEST DUP6 MSTORE PUSH1 0x20 DUP6 ADD SWAP5 POP PUSH1 0x20 DUP5 ADD SWAP4 POP POP POP PUSH1 0x1 DUP2 ADD SWAP1 POP PUSH2 0x1A9 JUMP JUMPDEST POP POP POP SWAP4 SWAP3 POP POP POP JUMP JUMPDEST PUSH1 0x0 PUSH2 0x211 PUSH2 0x20C DUP5 PUSH2 0x3CB JUMP JUMPDEST PUSH2 0x37A JUMP JUMPDEST SWAP1 POP DUP3 DUP2 MSTORE PUSH1 0x20 DUP2 ADD DUP5 DUP5 DUP5 ADD GT ISZERO PUSH2 0x22D JUMPI PUSH2 0x22C PUSH2 0x490 JUMP JUMPDEST JUMPDEST PUSH2 0x238 DUP5 DUP3 DUP6 PUSH2 0x417 JUMP JUMPDEST POP SWAP4 SWAP3 POP POP POP JUMP JUMPDEST PUSH1 0x0 DUP3 PUSH1 0x1F DUP4 ADD SLT PUSH2 0x255 JUMPI PUSH2 0x254 PUSH2 0x486 JUMP JUMPDEST JUMPDEST DUP2 CALLDATALOAD PUSH2 0x265 DUP5 DUP3 PUSH1 0x20 DUP7 ADD PUSH2 0x170 JUMP JUMPDEST SWAP2 POP POP SWAP3 SWAP2 POP POP JUMP JUMPDEST PUSH1 0x0 DUP3 PUSH1 0x1F DUP4 ADD SLT PUSH2 0x283 JUMPI PUSH2 0x282 PUSH2 0x486 JUMP JUMPDEST JUMPDEST DUP2 CALLDATALOAD PUSH2 0x293 DUP5 DUP3 PUSH1 0x20 DUP7 ADD PUSH2 0x1FE JUMP JUMPDEST SWAP2 POP POP SWAP3 SWAP2 POP POP JUMP JUMPDEST PUSH1 0x0 DUP2 CALLDATALOAD SWAP1 POP PUSH2 0x2AB DUP2 PUSH2 0x4D9 JUMP JUMPDEST SWAP3 SWAP2 POP POP JUMP JUMPDEST PUSH1 0x0 DUP1 PUSH1 0x40 DUP4 DUP6 SUB SLT ISZERO PUSH2 0x2C8 JUMPI PUSH2 0x2C7 PUSH2 0x49A JUMP JUMPDEST JUMPDEST PUSH1 0x0 PUSH2 0x2D6 DUP6 DUP3 DUP7 ADD PUSH2 0x29C JUMP JUMPDEST SWAP3 POP POP PUSH1 0x20 DUP4 ADD CALLDATALOAD PUSH8 0xFFFFFFFFFFFFFFFF DUP2 GT ISZERO PUSH2 0x2F7 JUMPI PUSH2 0x2F6 PUSH2 0x495 JUMP JUMPDEST JUMPDEST PUSH2 0x303 DUP6 DUP3 DUP7 ADD PUSH2 0x240 JUMP JUMPDEST SWAP2 POP POP SWAP3 POP SWAP3 SWAP1 POP JUMP JUMPDEST PUSH1 0x0 PUSH2 0x31A PUSH1 0x15 DUP4 PUSH2 0x3FC JUMP JUMPDEST SWAP2 POP PUSH2 0x325 DUP3 PUSH2 0x4B0 JUMP JUMPDEST PUSH1 0x20 DUP3 ADD SWAP1 POP SWAP2 SWAP1 POP JUMP JUMPDEST PUSH2 0x339 DUP2 PUSH2 0x40D JUMP JUMPDEST DUP3 MSTORE POP POP JUMP JUMPDEST PUSH1 0x0 PUSH1 0x20 DUP3 ADD SWAP1 POP DUP2 DUP2 SUB PUSH1 0x0 DUP4 ADD MSTORE PUSH2 0x358 DUP2 PUSH2 0x30D JUMP JUMPDEST SWAP1 POP SWAP2 SWAP1 POP JUMP JUMPDEST PUSH1 0x0 PUSH1 0x20 DUP3 ADD SWAP1 POP PUSH2 0x374 PUSH1 0x0 DUP4 ADD DUP5 PUSH2 0x330 JUMP JUMPDEST SWAP3 SWAP2 POP POP JUMP JUMPDEST PUSH1 0x0 PUSH2 0x384 PUSH2 0x395 JUMP JUMPDEST SWAP1 POP PUSH2 0x390 DUP3 DUP3 PUSH2 0x426 JUMP JUMPDEST SWAP2 SWAP1 POP JUMP JUMPDEST PUSH1 0x0 PUSH1 0x40 MLOAD SWAP1 POP SWAP1 JUMP JUMPDEST PUSH1 0x0 PUSH8 0xFFFFFFFFFFFFFFFF DUP3 GT ISZERO PUSH2 0x3BA JUMPI PUSH2 0x3B9 PUSH2 0x457 JUMP JUMPDEST JUMPDEST PUSH1 0x20 DUP3 MUL SWAP1 POP PUSH1 0x20 DUP2 ADD SWAP1 POP SWAP2 SWAP1 POP JUMP JUMPDEST PUSH1 0x0 PUSH8 0xFFFFFFFFFFFFFFFF DUP3 GT ISZERO PUSH2 0x3E6 JUMPI PUSH2 0x3E5 PUSH2 0x457 JUMP JUMPDEST JUMPDEST PUSH2 0x3EF DUP3 PUSH2 0x49F JUMP JUMPDEST SWAP1 POP PUSH1 0x20 DUP2 ADD SWAP1 POP SWAP2 SWAP1 POP JUMP JUMPDEST PUSH1 0x0 DUP3 DUP3 MSTORE PUSH1 0x20 DUP3 ADD SWAP1 POP SWAP3 SWAP2 POP POP JUMP JUMPDEST PUSH1 0x0 DUP2 SWAP1 POP SWAP2 SWAP1 POP JUMP JUMPDEST DUP3 DUP2 DUP4 CALLDATACOPY PUSH1 0x0 DUP4 DUP4 ADD MSTORE POP POP POP JUMP JUMPDEST PUSH2 0x42F DUP3 PUSH2 0x49F JUMP JUMPDEST DUP2 ADD DUP2 DUP2 LT PUSH8 0xFFFFFFFFFFFFFFFF DUP3 GT OR ISZERO PUSH2 0x44E JUMPI PUSH2 0x44D PUSH2 0x457 JUMP JUMPDEST JUMPDEST DUP1 PUSH1 0x40 MSTORE POP POP POP JUMP JUMPDEST PUSH32 0x4E487B7100000000000000000000000000000000000000000000000000000000 PUSH1 0x0 MSTORE PUSH1 0x41 PUSH1 0x4 MSTORE PUSH1 0x24 PUSH1 0x0 REVERT JUMPDEST PUSH1 0x0 DUP1 REVERT JUMPDEST PUSH1 0x0 DUP1 REVERT JUMPDEST PUSH1 0x0 DUP1 REVERT JUMPDEST PUSH1 0x0 DUP1 REVERT JUMPDEST PUSH1 0x0 DUP1 REVERT JUMPDEST PUSH1 0x0 PUSH1 0x1F NOT PUSH1 0x1F DUP4 ADD AND SWAP1 POP SWAP2 SWAP1 POP JUMP JUMPDEST PUSH32 0x63616C6C6572206973206E6F74204D616E616765720000000000000000000000 PUSH1 0x0 DUP3 ADD MSTORE POP JUMP JUMPDEST PUSH2 0x4E2 DUP2 PUSH2 0x40D JUMP JUMPDEST DUP2 EQ PUSH2 0x4ED JUMPI PUSH1 0x0 DUP1 REVERT JUMPDEST POP JUMP INVALID PUSH1 0x80 PUSH1 0x40 MSTORE CALLVALUE DUP1 ISZERO PUSH2 0x10 JUMPI PUSH1 0x0 DUP1 REVERT JUMPDEST POP PUSH1 0x40 MLOAD PUSH2 0x3D4 CODESIZE SUB DUP1 PUSH2 0x3D4 DUP4 CODECOPY DUP2 DUP2 ADD PUSH1 0x40 MSTORE DUP2 ADD SWAP1 PUSH2 0x32 SWAP2 SWAP1 PUSH2 0x54 JUMP JUMPDEST DUP1 PUSH1 0x1 DUP2 SWAP1 SSTORE POP POP PUSH2 0xA7 JUMP JUMPDEST PUSH1 0x0 DUP2 MLOAD SWAP1 POP PUSH2 0x4E DUP2 PUSH2 0x90 JUMP JUMPDEST SWAP3 SWAP2 POP POP JUMP JUMPDEST PUSH1 0x0 PUSH1 0x20 DUP3 DUP5 SUB SLT ISZERO PUSH2 0x6A JUMPI PUSH2 0x69 PUSH2 0x8B JUMP JUMPDEST JUMPDEST PUSH1 0x0 PUSH2 0x78 DUP5 DUP3 DUP6 ADD PUSH2 0x3F JUMP JUMPDEST SWAP2 POP POP SWAP3 SWAP2 POP POP JUMP JUMPDEST PUSH1 0x0 DUP2 SWAP1 POP SWAP2 SWAP1 POP JUMP JUMPDEST PUSH1 0x0 DUP1 REVERT JUMPDEST PUSH2 0x99 DUP2 PUSH2 0x81 JUMP JUMPDEST DUP2 EQ PUSH2 0xA4 JUMPI PUSH1 0x0 DUP1 REVERT JUMPDEST POP JUMP JUMPDEST PUSH2 0x31E DUP1 PUSH2 0xB6 PUSH1 0x0 CODECOPY PUSH1 0x0 RETURN INVALID PUSH1 0x80 PUSH1 0x40 MSTORE CALLVALUE DUP1 ISZERO PUSH2 0x10 JUMPI PUSH1 0x0 DUP1 REVERT JUMPDEST POP PUSH1 0x4 CALLDATASIZE LT PUSH2 0x36 JUMPI PUSH1 0x0 CALLDATALOAD PUSH1 0xE0 SHR DUP1 PUSH4 0x2A9788CD EQ PUSH2 0x3B JUMPI DUP1 PUSH4 0xA434261F EQ PUSH2 0x6D JUMPI JUMPDEST PUSH1 0x0 DUP1 REVERT JUMPDEST PUSH2 0x55 PUSH1 0x4 DUP1 CALLDATASIZE SUB DUP2 ADD SWAP1 PUSH2 0x50 SWAP2 SWAP1 PUSH2 0x1A4 JUMP JUMPDEST PUSH2 0x89 JUMP JUMPDEST PUSH1 0x40 MLOAD PUSH2 0x64 SWAP4 SWAP3 SWAP2 SWAP1 PUSH2 0x242 JUMP JUMPDEST PUSH1 0x40 MLOAD DUP1 SWAP2 SUB SWAP1 RETURN JUMPDEST PUSH2 0x87 PUSH1 0x4 DUP1 CALLDATASIZE SUB DUP2 ADD SWAP1 PUSH2 0x82 SWAP2 SWAP1 PUSH2 0x1D1 JUMP JUMPDEST PUSH2 0xD3 JUMP JUMPDEST STOP JUMPDEST PUSH1 0x3 PUSH1 0x20 MSTORE DUP1 PUSH1 0x0 MSTORE PUSH1 0x40 PUSH1 0x0 KECCAK256 PUSH1 0x0 SWAP2 POP SWAP1 POP DUP1 PUSH1 0x0 ADD SLOAD SWAP1 DUP1 PUSH1 0x1 ADD SLOAD SWAP1 DUP1 PUSH1 0x2 ADD PUSH1 0x0 SWAP1 SLOAD SWAP1 PUSH2 0x100 EXP SWAP1 DIV PUSH20 0xFFFFFFFFFFFFFFFFFFFFFFFFFFFFFFFFFFFFFFFF AND SWAP1 POP DUP4 JUMP JUMPDEST PUSH1 0x40 MLOAD DUP1 PUSH1 0x60 ADD PUSH1 0x40 MSTORE DUP1 DUP5 DUP2 MSTORE PUSH1 0x20 ADD DUP4 DUP2 MSTORE PUSH1 0x20 ADD DUP3 PUSH20 0xFFFFFFFFFFFFFFFFFFFFFFFFFFFFFFFFFFFFFFFF AND DUP2 MSTORE POP PUSH1 0x3 PUSH1 0x0 DUP6 DUP2 MSTORE PUSH1 0x20 ADD SWAP1 DUP2 MSTORE PUSH1 0x20 ADD PUSH1 0x0 KECCAK256 PUSH1 0x0 DUP3 ADD MLOAD DUP2 PUSH1 0x0 ADD SSTORE PUSH1 0x20 DUP3 ADD MLOAD DUP2 PUSH1 0x1 ADD SSTORE PUSH1 0x40 DUP3 ADD MLOAD DUP2 PUSH1 0x2 ADD PUSH1 0x0 PUSH2 0x100 EXP DUP2 SLOAD DUP2 PUSH20 0xFFFFFFFFFFFFFFFFFFFFFFFFFFFFFFFFFFFFFFFF MUL NOT AND SWAP1 DUP4 PUSH20 0xFFFFFFFFFFFFFFFFFFFFFFFFFFFFFFFFFFFFFFFF AND MUL OR SWAP1 SSTORE POP SWAP1 POP POP POP POP POP JUMP JUMPDEST PUSH1 0x0 DUP2 CALLDATALOAD SWAP1 POP PUSH2 0x189 DUP2 PUSH2 0x2BA JUMP JUMPDEST SWAP3 SWAP2 POP POP JUMP JUMPDEST PUSH1 0x0 DUP2 CALLDATALOAD SWAP1 POP PUSH2 0x19E DUP2 PUSH2 0x2D1 JUMP JUMPDEST SWAP3 SWAP2 POP POP JUMP JUMPDEST PUSH1 0x0 PUSH1 0x20 DUP3 DUP5 SUB SLT ISZERO PUSH2 0x1BA JUMPI PUSH2 0x1B9 PUSH2 0x2B5 JUMP JUMPDEST JUMPDEST PUSH1 0x0 PUSH2 0x1C8 DUP5 DUP3 DUP6 ADD PUSH2 0x18F JUMP JUMPDEST SWAP2 POP POP SWAP3 SWAP2 POP POP JUMP JUMPDEST PUSH1 0x0 DUP1 PUSH1 0x0 PUSH1 0x60 DUP5 DUP7 SUB SLT ISZERO PUSH2 0x1EA JUMPI PUSH2 0x1E9 PUSH2 0x2B5 JUMP JUMPDEST JUMPDEST PUSH1 0x0 PUSH2 0x1F8 DUP7 DUP3 DUP8 ADD PUSH2 0x18F JUMP JUMPDEST SWAP4 POP POP PUSH1 0x20 PUSH2 0x209 DUP7 DUP3 DUP8 ADD PUSH2 0x18F JUMP JUMPDEST SWAP3 POP POP PUSH1 0x40 PUSH2 0x21A DUP7 DUP3 DUP8 ADD PUSH2 0x17A JUMP JUMPDEST SWAP2 POP POP SWAP3 POP SWAP3 POP SWAP3 JUMP JUMPDEST PUSH2 0x22D DUP2 PUSH2 0x279 JUMP JUMPDEST DUP3 MSTORE POP POP JUMP JUMPDEST PUSH2 0x23C DUP2 PUSH2 0x2AB JUMP JUMPDEST DUP3 MSTORE POP POP JUMP JUMPDEST PUSH1 0x0 PUSH1 0x60 DUP3 ADD SWAP1 POP PUSH2 0x257 PUSH1 0x0 DUP4 ADD DUP7 PUSH2 0x233 JUMP JUMPDEST PUSH2 0x264 PUSH1 0x20 DUP4 ADD DUP6 PUSH2 0x233 JUMP JUMPDEST PUSH2 0x271 PUSH1 0x40 DUP4 ADD DUP5 PUSH2 0x224 JUMP JUMPDEST SWAP5 SWAP4 POP POP POP POP JUMP JUMPDEST PUSH1 0x0 PUSH2 0x284 DUP3 PUSH2 0x28B JUMP JUMPDEST SWAP1 POP SWAP2 SWAP1 POP JUMP JUMPDEST PUSH1 0x0 PUSH20 0xFFFFFFFFFFFFFFFFFFFFFFFFFFFFFFFFFFFFFFFF DUP3 AND SWAP1 POP SWAP2 SWAP1 POP JUMP JUMPDEST PUSH1 0x0 DUP2 SWAP1 POP SWAP2 SWAP1 POP JUMP JUMPDEST PUSH1 0x0 DUP1 REVERT JUMPDEST PUSH2 0x2C3 DUP2 PUSH2 0x279 JUMP JUMPDEST DUP2 EQ PUSH2 0x2CE JUMPI PUSH1 0x0 DUP1 REVERT JUMPDEST POP JUMP JUMPDEST PUSH2 0x2DA DUP2 PUSH2 0x2AB JUMP JUMPDEST DUP2 EQ PUSH2 0x2E5 JUMPI PUSH1 0x0 DUP1 REVERT JUMPDEST POP JUMP INVALID LOG2 PUSH5 0x6970667358 0x22 SLT KECCAK256 0xD0 OR INVALID PUSH30 0x6BC9DC5CE010B3D3C1D5044BC7CD3C8B088DE6136675AD0F63EC51826473 PUSH16 0x6C63430008070033A264697066735822 SLT KECCAK256 0xB1 SWAP9 CALLDATASIZE 0xA7 0x1F PUSH14 0xA6756698342F6429B902DCE2C4E2 PUSH8 0xCDBF5D623A326506 PUSH22 0x67A364736F6C63430008070033000000000000000000 "
				},
				"gasEstimates": {
					"creation": {
						"codeDepositCost": "459600",
						"executionCost": "24759",
						"totalCost": "484359"
					},
					"external": {
						"addBus(uint256,string[])": "infinite"
					}
				},
				"methodIdentifiers": {
					"addBus(uint256,string[])": "807006bb"
				}
			},
			"storageLayout": {
				"storage": [
					{
						"astId": 58,
						"contract": "contracts/main.sol:smartReservation",
						"label": "manager",
						"offset": 0,
						"slot": "0",
						"type": "t_address"
					},
					{
						"astId": 63,
						"contract": "contracts/main.sol:smartReservation",
						"label": "bus",
						"offset": 0,
						"slot": "1",
						"type": "t_mapping(t_uint256,t_contract(Bus)51)"
					}
				],
				"types": {
					"t_address": {
						"encoding": "inplace",
						"label": "address",
						"numberOfBytes": "20"
					},
					"t_contract(Bus)51": {
						"encoding": "inplace",
						"label": "contract Bus",
						"numberOfBytes": "20"
					},
					"t_mapping(t_uint256,t_contract(Bus)51)": {
						"encoding": "mapping",
						"key": "t_uint256",
						"label": "mapping(uint256 => contract Bus)",
						"numberOfBytes": "32",
						"value": "t_contract(Bus)51"
					},
					"t_uint256": {
						"encoding": "inplace",
						"label": "uint256",
						"numberOfBytes": "32"
					}
				}
			},
			"userdoc": {
				"kind": "user",
				"methods": {},
				"version": 1
			}
		}
	}
}