{
	"contracts/Student.sol": {
		"Student": {
			"abi": [
				{
					"inputs": [
						{
							"internalType": "string",
							"name": "busNum",
							"type": "string"
						},
						{
							"internalType": "uint256",
							"name": "seat",
							"type": "uint256"
						}
					],
					"name": "Reservation",
					"outputs": [],
					"stateMutability": "nonpayable",
					"type": "function"
				},
				{
					"inputs": [],
					"name": "getReservation",
					"outputs": [
						{
							"internalType": "string",
							"name": "",
							"type": "string"
						},
						{
							"internalType": "uint256",
							"name": "",
							"type": "uint256"
						}
					],
					"stateMutability": "view",
					"type": "function"
				},
				{
					"inputs": [
						{
							"internalType": "address",
							"name": "",
							"type": "address"
						}
					],
					"name": "reserv",
					"outputs": [
						{
							"internalType": "string",
							"name": "busNum",
							"type": "string"
						},
						{
							"internalType": "uint256",
							"name": "seat_num",
							"type": "uint256"
						}
					],
					"stateMutability": "view",
					"type": "function"
				}
			],
			"devdoc": {
				"details": "main Smart Contract",
				"kind": "dev",
				"methods": {},
				"title": "Student",
				"version": 1
			},
			"evm": {
				"assembly": "    /* \"contracts/Student.sol\":224:777  contract Student {... */\n  mstore(0x40, 0x80)\n  callvalue\n  dup1\n  iszero\n  tag_1\n  jumpi\n  0x00\n  dup1\n  revert\ntag_1:\n  pop\n  dataSize(sub_0)\n  dup1\n  dataOffset(sub_0)\n  0x00\n  codecopy\n  0x00\n  return\nstop\n\nsub_0: assembly {\n        /* \"contracts/Student.sol\":224:777  contract Student {... */\n      mstore(0x40, 0x80)\n      callvalue\n      dup1\n      iszero\n      tag_1\n      jumpi\n      0x00\n      dup1\n      revert\n    tag_1:\n      pop\n      jumpi(tag_2, lt(calldatasize, 0x04))\n      shr(0xe0, calldataload(0x00))\n      dup1\n      0x0f20dbd4\n      eq\n      tag_3\n      jumpi\n      dup1\n      0x311195e0\n      eq\n      tag_4\n      jumpi\n      dup1\n      0xe8c6a4d7\n      eq\n      tag_5\n      jumpi\n    tag_2:\n      0x00\n      dup1\n      revert\n        /* \"contracts/Student.sol\":347:392  mapping(address => reservation) public reserv */\n    tag_3:\n      tag_6\n      0x04\n      dup1\n      calldatasize\n      sub\n      dup2\n      add\n      swap1\n      tag_7\n      swap2\n      swap1\n      tag_8\n      jump\t// in\n    tag_7:\n      tag_9\n      jump\t// in\n    tag_6:\n      mload(0x40)\n      tag_10\n      swap3\n      swap2\n      swap1\n      tag_11\n      jump\t// in\n    tag_10:\n      mload(0x40)\n      dup1\n      swap2\n      sub\n      swap1\n      return\n        /* \"contracts/Student.sol\":407:531  function Reservation(string memory busNum, uint seat) public {... */\n    tag_4:\n      tag_12\n      0x04\n      dup1\n      calldatasize\n      sub\n      dup2\n      add\n      swap1\n      tag_13\n      swap2\n      swap1\n      tag_14\n      jump\t// in\n    tag_13:\n      tag_15\n      jump\t// in\n    tag_12:\n      stop\n        /* \"contracts/Student.sol\":561:773  function getReservation() public view returns (string memory, uint) {... */\n    tag_5:\n      tag_16\n      tag_17\n      jump\t// in\n    tag_16:\n      mload(0x40)\n      tag_18\n      swap3\n      swap2\n      swap1\n      tag_11\n      jump\t// in\n    tag_18:\n      mload(0x40)\n      dup1\n      swap2\n      sub\n      swap1\n      return\n        /* \"contracts/Student.sol\":347:392  mapping(address => reservation) public reserv */\n    tag_9:\n      mstore(0x20, 0x01)\n      dup1\n      0x00\n      mstore\n      keccak256(0x00, 0x40)\n      0x00\n      swap2\n      pop\n      swap1\n      pop\n      dup1\n      0x00\n      add\n      dup1\n      sload\n      tag_19\n      swap1\n      tag_20\n      jump\t// in\n    tag_19:\n      dup1\n      0x1f\n      add\n      0x20\n      dup1\n      swap2\n      div\n      mul\n      0x20\n      add\n      mload(0x40)\n      swap1\n      dup2\n      add\n      0x40\n      mstore\n      dup1\n      swap3\n      swap2\n      swap1\n      dup2\n      dup2\n      mstore\n      0x20\n      add\n      dup3\n      dup1\n      sload\n      tag_21\n      swap1\n      tag_20\n      jump\t// in\n    tag_21:\n      dup1\n      iszero\n      tag_22\n      jumpi\n      dup1\n      0x1f\n      lt\n      tag_23\n      jumpi\n      0x0100\n      dup1\n      dup4\n      sload\n      div\n      mul\n      dup4\n      mstore\n      swap2\n      0x20\n      add\n      swap2\n      jump(tag_22)\n    tag_23:\n      dup3\n      add\n      swap2\n      swap1\n      0x00\n      mstore\n      keccak256(0x00, 0x20)\n      swap1\n    tag_24:\n      dup2\n      sload\n      dup2\n      mstore\n      swap1\n      0x01\n      add\n      swap1\n      0x20\n      add\n      dup1\n      dup4\n      gt\n      tag_24\n      jumpi\n      dup3\n      swap1\n      sub\n      0x1f\n      and\n      dup3\n      add\n      swap2\n    tag_22:\n      pop\n      pop\n      pop\n      pop\n      pop\n      swap1\n      dup1\n      0x01\n      add\n      sload\n      swap1\n      pop\n      dup3\n      jump\t// out\n        /* \"contracts/Student.sol\":407:531  function Reservation(string memory busNum, uint seat) public {... */\n    tag_15:\n        /* \"contracts/Student.sol\":499:524  reservation(busNum, seat) */\n      mload(0x40)\n      dup1\n      0x40\n      add\n      0x40\n      mstore\n      dup1\n        /* \"contracts/Student.sol\":511:517  busNum */\n      dup4\n        /* \"contracts/Student.sol\":499:524  reservation(busNum, seat) */\n      dup2\n      mstore\n      0x20\n      add\n        /* \"contracts/Student.sol\":519:523  seat */\n      dup3\n        /* \"contracts/Student.sol\":499:524  reservation(busNum, seat) */\n      dup2\n      mstore\n      pop\n        /* \"contracts/Student.sol\":478:484  reserv */\n      0x01\n        /* \"contracts/Student.sol\":478:496  reserv[msg.sender] */\n      0x00\n        /* \"contracts/Student.sol\":485:495  msg.sender */\n      caller\n        /* \"contracts/Student.sol\":478:496  reserv[msg.sender] */\n      0xffffffffffffffffffffffffffffffffffffffff\n      and\n      0xffffffffffffffffffffffffffffffffffffffff\n      and\n      dup2\n      mstore\n      0x20\n      add\n      swap1\n      dup2\n      mstore\n      0x20\n      add\n      0x00\n      keccak256\n        /* \"contracts/Student.sol\":478:524  reserv[msg.sender] = reservation(busNum, seat) */\n      0x00\n      dup3\n      add\n      mload\n      dup2\n      0x00\n      add\n      swap1\n      dup1\n      mload\n      swap1\n      0x20\n      add\n      swap1\n      tag_26\n      swap3\n      swap2\n      swap1\n      tag_27\n      jump\t// in\n    tag_26:\n      pop\n      0x20\n      dup3\n      add\n      mload\n      dup2\n      0x01\n      add\n      sstore\n      swap1\n      pop\n      pop\n        /* \"contracts/Student.sol\":407:531  function Reservation(string memory busNum, uint seat) public {... */\n      pop\n      pop\n      jump\t// out\n        /* \"contracts/Student.sol\":561:773  function getReservation() public view returns (string memory, uint) {... */\n    tag_17:\n        /* \"contracts/Student.sol\":608:621  string memory */\n      0x60\n        /* \"contracts/Student.sol\":623:627  uint */\n      0x00\n        /* \"contracts/Student.sol\":639:656  string memory bus */\n      dup1\n        /* \"contracts/Student.sol\":659:665  reserv */\n      0x01\n        /* \"contracts/Student.sol\":659:677  reserv[msg.sender] */\n      0x00\n        /* \"contracts/Student.sol\":666:676  msg.sender */\n      caller\n        /* \"contracts/Student.sol\":659:677  reserv[msg.sender] */\n      0xffffffffffffffffffffffffffffffffffffffff\n      and\n      0xffffffffffffffffffffffffffffffffffffffff\n      and\n      dup2\n      mstore\n      0x20\n      add\n      swap1\n      dup2\n      mstore\n      0x20\n      add\n      0x00\n      keccak256\n        /* \"contracts/Student.sol\":659:684  reserv[msg.sender].busNum */\n      0x00\n      add\n        /* \"contracts/Student.sol\":639:684  string memory bus = reserv[msg.sender].busNum */\n      dup1\n      sload\n      tag_29\n      swap1\n      tag_20\n      jump\t// in\n    tag_29:\n      dup1\n      0x1f\n      add\n      0x20\n      dup1\n      swap2\n      div\n      mul\n      0x20\n      add\n      mload(0x40)\n      swap1\n      dup2\n      add\n      0x40\n      mstore\n      dup1\n      swap3\n      swap2\n      swap1\n      dup2\n      dup2\n      mstore\n      0x20\n      add\n      dup3\n      dup1\n      sload\n      tag_30\n      swap1\n      tag_20\n      jump\t// in\n    tag_30:\n      dup1\n      iszero\n      tag_31\n      jumpi\n      dup1\n      0x1f\n      lt\n      tag_32\n      jumpi\n      0x0100\n      dup1\n      dup4\n      sload\n      div\n      mul\n      dup4\n      mstore\n      swap2\n      0x20\n      add\n      swap2\n      jump(tag_31)\n    tag_32:\n      dup3\n      add\n      swap2\n      swap1\n      0x00\n      mstore\n      keccak256(0x00, 0x20)\n      swap1\n    tag_33:\n      dup2\n      sload\n      dup2\n      mstore\n      swap1\n      0x01\n      add\n      swap1\n      0x20\n      add\n      dup1\n      dup4\n      gt\n      tag_33\n      jumpi\n      dup3\n      swap1\n      sub\n      0x1f\n      and\n      dup3\n      add\n      swap2\n    tag_31:\n      pop\n      pop\n      pop\n      pop\n      pop\n      swap1\n      pop\n        /* \"contracts/Student.sol\":694:706  uint SeatNum */\n      0x00\n        /* \"contracts/Student.sol\":709:715  reserv */\n      0x01\n        /* \"contracts/Student.sol\":709:727  reserv[msg.sender] */\n      0x00\n        /* \"contracts/Student.sol\":716:726  msg.sender */\n      caller\n        /* \"contracts/Student.sol\":709:727  reserv[msg.sender] */\n      0xffffffffffffffffffffffffffffffffffffffff\n      and\n      0xffffffffffffffffffffffffffffffffffffffff\n      and\n      dup2\n      mstore\n      0x20\n      add\n      swap1\n      dup2\n      mstore\n      0x20\n      add\n      0x00\n      keccak256\n        /* \"contracts/Student.sol\":709:736  reserv[msg.sender].seat_num */\n      0x01\n      add\n      sload\n        /* \"contracts/Student.sol\":694:736  uint SeatNum = reserv[msg.sender].seat_num */\n      swap1\n      pop\n        /* \"contracts/Student.sol\":753:756  bus */\n      dup2\n        /* \"contracts/Student.sol\":758:765  SeatNum */\n      dup2\n        /* \"contracts/Student.sol\":746:766  return(bus, SeatNum) */\n      swap4\n      pop\n      swap4\n      pop\n      pop\n      pop\n        /* \"contracts/Student.sol\":561:773  function getReservation() public view returns (string memory, uint) {... */\n      swap1\n      swap2\n      jump\t// out\n    tag_27:\n      dup3\n      dup1\n      sload\n      tag_34\n      swap1\n      tag_20\n      jump\t// in\n    tag_34:\n      swap1\n      0x00\n      mstore\n      keccak256(0x00, 0x20)\n      swap1\n      0x1f\n      add\n      0x20\n      swap1\n      div\n      dup2\n      add\n      swap3\n      dup3\n      tag_36\n      jumpi\n      0x00\n      dup6\n      sstore\n      jump(tag_35)\n    tag_36:\n      dup3\n      0x1f\n      lt\n      tag_37\n      jumpi\n      dup1\n      mload\n      not(0xff)\n      and\n      dup4\n      dup1\n      add\n      or\n      dup6\n      sstore\n      jump(tag_35)\n    tag_37:\n      dup3\n      dup1\n      add\n      0x01\n      add\n      dup6\n      sstore\n      dup3\n      iszero\n      tag_35\n      jumpi\n      swap2\n      dup3\n      add\n    tag_38:\n      dup3\n      dup2\n      gt\n      iszero\n      tag_39\n      jumpi\n      dup3\n      mload\n      dup3\n      sstore\n      swap2\n      0x20\n      add\n      swap2\n      swap1\n      0x01\n      add\n      swap1\n      jump(tag_38)\n    tag_39:\n    tag_35:\n      pop\n      swap1\n      pop\n      tag_40\n      swap2\n      swap1\n      tag_41\n      jump\t// in\n    tag_40:\n      pop\n      swap1\n      jump\t// out\n    tag_41:\n    tag_42:\n      dup1\n      dup3\n      gt\n      iszero\n      tag_43\n      jumpi\n      0x00\n      dup2\n      0x00\n      swap1\n      sstore\n      pop\n      0x01\n      add\n      jump(tag_42)\n    tag_43:\n      pop\n      swap1\n      jump\t// out\n        /* \"#utility.yul\":7:419   */\n    tag_45:\n        /* \"#utility.yul\":85:90   */\n      0x00\n        /* \"#utility.yul\":110:176   */\n      tag_47\n        /* \"#utility.yul\":126:175   */\n      tag_48\n        /* \"#utility.yul\":168:174   */\n      dup5\n        /* \"#utility.yul\":126:175   */\n      tag_49\n      jump\t// in\n    tag_48:\n        /* \"#utility.yul\":110:176   */\n      tag_50\n      jump\t// in\n    tag_47:\n        /* \"#utility.yul\":101:176   */\n      swap1\n      pop\n        /* \"#utility.yul\":199:205   */\n      dup3\n        /* \"#utility.yul\":192:197   */\n      dup2\n        /* \"#utility.yul\":185:206   */\n      mstore\n        /* \"#utility.yul\":237:241   */\n      0x20\n        /* \"#utility.yul\":230:235   */\n      dup2\n        /* \"#utility.yul\":226:242   */\n      add\n        /* \"#utility.yul\":275:278   */\n      dup5\n        /* \"#utility.yul\":266:272   */\n      dup5\n        /* \"#utility.yul\":261:264   */\n      dup5\n        /* \"#utility.yul\":257:273   */\n      add\n        /* \"#utility.yul\":254:279   */\n      gt\n        /* \"#utility.yul\":251:363   */\n      iszero\n      tag_51\n      jumpi\n        /* \"#utility.yul\":282:361   */\n      tag_52\n      tag_53\n      jump\t// in\n    tag_52:\n        /* \"#utility.yul\":251:363   */\n    tag_51:\n        /* \"#utility.yul\":372:413   */\n      tag_54\n        /* \"#utility.yul\":406:412   */\n      dup5\n        /* \"#utility.yul\":401:404   */\n      dup3\n        /* \"#utility.yul\":396:399   */\n      dup6\n        /* \"#utility.yul\":372:413   */\n      tag_55\n      jump\t// in\n    tag_54:\n        /* \"#utility.yul\":91:419   */\n      pop\n        /* \"#utility.yul\":7:419   */\n      swap4\n      swap3\n      pop\n      pop\n      pop\n      jump\t// out\n        /* \"#utility.yul\":425:564   */\n    tag_56:\n        /* \"#utility.yul\":471:476   */\n      0x00\n        /* \"#utility.yul\":509:515   */\n      dup2\n        /* \"#utility.yul\":496:516   */\n      calldataload\n        /* \"#utility.yul\":487:516   */\n      swap1\n      pop\n        /* \"#utility.yul\":525:558   */\n      tag_58\n        /* \"#utility.yul\":552:557   */\n      dup2\n        /* \"#utility.yul\":525:558   */\n      tag_59\n      jump\t// in\n    tag_58:\n        /* \"#utility.yul\":425:564   */\n      swap3\n      swap2\n      pop\n      pop\n      jump\t// out\n        /* \"#utility.yul\":584:924   */\n    tag_60:\n        /* \"#utility.yul\":640:645   */\n      0x00\n        /* \"#utility.yul\":689:692   */\n      dup3\n        /* \"#utility.yul\":682:686   */\n      0x1f\n        /* \"#utility.yul\":674:680   */\n      dup4\n        /* \"#utility.yul\":670:687   */\n      add\n        /* \"#utility.yul\":666:693   */\n      slt\n        /* \"#utility.yul\":656:778   */\n      tag_62\n      jumpi\n        /* \"#utility.yul\":697:776   */\n      tag_63\n      tag_64\n      jump\t// in\n    tag_63:\n        /* \"#utility.yul\":656:778   */\n    tag_62:\n        /* \"#utility.yul\":814:820   */\n      dup2\n        /* \"#utility.yul\":801:821   */\n      calldataload\n        /* \"#utility.yul\":839:918   */\n      tag_65\n        /* \"#utility.yul\":914:917   */\n      dup5\n        /* \"#utility.yul\":906:912   */\n      dup3\n        /* \"#utility.yul\":899:903   */\n      0x20\n        /* \"#utility.yul\":891:897   */\n      dup7\n        /* \"#utility.yul\":887:904   */\n      add\n        /* \"#utility.yul\":839:918   */\n      tag_45\n      jump\t// in\n    tag_65:\n        /* \"#utility.yul\":830:918   */\n      swap2\n      pop\n        /* \"#utility.yul\":646:924   */\n      pop\n        /* \"#utility.yul\":584:924   */\n      swap3\n      swap2\n      pop\n      pop\n      jump\t// out\n        /* \"#utility.yul\":930:1069   */\n    tag_66:\n        /* \"#utility.yul\":976:981   */\n      0x00\n        /* \"#utility.yul\":1014:1020   */\n      dup2\n        /* \"#utility.yul\":1001:1021   */\n      calldataload\n        /* \"#utility.yul\":992:1021   */\n      swap1\n      pop\n        /* \"#utility.yul\":1030:1063   */\n      tag_68\n        /* \"#utility.yul\":1057:1062   */\n      dup2\n        /* \"#utility.yul\":1030:1063   */\n      tag_69\n      jump\t// in\n    tag_68:\n        /* \"#utility.yul\":930:1069   */\n      swap3\n      swap2\n      pop\n      pop\n      jump\t// out\n        /* \"#utility.yul\":1075:1404   */\n    tag_8:\n        /* \"#utility.yul\":1134:1140   */\n      0x00\n        /* \"#utility.yul\":1183:1185   */\n      0x20\n        /* \"#utility.yul\":1171:1180   */\n      dup3\n        /* \"#utility.yul\":1162:1169   */\n      dup5\n        /* \"#utility.yul\":1158:1181   */\n      sub\n        /* \"#utility.yul\":1154:1186   */\n      slt\n        /* \"#utility.yul\":1151:1270   */\n      iszero\n      tag_71\n      jumpi\n        /* \"#utility.yul\":1189:1268   */\n      tag_72\n      tag_73\n      jump\t// in\n    tag_72:\n        /* \"#utility.yul\":1151:1270   */\n    tag_71:\n        /* \"#utility.yul\":1309:1310   */\n      0x00\n        /* \"#utility.yul\":1334:1387   */\n      tag_74\n        /* \"#utility.yul\":1379:1386   */\n      dup5\n        /* \"#utility.yul\":1370:1376   */\n      dup3\n        /* \"#utility.yul\":1359:1368   */\n      dup6\n        /* \"#utility.yul\":1355:1377   */\n      add\n        /* \"#utility.yul\":1334:1387   */\n      tag_56\n      jump\t// in\n    tag_74:\n        /* \"#utility.yul\":1324:1387   */\n      swap2\n      pop\n        /* \"#utility.yul\":1280:1397   */\n      pop\n        /* \"#utility.yul\":1075:1404   */\n      swap3\n      swap2\n      pop\n      pop\n      jump\t// out\n        /* \"#utility.yul\":1410:2064   */\n    tag_14:\n        /* \"#utility.yul\":1488:1494   */\n      0x00\n        /* \"#utility.yul\":1496:1502   */\n      dup1\n        /* \"#utility.yul\":1545:1547   */\n      0x40\n        /* \"#utility.yul\":1533:1542   */\n      dup4\n        /* \"#utility.yul\":1524:1531   */\n      dup6\n        /* \"#utility.yul\":1520:1543   */\n      sub\n        /* \"#utility.yul\":1516:1548   */\n      slt\n        /* \"#utility.yul\":1513:1632   */\n      iszero\n      tag_76\n      jumpi\n        /* \"#utility.yul\":1551:1630   */\n      tag_77\n      tag_73\n      jump\t// in\n    tag_77:\n        /* \"#utility.yul\":1513:1632   */\n    tag_76:\n        /* \"#utility.yul\":1699:1700   */\n      0x00\n        /* \"#utility.yul\":1688:1697   */\n      dup4\n        /* \"#utility.yul\":1684:1701   */\n      add\n        /* \"#utility.yul\":1671:1702   */\n      calldataload\n        /* \"#utility.yul\":1729:1747   */\n      0xffffffffffffffff\n        /* \"#utility.yul\":1721:1727   */\n      dup2\n        /* \"#utility.yul\":1718:1748   */\n      gt\n        /* \"#utility.yul\":1715:1832   */\n      iszero\n      tag_78\n      jumpi\n        /* \"#utility.yul\":1751:1830   */\n      tag_79\n      tag_80\n      jump\t// in\n    tag_79:\n        /* \"#utility.yul\":1715:1832   */\n    tag_78:\n        /* \"#utility.yul\":1856:1919   */\n      tag_81\n        /* \"#utility.yul\":1911:1918   */\n      dup6\n        /* \"#utility.yul\":1902:1908   */\n      dup3\n        /* \"#utility.yul\":1891:1900   */\n      dup7\n        /* \"#utility.yul\":1887:1909   */\n      add\n        /* \"#utility.yul\":1856:1919   */\n      tag_60\n      jump\t// in\n    tag_81:\n        /* \"#utility.yul\":1846:1919   */\n      swap3\n      pop\n        /* \"#utility.yul\":1642:1929   */\n      pop\n        /* \"#utility.yul\":1968:1970   */\n      0x20\n        /* \"#utility.yul\":1994:2047   */\n      tag_82\n        /* \"#utility.yul\":2039:2046   */\n      dup6\n        /* \"#utility.yul\":2030:2036   */\n      dup3\n        /* \"#utility.yul\":2019:2028   */\n      dup7\n        /* \"#utility.yul\":2015:2037   */\n      add\n        /* \"#utility.yul\":1994:2047   */\n      tag_66\n      jump\t// in\n    tag_82:\n        /* \"#utility.yul\":1984:2047   */\n      swap2\n      pop\n        /* \"#utility.yul\":1939:2057   */\n      pop\n        /* \"#utility.yul\":1410:2064   */\n      swap3\n      pop\n      swap3\n      swap1\n      pop\n      jump\t// out\n        /* \"#utility.yul\":2070:2434   */\n    tag_83:\n        /* \"#utility.yul\":2158:2161   */\n      0x00\n        /* \"#utility.yul\":2186:2225   */\n      tag_85\n        /* \"#utility.yul\":2219:2224   */\n      dup3\n        /* \"#utility.yul\":2186:2225   */\n      tag_86\n      jump\t// in\n    tag_85:\n        /* \"#utility.yul\":2241:2312   */\n      tag_87\n        /* \"#utility.yul\":2305:2311   */\n      dup2\n        /* \"#utility.yul\":2300:2303   */\n      dup6\n        /* \"#utility.yul\":2241:2312   */\n      tag_88\n      jump\t// in\n    tag_87:\n        /* \"#utility.yul\":2234:2312   */\n      swap4\n      pop\n        /* \"#utility.yul\":2321:2373   */\n      tag_89\n        /* \"#utility.yul\":2366:2372   */\n      dup2\n        /* \"#utility.yul\":2361:2364   */\n      dup6\n        /* \"#utility.yul\":2354:2358   */\n      0x20\n        /* \"#utility.yul\":2347:2352   */\n      dup7\n        /* \"#utility.yul\":2343:2359   */\n      add\n        /* \"#utility.yul\":2321:2373   */\n      tag_90\n      jump\t// in\n    tag_89:\n        /* \"#utility.yul\":2398:2427   */\n      tag_91\n        /* \"#utility.yul\":2420:2426   */\n      dup2\n        /* \"#utility.yul\":2398:2427   */\n      tag_92\n      jump\t// in\n    tag_91:\n        /* \"#utility.yul\":2393:2396   */\n      dup5\n        /* \"#utility.yul\":2389:2428   */\n      add\n        /* \"#utility.yul\":2382:2428   */\n      swap2\n      pop\n        /* \"#utility.yul\":2162:2434   */\n      pop\n        /* \"#utility.yul\":2070:2434   */\n      swap3\n      swap2\n      pop\n      pop\n      jump\t// out\n        /* \"#utility.yul\":2440:2558   */\n    tag_93:\n        /* \"#utility.yul\":2527:2551   */\n      tag_95\n        /* \"#utility.yul\":2545:2550   */\n      dup2\n        /* \"#utility.yul\":2527:2551   */\n      tag_96\n      jump\t// in\n    tag_95:\n        /* \"#utility.yul\":2522:2525   */\n      dup3\n        /* \"#utility.yul\":2515:2552   */\n      mstore\n        /* \"#utility.yul\":2440:2558   */\n      pop\n      pop\n      jump\t// out\n        /* \"#utility.yul\":2564:2987   */\n    tag_11:\n        /* \"#utility.yul\":2705:2709   */\n      0x00\n        /* \"#utility.yul\":2743:2745   */\n      0x40\n        /* \"#utility.yul\":2732:2741   */\n      dup3\n        /* \"#utility.yul\":2728:2746   */\n      add\n        /* \"#utility.yul\":2720:2746   */\n      swap1\n      pop\n        /* \"#utility.yul\":2792:2801   */\n      dup2\n        /* \"#utility.yul\":2786:2790   */\n      dup2\n        /* \"#utility.yul\":2782:2802   */\n      sub\n        /* \"#utility.yul\":2778:2779   */\n      0x00\n        /* \"#utility.yul\":2767:2776   */\n      dup4\n        /* \"#utility.yul\":2763:2780   */\n      add\n        /* \"#utility.yul\":2756:2803   */\n      mstore\n        /* \"#utility.yul\":2820:2898   */\n      tag_98\n        /* \"#utility.yul\":2893:2897   */\n      dup2\n        /* \"#utility.yul\":2884:2890   */\n      dup6\n        /* \"#utility.yul\":2820:2898   */\n      tag_83\n      jump\t// in\n    tag_98:\n        /* \"#utility.yul\":2812:2898   */\n      swap1\n      pop\n        /* \"#utility.yul\":2908:2980   */\n      tag_99\n        /* \"#utility.yul\":2976:2978   */\n      0x20\n        /* \"#utility.yul\":2965:2974   */\n      dup4\n        /* \"#utility.yul\":2961:2979   */\n      add\n        /* \"#utility.yul\":2952:2958   */\n      dup5\n        /* \"#utility.yul\":2908:2980   */\n      tag_93\n      jump\t// in\n    tag_99:\n        /* \"#utility.yul\":2564:2987   */\n      swap4\n      swap3\n      pop\n      pop\n      pop\n      jump\t// out\n        /* \"#utility.yul\":2993:3122   */\n    tag_50:\n        /* \"#utility.yul\":3027:3033   */\n      0x00\n        /* \"#utility.yul\":3054:3074   */\n      tag_101\n      tag_102\n      jump\t// in\n    tag_101:\n        /* \"#utility.yul\":3044:3074   */\n      swap1\n      pop\n        /* \"#utility.yul\":3083:3116   */\n      tag_103\n        /* \"#utility.yul\":3111:3115   */\n      dup3\n        /* \"#utility.yul\":3103:3109   */\n      dup3\n        /* \"#utility.yul\":3083:3116   */\n      tag_104\n      jump\t// in\n    tag_103:\n        /* \"#utility.yul\":2993:3122   */\n      swap2\n      swap1\n      pop\n      jump\t// out\n        /* \"#utility.yul\":3128:3203   */\n    tag_102:\n        /* \"#utility.yul\":3161:3167   */\n      0x00\n        /* \"#utility.yul\":3194:3196   */\n      0x40\n        /* \"#utility.yul\":3188:3197   */\n      mload\n        /* \"#utility.yul\":3178:3197   */\n      swap1\n      pop\n        /* \"#utility.yul\":3128:3203   */\n      swap1\n      jump\t// out\n        /* \"#utility.yul\":3209:3517   */\n    tag_49:\n        /* \"#utility.yul\":3271:3275   */\n      0x00\n        /* \"#utility.yul\":3361:3379   */\n      0xffffffffffffffff\n        /* \"#utility.yul\":3353:3359   */\n      dup3\n        /* \"#utility.yul\":3350:3380   */\n      gt\n        /* \"#utility.yul\":3347:3403   */\n      iszero\n      tag_107\n      jumpi\n        /* \"#utility.yul\":3383:3401   */\n      tag_108\n      tag_109\n      jump\t// in\n    tag_108:\n        /* \"#utility.yul\":3347:3403   */\n    tag_107:\n        /* \"#utility.yul\":3421:3450   */\n      tag_110\n        /* \"#utility.yul\":3443:3449   */\n      dup3\n        /* \"#utility.yul\":3421:3450   */\n      tag_92\n      jump\t// in\n    tag_110:\n        /* \"#utility.yul\":3413:3450   */\n      swap1\n      pop\n        /* \"#utility.yul\":3505:3509   */\n      0x20\n        /* \"#utility.yul\":3499:3503   */\n      dup2\n        /* \"#utility.yul\":3495:3510   */\n      add\n        /* \"#utility.yul\":3487:3510   */\n      swap1\n      pop\n        /* \"#utility.yul\":3209:3517   */\n      swap2\n      swap1\n      pop\n      jump\t// out\n        /* \"#utility.yul\":3523:3622   */\n    tag_86:\n        /* \"#utility.yul\":3575:3581   */\n      0x00\n        /* \"#utility.yul\":3609:3614   */\n      dup2\n        /* \"#utility.yul\":3603:3615   */\n      mload\n        /* \"#utility.yul\":3593:3615   */\n      swap1\n      pop\n        /* \"#utility.yul\":3523:3622   */\n      swap2\n      swap1\n      pop\n      jump\t// out\n        /* \"#utility.yul\":3628:3797   */\n    tag_88:\n        /* \"#utility.yul\":3712:3723   */\n      0x00\n        /* \"#utility.yul\":3746:3752   */\n      dup3\n        /* \"#utility.yul\":3741:3744   */\n      dup3\n        /* \"#utility.yul\":3734:3753   */\n      mstore\n        /* \"#utility.yul\":3786:3790   */\n      0x20\n        /* \"#utility.yul\":3781:3784   */\n      dup3\n        /* \"#utility.yul\":3777:3791   */\n      add\n        /* \"#utility.yul\":3762:3791   */\n      swap1\n      pop\n        /* \"#utility.yul\":3628:3797   */\n      swap3\n      swap2\n      pop\n      pop\n      jump\t// out\n        /* \"#utility.yul\":3803:3899   */\n    tag_113:\n        /* \"#utility.yul\":3840:3847   */\n      0x00\n        /* \"#utility.yul\":3869:3893   */\n      tag_115\n        /* \"#utility.yul\":3887:3892   */\n      dup3\n        /* \"#utility.yul\":3869:3893   */\n      tag_116\n      jump\t// in\n    tag_115:\n        /* \"#utility.yul\":3858:3893   */\n      swap1\n      pop\n        /* \"#utility.yul\":3803:3899   */\n      swap2\n      swap1\n      pop\n      jump\t// out\n        /* \"#utility.yul\":3905:4031   */\n    tag_116:\n        /* \"#utility.yul\":3942:3949   */\n      0x00\n        /* \"#utility.yul\":3982:4024   */\n      0xffffffffffffffffffffffffffffffffffffffff\n        /* \"#utility.yul\":3975:3980   */\n      dup3\n        /* \"#utility.yul\":3971:4025   */\n      and\n        /* \"#utility.yul\":3960:4025   */\n      swap1\n      pop\n        /* \"#utility.yul\":3905:4031   */\n      swap2\n      swap1\n      pop\n      jump\t// out\n        /* \"#utility.yul\":4037:4114   */\n    tag_96:\n        /* \"#utility.yul\":4074:4081   */\n      0x00\n        /* \"#utility.yul\":4103:4108   */\n      dup2\n        /* \"#utility.yul\":4092:4108   */\n      swap1\n      pop\n        /* \"#utility.yul\":4037:4114   */\n      swap2\n      swap1\n      pop\n      jump\t// out\n        /* \"#utility.yul\":4120:4274   */\n    tag_55:\n        /* \"#utility.yul\":4204:4210   */\n      dup3\n        /* \"#utility.yul\":4199:4202   */\n      dup2\n        /* \"#utility.yul\":4194:4197   */\n      dup4\n        /* \"#utility.yul\":4181:4211   */\n      calldatacopy\n        /* \"#utility.yul\":4266:4267   */\n      0x00\n        /* \"#utility.yul\":4257:4263   */\n      dup4\n        /* \"#utility.yul\":4252:4255   */\n      dup4\n        /* \"#utility.yul\":4248:4264   */\n      add\n        /* \"#utility.yul\":4241:4268   */\n      mstore\n        /* \"#utility.yul\":4120:4274   */\n      pop\n      pop\n      pop\n      jump\t// out\n        /* \"#utility.yul\":4280:4587   */\n    tag_90:\n        /* \"#utility.yul\":4348:4349   */\n      0x00\n        /* \"#utility.yul\":4358:4471   */\n    tag_121:\n        /* \"#utility.yul\":4372:4378   */\n      dup4\n        /* \"#utility.yul\":4369:4370   */\n      dup2\n        /* \"#utility.yul\":4366:4379   */\n      lt\n        /* \"#utility.yul\":4358:4471   */\n      iszero\n      tag_123\n      jumpi\n        /* \"#utility.yul\":4457:4458   */\n      dup1\n        /* \"#utility.yul\":4452:4455   */\n      dup3\n        /* \"#utility.yul\":4448:4459   */\n      add\n        /* \"#utility.yul\":4442:4460   */\n      mload\n        /* \"#utility.yul\":4438:4439   */\n      dup2\n        /* \"#utility.yul\":4433:4436   */\n      dup5\n        /* \"#utility.yul\":4429:4440   */\n      add\n        /* \"#utility.yul\":4422:4461   */\n      mstore\n        /* \"#utility.yul\":4394:4396   */\n      0x20\n        /* \"#utility.yul\":4391:4392   */\n      dup2\n        /* \"#utility.yul\":4387:4397   */\n      add\n        /* \"#utility.yul\":4382:4397   */\n      swap1\n      pop\n        /* \"#utility.yul\":4358:4471   */\n      jump(tag_121)\n    tag_123:\n        /* \"#utility.yul\":4489:4495   */\n      dup4\n        /* \"#utility.yul\":4486:4487   */\n      dup2\n        /* \"#utility.yul\":4483:4496   */\n      gt\n        /* \"#utility.yul\":4480:4581   */\n      iszero\n      tag_124\n      jumpi\n        /* \"#utility.yul\":4569:4570   */\n      0x00\n        /* \"#utility.yul\":4560:4566   */\n      dup5\n        /* \"#utility.yul\":4555:4558   */\n      dup5\n        /* \"#utility.yul\":4551:4567   */\n      add\n        /* \"#utility.yul\":4544:4571   */\n      mstore\n        /* \"#utility.yul\":4480:4581   */\n    tag_124:\n        /* \"#utility.yul\":4329:4587   */\n      pop\n        /* \"#utility.yul\":4280:4587   */\n      pop\n      pop\n      pop\n      jump\t// out\n        /* \"#utility.yul\":4593:4913   */\n    tag_20:\n        /* \"#utility.yul\":4637:4643   */\n      0x00\n        /* \"#utility.yul\":4674:4675   */\n      0x02\n        /* \"#utility.yul\":4668:4672   */\n      dup3\n        /* \"#utility.yul\":4664:4676   */\n      div\n        /* \"#utility.yul\":4654:4676   */\n      swap1\n      pop\n        /* \"#utility.yul\":4721:4722   */\n      0x01\n        /* \"#utility.yul\":4715:4719   */\n      dup3\n        /* \"#utility.yul\":4711:4723   */\n      and\n        /* \"#utility.yul\":4742:4760   */\n      dup1\n        /* \"#utility.yul\":4732:4813   */\n      tag_126\n      jumpi\n        /* \"#utility.yul\":4798:4802   */\n      0x7f\n        /* \"#utility.yul\":4790:4796   */\n      dup3\n        /* \"#utility.yul\":4786:4803   */\n      and\n        /* \"#utility.yul\":4776:4803   */\n      swap2\n      pop\n        /* \"#utility.yul\":4732:4813   */\n    tag_126:\n        /* \"#utility.yul\":4860:4862   */\n      0x20\n        /* \"#utility.yul\":4852:4858   */\n      dup3\n        /* \"#utility.yul\":4849:4863   */\n      lt\n        /* \"#utility.yul\":4829:4847   */\n      dup2\n        /* \"#utility.yul\":4826:4864   */\n      eq\n        /* \"#utility.yul\":4823:4907   */\n      iszero\n      tag_127\n      jumpi\n        /* \"#utility.yul\":4879:4897   */\n      tag_128\n      tag_129\n      jump\t// in\n    tag_128:\n        /* \"#utility.yul\":4823:4907   */\n    tag_127:\n        /* \"#utility.yul\":4644:4913   */\n      pop\n        /* \"#utility.yul\":4593:4913   */\n      swap2\n      swap1\n      pop\n      jump\t// out\n        /* \"#utility.yul\":4919:5200   */\n    tag_104:\n        /* \"#utility.yul\":5002:5029   */\n      tag_131\n        /* \"#utility.yul\":5024:5028   */\n      dup3\n        /* \"#utility.yul\":5002:5029   */\n      tag_92\n      jump\t// in\n    tag_131:\n        /* \"#utility.yul\":4994:5000   */\n      dup2\n        /* \"#utility.yul\":4990:5030   */\n      add\n        /* \"#utility.yul\":5132:5138   */\n      dup2\n        /* \"#utility.yul\":5120:5130   */\n      dup2\n        /* \"#utility.yul\":5117:5139   */\n      lt\n        /* \"#utility.yul\":5096:5114   */\n      0xffffffffffffffff\n        /* \"#utility.yul\":5084:5094   */\n      dup3\n        /* \"#utility.yul\":5081:5115   */\n      gt\n        /* \"#utility.yul\":5078:5140   */\n      or\n        /* \"#utility.yul\":5075:5163   */\n      iszero\n      tag_132\n      jumpi\n        /* \"#utility.yul\":5143:5161   */\n      tag_133\n      tag_109\n      jump\t// in\n    tag_133:\n        /* \"#utility.yul\":5075:5163   */\n    tag_132:\n        /* \"#utility.yul\":5183:5193   */\n      dup1\n        /* \"#utility.yul\":5179:5181   */\n      0x40\n        /* \"#utility.yul\":5172:5194   */\n      mstore\n        /* \"#utility.yul\":4962:5200   */\n      pop\n        /* \"#utility.yul\":4919:5200   */\n      pop\n      pop\n      jump\t// out\n        /* \"#utility.yul\":5206:5386   */\n    tag_129:\n        /* \"#utility.yul\":5254:5331   */\n      0x4e487b7100000000000000000000000000000000000000000000000000000000\n        /* \"#utility.yul\":5251:5252   */\n      0x00\n        /* \"#utility.yul\":5244:5332   */\n      mstore\n        /* \"#utility.yul\":5351:5355   */\n      0x22\n        /* \"#utility.yul\":5348:5349   */\n      0x04\n        /* \"#utility.yul\":5341:5356   */\n      mstore\n        /* \"#utility.yul\":5375:5379   */\n      0x24\n        /* \"#utility.yul\":5372:5373   */\n      0x00\n        /* \"#utility.yul\":5365:5380   */\n      revert\n        /* \"#utility.yul\":5392:5572   */\n    tag_109:\n        /* \"#utility.yul\":5440:5517   */\n      0x4e487b7100000000000000000000000000000000000000000000000000000000\n        /* \"#utility.yul\":5437:5438   */\n      0x00\n        /* \"#utility.yul\":5430:5518   */\n      mstore\n        /* \"#utility.yul\":5537:5541   */\n      0x41\n        /* \"#utility.yul\":5534:5535   */\n      0x04\n        /* \"#utility.yul\":5527:5542   */\n      mstore\n        /* \"#utility.yul\":5561:5565   */\n      0x24\n        /* \"#utility.yul\":5558:5559   */\n      0x00\n        /* \"#utility.yul\":5551:5566   */\n      revert\n        /* \"#utility.yul\":5578:5695   */\n    tag_64:\n        /* \"#utility.yul\":5687:5688   */\n      0x00\n        /* \"#utility.yul\":5684:5685   */\n      dup1\n        /* \"#utility.yul\":5677:5689   */\n      revert\n        /* \"#utility.yul\":5701:5818   */\n    tag_53:\n        /* \"#utility.yul\":5810:5811   */\n      0x00\n        /* \"#utility.yul\":5807:5808   */\n      dup1\n        /* \"#utility.yul\":5800:5812   */\n      revert\n        /* \"#utility.yul\":5824:5941   */\n    tag_80:\n        /* \"#utility.yul\":5933:5934   */\n      0x00\n        /* \"#utility.yul\":5930:5931   */\n      dup1\n        /* \"#utility.yul\":5923:5935   */\n      revert\n        /* \"#utility.yul\":5947:6064   */\n    tag_73:\n        /* \"#utility.yul\":6056:6057   */\n      0x00\n        /* \"#utility.yul\":6053:6054   */\n      dup1\n        /* \"#utility.yul\":6046:6058   */\n      revert\n        /* \"#utility.yul\":6070:6172   */\n    tag_92:\n        /* \"#utility.yul\":6111:6117   */\n      0x00\n        /* \"#utility.yul\":6162:6164   */\n      0x1f\n        /* \"#utility.yul\":6158:6165   */\n      not\n        /* \"#utility.yul\":6153:6155   */\n      0x1f\n        /* \"#utility.yul\":6146:6151   */\n      dup4\n        /* \"#utility.yul\":6142:6156   */\n      add\n        /* \"#utility.yul\":6138:6166   */\n      and\n        /* \"#utility.yul\":6128:6166   */\n      swap1\n      pop\n        /* \"#utility.yul\":6070:6172   */\n      swap2\n      swap1\n      pop\n      jump\t// out\n        /* \"#utility.yul\":6178:6300   */\n    tag_59:\n        /* \"#utility.yul\":6251:6275   */\n      tag_142\n        /* \"#utility.yul\":6269:6274   */\n      dup2\n        /* \"#utility.yul\":6251:6275   */\n      tag_113\n      jump\t// in\n    tag_142:\n        /* \"#utility.yul\":6244:6249   */\n      dup2\n        /* \"#utility.yul\":6241:6276   */\n      eq\n        /* \"#utility.yul\":6231:6294   */\n      tag_143\n      jumpi\n        /* \"#utility.yul\":6290:6291   */\n      0x00\n        /* \"#utility.yul\":6287:6288   */\n      dup1\n        /* \"#utility.yul\":6280:6292   */\n      revert\n        /* \"#utility.yul\":6231:6294   */\n    tag_143:\n        /* \"#utility.yul\":6178:6300   */\n      pop\n      jump\t// out\n        /* \"#utility.yul\":6306:6428   */\n    tag_69:\n        /* \"#utility.yul\":6379:6403   */\n      tag_145\n        /* \"#utility.yul\":6397:6402   */\n      dup2\n        /* \"#utility.yul\":6379:6403   */\n      tag_96\n      jump\t// in\n    tag_145:\n        /* \"#utility.yul\":6372:6377   */\n      dup2\n        /* \"#utility.yul\":6369:6404   */\n      eq\n        /* \"#utility.yul\":6359:6422   */\n      tag_146\n      jumpi\n        /* \"#utility.yul\":6418:6419   */\n      0x00\n        /* \"#utility.yul\":6415:6416   */\n      dup1\n        /* \"#utility.yul\":6408:6420   */\n      revert\n        /* \"#utility.yul\":6359:6422   */\n    tag_146:\n        /* \"#utility.yul\":6306:6428   */\n      pop\n      jump\t// out\n\n    auxdata: 0xa2646970667358221220e993f0ed8795ceab60e4745644be59d36cd4611f5c3bb980eb3091bceffd9f6d64736f6c63430008070033\n}\n",
				"bytecode": {
					"linkReferences": {},
					"object": "608060405234801561001057600080fd5b5061077d806100206000396000f3fe608060405234801561001057600080fd5b50600436106100415760003560e01c80630f20dbd414610046578063311195e014610077578063e8c6a4d714610093575b600080fd5b610060600480360381019061005b9190610442565b6100b2565b60405161006e929190610513565b60405180910390f35b610091600480360381019061008c919061046f565b61015e565b005b61009b6101e0565b6040516100a9929190610513565b60405180910390f35b60016020528060005260406000206000915090508060000180546100d590610633565b80601f016020809104026020016040519081016040528092919081815260200182805461010190610633565b801561014e5780601f106101235761010080835404028352916020019161014e565b820191906000526020600020905b81548152906001019060200180831161013157829003601f168201915b5050505050908060010154905082565b604051806040016040528083815260200182815250600160003373ffffffffffffffffffffffffffffffffffffffff1673ffffffffffffffffffffffffffffffffffffffff16815260200190815260200160002060008201518160000190805190602001906101ce929190610305565b50602082015181600101559050505050565b6060600080600160003373ffffffffffffffffffffffffffffffffffffffff1673ffffffffffffffffffffffffffffffffffffffff168152602001908152602001600020600001805461023290610633565b80601f016020809104026020016040519081016040528092919081815260200182805461025e90610633565b80156102ab5780601f10610280576101008083540402835291602001916102ab565b820191906000526020600020905b81548152906001019060200180831161028e57829003601f168201915b505050505090506000600160003373ffffffffffffffffffffffffffffffffffffffff1673ffffffffffffffffffffffffffffffffffffffff16815260200190815260200160002060010154905081819350935050509091565b82805461031190610633565b90600052602060002090601f016020900481019282610333576000855561037a565b82601f1061034c57805160ff191683800117855561037a565b8280016001018555821561037a579182015b8281111561037957825182559160200191906001019061035e565b5b509050610387919061038b565b5090565b5b808211156103a457600081600090555060010161038c565b5090565b60006103bb6103b684610568565b610543565b9050828152602081018484840111156103d7576103d66106f9565b5b6103e28482856105f1565b509392505050565b6000813590506103f981610719565b92915050565b600082601f830112610414576104136106f4565b5b81356104248482602086016103a8565b91505092915050565b60008135905061043c81610730565b92915050565b60006020828403121561045857610457610703565b5b6000610466848285016103ea565b91505092915050565b6000806040838503121561048657610485610703565b5b600083013567ffffffffffffffff8111156104a4576104a36106fe565b5b6104b0858286016103ff565b92505060206104c18582860161042d565b9150509250929050565b60006104d682610599565b6104e081856105a4565b93506104f0818560208601610600565b6104f981610708565b840191505092915050565b61050d816105e7565b82525050565b6000604082019050818103600083015261052d81856104cb565b905061053c6020830184610504565b9392505050565b600061054d61055e565b90506105598282610665565b919050565b6000604051905090565b600067ffffffffffffffff821115610583576105826106c5565b5b61058c82610708565b9050602081019050919050565b600081519050919050565b600082825260208201905092915050565b60006105c0826105c7565b9050919050565b600073ffffffffffffffffffffffffffffffffffffffff82169050919050565b6000819050919050565b82818337600083830152505050565b60005b8381101561061e578082015181840152602081019050610603565b8381111561062d576000848401525b50505050565b6000600282049050600182168061064b57607f821691505b6020821081141561065f5761065e610696565b5b50919050565b61066e82610708565b810181811067ffffffffffffffff8211171561068d5761068c6106c5565b5b80604052505050565b7f4e487b7100000000000000000000000000000000000000000000000000000000600052602260045260246000fd5b7f4e487b7100000000000000000000000000000000000000000000000000000000600052604160045260246000fd5b600080fd5b600080fd5b600080fd5b600080fd5b6000601f19601f8301169050919050565b610722816105b5565b811461072d57600080fd5b50565b610739816105e7565b811461074457600080fd5b5056fea2646970667358221220e993f0ed8795ceab60e4745644be59d36cd4611f5c3bb980eb3091bceffd9f6d64736f6c63430008070033",
					"opcodes": "PUSH1 0x80 PUSH1 0x40 MSTORE CALLVALUE DUP1 ISZERO PUSH2 0x10 JUMPI PUSH1 0x0 DUP1 REVERT JUMPDEST POP PUSH2 0x77D DUP1 PUSH2 0x20 PUSH1 0x0 CODECOPY PUSH1 0x0 RETURN INVALID PUSH1 0x80 PUSH1 0x40 MSTORE CALLVALUE DUP1 ISZERO PUSH2 0x10 JUMPI PUSH1 0x0 DUP1 REVERT JUMPDEST POP PUSH1 0x4 CALLDATASIZE LT PUSH2 0x41 JUMPI PUSH1 0x0 CALLDATALOAD PUSH1 0xE0 SHR DUP1 PUSH4 0xF20DBD4 EQ PUSH2 0x46 JUMPI DUP1 PUSH4 0x311195E0 EQ PUSH2 0x77 JUMPI DUP1 PUSH4 0xE8C6A4D7 EQ PUSH2 0x93 JUMPI JUMPDEST PUSH1 0x0 DUP1 REVERT JUMPDEST PUSH2 0x60 PUSH1 0x4 DUP1 CALLDATASIZE SUB DUP2 ADD SWAP1 PUSH2 0x5B SWAP2 SWAP1 PUSH2 0x442 JUMP JUMPDEST PUSH2 0xB2 JUMP JUMPDEST PUSH1 0x40 MLOAD PUSH2 0x6E SWAP3 SWAP2 SWAP1 PUSH2 0x513 JUMP JUMPDEST PUSH1 0x40 MLOAD DUP1 SWAP2 SUB SWAP1 RETURN JUMPDEST PUSH2 0x91 PUSH1 0x4 DUP1 CALLDATASIZE SUB DUP2 ADD SWAP1 PUSH2 0x8C SWAP2 SWAP1 PUSH2 0x46F JUMP JUMPDEST PUSH2 0x15E JUMP JUMPDEST STOP JUMPDEST PUSH2 0x9B PUSH2 0x1E0 JUMP JUMPDEST PUSH1 0x40 MLOAD PUSH2 0xA9 SWAP3 SWAP2 SWAP1 PUSH2 0x513 JUMP JUMPDEST PUSH1 0x40 MLOAD DUP1 SWAP2 SUB SWAP1 RETURN JUMPDEST PUSH1 0x1 PUSH1 0x20 MSTORE DUP1 PUSH1 0x0 MSTORE PUSH1 0x40 PUSH1 0x0 KECCAK256 PUSH1 0x0 SWAP2 POP SWAP1 POP DUP1 PUSH1 0x0 ADD DUP1 SLOAD PUSH2 0xD5 SWAP1 PUSH2 0x633 JUMP JUMPDEST DUP1 PUSH1 0x1F ADD PUSH1 0x20 DUP1 SWAP2 DIV MUL PUSH1 0x20 ADD PUSH1 0x40 MLOAD SWAP1 DUP2 ADD PUSH1 0x40 MSTORE DUP1 SWAP3 SWAP2 SWAP1 DUP2 DUP2 MSTORE PUSH1 0x20 ADD DUP3 DUP1 SLOAD PUSH2 0x101 SWAP1 PUSH2 0x633 JUMP JUMPDEST DUP1 ISZERO PUSH2 0x14E JUMPI DUP1 PUSH1 0x1F LT PUSH2 0x123 JUMPI PUSH2 0x100 DUP1 DUP4 SLOAD DIV MUL DUP4 MSTORE SWAP2 PUSH1 0x20 ADD SWAP2 PUSH2 0x14E JUMP JUMPDEST DUP3 ADD SWAP2 SWAP1 PUSH1 0x0 MSTORE PUSH1 0x20 PUSH1 0x0 KECCAK256 SWAP1 JUMPDEST DUP2 SLOAD DUP2 MSTORE SWAP1 PUSH1 0x1 ADD SWAP1 PUSH1 0x20 ADD DUP1 DUP4 GT PUSH2 0x131 JUMPI DUP3 SWAP1 SUB PUSH1 0x1F AND DUP3 ADD SWAP2 JUMPDEST POP POP POP POP POP SWAP1 DUP1 PUSH1 0x1 ADD SLOAD SWAP1 POP DUP3 JUMP JUMPDEST PUSH1 0x40 MLOAD DUP1 PUSH1 0x40 ADD PUSH1 0x40 MSTORE DUP1 DUP4 DUP2 MSTORE PUSH1 0x20 ADD DUP3 DUP2 MSTORE POP PUSH1 0x1 PUSH1 0x0 CALLER PUSH20 0xFFFFFFFFFFFFFFFFFFFFFFFFFFFFFFFFFFFFFFFF AND PUSH20 0xFFFFFFFFFFFFFFFFFFFFFFFFFFFFFFFFFFFFFFFF AND DUP2 MSTORE PUSH1 0x20 ADD SWAP1 DUP2 MSTORE PUSH1 0x20 ADD PUSH1 0x0 KECCAK256 PUSH1 0x0 DUP3 ADD MLOAD DUP2 PUSH1 0x0 ADD SWAP1 DUP1 MLOAD SWAP1 PUSH1 0x20 ADD SWAP1 PUSH2 0x1CE SWAP3 SWAP2 SWAP1 PUSH2 0x305 JUMP JUMPDEST POP PUSH1 0x20 DUP3 ADD MLOAD DUP2 PUSH1 0x1 ADD SSTORE SWAP1 POP POP POP POP JUMP JUMPDEST PUSH1 0x60 PUSH1 0x0 DUP1 PUSH1 0x1 PUSH1 0x0 CALLER PUSH20 0xFFFFFFFFFFFFFFFFFFFFFFFFFFFFFFFFFFFFFFFF AND PUSH20 0xFFFFFFFFFFFFFFFFFFFFFFFFFFFFFFFFFFFFFFFF AND DUP2 MSTORE PUSH1 0x20 ADD SWAP1 DUP2 MSTORE PUSH1 0x20 ADD PUSH1 0x0 KECCAK256 PUSH1 0x0 ADD DUP1 SLOAD PUSH2 0x232 SWAP1 PUSH2 0x633 JUMP JUMPDEST DUP1 PUSH1 0x1F ADD PUSH1 0x20 DUP1 SWAP2 DIV MUL PUSH1 0x20 ADD PUSH1 0x40 MLOAD SWAP1 DUP2 ADD PUSH1 0x40 MSTORE DUP1 SWAP3 SWAP2 SWAP1 DUP2 DUP2 MSTORE PUSH1 0x20 ADD DUP3 DUP1 SLOAD PUSH2 0x25E SWAP1 PUSH2 0x633 JUMP JUMPDEST DUP1 ISZERO PUSH2 0x2AB JUMPI DUP1 PUSH1 0x1F LT PUSH2 0x280 JUMPI PUSH2 0x100 DUP1 DUP4 SLOAD DIV MUL DUP4 MSTORE SWAP2 PUSH1 0x20 ADD SWAP2 PUSH2 0x2AB JUMP JUMPDEST DUP3 ADD SWAP2 SWAP1 PUSH1 0x0 MSTORE PUSH1 0x20 PUSH1 0x0 KECCAK256 SWAP1 JUMPDEST DUP2 SLOAD DUP2 MSTORE SWAP1 PUSH1 0x1 ADD SWAP1 PUSH1 0x20 ADD DUP1 DUP4 GT PUSH2 0x28E JUMPI DUP3 SWAP1 SUB PUSH1 0x1F AND DUP3 ADD SWAP2 JUMPDEST POP POP POP POP POP SWAP1 POP PUSH1 0x0 PUSH1 0x1 PUSH1 0x0 CALLER PUSH20 0xFFFFFFFFFFFFFFFFFFFFFFFFFFFFFFFFFFFFFFFF AND PUSH20 0xFFFFFFFFFFFFFFFFFFFFFFFFFFFFFFFFFFFFFFFF AND DUP2 MSTORE PUSH1 0x20 ADD SWAP1 DUP2 MSTORE PUSH1 0x20 ADD PUSH1 0x0 KECCAK256 PUSH1 0x1 ADD SLOAD SWAP1 POP DUP2 DUP2 SWAP4 POP SWAP4 POP POP POP SWAP1 SWAP2 JUMP JUMPDEST DUP3 DUP1 SLOAD PUSH2 0x311 SWAP1 PUSH2 0x633 JUMP JUMPDEST SWAP1 PUSH1 0x0 MSTORE PUSH1 0x20 PUSH1 0x0 KECCAK256 SWAP1 PUSH1 0x1F ADD PUSH1 0x20 SWAP1 DIV DUP2 ADD SWAP3 DUP3 PUSH2 0x333 JUMPI PUSH1 0x0 DUP6 SSTORE PUSH2 0x37A JUMP JUMPDEST DUP3 PUSH1 0x1F LT PUSH2 0x34C JUMPI DUP1 MLOAD PUSH1 0xFF NOT AND DUP4 DUP1 ADD OR DUP6 SSTORE PUSH2 0x37A JUMP JUMPDEST DUP3 DUP1 ADD PUSH1 0x1 ADD DUP6 SSTORE DUP3 ISZERO PUSH2 0x37A JUMPI SWAP2 DUP3 ADD JUMPDEST DUP3 DUP2 GT ISZERO PUSH2 0x379 JUMPI DUP3 MLOAD DUP3 SSTORE SWAP2 PUSH1 0x20 ADD SWAP2 SWAP1 PUSH1 0x1 ADD SWAP1 PUSH2 0x35E JUMP JUMPDEST JUMPDEST POP SWAP1 POP PUSH2 0x387 SWAP2 SWAP1 PUSH2 0x38B JUMP JUMPDEST POP SWAP1 JUMP JUMPDEST JUMPDEST DUP1 DUP3 GT ISZERO PUSH2 0x3A4 JUMPI PUSH1 0x0 DUP2 PUSH1 0x0 SWAP1 SSTORE POP PUSH1 0x1 ADD PUSH2 0x38C JUMP JUMPDEST POP SWAP1 JUMP JUMPDEST PUSH1 0x0 PUSH2 0x3BB PUSH2 0x3B6 DUP5 PUSH2 0x568 JUMP JUMPDEST PUSH2 0x543 JUMP JUMPDEST SWAP1 POP DUP3 DUP2 MSTORE PUSH1 0x20 DUP2 ADD DUP5 DUP5 DUP5 ADD GT ISZERO PUSH2 0x3D7 JUMPI PUSH2 0x3D6 PUSH2 0x6F9 JUMP JUMPDEST JUMPDEST PUSH2 0x3E2 DUP5 DUP3 DUP6 PUSH2 0x5F1 JUMP JUMPDEST POP SWAP4 SWAP3 POP POP POP JUMP JUMPDEST PUSH1 0x0 DUP2 CALLDATALOAD SWAP1 POP PUSH2 0x3F9 DUP2 PUSH2 0x719 JUMP JUMPDEST SWAP3 SWAP2 POP POP JUMP JUMPDEST PUSH1 0x0 DUP3 PUSH1 0x1F DUP4 ADD SLT PUSH2 0x414 JUMPI PUSH2 0x413 PUSH2 0x6F4 JUMP JUMPDEST JUMPDEST DUP2 CALLDATALOAD PUSH2 0x424 DUP5 DUP3 PUSH1 0x20 DUP7 ADD PUSH2 0x3A8 JUMP JUMPDEST SWAP2 POP POP SWAP3 SWAP2 POP POP JUMP JUMPDEST PUSH1 0x0 DUP2 CALLDATALOAD SWAP1 POP PUSH2 0x43C DUP2 PUSH2 0x730 JUMP JUMPDEST SWAP3 SWAP2 POP POP JUMP JUMPDEST PUSH1 0x0 PUSH1 0x20 DUP3 DUP5 SUB SLT ISZERO PUSH2 0x458 JUMPI PUSH2 0x457 PUSH2 0x703 JUMP JUMPDEST JUMPDEST PUSH1 0x0 PUSH2 0x466 DUP5 DUP3 DUP6 ADD PUSH2 0x3EA JUMP JUMPDEST SWAP2 POP POP SWAP3 SWAP2 POP POP JUMP JUMPDEST PUSH1 0x0 DUP1 PUSH1 0x40 DUP4 DUP6 SUB SLT ISZERO PUSH2 0x486 JUMPI PUSH2 0x485 PUSH2 0x703 JUMP JUMPDEST JUMPDEST PUSH1 0x0 DUP4 ADD CALLDATALOAD PUSH8 0xFFFFFFFFFFFFFFFF DUP2 GT ISZERO PUSH2 0x4A4 JUMPI PUSH2 0x4A3 PUSH2 0x6FE JUMP JUMPDEST JUMPDEST PUSH2 0x4B0 DUP6 DUP3 DUP7 ADD PUSH2 0x3FF JUMP JUMPDEST SWAP3 POP POP PUSH1 0x20 PUSH2 0x4C1 DUP6 DUP3 DUP7 ADD PUSH2 0x42D JUMP JUMPDEST SWAP2 POP POP SWAP3 POP SWAP3 SWAP1 POP JUMP JUMPDEST PUSH1 0x0 PUSH2 0x4D6 DUP3 PUSH2 0x599 JUMP JUMPDEST PUSH2 0x4E0 DUP2 DUP6 PUSH2 0x5A4 JUMP JUMPDEST SWAP4 POP PUSH2 0x4F0 DUP2 DUP6 PUSH1 0x20 DUP7 ADD PUSH2 0x600 JUMP JUMPDEST PUSH2 0x4F9 DUP2 PUSH2 0x708 JUMP JUMPDEST DUP5 ADD SWAP2 POP POP SWAP3 SWAP2 POP POP JUMP JUMPDEST PUSH2 0x50D DUP2 PUSH2 0x5E7 JUMP JUMPDEST DUP3 MSTORE POP POP JUMP JUMPDEST PUSH1 0x0 PUSH1 0x40 DUP3 ADD SWAP1 POP DUP2 DUP2 SUB PUSH1 0x0 DUP4 ADD MSTORE PUSH2 0x52D DUP2 DUP6 PUSH2 0x4CB JUMP JUMPDEST SWAP1 POP PUSH2 0x53C PUSH1 0x20 DUP4 ADD DUP5 PUSH2 0x504 JUMP JUMPDEST SWAP4 SWAP3 POP POP POP JUMP JUMPDEST PUSH1 0x0 PUSH2 0x54D PUSH2 0x55E JUMP JUMPDEST SWAP1 POP PUSH2 0x559 DUP3 DUP3 PUSH2 0x665 JUMP JUMPDEST SWAP2 SWAP1 POP JUMP JUMPDEST PUSH1 0x0 PUSH1 0x40 MLOAD SWAP1 POP SWAP1 JUMP JUMPDEST PUSH1 0x0 PUSH8 0xFFFFFFFFFFFFFFFF DUP3 GT ISZERO PUSH2 0x583 JUMPI PUSH2 0x582 PUSH2 0x6C5 JUMP JUMPDEST JUMPDEST PUSH2 0x58C DUP3 PUSH2 0x708 JUMP JUMPDEST SWAP1 POP PUSH1 0x20 DUP2 ADD SWAP1 POP SWAP2 SWAP1 POP JUMP JUMPDEST PUSH1 0x0 DUP2 MLOAD SWAP1 POP SWAP2 SWAP1 POP JUMP JUMPDEST PUSH1 0x0 DUP3 DUP3 MSTORE PUSH1 0x20 DUP3 ADD SWAP1 POP SWAP3 SWAP2 POP POP JUMP JUMPDEST PUSH1 0x0 PUSH2 0x5C0 DUP3 PUSH2 0x5C7 JUMP JUMPDEST SWAP1 POP SWAP2 SWAP1 POP JUMP JUMPDEST PUSH1 0x0 PUSH20 0xFFFFFFFFFFFFFFFFFFFFFFFFFFFFFFFFFFFFFFFF DUP3 AND SWAP1 POP SWAP2 SWAP1 POP JUMP JUMPDEST PUSH1 0x0 DUP2 SWAP1 POP SWAP2 SWAP1 POP JUMP JUMPDEST DUP3 DUP2 DUP4 CALLDATACOPY PUSH1 0x0 DUP4 DUP4 ADD MSTORE POP POP POP JUMP JUMPDEST PUSH1 0x0 JUMPDEST DUP4 DUP2 LT ISZERO PUSH2 0x61E JUMPI DUP1 DUP3 ADD MLOAD DUP2 DUP5 ADD MSTORE PUSH1 0x20 DUP2 ADD SWAP1 POP PUSH2 0x603 JUMP JUMPDEST DUP4 DUP2 GT ISZERO PUSH2 0x62D JUMPI PUSH1 0x0 DUP5 DUP5 ADD MSTORE JUMPDEST POP POP POP POP JUMP JUMPDEST PUSH1 0x0 PUSH1 0x2 DUP3 DIV SWAP1 POP PUSH1 0x1 DUP3 AND DUP1 PUSH2 0x64B JUMPI PUSH1 0x7F DUP3 AND SWAP2 POP JUMPDEST PUSH1 0x20 DUP3 LT DUP2 EQ ISZERO PUSH2 0x65F JUMPI PUSH2 0x65E PUSH2 0x696 JUMP JUMPDEST JUMPDEST POP SWAP2 SWAP1 POP JUMP JUMPDEST PUSH2 0x66E DUP3 PUSH2 0x708 JUMP JUMPDEST DUP2 ADD DUP2 DUP2 LT PUSH8 0xFFFFFFFFFFFFFFFF DUP3 GT OR ISZERO PUSH2 0x68D JUMPI PUSH2 0x68C PUSH2 0x6C5 JUMP JUMPDEST JUMPDEST DUP1 PUSH1 0x40 MSTORE POP POP POP JUMP JUMPDEST PUSH32 0x4E487B7100000000000000000000000000000000000000000000000000000000 PUSH1 0x0 MSTORE PUSH1 0x22 PUSH1 0x4 MSTORE PUSH1 0x24 PUSH1 0x0 REVERT JUMPDEST PUSH32 0x4E487B7100000000000000000000000000000000000000000000000000000000 PUSH1 0x0 MSTORE PUSH1 0x41 PUSH1 0x4 MSTORE PUSH1 0x24 PUSH1 0x0 REVERT JUMPDEST PUSH1 0x0 DUP1 REVERT JUMPDEST PUSH1 0x0 DUP1 REVERT JUMPDEST PUSH1 0x0 DUP1 REVERT JUMPDEST PUSH1 0x0 DUP1 REVERT JUMPDEST PUSH1 0x0 PUSH1 0x1F NOT PUSH1 0x1F DUP4 ADD AND SWAP1 POP SWAP2 SWAP1 POP JUMP JUMPDEST PUSH2 0x722 DUP2 PUSH2 0x5B5 JUMP JUMPDEST DUP2 EQ PUSH2 0x72D JUMPI PUSH1 0x0 DUP1 REVERT JUMPDEST POP JUMP JUMPDEST PUSH2 0x739 DUP2 PUSH2 0x5E7 JUMP JUMPDEST DUP2 EQ PUSH2 0x744 JUMPI PUSH1 0x0 DUP1 REVERT JUMPDEST POP JUMP INVALID LOG2 PUSH5 0x6970667358 0x22 SLT KECCAK256 0xE9 SWAP4 CREATE 0xED DUP8 SWAP6 0xCE 0xAB PUSH1 0xE4 PUSH21 0x5644BE59D36CD4611F5C3BB980EB3091BCEFFD9F6D PUSH5 0x736F6C6343 STOP ADDMOD SMOD STOP CALLER "
				},
				"gasEstimates": {
					"creation": {
						"codeDepositCost": "383400",
						"executionCost": "418",
						"totalCost": "383818"
					},
					"external": {
						"Reservation(string,uint256)": "infinite",
						"getReservation()": "infinite",
						"reserv(address)": "infinite"
					}
				},
				"methodIdentifiers": {
					"Reservation(string,uint256)": "311195e0",
					"getReservation()": "e8c6a4d7",
					"reserv(address)": "0f20dbd4"
				}
			},
			"storageLayout": {
				"storage": [
					{
						"astId": 565,
						"contract": "contracts/Student.sol:Student",
						"label": "DB",
						"offset": 0,
						"slot": "0",
						"type": "t_contract(Database)434"
					},
					{
						"astId": 575,
						"contract": "contracts/Student.sol:Student",
						"label": "reserv",
						"offset": 0,
						"slot": "1",
						"type": "t_mapping(t_address,t_struct(reservation)570_storage)"
					}
				],
				"types": {
					"t_address": {
						"encoding": "inplace",
						"label": "address",
						"numberOfBytes": "20"
					},
					"t_contract(Database)434": {
						"encoding": "inplace",
						"label": "contract Database",
						"numberOfBytes": "20"
					},
					"t_mapping(t_address,t_struct(reservation)570_storage)": {
						"encoding": "mapping",
						"key": "t_address",
						"label": "mapping(address => struct Student.reservation)",
						"numberOfBytes": "32",
						"value": "t_struct(reservation)570_storage"
					},
					"t_string_storage": {
						"encoding": "bytes",
						"label": "string",
						"numberOfBytes": "32"
					},
					"t_struct(reservation)570_storage": {
						"encoding": "inplace",
						"label": "struct Student.reservation",
						"members": [
							{
								"astId": 567,
								"contract": "contracts/Student.sol:Student",
								"label": "busNum",
								"offset": 0,
								"slot": "0",
								"type": "t_string_storage"
							},
							{
								"astId": 569,
								"contract": "contracts/Student.sol:Student",
								"label": "seat_num",
								"offset": 0,
								"slot": "1",
								"type": "t_uint256"
							}
						],
						"numberOfBytes": "64"
					},
					"t_uint256": {
						"encoding": "inplace",
						"label": "uint256",
						"numberOfBytes": "32"
					}
				}
			},
			"userdoc": {
				"kind": "user",
				"methods": {},
				"version": 1
			}
		}
	}
}