{
	"contracts/main.sol": {
		"smartReservation": {
			"abi": [
				{
					"inputs": [],
					"stateMutability": "nonpayable",
					"type": "constructor"
				},
				{
					"inputs": [
						{
							"internalType": "uint256",
							"name": "_num",
							"type": "uint256"
						},
						{
							"internalType": "string",
							"name": "_destination",
							"type": "string"
						}
					],
					"name": "addBus",
					"outputs": [
						{
							"internalType": "contract Bus",
							"name": "",
							"type": "address"
						}
					],
					"stateMutability": "nonpayable",
					"type": "function"
				},
				{
					"inputs": [
						{
							"internalType": "uint256",
							"name": "_num",
							"type": "uint256"
						}
					],
					"name": "getBusInformation",
					"outputs": [],
					"stateMutability": "view",
					"type": "function"
				}
			],
			"devdoc": {
				"kind": "dev",
				"methods": {},
				"version": 1
			},
			"evm": {
				"assembly": "    /* \"contracts/main.sol\":144:695  contract smartReservation{... */\n  mstore(0x40, 0x80)\n    /* \"contracts/main.sol\":237:287  constructor(){... */\n  callvalue\n  dup1\n  iszero\n  tag_1\n  jumpi\n  0x00\n  dup1\n  revert\ntag_1:\n  pop\n    /* \"contracts/main.sol\":270:280  msg.sender */\n  caller\n    /* \"contracts/main.sol\":260:267  manager */\n  0x00\n  dup1\n    /* \"contracts/main.sol\":260:280  manager = msg.sender */\n  0x0100\n  exp\n  dup2\n  sload\n  dup2\n  0xffffffffffffffffffffffffffffffffffffffff\n  mul\n  not\n  and\n  swap1\n  dup4\n  0xffffffffffffffffffffffffffffffffffffffff\n  and\n  mul\n  or\n  swap1\n  sstore\n  pop\n    /* \"contracts/main.sol\":144:695  contract smartReservation{... */\n  dataSize(sub_0)\n  dup1\n  dataOffset(sub_0)\n  0x00\n  codecopy\n  0x00\n  return\nstop\n\nsub_0: assembly {\n        /* \"contracts/main.sol\":144:695  contract smartReservation{... */\n      mstore(0x40, 0x80)\n      callvalue\n      dup1\n      iszero\n      tag_1\n      jumpi\n      0x00\n      dup1\n      revert\n    tag_1:\n      pop\n      jumpi(tag_2, lt(calldatasize, 0x04))\n      shr(0xe0, calldataload(0x00))\n      dup1\n      0x9221aa1a\n      eq\n      tag_3\n      jumpi\n      dup1\n      0xfbcc6cb5\n      eq\n      tag_4\n      jumpi\n    tag_2:\n      0x00\n      dup1\n      revert\n        /* \"contracts/main.sol\":606:693  function getBusInformation(uint _num) public view {... */\n    tag_3:\n      tag_5\n      0x04\n      dup1\n      calldatasize\n      sub\n      dup2\n      add\n      swap1\n      tag_6\n      swap2\n      swap1\n      tag_7\n      jump\t// in\n    tag_6:\n      tag_8\n      jump\t// in\n    tag_5:\n      stop\n        /* \"contracts/main.sol\":364:600  function addBus(uint _num,string memory _destination) public returns(Bus){... */\n    tag_4:\n      tag_9\n      0x04\n      dup1\n      calldatasize\n      sub\n      dup2\n      add\n      swap1\n      tag_10\n      swap2\n      swap1\n      tag_11\n      jump\t// in\n    tag_10:\n      tag_12\n      jump\t// in\n    tag_9:\n      mload(0x40)\n      tag_13\n      swap2\n      swap1\n      tag_14\n      jump\t// in\n    tag_13:\n      mload(0x40)\n      dup1\n      swap2\n      sub\n      swap1\n      return\n        /* \"contracts/main.sol\":606:693  function getBusInformation(uint _num) public view {... */\n    tag_8:\n        /* \"contracts/main.sol\":666:669  bus */\n      0x01\n        /* \"contracts/main.sol\":666:675  bus[_num] */\n      0x00\n        /* \"contracts/main.sol\":670:674  _num */\n      dup3\n        /* \"contracts/main.sol\":666:675  bus[_num] */\n      dup2\n      mstore\n      0x20\n      add\n      swap1\n      dup2\n      mstore\n      0x20\n      add\n      0x00\n      keccak256\n      0x00\n      swap1\n      sload\n      swap1\n      0x0100\n      exp\n      swap1\n      pop\n      pop\n        /* \"contracts/main.sol\":606:693  function getBusInformation(uint _num) public view {... */\n      pop\n      jump\t// out\n        /* \"contracts/main.sol\":364:600  function addBus(uint _num,string memory _destination) public returns(Bus){... */\n    tag_12:\n        /* \"contracts/main.sol\":433:436  Bus */\n      0x00\n        /* \"contracts/main.sol\":469:476  manager */\n      dup1\n      0x00\n      swap1\n      sload\n      swap1\n      0x0100\n      exp\n      swap1\n      div\n      0xffffffffffffffffffffffffffffffffffffffff\n      and\n        /* \"contracts/main.sol\":455:476  msg.sender == manager */\n      0xffffffffffffffffffffffffffffffffffffffff\n      and\n        /* \"contracts/main.sol\":455:465  msg.sender */\n      caller\n        /* \"contracts/main.sol\":455:476  msg.sender == manager */\n      0xffffffffffffffffffffffffffffffffffffffff\n      and\n      eq\n        /* \"contracts/main.sol\":447:514  require(msg.sender == manager,... */\n      tag_17\n      jumpi\n      mload(0x40)\n      0x08c379a000000000000000000000000000000000000000000000000000000000\n      dup2\n      mstore\n      0x04\n      add\n      tag_18\n      swap1\n      tag_19\n      jump\t// in\n    tag_18:\n      mload(0x40)\n      dup1\n      swap2\n      sub\n      swap1\n      revert\n    tag_17:\n        /* \"contracts/main.sol\":549:553  _num */\n      dup3\n        /* \"contracts/main.sol\":554:566  _destination */\n      dup3\n        /* \"contracts/main.sol\":541:567  new Bus(_num,_destination) */\n      mload(0x40)\n      tag_20\n      swap1\n      tag_21\n      jump\t// in\n    tag_20:\n      tag_22\n      swap3\n      swap2\n      swap1\n      tag_23\n      jump\t// in\n    tag_22:\n      mload(0x40)\n      dup1\n      swap2\n      sub\n      swap1\n      0x00\n      create\n      dup1\n      iszero\n      dup1\n      iszero\n      tag_24\n      jumpi\n      returndatasize\n      0x00\n      dup1\n      returndatacopy\n      revert(0x00, returndatasize)\n    tag_24:\n      pop\n        /* \"contracts/main.sol\":529:532  bus */\n      0x01\n        /* \"contracts/main.sol\":529:538  bus[_num] */\n      0x00\n        /* \"contracts/main.sol\":533:537  _num */\n      dup6\n        /* \"contracts/main.sol\":529:538  bus[_num] */\n      dup2\n      mstore\n      0x20\n      add\n      swap1\n      dup2\n      mstore\n      0x20\n      add\n      0x00\n      keccak256\n      0x00\n        /* \"contracts/main.sol\":529:567  bus[_num] = new Bus(_num,_destination) */\n      0x0100\n      exp\n      dup2\n      sload\n      dup2\n      0xffffffffffffffffffffffffffffffffffffffff\n      mul\n      not\n      and\n      swap1\n      dup4\n      0xffffffffffffffffffffffffffffffffffffffff\n      and\n      mul\n      or\n      swap1\n      sstore\n      pop\n        /* \"contracts/main.sol\":584:587  bus */\n      0x01\n        /* \"contracts/main.sol\":584:593  bus[_num] */\n      0x00\n        /* \"contracts/main.sol\":588:592  _num */\n      dup5\n        /* \"contracts/main.sol\":584:593  bus[_num] */\n      dup2\n      mstore\n      0x20\n      add\n      swap1\n      dup2\n      mstore\n      0x20\n      add\n      0x00\n      keccak256\n      0x00\n      swap1\n      sload\n      swap1\n      0x0100\n      exp\n      swap1\n      div\n      0xffffffffffffffffffffffffffffffffffffffff\n      and\n        /* \"contracts/main.sol\":577:593  return bus[_num] */\n      swap1\n      pop\n        /* \"contracts/main.sol\":364:600  function addBus(uint _num,string memory _destination) public returns(Bus){... */\n      swap3\n      swap2\n      pop\n      pop\n      jump\t// out\n    tag_21:\n      dataSize(sub_0)\n      dup1\n      dataOffset(sub_0)\n      dup4\n      codecopy\n      add\n      swap1\n      jump\t// out\n        /* \"#utility.yul\":7:419   */\n    tag_26:\n        /* \"#utility.yul\":85:90   */\n      0x00\n        /* \"#utility.yul\":110:176   */\n      tag_28\n        /* \"#utility.yul\":126:175   */\n      tag_29\n        /* \"#utility.yul\":168:174   */\n      dup5\n        /* \"#utility.yul\":126:175   */\n      tag_30\n      jump\t// in\n    tag_29:\n        /* \"#utility.yul\":110:176   */\n      tag_31\n      jump\t// in\n    tag_28:\n        /* \"#utility.yul\":101:176   */\n      swap1\n      pop\n        /* \"#utility.yul\":199:205   */\n      dup3\n        /* \"#utility.yul\":192:197   */\n      dup2\n        /* \"#utility.yul\":185:206   */\n      mstore\n        /* \"#utility.yul\":237:241   */\n      0x20\n        /* \"#utility.yul\":230:235   */\n      dup2\n        /* \"#utility.yul\":226:242   */\n      add\n        /* \"#utility.yul\":275:278   */\n      dup5\n        /* \"#utility.yul\":266:272   */\n      dup5\n        /* \"#utility.yul\":261:264   */\n      dup5\n        /* \"#utility.yul\":257:273   */\n      add\n        /* \"#utility.yul\":254:279   */\n      gt\n        /* \"#utility.yul\":251:363   */\n      iszero\n      tag_32\n      jumpi\n        /* \"#utility.yul\":282:361   */\n      tag_33\n      tag_34\n      jump\t// in\n    tag_33:\n        /* \"#utility.yul\":251:363   */\n    tag_32:\n        /* \"#utility.yul\":372:413   */\n      tag_35\n        /* \"#utility.yul\":406:412   */\n      dup5\n        /* \"#utility.yul\":401:404   */\n      dup3\n        /* \"#utility.yul\":396:399   */\n      dup6\n        /* \"#utility.yul\":372:413   */\n      tag_36\n      jump\t// in\n    tag_35:\n        /* \"#utility.yul\":91:419   */\n      pop\n        /* \"#utility.yul\":7:419   */\n      swap4\n      swap3\n      pop\n      pop\n      pop\n      jump\t// out\n        /* \"#utility.yul\":439:779   */\n    tag_37:\n        /* \"#utility.yul\":495:500   */\n      0x00\n        /* \"#utility.yul\":544:547   */\n      dup3\n        /* \"#utility.yul\":537:541   */\n      0x1f\n        /* \"#utility.yul\":529:535   */\n      dup4\n        /* \"#utility.yul\":525:542   */\n      add\n        /* \"#utility.yul\":521:548   */\n      slt\n        /* \"#utility.yul\":511:633   */\n      tag_39\n      jumpi\n        /* \"#utility.yul\":552:631   */\n      tag_40\n      tag_41\n      jump\t// in\n    tag_40:\n        /* \"#utility.yul\":511:633   */\n    tag_39:\n        /* \"#utility.yul\":669:675   */\n      dup2\n        /* \"#utility.yul\":656:676   */\n      calldataload\n        /* \"#utility.yul\":694:773   */\n      tag_42\n        /* \"#utility.yul\":769:772   */\n      dup5\n        /* \"#utility.yul\":761:767   */\n      dup3\n        /* \"#utility.yul\":754:758   */\n      0x20\n        /* \"#utility.yul\":746:752   */\n      dup7\n        /* \"#utility.yul\":742:759   */\n      add\n        /* \"#utility.yul\":694:773   */\n      tag_26\n      jump\t// in\n    tag_42:\n        /* \"#utility.yul\":685:773   */\n      swap2\n      pop\n        /* \"#utility.yul\":501:779   */\n      pop\n        /* \"#utility.yul\":439:779   */\n      swap3\n      swap2\n      pop\n      pop\n      jump\t// out\n        /* \"#utility.yul\":785:924   */\n    tag_43:\n        /* \"#utility.yul\":831:836   */\n      0x00\n        /* \"#utility.yul\":869:875   */\n      dup2\n        /* \"#utility.yul\":856:876   */\n      calldataload\n        /* \"#utility.yul\":847:876   */\n      swap1\n      pop\n        /* \"#utility.yul\":885:918   */\n      tag_45\n        /* \"#utility.yul\":912:917   */\n      dup2\n        /* \"#utility.yul\":885:918   */\n      tag_46\n      jump\t// in\n    tag_45:\n        /* \"#utility.yul\":785:924   */\n      swap3\n      swap2\n      pop\n      pop\n      jump\t// out\n        /* \"#utility.yul\":930:1259   */\n    tag_7:\n        /* \"#utility.yul\":989:995   */\n      0x00\n        /* \"#utility.yul\":1038:1040   */\n      0x20\n        /* \"#utility.yul\":1026:1035   */\n      dup3\n        /* \"#utility.yul\":1017:1024   */\n      dup5\n        /* \"#utility.yul\":1013:1036   */\n      sub\n        /* \"#utility.yul\":1009:1041   */\n      slt\n        /* \"#utility.yul\":1006:1125   */\n      iszero\n      tag_48\n      jumpi\n        /* \"#utility.yul\":1044:1123   */\n      tag_49\n      tag_50\n      jump\t// in\n    tag_49:\n        /* \"#utility.yul\":1006:1125   */\n    tag_48:\n        /* \"#utility.yul\":1164:1165   */\n      0x00\n        /* \"#utility.yul\":1189:1242   */\n      tag_51\n        /* \"#utility.yul\":1234:1241   */\n      dup5\n        /* \"#utility.yul\":1225:1231   */\n      dup3\n        /* \"#utility.yul\":1214:1223   */\n      dup6\n        /* \"#utility.yul\":1210:1232   */\n      add\n        /* \"#utility.yul\":1189:1242   */\n      tag_43\n      jump\t// in\n    tag_51:\n        /* \"#utility.yul\":1179:1242   */\n      swap2\n      pop\n        /* \"#utility.yul\":1135:1252   */\n      pop\n        /* \"#utility.yul\":930:1259   */\n      swap3\n      swap2\n      pop\n      pop\n      jump\t// out\n        /* \"#utility.yul\":1265:1919   */\n    tag_11:\n        /* \"#utility.yul\":1343:1349   */\n      0x00\n        /* \"#utility.yul\":1351:1357   */\n      dup1\n        /* \"#utility.yul\":1400:1402   */\n      0x40\n        /* \"#utility.yul\":1388:1397   */\n      dup4\n        /* \"#utility.yul\":1379:1386   */\n      dup6\n        /* \"#utility.yul\":1375:1398   */\n      sub\n        /* \"#utility.yul\":1371:1403   */\n      slt\n        /* \"#utility.yul\":1368:1487   */\n      iszero\n      tag_53\n      jumpi\n        /* \"#utility.yul\":1406:1485   */\n      tag_54\n      tag_50\n      jump\t// in\n    tag_54:\n        /* \"#utility.yul\":1368:1487   */\n    tag_53:\n        /* \"#utility.yul\":1526:1527   */\n      0x00\n        /* \"#utility.yul\":1551:1604   */\n      tag_55\n        /* \"#utility.yul\":1596:1603   */\n      dup6\n        /* \"#utility.yul\":1587:1593   */\n      dup3\n        /* \"#utility.yul\":1576:1585   */\n      dup7\n        /* \"#utility.yul\":1572:1594   */\n      add\n        /* \"#utility.yul\":1551:1604   */\n      tag_43\n      jump\t// in\n    tag_55:\n        /* \"#utility.yul\":1541:1604   */\n      swap3\n      pop\n        /* \"#utility.yul\":1497:1614   */\n      pop\n        /* \"#utility.yul\":1681:1683   */\n      0x20\n        /* \"#utility.yul\":1670:1679   */\n      dup4\n        /* \"#utility.yul\":1666:1684   */\n      add\n        /* \"#utility.yul\":1653:1685   */\n      calldataload\n        /* \"#utility.yul\":1712:1730   */\n      0xffffffffffffffff\n        /* \"#utility.yul\":1704:1710   */\n      dup2\n        /* \"#utility.yul\":1701:1731   */\n      gt\n        /* \"#utility.yul\":1698:1815   */\n      iszero\n      tag_56\n      jumpi\n        /* \"#utility.yul\":1734:1813   */\n      tag_57\n      tag_58\n      jump\t// in\n    tag_57:\n        /* \"#utility.yul\":1698:1815   */\n    tag_56:\n        /* \"#utility.yul\":1839:1902   */\n      tag_59\n        /* \"#utility.yul\":1894:1901   */\n      dup6\n        /* \"#utility.yul\":1885:1891   */\n      dup3\n        /* \"#utility.yul\":1874:1883   */\n      dup7\n        /* \"#utility.yul\":1870:1892   */\n      add\n        /* \"#utility.yul\":1839:1902   */\n      tag_37\n      jump\t// in\n    tag_59:\n        /* \"#utility.yul\":1829:1902   */\n      swap2\n      pop\n        /* \"#utility.yul\":1624:1912   */\n      pop\n        /* \"#utility.yul\":1265:1919   */\n      swap3\n      pop\n      swap3\n      swap1\n      pop\n      jump\t// out\n        /* \"#utility.yul\":1925:2076   */\n    tag_60:\n        /* \"#utility.yul\":2022:2069   */\n      tag_62\n        /* \"#utility.yul\":2063:2068   */\n      dup2\n        /* \"#utility.yul\":2022:2069   */\n      tag_63\n      jump\t// in\n    tag_62:\n        /* \"#utility.yul\":2017:2020   */\n      dup3\n        /* \"#utility.yul\":2010:2070   */\n      mstore\n        /* \"#utility.yul\":1925:2076   */\n      pop\n      pop\n      jump\t// out\n        /* \"#utility.yul\":2082:2446   */\n    tag_64:\n        /* \"#utility.yul\":2170:2173   */\n      0x00\n        /* \"#utility.yul\":2198:2237   */\n      tag_66\n        /* \"#utility.yul\":2231:2236   */\n      dup3\n        /* \"#utility.yul\":2198:2237   */\n      tag_67\n      jump\t// in\n    tag_66:\n        /* \"#utility.yul\":2253:2324   */\n      tag_68\n        /* \"#utility.yul\":2317:2323   */\n      dup2\n        /* \"#utility.yul\":2312:2315   */\n      dup6\n        /* \"#utility.yul\":2253:2324   */\n      tag_69\n      jump\t// in\n    tag_68:\n        /* \"#utility.yul\":2246:2324   */\n      swap4\n      pop\n        /* \"#utility.yul\":2333:2385   */\n      tag_70\n        /* \"#utility.yul\":2378:2384   */\n      dup2\n        /* \"#utility.yul\":2373:2376   */\n      dup6\n        /* \"#utility.yul\":2366:2370   */\n      0x20\n        /* \"#utility.yul\":2359:2364   */\n      dup7\n        /* \"#utility.yul\":2355:2371   */\n      add\n        /* \"#utility.yul\":2333:2385   */\n      tag_71\n      jump\t// in\n    tag_70:\n        /* \"#utility.yul\":2410:2439   */\n      tag_72\n        /* \"#utility.yul\":2432:2438   */\n      dup2\n        /* \"#utility.yul\":2410:2439   */\n      tag_73\n      jump\t// in\n    tag_72:\n        /* \"#utility.yul\":2405:2408   */\n      dup5\n        /* \"#utility.yul\":2401:2440   */\n      add\n        /* \"#utility.yul\":2394:2440   */\n      swap2\n      pop\n        /* \"#utility.yul\":2174:2446   */\n      pop\n        /* \"#utility.yul\":2082:2446   */\n      swap3\n      swap2\n      pop\n      pop\n      jump\t// out\n        /* \"#utility.yul\":2452:2818   */\n    tag_74:\n        /* \"#utility.yul\":2594:2597   */\n      0x00\n        /* \"#utility.yul\":2615:2682   */\n      tag_76\n        /* \"#utility.yul\":2679:2681   */\n      0x15\n        /* \"#utility.yul\":2674:2677   */\n      dup4\n        /* \"#utility.yul\":2615:2682   */\n      tag_69\n      jump\t// in\n    tag_76:\n        /* \"#utility.yul\":2608:2682   */\n      swap2\n      pop\n        /* \"#utility.yul\":2691:2784   */\n      tag_77\n        /* \"#utility.yul\":2780:2783   */\n      dup3\n        /* \"#utility.yul\":2691:2784   */\n      tag_78\n      jump\t// in\n    tag_77:\n        /* \"#utility.yul\":2809:2811   */\n      0x20\n        /* \"#utility.yul\":2804:2807   */\n      dup3\n        /* \"#utility.yul\":2800:2812   */\n      add\n        /* \"#utility.yul\":2793:2812   */\n      swap1\n      pop\n        /* \"#utility.yul\":2452:2818   */\n      swap2\n      swap1\n      pop\n      jump\t// out\n        /* \"#utility.yul\":2824:2942   */\n    tag_79:\n        /* \"#utility.yul\":2911:2935   */\n      tag_81\n        /* \"#utility.yul\":2929:2934   */\n      dup2\n        /* \"#utility.yul\":2911:2935   */\n      tag_82\n      jump\t// in\n    tag_81:\n        /* \"#utility.yul\":2906:2909   */\n      dup3\n        /* \"#utility.yul\":2899:2936   */\n      mstore\n        /* \"#utility.yul\":2824:2942   */\n      pop\n      pop\n      jump\t// out\n        /* \"#utility.yul\":2948:3190   */\n    tag_14:\n        /* \"#utility.yul\":3051:3055   */\n      0x00\n        /* \"#utility.yul\":3089:3091   */\n      0x20\n        /* \"#utility.yul\":3078:3087   */\n      dup3\n        /* \"#utility.yul\":3074:3092   */\n      add\n        /* \"#utility.yul\":3066:3092   */\n      swap1\n      pop\n        /* \"#utility.yul\":3102:3183   */\n      tag_84\n        /* \"#utility.yul\":3180:3181   */\n      0x00\n        /* \"#utility.yul\":3169:3178   */\n      dup4\n        /* \"#utility.yul\":3165:3182   */\n      add\n        /* \"#utility.yul\":3156:3162   */\n      dup5\n        /* \"#utility.yul\":3102:3183   */\n      tag_60\n      jump\t// in\n    tag_84:\n        /* \"#utility.yul\":2948:3190   */\n      swap3\n      swap2\n      pop\n      pop\n      jump\t// out\n        /* \"#utility.yul\":3196:3615   */\n    tag_19:\n        /* \"#utility.yul\":3362:3366   */\n      0x00\n        /* \"#utility.yul\":3400:3402   */\n      0x20\n        /* \"#utility.yul\":3389:3398   */\n      dup3\n        /* \"#utility.yul\":3385:3403   */\n      add\n        /* \"#utility.yul\":3377:3403   */\n      swap1\n      pop\n        /* \"#utility.yul\":3449:3458   */\n      dup2\n        /* \"#utility.yul\":3443:3447   */\n      dup2\n        /* \"#utility.yul\":3439:3459   */\n      sub\n        /* \"#utility.yul\":3435:3436   */\n      0x00\n        /* \"#utility.yul\":3424:3433   */\n      dup4\n        /* \"#utility.yul\":3420:3437   */\n      add\n        /* \"#utility.yul\":3413:3460   */\n      mstore\n        /* \"#utility.yul\":3477:3608   */\n      tag_86\n        /* \"#utility.yul\":3603:3607   */\n      dup2\n        /* \"#utility.yul\":3477:3608   */\n      tag_74\n      jump\t// in\n    tag_86:\n        /* \"#utility.yul\":3469:3608   */\n      swap1\n      pop\n        /* \"#utility.yul\":3196:3615   */\n      swap2\n      swap1\n      pop\n      jump\t// out\n        /* \"#utility.yul\":3621:4044   */\n    tag_23:\n        /* \"#utility.yul\":3762:3766   */\n      0x00\n        /* \"#utility.yul\":3800:3802   */\n      0x40\n        /* \"#utility.yul\":3789:3798   */\n      dup3\n        /* \"#utility.yul\":3785:3803   */\n      add\n        /* \"#utility.yul\":3777:3803   */\n      swap1\n      pop\n        /* \"#utility.yul\":3813:3884   */\n      tag_88\n        /* \"#utility.yul\":3881:3882   */\n      0x00\n        /* \"#utility.yul\":3870:3879   */\n      dup4\n        /* \"#utility.yul\":3866:3883   */\n      add\n        /* \"#utility.yul\":3857:3863   */\n      dup6\n        /* \"#utility.yul\":3813:3884   */\n      tag_79\n      jump\t// in\n    tag_88:\n        /* \"#utility.yul\":3931:3940   */\n      dup2\n        /* \"#utility.yul\":3925:3929   */\n      dup2\n        /* \"#utility.yul\":3921:3941   */\n      sub\n        /* \"#utility.yul\":3916:3918   */\n      0x20\n        /* \"#utility.yul\":3905:3914   */\n      dup4\n        /* \"#utility.yul\":3901:3919   */\n      add\n        /* \"#utility.yul\":3894:3942   */\n      mstore\n        /* \"#utility.yul\":3959:4037   */\n      tag_89\n        /* \"#utility.yul\":4032:4036   */\n      dup2\n        /* \"#utility.yul\":4023:4029   */\n      dup5\n        /* \"#utility.yul\":3959:4037   */\n      tag_64\n      jump\t// in\n    tag_89:\n        /* \"#utility.yul\":3951:4037   */\n      swap1\n      pop\n        /* \"#utility.yul\":3621:4044   */\n      swap4\n      swap3\n      pop\n      pop\n      pop\n      jump\t// out\n        /* \"#utility.yul\":4050:4179   */\n    tag_31:\n        /* \"#utility.yul\":4084:4090   */\n      0x00\n        /* \"#utility.yul\":4111:4131   */\n      tag_91\n      tag_92\n      jump\t// in\n    tag_91:\n        /* \"#utility.yul\":4101:4131   */\n      swap1\n      pop\n        /* \"#utility.yul\":4140:4173   */\n      tag_93\n        /* \"#utility.yul\":4168:4172   */\n      dup3\n        /* \"#utility.yul\":4160:4166   */\n      dup3\n        /* \"#utility.yul\":4140:4173   */\n      tag_94\n      jump\t// in\n    tag_93:\n        /* \"#utility.yul\":4050:4179   */\n      swap2\n      swap1\n      pop\n      jump\t// out\n        /* \"#utility.yul\":4185:4260   */\n    tag_92:\n        /* \"#utility.yul\":4218:4224   */\n      0x00\n        /* \"#utility.yul\":4251:4253   */\n      0x40\n        /* \"#utility.yul\":4245:4254   */\n      mload\n        /* \"#utility.yul\":4235:4254   */\n      swap1\n      pop\n        /* \"#utility.yul\":4185:4260   */\n      swap1\n      jump\t// out\n        /* \"#utility.yul\":4266:4574   */\n    tag_30:\n        /* \"#utility.yul\":4328:4332   */\n      0x00\n        /* \"#utility.yul\":4418:4436   */\n      0xffffffffffffffff\n        /* \"#utility.yul\":4410:4416   */\n      dup3\n        /* \"#utility.yul\":4407:4437   */\n      gt\n        /* \"#utility.yul\":4404:4460   */\n      iszero\n      tag_97\n      jumpi\n        /* \"#utility.yul\":4440:4458   */\n      tag_98\n      tag_99\n      jump\t// in\n    tag_98:\n        /* \"#utility.yul\":4404:4460   */\n    tag_97:\n        /* \"#utility.yul\":4478:4507   */\n      tag_100\n        /* \"#utility.yul\":4500:4506   */\n      dup3\n        /* \"#utility.yul\":4478:4507   */\n      tag_73\n      jump\t// in\n    tag_100:\n        /* \"#utility.yul\":4470:4507   */\n      swap1\n      pop\n        /* \"#utility.yul\":4562:4566   */\n      0x20\n        /* \"#utility.yul\":4556:4560   */\n      dup2\n        /* \"#utility.yul\":4552:4567   */\n      add\n        /* \"#utility.yul\":4544:4567   */\n      swap1\n      pop\n        /* \"#utility.yul\":4266:4574   */\n      swap2\n      swap1\n      pop\n      jump\t// out\n        /* \"#utility.yul\":4580:4679   */\n    tag_67:\n        /* \"#utility.yul\":4632:4638   */\n      0x00\n        /* \"#utility.yul\":4666:4671   */\n      dup2\n        /* \"#utility.yul\":4660:4672   */\n      mload\n        /* \"#utility.yul\":4650:4672   */\n      swap1\n      pop\n        /* \"#utility.yul\":4580:4679   */\n      swap2\n      swap1\n      pop\n      jump\t// out\n        /* \"#utility.yul\":4685:4854   */\n    tag_69:\n        /* \"#utility.yul\":4769:4780   */\n      0x00\n        /* \"#utility.yul\":4803:4809   */\n      dup3\n        /* \"#utility.yul\":4798:4801   */\n      dup3\n        /* \"#utility.yul\":4791:4810   */\n      mstore\n        /* \"#utility.yul\":4843:4847   */\n      0x20\n        /* \"#utility.yul\":4838:4841   */\n      dup3\n        /* \"#utility.yul\":4834:4848   */\n      add\n        /* \"#utility.yul\":4819:4848   */\n      swap1\n      pop\n        /* \"#utility.yul\":4685:4854   */\n      swap3\n      swap2\n      pop\n      pop\n      jump\t// out\n        /* \"#utility.yul\":4860:4986   */\n    tag_103:\n        /* \"#utility.yul\":4897:4904   */\n      0x00\n        /* \"#utility.yul\":4937:4979   */\n      0xffffffffffffffffffffffffffffffffffffffff\n        /* \"#utility.yul\":4930:4935   */\n      dup3\n        /* \"#utility.yul\":4926:4980   */\n      and\n        /* \"#utility.yul\":4915:4980   */\n      swap1\n      pop\n        /* \"#utility.yul\":4860:4986   */\n      swap2\n      swap1\n      pop\n      jump\t// out\n        /* \"#utility.yul\":4992:5069   */\n    tag_82:\n        /* \"#utility.yul\":5029:5036   */\n      0x00\n        /* \"#utility.yul\":5058:5063   */\n      dup2\n        /* \"#utility.yul\":5047:5063   */\n      swap1\n      pop\n        /* \"#utility.yul\":4992:5069   */\n      swap2\n      swap1\n      pop\n      jump\t// out\n        /* \"#utility.yul\":5075:5211   */\n    tag_63:\n        /* \"#utility.yul\":5135:5144   */\n      0x00\n        /* \"#utility.yul\":5168:5205   */\n      tag_107\n        /* \"#utility.yul\":5199:5204   */\n      dup3\n        /* \"#utility.yul\":5168:5205   */\n      tag_108\n      jump\t// in\n    tag_107:\n        /* \"#utility.yul\":5155:5205   */\n      swap1\n      pop\n        /* \"#utility.yul\":5075:5211   */\n      swap2\n      swap1\n      pop\n      jump\t// out\n        /* \"#utility.yul\":5217:5343   */\n    tag_108:\n        /* \"#utility.yul\":5267:5276   */\n      0x00\n        /* \"#utility.yul\":5300:5337   */\n      tag_110\n        /* \"#utility.yul\":5331:5336   */\n      dup3\n        /* \"#utility.yul\":5300:5337   */\n      tag_111\n      jump\t// in\n    tag_110:\n        /* \"#utility.yul\":5287:5337   */\n      swap1\n      pop\n        /* \"#utility.yul\":5217:5343   */\n      swap2\n      swap1\n      pop\n      jump\t// out\n        /* \"#utility.yul\":5349:5462   */\n    tag_111:\n        /* \"#utility.yul\":5399:5408   */\n      0x00\n        /* \"#utility.yul\":5432:5456   */\n      tag_113\n        /* \"#utility.yul\":5450:5455   */\n      dup3\n        /* \"#utility.yul\":5432:5456   */\n      tag_103\n      jump\t// in\n    tag_113:\n        /* \"#utility.yul\":5419:5456   */\n      swap1\n      pop\n        /* \"#utility.yul\":5349:5462   */\n      swap2\n      swap1\n      pop\n      jump\t// out\n        /* \"#utility.yul\":5468:5622   */\n    tag_36:\n        /* \"#utility.yul\":5552:5558   */\n      dup3\n        /* \"#utility.yul\":5547:5550   */\n      dup2\n        /* \"#utility.yul\":5542:5545   */\n      dup4\n        /* \"#utility.yul\":5529:5559   */\n      calldatacopy\n        /* \"#utility.yul\":5614:5615   */\n      0x00\n        /* \"#utility.yul\":5605:5611   */\n      dup4\n        /* \"#utility.yul\":5600:5603   */\n      dup4\n        /* \"#utility.yul\":5596:5612   */\n      add\n        /* \"#utility.yul\":5589:5616   */\n      mstore\n        /* \"#utility.yul\":5468:5622   */\n      pop\n      pop\n      pop\n      jump\t// out\n        /* \"#utility.yul\":5628:5935   */\n    tag_71:\n        /* \"#utility.yul\":5696:5697   */\n      0x00\n        /* \"#utility.yul\":5706:5819   */\n    tag_116:\n        /* \"#utility.yul\":5720:5726   */\n      dup4\n        /* \"#utility.yul\":5717:5718   */\n      dup2\n        /* \"#utility.yul\":5714:5727   */\n      lt\n        /* \"#utility.yul\":5706:5819   */\n      iszero\n      tag_118\n      jumpi\n        /* \"#utility.yul\":5805:5806   */\n      dup1\n        /* \"#utility.yul\":5800:5803   */\n      dup3\n        /* \"#utility.yul\":5796:5807   */\n      add\n        /* \"#utility.yul\":5790:5808   */\n      mload\n        /* \"#utility.yul\":5786:5787   */\n      dup2\n        /* \"#utility.yul\":5781:5784   */\n      dup5\n        /* \"#utility.yul\":5777:5788   */\n      add\n        /* \"#utility.yul\":5770:5809   */\n      mstore\n        /* \"#utility.yul\":5742:5744   */\n      0x20\n        /* \"#utility.yul\":5739:5740   */\n      dup2\n        /* \"#utility.yul\":5735:5745   */\n      add\n        /* \"#utility.yul\":5730:5745   */\n      swap1\n      pop\n        /* \"#utility.yul\":5706:5819   */\n      jump(tag_116)\n    tag_118:\n        /* \"#utility.yul\":5837:5843   */\n      dup4\n        /* \"#utility.yul\":5834:5835   */\n      dup2\n        /* \"#utility.yul\":5831:5844   */\n      gt\n        /* \"#utility.yul\":5828:5929   */\n      iszero\n      tag_119\n      jumpi\n        /* \"#utility.yul\":5917:5918   */\n      0x00\n        /* \"#utility.yul\":5908:5914   */\n      dup5\n        /* \"#utility.yul\":5903:5906   */\n      dup5\n        /* \"#utility.yul\":5899:5915   */\n      add\n        /* \"#utility.yul\":5892:5919   */\n      mstore\n        /* \"#utility.yul\":5828:5929   */\n    tag_119:\n        /* \"#utility.yul\":5677:5935   */\n      pop\n        /* \"#utility.yul\":5628:5935   */\n      pop\n      pop\n      pop\n      jump\t// out\n        /* \"#utility.yul\":5941:6222   */\n    tag_94:\n        /* \"#utility.yul\":6024:6051   */\n      tag_121\n        /* \"#utility.yul\":6046:6050   */\n      dup3\n        /* \"#utility.yul\":6024:6051   */\n      tag_73\n      jump\t// in\n    tag_121:\n        /* \"#utility.yul\":6016:6022   */\n      dup2\n        /* \"#utility.yul\":6012:6052   */\n      add\n        /* \"#utility.yul\":6154:6160   */\n      dup2\n        /* \"#utility.yul\":6142:6152   */\n      dup2\n        /* \"#utility.yul\":6139:6161   */\n      lt\n        /* \"#utility.yul\":6118:6136   */\n      0xffffffffffffffff\n        /* \"#utility.yul\":6106:6116   */\n      dup3\n        /* \"#utility.yul\":6103:6137   */\n      gt\n        /* \"#utility.yul\":6100:6162   */\n      or\n        /* \"#utility.yul\":6097:6185   */\n      iszero\n      tag_122\n      jumpi\n        /* \"#utility.yul\":6165:6183   */\n      tag_123\n      tag_99\n      jump\t// in\n    tag_123:\n        /* \"#utility.yul\":6097:6185   */\n    tag_122:\n        /* \"#utility.yul\":6205:6215   */\n      dup1\n        /* \"#utility.yul\":6201:6203   */\n      0x40\n        /* \"#utility.yul\":6194:6216   */\n      mstore\n        /* \"#utility.yul\":5984:6222   */\n      pop\n        /* \"#utility.yul\":5941:6222   */\n      pop\n      pop\n      jump\t// out\n        /* \"#utility.yul\":6228:6408   */\n    tag_99:\n        /* \"#utility.yul\":6276:6353   */\n      0x4e487b7100000000000000000000000000000000000000000000000000000000\n        /* \"#utility.yul\":6273:6274   */\n      0x00\n        /* \"#utility.yul\":6266:6354   */\n      mstore\n        /* \"#utility.yul\":6373:6377   */\n      0x41\n        /* \"#utility.yul\":6370:6371   */\n      0x04\n        /* \"#utility.yul\":6363:6378   */\n      mstore\n        /* \"#utility.yul\":6397:6401   */\n      0x24\n        /* \"#utility.yul\":6394:6395   */\n      0x00\n        /* \"#utility.yul\":6387:6402   */\n      revert\n        /* \"#utility.yul\":6414:6531   */\n    tag_41:\n        /* \"#utility.yul\":6523:6524   */\n      0x00\n        /* \"#utility.yul\":6520:6521   */\n      dup1\n        /* \"#utility.yul\":6513:6525   */\n      revert\n        /* \"#utility.yul\":6537:6654   */\n    tag_34:\n        /* \"#utility.yul\":6646:6647   */\n      0x00\n        /* \"#utility.yul\":6643:6644   */\n      dup1\n        /* \"#utility.yul\":6636:6648   */\n      revert\n        /* \"#utility.yul\":6660:6777   */\n    tag_58:\n        /* \"#utility.yul\":6769:6770   */\n      0x00\n        /* \"#utility.yul\":6766:6767   */\n      dup1\n        /* \"#utility.yul\":6759:6771   */\n      revert\n        /* \"#utility.yul\":6783:6900   */\n    tag_50:\n        /* \"#utility.yul\":6892:6893   */\n      0x00\n        /* \"#utility.yul\":6889:6890   */\n      dup1\n        /* \"#utility.yul\":6882:6894   */\n      revert\n        /* \"#utility.yul\":6906:7008   */\n    tag_73:\n        /* \"#utility.yul\":6947:6953   */\n      0x00\n        /* \"#utility.yul\":6998:7000   */\n      0x1f\n        /* \"#utility.yul\":6994:7001   */\n      not\n        /* \"#utility.yul\":6989:6991   */\n      0x1f\n        /* \"#utility.yul\":6982:6987   */\n      dup4\n        /* \"#utility.yul\":6978:6992   */\n      add\n        /* \"#utility.yul\":6974:7002   */\n      and\n        /* \"#utility.yul\":6964:7002   */\n      swap1\n      pop\n        /* \"#utility.yul\":6906:7008   */\n      swap2\n      swap1\n      pop\n      jump\t// out\n        /* \"#utility.yul\":7014:7185   */\n    tag_78:\n        /* \"#utility.yul\":7154:7177   */\n      0x63616c6c6572206973206e6f74204d616e616765720000000000000000000000\n        /* \"#utility.yul\":7150:7151   */\n      0x00\n        /* \"#utility.yul\":7142:7148   */\n      dup3\n        /* \"#utility.yul\":7138:7152   */\n      add\n        /* \"#utility.yul\":7131:7178   */\n      mstore\n        /* \"#utility.yul\":7014:7185   */\n      pop\n      jump\t// out\n        /* \"#utility.yul\":7191:7313   */\n    tag_46:\n        /* \"#utility.yul\":7264:7288   */\n      tag_132\n        /* \"#utility.yul\":7282:7287   */\n      dup2\n        /* \"#utility.yul\":7264:7288   */\n      tag_82\n      jump\t// in\n    tag_132:\n        /* \"#utility.yul\":7257:7262   */\n      dup2\n        /* \"#utility.yul\":7254:7289   */\n      eq\n        /* \"#utility.yul\":7244:7307   */\n      tag_133\n      jumpi\n        /* \"#utility.yul\":7303:7304   */\n      0x00\n        /* \"#utility.yul\":7300:7301   */\n      dup1\n        /* \"#utility.yul\":7293:7305   */\n      revert\n        /* \"#utility.yul\":7244:7307   */\n    tag_133:\n        /* \"#utility.yul\":7191:7313   */\n      pop\n      jump\t// out\n    stop\n\n    sub_0: assembly {\n            /* \"contracts/Bus.sol\":102:883  contract Bus{... */\n          mstore(0x40, 0x80)\n            /* \"contracts/Bus.sol\":301:455  constructor(uint _num, string memory _destination){... */\n          callvalue\n          dup1\n          iszero\n          tag_1\n          jumpi\n          0x00\n          dup1\n          revert\n        tag_1:\n          pop\n          mload(0x40)\n          sub(codesize, bytecodeSize)\n          dup1\n          bytecodeSize\n          dup4\n          codecopy\n          dup2\n          dup2\n          add\n          0x40\n          mstore\n          dup2\n          add\n          swap1\n          tag_2\n          swap2\n          swap1\n          tag_3\n          jump\t// in\n        tag_2:\n            /* \"contracts/Bus.sol\":371:375  _num */\n          dup2\n            /* \"contracts/Bus.sol\":362:368  busNum */\n          0x01\n            /* \"contracts/Bus.sol\":362:375  busNum = _num */\n          dup2\n          swap1\n          sstore\n          pop\n            /* \"contracts/Bus.sol\":400:412  _destination */\n          dup1\n            /* \"contracts/Bus.sol\":386:397  destination */\n          0x02\n            /* \"contracts/Bus.sol\":386:412  destination = _destination */\n          swap1\n          dup1\n          mload\n          swap1\n          0x20\n          add\n          swap1\n          tag_6\n          swap3\n          swap2\n          swap1\n          tag_7\n          jump\t// in\n        tag_6:\n          pop\n            /* \"contracts/Bus.sol\":423:430  student */\n          0x00\n            /* \"contracts/Bus.sol\":436:446  msg.sender */\n          caller\n            /* \"contracts/Bus.sol\":423:447  student.push(msg.sender) */\n          swap1\n          dup1\n          0x01\n          dup2\n          sload\n          add\n          dup1\n          dup3\n          sstore\n          dup1\n          swap2\n          pop\n          pop\n          0x01\n          swap1\n          sub\n          swap1\n          0x00\n          mstore\n          keccak256(0x00, 0x20)\n          add\n          0x00\n          swap1\n          swap2\n          swap1\n          swap2\n          swap1\n          swap2\n          0x0100\n          exp\n          dup2\n          sload\n          dup2\n          0xffffffffffffffffffffffffffffffffffffffff\n          mul\n          not\n          and\n          swap1\n          dup4\n          0xffffffffffffffffffffffffffffffffffffffff\n          and\n          mul\n          or\n          swap1\n          sstore\n          pop\n            /* \"contracts/Bus.sol\":301:455  constructor(uint _num, string memory _destination){... */\n          pop\n          pop\n            /* \"contracts/Bus.sol\":102:883  contract Bus{... */\n          jump(tag_9)\n        tag_7:\n          dup3\n          dup1\n          sload\n          tag_10\n          swap1\n          tag_11\n          jump\t// in\n        tag_10:\n          swap1\n          0x00\n          mstore\n          keccak256(0x00, 0x20)\n          swap1\n          0x1f\n          add\n          0x20\n          swap1\n          div\n          dup2\n          add\n          swap3\n          dup3\n          tag_13\n          jumpi\n          0x00\n          dup6\n          sstore\n          jump(tag_12)\n        tag_13:\n          dup3\n          0x1f\n          lt\n          tag_14\n          jumpi\n          dup1\n          mload\n          not(0xff)\n          and\n          dup4\n          dup1\n          add\n          or\n          dup6\n          sstore\n          jump(tag_12)\n        tag_14:\n          dup3\n          dup1\n          add\n          0x01\n          add\n          dup6\n          sstore\n          dup3\n          iszero\n          tag_12\n          jumpi\n          swap2\n          dup3\n          add\n        tag_15:\n          dup3\n          dup2\n          gt\n          iszero\n          tag_16\n          jumpi\n          dup3\n          mload\n          dup3\n          sstore\n          swap2\n          0x20\n          add\n          swap2\n          swap1\n          0x01\n          add\n          swap1\n          jump(tag_15)\n        tag_16:\n        tag_12:\n          pop\n          swap1\n          pop\n          tag_17\n          swap2\n          swap1\n          tag_18\n          jump\t// in\n        tag_17:\n          pop\n          swap1\n          jump\t// out\n        tag_18:\n        tag_19:\n          dup1\n          dup3\n          gt\n          iszero\n          tag_20\n          jumpi\n          0x00\n          dup2\n          0x00\n          swap1\n          sstore\n          pop\n          0x01\n          add\n          jump(tag_19)\n        tag_20:\n          pop\n          swap1\n          jump\t// out\n            /* \"#utility.yul\":7:428   */\n        tag_22:\n            /* \"#utility.yul\":96:101   */\n          0x00\n            /* \"#utility.yul\":121:187   */\n          tag_24\n            /* \"#utility.yul\":137:186   */\n          tag_25\n            /* \"#utility.yul\":179:185   */\n          dup5\n            /* \"#utility.yul\":137:186   */\n          tag_26\n          jump\t// in\n        tag_25:\n            /* \"#utility.yul\":121:187   */\n          tag_27\n          jump\t// in\n        tag_24:\n            /* \"#utility.yul\":112:187   */\n          swap1\n          pop\n            /* \"#utility.yul\":210:216   */\n          dup3\n            /* \"#utility.yul\":203:208   */\n          dup2\n            /* \"#utility.yul\":196:217   */\n          mstore\n            /* \"#utility.yul\":248:252   */\n          0x20\n            /* \"#utility.yul\":241:246   */\n          dup2\n            /* \"#utility.yul\":237:253   */\n          add\n            /* \"#utility.yul\":286:289   */\n          dup5\n            /* \"#utility.yul\":277:283   */\n          dup5\n            /* \"#utility.yul\":272:275   */\n          dup5\n            /* \"#utility.yul\":268:284   */\n          add\n            /* \"#utility.yul\":265:290   */\n          gt\n            /* \"#utility.yul\":262:374   */\n          iszero\n          tag_28\n          jumpi\n            /* \"#utility.yul\":293:372   */\n          tag_29\n          tag_30\n          jump\t// in\n        tag_29:\n            /* \"#utility.yul\":262:374   */\n        tag_28:\n            /* \"#utility.yul\":383:422   */\n          tag_31\n            /* \"#utility.yul\":415:421   */\n          dup5\n            /* \"#utility.yul\":410:413   */\n          dup3\n            /* \"#utility.yul\":405:408   */\n          dup6\n            /* \"#utility.yul\":383:422   */\n          tag_32\n          jump\t// in\n        tag_31:\n            /* \"#utility.yul\":102:428   */\n          pop\n            /* \"#utility.yul\":7:428   */\n          swap4\n          swap3\n          pop\n          pop\n          pop\n          jump\t// out\n            /* \"#utility.yul\":448:803   */\n        tag_33:\n            /* \"#utility.yul\":515:520   */\n          0x00\n            /* \"#utility.yul\":564:567   */\n          dup3\n            /* \"#utility.yul\":557:561   */\n          0x1f\n            /* \"#utility.yul\":549:555   */\n          dup4\n            /* \"#utility.yul\":545:562   */\n          add\n            /* \"#utility.yul\":541:568   */\n          slt\n            /* \"#utility.yul\":531:653   */\n          tag_35\n          jumpi\n            /* \"#utility.yul\":572:651   */\n          tag_36\n          tag_37\n          jump\t// in\n        tag_36:\n            /* \"#utility.yul\":531:653   */\n        tag_35:\n            /* \"#utility.yul\":682:688   */\n          dup2\n            /* \"#utility.yul\":676:689   */\n          mload\n            /* \"#utility.yul\":707:797   */\n          tag_38\n            /* \"#utility.yul\":793:796   */\n          dup5\n            /* \"#utility.yul\":785:791   */\n          dup3\n            /* \"#utility.yul\":778:782   */\n          0x20\n            /* \"#utility.yul\":770:776   */\n          dup7\n            /* \"#utility.yul\":766:783   */\n          add\n            /* \"#utility.yul\":707:797   */\n          tag_22\n          jump\t// in\n        tag_38:\n            /* \"#utility.yul\":698:797   */\n          swap2\n          pop\n            /* \"#utility.yul\":521:803   */\n          pop\n            /* \"#utility.yul\":448:803   */\n          swap3\n          swap2\n          pop\n          pop\n          jump\t// out\n            /* \"#utility.yul\":809:952   */\n        tag_39:\n            /* \"#utility.yul\":866:871   */\n          0x00\n            /* \"#utility.yul\":897:903   */\n          dup2\n            /* \"#utility.yul\":891:904   */\n          mload\n            /* \"#utility.yul\":882:904   */\n          swap1\n          pop\n            /* \"#utility.yul\":913:946   */\n          tag_41\n            /* \"#utility.yul\":940:945   */\n          dup2\n            /* \"#utility.yul\":913:946   */\n          tag_42\n          jump\t// in\n        tag_41:\n            /* \"#utility.yul\":809:952   */\n          swap3\n          swap2\n          pop\n          pop\n          jump\t// out\n            /* \"#utility.yul\":958:1638   */\n        tag_3:\n            /* \"#utility.yul\":1047:1053   */\n          0x00\n            /* \"#utility.yul\":1055:1061   */\n          dup1\n            /* \"#utility.yul\":1104:1106   */\n          0x40\n            /* \"#utility.yul\":1092:1101   */\n          dup4\n            /* \"#utility.yul\":1083:1090   */\n          dup6\n            /* \"#utility.yul\":1079:1102   */\n          sub\n            /* \"#utility.yul\":1075:1107   */\n          slt\n            /* \"#utility.yul\":1072:1191   */\n          iszero\n          tag_44\n          jumpi\n            /* \"#utility.yul\":1110:1189   */\n          tag_45\n          tag_46\n          jump\t// in\n        tag_45:\n            /* \"#utility.yul\":1072:1191   */\n        tag_44:\n            /* \"#utility.yul\":1230:1231   */\n          0x00\n            /* \"#utility.yul\":1255:1319   */\n          tag_47\n            /* \"#utility.yul\":1311:1318   */\n          dup6\n            /* \"#utility.yul\":1302:1308   */\n          dup3\n            /* \"#utility.yul\":1291:1300   */\n          dup7\n            /* \"#utility.yul\":1287:1309   */\n          add\n            /* \"#utility.yul\":1255:1319   */\n          tag_39\n          jump\t// in\n        tag_47:\n            /* \"#utility.yul\":1245:1319   */\n          swap3\n          pop\n            /* \"#utility.yul\":1201:1329   */\n          pop\n            /* \"#utility.yul\":1389:1391   */\n          0x20\n            /* \"#utility.yul\":1378:1387   */\n          dup4\n            /* \"#utility.yul\":1374:1392   */\n          add\n            /* \"#utility.yul\":1368:1393   */\n          mload\n            /* \"#utility.yul\":1420:1438   */\n          0xffffffffffffffff\n            /* \"#utility.yul\":1412:1418   */\n          dup2\n            /* \"#utility.yul\":1409:1439   */\n          gt\n            /* \"#utility.yul\":1406:1523   */\n          iszero\n          tag_48\n          jumpi\n            /* \"#utility.yul\":1442:1521   */\n          tag_49\n          tag_50\n          jump\t// in\n        tag_49:\n            /* \"#utility.yul\":1406:1523   */\n        tag_48:\n            /* \"#utility.yul\":1547:1621   */\n          tag_51\n            /* \"#utility.yul\":1613:1620   */\n          dup6\n            /* \"#utility.yul\":1604:1610   */\n          dup3\n            /* \"#utility.yul\":1593:1602   */\n          dup7\n            /* \"#utility.yul\":1589:1611   */\n          add\n            /* \"#utility.yul\":1547:1621   */\n          tag_33\n          jump\t// in\n        tag_51:\n            /* \"#utility.yul\":1537:1621   */\n          swap2\n          pop\n            /* \"#utility.yul\":1339:1631   */\n          pop\n            /* \"#utility.yul\":958:1638   */\n          swap3\n          pop\n          swap3\n          swap1\n          pop\n          jump\t// out\n            /* \"#utility.yul\":1644:1773   */\n        tag_27:\n            /* \"#utility.yul\":1678:1684   */\n          0x00\n            /* \"#utility.yul\":1705:1725   */\n          tag_53\n          tag_54\n          jump\t// in\n        tag_53:\n            /* \"#utility.yul\":1695:1725   */\n          swap1\n          pop\n            /* \"#utility.yul\":1734:1767   */\n          tag_55\n            /* \"#utility.yul\":1762:1766   */\n          dup3\n            /* \"#utility.yul\":1754:1760   */\n          dup3\n            /* \"#utility.yul\":1734:1767   */\n          tag_56\n          jump\t// in\n        tag_55:\n            /* \"#utility.yul\":1644:1773   */\n          swap2\n          swap1\n          pop\n          jump\t// out\n            /* \"#utility.yul\":1779:1854   */\n        tag_54:\n            /* \"#utility.yul\":1812:1818   */\n          0x00\n            /* \"#utility.yul\":1845:1847   */\n          0x40\n            /* \"#utility.yul\":1839:1848   */\n          mload\n            /* \"#utility.yul\":1829:1848   */\n          swap1\n          pop\n            /* \"#utility.yul\":1779:1854   */\n          swap1\n          jump\t// out\n            /* \"#utility.yul\":1860:2168   */\n        tag_26:\n            /* \"#utility.yul\":1922:1926   */\n          0x00\n            /* \"#utility.yul\":2012:2030   */\n          0xffffffffffffffff\n            /* \"#utility.yul\":2004:2010   */\n          dup3\n            /* \"#utility.yul\":2001:2031   */\n          gt\n            /* \"#utility.yul\":1998:2054   */\n          iszero\n          tag_59\n          jumpi\n            /* \"#utility.yul\":2034:2052   */\n          tag_60\n          tag_61\n          jump\t// in\n        tag_60:\n            /* \"#utility.yul\":1998:2054   */\n        tag_59:\n            /* \"#utility.yul\":2072:2101   */\n          tag_62\n            /* \"#utility.yul\":2094:2100   */\n          dup3\n            /* \"#utility.yul\":2072:2101   */\n          tag_63\n          jump\t// in\n        tag_62:\n            /* \"#utility.yul\":2064:2101   */\n          swap1\n          pop\n            /* \"#utility.yul\":2156:2160   */\n          0x20\n            /* \"#utility.yul\":2150:2154   */\n          dup2\n            /* \"#utility.yul\":2146:2161   */\n          add\n            /* \"#utility.yul\":2138:2161   */\n          swap1\n          pop\n            /* \"#utility.yul\":1860:2168   */\n          swap2\n          swap1\n          pop\n          jump\t// out\n            /* \"#utility.yul\":2174:2251   */\n        tag_64:\n            /* \"#utility.yul\":2211:2218   */\n          0x00\n            /* \"#utility.yul\":2240:2245   */\n          dup2\n            /* \"#utility.yul\":2229:2245   */\n          swap1\n          pop\n            /* \"#utility.yul\":2174:2251   */\n          swap2\n          swap1\n          pop\n          jump\t// out\n            /* \"#utility.yul\":2257:2564   */\n        tag_32:\n            /* \"#utility.yul\":2325:2326   */\n          0x00\n            /* \"#utility.yul\":2335:2448   */\n        tag_67:\n            /* \"#utility.yul\":2349:2355   */\n          dup4\n            /* \"#utility.yul\":2346:2347   */\n          dup2\n            /* \"#utility.yul\":2343:2356   */\n          lt\n            /* \"#utility.yul\":2335:2448   */\n          iszero\n          tag_69\n          jumpi\n            /* \"#utility.yul\":2434:2435   */\n          dup1\n            /* \"#utility.yul\":2429:2432   */\n          dup3\n            /* \"#utility.yul\":2425:2436   */\n          add\n            /* \"#utility.yul\":2419:2437   */\n          mload\n            /* \"#utility.yul\":2415:2416   */\n          dup2\n            /* \"#utility.yul\":2410:2413   */\n          dup5\n            /* \"#utility.yul\":2406:2417   */\n          add\n            /* \"#utility.yul\":2399:2438   */\n          mstore\n            /* \"#utility.yul\":2371:2373   */\n          0x20\n            /* \"#utility.yul\":2368:2369   */\n          dup2\n            /* \"#utility.yul\":2364:2374   */\n          add\n            /* \"#utility.yul\":2359:2374   */\n          swap1\n          pop\n            /* \"#utility.yul\":2335:2448   */\n          jump(tag_67)\n        tag_69:\n            /* \"#utility.yul\":2466:2472   */\n          dup4\n            /* \"#utility.yul\":2463:2464   */\n          dup2\n            /* \"#utility.yul\":2460:2473   */\n          gt\n            /* \"#utility.yul\":2457:2558   */\n          iszero\n          tag_70\n          jumpi\n            /* \"#utility.yul\":2546:2547   */\n          0x00\n            /* \"#utility.yul\":2537:2543   */\n          dup5\n            /* \"#utility.yul\":2532:2535   */\n          dup5\n            /* \"#utility.yul\":2528:2544   */\n          add\n            /* \"#utility.yul\":2521:2548   */\n          mstore\n            /* \"#utility.yul\":2457:2558   */\n        tag_70:\n            /* \"#utility.yul\":2306:2564   */\n          pop\n            /* \"#utility.yul\":2257:2564   */\n          pop\n          pop\n          pop\n          jump\t// out\n            /* \"#utility.yul\":2570:2890   */\n        tag_11:\n            /* \"#utility.yul\":2614:2620   */\n          0x00\n            /* \"#utility.yul\":2651:2652   */\n          0x02\n            /* \"#utility.yul\":2645:2649   */\n          dup3\n            /* \"#utility.yul\":2641:2653   */\n          div\n            /* \"#utility.yul\":2631:2653   */\n          swap1\n          pop\n            /* \"#utility.yul\":2698:2699   */\n          0x01\n            /* \"#utility.yul\":2692:2696   */\n          dup3\n            /* \"#utility.yul\":2688:2700   */\n          and\n            /* \"#utility.yul\":2719:2737   */\n          dup1\n            /* \"#utility.yul\":2709:2790   */\n          tag_72\n          jumpi\n            /* \"#utility.yul\":2775:2779   */\n          0x7f\n            /* \"#utility.yul\":2767:2773   */\n          dup3\n            /* \"#utility.yul\":2763:2780   */\n          and\n            /* \"#utility.yul\":2753:2780   */\n          swap2\n          pop\n            /* \"#utility.yul\":2709:2790   */\n        tag_72:\n            /* \"#utility.yul\":2837:2839   */\n          0x20\n            /* \"#utility.yul\":2829:2835   */\n          dup3\n            /* \"#utility.yul\":2826:2840   */\n          lt\n            /* \"#utility.yul\":2806:2824   */\n          dup2\n            /* \"#utility.yul\":2803:2841   */\n          eq\n            /* \"#utility.yul\":2800:2884   */\n          iszero\n          tag_73\n          jumpi\n            /* \"#utility.yul\":2856:2874   */\n          tag_74\n          tag_75\n          jump\t// in\n        tag_74:\n            /* \"#utility.yul\":2800:2884   */\n        tag_73:\n            /* \"#utility.yul\":2621:2890   */\n          pop\n            /* \"#utility.yul\":2570:2890   */\n          swap2\n          swap1\n          pop\n          jump\t// out\n            /* \"#utility.yul\":2896:3177   */\n        tag_56:\n            /* \"#utility.yul\":2979:3006   */\n          tag_77\n            /* \"#utility.yul\":3001:3005   */\n          dup3\n            /* \"#utility.yul\":2979:3006   */\n          tag_63\n          jump\t// in\n        tag_77:\n            /* \"#utility.yul\":2971:2977   */\n          dup2\n            /* \"#utility.yul\":2967:3007   */\n          add\n            /* \"#utility.yul\":3109:3115   */\n          dup2\n            /* \"#utility.yul\":3097:3107   */\n          dup2\n            /* \"#utility.yul\":3094:3116   */\n          lt\n            /* \"#utility.yul\":3073:3091   */\n          0xffffffffffffffff\n            /* \"#utility.yul\":3061:3071   */\n          dup3\n            /* \"#utility.yul\":3058:3092   */\n          gt\n            /* \"#utility.yul\":3055:3117   */\n          or\n            /* \"#utility.yul\":3052:3140   */\n          iszero\n          tag_78\n          jumpi\n            /* \"#utility.yul\":3120:3138   */\n          tag_79\n          tag_61\n          jump\t// in\n        tag_79:\n            /* \"#utility.yul\":3052:3140   */\n        tag_78:\n            /* \"#utility.yul\":3160:3170   */\n          dup1\n            /* \"#utility.yul\":3156:3158   */\n          0x40\n            /* \"#utility.yul\":3149:3171   */\n          mstore\n            /* \"#utility.yul\":2939:3177   */\n          pop\n            /* \"#utility.yul\":2896:3177   */\n          pop\n          pop\n          jump\t// out\n            /* \"#utility.yul\":3183:3363   */\n        tag_75:\n            /* \"#utility.yul\":3231:3308   */\n          0x4e487b7100000000000000000000000000000000000000000000000000000000\n            /* \"#utility.yul\":3228:3229   */\n          0x00\n            /* \"#utility.yul\":3221:3309   */\n          mstore\n            /* \"#utility.yul\":3328:3332   */\n          0x22\n            /* \"#utility.yul\":3325:3326   */\n          0x04\n            /* \"#utility.yul\":3318:3333   */\n          mstore\n            /* \"#utility.yul\":3352:3356   */\n          0x24\n            /* \"#utility.yul\":3349:3350   */\n          0x00\n            /* \"#utility.yul\":3342:3357   */\n          revert\n            /* \"#utility.yul\":3369:3549   */\n        tag_61:\n            /* \"#utility.yul\":3417:3494   */\n          0x4e487b7100000000000000000000000000000000000000000000000000000000\n            /* \"#utility.yul\":3414:3415   */\n          0x00\n            /* \"#utility.yul\":3407:3495   */\n          mstore\n            /* \"#utility.yul\":3514:3518   */\n          0x41\n            /* \"#utility.yul\":3511:3512   */\n          0x04\n            /* \"#utility.yul\":3504:3519   */\n          mstore\n            /* \"#utility.yul\":3538:3542   */\n          0x24\n            /* \"#utility.yul\":3535:3536   */\n          0x00\n            /* \"#utility.yul\":3528:3543   */\n          revert\n            /* \"#utility.yul\":3555:3672   */\n        tag_37:\n            /* \"#utility.yul\":3664:3665   */\n          0x00\n            /* \"#utility.yul\":3661:3662   */\n          dup1\n            /* \"#utility.yul\":3654:3666   */\n          revert\n            /* \"#utility.yul\":3678:3795   */\n        tag_30:\n            /* \"#utility.yul\":3787:3788   */\n          0x00\n            /* \"#utility.yul\":3784:3785   */\n          dup1\n            /* \"#utility.yul\":3777:3789   */\n          revert\n            /* \"#utility.yul\":3801:3918   */\n        tag_50:\n            /* \"#utility.yul\":3910:3911   */\n          0x00\n            /* \"#utility.yul\":3907:3908   */\n          dup1\n            /* \"#utility.yul\":3900:3912   */\n          revert\n            /* \"#utility.yul\":3924:4041   */\n        tag_46:\n            /* \"#utility.yul\":4033:4034   */\n          0x00\n            /* \"#utility.yul\":4030:4031   */\n          dup1\n            /* \"#utility.yul\":4023:4035   */\n          revert\n            /* \"#utility.yul\":4047:4149   */\n        tag_63:\n            /* \"#utility.yul\":4088:4094   */\n          0x00\n            /* \"#utility.yul\":4139:4141   */\n          0x1f\n            /* \"#utility.yul\":4135:4142   */\n          not\n            /* \"#utility.yul\":4130:4132   */\n          0x1f\n            /* \"#utility.yul\":4123:4128   */\n          dup4\n            /* \"#utility.yul\":4119:4133   */\n          add\n            /* \"#utility.yul\":4115:4143   */\n          and\n            /* \"#utility.yul\":4105:4143   */\n          swap1\n          pop\n            /* \"#utility.yul\":4047:4149   */\n          swap2\n          swap1\n          pop\n          jump\t// out\n            /* \"#utility.yul\":4155:4277   */\n        tag_42:\n            /* \"#utility.yul\":4228:4252   */\n          tag_88\n            /* \"#utility.yul\":4246:4251   */\n          dup2\n            /* \"#utility.yul\":4228:4252   */\n          tag_64\n          jump\t// in\n        tag_88:\n            /* \"#utility.yul\":4221:4226   */\n          dup2\n            /* \"#utility.yul\":4218:4253   */\n          eq\n            /* \"#utility.yul\":4208:4271   */\n          tag_89\n          jumpi\n            /* \"#utility.yul\":4267:4268   */\n          0x00\n            /* \"#utility.yul\":4264:4265   */\n          dup1\n            /* \"#utility.yul\":4257:4269   */\n          revert\n            /* \"#utility.yul\":4208:4271   */\n        tag_89:\n            /* \"#utility.yul\":4155:4277   */\n          pop\n          jump\t// out\n            /* \"contracts/Bus.sol\":102:883  contract Bus{... */\n        tag_9:\n          dataSize(sub_0)\n          dup1\n          dataOffset(sub_0)\n          0x00\n          codecopy\n          0x00\n          return\n        stop\n\n        sub_0: assembly {\n                /* \"contracts/Bus.sol\":102:883  contract Bus{... */\n              mstore(0x40, 0x80)\n              callvalue\n              dup1\n              iszero\n              tag_1\n              jumpi\n              0x00\n              dup1\n              revert\n            tag_1:\n              pop\n              jumpi(tag_2, lt(calldatasize, 0x04))\n              shr(0xe0, calldataload(0x00))\n              dup1\n              0x26002bf1\n              eq\n              tag_3\n              jumpi\n              dup1\n              0xa434261f\n              eq\n              tag_4\n              jumpi\n              dup1\n              0xbb4f860d\n              eq\n              tag_5\n              jumpi\n            tag_2:\n              0x00\n              dup1\n              revert\n                /* \"contracts/Bus.sol\":773:879  function getBusInfo() public view returns(uint, string memory){... */\n            tag_3:\n              tag_6\n              tag_7\n              jump\t// in\n            tag_6:\n              mload(0x40)\n              tag_8\n              swap3\n              swap2\n              swap1\n              tag_9\n              jump\t// in\n            tag_8:\n              mload(0x40)\n              dup1\n              swap2\n              sub\n              swap1\n              return\n                /* \"contracts/Bus.sol\":505:659  function reservationBus( uint _seatNum, uint _studentId, address _student) public{... */\n            tag_4:\n              tag_10\n              0x04\n              dup1\n              calldatasize\n              sub\n              dup2\n              add\n              swap1\n              tag_11\n              swap2\n              swap1\n              tag_12\n              jump\t// in\n            tag_11:\n              tag_13\n              jump\t// in\n            tag_10:\n              stop\n                /* \"contracts/Bus.sol\":664:768  function getSeatDetail(uint _num) public view returns(seat memory){... */\n            tag_5:\n              tag_14\n              0x04\n              dup1\n              calldatasize\n              sub\n              dup2\n              add\n              swap1\n              tag_15\n              swap2\n              swap1\n              tag_16\n              jump\t// in\n            tag_15:\n              tag_17\n              jump\t// in\n            tag_14:\n              mload(0x40)\n              tag_18\n              swap2\n              swap1\n              tag_19\n              jump\t// in\n            tag_18:\n              mload(0x40)\n              dup1\n              swap2\n              sub\n              swap1\n              return\n                /* \"contracts/Bus.sol\":773:879  function getBusInfo() public view returns(uint, string memory){... */\n            tag_7:\n                /* \"contracts/Bus.sol\":815:819  uint */\n              0x00\n                /* \"contracts/Bus.sol\":821:834  string memory */\n              0x60\n                /* \"contracts/Bus.sol\":852:858  busNum */\n              sload(0x01)\n                /* \"contracts/Bus.sol\":860:871  destination */\n              0x02\n                /* \"contracts/Bus.sol\":845:872  return(busNum, destination) */\n              dup1\n              dup1\n              sload\n              tag_21\n              swap1\n              tag_22\n              jump\t// in\n            tag_21:\n              dup1\n              0x1f\n              add\n              0x20\n              dup1\n              swap2\n              div\n              mul\n              0x20\n              add\n              mload(0x40)\n              swap1\n              dup2\n              add\n              0x40\n              mstore\n              dup1\n              swap3\n              swap2\n              swap1\n              dup2\n              dup2\n              mstore\n              0x20\n              add\n              dup3\n              dup1\n              sload\n              tag_23\n              swap1\n              tag_22\n              jump\t// in\n            tag_23:\n              dup1\n              iszero\n              tag_24\n              jumpi\n              dup1\n              0x1f\n              lt\n              tag_25\n              jumpi\n              0x0100\n              dup1\n              dup4\n              sload\n              div\n              mul\n              dup4\n              mstore\n              swap2\n              0x20\n              add\n              swap2\n              jump(tag_24)\n            tag_25:\n              dup3\n              add\n              swap2\n              swap1\n              0x00\n              mstore\n              keccak256(0x00, 0x20)\n              swap1\n            tag_26:\n              dup2\n              sload\n              dup2\n              mstore\n              swap1\n              0x01\n              add\n              swap1\n              0x20\n              add\n              dup1\n              dup4\n              gt\n              tag_26\n              jumpi\n              dup3\n              swap1\n              sub\n              0x1f\n              and\n              dup3\n              add\n              swap2\n            tag_24:\n              pop\n              pop\n              pop\n              pop\n              pop\n              swap1\n              pop\n              swap2\n              pop\n              swap2\n              pop\n                /* \"contracts/Bus.sol\":773:879  function getBusInfo() public view returns(uint, string memory){... */\n              swap1\n              swap2\n              jump\t// out\n                /* \"contracts/Bus.sol\":505:659  function reservationBus( uint _seatNum, uint _studentId, address _student) public{... */\n            tag_13:\n                /* \"contracts/Bus.sol\":616:652  seat(_seatNum, _studentId, _student) */\n              mload(0x40)\n              dup1\n              0x60\n              add\n              0x40\n              mstore\n              dup1\n                /* \"contracts/Bus.sol\":621:629  _seatNum */\n              dup5\n                /* \"contracts/Bus.sol\":616:652  seat(_seatNum, _studentId, _student) */\n              dup2\n              mstore\n              0x20\n              add\n                /* \"contracts/Bus.sol\":631:641  _studentId */\n              dup4\n                /* \"contracts/Bus.sol\":616:652  seat(_seatNum, _studentId, _student) */\n              dup2\n              mstore\n              0x20\n              add\n                /* \"contracts/Bus.sol\":643:651  _student */\n              dup3\n                /* \"contracts/Bus.sol\":616:652  seat(_seatNum, _studentId, _student) */\n              0xffffffffffffffffffffffffffffffffffffffff\n              and\n              dup2\n              mstore\n              pop\n                /* \"contracts/Bus.sol\":596:603  busSeat */\n              0x03\n                /* \"contracts/Bus.sol\":596:613  busSeat[_seatNum] */\n              0x00\n                /* \"contracts/Bus.sol\":604:612  _seatNum */\n              dup6\n                /* \"contracts/Bus.sol\":596:613  busSeat[_seatNum] */\n              dup2\n              mstore\n              0x20\n              add\n              swap1\n              dup2\n              mstore\n              0x20\n              add\n              0x00\n              keccak256\n                /* \"contracts/Bus.sol\":596:652  busSeat[_seatNum] = seat(_seatNum, _studentId, _student) */\n              0x00\n              dup3\n              add\n              mload\n              dup2\n              0x00\n              add\n              sstore\n              0x20\n              dup3\n              add\n              mload\n              dup2\n              0x01\n              add\n              sstore\n              0x40\n              dup3\n              add\n              mload\n              dup2\n              0x02\n              add\n              exp(0x0100, 0x00)\n              dup2\n              sload\n              dup2\n              0xffffffffffffffffffffffffffffffffffffffff\n              mul\n              not\n              and\n              swap1\n              dup4\n              0xffffffffffffffffffffffffffffffffffffffff\n              and\n              mul\n              or\n              swap1\n              sstore\n              pop\n              swap1\n              pop\n              pop\n                /* \"contracts/Bus.sol\":505:659  function reservationBus( uint _seatNum, uint _studentId, address _student) public{... */\n              pop\n              pop\n              pop\n              jump\t// out\n                /* \"contracts/Bus.sol\":664:768  function getSeatDetail(uint _num) public view returns(seat memory){... */\n            tag_17:\n                /* \"contracts/Bus.sol\":718:729  seat memory */\n              tag_28\n              tag_29\n              jump\t// in\n            tag_28:\n                /* \"contracts/Bus.sol\":747:754  busSeat */\n              0x03\n                /* \"contracts/Bus.sol\":747:760  busSeat[_num] */\n              0x00\n                /* \"contracts/Bus.sol\":755:759  _num */\n              dup4\n                /* \"contracts/Bus.sol\":747:760  busSeat[_num] */\n              dup2\n              mstore\n              0x20\n              add\n              swap1\n              dup2\n              mstore\n              0x20\n              add\n              0x00\n              keccak256\n                /* \"contracts/Bus.sol\":740:761  return(busSeat[_num]) */\n              mload(0x40)\n              dup1\n              0x60\n              add\n              0x40\n              mstore\n              swap1\n              dup2\n              0x00\n              dup3\n              add\n              sload\n              dup2\n              mstore\n              0x20\n              add\n              0x01\n              dup3\n              add\n              sload\n              dup2\n              mstore\n              0x20\n              add\n              0x02\n              dup3\n              add\n              0x00\n              swap1\n              sload\n              swap1\n              0x0100\n              exp\n              swap1\n              div\n              0xffffffffffffffffffffffffffffffffffffffff\n              and\n              0xffffffffffffffffffffffffffffffffffffffff\n              and\n              0xffffffffffffffffffffffffffffffffffffffff\n              and\n              dup2\n              mstore\n              pop\n              pop\n              swap1\n              pop\n                /* \"contracts/Bus.sol\":664:768  function getSeatDetail(uint _num) public view returns(seat memory){... */\n              swap2\n              swap1\n              pop\n              jump\t// out\n            tag_29:\n              mload(0x40)\n              dup1\n              0x60\n              add\n              0x40\n              mstore\n              dup1\n              0x00\n              dup2\n              mstore\n              0x20\n              add\n              0x00\n              dup2\n              mstore\n              0x20\n              add\n              and(0xffffffffffffffffffffffffffffffffffffffff, 0x00)\n              dup2\n              mstore\n              pop\n              swap1\n              jump\t// out\n                /* \"#utility.yul\":7:146   */\n            tag_32:\n                /* \"#utility.yul\":53:58   */\n              0x00\n                /* \"#utility.yul\":91:97   */\n              dup2\n                /* \"#utility.yul\":78:98   */\n              calldataload\n                /* \"#utility.yul\":69:98   */\n              swap1\n              pop\n                /* \"#utility.yul\":107:140   */\n              tag_34\n                /* \"#utility.yul\":134:139   */\n              dup2\n                /* \"#utility.yul\":107:140   */\n              tag_35\n              jump\t// in\n            tag_34:\n                /* \"#utility.yul\":7:146   */\n              swap3\n              swap2\n              pop\n              pop\n              jump\t// out\n                /* \"#utility.yul\":152:291   */\n            tag_36:\n                /* \"#utility.yul\":198:203   */\n              0x00\n                /* \"#utility.yul\":236:242   */\n              dup2\n                /* \"#utility.yul\":223:243   */\n              calldataload\n                /* \"#utility.yul\":214:243   */\n              swap1\n              pop\n                /* \"#utility.yul\":252:285   */\n              tag_38\n                /* \"#utility.yul\":279:284   */\n              dup2\n                /* \"#utility.yul\":252:285   */\n              tag_39\n              jump\t// in\n            tag_38:\n                /* \"#utility.yul\":152:291   */\n              swap3\n              swap2\n              pop\n              pop\n              jump\t// out\n                /* \"#utility.yul\":297:626   */\n            tag_16:\n                /* \"#utility.yul\":356:362   */\n              0x00\n                /* \"#utility.yul\":405:407   */\n              0x20\n                /* \"#utility.yul\":393:402   */\n              dup3\n                /* \"#utility.yul\":384:391   */\n              dup5\n                /* \"#utility.yul\":380:403   */\n              sub\n                /* \"#utility.yul\":376:408   */\n              slt\n                /* \"#utility.yul\":373:492   */\n              iszero\n              tag_41\n              jumpi\n                /* \"#utility.yul\":411:490   */\n              tag_42\n              tag_43\n              jump\t// in\n            tag_42:\n                /* \"#utility.yul\":373:492   */\n            tag_41:\n                /* \"#utility.yul\":531:532   */\n              0x00\n                /* \"#utility.yul\":556:609   */\n              tag_44\n                /* \"#utility.yul\":601:608   */\n              dup5\n                /* \"#utility.yul\":592:598   */\n              dup3\n                /* \"#utility.yul\":581:590   */\n              dup6\n                /* \"#utility.yul\":577:599   */\n              add\n                /* \"#utility.yul\":556:609   */\n              tag_36\n              jump\t// in\n            tag_44:\n                /* \"#utility.yul\":546:609   */\n              swap2\n              pop\n                /* \"#utility.yul\":502:619   */\n              pop\n                /* \"#utility.yul\":297:626   */\n              swap3\n              swap2\n              pop\n              pop\n              jump\t// out\n                /* \"#utility.yul\":632:1251   */\n            tag_12:\n                /* \"#utility.yul\":709:715   */\n              0x00\n                /* \"#utility.yul\":717:723   */\n              dup1\n                /* \"#utility.yul\":725:731   */\n              0x00\n                /* \"#utility.yul\":774:776   */\n              0x60\n                /* \"#utility.yul\":762:771   */\n              dup5\n                /* \"#utility.yul\":753:760   */\n              dup7\n                /* \"#utility.yul\":749:772   */\n              sub\n                /* \"#utility.yul\":745:777   */\n              slt\n                /* \"#utility.yul\":742:861   */\n              iszero\n              tag_46\n              jumpi\n                /* \"#utility.yul\":780:859   */\n              tag_47\n              tag_43\n              jump\t// in\n            tag_47:\n                /* \"#utility.yul\":742:861   */\n            tag_46:\n                /* \"#utility.yul\":900:901   */\n              0x00\n                /* \"#utility.yul\":925:978   */\n              tag_48\n                /* \"#utility.yul\":970:977   */\n              dup7\n                /* \"#utility.yul\":961:967   */\n              dup3\n                /* \"#utility.yul\":950:959   */\n              dup8\n                /* \"#utility.yul\":946:968   */\n              add\n                /* \"#utility.yul\":925:978   */\n              tag_36\n              jump\t// in\n            tag_48:\n                /* \"#utility.yul\":915:978   */\n              swap4\n              pop\n                /* \"#utility.yul\":871:988   */\n              pop\n                /* \"#utility.yul\":1027:1029   */\n              0x20\n                /* \"#utility.yul\":1053:1106   */\n              tag_49\n                /* \"#utility.yul\":1098:1105   */\n              dup7\n                /* \"#utility.yul\":1089:1095   */\n              dup3\n                /* \"#utility.yul\":1078:1087   */\n              dup8\n                /* \"#utility.yul\":1074:1096   */\n              add\n                /* \"#utility.yul\":1053:1106   */\n              tag_36\n              jump\t// in\n            tag_49:\n                /* \"#utility.yul\":1043:1106   */\n              swap3\n              pop\n                /* \"#utility.yul\":998:1116   */\n              pop\n                /* \"#utility.yul\":1155:1157   */\n              0x40\n                /* \"#utility.yul\":1181:1234   */\n              tag_50\n                /* \"#utility.yul\":1226:1233   */\n              dup7\n                /* \"#utility.yul\":1217:1223   */\n              dup3\n                /* \"#utility.yul\":1206:1215   */\n              dup8\n                /* \"#utility.yul\":1202:1224   */\n              add\n                /* \"#utility.yul\":1181:1234   */\n              tag_32\n              jump\t// in\n            tag_50:\n                /* \"#utility.yul\":1171:1234   */\n              swap2\n              pop\n                /* \"#utility.yul\":1126:1244   */\n              pop\n                /* \"#utility.yul\":632:1251   */\n              swap3\n              pop\n              swap3\n              pop\n              swap3\n              jump\t// out\n                /* \"#utility.yul\":1257:1365   */\n            tag_51:\n                /* \"#utility.yul\":1334:1358   */\n              tag_53\n                /* \"#utility.yul\":1352:1357   */\n              dup2\n                /* \"#utility.yul\":1334:1358   */\n              tag_54\n              jump\t// in\n            tag_53:\n                /* \"#utility.yul\":1329:1332   */\n              dup3\n                /* \"#utility.yul\":1322:1359   */\n              mstore\n                /* \"#utility.yul\":1257:1365   */\n              pop\n              pop\n              jump\t// out\n                /* \"#utility.yul\":1371:1735   */\n            tag_55:\n                /* \"#utility.yul\":1459:1462   */\n              0x00\n                /* \"#utility.yul\":1487:1526   */\n              tag_57\n                /* \"#utility.yul\":1520:1525   */\n              dup3\n                /* \"#utility.yul\":1487:1526   */\n              tag_58\n              jump\t// in\n            tag_57:\n                /* \"#utility.yul\":1542:1613   */\n              tag_59\n                /* \"#utility.yul\":1606:1612   */\n              dup2\n                /* \"#utility.yul\":1601:1604   */\n              dup6\n                /* \"#utility.yul\":1542:1613   */\n              tag_60\n              jump\t// in\n            tag_59:\n                /* \"#utility.yul\":1535:1613   */\n              swap4\n              pop\n                /* \"#utility.yul\":1622:1674   */\n              tag_61\n                /* \"#utility.yul\":1667:1673   */\n              dup2\n                /* \"#utility.yul\":1662:1665   */\n              dup6\n                /* \"#utility.yul\":1655:1659   */\n              0x20\n                /* \"#utility.yul\":1648:1653   */\n              dup7\n                /* \"#utility.yul\":1644:1660   */\n              add\n                /* \"#utility.yul\":1622:1674   */\n              tag_62\n              jump\t// in\n            tag_61:\n                /* \"#utility.yul\":1699:1728   */\n              tag_63\n                /* \"#utility.yul\":1721:1727   */\n              dup2\n                /* \"#utility.yul\":1699:1728   */\n              tag_64\n              jump\t// in\n            tag_63:\n                /* \"#utility.yul\":1694:1697   */\n              dup5\n                /* \"#utility.yul\":1690:1729   */\n              add\n                /* \"#utility.yul\":1683:1729   */\n              swap2\n              pop\n                /* \"#utility.yul\":1463:1735   */\n              pop\n                /* \"#utility.yul\":1371:1735   */\n              swap3\n              swap2\n              pop\n              pop\n              jump\t// out\n                /* \"#utility.yul\":1783:2463   */\n            tag_65:\n                /* \"#utility.yul\":1918:1922   */\n              0x60\n                /* \"#utility.yul\":1913:1916   */\n              dup3\n                /* \"#utility.yul\":1909:1923   */\n              add\n                /* \"#utility.yul\":2008:2012   */\n              0x00\n                /* \"#utility.yul\":2001:2006   */\n              dup3\n                /* \"#utility.yul\":1997:2013   */\n              add\n                /* \"#utility.yul\":1991:2014   */\n              mload\n                /* \"#utility.yul\":2027:2090   */\n              tag_67\n                /* \"#utility.yul\":2084:2088   */\n              0x00\n                /* \"#utility.yul\":2079:2082   */\n              dup6\n                /* \"#utility.yul\":2075:2089   */\n              add\n                /* \"#utility.yul\":2061:2073   */\n              dup3\n                /* \"#utility.yul\":2027:2090   */\n              tag_68\n              jump\t// in\n            tag_67:\n                /* \"#utility.yul\":1933:2100   */\n              pop\n                /* \"#utility.yul\":2187:2191   */\n              0x20\n                /* \"#utility.yul\":2180:2185   */\n              dup3\n                /* \"#utility.yul\":2176:2192   */\n              add\n                /* \"#utility.yul\":2170:2193   */\n              mload\n                /* \"#utility.yul\":2206:2269   */\n              tag_69\n                /* \"#utility.yul\":2263:2267   */\n              0x20\n                /* \"#utility.yul\":2258:2261   */\n              dup6\n                /* \"#utility.yul\":2254:2268   */\n              add\n                /* \"#utility.yul\":2240:2252   */\n              dup3\n                /* \"#utility.yul\":2206:2269   */\n              tag_68\n              jump\t// in\n            tag_69:\n                /* \"#utility.yul\":2110:2279   */\n              pop\n                /* \"#utility.yul\":2364:2368   */\n              0x40\n                /* \"#utility.yul\":2357:2362   */\n              dup3\n                /* \"#utility.yul\":2353:2369   */\n              add\n                /* \"#utility.yul\":2347:2370   */\n              mload\n                /* \"#utility.yul\":2383:2446   */\n              tag_70\n                /* \"#utility.yul\":2440:2444   */\n              0x40\n                /* \"#utility.yul\":2435:2438   */\n              dup6\n                /* \"#utility.yul\":2431:2445   */\n              add\n                /* \"#utility.yul\":2417:2429   */\n              dup3\n                /* \"#utility.yul\":2383:2446   */\n              tag_51\n              jump\t// in\n            tag_70:\n                /* \"#utility.yul\":2289:2456   */\n              pop\n                /* \"#utility.yul\":1887:2463   */\n              pop\n                /* \"#utility.yul\":1783:2463   */\n              pop\n              pop\n              jump\t// out\n                /* \"#utility.yul\":2469:2577   */\n            tag_68:\n                /* \"#utility.yul\":2546:2570   */\n              tag_72\n                /* \"#utility.yul\":2564:2569   */\n              dup2\n                /* \"#utility.yul\":2546:2570   */\n              tag_73\n              jump\t// in\n            tag_72:\n                /* \"#utility.yul\":2541:2544   */\n              dup3\n                /* \"#utility.yul\":2534:2571   */\n              mstore\n                /* \"#utility.yul\":2469:2577   */\n              pop\n              pop\n              jump\t// out\n                /* \"#utility.yul\":2583:2701   */\n            tag_74:\n                /* \"#utility.yul\":2670:2694   */\n              tag_76\n                /* \"#utility.yul\":2688:2693   */\n              dup2\n                /* \"#utility.yul\":2670:2694   */\n              tag_73\n              jump\t// in\n            tag_76:\n                /* \"#utility.yul\":2665:2668   */\n              dup3\n                /* \"#utility.yul\":2658:2695   */\n              mstore\n                /* \"#utility.yul\":2583:2701   */\n              pop\n              pop\n              jump\t// out\n                /* \"#utility.yul\":2707:3005   */\n            tag_19:\n                /* \"#utility.yul\":2838:2842   */\n              0x00\n                /* \"#utility.yul\":2876:2878   */\n              0x60\n                /* \"#utility.yul\":2865:2874   */\n              dup3\n                /* \"#utility.yul\":2861:2879   */\n              add\n                /* \"#utility.yul\":2853:2879   */\n              swap1\n              pop\n                /* \"#utility.yul\":2889:2998   */\n              tag_78\n                /* \"#utility.yul\":2995:2996   */\n              0x00\n                /* \"#utility.yul\":2984:2993   */\n              dup4\n                /* \"#utility.yul\":2980:2997   */\n              add\n                /* \"#utility.yul\":2971:2977   */\n              dup5\n                /* \"#utility.yul\":2889:2998   */\n              tag_65\n              jump\t// in\n            tag_78:\n                /* \"#utility.yul\":2707:3005   */\n              swap3\n              swap2\n              pop\n              pop\n              jump\t// out\n                /* \"#utility.yul\":3011:3434   */\n            tag_9:\n                /* \"#utility.yul\":3152:3156   */\n              0x00\n                /* \"#utility.yul\":3190:3192   */\n              0x40\n                /* \"#utility.yul\":3179:3188   */\n              dup3\n                /* \"#utility.yul\":3175:3193   */\n              add\n                /* \"#utility.yul\":3167:3193   */\n              swap1\n              pop\n                /* \"#utility.yul\":3203:3274   */\n              tag_80\n                /* \"#utility.yul\":3271:3272   */\n              0x00\n                /* \"#utility.yul\":3260:3269   */\n              dup4\n                /* \"#utility.yul\":3256:3273   */\n              add\n                /* \"#utility.yul\":3247:3253   */\n              dup6\n                /* \"#utility.yul\":3203:3274   */\n              tag_74\n              jump\t// in\n            tag_80:\n                /* \"#utility.yul\":3321:3330   */\n              dup2\n                /* \"#utility.yul\":3315:3319   */\n              dup2\n                /* \"#utility.yul\":3311:3331   */\n              sub\n                /* \"#utility.yul\":3306:3308   */\n              0x20\n                /* \"#utility.yul\":3295:3304   */\n              dup4\n                /* \"#utility.yul\":3291:3309   */\n              add\n                /* \"#utility.yul\":3284:3332   */\n              mstore\n                /* \"#utility.yul\":3349:3427   */\n              tag_81\n                /* \"#utility.yul\":3422:3426   */\n              dup2\n                /* \"#utility.yul\":3413:3419   */\n              dup5\n                /* \"#utility.yul\":3349:3427   */\n              tag_55\n              jump\t// in\n            tag_81:\n                /* \"#utility.yul\":3341:3427   */\n              swap1\n              pop\n                /* \"#utility.yul\":3011:3434   */\n              swap4\n              swap3\n              pop\n              pop\n              pop\n              jump\t// out\n                /* \"#utility.yul\":3521:3620   */\n            tag_58:\n                /* \"#utility.yul\":3573:3579   */\n              0x00\n                /* \"#utility.yul\":3607:3612   */\n              dup2\n                /* \"#utility.yul\":3601:3613   */\n              mload\n                /* \"#utility.yul\":3591:3613   */\n              swap1\n              pop\n                /* \"#utility.yul\":3521:3620   */\n              swap2\n              swap1\n              pop\n              jump\t// out\n                /* \"#utility.yul\":3626:3795   */\n            tag_60:\n                /* \"#utility.yul\":3710:3721   */\n              0x00\n                /* \"#utility.yul\":3744:3750   */\n              dup3\n                /* \"#utility.yul\":3739:3742   */\n              dup3\n                /* \"#utility.yul\":3732:3751   */\n              mstore\n                /* \"#utility.yul\":3784:3788   */\n              0x20\n                /* \"#utility.yul\":3779:3782   */\n              dup3\n                /* \"#utility.yul\":3775:3789   */\n              add\n                /* \"#utility.yul\":3760:3789   */\n              swap1\n              pop\n                /* \"#utility.yul\":3626:3795   */\n              swap3\n              swap2\n              pop\n              pop\n              jump\t// out\n                /* \"#utility.yul\":3801:3897   */\n            tag_54:\n                /* \"#utility.yul\":3838:3845   */\n              0x00\n                /* \"#utility.yul\":3867:3891   */\n              tag_87\n                /* \"#utility.yul\":3885:3890   */\n              dup3\n                /* \"#utility.yul\":3867:3891   */\n              tag_88\n              jump\t// in\n            tag_87:\n                /* \"#utility.yul\":3856:3891   */\n              swap1\n              pop\n                /* \"#utility.yul\":3801:3897   */\n              swap2\n              swap1\n              pop\n              jump\t// out\n                /* \"#utility.yul\":3903:4029   */\n            tag_88:\n                /* \"#utility.yul\":3940:3947   */\n              0x00\n                /* \"#utility.yul\":3980:4022   */\n              0xffffffffffffffffffffffffffffffffffffffff\n                /* \"#utility.yul\":3973:3978   */\n              dup3\n                /* \"#utility.yul\":3969:4023   */\n              and\n                /* \"#utility.yul\":3958:4023   */\n              swap1\n              pop\n                /* \"#utility.yul\":3903:4029   */\n              swap2\n              swap1\n              pop\n              jump\t// out\n                /* \"#utility.yul\":4035:4112   */\n            tag_73:\n                /* \"#utility.yul\":4072:4079   */\n              0x00\n                /* \"#utility.yul\":4101:4106   */\n              dup2\n                /* \"#utility.yul\":4090:4106   */\n              swap1\n              pop\n                /* \"#utility.yul\":4035:4112   */\n              swap2\n              swap1\n              pop\n              jump\t// out\n                /* \"#utility.yul\":4118:4425   */\n            tag_62:\n                /* \"#utility.yul\":4186:4187   */\n              0x00\n                /* \"#utility.yul\":4196:4309   */\n            tag_92:\n                /* \"#utility.yul\":4210:4216   */\n              dup4\n                /* \"#utility.yul\":4207:4208   */\n              dup2\n                /* \"#utility.yul\":4204:4217   */\n              lt\n                /* \"#utility.yul\":4196:4309   */\n              iszero\n              tag_94\n              jumpi\n                /* \"#utility.yul\":4295:4296   */\n              dup1\n                /* \"#utility.yul\":4290:4293   */\n              dup3\n                /* \"#utility.yul\":4286:4297   */\n              add\n                /* \"#utility.yul\":4280:4298   */\n              mload\n                /* \"#utility.yul\":4276:4277   */\n              dup2\n                /* \"#utility.yul\":4271:4274   */\n              dup5\n                /* \"#utility.yul\":4267:4278   */\n              add\n                /* \"#utility.yul\":4260:4299   */\n              mstore\n                /* \"#utility.yul\":4232:4234   */\n              0x20\n                /* \"#utility.yul\":4229:4230   */\n              dup2\n                /* \"#utility.yul\":4225:4235   */\n              add\n                /* \"#utility.yul\":4220:4235   */\n              swap1\n              pop\n                /* \"#utility.yul\":4196:4309   */\n              jump(tag_92)\n            tag_94:\n                /* \"#utility.yul\":4327:4333   */\n              dup4\n                /* \"#utility.yul\":4324:4325   */\n              dup2\n                /* \"#utility.yul\":4321:4334   */\n              gt\n                /* \"#utility.yul\":4318:4419   */\n              iszero\n              tag_95\n              jumpi\n                /* \"#utility.yul\":4407:4408   */\n              0x00\n                /* \"#utility.yul\":4398:4404   */\n              dup5\n                /* \"#utility.yul\":4393:4396   */\n              dup5\n                /* \"#utility.yul\":4389:4405   */\n              add\n                /* \"#utility.yul\":4382:4409   */\n              mstore\n                /* \"#utility.yul\":4318:4419   */\n            tag_95:\n                /* \"#utility.yul\":4167:4425   */\n              pop\n                /* \"#utility.yul\":4118:4425   */\n              pop\n              pop\n              pop\n              jump\t// out\n                /* \"#utility.yul\":4431:4751   */\n            tag_22:\n                /* \"#utility.yul\":4475:4481   */\n              0x00\n                /* \"#utility.yul\":4512:4513   */\n              0x02\n                /* \"#utility.yul\":4506:4510   */\n              dup3\n                /* \"#utility.yul\":4502:4514   */\n              div\n                /* \"#utility.yul\":4492:4514   */\n              swap1\n              pop\n                /* \"#utility.yul\":4559:4560   */\n              0x01\n                /* \"#utility.yul\":4553:4557   */\n              dup3\n                /* \"#utility.yul\":4549:4561   */\n              and\n                /* \"#utility.yul\":4580:4598   */\n              dup1\n                /* \"#utility.yul\":4570:4651   */\n              tag_97\n              jumpi\n                /* \"#utility.yul\":4636:4640   */\n              0x7f\n                /* \"#utility.yul\":4628:4634   */\n              dup3\n                /* \"#utility.yul\":4624:4641   */\n              and\n                /* \"#utility.yul\":4614:4641   */\n              swap2\n              pop\n                /* \"#utility.yul\":4570:4651   */\n            tag_97:\n                /* \"#utility.yul\":4698:4700   */\n              0x20\n                /* \"#utility.yul\":4690:4696   */\n              dup3\n                /* \"#utility.yul\":4687:4701   */\n              lt\n                /* \"#utility.yul\":4667:4685   */\n              dup2\n                /* \"#utility.yul\":4664:4702   */\n              eq\n                /* \"#utility.yul\":4661:4745   */\n              iszero\n              tag_98\n              jumpi\n                /* \"#utility.yul\":4717:4735   */\n              tag_99\n              tag_100\n              jump\t// in\n            tag_99:\n                /* \"#utility.yul\":4661:4745   */\n            tag_98:\n                /* \"#utility.yul\":4482:4751   */\n              pop\n                /* \"#utility.yul\":4431:4751   */\n              swap2\n              swap1\n              pop\n              jump\t// out\n                /* \"#utility.yul\":4757:4937   */\n            tag_100:\n                /* \"#utility.yul\":4805:4882   */\n              0x4e487b7100000000000000000000000000000000000000000000000000000000\n                /* \"#utility.yul\":4802:4803   */\n              0x00\n                /* \"#utility.yul\":4795:4883   */\n              mstore\n                /* \"#utility.yul\":4902:4906   */\n              0x22\n                /* \"#utility.yul\":4899:4900   */\n              0x04\n                /* \"#utility.yul\":4892:4907   */\n              mstore\n                /* \"#utility.yul\":4926:4930   */\n              0x24\n                /* \"#utility.yul\":4923:4924   */\n              0x00\n                /* \"#utility.yul\":4916:4931   */\n              revert\n                /* \"#utility.yul\":5066:5183   */\n            tag_43:\n                /* \"#utility.yul\":5175:5176   */\n              0x00\n                /* \"#utility.yul\":5172:5173   */\n              dup1\n                /* \"#utility.yul\":5165:5177   */\n              revert\n                /* \"#utility.yul\":5189:5291   */\n            tag_64:\n                /* \"#utility.yul\":5230:5236   */\n              0x00\n                /* \"#utility.yul\":5281:5283   */\n              0x1f\n                /* \"#utility.yul\":5277:5284   */\n              not\n                /* \"#utility.yul\":5272:5274   */\n              0x1f\n                /* \"#utility.yul\":5265:5270   */\n              dup4\n                /* \"#utility.yul\":5261:5275   */\n              add\n                /* \"#utility.yul\":5257:5285   */\n              and\n                /* \"#utility.yul\":5247:5285   */\n              swap1\n              pop\n                /* \"#utility.yul\":5189:5291   */\n              swap2\n              swap1\n              pop\n              jump\t// out\n                /* \"#utility.yul\":5297:5419   */\n            tag_35:\n                /* \"#utility.yul\":5370:5394   */\n              tag_107\n                /* \"#utility.yul\":5388:5393   */\n              dup2\n                /* \"#utility.yul\":5370:5394   */\n              tag_54\n              jump\t// in\n            tag_107:\n                /* \"#utility.yul\":5363:5368   */\n              dup2\n                /* \"#utility.yul\":5360:5395   */\n              eq\n                /* \"#utility.yul\":5350:5413   */\n              tag_108\n              jumpi\n                /* \"#utility.yul\":5409:5410   */\n              0x00\n                /* \"#utility.yul\":5406:5407   */\n              dup1\n                /* \"#utility.yul\":5399:5411   */\n              revert\n                /* \"#utility.yul\":5350:5413   */\n            tag_108:\n                /* \"#utility.yul\":5297:5419   */\n              pop\n              jump\t// out\n                /* \"#utility.yul\":5425:5547   */\n            tag_39:\n                /* \"#utility.yul\":5498:5522   */\n              tag_110\n                /* \"#utility.yul\":5516:5521   */\n              dup2\n                /* \"#utility.yul\":5498:5522   */\n              tag_73\n              jump\t// in\n            tag_110:\n                /* \"#utility.yul\":5491:5496   */\n              dup2\n                /* \"#utility.yul\":5488:5523   */\n              eq\n                /* \"#utility.yul\":5478:5541   */\n              tag_111\n              jumpi\n                /* \"#utility.yul\":5537:5538   */\n              0x00\n                /* \"#utility.yul\":5534:5535   */\n              dup1\n                /* \"#utility.yul\":5527:5539   */\n              revert\n                /* \"#utility.yul\":5478:5541   */\n            tag_111:\n                /* \"#utility.yul\":5425:5547   */\n              pop\n              jump\t// out\n\n            auxdata: 0xa26469706673582212208fbaf1c209f367c27afc91917fdf5cdb3be9d5e4cf32bc7f3a4f12f5cbf8955464736f6c63430008070033\n        }\n    }\n\n    auxdata: 0xa26469706673582212201625adabe06f45954fd829dfa46f1aafb97deb905726027d6275c51cf162ef8364736f6c63430008070033\n}\n",
				"bytecode": {
					"linkReferences": {},
					"object": "608060405234801561001057600080fd5b50336000806101000a81548173ffffffffffffffffffffffffffffffffffffffff021916908373ffffffffffffffffffffffffffffffffffffffff16021790555061105f806100606000396000f3fe60806040523480156200001157600080fd5b50600436106200003a5760003560e01c80639221aa1a146200003f578063fbcc6cb5146200005f575b600080fd5b6200005d6004803603810190620000579190620002b6565b62000095565b005b6200007d6004803603810190620000779190620002e8565b620000b7565b6040516200008c9190620003d8565b60405180910390f35b6001600082815260200190815260200160002060009054906101000a90505050565b60008060009054906101000a900473ffffffffffffffffffffffffffffffffffffffff1673ffffffffffffffffffffffffffffffffffffffff163373ffffffffffffffffffffffffffffffffffffffff16146200014b576040517f08c379a00000000000000000000000000000000000000000000000000000000081526004016200014290620003f5565b60405180910390fd5b82826040516200015b9062000213565b6200016892919062000417565b604051809103906000f08015801562000185573d6000803e3d6000fd5b506001600085815260200190815260200160002060006101000a81548173ffffffffffffffffffffffffffffffffffffffff021916908373ffffffffffffffffffffffffffffffffffffffff1602179055506001600084815260200190815260200160002060009054906101000a900473ffffffffffffffffffffffffffffffffffffffff16905092915050565b6109eb806200063f83390190565b600062000238620002328462000474565b6200044b565b905082815260208101848484011115620002575762000256620005db565b5b620002648482856200052c565b509392505050565b600082601f830112620002845762000283620005d6565b5b81356200029684826020860162000221565b91505092915050565b600081359050620002b08162000624565b92915050565b600060208284031215620002cf57620002ce620005e5565b5b6000620002df848285016200029f565b91505092915050565b60008060408385031215620003025762000301620005e5565b5b600062000312858286016200029f565b925050602083013567ffffffffffffffff811115620003365762000335620005e0565b5b62000344858286016200026c565b9150509250929050565b6200035981620004f0565b82525050565b60006200036c82620004aa565b620003788185620004b5565b93506200038a8185602086016200053b565b6200039581620005ea565b840191505092915050565b6000620003af601583620004b5565b9150620003bc82620005fb565b602082019050919050565b620003d281620004e6565b82525050565b6000602082019050620003ef60008301846200034e565b92915050565b600060208201905081810360008301526200041081620003a0565b9050919050565b60006040820190506200042e6000830185620003c7565b81810360208301526200044281846200035f565b90509392505050565b6000620004576200046a565b905062000465828262000571565b919050565b6000604051905090565b600067ffffffffffffffff821115620004925762000491620005a7565b5b6200049d82620005ea565b9050602081019050919050565b600081519050919050565b600082825260208201905092915050565b600073ffffffffffffffffffffffffffffffffffffffff82169050919050565b6000819050919050565b6000620004fd8262000504565b9050919050565b6000620005118262000518565b9050919050565b60006200052582620004c6565b9050919050565b82818337600083830152505050565b60005b838110156200055b5780820151818401526020810190506200053e565b838111156200056b576000848401525b50505050565b6200057c82620005ea565b810181811067ffffffffffffffff821117156200059e576200059d620005a7565b5b80604052505050565b7f4e487b7100000000000000000000000000000000000000000000000000000000600052604160045260246000fd5b600080fd5b600080fd5b600080fd5b600080fd5b6000601f19601f8301169050919050565b7f63616c6c6572206973206e6f74204d616e616765720000000000000000000000600082015250565b6200062f81620004e6565b81146200063b57600080fd5b5056fe60806040523480156200001157600080fd5b50604051620009eb380380620009eb833981810160405281019062000037919062000207565b81600181905550806002908051906020019062000056929190620000c2565b506000339080600181540180825580915050600190039060005260206000200160009091909190916101000a81548173ffffffffffffffffffffffffffffffffffffffff021916908373ffffffffffffffffffffffffffffffffffffffff160217905550505062000415565b828054620000d0906200030c565b90600052602060002090601f016020900481019282620000f4576000855562000140565b82601f106200010f57805160ff191683800117855562000140565b8280016001018555821562000140579182015b828111156200013f57825182559160200191906001019062000122565b5b5090506200014f919062000153565b5090565b5b808211156200016e57600081600090555060010162000154565b5090565b600062000189620001838462000296565b6200026d565b905082815260208101848484011115620001a857620001a7620003db565b5b620001b5848285620002d6565b509392505050565b600082601f830112620001d557620001d4620003d6565b5b8151620001e784826020860162000172565b91505092915050565b6000815190506200020181620003fb565b92915050565b60008060408385031215620002215762000220620003e5565b5b60006200023185828601620001f0565b925050602083015167ffffffffffffffff811115620002555762000254620003e0565b5b6200026385828601620001bd565b9150509250929050565b6000620002796200028c565b905062000287828262000342565b919050565b6000604051905090565b600067ffffffffffffffff821115620002b457620002b3620003a7565b5b620002bf82620003ea565b9050602081019050919050565b6000819050919050565b60005b83811015620002f6578082015181840152602081019050620002d9565b8381111562000306576000848401525b50505050565b600060028204905060018216806200032557607f821691505b602082108114156200033c576200033b62000378565b5b50919050565b6200034d82620003ea565b810181811067ffffffffffffffff821117156200036f576200036e620003a7565b5b80604052505050565b7f4e487b7100000000000000000000000000000000000000000000000000000000600052602260045260246000fd5b7f4e487b7100000000000000000000000000000000000000000000000000000000600052604160045260246000fd5b600080fd5b600080fd5b600080fd5b600080fd5b6000601f19601f8301169050919050565b6200040681620002cc565b81146200041257600080fd5b50565b6105c680620004256000396000f3fe608060405234801561001057600080fd5b50600436106100415760003560e01c806326002bf114610046578063a434261f14610065578063bb4f860d14610081575b600080fd5b61004e6100b1565b60405161005c929190610430565b60405180910390f35b61007f600480360381019061007a919061031a565b61014e565b005b61009b600480360381019061009691906102ed565b6101f5565b6040516100a89190610415565b60405180910390f35b6000606060015460028080546100c6906104eb565b80601f01602080910402602001604051908101604052809291908181526020018280546100f2906104eb565b801561013f5780601f106101145761010080835404028352916020019161013f565b820191906000526020600020905b81548152906001019060200180831161012257829003601f168201915b50505050509050915091509091565b60405180606001604052808481526020018381526020018273ffffffffffffffffffffffffffffffffffffffff1681525060036000858152602001908152602001600020600082015181600001556020820151816001015560408201518160020160006101000a81548173ffffffffffffffffffffffffffffffffffffffff021916908373ffffffffffffffffffffffffffffffffffffffff160217905550905050505050565b6101fd61028c565b6003600083815260200190815260200160002060405180606001604052908160008201548152602001600182015481526020016002820160009054906101000a900473ffffffffffffffffffffffffffffffffffffffff1673ffffffffffffffffffffffffffffffffffffffff1673ffffffffffffffffffffffffffffffffffffffff16815250509050919050565b60405180606001604052806000815260200160008152602001600073ffffffffffffffffffffffffffffffffffffffff1681525090565b6000813590506102d281610562565b92915050565b6000813590506102e781610579565b92915050565b6000602082840312156103035761030261054c565b5b6000610311848285016102d8565b91505092915050565b6000806000606084860312156103335761033261054c565b5b6000610341868287016102d8565b9350506020610352868287016102d8565b9250506040610363868287016102c3565b9150509250925092565b6103768161047c565b82525050565b600061038782610460565b610391818561046b565b93506103a18185602086016104b8565b6103aa81610551565b840191505092915050565b6060820160008201516103cb60008501826103f7565b5060208201516103de60208501826103f7565b5060408201516103f1604085018261036d565b50505050565b610400816104ae565b82525050565b61040f816104ae565b82525050565b600060608201905061042a60008301846103b5565b92915050565b60006040820190506104456000830185610406565b8181036020830152610457818461037c565b90509392505050565b600081519050919050565b600082825260208201905092915050565b60006104878261048e565b9050919050565b600073ffffffffffffffffffffffffffffffffffffffff82169050919050565b6000819050919050565b60005b838110156104d65780820151818401526020810190506104bb565b838111156104e5576000848401525b50505050565b6000600282049050600182168061050357607f821691505b602082108114156105175761051661051d565b5b50919050565b7f4e487b7100000000000000000000000000000000000000000000000000000000600052602260045260246000fd5b600080fd5b6000601f19601f8301169050919050565b61056b8161047c565b811461057657600080fd5b50565b610582816104ae565b811461058d57600080fd5b5056fea26469706673582212208fbaf1c209f367c27afc91917fdf5cdb3be9d5e4cf32bc7f3a4f12f5cbf8955464736f6c63430008070033a26469706673582212201625adabe06f45954fd829dfa46f1aafb97deb905726027d6275c51cf162ef8364736f6c63430008070033",
					"opcodes": "PUSH1 0x80 PUSH1 0x40 MSTORE CALLVALUE DUP1 ISZERO PUSH2 0x10 JUMPI PUSH1 0x0 DUP1 REVERT JUMPDEST POP CALLER PUSH1 0x0 DUP1 PUSH2 0x100 EXP DUP2 SLOAD DUP2 PUSH20 0xFFFFFFFFFFFFFFFFFFFFFFFFFFFFFFFFFFFFFFFF MUL NOT AND SWAP1 DUP4 PUSH20 0xFFFFFFFFFFFFFFFFFFFFFFFFFFFFFFFFFFFFFFFF AND MUL OR SWAP1 SSTORE POP PUSH2 0x105F DUP1 PUSH2 0x60 PUSH1 0x0 CODECOPY PUSH1 0x0 RETURN INVALID PUSH1 0x80 PUSH1 0x40 MSTORE CALLVALUE DUP1 ISZERO PUSH3 0x11 JUMPI PUSH1 0x0 DUP1 REVERT JUMPDEST POP PUSH1 0x4 CALLDATASIZE LT PUSH3 0x3A JUMPI PUSH1 0x0 CALLDATALOAD PUSH1 0xE0 SHR DUP1 PUSH4 0x9221AA1A EQ PUSH3 0x3F JUMPI DUP1 PUSH4 0xFBCC6CB5 EQ PUSH3 0x5F JUMPI JUMPDEST PUSH1 0x0 DUP1 REVERT JUMPDEST PUSH3 0x5D PUSH1 0x4 DUP1 CALLDATASIZE SUB DUP2 ADD SWAP1 PUSH3 0x57 SWAP2 SWAP1 PUSH3 0x2B6 JUMP JUMPDEST PUSH3 0x95 JUMP JUMPDEST STOP JUMPDEST PUSH3 0x7D PUSH1 0x4 DUP1 CALLDATASIZE SUB DUP2 ADD SWAP1 PUSH3 0x77 SWAP2 SWAP1 PUSH3 0x2E8 JUMP JUMPDEST PUSH3 0xB7 JUMP JUMPDEST PUSH1 0x40 MLOAD PUSH3 0x8C SWAP2 SWAP1 PUSH3 0x3D8 JUMP JUMPDEST PUSH1 0x40 MLOAD DUP1 SWAP2 SUB SWAP1 RETURN JUMPDEST PUSH1 0x1 PUSH1 0x0 DUP3 DUP2 MSTORE PUSH1 0x20 ADD SWAP1 DUP2 MSTORE PUSH1 0x20 ADD PUSH1 0x0 KECCAK256 PUSH1 0x0 SWAP1 SLOAD SWAP1 PUSH2 0x100 EXP SWAP1 POP POP POP JUMP JUMPDEST PUSH1 0x0 DUP1 PUSH1 0x0 SWAP1 SLOAD SWAP1 PUSH2 0x100 EXP SWAP1 DIV PUSH20 0xFFFFFFFFFFFFFFFFFFFFFFFFFFFFFFFFFFFFFFFF AND PUSH20 0xFFFFFFFFFFFFFFFFFFFFFFFFFFFFFFFFFFFFFFFF AND CALLER PUSH20 0xFFFFFFFFFFFFFFFFFFFFFFFFFFFFFFFFFFFFFFFF AND EQ PUSH3 0x14B JUMPI PUSH1 0x40 MLOAD PUSH32 0x8C379A000000000000000000000000000000000000000000000000000000000 DUP2 MSTORE PUSH1 0x4 ADD PUSH3 0x142 SWAP1 PUSH3 0x3F5 JUMP JUMPDEST PUSH1 0x40 MLOAD DUP1 SWAP2 SUB SWAP1 REVERT JUMPDEST DUP3 DUP3 PUSH1 0x40 MLOAD PUSH3 0x15B SWAP1 PUSH3 0x213 JUMP JUMPDEST PUSH3 0x168 SWAP3 SWAP2 SWAP1 PUSH3 0x417 JUMP JUMPDEST PUSH1 0x40 MLOAD DUP1 SWAP2 SUB SWAP1 PUSH1 0x0 CREATE DUP1 ISZERO DUP1 ISZERO PUSH3 0x185 JUMPI RETURNDATASIZE PUSH1 0x0 DUP1 RETURNDATACOPY RETURNDATASIZE PUSH1 0x0 REVERT JUMPDEST POP PUSH1 0x1 PUSH1 0x0 DUP6 DUP2 MSTORE PUSH1 0x20 ADD SWAP1 DUP2 MSTORE PUSH1 0x20 ADD PUSH1 0x0 KECCAK256 PUSH1 0x0 PUSH2 0x100 EXP DUP2 SLOAD DUP2 PUSH20 0xFFFFFFFFFFFFFFFFFFFFFFFFFFFFFFFFFFFFFFFF MUL NOT AND SWAP1 DUP4 PUSH20 0xFFFFFFFFFFFFFFFFFFFFFFFFFFFFFFFFFFFFFFFF AND MUL OR SWAP1 SSTORE POP PUSH1 0x1 PUSH1 0x0 DUP5 DUP2 MSTORE PUSH1 0x20 ADD SWAP1 DUP2 MSTORE PUSH1 0x20 ADD PUSH1 0x0 KECCAK256 PUSH1 0x0 SWAP1 SLOAD SWAP1 PUSH2 0x100 EXP SWAP1 DIV PUSH20 0xFFFFFFFFFFFFFFFFFFFFFFFFFFFFFFFFFFFFFFFF AND SWAP1 POP SWAP3 SWAP2 POP POP JUMP JUMPDEST PUSH2 0x9EB DUP1 PUSH3 0x63F DUP4 CODECOPY ADD SWAP1 JUMP JUMPDEST PUSH1 0x0 PUSH3 0x238 PUSH3 0x232 DUP5 PUSH3 0x474 JUMP JUMPDEST PUSH3 0x44B JUMP JUMPDEST SWAP1 POP DUP3 DUP2 MSTORE PUSH1 0x20 DUP2 ADD DUP5 DUP5 DUP5 ADD GT ISZERO PUSH3 0x257 JUMPI PUSH3 0x256 PUSH3 0x5DB JUMP JUMPDEST JUMPDEST PUSH3 0x264 DUP5 DUP3 DUP6 PUSH3 0x52C JUMP JUMPDEST POP SWAP4 SWAP3 POP POP POP JUMP JUMPDEST PUSH1 0x0 DUP3 PUSH1 0x1F DUP4 ADD SLT PUSH3 0x284 JUMPI PUSH3 0x283 PUSH3 0x5D6 JUMP JUMPDEST JUMPDEST DUP2 CALLDATALOAD PUSH3 0x296 DUP5 DUP3 PUSH1 0x20 DUP7 ADD PUSH3 0x221 JUMP JUMPDEST SWAP2 POP POP SWAP3 SWAP2 POP POP JUMP JUMPDEST PUSH1 0x0 DUP2 CALLDATALOAD SWAP1 POP PUSH3 0x2B0 DUP2 PUSH3 0x624 JUMP JUMPDEST SWAP3 SWAP2 POP POP JUMP JUMPDEST PUSH1 0x0 PUSH1 0x20 DUP3 DUP5 SUB SLT ISZERO PUSH3 0x2CF JUMPI PUSH3 0x2CE PUSH3 0x5E5 JUMP JUMPDEST JUMPDEST PUSH1 0x0 PUSH3 0x2DF DUP5 DUP3 DUP6 ADD PUSH3 0x29F JUMP JUMPDEST SWAP2 POP POP SWAP3 SWAP2 POP POP JUMP JUMPDEST PUSH1 0x0 DUP1 PUSH1 0x40 DUP4 DUP6 SUB SLT ISZERO PUSH3 0x302 JUMPI PUSH3 0x301 PUSH3 0x5E5 JUMP JUMPDEST JUMPDEST PUSH1 0x0 PUSH3 0x312 DUP6 DUP3 DUP7 ADD PUSH3 0x29F JUMP JUMPDEST SWAP3 POP POP PUSH1 0x20 DUP4 ADD CALLDATALOAD PUSH8 0xFFFFFFFFFFFFFFFF DUP2 GT ISZERO PUSH3 0x336 JUMPI PUSH3 0x335 PUSH3 0x5E0 JUMP JUMPDEST JUMPDEST PUSH3 0x344 DUP6 DUP3 DUP7 ADD PUSH3 0x26C JUMP JUMPDEST SWAP2 POP POP SWAP3 POP SWAP3 SWAP1 POP JUMP JUMPDEST PUSH3 0x359 DUP2 PUSH3 0x4F0 JUMP JUMPDEST DUP3 MSTORE POP POP JUMP JUMPDEST PUSH1 0x0 PUSH3 0x36C DUP3 PUSH3 0x4AA JUMP JUMPDEST PUSH3 0x378 DUP2 DUP6 PUSH3 0x4B5 JUMP JUMPDEST SWAP4 POP PUSH3 0x38A DUP2 DUP6 PUSH1 0x20 DUP7 ADD PUSH3 0x53B JUMP JUMPDEST PUSH3 0x395 DUP2 PUSH3 0x5EA JUMP JUMPDEST DUP5 ADD SWAP2 POP POP SWAP3 SWAP2 POP POP JUMP JUMPDEST PUSH1 0x0 PUSH3 0x3AF PUSH1 0x15 DUP4 PUSH3 0x4B5 JUMP JUMPDEST SWAP2 POP PUSH3 0x3BC DUP3 PUSH3 0x5FB JUMP JUMPDEST PUSH1 0x20 DUP3 ADD SWAP1 POP SWAP2 SWAP1 POP JUMP JUMPDEST PUSH3 0x3D2 DUP2 PUSH3 0x4E6 JUMP JUMPDEST DUP3 MSTORE POP POP JUMP JUMPDEST PUSH1 0x0 PUSH1 0x20 DUP3 ADD SWAP1 POP PUSH3 0x3EF PUSH1 0x0 DUP4 ADD DUP5 PUSH3 0x34E JUMP JUMPDEST SWAP3 SWAP2 POP POP JUMP JUMPDEST PUSH1 0x0 PUSH1 0x20 DUP3 ADD SWAP1 POP DUP2 DUP2 SUB PUSH1 0x0 DUP4 ADD MSTORE PUSH3 0x410 DUP2 PUSH3 0x3A0 JUMP JUMPDEST SWAP1 POP SWAP2 SWAP1 POP JUMP JUMPDEST PUSH1 0x0 PUSH1 0x40 DUP3 ADD SWAP1 POP PUSH3 0x42E PUSH1 0x0 DUP4 ADD DUP6 PUSH3 0x3C7 JUMP JUMPDEST DUP2 DUP2 SUB PUSH1 0x20 DUP4 ADD MSTORE PUSH3 0x442 DUP2 DUP5 PUSH3 0x35F JUMP JUMPDEST SWAP1 POP SWAP4 SWAP3 POP POP POP JUMP JUMPDEST PUSH1 0x0 PUSH3 0x457 PUSH3 0x46A JUMP JUMPDEST SWAP1 POP PUSH3 0x465 DUP3 DUP3 PUSH3 0x571 JUMP JUMPDEST SWAP2 SWAP1 POP JUMP JUMPDEST PUSH1 0x0 PUSH1 0x40 MLOAD SWAP1 POP SWAP1 JUMP JUMPDEST PUSH1 0x0 PUSH8 0xFFFFFFFFFFFFFFFF DUP3 GT ISZERO PUSH3 0x492 JUMPI PUSH3 0x491 PUSH3 0x5A7 JUMP JUMPDEST JUMPDEST PUSH3 0x49D DUP3 PUSH3 0x5EA JUMP JUMPDEST SWAP1 POP PUSH1 0x20 DUP2 ADD SWAP1 POP SWAP2 SWAP1 POP JUMP JUMPDEST PUSH1 0x0 DUP2 MLOAD SWAP1 POP SWAP2 SWAP1 POP JUMP JUMPDEST PUSH1 0x0 DUP3 DUP3 MSTORE PUSH1 0x20 DUP3 ADD SWAP1 POP SWAP3 SWAP2 POP POP JUMP JUMPDEST PUSH1 0x0 PUSH20 0xFFFFFFFFFFFFFFFFFFFFFFFFFFFFFFFFFFFFFFFF DUP3 AND SWAP1 POP SWAP2 SWAP1 POP JUMP JUMPDEST PUSH1 0x0 DUP2 SWAP1 POP SWAP2 SWAP1 POP JUMP JUMPDEST PUSH1 0x0 PUSH3 0x4FD DUP3 PUSH3 0x504 JUMP JUMPDEST SWAP1 POP SWAP2 SWAP1 POP JUMP JUMPDEST PUSH1 0x0 PUSH3 0x511 DUP3 PUSH3 0x518 JUMP JUMPDEST SWAP1 POP SWAP2 SWAP1 POP JUMP JUMPDEST PUSH1 0x0 PUSH3 0x525 DUP3 PUSH3 0x4C6 JUMP JUMPDEST SWAP1 POP SWAP2 SWAP1 POP JUMP JUMPDEST DUP3 DUP2 DUP4 CALLDATACOPY PUSH1 0x0 DUP4 DUP4 ADD MSTORE POP POP POP JUMP JUMPDEST PUSH1 0x0 JUMPDEST DUP4 DUP2 LT ISZERO PUSH3 0x55B JUMPI DUP1 DUP3 ADD MLOAD DUP2 DUP5 ADD MSTORE PUSH1 0x20 DUP2 ADD SWAP1 POP PUSH3 0x53E JUMP JUMPDEST DUP4 DUP2 GT ISZERO PUSH3 0x56B JUMPI PUSH1 0x0 DUP5 DUP5 ADD MSTORE JUMPDEST POP POP POP POP JUMP JUMPDEST PUSH3 0x57C DUP3 PUSH3 0x5EA JUMP JUMPDEST DUP2 ADD DUP2 DUP2 LT PUSH8 0xFFFFFFFFFFFFFFFF DUP3 GT OR ISZERO PUSH3 0x59E JUMPI PUSH3 0x59D PUSH3 0x5A7 JUMP JUMPDEST JUMPDEST DUP1 PUSH1 0x40 MSTORE POP POP POP JUMP JUMPDEST PUSH32 0x4E487B7100000000000000000000000000000000000000000000000000000000 PUSH1 0x0 MSTORE PUSH1 0x41 PUSH1 0x4 MSTORE PUSH1 0x24 PUSH1 0x0 REVERT JUMPDEST PUSH1 0x0 DUP1 REVERT JUMPDEST PUSH1 0x0 DUP1 REVERT JUMPDEST PUSH1 0x0 DUP1 REVERT JUMPDEST PUSH1 0x0 DUP1 REVERT JUMPDEST PUSH1 0x0 PUSH1 0x1F NOT PUSH1 0x1F DUP4 ADD AND SWAP1 POP SWAP2 SWAP1 POP JUMP JUMPDEST PUSH32 0x63616C6C6572206973206E6F74204D616E616765720000000000000000000000 PUSH1 0x0 DUP3 ADD MSTORE POP JUMP JUMPDEST PUSH3 0x62F DUP2 PUSH3 0x4E6 JUMP JUMPDEST DUP2 EQ PUSH3 0x63B JUMPI PUSH1 0x0 DUP1 REVERT JUMPDEST POP JUMP INVALID PUSH1 0x80 PUSH1 0x40 MSTORE CALLVALUE DUP1 ISZERO PUSH3 0x11 JUMPI PUSH1 0x0 DUP1 REVERT JUMPDEST POP PUSH1 0x40 MLOAD PUSH3 0x9EB CODESIZE SUB DUP1 PUSH3 0x9EB DUP4 CODECOPY DUP2 DUP2 ADD PUSH1 0x40 MSTORE DUP2 ADD SWAP1 PUSH3 0x37 SWAP2 SWAP1 PUSH3 0x207 JUMP JUMPDEST DUP2 PUSH1 0x1 DUP2 SWAP1 SSTORE POP DUP1 PUSH1 0x2 SWAP1 DUP1 MLOAD SWAP1 PUSH1 0x20 ADD SWAP1 PUSH3 0x56 SWAP3 SWAP2 SWAP1 PUSH3 0xC2 JUMP JUMPDEST POP PUSH1 0x0 CALLER SWAP1 DUP1 PUSH1 0x1 DUP2 SLOAD ADD DUP1 DUP3 SSTORE DUP1 SWAP2 POP POP PUSH1 0x1 SWAP1 SUB SWAP1 PUSH1 0x0 MSTORE PUSH1 0x20 PUSH1 0x0 KECCAK256 ADD PUSH1 0x0 SWAP1 SWAP2 SWAP1 SWAP2 SWAP1 SWAP2 PUSH2 0x100 EXP DUP2 SLOAD DUP2 PUSH20 0xFFFFFFFFFFFFFFFFFFFFFFFFFFFFFFFFFFFFFFFF MUL NOT AND SWAP1 DUP4 PUSH20 0xFFFFFFFFFFFFFFFFFFFFFFFFFFFFFFFFFFFFFFFF AND MUL OR SWAP1 SSTORE POP POP POP PUSH3 0x415 JUMP JUMPDEST DUP3 DUP1 SLOAD PUSH3 0xD0 SWAP1 PUSH3 0x30C JUMP JUMPDEST SWAP1 PUSH1 0x0 MSTORE PUSH1 0x20 PUSH1 0x0 KECCAK256 SWAP1 PUSH1 0x1F ADD PUSH1 0x20 SWAP1 DIV DUP2 ADD SWAP3 DUP3 PUSH3 0xF4 JUMPI PUSH1 0x0 DUP6 SSTORE PUSH3 0x140 JUMP JUMPDEST DUP3 PUSH1 0x1F LT PUSH3 0x10F JUMPI DUP1 MLOAD PUSH1 0xFF NOT AND DUP4 DUP1 ADD OR DUP6 SSTORE PUSH3 0x140 JUMP JUMPDEST DUP3 DUP1 ADD PUSH1 0x1 ADD DUP6 SSTORE DUP3 ISZERO PUSH3 0x140 JUMPI SWAP2 DUP3 ADD JUMPDEST DUP3 DUP2 GT ISZERO PUSH3 0x13F JUMPI DUP3 MLOAD DUP3 SSTORE SWAP2 PUSH1 0x20 ADD SWAP2 SWAP1 PUSH1 0x1 ADD SWAP1 PUSH3 0x122 JUMP JUMPDEST JUMPDEST POP SWAP1 POP PUSH3 0x14F SWAP2 SWAP1 PUSH3 0x153 JUMP JUMPDEST POP SWAP1 JUMP JUMPDEST JUMPDEST DUP1 DUP3 GT ISZERO PUSH3 0x16E JUMPI PUSH1 0x0 DUP2 PUSH1 0x0 SWAP1 SSTORE POP PUSH1 0x1 ADD PUSH3 0x154 JUMP JUMPDEST POP SWAP1 JUMP JUMPDEST PUSH1 0x0 PUSH3 0x189 PUSH3 0x183 DUP5 PUSH3 0x296 JUMP JUMPDEST PUSH3 0x26D JUMP JUMPDEST SWAP1 POP DUP3 DUP2 MSTORE PUSH1 0x20 DUP2 ADD DUP5 DUP5 DUP5 ADD GT ISZERO PUSH3 0x1A8 JUMPI PUSH3 0x1A7 PUSH3 0x3DB JUMP JUMPDEST JUMPDEST PUSH3 0x1B5 DUP5 DUP3 DUP6 PUSH3 0x2D6 JUMP JUMPDEST POP SWAP4 SWAP3 POP POP POP JUMP JUMPDEST PUSH1 0x0 DUP3 PUSH1 0x1F DUP4 ADD SLT PUSH3 0x1D5 JUMPI PUSH3 0x1D4 PUSH3 0x3D6 JUMP JUMPDEST JUMPDEST DUP2 MLOAD PUSH3 0x1E7 DUP5 DUP3 PUSH1 0x20 DUP7 ADD PUSH3 0x172 JUMP JUMPDEST SWAP2 POP POP SWAP3 SWAP2 POP POP JUMP JUMPDEST PUSH1 0x0 DUP2 MLOAD SWAP1 POP PUSH3 0x201 DUP2 PUSH3 0x3FB JUMP JUMPDEST SWAP3 SWAP2 POP POP JUMP JUMPDEST PUSH1 0x0 DUP1 PUSH1 0x40 DUP4 DUP6 SUB SLT ISZERO PUSH3 0x221 JUMPI PUSH3 0x220 PUSH3 0x3E5 JUMP JUMPDEST JUMPDEST PUSH1 0x0 PUSH3 0x231 DUP6 DUP3 DUP7 ADD PUSH3 0x1F0 JUMP JUMPDEST SWAP3 POP POP PUSH1 0x20 DUP4 ADD MLOAD PUSH8 0xFFFFFFFFFFFFFFFF DUP2 GT ISZERO PUSH3 0x255 JUMPI PUSH3 0x254 PUSH3 0x3E0 JUMP JUMPDEST JUMPDEST PUSH3 0x263 DUP6 DUP3 DUP7 ADD PUSH3 0x1BD JUMP JUMPDEST SWAP2 POP POP SWAP3 POP SWAP3 SWAP1 POP JUMP JUMPDEST PUSH1 0x0 PUSH3 0x279 PUSH3 0x28C JUMP JUMPDEST SWAP1 POP PUSH3 0x287 DUP3 DUP3 PUSH3 0x342 JUMP JUMPDEST SWAP2 SWAP1 POP JUMP JUMPDEST PUSH1 0x0 PUSH1 0x40 MLOAD SWAP1 POP SWAP1 JUMP JUMPDEST PUSH1 0x0 PUSH8 0xFFFFFFFFFFFFFFFF DUP3 GT ISZERO PUSH3 0x2B4 JUMPI PUSH3 0x2B3 PUSH3 0x3A7 JUMP JUMPDEST JUMPDEST PUSH3 0x2BF DUP3 PUSH3 0x3EA JUMP JUMPDEST SWAP1 POP PUSH1 0x20 DUP2 ADD SWAP1 POP SWAP2 SWAP1 POP JUMP JUMPDEST PUSH1 0x0 DUP2 SWAP1 POP SWAP2 SWAP1 POP JUMP JUMPDEST PUSH1 0x0 JUMPDEST DUP4 DUP2 LT ISZERO PUSH3 0x2F6 JUMPI DUP1 DUP3 ADD MLOAD DUP2 DUP5 ADD MSTORE PUSH1 0x20 DUP2 ADD SWAP1 POP PUSH3 0x2D9 JUMP JUMPDEST DUP4 DUP2 GT ISZERO PUSH3 0x306 JUMPI PUSH1 0x0 DUP5 DUP5 ADD MSTORE JUMPDEST POP POP POP POP JUMP JUMPDEST PUSH1 0x0 PUSH1 0x2 DUP3 DIV SWAP1 POP PUSH1 0x1 DUP3 AND DUP1 PUSH3 0x325 JUMPI PUSH1 0x7F DUP3 AND SWAP2 POP JUMPDEST PUSH1 0x20 DUP3 LT DUP2 EQ ISZERO PUSH3 0x33C JUMPI PUSH3 0x33B PUSH3 0x378 JUMP JUMPDEST JUMPDEST POP SWAP2 SWAP1 POP JUMP JUMPDEST PUSH3 0x34D DUP3 PUSH3 0x3EA JUMP JUMPDEST DUP2 ADD DUP2 DUP2 LT PUSH8 0xFFFFFFFFFFFFFFFF DUP3 GT OR ISZERO PUSH3 0x36F JUMPI PUSH3 0x36E PUSH3 0x3A7 JUMP JUMPDEST JUMPDEST DUP1 PUSH1 0x40 MSTORE POP POP POP JUMP JUMPDEST PUSH32 0x4E487B7100000000000000000000000000000000000000000000000000000000 PUSH1 0x0 MSTORE PUSH1 0x22 PUSH1 0x4 MSTORE PUSH1 0x24 PUSH1 0x0 REVERT JUMPDEST PUSH32 0x4E487B7100000000000000000000000000000000000000000000000000000000 PUSH1 0x0 MSTORE PUSH1 0x41 PUSH1 0x4 MSTORE PUSH1 0x24 PUSH1 0x0 REVERT JUMPDEST PUSH1 0x0 DUP1 REVERT JUMPDEST PUSH1 0x0 DUP1 REVERT JUMPDEST PUSH1 0x0 DUP1 REVERT JUMPDEST PUSH1 0x0 DUP1 REVERT JUMPDEST PUSH1 0x0 PUSH1 0x1F NOT PUSH1 0x1F DUP4 ADD AND SWAP1 POP SWAP2 SWAP1 POP JUMP JUMPDEST PUSH3 0x406 DUP2 PUSH3 0x2CC JUMP JUMPDEST DUP2 EQ PUSH3 0x412 JUMPI PUSH1 0x0 DUP1 REVERT JUMPDEST POP JUMP JUMPDEST PUSH2 0x5C6 DUP1 PUSH3 0x425 PUSH1 0x0 CODECOPY PUSH1 0x0 RETURN INVALID PUSH1 0x80 PUSH1 0x40 MSTORE CALLVALUE DUP1 ISZERO PUSH2 0x10 JUMPI PUSH1 0x0 DUP1 REVERT JUMPDEST POP PUSH1 0x4 CALLDATASIZE LT PUSH2 0x41 JUMPI PUSH1 0x0 CALLDATALOAD PUSH1 0xE0 SHR DUP1 PUSH4 0x26002BF1 EQ PUSH2 0x46 JUMPI DUP1 PUSH4 0xA434261F EQ PUSH2 0x65 JUMPI DUP1 PUSH4 0xBB4F860D EQ PUSH2 0x81 JUMPI JUMPDEST PUSH1 0x0 DUP1 REVERT JUMPDEST PUSH2 0x4E PUSH2 0xB1 JUMP JUMPDEST PUSH1 0x40 MLOAD PUSH2 0x5C SWAP3 SWAP2 SWAP1 PUSH2 0x430 JUMP JUMPDEST PUSH1 0x40 MLOAD DUP1 SWAP2 SUB SWAP1 RETURN JUMPDEST PUSH2 0x7F PUSH1 0x4 DUP1 CALLDATASIZE SUB DUP2 ADD SWAP1 PUSH2 0x7A SWAP2 SWAP1 PUSH2 0x31A JUMP JUMPDEST PUSH2 0x14E JUMP JUMPDEST STOP JUMPDEST PUSH2 0x9B PUSH1 0x4 DUP1 CALLDATASIZE SUB DUP2 ADD SWAP1 PUSH2 0x96 SWAP2 SWAP1 PUSH2 0x2ED JUMP JUMPDEST PUSH2 0x1F5 JUMP JUMPDEST PUSH1 0x40 MLOAD PUSH2 0xA8 SWAP2 SWAP1 PUSH2 0x415 JUMP JUMPDEST PUSH1 0x40 MLOAD DUP1 SWAP2 SUB SWAP1 RETURN JUMPDEST PUSH1 0x0 PUSH1 0x60 PUSH1 0x1 SLOAD PUSH1 0x2 DUP1 DUP1 SLOAD PUSH2 0xC6 SWAP1 PUSH2 0x4EB JUMP JUMPDEST DUP1 PUSH1 0x1F ADD PUSH1 0x20 DUP1 SWAP2 DIV MUL PUSH1 0x20 ADD PUSH1 0x40 MLOAD SWAP1 DUP2 ADD PUSH1 0x40 MSTORE DUP1 SWAP3 SWAP2 SWAP1 DUP2 DUP2 MSTORE PUSH1 0x20 ADD DUP3 DUP1 SLOAD PUSH2 0xF2 SWAP1 PUSH2 0x4EB JUMP JUMPDEST DUP1 ISZERO PUSH2 0x13F JUMPI DUP1 PUSH1 0x1F LT PUSH2 0x114 JUMPI PUSH2 0x100 DUP1 DUP4 SLOAD DIV MUL DUP4 MSTORE SWAP2 PUSH1 0x20 ADD SWAP2 PUSH2 0x13F JUMP JUMPDEST DUP3 ADD SWAP2 SWAP1 PUSH1 0x0 MSTORE PUSH1 0x20 PUSH1 0x0 KECCAK256 SWAP1 JUMPDEST DUP2 SLOAD DUP2 MSTORE SWAP1 PUSH1 0x1 ADD SWAP1 PUSH1 0x20 ADD DUP1 DUP4 GT PUSH2 0x122 JUMPI DUP3 SWAP1 SUB PUSH1 0x1F AND DUP3 ADD SWAP2 JUMPDEST POP POP POP POP POP SWAP1 POP SWAP2 POP SWAP2 POP SWAP1 SWAP2 JUMP JUMPDEST PUSH1 0x40 MLOAD DUP1 PUSH1 0x60 ADD PUSH1 0x40 MSTORE DUP1 DUP5 DUP2 MSTORE PUSH1 0x20 ADD DUP4 DUP2 MSTORE PUSH1 0x20 ADD DUP3 PUSH20 0xFFFFFFFFFFFFFFFFFFFFFFFFFFFFFFFFFFFFFFFF AND DUP2 MSTORE POP PUSH1 0x3 PUSH1 0x0 DUP6 DUP2 MSTORE PUSH1 0x20 ADD SWAP1 DUP2 MSTORE PUSH1 0x20 ADD PUSH1 0x0 KECCAK256 PUSH1 0x0 DUP3 ADD MLOAD DUP2 PUSH1 0x0 ADD SSTORE PUSH1 0x20 DUP3 ADD MLOAD DUP2 PUSH1 0x1 ADD SSTORE PUSH1 0x40 DUP3 ADD MLOAD DUP2 PUSH1 0x2 ADD PUSH1 0x0 PUSH2 0x100 EXP DUP2 SLOAD DUP2 PUSH20 0xFFFFFFFFFFFFFFFFFFFFFFFFFFFFFFFFFFFFFFFF MUL NOT AND SWAP1 DUP4 PUSH20 0xFFFFFFFFFFFFFFFFFFFFFFFFFFFFFFFFFFFFFFFF AND MUL OR SWAP1 SSTORE POP SWAP1 POP POP POP POP POP JUMP JUMPDEST PUSH2 0x1FD PUSH2 0x28C JUMP JUMPDEST PUSH1 0x3 PUSH1 0x0 DUP4 DUP2 MSTORE PUSH1 0x20 ADD SWAP1 DUP2 MSTORE PUSH1 0x20 ADD PUSH1 0x0 KECCAK256 PUSH1 0x40 MLOAD DUP1 PUSH1 0x60 ADD PUSH1 0x40 MSTORE SWAP1 DUP2 PUSH1 0x0 DUP3 ADD SLOAD DUP2 MSTORE PUSH1 0x20 ADD PUSH1 0x1 DUP3 ADD SLOAD DUP2 MSTORE PUSH1 0x20 ADD PUSH1 0x2 DUP3 ADD PUSH1 0x0 SWAP1 SLOAD SWAP1 PUSH2 0x100 EXP SWAP1 DIV PUSH20 0xFFFFFFFFFFFFFFFFFFFFFFFFFFFFFFFFFFFFFFFF AND PUSH20 0xFFFFFFFFFFFFFFFFFFFFFFFFFFFFFFFFFFFFFFFF AND PUSH20 0xFFFFFFFFFFFFFFFFFFFFFFFFFFFFFFFFFFFFFFFF AND DUP2 MSTORE POP POP SWAP1 POP SWAP2 SWAP1 POP JUMP JUMPDEST PUSH1 0x40 MLOAD DUP1 PUSH1 0x60 ADD PUSH1 0x40 MSTORE DUP1 PUSH1 0x0 DUP2 MSTORE PUSH1 0x20 ADD PUSH1 0x0 DUP2 MSTORE PUSH1 0x20 ADD PUSH1 0x0 PUSH20 0xFFFFFFFFFFFFFFFFFFFFFFFFFFFFFFFFFFFFFFFF AND DUP2 MSTORE POP SWAP1 JUMP JUMPDEST PUSH1 0x0 DUP2 CALLDATALOAD SWAP1 POP PUSH2 0x2D2 DUP2 PUSH2 0x562 JUMP JUMPDEST SWAP3 SWAP2 POP POP JUMP JUMPDEST PUSH1 0x0 DUP2 CALLDATALOAD SWAP1 POP PUSH2 0x2E7 DUP2 PUSH2 0x579 JUMP JUMPDEST SWAP3 SWAP2 POP POP JUMP JUMPDEST PUSH1 0x0 PUSH1 0x20 DUP3 DUP5 SUB SLT ISZERO PUSH2 0x303 JUMPI PUSH2 0x302 PUSH2 0x54C JUMP JUMPDEST JUMPDEST PUSH1 0x0 PUSH2 0x311 DUP5 DUP3 DUP6 ADD PUSH2 0x2D8 JUMP JUMPDEST SWAP2 POP POP SWAP3 SWAP2 POP POP JUMP JUMPDEST PUSH1 0x0 DUP1 PUSH1 0x0 PUSH1 0x60 DUP5 DUP7 SUB SLT ISZERO PUSH2 0x333 JUMPI PUSH2 0x332 PUSH2 0x54C JUMP JUMPDEST JUMPDEST PUSH1 0x0 PUSH2 0x341 DUP7 DUP3 DUP8 ADD PUSH2 0x2D8 JUMP JUMPDEST SWAP4 POP POP PUSH1 0x20 PUSH2 0x352 DUP7 DUP3 DUP8 ADD PUSH2 0x2D8 JUMP JUMPDEST SWAP3 POP POP PUSH1 0x40 PUSH2 0x363 DUP7 DUP3 DUP8 ADD PUSH2 0x2C3 JUMP JUMPDEST SWAP2 POP POP SWAP3 POP SWAP3 POP SWAP3 JUMP JUMPDEST PUSH2 0x376 DUP2 PUSH2 0x47C JUMP JUMPDEST DUP3 MSTORE POP POP JUMP JUMPDEST PUSH1 0x0 PUSH2 0x387 DUP3 PUSH2 0x460 JUMP JUMPDEST PUSH2 0x391 DUP2 DUP6 PUSH2 0x46B JUMP JUMPDEST SWAP4 POP PUSH2 0x3A1 DUP2 DUP6 PUSH1 0x20 DUP7 ADD PUSH2 0x4B8 JUMP JUMPDEST PUSH2 0x3AA DUP2 PUSH2 0x551 JUMP JUMPDEST DUP5 ADD SWAP2 POP POP SWAP3 SWAP2 POP POP JUMP JUMPDEST PUSH1 0x60 DUP3 ADD PUSH1 0x0 DUP3 ADD MLOAD PUSH2 0x3CB PUSH1 0x0 DUP6 ADD DUP3 PUSH2 0x3F7 JUMP JUMPDEST POP PUSH1 0x20 DUP3 ADD MLOAD PUSH2 0x3DE PUSH1 0x20 DUP6 ADD DUP3 PUSH2 0x3F7 JUMP JUMPDEST POP PUSH1 0x40 DUP3 ADD MLOAD PUSH2 0x3F1 PUSH1 0x40 DUP6 ADD DUP3 PUSH2 0x36D JUMP JUMPDEST POP POP POP POP JUMP JUMPDEST PUSH2 0x400 DUP2 PUSH2 0x4AE JUMP JUMPDEST DUP3 MSTORE POP POP JUMP JUMPDEST PUSH2 0x40F DUP2 PUSH2 0x4AE JUMP JUMPDEST DUP3 MSTORE POP POP JUMP JUMPDEST PUSH1 0x0 PUSH1 0x60 DUP3 ADD SWAP1 POP PUSH2 0x42A PUSH1 0x0 DUP4 ADD DUP5 PUSH2 0x3B5 JUMP JUMPDEST SWAP3 SWAP2 POP POP JUMP JUMPDEST PUSH1 0x0 PUSH1 0x40 DUP3 ADD SWAP1 POP PUSH2 0x445 PUSH1 0x0 DUP4 ADD DUP6 PUSH2 0x406 JUMP JUMPDEST DUP2 DUP2 SUB PUSH1 0x20 DUP4 ADD MSTORE PUSH2 0x457 DUP2 DUP5 PUSH2 0x37C JUMP JUMPDEST SWAP1 POP SWAP4 SWAP3 POP POP POP JUMP JUMPDEST PUSH1 0x0 DUP2 MLOAD SWAP1 POP SWAP2 SWAP1 POP JUMP JUMPDEST PUSH1 0x0 DUP3 DUP3 MSTORE PUSH1 0x20 DUP3 ADD SWAP1 POP SWAP3 SWAP2 POP POP JUMP JUMPDEST PUSH1 0x0 PUSH2 0x487 DUP3 PUSH2 0x48E JUMP JUMPDEST SWAP1 POP SWAP2 SWAP1 POP JUMP JUMPDEST PUSH1 0x0 PUSH20 0xFFFFFFFFFFFFFFFFFFFFFFFFFFFFFFFFFFFFFFFF DUP3 AND SWAP1 POP SWAP2 SWAP1 POP JUMP JUMPDEST PUSH1 0x0 DUP2 SWAP1 POP SWAP2 SWAP1 POP JUMP JUMPDEST PUSH1 0x0 JUMPDEST DUP4 DUP2 LT ISZERO PUSH2 0x4D6 JUMPI DUP1 DUP3 ADD MLOAD DUP2 DUP5 ADD MSTORE PUSH1 0x20 DUP2 ADD SWAP1 POP PUSH2 0x4BB JUMP JUMPDEST DUP4 DUP2 GT ISZERO PUSH2 0x4E5 JUMPI PUSH1 0x0 DUP5 DUP5 ADD MSTORE JUMPDEST POP POP POP POP JUMP JUMPDEST PUSH1 0x0 PUSH1 0x2 DUP3 DIV SWAP1 POP PUSH1 0x1 DUP3 AND DUP1 PUSH2 0x503 JUMPI PUSH1 0x7F DUP3 AND SWAP2 POP JUMPDEST PUSH1 0x20 DUP3 LT DUP2 EQ ISZERO PUSH2 0x517 JUMPI PUSH2 0x516 PUSH2 0x51D JUMP JUMPDEST JUMPDEST POP SWAP2 SWAP1 POP JUMP JUMPDEST PUSH32 0x4E487B7100000000000000000000000000000000000000000000000000000000 PUSH1 0x0 MSTORE PUSH1 0x22 PUSH1 0x4 MSTORE PUSH1 0x24 PUSH1 0x0 REVERT JUMPDEST PUSH1 0x0 DUP1 REVERT JUMPDEST PUSH1 0x0 PUSH1 0x1F NOT PUSH1 0x1F DUP4 ADD AND SWAP1 POP SWAP2 SWAP1 POP JUMP JUMPDEST PUSH2 0x56B DUP2 PUSH2 0x47C JUMP JUMPDEST DUP2 EQ PUSH2 0x576 JUMPI PUSH1 0x0 DUP1 REVERT JUMPDEST POP JUMP JUMPDEST PUSH2 0x582 DUP2 PUSH2 0x4AE JUMP JUMPDEST DUP2 EQ PUSH2 0x58D JUMPI PUSH1 0x0 DUP1 REVERT JUMPDEST POP JUMP INVALID LOG2 PUSH5 0x6970667358 0x22 SLT KECCAK256 DUP16 0xBA CALL 0xC2 MULMOD RETURN PUSH8 0xC27AFC91917FDF5C 0xDB EXTCODESIZE 0xE9 0xD5 0xE4 0xCF ORIGIN 0xBC PUSH32 0x3A4F12F5CBF8955464736F6C63430008070033A26469706673582212201625AD 0xAB 0xE0 PUSH16 0x45954FD829DFA46F1AAFB97DEB905726 MUL PUSH30 0x6275C51CF162EF8364736F6C634300080700330000000000000000000000 "
				},
				"gasEstimates": {
					"creation": {
						"codeDepositCost": "838200",
						"executionCost": "25136",
						"totalCost": "863336"
					},
					"external": {
						"addBus(uint256,string)": "infinite",
						"getBusInformation(uint256)": "2594"
					}
				},
				"methodIdentifiers": {
					"addBus(uint256,string)": "fbcc6cb5",
					"getBusInformation(uint256)": "9221aa1a"
				}
			},
			"storageLayout": {
				"storage": [
					{
						"astId": 98,
						"contract": "contracts/main.sol:smartReservation",
						"label": "manager",
						"offset": 0,
						"slot": "0",
						"type": "t_address"
					},
					{
						"astId": 103,
						"contract": "contracts/main.sol:smartReservation",
						"label": "bus",
						"offset": 0,
						"slot": "1",
						"type": "t_mapping(t_uint256,t_contract(Bus)91)"
					}
				],
				"types": {
					"t_address": {
						"encoding": "inplace",
						"label": "address",
						"numberOfBytes": "20"
					},
					"t_contract(Bus)91": {
						"encoding": "inplace",
						"label": "contract Bus",
						"numberOfBytes": "20"
					},
					"t_mapping(t_uint256,t_contract(Bus)91)": {
						"encoding": "mapping",
						"key": "t_uint256",
						"label": "mapping(uint256 => contract Bus)",
						"numberOfBytes": "32",
						"value": "t_contract(Bus)91"
					},
					"t_uint256": {
						"encoding": "inplace",
						"label": "uint256",
						"numberOfBytes": "32"
					}
				}
			},
			"userdoc": {
				"kind": "user",
				"methods": {},
				"version": 1
			}
		}
	}
}