{
	"contracts/Bus.sol": {
		"Bus": {
			"abi": [
				{
					"inputs": [
						{
							"internalType": "uint256",
							"name": "_num",
							"type": "uint256"
						},
						{
							"internalType": "string",
							"name": "_destination",
							"type": "string"
						}
					],
					"stateMutability": "nonpayable",
					"type": "constructor"
				},
				{
					"inputs": [
						{
							"internalType": "uint256",
							"name": "_num",
							"type": "uint256"
						}
					],
					"name": "getAllseat",
					"outputs": [
						{
							"internalType": "uint256",
							"name": "",
							"type": "uint256"
						},
						{
							"internalType": "uint256",
							"name": "",
							"type": "uint256"
						},
						{
							"internalType": "address",
							"name": "",
							"type": "address"
						}
					],
					"stateMutability": "view",
					"type": "function"
				},
				{
					"inputs": [],
					"name": "getBusInfo",
					"outputs": [
						{
							"internalType": "uint256",
							"name": "",
							"type": "uint256"
						},
						{
							"internalType": "string",
							"name": "",
							"type": "string"
						}
					],
					"stateMutability": "view",
					"type": "function"
				},
				{
					"inputs": [
						{
							"internalType": "uint256",
							"name": "_seatNum",
							"type": "uint256"
						},
						{
							"internalType": "uint256",
							"name": "_studentId",
							"type": "uint256"
						},
						{
							"internalType": "address",
							"name": "_student",
							"type": "address"
						}
					],
					"name": "reservationBus",
					"outputs": [],
					"stateMutability": "nonpayable",
					"type": "function"
				}
			],
			"devdoc": {
				"kind": "dev",
				"methods": {},
				"version": 1
			},
			"evm": {
				"assembly": "    /* \"contracts/Bus.sol\":102:906  contract Bus{... */\n  mstore(0x40, 0x80)\n    /* \"contracts/Bus.sol\":299:418  constructor(uint _num, string memory _destination){... */\n  callvalue\n  dup1\n  iszero\n  tag_1\n  jumpi\n  0x00\n  dup1\n  revert\ntag_1:\n  pop\n  mload(0x40)\n  sub(codesize, bytecodeSize)\n  dup1\n  bytecodeSize\n  dup4\n  codecopy\n  dup2\n  dup2\n  add\n  0x40\n  mstore\n  dup2\n  add\n  swap1\n  tag_2\n  swap2\n  swap1\n  tag_3\n  jump\t// in\ntag_2:\n    /* \"contracts/Bus.sol\":369:373  _num */\n  dup2\n    /* \"contracts/Bus.sol\":360:366  busNum */\n  0x01\n    /* \"contracts/Bus.sol\":360:373  busNum = _num */\n  dup2\n  swap1\n  sstore\n  pop\n    /* \"contracts/Bus.sol\":398:410  _destination */\n  dup1\n    /* \"contracts/Bus.sol\":384:395  destination */\n  0x02\n    /* \"contracts/Bus.sol\":384:410  destination = _destination */\n  swap1\n  dup1\n  mload\n  swap1\n  0x20\n  add\n  swap1\n  tag_6\n  swap3\n  swap2\n  swap1\n  tag_7\n  jump\t// in\ntag_6:\n  pop\n    /* \"contracts/Bus.sol\":299:418  constructor(uint _num, string memory _destination){... */\n  pop\n  pop\n    /* \"contracts/Bus.sol\":102:906  contract Bus{... */\n  jump(tag_8)\ntag_7:\n  dup3\n  dup1\n  sload\n  tag_9\n  swap1\n  tag_10\n  jump\t// in\ntag_9:\n  swap1\n  0x00\n  mstore\n  keccak256(0x00, 0x20)\n  swap1\n  0x1f\n  add\n  0x20\n  swap1\n  div\n  dup2\n  add\n  swap3\n  dup3\n  tag_12\n  jumpi\n  0x00\n  dup6\n  sstore\n  jump(tag_11)\ntag_12:\n  dup3\n  0x1f\n  lt\n  tag_13\n  jumpi\n  dup1\n  mload\n  not(0xff)\n  and\n  dup4\n  dup1\n  add\n  or\n  dup6\n  sstore\n  jump(tag_11)\ntag_13:\n  dup3\n  dup1\n  add\n  0x01\n  add\n  dup6\n  sstore\n  dup3\n  iszero\n  tag_11\n  jumpi\n  swap2\n  dup3\n  add\ntag_14:\n  dup3\n  dup2\n  gt\n  iszero\n  tag_15\n  jumpi\n  dup3\n  mload\n  dup3\n  sstore\n  swap2\n  0x20\n  add\n  swap2\n  swap1\n  0x01\n  add\n  swap1\n  jump(tag_14)\ntag_15:\ntag_11:\n  pop\n  swap1\n  pop\n  tag_16\n  swap2\n  swap1\n  tag_17\n  jump\t// in\ntag_16:\n  pop\n  swap1\n  jump\t// out\ntag_17:\ntag_18:\n  dup1\n  dup3\n  gt\n  iszero\n  tag_19\n  jumpi\n  0x00\n  dup2\n  0x00\n  swap1\n  sstore\n  pop\n  0x01\n  add\n  jump(tag_18)\ntag_19:\n  pop\n  swap1\n  jump\t// out\n    /* \"#utility.yul\":7:428   */\ntag_21:\n    /* \"#utility.yul\":96:101   */\n  0x00\n    /* \"#utility.yul\":121:187   */\n  tag_23\n    /* \"#utility.yul\":137:186   */\n  tag_24\n    /* \"#utility.yul\":179:185   */\n  dup5\n    /* \"#utility.yul\":137:186   */\n  tag_25\n  jump\t// in\ntag_24:\n    /* \"#utility.yul\":121:187   */\n  tag_26\n  jump\t// in\ntag_23:\n    /* \"#utility.yul\":112:187   */\n  swap1\n  pop\n    /* \"#utility.yul\":210:216   */\n  dup3\n    /* \"#utility.yul\":203:208   */\n  dup2\n    /* \"#utility.yul\":196:217   */\n  mstore\n    /* \"#utility.yul\":248:252   */\n  0x20\n    /* \"#utility.yul\":241:246   */\n  dup2\n    /* \"#utility.yul\":237:253   */\n  add\n    /* \"#utility.yul\":286:289   */\n  dup5\n    /* \"#utility.yul\":277:283   */\n  dup5\n    /* \"#utility.yul\":272:275   */\n  dup5\n    /* \"#utility.yul\":268:284   */\n  add\n    /* \"#utility.yul\":265:290   */\n  gt\n    /* \"#utility.yul\":262:374   */\n  iszero\n  tag_27\n  jumpi\n    /* \"#utility.yul\":293:372   */\n  tag_28\n  tag_29\n  jump\t// in\ntag_28:\n    /* \"#utility.yul\":262:374   */\ntag_27:\n    /* \"#utility.yul\":383:422   */\n  tag_30\n    /* \"#utility.yul\":415:421   */\n  dup5\n    /* \"#utility.yul\":410:413   */\n  dup3\n    /* \"#utility.yul\":405:408   */\n  dup6\n    /* \"#utility.yul\":383:422   */\n  tag_31\n  jump\t// in\ntag_30:\n    /* \"#utility.yul\":102:428   */\n  pop\n    /* \"#utility.yul\":7:428   */\n  swap4\n  swap3\n  pop\n  pop\n  pop\n  jump\t// out\n    /* \"#utility.yul\":448:803   */\ntag_32:\n    /* \"#utility.yul\":515:520   */\n  0x00\n    /* \"#utility.yul\":564:567   */\n  dup3\n    /* \"#utility.yul\":557:561   */\n  0x1f\n    /* \"#utility.yul\":549:555   */\n  dup4\n    /* \"#utility.yul\":545:562   */\n  add\n    /* \"#utility.yul\":541:568   */\n  slt\n    /* \"#utility.yul\":531:653   */\n  tag_34\n  jumpi\n    /* \"#utility.yul\":572:651   */\n  tag_35\n  tag_36\n  jump\t// in\ntag_35:\n    /* \"#utility.yul\":531:653   */\ntag_34:\n    /* \"#utility.yul\":682:688   */\n  dup2\n    /* \"#utility.yul\":676:689   */\n  mload\n    /* \"#utility.yul\":707:797   */\n  tag_37\n    /* \"#utility.yul\":793:796   */\n  dup5\n    /* \"#utility.yul\":785:791   */\n  dup3\n    /* \"#utility.yul\":778:782   */\n  0x20\n    /* \"#utility.yul\":770:776   */\n  dup7\n    /* \"#utility.yul\":766:783   */\n  add\n    /* \"#utility.yul\":707:797   */\n  tag_21\n  jump\t// in\ntag_37:\n    /* \"#utility.yul\":698:797   */\n  swap2\n  pop\n    /* \"#utility.yul\":521:803   */\n  pop\n    /* \"#utility.yul\":448:803   */\n  swap3\n  swap2\n  pop\n  pop\n  jump\t// out\n    /* \"#utility.yul\":809:952   */\ntag_38:\n    /* \"#utility.yul\":866:871   */\n  0x00\n    /* \"#utility.yul\":897:903   */\n  dup2\n    /* \"#utility.yul\":891:904   */\n  mload\n    /* \"#utility.yul\":882:904   */\n  swap1\n  pop\n    /* \"#utility.yul\":913:946   */\n  tag_40\n    /* \"#utility.yul\":940:945   */\n  dup2\n    /* \"#utility.yul\":913:946   */\n  tag_41\n  jump\t// in\ntag_40:\n    /* \"#utility.yul\":809:952   */\n  swap3\n  swap2\n  pop\n  pop\n  jump\t// out\n    /* \"#utility.yul\":958:1638   */\ntag_3:\n    /* \"#utility.yul\":1047:1053   */\n  0x00\n    /* \"#utility.yul\":1055:1061   */\n  dup1\n    /* \"#utility.yul\":1104:1106   */\n  0x40\n    /* \"#utility.yul\":1092:1101   */\n  dup4\n    /* \"#utility.yul\":1083:1090   */\n  dup6\n    /* \"#utility.yul\":1079:1102   */\n  sub\n    /* \"#utility.yul\":1075:1107   */\n  slt\n    /* \"#utility.yul\":1072:1191   */\n  iszero\n  tag_43\n  jumpi\n    /* \"#utility.yul\":1110:1189   */\n  tag_44\n  tag_45\n  jump\t// in\ntag_44:\n    /* \"#utility.yul\":1072:1191   */\ntag_43:\n    /* \"#utility.yul\":1230:1231   */\n  0x00\n    /* \"#utility.yul\":1255:1319   */\n  tag_46\n    /* \"#utility.yul\":1311:1318   */\n  dup6\n    /* \"#utility.yul\":1302:1308   */\n  dup3\n    /* \"#utility.yul\":1291:1300   */\n  dup7\n    /* \"#utility.yul\":1287:1309   */\n  add\n    /* \"#utility.yul\":1255:1319   */\n  tag_38\n  jump\t// in\ntag_46:\n    /* \"#utility.yul\":1245:1319   */\n  swap3\n  pop\n    /* \"#utility.yul\":1201:1329   */\n  pop\n    /* \"#utility.yul\":1389:1391   */\n  0x20\n    /* \"#utility.yul\":1378:1387   */\n  dup4\n    /* \"#utility.yul\":1374:1392   */\n  add\n    /* \"#utility.yul\":1368:1393   */\n  mload\n    /* \"#utility.yul\":1420:1438   */\n  0xffffffffffffffff\n    /* \"#utility.yul\":1412:1418   */\n  dup2\n    /* \"#utility.yul\":1409:1439   */\n  gt\n    /* \"#utility.yul\":1406:1523   */\n  iszero\n  tag_47\n  jumpi\n    /* \"#utility.yul\":1442:1521   */\n  tag_48\n  tag_49\n  jump\t// in\ntag_48:\n    /* \"#utility.yul\":1406:1523   */\ntag_47:\n    /* \"#utility.yul\":1547:1621   */\n  tag_50\n    /* \"#utility.yul\":1613:1620   */\n  dup6\n    /* \"#utility.yul\":1604:1610   */\n  dup3\n    /* \"#utility.yul\":1593:1602   */\n  dup7\n    /* \"#utility.yul\":1589:1611   */\n  add\n    /* \"#utility.yul\":1547:1621   */\n  tag_32\n  jump\t// in\ntag_50:\n    /* \"#utility.yul\":1537:1621   */\n  swap2\n  pop\n    /* \"#utility.yul\":1339:1631   */\n  pop\n    /* \"#utility.yul\":958:1638   */\n  swap3\n  pop\n  swap3\n  swap1\n  pop\n  jump\t// out\n    /* \"#utility.yul\":1644:1773   */\ntag_26:\n    /* \"#utility.yul\":1678:1684   */\n  0x00\n    /* \"#utility.yul\":1705:1725   */\n  tag_52\n  tag_53\n  jump\t// in\ntag_52:\n    /* \"#utility.yul\":1695:1725   */\n  swap1\n  pop\n    /* \"#utility.yul\":1734:1767   */\n  tag_54\n    /* \"#utility.yul\":1762:1766   */\n  dup3\n    /* \"#utility.yul\":1754:1760   */\n  dup3\n    /* \"#utility.yul\":1734:1767   */\n  tag_55\n  jump\t// in\ntag_54:\n    /* \"#utility.yul\":1644:1773   */\n  swap2\n  swap1\n  pop\n  jump\t// out\n    /* \"#utility.yul\":1779:1854   */\ntag_53:\n    /* \"#utility.yul\":1812:1818   */\n  0x00\n    /* \"#utility.yul\":1845:1847   */\n  0x40\n    /* \"#utility.yul\":1839:1848   */\n  mload\n    /* \"#utility.yul\":1829:1848   */\n  swap1\n  pop\n    /* \"#utility.yul\":1779:1854   */\n  swap1\n  jump\t// out\n    /* \"#utility.yul\":1860:2168   */\ntag_25:\n    /* \"#utility.yul\":1922:1926   */\n  0x00\n    /* \"#utility.yul\":2012:2030   */\n  0xffffffffffffffff\n    /* \"#utility.yul\":2004:2010   */\n  dup3\n    /* \"#utility.yul\":2001:2031   */\n  gt\n    /* \"#utility.yul\":1998:2054   */\n  iszero\n  tag_58\n  jumpi\n    /* \"#utility.yul\":2034:2052   */\n  tag_59\n  tag_60\n  jump\t// in\ntag_59:\n    /* \"#utility.yul\":1998:2054   */\ntag_58:\n    /* \"#utility.yul\":2072:2101   */\n  tag_61\n    /* \"#utility.yul\":2094:2100   */\n  dup3\n    /* \"#utility.yul\":2072:2101   */\n  tag_62\n  jump\t// in\ntag_61:\n    /* \"#utility.yul\":2064:2101   */\n  swap1\n  pop\n    /* \"#utility.yul\":2156:2160   */\n  0x20\n    /* \"#utility.yul\":2150:2154   */\n  dup2\n    /* \"#utility.yul\":2146:2161   */\n  add\n    /* \"#utility.yul\":2138:2161   */\n  swap1\n  pop\n    /* \"#utility.yul\":1860:2168   */\n  swap2\n  swap1\n  pop\n  jump\t// out\n    /* \"#utility.yul\":2174:2251   */\ntag_63:\n    /* \"#utility.yul\":2211:2218   */\n  0x00\n    /* \"#utility.yul\":2240:2245   */\n  dup2\n    /* \"#utility.yul\":2229:2245   */\n  swap1\n  pop\n    /* \"#utility.yul\":2174:2251   */\n  swap2\n  swap1\n  pop\n  jump\t// out\n    /* \"#utility.yul\":2257:2564   */\ntag_31:\n    /* \"#utility.yul\":2325:2326   */\n  0x00\n    /* \"#utility.yul\":2335:2448   */\ntag_66:\n    /* \"#utility.yul\":2349:2355   */\n  dup4\n    /* \"#utility.yul\":2346:2347   */\n  dup2\n    /* \"#utility.yul\":2343:2356   */\n  lt\n    /* \"#utility.yul\":2335:2448   */\n  iszero\n  tag_68\n  jumpi\n    /* \"#utility.yul\":2434:2435   */\n  dup1\n    /* \"#utility.yul\":2429:2432   */\n  dup3\n    /* \"#utility.yul\":2425:2436   */\n  add\n    /* \"#utility.yul\":2419:2437   */\n  mload\n    /* \"#utility.yul\":2415:2416   */\n  dup2\n    /* \"#utility.yul\":2410:2413   */\n  dup5\n    /* \"#utility.yul\":2406:2417   */\n  add\n    /* \"#utility.yul\":2399:2438   */\n  mstore\n    /* \"#utility.yul\":2371:2373   */\n  0x20\n    /* \"#utility.yul\":2368:2369   */\n  dup2\n    /* \"#utility.yul\":2364:2374   */\n  add\n    /* \"#utility.yul\":2359:2374   */\n  swap1\n  pop\n    /* \"#utility.yul\":2335:2448   */\n  jump(tag_66)\ntag_68:\n    /* \"#utility.yul\":2466:2472   */\n  dup4\n    /* \"#utility.yul\":2463:2464   */\n  dup2\n    /* \"#utility.yul\":2460:2473   */\n  gt\n    /* \"#utility.yul\":2457:2558   */\n  iszero\n  tag_69\n  jumpi\n    /* \"#utility.yul\":2546:2547   */\n  0x00\n    /* \"#utility.yul\":2537:2543   */\n  dup5\n    /* \"#utility.yul\":2532:2535   */\n  dup5\n    /* \"#utility.yul\":2528:2544   */\n  add\n    /* \"#utility.yul\":2521:2548   */\n  mstore\n    /* \"#utility.yul\":2457:2558   */\ntag_69:\n    /* \"#utility.yul\":2306:2564   */\n  pop\n    /* \"#utility.yul\":2257:2564   */\n  pop\n  pop\n  pop\n  jump\t// out\n    /* \"#utility.yul\":2570:2890   */\ntag_10:\n    /* \"#utility.yul\":2614:2620   */\n  0x00\n    /* \"#utility.yul\":2651:2652   */\n  0x02\n    /* \"#utility.yul\":2645:2649   */\n  dup3\n    /* \"#utility.yul\":2641:2653   */\n  div\n    /* \"#utility.yul\":2631:2653   */\n  swap1\n  pop\n    /* \"#utility.yul\":2698:2699   */\n  0x01\n    /* \"#utility.yul\":2692:2696   */\n  dup3\n    /* \"#utility.yul\":2688:2700   */\n  and\n    /* \"#utility.yul\":2719:2737   */\n  dup1\n    /* \"#utility.yul\":2709:2790   */\n  tag_71\n  jumpi\n    /* \"#utility.yul\":2775:2779   */\n  0x7f\n    /* \"#utility.yul\":2767:2773   */\n  dup3\n    /* \"#utility.yul\":2763:2780   */\n  and\n    /* \"#utility.yul\":2753:2780   */\n  swap2\n  pop\n    /* \"#utility.yul\":2709:2790   */\ntag_71:\n    /* \"#utility.yul\":2837:2839   */\n  0x20\n    /* \"#utility.yul\":2829:2835   */\n  dup3\n    /* \"#utility.yul\":2826:2840   */\n  lt\n    /* \"#utility.yul\":2806:2824   */\n  dup2\n    /* \"#utility.yul\":2803:2841   */\n  eq\n    /* \"#utility.yul\":2800:2884   */\n  iszero\n  tag_72\n  jumpi\n    /* \"#utility.yul\":2856:2874   */\n  tag_73\n  tag_74\n  jump\t// in\ntag_73:\n    /* \"#utility.yul\":2800:2884   */\ntag_72:\n    /* \"#utility.yul\":2621:2890   */\n  pop\n    /* \"#utility.yul\":2570:2890   */\n  swap2\n  swap1\n  pop\n  jump\t// out\n    /* \"#utility.yul\":2896:3177   */\ntag_55:\n    /* \"#utility.yul\":2979:3006   */\n  tag_76\n    /* \"#utility.yul\":3001:3005   */\n  dup3\n    /* \"#utility.yul\":2979:3006   */\n  tag_62\n  jump\t// in\ntag_76:\n    /* \"#utility.yul\":2971:2977   */\n  dup2\n    /* \"#utility.yul\":2967:3007   */\n  add\n    /* \"#utility.yul\":3109:3115   */\n  dup2\n    /* \"#utility.yul\":3097:3107   */\n  dup2\n    /* \"#utility.yul\":3094:3116   */\n  lt\n    /* \"#utility.yul\":3073:3091   */\n  0xffffffffffffffff\n    /* \"#utility.yul\":3061:3071   */\n  dup3\n    /* \"#utility.yul\":3058:3092   */\n  gt\n    /* \"#utility.yul\":3055:3117   */\n  or\n    /* \"#utility.yul\":3052:3140   */\n  iszero\n  tag_77\n  jumpi\n    /* \"#utility.yul\":3120:3138   */\n  tag_78\n  tag_60\n  jump\t// in\ntag_78:\n    /* \"#utility.yul\":3052:3140   */\ntag_77:\n    /* \"#utility.yul\":3160:3170   */\n  dup1\n    /* \"#utility.yul\":3156:3158   */\n  0x40\n    /* \"#utility.yul\":3149:3171   */\n  mstore\n    /* \"#utility.yul\":2939:3177   */\n  pop\n    /* \"#utility.yul\":2896:3177   */\n  pop\n  pop\n  jump\t// out\n    /* \"#utility.yul\":3183:3363   */\ntag_74:\n    /* \"#utility.yul\":3231:3308   */\n  0x4e487b7100000000000000000000000000000000000000000000000000000000\n    /* \"#utility.yul\":3228:3229   */\n  0x00\n    /* \"#utility.yul\":3221:3309   */\n  mstore\n    /* \"#utility.yul\":3328:3332   */\n  0x22\n    /* \"#utility.yul\":3325:3326   */\n  0x04\n    /* \"#utility.yul\":3318:3333   */\n  mstore\n    /* \"#utility.yul\":3352:3356   */\n  0x24\n    /* \"#utility.yul\":3349:3350   */\n  0x00\n    /* \"#utility.yul\":3342:3357   */\n  revert\n    /* \"#utility.yul\":3369:3549   */\ntag_60:\n    /* \"#utility.yul\":3417:3494   */\n  0x4e487b7100000000000000000000000000000000000000000000000000000000\n    /* \"#utility.yul\":3414:3415   */\n  0x00\n    /* \"#utility.yul\":3407:3495   */\n  mstore\n    /* \"#utility.yul\":3514:3518   */\n  0x41\n    /* \"#utility.yul\":3511:3512   */\n  0x04\n    /* \"#utility.yul\":3504:3519   */\n  mstore\n    /* \"#utility.yul\":3538:3542   */\n  0x24\n    /* \"#utility.yul\":3535:3536   */\n  0x00\n    /* \"#utility.yul\":3528:3543   */\n  revert\n    /* \"#utility.yul\":3555:3672   */\ntag_36:\n    /* \"#utility.yul\":3664:3665   */\n  0x00\n    /* \"#utility.yul\":3661:3662   */\n  dup1\n    /* \"#utility.yul\":3654:3666   */\n  revert\n    /* \"#utility.yul\":3678:3795   */\ntag_29:\n    /* \"#utility.yul\":3787:3788   */\n  0x00\n    /* \"#utility.yul\":3784:3785   */\n  dup1\n    /* \"#utility.yul\":3777:3789   */\n  revert\n    /* \"#utility.yul\":3801:3918   */\ntag_49:\n    /* \"#utility.yul\":3910:3911   */\n  0x00\n    /* \"#utility.yul\":3907:3908   */\n  dup1\n    /* \"#utility.yul\":3900:3912   */\n  revert\n    /* \"#utility.yul\":3924:4041   */\ntag_45:\n    /* \"#utility.yul\":4033:4034   */\n  0x00\n    /* \"#utility.yul\":4030:4031   */\n  dup1\n    /* \"#utility.yul\":4023:4035   */\n  revert\n    /* \"#utility.yul\":4047:4149   */\ntag_62:\n    /* \"#utility.yul\":4088:4094   */\n  0x00\n    /* \"#utility.yul\":4139:4141   */\n  0x1f\n    /* \"#utility.yul\":4135:4142   */\n  not\n    /* \"#utility.yul\":4130:4132   */\n  0x1f\n    /* \"#utility.yul\":4123:4128   */\n  dup4\n    /* \"#utility.yul\":4119:4133   */\n  add\n    /* \"#utility.yul\":4115:4143   */\n  and\n    /* \"#utility.yul\":4105:4143   */\n  swap1\n  pop\n    /* \"#utility.yul\":4047:4149   */\n  swap2\n  swap1\n  pop\n  jump\t// out\n    /* \"#utility.yul\":4155:4277   */\ntag_41:\n    /* \"#utility.yul\":4228:4252   */\n  tag_87\n    /* \"#utility.yul\":4246:4251   */\n  dup2\n    /* \"#utility.yul\":4228:4252   */\n  tag_63\n  jump\t// in\ntag_87:\n    /* \"#utility.yul\":4221:4226   */\n  dup2\n    /* \"#utility.yul\":4218:4253   */\n  eq\n    /* \"#utility.yul\":4208:4271   */\n  tag_88\n  jumpi\n    /* \"#utility.yul\":4267:4268   */\n  0x00\n    /* \"#utility.yul\":4264:4265   */\n  dup1\n    /* \"#utility.yul\":4257:4269   */\n  revert\n    /* \"#utility.yul\":4208:4271   */\ntag_88:\n    /* \"#utility.yul\":4155:4277   */\n  pop\n  jump\t// out\n    /* \"contracts/Bus.sol\":102:906  contract Bus{... */\ntag_8:\n  dataSize(sub_0)\n  dup1\n  dataOffset(sub_0)\n  0x00\n  codecopy\n  0x00\n  return\nstop\n\nsub_0: assembly {\n        /* \"contracts/Bus.sol\":102:906  contract Bus{... */\n      mstore(0x40, 0x80)\n      callvalue\n      dup1\n      iszero\n      tag_1\n      jumpi\n      0x00\n      dup1\n      revert\n    tag_1:\n      pop\n      jumpi(tag_2, lt(calldatasize, 0x04))\n      shr(0xe0, calldataload(0x00))\n      dup1\n      0x26002bf1\n      eq\n      tag_3\n      jumpi\n      dup1\n      0x903942b7\n      eq\n      tag_4\n      jumpi\n      dup1\n      0xa434261f\n      eq\n      tag_5\n      jumpi\n    tag_2:\n      0x00\n      dup1\n      revert\n        /* \"contracts/Bus.sol\":796:902  function getBusInfo() public view returns(uint, string memory){... */\n    tag_3:\n      tag_6\n      tag_7\n      jump\t// in\n    tag_6:\n      mload(0x40)\n      tag_8\n      swap3\n      swap2\n      swap1\n      tag_9\n      jump\t// in\n    tag_8:\n      mload(0x40)\n      dup1\n      swap2\n      sub\n      swap1\n      return\n        /* \"contracts/Bus.sol\":628:791  function getAllseat(uint _num) public view returns(uint,uint,address){... */\n    tag_4:\n      tag_10\n      0x04\n      dup1\n      calldatasize\n      sub\n      dup2\n      add\n      swap1\n      tag_11\n      swap2\n      swap1\n      tag_12\n      jump\t// in\n    tag_11:\n      tag_13\n      jump\t// in\n    tag_10:\n      mload(0x40)\n      tag_14\n      swap4\n      swap3\n      swap2\n      swap1\n      tag_15\n      jump\t// in\n    tag_14:\n      mload(0x40)\n      dup1\n      swap2\n      sub\n      swap1\n      return\n        /* \"contracts/Bus.sol\":468:623  function reservationBus( uint _seatNum, uint _studentId, address _student) public {... */\n    tag_5:\n      tag_16\n      0x04\n      dup1\n      calldatasize\n      sub\n      dup2\n      add\n      swap1\n      tag_17\n      swap2\n      swap1\n      tag_18\n      jump\t// in\n    tag_17:\n      tag_19\n      jump\t// in\n    tag_16:\n      stop\n        /* \"contracts/Bus.sol\":796:902  function getBusInfo() public view returns(uint, string memory){... */\n    tag_7:\n        /* \"contracts/Bus.sol\":838:842  uint */\n      0x00\n        /* \"contracts/Bus.sol\":844:857  string memory */\n      0x60\n        /* \"contracts/Bus.sol\":875:881  busNum */\n      sload(0x01)\n        /* \"contracts/Bus.sol\":883:894  destination */\n      0x02\n        /* \"contracts/Bus.sol\":868:895  return(busNum, destination) */\n      dup1\n      dup1\n      sload\n      tag_21\n      swap1\n      tag_22\n      jump\t// in\n    tag_21:\n      dup1\n      0x1f\n      add\n      0x20\n      dup1\n      swap2\n      div\n      mul\n      0x20\n      add\n      mload(0x40)\n      swap1\n      dup2\n      add\n      0x40\n      mstore\n      dup1\n      swap3\n      swap2\n      swap1\n      dup2\n      dup2\n      mstore\n      0x20\n      add\n      dup3\n      dup1\n      sload\n      tag_23\n      swap1\n      tag_22\n      jump\t// in\n    tag_23:\n      dup1\n      iszero\n      tag_24\n      jumpi\n      dup1\n      0x1f\n      lt\n      tag_25\n      jumpi\n      0x0100\n      dup1\n      dup4\n      sload\n      div\n      mul\n      dup4\n      mstore\n      swap2\n      0x20\n      add\n      swap2\n      jump(tag_24)\n    tag_25:\n      dup3\n      add\n      swap2\n      swap1\n      0x00\n      mstore\n      keccak256(0x00, 0x20)\n      swap1\n    tag_26:\n      dup2\n      sload\n      dup2\n      mstore\n      swap1\n      0x01\n      add\n      swap1\n      0x20\n      add\n      dup1\n      dup4\n      gt\n      tag_26\n      jumpi\n      dup3\n      swap1\n      sub\n      0x1f\n      and\n      dup3\n      add\n      swap2\n    tag_24:\n      pop\n      pop\n      pop\n      pop\n      pop\n      swap1\n      pop\n      swap2\n      pop\n      swap2\n      pop\n        /* \"contracts/Bus.sol\":796:902  function getBusInfo() public view returns(uint, string memory){... */\n      swap1\n      swap2\n      jump\t// out\n        /* \"contracts/Bus.sol\":628:791  function getAllseat(uint _num) public view returns(uint,uint,address){... */\n    tag_13:\n        /* \"contracts/Bus.sol\":679:683  uint */\n      0x00\n        /* \"contracts/Bus.sol\":684:688  uint */\n      dup1\n        /* \"contracts/Bus.sol\":689:696  address */\n      0x00\n        /* \"contracts/Bus.sol\":714:721  busSeat */\n      0x03\n        /* \"contracts/Bus.sol\":714:727  busSeat[_num] */\n      0x00\n        /* \"contracts/Bus.sol\":722:726  _num */\n      dup6\n        /* \"contracts/Bus.sol\":714:727  busSeat[_num] */\n      dup2\n      mstore\n      0x20\n      add\n      swap1\n      dup2\n      mstore\n      0x20\n      add\n      0x00\n      keccak256\n        /* \"contracts/Bus.sol\":714:735  busSeat[_num].seatNum */\n      0x00\n      add\n      sload\n        /* \"contracts/Bus.sol\":737:744  busSeat */\n      0x03\n        /* \"contracts/Bus.sol\":737:750  busSeat[_num] */\n      0x00\n        /* \"contracts/Bus.sol\":745:749  _num */\n      dup7\n        /* \"contracts/Bus.sol\":737:750  busSeat[_num] */\n      dup2\n      mstore\n      0x20\n      add\n      swap1\n      dup2\n      mstore\n      0x20\n      add\n      0x00\n      keccak256\n        /* \"contracts/Bus.sol\":737:760  busSeat[_num].studentId */\n      0x01\n      add\n      sload\n        /* \"contracts/Bus.sol\":762:769  busSeat */\n      0x03\n        /* \"contracts/Bus.sol\":762:775  busSeat[_num] */\n      0x00\n        /* \"contracts/Bus.sol\":770:774  _num */\n      dup8\n        /* \"contracts/Bus.sol\":762:775  busSeat[_num] */\n      dup2\n      mstore\n      0x20\n      add\n      swap1\n      dup2\n      mstore\n      0x20\n      add\n      0x00\n      keccak256\n        /* \"contracts/Bus.sol\":762:783  busSeat[_num].student */\n      0x02\n      add\n      0x00\n      swap1\n      sload\n      swap1\n      0x0100\n      exp\n      swap1\n      div\n      0xffffffffffffffffffffffffffffffffffffffff\n      and\n        /* \"contracts/Bus.sol\":707:784  return(busSeat[_num].seatNum, busSeat[_num].studentId, busSeat[_num].student) */\n      swap3\n      pop\n      swap3\n      pop\n      swap3\n      pop\n        /* \"contracts/Bus.sol\":628:791  function getAllseat(uint _num) public view returns(uint,uint,address){... */\n      swap2\n      swap4\n      swap1\n      swap3\n      pop\n      jump\t// out\n        /* \"contracts/Bus.sol\":468:623  function reservationBus( uint _seatNum, uint _studentId, address _student) public {... */\n    tag_19:\n        /* \"contracts/Bus.sol\":580:616  seat(_seatNum, _studentId, _student) */\n      mload(0x40)\n      dup1\n      0x60\n      add\n      0x40\n      mstore\n      dup1\n        /* \"contracts/Bus.sol\":585:593  _seatNum */\n      dup5\n        /* \"contracts/Bus.sol\":580:616  seat(_seatNum, _studentId, _student) */\n      dup2\n      mstore\n      0x20\n      add\n        /* \"contracts/Bus.sol\":595:605  _studentId */\n      dup4\n        /* \"contracts/Bus.sol\":580:616  seat(_seatNum, _studentId, _student) */\n      dup2\n      mstore\n      0x20\n      add\n        /* \"contracts/Bus.sol\":607:615  _student */\n      dup3\n        /* \"contracts/Bus.sol\":580:616  seat(_seatNum, _studentId, _student) */\n      0xffffffffffffffffffffffffffffffffffffffff\n      and\n      dup2\n      mstore\n      pop\n        /* \"contracts/Bus.sol\":560:567  busSeat */\n      0x03\n        /* \"contracts/Bus.sol\":560:577  busSeat[_seatNum] */\n      0x00\n        /* \"contracts/Bus.sol\":568:576  _seatNum */\n      dup6\n        /* \"contracts/Bus.sol\":560:577  busSeat[_seatNum] */\n      dup2\n      mstore\n      0x20\n      add\n      swap1\n      dup2\n      mstore\n      0x20\n      add\n      0x00\n      keccak256\n        /* \"contracts/Bus.sol\":560:616  busSeat[_seatNum] = seat(_seatNum, _studentId, _student) */\n      0x00\n      dup3\n      add\n      mload\n      dup2\n      0x00\n      add\n      sstore\n      0x20\n      dup3\n      add\n      mload\n      dup2\n      0x01\n      add\n      sstore\n      0x40\n      dup3\n      add\n      mload\n      dup2\n      0x02\n      add\n      exp(0x0100, 0x00)\n      dup2\n      sload\n      dup2\n      0xffffffffffffffffffffffffffffffffffffffff\n      mul\n      not\n      and\n      swap1\n      dup4\n      0xffffffffffffffffffffffffffffffffffffffff\n      and\n      mul\n      or\n      swap1\n      sstore\n      pop\n      swap1\n      pop\n      pop\n        /* \"contracts/Bus.sol\":468:623  function reservationBus( uint _seatNum, uint _studentId, address _student) public {... */\n      pop\n      pop\n      pop\n      jump\t// out\n        /* \"#utility.yul\":7:146   */\n    tag_30:\n        /* \"#utility.yul\":53:58   */\n      0x00\n        /* \"#utility.yul\":91:97   */\n      dup2\n        /* \"#utility.yul\":78:98   */\n      calldataload\n        /* \"#utility.yul\":69:98   */\n      swap1\n      pop\n        /* \"#utility.yul\":107:140   */\n      tag_32\n        /* \"#utility.yul\":134:139   */\n      dup2\n        /* \"#utility.yul\":107:140   */\n      tag_33\n      jump\t// in\n    tag_32:\n        /* \"#utility.yul\":7:146   */\n      swap3\n      swap2\n      pop\n      pop\n      jump\t// out\n        /* \"#utility.yul\":152:291   */\n    tag_34:\n        /* \"#utility.yul\":198:203   */\n      0x00\n        /* \"#utility.yul\":236:242   */\n      dup2\n        /* \"#utility.yul\":223:243   */\n      calldataload\n        /* \"#utility.yul\":214:243   */\n      swap1\n      pop\n        /* \"#utility.yul\":252:285   */\n      tag_36\n        /* \"#utility.yul\":279:284   */\n      dup2\n        /* \"#utility.yul\":252:285   */\n      tag_37\n      jump\t// in\n    tag_36:\n        /* \"#utility.yul\":152:291   */\n      swap3\n      swap2\n      pop\n      pop\n      jump\t// out\n        /* \"#utility.yul\":297:626   */\n    tag_12:\n        /* \"#utility.yul\":356:362   */\n      0x00\n        /* \"#utility.yul\":405:407   */\n      0x20\n        /* \"#utility.yul\":393:402   */\n      dup3\n        /* \"#utility.yul\":384:391   */\n      dup5\n        /* \"#utility.yul\":380:403   */\n      sub\n        /* \"#utility.yul\":376:408   */\n      slt\n        /* \"#utility.yul\":373:492   */\n      iszero\n      tag_39\n      jumpi\n        /* \"#utility.yul\":411:490   */\n      tag_40\n      tag_41\n      jump\t// in\n    tag_40:\n        /* \"#utility.yul\":373:492   */\n    tag_39:\n        /* \"#utility.yul\":531:532   */\n      0x00\n        /* \"#utility.yul\":556:609   */\n      tag_42\n        /* \"#utility.yul\":601:608   */\n      dup5\n        /* \"#utility.yul\":592:598   */\n      dup3\n        /* \"#utility.yul\":581:590   */\n      dup6\n        /* \"#utility.yul\":577:599   */\n      add\n        /* \"#utility.yul\":556:609   */\n      tag_34\n      jump\t// in\n    tag_42:\n        /* \"#utility.yul\":546:609   */\n      swap2\n      pop\n        /* \"#utility.yul\":502:619   */\n      pop\n        /* \"#utility.yul\":297:626   */\n      swap3\n      swap2\n      pop\n      pop\n      jump\t// out\n        /* \"#utility.yul\":632:1251   */\n    tag_18:\n        /* \"#utility.yul\":709:715   */\n      0x00\n        /* \"#utility.yul\":717:723   */\n      dup1\n        /* \"#utility.yul\":725:731   */\n      0x00\n        /* \"#utility.yul\":774:776   */\n      0x60\n        /* \"#utility.yul\":762:771   */\n      dup5\n        /* \"#utility.yul\":753:760   */\n      dup7\n        /* \"#utility.yul\":749:772   */\n      sub\n        /* \"#utility.yul\":745:777   */\n      slt\n        /* \"#utility.yul\":742:861   */\n      iszero\n      tag_44\n      jumpi\n        /* \"#utility.yul\":780:859   */\n      tag_45\n      tag_41\n      jump\t// in\n    tag_45:\n        /* \"#utility.yul\":742:861   */\n    tag_44:\n        /* \"#utility.yul\":900:901   */\n      0x00\n        /* \"#utility.yul\":925:978   */\n      tag_46\n        /* \"#utility.yul\":970:977   */\n      dup7\n        /* \"#utility.yul\":961:967   */\n      dup3\n        /* \"#utility.yul\":950:959   */\n      dup8\n        /* \"#utility.yul\":946:968   */\n      add\n        /* \"#utility.yul\":925:978   */\n      tag_34\n      jump\t// in\n    tag_46:\n        /* \"#utility.yul\":915:978   */\n      swap4\n      pop\n        /* \"#utility.yul\":871:988   */\n      pop\n        /* \"#utility.yul\":1027:1029   */\n      0x20\n        /* \"#utility.yul\":1053:1106   */\n      tag_47\n        /* \"#utility.yul\":1098:1105   */\n      dup7\n        /* \"#utility.yul\":1089:1095   */\n      dup3\n        /* \"#utility.yul\":1078:1087   */\n      dup8\n        /* \"#utility.yul\":1074:1096   */\n      add\n        /* \"#utility.yul\":1053:1106   */\n      tag_34\n      jump\t// in\n    tag_47:\n        /* \"#utility.yul\":1043:1106   */\n      swap3\n      pop\n        /* \"#utility.yul\":998:1116   */\n      pop\n        /* \"#utility.yul\":1155:1157   */\n      0x40\n        /* \"#utility.yul\":1181:1234   */\n      tag_48\n        /* \"#utility.yul\":1226:1233   */\n      dup7\n        /* \"#utility.yul\":1217:1223   */\n      dup3\n        /* \"#utility.yul\":1206:1215   */\n      dup8\n        /* \"#utility.yul\":1202:1224   */\n      add\n        /* \"#utility.yul\":1181:1234   */\n      tag_30\n      jump\t// in\n    tag_48:\n        /* \"#utility.yul\":1171:1234   */\n      swap2\n      pop\n        /* \"#utility.yul\":1126:1244   */\n      pop\n        /* \"#utility.yul\":632:1251   */\n      swap3\n      pop\n      swap3\n      pop\n      swap3\n      jump\t// out\n        /* \"#utility.yul\":1257:1375   */\n    tag_49:\n        /* \"#utility.yul\":1344:1368   */\n      tag_51\n        /* \"#utility.yul\":1362:1367   */\n      dup2\n        /* \"#utility.yul\":1344:1368   */\n      tag_52\n      jump\t// in\n    tag_51:\n        /* \"#utility.yul\":1339:1342   */\n      dup3\n        /* \"#utility.yul\":1332:1369   */\n      mstore\n        /* \"#utility.yul\":1257:1375   */\n      pop\n      pop\n      jump\t// out\n        /* \"#utility.yul\":1381:1745   */\n    tag_53:\n        /* \"#utility.yul\":1469:1472   */\n      0x00\n        /* \"#utility.yul\":1497:1536   */\n      tag_55\n        /* \"#utility.yul\":1530:1535   */\n      dup3\n        /* \"#utility.yul\":1497:1536   */\n      tag_56\n      jump\t// in\n    tag_55:\n        /* \"#utility.yul\":1552:1623   */\n      tag_57\n        /* \"#utility.yul\":1616:1622   */\n      dup2\n        /* \"#utility.yul\":1611:1614   */\n      dup6\n        /* \"#utility.yul\":1552:1623   */\n      tag_58\n      jump\t// in\n    tag_57:\n        /* \"#utility.yul\":1545:1623   */\n      swap4\n      pop\n        /* \"#utility.yul\":1632:1684   */\n      tag_59\n        /* \"#utility.yul\":1677:1683   */\n      dup2\n        /* \"#utility.yul\":1672:1675   */\n      dup6\n        /* \"#utility.yul\":1665:1669   */\n      0x20\n        /* \"#utility.yul\":1658:1663   */\n      dup7\n        /* \"#utility.yul\":1654:1670   */\n      add\n        /* \"#utility.yul\":1632:1684   */\n      tag_60\n      jump\t// in\n    tag_59:\n        /* \"#utility.yul\":1709:1738   */\n      tag_61\n        /* \"#utility.yul\":1731:1737   */\n      dup2\n        /* \"#utility.yul\":1709:1738   */\n      tag_62\n      jump\t// in\n    tag_61:\n        /* \"#utility.yul\":1704:1707   */\n      dup5\n        /* \"#utility.yul\":1700:1739   */\n      add\n        /* \"#utility.yul\":1693:1739   */\n      swap2\n      pop\n        /* \"#utility.yul\":1473:1745   */\n      pop\n        /* \"#utility.yul\":1381:1745   */\n      swap3\n      swap2\n      pop\n      pop\n      jump\t// out\n        /* \"#utility.yul\":1751:1869   */\n    tag_63:\n        /* \"#utility.yul\":1838:1862   */\n      tag_65\n        /* \"#utility.yul\":1856:1861   */\n      dup2\n        /* \"#utility.yul\":1838:1862   */\n      tag_66\n      jump\t// in\n    tag_65:\n        /* \"#utility.yul\":1833:1836   */\n      dup3\n        /* \"#utility.yul\":1826:1863   */\n      mstore\n        /* \"#utility.yul\":1751:1869   */\n      pop\n      pop\n      jump\t// out\n        /* \"#utility.yul\":1875:2298   */\n    tag_9:\n        /* \"#utility.yul\":2016:2020   */\n      0x00\n        /* \"#utility.yul\":2054:2056   */\n      0x40\n        /* \"#utility.yul\":2043:2052   */\n      dup3\n        /* \"#utility.yul\":2039:2057   */\n      add\n        /* \"#utility.yul\":2031:2057   */\n      swap1\n      pop\n        /* \"#utility.yul\":2067:2138   */\n      tag_68\n        /* \"#utility.yul\":2135:2136   */\n      0x00\n        /* \"#utility.yul\":2124:2133   */\n      dup4\n        /* \"#utility.yul\":2120:2137   */\n      add\n        /* \"#utility.yul\":2111:2117   */\n      dup6\n        /* \"#utility.yul\":2067:2138   */\n      tag_63\n      jump\t// in\n    tag_68:\n        /* \"#utility.yul\":2185:2194   */\n      dup2\n        /* \"#utility.yul\":2179:2183   */\n      dup2\n        /* \"#utility.yul\":2175:2195   */\n      sub\n        /* \"#utility.yul\":2170:2172   */\n      0x20\n        /* \"#utility.yul\":2159:2168   */\n      dup4\n        /* \"#utility.yul\":2155:2173   */\n      add\n        /* \"#utility.yul\":2148:2196   */\n      mstore\n        /* \"#utility.yul\":2213:2291   */\n      tag_69\n        /* \"#utility.yul\":2286:2290   */\n      dup2\n        /* \"#utility.yul\":2277:2283   */\n      dup5\n        /* \"#utility.yul\":2213:2291   */\n      tag_53\n      jump\t// in\n    tag_69:\n        /* \"#utility.yul\":2205:2291   */\n      swap1\n      pop\n        /* \"#utility.yul\":1875:2298   */\n      swap4\n      swap3\n      pop\n      pop\n      pop\n      jump\t// out\n        /* \"#utility.yul\":2304:2746   */\n    tag_15:\n        /* \"#utility.yul\":2453:2457   */\n      0x00\n        /* \"#utility.yul\":2491:2493   */\n      0x60\n        /* \"#utility.yul\":2480:2489   */\n      dup3\n        /* \"#utility.yul\":2476:2494   */\n      add\n        /* \"#utility.yul\":2468:2494   */\n      swap1\n      pop\n        /* \"#utility.yul\":2504:2575   */\n      tag_71\n        /* \"#utility.yul\":2572:2573   */\n      0x00\n        /* \"#utility.yul\":2561:2570   */\n      dup4\n        /* \"#utility.yul\":2557:2574   */\n      add\n        /* \"#utility.yul\":2548:2554   */\n      dup7\n        /* \"#utility.yul\":2504:2575   */\n      tag_63\n      jump\t// in\n    tag_71:\n        /* \"#utility.yul\":2585:2657   */\n      tag_72\n        /* \"#utility.yul\":2653:2655   */\n      0x20\n        /* \"#utility.yul\":2642:2651   */\n      dup4\n        /* \"#utility.yul\":2638:2656   */\n      add\n        /* \"#utility.yul\":2629:2635   */\n      dup6\n        /* \"#utility.yul\":2585:2657   */\n      tag_63\n      jump\t// in\n    tag_72:\n        /* \"#utility.yul\":2667:2739   */\n      tag_73\n        /* \"#utility.yul\":2735:2737   */\n      0x40\n        /* \"#utility.yul\":2724:2733   */\n      dup4\n        /* \"#utility.yul\":2720:2738   */\n      add\n        /* \"#utility.yul\":2711:2717   */\n      dup5\n        /* \"#utility.yul\":2667:2739   */\n      tag_49\n      jump\t// in\n    tag_73:\n        /* \"#utility.yul\":2304:2746   */\n      swap5\n      swap4\n      pop\n      pop\n      pop\n      pop\n      jump\t// out\n        /* \"#utility.yul\":2833:2932   */\n    tag_56:\n        /* \"#utility.yul\":2885:2891   */\n      0x00\n        /* \"#utility.yul\":2919:2924   */\n      dup2\n        /* \"#utility.yul\":2913:2925   */\n      mload\n        /* \"#utility.yul\":2903:2925   */\n      swap1\n      pop\n        /* \"#utility.yul\":2833:2932   */\n      swap2\n      swap1\n      pop\n      jump\t// out\n        /* \"#utility.yul\":2938:3107   */\n    tag_58:\n        /* \"#utility.yul\":3022:3033   */\n      0x00\n        /* \"#utility.yul\":3056:3062   */\n      dup3\n        /* \"#utility.yul\":3051:3054   */\n      dup3\n        /* \"#utility.yul\":3044:3063   */\n      mstore\n        /* \"#utility.yul\":3096:3100   */\n      0x20\n        /* \"#utility.yul\":3091:3094   */\n      dup3\n        /* \"#utility.yul\":3087:3101   */\n      add\n        /* \"#utility.yul\":3072:3101   */\n      swap1\n      pop\n        /* \"#utility.yul\":2938:3107   */\n      swap3\n      swap2\n      pop\n      pop\n      jump\t// out\n        /* \"#utility.yul\":3113:3209   */\n    tag_52:\n        /* \"#utility.yul\":3150:3157   */\n      0x00\n        /* \"#utility.yul\":3179:3203   */\n      tag_79\n        /* \"#utility.yul\":3197:3202   */\n      dup3\n        /* \"#utility.yul\":3179:3203   */\n      tag_80\n      jump\t// in\n    tag_79:\n        /* \"#utility.yul\":3168:3203   */\n      swap1\n      pop\n        /* \"#utility.yul\":3113:3209   */\n      swap2\n      swap1\n      pop\n      jump\t// out\n        /* \"#utility.yul\":3215:3341   */\n    tag_80:\n        /* \"#utility.yul\":3252:3259   */\n      0x00\n        /* \"#utility.yul\":3292:3334   */\n      0xffffffffffffffffffffffffffffffffffffffff\n        /* \"#utility.yul\":3285:3290   */\n      dup3\n        /* \"#utility.yul\":3281:3335   */\n      and\n        /* \"#utility.yul\":3270:3335   */\n      swap1\n      pop\n        /* \"#utility.yul\":3215:3341   */\n      swap2\n      swap1\n      pop\n      jump\t// out\n        /* \"#utility.yul\":3347:3424   */\n    tag_66:\n        /* \"#utility.yul\":3384:3391   */\n      0x00\n        /* \"#utility.yul\":3413:3418   */\n      dup2\n        /* \"#utility.yul\":3402:3418   */\n      swap1\n      pop\n        /* \"#utility.yul\":3347:3424   */\n      swap2\n      swap1\n      pop\n      jump\t// out\n        /* \"#utility.yul\":3430:3737   */\n    tag_60:\n        /* \"#utility.yul\":3498:3499   */\n      0x00\n        /* \"#utility.yul\":3508:3621   */\n    tag_84:\n        /* \"#utility.yul\":3522:3528   */\n      dup4\n        /* \"#utility.yul\":3519:3520   */\n      dup2\n        /* \"#utility.yul\":3516:3529   */\n      lt\n        /* \"#utility.yul\":3508:3621   */\n      iszero\n      tag_86\n      jumpi\n        /* \"#utility.yul\":3607:3608   */\n      dup1\n        /* \"#utility.yul\":3602:3605   */\n      dup3\n        /* \"#utility.yul\":3598:3609   */\n      add\n        /* \"#utility.yul\":3592:3610   */\n      mload\n        /* \"#utility.yul\":3588:3589   */\n      dup2\n        /* \"#utility.yul\":3583:3586   */\n      dup5\n        /* \"#utility.yul\":3579:3590   */\n      add\n        /* \"#utility.yul\":3572:3611   */\n      mstore\n        /* \"#utility.yul\":3544:3546   */\n      0x20\n        /* \"#utility.yul\":3541:3542   */\n      dup2\n        /* \"#utility.yul\":3537:3547   */\n      add\n        /* \"#utility.yul\":3532:3547   */\n      swap1\n      pop\n        /* \"#utility.yul\":3508:3621   */\n      jump(tag_84)\n    tag_86:\n        /* \"#utility.yul\":3639:3645   */\n      dup4\n        /* \"#utility.yul\":3636:3637   */\n      dup2\n        /* \"#utility.yul\":3633:3646   */\n      gt\n        /* \"#utility.yul\":3630:3731   */\n      iszero\n      tag_87\n      jumpi\n        /* \"#utility.yul\":3719:3720   */\n      0x00\n        /* \"#utility.yul\":3710:3716   */\n      dup5\n        /* \"#utility.yul\":3705:3708   */\n      dup5\n        /* \"#utility.yul\":3701:3717   */\n      add\n        /* \"#utility.yul\":3694:3721   */\n      mstore\n        /* \"#utility.yul\":3630:3731   */\n    tag_87:\n        /* \"#utility.yul\":3479:3737   */\n      pop\n        /* \"#utility.yul\":3430:3737   */\n      pop\n      pop\n      pop\n      jump\t// out\n        /* \"#utility.yul\":3743:4063   */\n    tag_22:\n        /* \"#utility.yul\":3787:3793   */\n      0x00\n        /* \"#utility.yul\":3824:3825   */\n      0x02\n        /* \"#utility.yul\":3818:3822   */\n      dup3\n        /* \"#utility.yul\":3814:3826   */\n      div\n        /* \"#utility.yul\":3804:3826   */\n      swap1\n      pop\n        /* \"#utility.yul\":3871:3872   */\n      0x01\n        /* \"#utility.yul\":3865:3869   */\n      dup3\n        /* \"#utility.yul\":3861:3873   */\n      and\n        /* \"#utility.yul\":3892:3910   */\n      dup1\n        /* \"#utility.yul\":3882:3963   */\n      tag_89\n      jumpi\n        /* \"#utility.yul\":3948:3952   */\n      0x7f\n        /* \"#utility.yul\":3940:3946   */\n      dup3\n        /* \"#utility.yul\":3936:3953   */\n      and\n        /* \"#utility.yul\":3926:3953   */\n      swap2\n      pop\n        /* \"#utility.yul\":3882:3963   */\n    tag_89:\n        /* \"#utility.yul\":4010:4012   */\n      0x20\n        /* \"#utility.yul\":4002:4008   */\n      dup3\n        /* \"#utility.yul\":3999:4013   */\n      lt\n        /* \"#utility.yul\":3979:3997   */\n      dup2\n        /* \"#utility.yul\":3976:4014   */\n      eq\n        /* \"#utility.yul\":3973:4057   */\n      iszero\n      tag_90\n      jumpi\n        /* \"#utility.yul\":4029:4047   */\n      tag_91\n      tag_92\n      jump\t// in\n    tag_91:\n        /* \"#utility.yul\":3973:4057   */\n    tag_90:\n        /* \"#utility.yul\":3794:4063   */\n      pop\n        /* \"#utility.yul\":3743:4063   */\n      swap2\n      swap1\n      pop\n      jump\t// out\n        /* \"#utility.yul\":4069:4249   */\n    tag_92:\n        /* \"#utility.yul\":4117:4194   */\n      0x4e487b7100000000000000000000000000000000000000000000000000000000\n        /* \"#utility.yul\":4114:4115   */\n      0x00\n        /* \"#utility.yul\":4107:4195   */\n      mstore\n        /* \"#utility.yul\":4214:4218   */\n      0x22\n        /* \"#utility.yul\":4211:4212   */\n      0x04\n        /* \"#utility.yul\":4204:4219   */\n      mstore\n        /* \"#utility.yul\":4238:4242   */\n      0x24\n        /* \"#utility.yul\":4235:4236   */\n      0x00\n        /* \"#utility.yul\":4228:4243   */\n      revert\n        /* \"#utility.yul\":4378:4495   */\n    tag_41:\n        /* \"#utility.yul\":4487:4488   */\n      0x00\n        /* \"#utility.yul\":4484:4485   */\n      dup1\n        /* \"#utility.yul\":4477:4489   */\n      revert\n        /* \"#utility.yul\":4501:4603   */\n    tag_62:\n        /* \"#utility.yul\":4542:4548   */\n      0x00\n        /* \"#utility.yul\":4593:4595   */\n      0x1f\n        /* \"#utility.yul\":4589:4596   */\n      not\n        /* \"#utility.yul\":4584:4586   */\n      0x1f\n        /* \"#utility.yul\":4577:4582   */\n      dup4\n        /* \"#utility.yul\":4573:4587   */\n      add\n        /* \"#utility.yul\":4569:4597   */\n      and\n        /* \"#utility.yul\":4559:4597   */\n      swap1\n      pop\n        /* \"#utility.yul\":4501:4603   */\n      swap2\n      swap1\n      pop\n      jump\t// out\n        /* \"#utility.yul\":4609:4731   */\n    tag_33:\n        /* \"#utility.yul\":4682:4706   */\n      tag_99\n        /* \"#utility.yul\":4700:4705   */\n      dup2\n        /* \"#utility.yul\":4682:4706   */\n      tag_52\n      jump\t// in\n    tag_99:\n        /* \"#utility.yul\":4675:4680   */\n      dup2\n        /* \"#utility.yul\":4672:4707   */\n      eq\n        /* \"#utility.yul\":4662:4725   */\n      tag_100\n      jumpi\n        /* \"#utility.yul\":4721:4722   */\n      0x00\n        /* \"#utility.yul\":4718:4719   */\n      dup1\n        /* \"#utility.yul\":4711:4723   */\n      revert\n        /* \"#utility.yul\":4662:4725   */\n    tag_100:\n        /* \"#utility.yul\":4609:4731   */\n      pop\n      jump\t// out\n        /* \"#utility.yul\":4737:4859   */\n    tag_37:\n        /* \"#utility.yul\":4810:4834   */\n      tag_102\n        /* \"#utility.yul\":4828:4833   */\n      dup2\n        /* \"#utility.yul\":4810:4834   */\n      tag_66\n      jump\t// in\n    tag_102:\n        /* \"#utility.yul\":4803:4808   */\n      dup2\n        /* \"#utility.yul\":4800:4835   */\n      eq\n        /* \"#utility.yul\":4790:4853   */\n      tag_103\n      jumpi\n        /* \"#utility.yul\":4849:4850   */\n      0x00\n        /* \"#utility.yul\":4846:4847   */\n      dup1\n        /* \"#utility.yul\":4839:4851   */\n      revert\n        /* \"#utility.yul\":4790:4853   */\n    tag_103:\n        /* \"#utility.yul\":4737:4859   */\n      pop\n      jump\t// out\n\n    auxdata: 0xa26469706673582212207f8368898a93e2a355bdd4adde546184d772f805e8f0a454c67c9821ce929d7264736f6c63430008070033\n}\n",
				"bytecode": {
					"linkReferences": {},
					"object": "60806040523480156200001157600080fd5b50604051620008fe380380620008fe8339818101604052810190620000379190620001a4565b816001819055508060029080519060200190620000569291906200005f565b505050620003b2565b8280546200006d90620002a9565b90600052602060002090601f016020900481019282620000915760008555620000dd565b82601f10620000ac57805160ff1916838001178555620000dd565b82800160010185558215620000dd579182015b82811115620000dc578251825591602001919060010190620000bf565b5b509050620000ec9190620000f0565b5090565b5b808211156200010b576000816000905550600101620000f1565b5090565b600062000126620001208462000233565b6200020a565b90508281526020810184848401111562000145576200014462000378565b5b6200015284828562000273565b509392505050565b600082601f83011262000172576200017162000373565b5b8151620001848482602086016200010f565b91505092915050565b6000815190506200019e8162000398565b92915050565b60008060408385031215620001be57620001bd62000382565b5b6000620001ce858286016200018d565b925050602083015167ffffffffffffffff811115620001f257620001f16200037d565b5b62000200858286016200015a565b9150509250929050565b60006200021662000229565b9050620002248282620002df565b919050565b6000604051905090565b600067ffffffffffffffff82111562000251576200025062000344565b5b6200025c8262000387565b9050602081019050919050565b6000819050919050565b60005b838110156200029357808201518184015260208101905062000276565b83811115620002a3576000848401525b50505050565b60006002820490506001821680620002c257607f821691505b60208210811415620002d957620002d862000315565b5b50919050565b620002ea8262000387565b810181811067ffffffffffffffff821117156200030c576200030b62000344565b5b80604052505050565b7f4e487b7100000000000000000000000000000000000000000000000000000000600052602260045260246000fd5b7f4e487b7100000000000000000000000000000000000000000000000000000000600052604160045260246000fd5b600080fd5b600080fd5b600080fd5b600080fd5b6000601f19601f8301169050919050565b620003a38162000269565b8114620003af57600080fd5b50565b61053c80620003c26000396000f3fe608060405234801561001057600080fd5b50600436106100415760003560e01c806326002bf114610046578063903942b714610065578063a434261f14610097575b600080fd5b61004e6100b3565b60405161005c92919061036f565b60405180910390f35b61007f600480360381019061007a9190610298565b610150565b60405161008e9392919061039f565b60405180910390f35b6100b160048036038101906100ac91906102c5565b6101c7565b005b6000606060015460028080546100c890610461565b80601f01602080910402602001604051908101604052809291908181526020018280546100f490610461565b80156101415780601f1061011657610100808354040283529160200191610141565b820191906000526020600020905b81548152906001019060200180831161012457829003601f168201915b50505050509050915091509091565b6000806000600360008581526020019081526020016000206000015460036000868152602001908152602001600020600101546003600087815260200190815260200160002060020160009054906101000a900473ffffffffffffffffffffffffffffffffffffffff169250925092509193909250565b60405180606001604052808481526020018381526020018273ffffffffffffffffffffffffffffffffffffffff1681525060036000858152602001908152602001600020600082015181600001556020820151816001015560408201518160020160006101000a81548173ffffffffffffffffffffffffffffffffffffffff021916908373ffffffffffffffffffffffffffffffffffffffff160217905550905050505050565b60008135905061027d816104d8565b92915050565b600081359050610292816104ef565b92915050565b6000602082840312156102ae576102ad6104c2565b5b60006102bc84828501610283565b91505092915050565b6000806000606084860312156102de576102dd6104c2565b5b60006102ec86828701610283565b93505060206102fd86828701610283565b925050604061030e8682870161026e565b9150509250925092565b610321816103f2565b82525050565b6000610332826103d6565b61033c81856103e1565b935061034c81856020860161042e565b610355816104c7565b840191505092915050565b61036981610424565b82525050565b60006040820190506103846000830185610360565b81810360208301526103968184610327565b90509392505050565b60006060820190506103b46000830186610360565b6103c16020830185610360565b6103ce6040830184610318565b949350505050565b600081519050919050565b600082825260208201905092915050565b60006103fd82610404565b9050919050565b600073ffffffffffffffffffffffffffffffffffffffff82169050919050565b6000819050919050565b60005b8381101561044c578082015181840152602081019050610431565b8381111561045b576000848401525b50505050565b6000600282049050600182168061047957607f821691505b6020821081141561048d5761048c610493565b5b50919050565b7f4e487b7100000000000000000000000000000000000000000000000000000000600052602260045260246000fd5b600080fd5b6000601f19601f8301169050919050565b6104e1816103f2565b81146104ec57600080fd5b50565b6104f881610424565b811461050357600080fd5b5056fea26469706673582212207f8368898a93e2a355bdd4adde546184d772f805e8f0a454c67c9821ce929d7264736f6c63430008070033",
					"opcodes": "PUSH1 0x80 PUSH1 0x40 MSTORE CALLVALUE DUP1 ISZERO PUSH3 0x11 JUMPI PUSH1 0x0 DUP1 REVERT JUMPDEST POP PUSH1 0x40 MLOAD PUSH3 0x8FE CODESIZE SUB DUP1 PUSH3 0x8FE DUP4 CODECOPY DUP2 DUP2 ADD PUSH1 0x40 MSTORE DUP2 ADD SWAP1 PUSH3 0x37 SWAP2 SWAP1 PUSH3 0x1A4 JUMP JUMPDEST DUP2 PUSH1 0x1 DUP2 SWAP1 SSTORE POP DUP1 PUSH1 0x2 SWAP1 DUP1 MLOAD SWAP1 PUSH1 0x20 ADD SWAP1 PUSH3 0x56 SWAP3 SWAP2 SWAP1 PUSH3 0x5F JUMP JUMPDEST POP POP POP PUSH3 0x3B2 JUMP JUMPDEST DUP3 DUP1 SLOAD PUSH3 0x6D SWAP1 PUSH3 0x2A9 JUMP JUMPDEST SWAP1 PUSH1 0x0 MSTORE PUSH1 0x20 PUSH1 0x0 KECCAK256 SWAP1 PUSH1 0x1F ADD PUSH1 0x20 SWAP1 DIV DUP2 ADD SWAP3 DUP3 PUSH3 0x91 JUMPI PUSH1 0x0 DUP6 SSTORE PUSH3 0xDD JUMP JUMPDEST DUP3 PUSH1 0x1F LT PUSH3 0xAC JUMPI DUP1 MLOAD PUSH1 0xFF NOT AND DUP4 DUP1 ADD OR DUP6 SSTORE PUSH3 0xDD JUMP JUMPDEST DUP3 DUP1 ADD PUSH1 0x1 ADD DUP6 SSTORE DUP3 ISZERO PUSH3 0xDD JUMPI SWAP2 DUP3 ADD JUMPDEST DUP3 DUP2 GT ISZERO PUSH3 0xDC JUMPI DUP3 MLOAD DUP3 SSTORE SWAP2 PUSH1 0x20 ADD SWAP2 SWAP1 PUSH1 0x1 ADD SWAP1 PUSH3 0xBF JUMP JUMPDEST JUMPDEST POP SWAP1 POP PUSH3 0xEC SWAP2 SWAP1 PUSH3 0xF0 JUMP JUMPDEST POP SWAP1 JUMP JUMPDEST JUMPDEST DUP1 DUP3 GT ISZERO PUSH3 0x10B JUMPI PUSH1 0x0 DUP2 PUSH1 0x0 SWAP1 SSTORE POP PUSH1 0x1 ADD PUSH3 0xF1 JUMP JUMPDEST POP SWAP1 JUMP JUMPDEST PUSH1 0x0 PUSH3 0x126 PUSH3 0x120 DUP5 PUSH3 0x233 JUMP JUMPDEST PUSH3 0x20A JUMP JUMPDEST SWAP1 POP DUP3 DUP2 MSTORE PUSH1 0x20 DUP2 ADD DUP5 DUP5 DUP5 ADD GT ISZERO PUSH3 0x145 JUMPI PUSH3 0x144 PUSH3 0x378 JUMP JUMPDEST JUMPDEST PUSH3 0x152 DUP5 DUP3 DUP6 PUSH3 0x273 JUMP JUMPDEST POP SWAP4 SWAP3 POP POP POP JUMP JUMPDEST PUSH1 0x0 DUP3 PUSH1 0x1F DUP4 ADD SLT PUSH3 0x172 JUMPI PUSH3 0x171 PUSH3 0x373 JUMP JUMPDEST JUMPDEST DUP2 MLOAD PUSH3 0x184 DUP5 DUP3 PUSH1 0x20 DUP7 ADD PUSH3 0x10F JUMP JUMPDEST SWAP2 POP POP SWAP3 SWAP2 POP POP JUMP JUMPDEST PUSH1 0x0 DUP2 MLOAD SWAP1 POP PUSH3 0x19E DUP2 PUSH3 0x398 JUMP JUMPDEST SWAP3 SWAP2 POP POP JUMP JUMPDEST PUSH1 0x0 DUP1 PUSH1 0x40 DUP4 DUP6 SUB SLT ISZERO PUSH3 0x1BE JUMPI PUSH3 0x1BD PUSH3 0x382 JUMP JUMPDEST JUMPDEST PUSH1 0x0 PUSH3 0x1CE DUP6 DUP3 DUP7 ADD PUSH3 0x18D JUMP JUMPDEST SWAP3 POP POP PUSH1 0x20 DUP4 ADD MLOAD PUSH8 0xFFFFFFFFFFFFFFFF DUP2 GT ISZERO PUSH3 0x1F2 JUMPI PUSH3 0x1F1 PUSH3 0x37D JUMP JUMPDEST JUMPDEST PUSH3 0x200 DUP6 DUP3 DUP7 ADD PUSH3 0x15A JUMP JUMPDEST SWAP2 POP POP SWAP3 POP SWAP3 SWAP1 POP JUMP JUMPDEST PUSH1 0x0 PUSH3 0x216 PUSH3 0x229 JUMP JUMPDEST SWAP1 POP PUSH3 0x224 DUP3 DUP3 PUSH3 0x2DF JUMP JUMPDEST SWAP2 SWAP1 POP JUMP JUMPDEST PUSH1 0x0 PUSH1 0x40 MLOAD SWAP1 POP SWAP1 JUMP JUMPDEST PUSH1 0x0 PUSH8 0xFFFFFFFFFFFFFFFF DUP3 GT ISZERO PUSH3 0x251 JUMPI PUSH3 0x250 PUSH3 0x344 JUMP JUMPDEST JUMPDEST PUSH3 0x25C DUP3 PUSH3 0x387 JUMP JUMPDEST SWAP1 POP PUSH1 0x20 DUP2 ADD SWAP1 POP SWAP2 SWAP1 POP JUMP JUMPDEST PUSH1 0x0 DUP2 SWAP1 POP SWAP2 SWAP1 POP JUMP JUMPDEST PUSH1 0x0 JUMPDEST DUP4 DUP2 LT ISZERO PUSH3 0x293 JUMPI DUP1 DUP3 ADD MLOAD DUP2 DUP5 ADD MSTORE PUSH1 0x20 DUP2 ADD SWAP1 POP PUSH3 0x276 JUMP JUMPDEST DUP4 DUP2 GT ISZERO PUSH3 0x2A3 JUMPI PUSH1 0x0 DUP5 DUP5 ADD MSTORE JUMPDEST POP POP POP POP JUMP JUMPDEST PUSH1 0x0 PUSH1 0x2 DUP3 DIV SWAP1 POP PUSH1 0x1 DUP3 AND DUP1 PUSH3 0x2C2 JUMPI PUSH1 0x7F DUP3 AND SWAP2 POP JUMPDEST PUSH1 0x20 DUP3 LT DUP2 EQ ISZERO PUSH3 0x2D9 JUMPI PUSH3 0x2D8 PUSH3 0x315 JUMP JUMPDEST JUMPDEST POP SWAP2 SWAP1 POP JUMP JUMPDEST PUSH3 0x2EA DUP3 PUSH3 0x387 JUMP JUMPDEST DUP2 ADD DUP2 DUP2 LT PUSH8 0xFFFFFFFFFFFFFFFF DUP3 GT OR ISZERO PUSH3 0x30C JUMPI PUSH3 0x30B PUSH3 0x344 JUMP JUMPDEST JUMPDEST DUP1 PUSH1 0x40 MSTORE POP POP POP JUMP JUMPDEST PUSH32 0x4E487B7100000000000000000000000000000000000000000000000000000000 PUSH1 0x0 MSTORE PUSH1 0x22 PUSH1 0x4 MSTORE PUSH1 0x24 PUSH1 0x0 REVERT JUMPDEST PUSH32 0x4E487B7100000000000000000000000000000000000000000000000000000000 PUSH1 0x0 MSTORE PUSH1 0x41 PUSH1 0x4 MSTORE PUSH1 0x24 PUSH1 0x0 REVERT JUMPDEST PUSH1 0x0 DUP1 REVERT JUMPDEST PUSH1 0x0 DUP1 REVERT JUMPDEST PUSH1 0x0 DUP1 REVERT JUMPDEST PUSH1 0x0 DUP1 REVERT JUMPDEST PUSH1 0x0 PUSH1 0x1F NOT PUSH1 0x1F DUP4 ADD AND SWAP1 POP SWAP2 SWAP1 POP JUMP JUMPDEST PUSH3 0x3A3 DUP2 PUSH3 0x269 JUMP JUMPDEST DUP2 EQ PUSH3 0x3AF JUMPI PUSH1 0x0 DUP1 REVERT JUMPDEST POP JUMP JUMPDEST PUSH2 0x53C DUP1 PUSH3 0x3C2 PUSH1 0x0 CODECOPY PUSH1 0x0 RETURN INVALID PUSH1 0x80 PUSH1 0x40 MSTORE CALLVALUE DUP1 ISZERO PUSH2 0x10 JUMPI PUSH1 0x0 DUP1 REVERT JUMPDEST POP PUSH1 0x4 CALLDATASIZE LT PUSH2 0x41 JUMPI PUSH1 0x0 CALLDATALOAD PUSH1 0xE0 SHR DUP1 PUSH4 0x26002BF1 EQ PUSH2 0x46 JUMPI DUP1 PUSH4 0x903942B7 EQ PUSH2 0x65 JUMPI DUP1 PUSH4 0xA434261F EQ PUSH2 0x97 JUMPI JUMPDEST PUSH1 0x0 DUP1 REVERT JUMPDEST PUSH2 0x4E PUSH2 0xB3 JUMP JUMPDEST PUSH1 0x40 MLOAD PUSH2 0x5C SWAP3 SWAP2 SWAP1 PUSH2 0x36F JUMP JUMPDEST PUSH1 0x40 MLOAD DUP1 SWAP2 SUB SWAP1 RETURN JUMPDEST PUSH2 0x7F PUSH1 0x4 DUP1 CALLDATASIZE SUB DUP2 ADD SWAP1 PUSH2 0x7A SWAP2 SWAP1 PUSH2 0x298 JUMP JUMPDEST PUSH2 0x150 JUMP JUMPDEST PUSH1 0x40 MLOAD PUSH2 0x8E SWAP4 SWAP3 SWAP2 SWAP1 PUSH2 0x39F JUMP JUMPDEST PUSH1 0x40 MLOAD DUP1 SWAP2 SUB SWAP1 RETURN JUMPDEST PUSH2 0xB1 PUSH1 0x4 DUP1 CALLDATASIZE SUB DUP2 ADD SWAP1 PUSH2 0xAC SWAP2 SWAP1 PUSH2 0x2C5 JUMP JUMPDEST PUSH2 0x1C7 JUMP JUMPDEST STOP JUMPDEST PUSH1 0x0 PUSH1 0x60 PUSH1 0x1 SLOAD PUSH1 0x2 DUP1 DUP1 SLOAD PUSH2 0xC8 SWAP1 PUSH2 0x461 JUMP JUMPDEST DUP1 PUSH1 0x1F ADD PUSH1 0x20 DUP1 SWAP2 DIV MUL PUSH1 0x20 ADD PUSH1 0x40 MLOAD SWAP1 DUP2 ADD PUSH1 0x40 MSTORE DUP1 SWAP3 SWAP2 SWAP1 DUP2 DUP2 MSTORE PUSH1 0x20 ADD DUP3 DUP1 SLOAD PUSH2 0xF4 SWAP1 PUSH2 0x461 JUMP JUMPDEST DUP1 ISZERO PUSH2 0x141 JUMPI DUP1 PUSH1 0x1F LT PUSH2 0x116 JUMPI PUSH2 0x100 DUP1 DUP4 SLOAD DIV MUL DUP4 MSTORE SWAP2 PUSH1 0x20 ADD SWAP2 PUSH2 0x141 JUMP JUMPDEST DUP3 ADD SWAP2 SWAP1 PUSH1 0x0 MSTORE PUSH1 0x20 PUSH1 0x0 KECCAK256 SWAP1 JUMPDEST DUP2 SLOAD DUP2 MSTORE SWAP1 PUSH1 0x1 ADD SWAP1 PUSH1 0x20 ADD DUP1 DUP4 GT PUSH2 0x124 JUMPI DUP3 SWAP1 SUB PUSH1 0x1F AND DUP3 ADD SWAP2 JUMPDEST POP POP POP POP POP SWAP1 POP SWAP2 POP SWAP2 POP SWAP1 SWAP2 JUMP JUMPDEST PUSH1 0x0 DUP1 PUSH1 0x0 PUSH1 0x3 PUSH1 0x0 DUP6 DUP2 MSTORE PUSH1 0x20 ADD SWAP1 DUP2 MSTORE PUSH1 0x20 ADD PUSH1 0x0 KECCAK256 PUSH1 0x0 ADD SLOAD PUSH1 0x3 PUSH1 0x0 DUP7 DUP2 MSTORE PUSH1 0x20 ADD SWAP1 DUP2 MSTORE PUSH1 0x20 ADD PUSH1 0x0 KECCAK256 PUSH1 0x1 ADD SLOAD PUSH1 0x3 PUSH1 0x0 DUP8 DUP2 MSTORE PUSH1 0x20 ADD SWAP1 DUP2 MSTORE PUSH1 0x20 ADD PUSH1 0x0 KECCAK256 PUSH1 0x2 ADD PUSH1 0x0 SWAP1 SLOAD SWAP1 PUSH2 0x100 EXP SWAP1 DIV PUSH20 0xFFFFFFFFFFFFFFFFFFFFFFFFFFFFFFFFFFFFFFFF AND SWAP3 POP SWAP3 POP SWAP3 POP SWAP2 SWAP4 SWAP1 SWAP3 POP JUMP JUMPDEST PUSH1 0x40 MLOAD DUP1 PUSH1 0x60 ADD PUSH1 0x40 MSTORE DUP1 DUP5 DUP2 MSTORE PUSH1 0x20 ADD DUP4 DUP2 MSTORE PUSH1 0x20 ADD DUP3 PUSH20 0xFFFFFFFFFFFFFFFFFFFFFFFFFFFFFFFFFFFFFFFF AND DUP2 MSTORE POP PUSH1 0x3 PUSH1 0x0 DUP6 DUP2 MSTORE PUSH1 0x20 ADD SWAP1 DUP2 MSTORE PUSH1 0x20 ADD PUSH1 0x0 KECCAK256 PUSH1 0x0 DUP3 ADD MLOAD DUP2 PUSH1 0x0 ADD SSTORE PUSH1 0x20 DUP3 ADD MLOAD DUP2 PUSH1 0x1 ADD SSTORE PUSH1 0x40 DUP3 ADD MLOAD DUP2 PUSH1 0x2 ADD PUSH1 0x0 PUSH2 0x100 EXP DUP2 SLOAD DUP2 PUSH20 0xFFFFFFFFFFFFFFFFFFFFFFFFFFFFFFFFFFFFFFFF MUL NOT AND SWAP1 DUP4 PUSH20 0xFFFFFFFFFFFFFFFFFFFFFFFFFFFFFFFFFFFFFFFF AND MUL OR SWAP1 SSTORE POP SWAP1 POP POP POP POP POP JUMP JUMPDEST PUSH1 0x0 DUP2 CALLDATALOAD SWAP1 POP PUSH2 0x27D DUP2 PUSH2 0x4D8 JUMP JUMPDEST SWAP3 SWAP2 POP POP JUMP JUMPDEST PUSH1 0x0 DUP2 CALLDATALOAD SWAP1 POP PUSH2 0x292 DUP2 PUSH2 0x4EF JUMP JUMPDEST SWAP3 SWAP2 POP POP JUMP JUMPDEST PUSH1 0x0 PUSH1 0x20 DUP3 DUP5 SUB SLT ISZERO PUSH2 0x2AE JUMPI PUSH2 0x2AD PUSH2 0x4C2 JUMP JUMPDEST JUMPDEST PUSH1 0x0 PUSH2 0x2BC DUP5 DUP3 DUP6 ADD PUSH2 0x283 JUMP JUMPDEST SWAP2 POP POP SWAP3 SWAP2 POP POP JUMP JUMPDEST PUSH1 0x0 DUP1 PUSH1 0x0 PUSH1 0x60 DUP5 DUP7 SUB SLT ISZERO PUSH2 0x2DE JUMPI PUSH2 0x2DD PUSH2 0x4C2 JUMP JUMPDEST JUMPDEST PUSH1 0x0 PUSH2 0x2EC DUP7 DUP3 DUP8 ADD PUSH2 0x283 JUMP JUMPDEST SWAP4 POP POP PUSH1 0x20 PUSH2 0x2FD DUP7 DUP3 DUP8 ADD PUSH2 0x283 JUMP JUMPDEST SWAP3 POP POP PUSH1 0x40 PUSH2 0x30E DUP7 DUP3 DUP8 ADD PUSH2 0x26E JUMP JUMPDEST SWAP2 POP POP SWAP3 POP SWAP3 POP SWAP3 JUMP JUMPDEST PUSH2 0x321 DUP2 PUSH2 0x3F2 JUMP JUMPDEST DUP3 MSTORE POP POP JUMP JUMPDEST PUSH1 0x0 PUSH2 0x332 DUP3 PUSH2 0x3D6 JUMP JUMPDEST PUSH2 0x33C DUP2 DUP6 PUSH2 0x3E1 JUMP JUMPDEST SWAP4 POP PUSH2 0x34C DUP2 DUP6 PUSH1 0x20 DUP7 ADD PUSH2 0x42E JUMP JUMPDEST PUSH2 0x355 DUP2 PUSH2 0x4C7 JUMP JUMPDEST DUP5 ADD SWAP2 POP POP SWAP3 SWAP2 POP POP JUMP JUMPDEST PUSH2 0x369 DUP2 PUSH2 0x424 JUMP JUMPDEST DUP3 MSTORE POP POP JUMP JUMPDEST PUSH1 0x0 PUSH1 0x40 DUP3 ADD SWAP1 POP PUSH2 0x384 PUSH1 0x0 DUP4 ADD DUP6 PUSH2 0x360 JUMP JUMPDEST DUP2 DUP2 SUB PUSH1 0x20 DUP4 ADD MSTORE PUSH2 0x396 DUP2 DUP5 PUSH2 0x327 JUMP JUMPDEST SWAP1 POP SWAP4 SWAP3 POP POP POP JUMP JUMPDEST PUSH1 0x0 PUSH1 0x60 DUP3 ADD SWAP1 POP PUSH2 0x3B4 PUSH1 0x0 DUP4 ADD DUP7 PUSH2 0x360 JUMP JUMPDEST PUSH2 0x3C1 PUSH1 0x20 DUP4 ADD DUP6 PUSH2 0x360 JUMP JUMPDEST PUSH2 0x3CE PUSH1 0x40 DUP4 ADD DUP5 PUSH2 0x318 JUMP JUMPDEST SWAP5 SWAP4 POP POP POP POP JUMP JUMPDEST PUSH1 0x0 DUP2 MLOAD SWAP1 POP SWAP2 SWAP1 POP JUMP JUMPDEST PUSH1 0x0 DUP3 DUP3 MSTORE PUSH1 0x20 DUP3 ADD SWAP1 POP SWAP3 SWAP2 POP POP JUMP JUMPDEST PUSH1 0x0 PUSH2 0x3FD DUP3 PUSH2 0x404 JUMP JUMPDEST SWAP1 POP SWAP2 SWAP1 POP JUMP JUMPDEST PUSH1 0x0 PUSH20 0xFFFFFFFFFFFFFFFFFFFFFFFFFFFFFFFFFFFFFFFF DUP3 AND SWAP1 POP SWAP2 SWAP1 POP JUMP JUMPDEST PUSH1 0x0 DUP2 SWAP1 POP SWAP2 SWAP1 POP JUMP JUMPDEST PUSH1 0x0 JUMPDEST DUP4 DUP2 LT ISZERO PUSH2 0x44C JUMPI DUP1 DUP3 ADD MLOAD DUP2 DUP5 ADD MSTORE PUSH1 0x20 DUP2 ADD SWAP1 POP PUSH2 0x431 JUMP JUMPDEST DUP4 DUP2 GT ISZERO PUSH2 0x45B JUMPI PUSH1 0x0 DUP5 DUP5 ADD MSTORE JUMPDEST POP POP POP POP JUMP JUMPDEST PUSH1 0x0 PUSH1 0x2 DUP3 DIV SWAP1 POP PUSH1 0x1 DUP3 AND DUP1 PUSH2 0x479 JUMPI PUSH1 0x7F DUP3 AND SWAP2 POP JUMPDEST PUSH1 0x20 DUP3 LT DUP2 EQ ISZERO PUSH2 0x48D JUMPI PUSH2 0x48C PUSH2 0x493 JUMP JUMPDEST JUMPDEST POP SWAP2 SWAP1 POP JUMP JUMPDEST PUSH32 0x4E487B7100000000000000000000000000000000000000000000000000000000 PUSH1 0x0 MSTORE PUSH1 0x22 PUSH1 0x4 MSTORE PUSH1 0x24 PUSH1 0x0 REVERT JUMPDEST PUSH1 0x0 DUP1 REVERT JUMPDEST PUSH1 0x0 PUSH1 0x1F NOT PUSH1 0x1F DUP4 ADD AND SWAP1 POP SWAP2 SWAP1 POP JUMP JUMPDEST PUSH2 0x4E1 DUP2 PUSH2 0x3F2 JUMP JUMPDEST DUP2 EQ PUSH2 0x4EC JUMPI PUSH1 0x0 DUP1 REVERT JUMPDEST POP JUMP JUMPDEST PUSH2 0x4F8 DUP2 PUSH2 0x424 JUMP JUMPDEST DUP2 EQ PUSH2 0x503 JUMPI PUSH1 0x0 DUP1 REVERT JUMPDEST POP JUMP INVALID LOG2 PUSH5 0x6970667358 0x22 SLT KECCAK256 PUSH32 0x8368898A93E2A355BDD4ADDE546184D772F805E8F0A454C67C9821CE929D7264 PUSH20 0x6F6C634300080700330000000000000000000000 "
				},
				"gasEstimates": {
					"creation": {
						"codeDepositCost": "268000",
						"executionCost": "infinite",
						"totalCost": "infinite"
					},
					"external": {
						"getAllseat(uint256)": "infinite",
						"getBusInfo()": "infinite",
						"reservationBus(uint256,uint256,address)": "infinite"
					}
				},
				"methodIdentifiers": {
					"getAllseat(uint256)": "903942b7",
					"getBusInfo()": "26002bf1",
					"reservationBus(uint256,uint256,address)": "a434261f"
				}
			},
			"storageLayout": {
				"storage": [
					{
						"astId": 11,
						"contract": "contracts/Bus.sol:Bus",
						"label": "student",
						"offset": 0,
						"slot": "0",
						"type": "t_address"
					},
					{
						"astId": 13,
						"contract": "contracts/Bus.sol:Bus",
						"label": "busNum",
						"offset": 0,
						"slot": "1",
						"type": "t_uint256"
					},
					{
						"astId": 15,
						"contract": "contracts/Bus.sol:Bus",
						"label": "destination",
						"offset": 0,
						"slot": "2",
						"type": "t_string_storage"
					},
					{
						"astId": 36,
						"contract": "contracts/Bus.sol:Bus",
						"label": "busSeat",
						"offset": 0,
						"slot": "3",
						"type": "t_mapping(t_uint256,t_struct(seat)9_storage)"
					}
				],
				"types": {
					"t_address": {
						"encoding": "inplace",
						"label": "address",
						"numberOfBytes": "20"
					},
					"t_mapping(t_uint256,t_struct(seat)9_storage)": {
						"encoding": "mapping",
						"key": "t_uint256",
						"label": "mapping(uint256 => struct Bus.seat)",
						"numberOfBytes": "32",
						"value": "t_struct(seat)9_storage"
					},
					"t_string_storage": {
						"encoding": "bytes",
						"label": "string",
						"numberOfBytes": "32"
					},
					"t_struct(seat)9_storage": {
						"encoding": "inplace",
						"label": "struct Bus.seat",
						"members": [
							{
								"astId": 4,
								"contract": "contracts/Bus.sol:Bus",
								"label": "seatNum",
								"offset": 0,
								"slot": "0",
								"type": "t_uint256"
							},
							{
								"astId": 6,
								"contract": "contracts/Bus.sol:Bus",
								"label": "studentId",
								"offset": 0,
								"slot": "1",
								"type": "t_uint256"
							},
							{
								"astId": 8,
								"contract": "contracts/Bus.sol:Bus",
								"label": "student",
								"offset": 0,
								"slot": "2",
								"type": "t_address"
							}
						],
						"numberOfBytes": "96"
					},
					"t_uint256": {
						"encoding": "inplace",
						"label": "uint256",
						"numberOfBytes": "32"
					}
				}
			},
			"userdoc": {
				"kind": "user",
				"methods": {},
				"version": 1
			}
		}
	}
}