{
	"contracts/minsubus.sol": {
		"Database": {
			"abi": [
				{
					"inputs": [
						{
							"internalType": "address[]",
							"name": "_owner",
							"type": "address[]"
						}
					],
					"stateMutability": "nonpayable",
					"type": "constructor"
				},
				{
					"inputs": [
						{
							"internalType": "address",
							"name": "bus",
							"type": "address"
						},
						{
							"internalType": "string",
							"name": "destination",
							"type": "string"
						},
						{
							"internalType": "uint256",
							"name": "start_time",
							"type": "uint256"
						},
						{
							"internalType": "string",
							"name": "busNum",
							"type": "string"
						}
					],
					"name": "addBus",
					"outputs": [],
					"stateMutability": "nonpayable",
					"type": "function"
				},
				{
					"inputs": [
						{
							"internalType": "string",
							"name": "student_name",
							"type": "string"
						},
						{
							"internalType": "uint256",
							"name": "studentNum",
							"type": "uint256"
						},
						{
							"internalType": "address",
							"name": "students",
							"type": "address"
						}
					],
					"name": "addStudent",
					"outputs": [],
					"stateMutability": "nonpayable",
					"type": "function"
				},
				{
					"inputs": [
						{
							"internalType": "uint256",
							"name": "_num",
							"type": "uint256"
						}
					],
					"name": "deleteStudent",
					"outputs": [
						{
							"internalType": "string",
							"name": "",
							"type": "string"
						}
					],
					"stateMutability": "nonpayable",
					"type": "function"
				},
				{
					"inputs": [
						{
							"internalType": "uint256",
							"name": "_num",
							"type": "uint256"
						}
					],
					"name": "getStudents",
					"outputs": [
						{
							"internalType": "string",
							"name": "",
							"type": "string"
						},
						{
							"internalType": "address",
							"name": "",
							"type": "address"
						}
					],
					"stateMutability": "view",
					"type": "function"
				}
			],
			"devdoc": {
				"details": "Save Professor",
				"kind": "dev",
				"methods": {},
				"title": "Database",
				"version": 1
			},
			"evm": {
				"assembly": "    /* \"contracts/minsubus.sol\":148:1864  contract Database {... */\n  mstore(0x40, 0x80)\n    /* \"contracts/minsubus.sol\":905:972  constructor(address[] memory _owner){... */\n  callvalue\n  dup1\n  iszero\n  tag_1\n  jumpi\n  0x00\n  dup1\n  revert\ntag_1:\n  pop\n  mload(0x40)\n  sub(codesize, bytecodeSize)\n  dup1\n  bytecodeSize\n  dup4\n  codecopy\n  dup2\n  dup2\n  add\n  0x40\n  mstore\n  dup2\n  add\n  swap1\n  tag_2\n  swap2\n  swap1\n  tag_3\n  jump\t// in\ntag_2:\n    /* \"contracts/minsubus.sol\":959:965  _owner */\n  dup1\n    /* \"contracts/minsubus.sol\":951:956  owner */\n  0x03\n    /* \"contracts/minsubus.sol\":951:965  owner = _owner */\n  swap1\n  dup1\n  mload\n  swap1\n  0x20\n  add\n  swap1\n  tag_6\n  swap3\n  swap2\n  swap1\n  tag_7\n  jump\t// in\ntag_6:\n  pop\n    /* \"contracts/minsubus.sol\":905:972  constructor(address[] memory _owner){... */\n  pop\n    /* \"contracts/minsubus.sol\":148:1864  contract Database {... */\n  jump(tag_8)\ntag_7:\n  dup3\n  dup1\n  sload\n  dup3\n  dup3\n  sstore\n  swap1\n  0x00\n  mstore\n  keccak256(0x00, 0x20)\n  swap1\n  dup2\n  add\n  swap3\n  dup3\n  iszero\n  tag_9\n  jumpi\n  swap2\n  0x20\n  mul\n  dup3\n  add\ntag_10:\n  dup3\n  dup2\n  gt\n  iszero\n  tag_11\n  jumpi\n  dup3\n  mload\n  dup3\n  exp(0x0100, 0x00)\n  dup2\n  sload\n  dup2\n  0xffffffffffffffffffffffffffffffffffffffff\n  mul\n  not\n  and\n  swap1\n  dup4\n  0xffffffffffffffffffffffffffffffffffffffff\n  and\n  mul\n  or\n  swap1\n  sstore\n  pop\n  swap2\n  0x20\n  add\n  swap2\n  swap1\n  0x01\n  add\n  swap1\n  jump(tag_10)\ntag_11:\ntag_9:\n  pop\n  swap1\n  pop\n  tag_12\n  swap2\n  swap1\n  tag_13\n  jump\t// in\ntag_12:\n  pop\n  swap1\n  jump\t// out\ntag_13:\ntag_14:\n  dup1\n  dup3\n  gt\n  iszero\n  tag_15\n  jumpi\n  0x00\n  dup2\n  0x00\n  swap1\n  sstore\n  pop\n  0x01\n  add\n  jump(tag_14)\ntag_15:\n  pop\n  swap1\n  jump\t// out\n    /* \"#utility.yul\":24:768   */\ntag_17:\n    /* \"#utility.yul\":131:136   */\n  0x00\n    /* \"#utility.yul\":156:237   */\n  tag_19\n    /* \"#utility.yul\":172:236   */\n  tag_20\n    /* \"#utility.yul\":229:235   */\n  dup5\n    /* \"#utility.yul\":172:236   */\n  tag_21\n  jump\t// in\ntag_20:\n    /* \"#utility.yul\":156:237   */\n  tag_22\n  jump\t// in\ntag_19:\n    /* \"#utility.yul\":147:237   */\n  swap1\n  pop\n    /* \"#utility.yul\":257:262   */\n  dup1\n    /* \"#utility.yul\":286:292   */\n  dup4\n    /* \"#utility.yul\":279:284   */\n  dup3\n    /* \"#utility.yul\":272:293   */\n  mstore\n    /* \"#utility.yul\":320:324   */\n  0x20\n    /* \"#utility.yul\":313:318   */\n  dup3\n    /* \"#utility.yul\":309:325   */\n  add\n    /* \"#utility.yul\":302:325   */\n  swap1\n  pop\n    /* \"#utility.yul\":346:352   */\n  dup3\n    /* \"#utility.yul\":396:399   */\n  dup6\n    /* \"#utility.yul\":388:392   */\n  0x20\n    /* \"#utility.yul\":380:386   */\n  dup7\n    /* \"#utility.yul\":376:393   */\n  mul\n    /* \"#utility.yul\":371:374   */\n  dup3\n    /* \"#utility.yul\":367:394   */\n  add\n    /* \"#utility.yul\":364:400   */\n  gt\n    /* \"#utility.yul\":361:504   */\n  iszero\n  tag_23\n  jumpi\n    /* \"#utility.yul\":415:494   */\n  tag_24\n  tag_25\n  jump\t// in\ntag_24:\n    /* \"#utility.yul\":361:504   */\ntag_23:\n    /* \"#utility.yul\":528:529   */\n  0x00\n    /* \"#utility.yul\":513:762   */\ntag_26:\n    /* \"#utility.yul\":538:544   */\n  dup6\n    /* \"#utility.yul\":535:536   */\n  dup2\n    /* \"#utility.yul\":532:545   */\n  lt\n    /* \"#utility.yul\":513:762   */\n  iszero\n  tag_28\n  jumpi\n    /* \"#utility.yul\":606:609   */\n  dup2\n    /* \"#utility.yul\":635:683   */\n  tag_29\n    /* \"#utility.yul\":679:682   */\n  dup9\n    /* \"#utility.yul\":667:677   */\n  dup3\n    /* \"#utility.yul\":635:683   */\n  tag_30\n  jump\t// in\ntag_29:\n    /* \"#utility.yul\":630:633   */\n  dup5\n    /* \"#utility.yul\":623:684   */\n  mstore\n    /* \"#utility.yul\":713:717   */\n  0x20\n    /* \"#utility.yul\":708:711   */\n  dup5\n    /* \"#utility.yul\":704:718   */\n  add\n    /* \"#utility.yul\":697:718   */\n  swap4\n  pop\n    /* \"#utility.yul\":747:751   */\n  0x20\n    /* \"#utility.yul\":742:745   */\n  dup4\n    /* \"#utility.yul\":738:752   */\n  add\n    /* \"#utility.yul\":731:752   */\n  swap3\n  pop\n    /* \"#utility.yul\":573:762   */\n  pop\n    /* \"#utility.yul\":560:561   */\n  0x01\n    /* \"#utility.yul\":557:558   */\n  dup2\n    /* \"#utility.yul\":553:562   */\n  add\n    /* \"#utility.yul\":548:562   */\n  swap1\n  pop\n    /* \"#utility.yul\":513:762   */\n  jump(tag_26)\ntag_28:\n    /* \"#utility.yul\":517:531   */\n  pop\n    /* \"#utility.yul\":137:768   */\n  pop\n  pop\n    /* \"#utility.yul\":24:768   */\n  swap4\n  swap3\n  pop\n  pop\n  pop\n  jump\t// out\n    /* \"#utility.yul\":774:917   */\ntag_30:\n    /* \"#utility.yul\":831:836   */\n  0x00\n    /* \"#utility.yul\":862:868   */\n  dup2\n    /* \"#utility.yul\":856:869   */\n  mload\n    /* \"#utility.yul\":847:869   */\n  swap1\n  pop\n    /* \"#utility.yul\":878:911   */\n  tag_32\n    /* \"#utility.yul\":905:910   */\n  dup2\n    /* \"#utility.yul\":878:911   */\n  tag_33\n  jump\t// in\ntag_32:\n    /* \"#utility.yul\":774:917   */\n  swap3\n  swap2\n  pop\n  pop\n  jump\t// out\n    /* \"#utility.yul\":940:1325   */\ntag_34:\n    /* \"#utility.yul\":1022:1027   */\n  0x00\n    /* \"#utility.yul\":1071:1074   */\n  dup3\n    /* \"#utility.yul\":1064:1068   */\n  0x1f\n    /* \"#utility.yul\":1056:1062   */\n  dup4\n    /* \"#utility.yul\":1052:1069   */\n  add\n    /* \"#utility.yul\":1048:1075   */\n  slt\n    /* \"#utility.yul\":1038:1160   */\n  tag_36\n  jumpi\n    /* \"#utility.yul\":1079:1158   */\n  tag_37\n  tag_38\n  jump\t// in\ntag_37:\n    /* \"#utility.yul\":1038:1160   */\ntag_36:\n    /* \"#utility.yul\":1189:1195   */\n  dup2\n    /* \"#utility.yul\":1183:1196   */\n  mload\n    /* \"#utility.yul\":1214:1319   */\n  tag_39\n    /* \"#utility.yul\":1315:1318   */\n  dup5\n    /* \"#utility.yul\":1307:1313   */\n  dup3\n    /* \"#utility.yul\":1300:1304   */\n  0x20\n    /* \"#utility.yul\":1292:1298   */\n  dup7\n    /* \"#utility.yul\":1288:1305   */\n  add\n    /* \"#utility.yul\":1214:1319   */\n  tag_17\n  jump\t// in\ntag_39:\n    /* \"#utility.yul\":1205:1319   */\n  swap2\n  pop\n    /* \"#utility.yul\":1028:1325   */\n  pop\n    /* \"#utility.yul\":940:1325   */\n  swap3\n  swap2\n  pop\n  pop\n  jump\t// out\n    /* \"#utility.yul\":1331:1885   */\ntag_3:\n    /* \"#utility.yul\":1426:1432   */\n  0x00\n    /* \"#utility.yul\":1475:1477   */\n  0x20\n    /* \"#utility.yul\":1463:1472   */\n  dup3\n    /* \"#utility.yul\":1454:1461   */\n  dup5\n    /* \"#utility.yul\":1450:1473   */\n  sub\n    /* \"#utility.yul\":1446:1478   */\n  slt\n    /* \"#utility.yul\":1443:1562   */\n  iszero\n  tag_41\n  jumpi\n    /* \"#utility.yul\":1481:1560   */\n  tag_42\n  tag_43\n  jump\t// in\ntag_42:\n    /* \"#utility.yul\":1443:1562   */\ntag_41:\n    /* \"#utility.yul\":1622:1623   */\n  0x00\n    /* \"#utility.yul\":1611:1620   */\n  dup3\n    /* \"#utility.yul\":1607:1624   */\n  add\n    /* \"#utility.yul\":1601:1625   */\n  mload\n    /* \"#utility.yul\":1652:1670   */\n  0xffffffffffffffff\n    /* \"#utility.yul\":1644:1650   */\n  dup2\n    /* \"#utility.yul\":1641:1671   */\n  gt\n    /* \"#utility.yul\":1638:1755   */\n  iszero\n  tag_44\n  jumpi\n    /* \"#utility.yul\":1674:1753   */\n  tag_45\n  tag_46\n  jump\t// in\ntag_45:\n    /* \"#utility.yul\":1638:1755   */\ntag_44:\n    /* \"#utility.yul\":1779:1868   */\n  tag_47\n    /* \"#utility.yul\":1860:1867   */\n  dup5\n    /* \"#utility.yul\":1851:1857   */\n  dup3\n    /* \"#utility.yul\":1840:1849   */\n  dup6\n    /* \"#utility.yul\":1836:1858   */\n  add\n    /* \"#utility.yul\":1779:1868   */\n  tag_34\n  jump\t// in\ntag_47:\n    /* \"#utility.yul\":1769:1868   */\n  swap2\n  pop\n    /* \"#utility.yul\":1572:1878   */\n  pop\n    /* \"#utility.yul\":1331:1885   */\n  swap3\n  swap2\n  pop\n  pop\n  jump\t// out\n    /* \"#utility.yul\":1891:2020   */\ntag_22:\n    /* \"#utility.yul\":1925:1931   */\n  0x00\n    /* \"#utility.yul\":1952:1972   */\n  tag_49\n  tag_50\n  jump\t// in\ntag_49:\n    /* \"#utility.yul\":1942:1972   */\n  swap1\n  pop\n    /* \"#utility.yul\":1981:2014   */\n  tag_51\n    /* \"#utility.yul\":2009:2013   */\n  dup3\n    /* \"#utility.yul\":2001:2007   */\n  dup3\n    /* \"#utility.yul\":1981:2014   */\n  tag_52\n  jump\t// in\ntag_51:\n    /* \"#utility.yul\":1891:2020   */\n  swap2\n  swap1\n  pop\n  jump\t// out\n    /* \"#utility.yul\":2026:2101   */\ntag_50:\n    /* \"#utility.yul\":2059:2065   */\n  0x00\n    /* \"#utility.yul\":2092:2094   */\n  0x40\n    /* \"#utility.yul\":2086:2095   */\n  mload\n    /* \"#utility.yul\":2076:2095   */\n  swap1\n  pop\n    /* \"#utility.yul\":2026:2101   */\n  swap1\n  jump\t// out\n    /* \"#utility.yul\":2107:2418   */\ntag_21:\n    /* \"#utility.yul\":2184:2188   */\n  0x00\n    /* \"#utility.yul\":2274:2292   */\n  0xffffffffffffffff\n    /* \"#utility.yul\":2266:2272   */\n  dup3\n    /* \"#utility.yul\":2263:2293   */\n  gt\n    /* \"#utility.yul\":2260:2316   */\n  iszero\n  tag_55\n  jumpi\n    /* \"#utility.yul\":2296:2314   */\n  tag_56\n  tag_57\n  jump\t// in\ntag_56:\n    /* \"#utility.yul\":2260:2316   */\ntag_55:\n    /* \"#utility.yul\":2346:2350   */\n  0x20\n    /* \"#utility.yul\":2338:2344   */\n  dup3\n    /* \"#utility.yul\":2334:2351   */\n  mul\n    /* \"#utility.yul\":2326:2351   */\n  swap1\n  pop\n    /* \"#utility.yul\":2406:2410   */\n  0x20\n    /* \"#utility.yul\":2400:2404   */\n  dup2\n    /* \"#utility.yul\":2396:2411   */\n  add\n    /* \"#utility.yul\":2388:2411   */\n  swap1\n  pop\n    /* \"#utility.yul\":2107:2418   */\n  swap2\n  swap1\n  pop\n  jump\t// out\n    /* \"#utility.yul\":2424:2520   */\ntag_58:\n    /* \"#utility.yul\":2461:2468   */\n  0x00\n    /* \"#utility.yul\":2490:2514   */\n  tag_60\n    /* \"#utility.yul\":2508:2513   */\n  dup3\n    /* \"#utility.yul\":2490:2514   */\n  tag_61\n  jump\t// in\ntag_60:\n    /* \"#utility.yul\":2479:2514   */\n  swap1\n  pop\n    /* \"#utility.yul\":2424:2520   */\n  swap2\n  swap1\n  pop\n  jump\t// out\n    /* \"#utility.yul\":2526:2652   */\ntag_61:\n    /* \"#utility.yul\":2563:2570   */\n  0x00\n    /* \"#utility.yul\":2603:2645   */\n  0xffffffffffffffffffffffffffffffffffffffff\n    /* \"#utility.yul\":2596:2601   */\n  dup3\n    /* \"#utility.yul\":2592:2646   */\n  and\n    /* \"#utility.yul\":2581:2646   */\n  swap1\n  pop\n    /* \"#utility.yul\":2526:2652   */\n  swap2\n  swap1\n  pop\n  jump\t// out\n    /* \"#utility.yul\":2658:2939   */\ntag_52:\n    /* \"#utility.yul\":2741:2768   */\n  tag_64\n    /* \"#utility.yul\":2763:2767   */\n  dup3\n    /* \"#utility.yul\":2741:2768   */\n  tag_65\n  jump\t// in\ntag_64:\n    /* \"#utility.yul\":2733:2739   */\n  dup2\n    /* \"#utility.yul\":2729:2769   */\n  add\n    /* \"#utility.yul\":2871:2877   */\n  dup2\n    /* \"#utility.yul\":2859:2869   */\n  dup2\n    /* \"#utility.yul\":2856:2878   */\n  lt\n    /* \"#utility.yul\":2835:2853   */\n  0xffffffffffffffff\n    /* \"#utility.yul\":2823:2833   */\n  dup3\n    /* \"#utility.yul\":2820:2854   */\n  gt\n    /* \"#utility.yul\":2817:2879   */\n  or\n    /* \"#utility.yul\":2814:2902   */\n  iszero\n  tag_66\n  jumpi\n    /* \"#utility.yul\":2882:2900   */\n  tag_67\n  tag_57\n  jump\t// in\ntag_67:\n    /* \"#utility.yul\":2814:2902   */\ntag_66:\n    /* \"#utility.yul\":2922:2932   */\n  dup1\n    /* \"#utility.yul\":2918:2920   */\n  0x40\n    /* \"#utility.yul\":2911:2933   */\n  mstore\n    /* \"#utility.yul\":2701:2939   */\n  pop\n    /* \"#utility.yul\":2658:2939   */\n  pop\n  pop\n  jump\t// out\n    /* \"#utility.yul\":2945:3125   */\ntag_57:\n    /* \"#utility.yul\":2993:3070   */\n  0x4e487b7100000000000000000000000000000000000000000000000000000000\n    /* \"#utility.yul\":2990:2991   */\n  0x00\n    /* \"#utility.yul\":2983:3071   */\n  mstore\n    /* \"#utility.yul\":3090:3094   */\n  0x41\n    /* \"#utility.yul\":3087:3088   */\n  0x04\n    /* \"#utility.yul\":3080:3095   */\n  mstore\n    /* \"#utility.yul\":3114:3118   */\n  0x24\n    /* \"#utility.yul\":3111:3112   */\n  0x00\n    /* \"#utility.yul\":3104:3119   */\n  revert\n    /* \"#utility.yul\":3131:3248   */\ntag_38:\n    /* \"#utility.yul\":3240:3241   */\n  0x00\n    /* \"#utility.yul\":3237:3238   */\n  dup1\n    /* \"#utility.yul\":3230:3242   */\n  revert\n    /* \"#utility.yul\":3254:3371   */\ntag_25:\n    /* \"#utility.yul\":3363:3364   */\n  0x00\n    /* \"#utility.yul\":3360:3361   */\n  dup1\n    /* \"#utility.yul\":3353:3365   */\n  revert\n    /* \"#utility.yul\":3377:3494   */\ntag_46:\n    /* \"#utility.yul\":3486:3487   */\n  0x00\n    /* \"#utility.yul\":3483:3484   */\n  dup1\n    /* \"#utility.yul\":3476:3488   */\n  revert\n    /* \"#utility.yul\":3500:3617   */\ntag_43:\n    /* \"#utility.yul\":3609:3610   */\n  0x00\n    /* \"#utility.yul\":3606:3607   */\n  dup1\n    /* \"#utility.yul\":3599:3611   */\n  revert\n    /* \"#utility.yul\":3623:3725   */\ntag_65:\n    /* \"#utility.yul\":3664:3670   */\n  0x00\n    /* \"#utility.yul\":3715:3717   */\n  0x1f\n    /* \"#utility.yul\":3711:3718   */\n  not\n    /* \"#utility.yul\":3706:3708   */\n  0x1f\n    /* \"#utility.yul\":3699:3704   */\n  dup4\n    /* \"#utility.yul\":3695:3709   */\n  add\n    /* \"#utility.yul\":3691:3719   */\n  and\n    /* \"#utility.yul\":3681:3719   */\n  swap1\n  pop\n    /* \"#utility.yul\":3623:3725   */\n  swap2\n  swap1\n  pop\n  jump\t// out\n    /* \"#utility.yul\":3731:3853   */\ntag_33:\n    /* \"#utility.yul\":3804:3828   */\n  tag_75\n    /* \"#utility.yul\":3822:3827   */\n  dup2\n    /* \"#utility.yul\":3804:3828   */\n  tag_58\n  jump\t// in\ntag_75:\n    /* \"#utility.yul\":3797:3802   */\n  dup2\n    /* \"#utility.yul\":3794:3829   */\n  eq\n    /* \"#utility.yul\":3784:3847   */\n  tag_76\n  jumpi\n    /* \"#utility.yul\":3843:3844   */\n  0x00\n    /* \"#utility.yul\":3840:3841   */\n  dup1\n    /* \"#utility.yul\":3833:3845   */\n  revert\n    /* \"#utility.yul\":3784:3847   */\ntag_76:\n    /* \"#utility.yul\":3731:3853   */\n  pop\n  jump\t// out\n    /* \"contracts/minsubus.sol\":148:1864  contract Database {... */\ntag_8:\n  dataSize(sub_0)\n  dup1\n  dataOffset(sub_0)\n  0x00\n  codecopy\n  0x00\n  return\nstop\n\nsub_0: assembly {\n        /* \"contracts/minsubus.sol\":148:1864  contract Database {... */\n      mstore(0x40, 0x80)\n      callvalue\n      dup1\n      iszero\n      tag_1\n      jumpi\n      0x00\n      dup1\n      revert\n    tag_1:\n      pop\n      jumpi(tag_2, lt(calldatasize, 0x04))\n      shr(0xe0, calldataload(0x00))\n      dup1\n      0x9a4d3c\n      eq\n      tag_3\n      jumpi\n      dup1\n      0x75c2f8f0\n      eq\n      tag_4\n      jumpi\n      dup1\n      0xb645307d\n      eq\n      tag_5\n      jumpi\n      dup1\n      0xe9e8a17c\n      eq\n      tag_6\n      jumpi\n    tag_2:\n      0x00\n      dup1\n      revert\n        /* \"contracts/minsubus.sol\":1148:1352  function addBus(address bus, string memory destination, uint start_time, string memory busNum) public {... */\n    tag_3:\n      tag_7\n      0x04\n      dup1\n      calldatasize\n      sub\n      dup2\n      add\n      swap1\n      tag_8\n      swap2\n      swap1\n      tag_9\n      jump\t// in\n    tag_8:\n      tag_10\n      jump\t// in\n    tag_7:\n      stop\n        /* \"contracts/minsubus.sol\":1593:1861  function getStudents(uint _num) public view returns(string memory, address){... */\n    tag_4:\n      tag_11\n      0x04\n      dup1\n      calldatasize\n      sub\n      dup2\n      add\n      swap1\n      tag_12\n      swap2\n      swap1\n      tag_13\n      jump\t// in\n    tag_12:\n      tag_14\n      jump\t// in\n    tag_11:\n      mload(0x40)\n      tag_15\n      swap3\n      swap2\n      swap1\n      tag_16\n      jump\t// in\n    tag_15:\n      mload(0x40)\n      dup1\n      swap2\n      sub\n      swap1\n      return\n        /* \"contracts/minsubus.sol\":1358:1587  function deleteStudent(uint _num) public returns(string memory){... */\n    tag_5:\n      tag_17\n      0x04\n      dup1\n      calldatasize\n      sub\n      dup2\n      add\n      swap1\n      tag_18\n      swap2\n      swap1\n      tag_13\n      jump\t// in\n    tag_18:\n      tag_19\n      jump\t// in\n    tag_17:\n      mload(0x40)\n      tag_20\n      swap2\n      swap1\n      tag_21\n      jump\t// in\n    tag_20:\n      mload(0x40)\n      dup1\n      swap2\n      sub\n      swap1\n      return\n        /* \"contracts/minsubus.sol\":978:1142  function addStudent(string memory student_name, uint studentNum, address students) public {... */\n    tag_6:\n      tag_22\n      0x04\n      dup1\n      calldatasize\n      sub\n      dup2\n      add\n      swap1\n      tag_23\n      swap2\n      swap1\n      tag_24\n      jump\t// in\n    tag_23:\n      tag_25\n      jump\t// in\n    tag_22:\n      stop\n        /* \"contracts/minsubus.sol\":1148:1352  function addBus(address bus, string memory destination, uint start_time, string memory busNum) public {... */\n    tag_10:\n        /* \"contracts/minsubus.sol\":1258:1278  uint[45] memory seat */\n      tag_27\n      tag_28\n      jump\t// in\n    tag_27:\n        /* \"contracts/minsubus.sol\":1303:1345  Bus_DB(bus, destination, start_time, seat) */\n      mload(0x40)\n      dup1\n      0x80\n      add\n      0x40\n      mstore\n      dup1\n        /* \"contracts/minsubus.sol\":1310:1313  bus */\n      dup7\n        /* \"contracts/minsubus.sol\":1303:1345  Bus_DB(bus, destination, start_time, seat) */\n      0xffffffffffffffffffffffffffffffffffffffff\n      and\n      dup2\n      mstore\n      0x20\n      add\n        /* \"contracts/minsubus.sol\":1315:1326  destination */\n      dup6\n        /* \"contracts/minsubus.sol\":1303:1345  Bus_DB(bus, destination, start_time, seat) */\n      dup2\n      mstore\n      0x20\n      add\n        /* \"contracts/minsubus.sol\":1328:1338  start_time */\n      dup5\n        /* \"contracts/minsubus.sol\":1303:1345  Bus_DB(bus, destination, start_time, seat) */\n      dup2\n      mstore\n      0x20\n      add\n        /* \"contracts/minsubus.sol\":1340:1344  seat */\n      dup3\n        /* \"contracts/minsubus.sol\":1303:1345  Bus_DB(bus, destination, start_time, seat) */\n      dup2\n      mstore\n      pop\n        /* \"contracts/minsubus.sol\":1287:1292  BusDB */\n      0x06\n        /* \"contracts/minsubus.sol\":1293:1299  busNum */\n      dup4\n        /* \"contracts/minsubus.sol\":1287:1300  BusDB[busNum] */\n      mload(0x40)\n      tag_29\n      swap2\n      swap1\n      tag_30\n      jump\t// in\n    tag_29:\n      swap1\n      dup2\n      mstore\n      0x20\n      add\n      mload(0x40)\n      dup1\n      swap2\n      sub\n      swap1\n      keccak256\n        /* \"contracts/minsubus.sol\":1287:1345  BusDB[busNum] = Bus_DB(bus, destination, start_time, seat) */\n      0x00\n      dup3\n      add\n      mload\n      dup2\n      0x00\n      add\n      exp(0x0100, 0x00)\n      dup2\n      sload\n      dup2\n      0xffffffffffffffffffffffffffffffffffffffff\n      mul\n      not\n      and\n      swap1\n      dup4\n      0xffffffffffffffffffffffffffffffffffffffff\n      and\n      mul\n      or\n      swap1\n      sstore\n      pop\n      0x20\n      dup3\n      add\n      mload\n      dup2\n      0x01\n      add\n      swap1\n      dup1\n      mload\n      swap1\n      0x20\n      add\n      swap1\n      tag_31\n      swap3\n      swap2\n      swap1\n      tag_32\n      jump\t// in\n    tag_31:\n      pop\n      0x40\n      dup3\n      add\n      mload\n      dup2\n      0x02\n      add\n      sstore\n      0x60\n      dup3\n      add\n      mload\n      dup2\n      0x03\n      add\n      swap1\n      0x2d\n      tag_33\n      swap3\n      swap2\n      swap1\n      tag_34\n      jump\t// in\n    tag_33:\n      pop\n      swap1\n      pop\n      pop\n        /* \"contracts/minsubus.sol\":1250:1352  {... */\n      pop\n        /* \"contracts/minsubus.sol\":1148:1352  function addBus(address bus, string memory destination, uint start_time, string memory busNum) public {... */\n      pop\n      pop\n      pop\n      pop\n      jump\t// out\n        /* \"contracts/minsubus.sol\":1593:1861  function getStudents(uint _num) public view returns(string memory, address){... */\n    tag_14:\n        /* \"contracts/minsubus.sol\":1645:1658  string memory */\n      0x60\n        /* \"contracts/minsubus.sol\":1660:1667  address */\n      0x00\n        /* \"contracts/minsubus.sol\":1678:1696  string memory name */\n      0x60\n        /* \"contracts/minsubus.sol\":1706:1725  address student_add */\n      0x00\n        /* \"contracts/minsubus.sol\":1743:1752  StudentDB */\n      0x07\n        /* \"contracts/minsubus.sol\":1743:1758  StudentDB[_num] */\n      0x00\n        /* \"contracts/minsubus.sol\":1753:1757  _num */\n      dup7\n        /* \"contracts/minsubus.sol\":1743:1758  StudentDB[_num] */\n      dup2\n      mstore\n      0x20\n      add\n      swap1\n      dup2\n      mstore\n      0x20\n      add\n      0x00\n      keccak256\n        /* \"contracts/minsubus.sol\":1743:1771  StudentDB[_num].student_name */\n      0x00\n      add\n        /* \"contracts/minsubus.sol\":1736:1771  name = StudentDB[_num].student_name */\n      dup1\n      sload\n      tag_36\n      swap1\n      tag_37\n      jump\t// in\n    tag_36:\n      dup1\n      0x1f\n      add\n      0x20\n      dup1\n      swap2\n      div\n      mul\n      0x20\n      add\n      mload(0x40)\n      swap1\n      dup2\n      add\n      0x40\n      mstore\n      dup1\n      swap3\n      swap2\n      swap1\n      dup2\n      dup2\n      mstore\n      0x20\n      add\n      dup3\n      dup1\n      sload\n      tag_38\n      swap1\n      tag_37\n      jump\t// in\n    tag_38:\n      dup1\n      iszero\n      tag_39\n      jumpi\n      dup1\n      0x1f\n      lt\n      tag_40\n      jumpi\n      0x0100\n      dup1\n      dup4\n      sload\n      div\n      mul\n      dup4\n      mstore\n      swap2\n      0x20\n      add\n      swap2\n      jump(tag_39)\n    tag_40:\n      dup3\n      add\n      swap2\n      swap1\n      0x00\n      mstore\n      keccak256(0x00, 0x20)\n      swap1\n    tag_41:\n      dup2\n      sload\n      dup2\n      mstore\n      swap1\n      0x01\n      add\n      swap1\n      0x20\n      add\n      dup1\n      dup4\n      gt\n      tag_41\n      jumpi\n      dup3\n      swap1\n      sub\n      0x1f\n      and\n      dup3\n      add\n      swap2\n    tag_39:\n      pop\n      pop\n      pop\n      pop\n      pop\n      swap2\n      pop\n        /* \"contracts/minsubus.sol\":1795:1804  StudentDB */\n      0x07\n        /* \"contracts/minsubus.sol\":1795:1810  StudentDB[_num] */\n      0x00\n        /* \"contracts/minsubus.sol\":1805:1809  _num */\n      dup7\n        /* \"contracts/minsubus.sol\":1795:1810  StudentDB[_num] */\n      dup2\n      mstore\n      0x20\n      add\n      swap1\n      dup2\n      mstore\n      0x20\n      add\n      0x00\n      keccak256\n        /* \"contracts/minsubus.sol\":1795:1818  StudentDB[_num].student */\n      0x01\n      add\n      0x00\n      swap1\n      sload\n      swap1\n      0x0100\n      exp\n      swap1\n      div\n      0xffffffffffffffffffffffffffffffffffffffff\n      and\n        /* \"contracts/minsubus.sol\":1781:1818  student_add = StudentDB[_num].student */\n      swap1\n      pop\n        /* \"contracts/minsubus.sol\":1837:1841  name */\n      dup2\n        /* \"contracts/minsubus.sol\":1842:1853  student_add */\n      dup2\n        /* \"contracts/minsubus.sol\":1829:1854  return (name,student_add) */\n      swap4\n      pop\n      swap4\n      pop\n      pop\n      pop\n        /* \"contracts/minsubus.sol\":1593:1861  function getStudents(uint _num) public view returns(string memory, address){... */\n      swap2\n      pop\n      swap2\n      jump\t// out\n        /* \"contracts/minsubus.sol\":1358:1587  function deleteStudent(uint _num) public returns(string memory){... */\n    tag_19:\n        /* \"contracts/minsubus.sol\":1407:1420  string memory */\n      0x60\n        /* \"contracts/minsubus.sol\":1485:1486  0 */\n      0x00\n        /* \"contracts/minsubus.sol\":1445:1454  StudentDB */\n      0x07\n        /* \"contracts/minsubus.sol\":1445:1460  StudentDB[_num] */\n      0x00\n        /* \"contracts/minsubus.sol\":1455:1459  _num */\n      dup5\n        /* \"contracts/minsubus.sol\":1445:1460  StudentDB[_num] */\n      dup2\n      mstore\n      0x20\n      add\n      swap1\n      dup2\n      mstore\n      0x20\n      add\n      0x00\n      keccak256\n        /* \"contracts/minsubus.sol\":1445:1473  StudentDB[_num].student_name */\n      0x00\n      add\n        /* \"contracts/minsubus.sol\":1439:1481  bytes(StudentDB[_num].student_name).length */\n      dup1\n      sload\n      tag_43\n      swap1\n      tag_37\n      jump\t// in\n    tag_43:\n      swap1\n      pop\n        /* \"contracts/minsubus.sol\":1439:1486  bytes(StudentDB[_num].student_name).length != 0 */\n      eq\n      iszero\n        /* \"contracts/minsubus.sol\":1431:1510  require(bytes(StudentDB[_num].student_name).length != 0, \"There is no student\") */\n      tag_44\n      jumpi\n      mload(0x40)\n      0x08c379a000000000000000000000000000000000000000000000000000000000\n      dup2\n      mstore\n      0x04\n      add\n      tag_45\n      swap1\n      tag_46\n      jump\t// in\n    tag_45:\n      mload(0x40)\n      dup1\n      swap2\n      sub\n      swap1\n      revert\n    tag_44:\n        /* \"contracts/minsubus.sol\":1528:1537  StudentDB */\n      0x07\n        /* \"contracts/minsubus.sol\":1528:1543  StudentDB[_num] */\n      0x00\n        /* \"contracts/minsubus.sol\":1538:1542  _num */\n      dup4\n        /* \"contracts/minsubus.sol\":1528:1543  StudentDB[_num] */\n      dup2\n      mstore\n      0x20\n      add\n      swap1\n      dup2\n      mstore\n      0x20\n      add\n      0x00\n      keccak256\n      0x00\n        /* \"contracts/minsubus.sol\":1521:1543  delete StudentDB[_num] */\n      dup1\n      dup3\n      add\n      0x00\n      tag_47\n      swap2\n      swap1\n      tag_48\n      jump\t// in\n    tag_47:\n      0x01\n      dup3\n      add\n      exp(0x0100, 0x00)\n      dup2\n      sload\n      swap1\n      0xffffffffffffffffffffffffffffffffffffffff\n      mul\n      not\n      and\n      swap1\n      sstore\n      pop\n      pop\n        /* \"contracts/minsubus.sol\":1358:1587  function deleteStudent(uint _num) public returns(string memory){... */\n      swap2\n      swap1\n      pop\n      jump\t// out\n        /* \"contracts/minsubus.sol\":978:1142  function addStudent(string memory student_name, uint studentNum, address students) public {... */\n    tag_25:\n        /* \"contracts/minsubus.sol\":1101:1135  Student_DB(student_name, students) */\n      mload(0x40)\n      dup1\n      0x40\n      add\n      0x40\n      mstore\n      dup1\n        /* \"contracts/minsubus.sol\":1112:1124  student_name */\n      dup5\n        /* \"contracts/minsubus.sol\":1101:1135  Student_DB(student_name, students) */\n      dup2\n      mstore\n      0x20\n      add\n        /* \"contracts/minsubus.sol\":1126:1134  students */\n      dup3\n        /* \"contracts/minsubus.sol\":1101:1135  Student_DB(student_name, students) */\n      0xffffffffffffffffffffffffffffffffffffffff\n      and\n      dup2\n      mstore\n      pop\n        /* \"contracts/minsubus.sol\":1077:1086  StudentDB */\n      0x07\n        /* \"contracts/minsubus.sol\":1077:1098  StudentDB[studentNum] */\n      0x00\n        /* \"contracts/minsubus.sol\":1087:1097  studentNum */\n      dup5\n        /* \"contracts/minsubus.sol\":1077:1098  StudentDB[studentNum] */\n      dup2\n      mstore\n      0x20\n      add\n      swap1\n      dup2\n      mstore\n      0x20\n      add\n      0x00\n      keccak256\n        /* \"contracts/minsubus.sol\":1077:1135  StudentDB[studentNum] = Student_DB(student_name, students) */\n      0x00\n      dup3\n      add\n      mload\n      dup2\n      0x00\n      add\n      swap1\n      dup1\n      mload\n      swap1\n      0x20\n      add\n      swap1\n      tag_50\n      swap3\n      swap2\n      swap1\n      tag_32\n      jump\t// in\n    tag_50:\n      pop\n      0x20\n      dup3\n      add\n      mload\n      dup2\n      0x01\n      add\n      exp(0x0100, 0x00)\n      dup2\n      sload\n      dup2\n      0xffffffffffffffffffffffffffffffffffffffff\n      mul\n      not\n      and\n      swap1\n      dup4\n      0xffffffffffffffffffffffffffffffffffffffff\n      and\n      mul\n      or\n      swap1\n      sstore\n      pop\n      swap1\n      pop\n      pop\n        /* \"contracts/minsubus.sol\":978:1142  function addStudent(string memory student_name, uint studentNum, address students) public {... */\n      pop\n      pop\n      pop\n      jump\t// out\n    tag_28:\n      mload(0x40)\n      dup1\n      0x05a0\n      add\n      0x40\n      mstore\n      dup1\n      0x2d\n      swap1\n      0x20\n      dup3\n      mul\n      dup1\n      calldatasize\n      dup4\n      calldatacopy\n      dup1\n      dup3\n      add\n      swap2\n      pop\n      pop\n      swap1\n      pop\n      pop\n      swap1\n      jump\t// out\n    tag_32:\n      dup3\n      dup1\n      sload\n      tag_51\n      swap1\n      tag_37\n      jump\t// in\n    tag_51:\n      swap1\n      0x00\n      mstore\n      keccak256(0x00, 0x20)\n      swap1\n      0x1f\n      add\n      0x20\n      swap1\n      div\n      dup2\n      add\n      swap3\n      dup3\n      tag_53\n      jumpi\n      0x00\n      dup6\n      sstore\n      jump(tag_52)\n    tag_53:\n      dup3\n      0x1f\n      lt\n      tag_54\n      jumpi\n      dup1\n      mload\n      not(0xff)\n      and\n      dup4\n      dup1\n      add\n      or\n      dup6\n      sstore\n      jump(tag_52)\n    tag_54:\n      dup3\n      dup1\n      add\n      0x01\n      add\n      dup6\n      sstore\n      dup3\n      iszero\n      tag_52\n      jumpi\n      swap2\n      dup3\n      add\n    tag_55:\n      dup3\n      dup2\n      gt\n      iszero\n      tag_56\n      jumpi\n      dup3\n      mload\n      dup3\n      sstore\n      swap2\n      0x20\n      add\n      swap2\n      swap1\n      0x01\n      add\n      swap1\n      jump(tag_55)\n    tag_56:\n    tag_52:\n      pop\n      swap1\n      pop\n      tag_57\n      swap2\n      swap1\n      tag_58\n      jump\t// in\n    tag_57:\n      pop\n      swap1\n      jump\t// out\n    tag_34:\n      dup3\n      0x2d\n      dup2\n      add\n      swap3\n      dup3\n      iszero\n      tag_59\n      jumpi\n      swap2\n      0x20\n      mul\n      dup3\n      add\n    tag_60:\n      dup3\n      dup2\n      gt\n      iszero\n      tag_61\n      jumpi\n      dup3\n      mload\n      dup3\n      sstore\n      swap2\n      0x20\n      add\n      swap2\n      swap1\n      0x01\n      add\n      swap1\n      jump(tag_60)\n    tag_61:\n    tag_59:\n      pop\n      swap1\n      pop\n      tag_62\n      swap2\n      swap1\n      tag_58\n      jump\t// in\n    tag_62:\n      pop\n      swap1\n      jump\t// out\n    tag_48:\n      pop\n      dup1\n      sload\n      tag_63\n      swap1\n      tag_37\n      jump\t// in\n    tag_63:\n      0x00\n      dup3\n      sstore\n      dup1\n      0x1f\n      lt\n      tag_65\n      jumpi\n      pop\n      jump(tag_64)\n    tag_65:\n      0x1f\n      add\n      0x20\n      swap1\n      div\n      swap1\n      0x00\n      mstore\n      keccak256(0x00, 0x20)\n      swap1\n      dup2\n      add\n      swap1\n      tag_66\n      swap2\n      swap1\n      tag_58\n      jump\t// in\n    tag_66:\n    tag_64:\n      pop\n      jump\t// out\n    tag_58:\n    tag_67:\n      dup1\n      dup3\n      gt\n      iszero\n      tag_68\n      jumpi\n      0x00\n      dup2\n      0x00\n      swap1\n      sstore\n      pop\n      0x01\n      add\n      jump(tag_67)\n    tag_68:\n      pop\n      swap1\n      jump\t// out\n        /* \"#utility.yul\":7:419   */\n    tag_70:\n        /* \"#utility.yul\":85:90   */\n      0x00\n        /* \"#utility.yul\":110:176   */\n      tag_72\n        /* \"#utility.yul\":126:175   */\n      tag_73\n        /* \"#utility.yul\":168:174   */\n      dup5\n        /* \"#utility.yul\":126:175   */\n      tag_74\n      jump\t// in\n    tag_73:\n        /* \"#utility.yul\":110:176   */\n      tag_75\n      jump\t// in\n    tag_72:\n        /* \"#utility.yul\":101:176   */\n      swap1\n      pop\n        /* \"#utility.yul\":199:205   */\n      dup3\n        /* \"#utility.yul\":192:197   */\n      dup2\n        /* \"#utility.yul\":185:206   */\n      mstore\n        /* \"#utility.yul\":237:241   */\n      0x20\n        /* \"#utility.yul\":230:235   */\n      dup2\n        /* \"#utility.yul\":226:242   */\n      add\n        /* \"#utility.yul\":275:278   */\n      dup5\n        /* \"#utility.yul\":266:272   */\n      dup5\n        /* \"#utility.yul\":261:264   */\n      dup5\n        /* \"#utility.yul\":257:273   */\n      add\n        /* \"#utility.yul\":254:279   */\n      gt\n        /* \"#utility.yul\":251:363   */\n      iszero\n      tag_76\n      jumpi\n        /* \"#utility.yul\":282:361   */\n      tag_77\n      tag_78\n      jump\t// in\n    tag_77:\n        /* \"#utility.yul\":251:363   */\n    tag_76:\n        /* \"#utility.yul\":372:413   */\n      tag_79\n        /* \"#utility.yul\":406:412   */\n      dup5\n        /* \"#utility.yul\":401:404   */\n      dup3\n        /* \"#utility.yul\":396:399   */\n      dup6\n        /* \"#utility.yul\":372:413   */\n      tag_80\n      jump\t// in\n    tag_79:\n        /* \"#utility.yul\":91:419   */\n      pop\n        /* \"#utility.yul\":7:419   */\n      swap4\n      swap3\n      pop\n      pop\n      pop\n      jump\t// out\n        /* \"#utility.yul\":425:564   */\n    tag_81:\n        /* \"#utility.yul\":471:476   */\n      0x00\n        /* \"#utility.yul\":509:515   */\n      dup2\n        /* \"#utility.yul\":496:516   */\n      calldataload\n        /* \"#utility.yul\":487:516   */\n      swap1\n      pop\n        /* \"#utility.yul\":525:558   */\n      tag_83\n        /* \"#utility.yul\":552:557   */\n      dup2\n        /* \"#utility.yul\":525:558   */\n      tag_84\n      jump\t// in\n    tag_83:\n        /* \"#utility.yul\":425:564   */\n      swap3\n      swap2\n      pop\n      pop\n      jump\t// out\n        /* \"#utility.yul\":584:924   */\n    tag_85:\n        /* \"#utility.yul\":640:645   */\n      0x00\n        /* \"#utility.yul\":689:692   */\n      dup3\n        /* \"#utility.yul\":682:686   */\n      0x1f\n        /* \"#utility.yul\":674:680   */\n      dup4\n        /* \"#utility.yul\":670:687   */\n      add\n        /* \"#utility.yul\":666:693   */\n      slt\n        /* \"#utility.yul\":656:778   */\n      tag_87\n      jumpi\n        /* \"#utility.yul\":697:776   */\n      tag_88\n      tag_89\n      jump\t// in\n    tag_88:\n        /* \"#utility.yul\":656:778   */\n    tag_87:\n        /* \"#utility.yul\":814:820   */\n      dup2\n        /* \"#utility.yul\":801:821   */\n      calldataload\n        /* \"#utility.yul\":839:918   */\n      tag_90\n        /* \"#utility.yul\":914:917   */\n      dup5\n        /* \"#utility.yul\":906:912   */\n      dup3\n        /* \"#utility.yul\":899:903   */\n      0x20\n        /* \"#utility.yul\":891:897   */\n      dup7\n        /* \"#utility.yul\":887:904   */\n      add\n        /* \"#utility.yul\":839:918   */\n      tag_70\n      jump\t// in\n    tag_90:\n        /* \"#utility.yul\":830:918   */\n      swap2\n      pop\n        /* \"#utility.yul\":646:924   */\n      pop\n        /* \"#utility.yul\":584:924   */\n      swap3\n      swap2\n      pop\n      pop\n      jump\t// out\n        /* \"#utility.yul\":930:1069   */\n    tag_91:\n        /* \"#utility.yul\":976:981   */\n      0x00\n        /* \"#utility.yul\":1014:1020   */\n      dup2\n        /* \"#utility.yul\":1001:1021   */\n      calldataload\n        /* \"#utility.yul\":992:1021   */\n      swap1\n      pop\n        /* \"#utility.yul\":1030:1063   */\n      tag_93\n        /* \"#utility.yul\":1057:1062   */\n      dup2\n        /* \"#utility.yul\":1030:1063   */\n      tag_94\n      jump\t// in\n    tag_93:\n        /* \"#utility.yul\":930:1069   */\n      swap3\n      swap2\n      pop\n      pop\n      jump\t// out\n        /* \"#utility.yul\":1075:2200   */\n    tag_9:\n        /* \"#utility.yul\":1181:1187   */\n      0x00\n        /* \"#utility.yul\":1189:1195   */\n      dup1\n        /* \"#utility.yul\":1197:1203   */\n      0x00\n        /* \"#utility.yul\":1205:1211   */\n      dup1\n        /* \"#utility.yul\":1254:1257   */\n      0x80\n        /* \"#utility.yul\":1242:1251   */\n      dup6\n        /* \"#utility.yul\":1233:1240   */\n      dup8\n        /* \"#utility.yul\":1229:1252   */\n      sub\n        /* \"#utility.yul\":1225:1258   */\n      slt\n        /* \"#utility.yul\":1222:1342   */\n      iszero\n      tag_96\n      jumpi\n        /* \"#utility.yul\":1261:1340   */\n      tag_97\n      tag_98\n      jump\t// in\n    tag_97:\n        /* \"#utility.yul\":1222:1342   */\n    tag_96:\n        /* \"#utility.yul\":1381:1382   */\n      0x00\n        /* \"#utility.yul\":1406:1459   */\n      tag_99\n        /* \"#utility.yul\":1451:1458   */\n      dup8\n        /* \"#utility.yul\":1442:1448   */\n      dup3\n        /* \"#utility.yul\":1431:1440   */\n      dup9\n        /* \"#utility.yul\":1427:1449   */\n      add\n        /* \"#utility.yul\":1406:1459   */\n      tag_81\n      jump\t// in\n    tag_99:\n        /* \"#utility.yul\":1396:1459   */\n      swap5\n      pop\n        /* \"#utility.yul\":1352:1469   */\n      pop\n        /* \"#utility.yul\":1536:1538   */\n      0x20\n        /* \"#utility.yul\":1525:1534   */\n      dup6\n        /* \"#utility.yul\":1521:1539   */\n      add\n        /* \"#utility.yul\":1508:1540   */\n      calldataload\n        /* \"#utility.yul\":1567:1585   */\n      0xffffffffffffffff\n        /* \"#utility.yul\":1559:1565   */\n      dup2\n        /* \"#utility.yul\":1556:1586   */\n      gt\n        /* \"#utility.yul\":1553:1670   */\n      iszero\n      tag_100\n      jumpi\n        /* \"#utility.yul\":1589:1668   */\n      tag_101\n      tag_102\n      jump\t// in\n    tag_101:\n        /* \"#utility.yul\":1553:1670   */\n    tag_100:\n        /* \"#utility.yul\":1694:1757   */\n      tag_103\n        /* \"#utility.yul\":1749:1756   */\n      dup8\n        /* \"#utility.yul\":1740:1746   */\n      dup3\n        /* \"#utility.yul\":1729:1738   */\n      dup9\n        /* \"#utility.yul\":1725:1747   */\n      add\n        /* \"#utility.yul\":1694:1757   */\n      tag_85\n      jump\t// in\n    tag_103:\n        /* \"#utility.yul\":1684:1757   */\n      swap4\n      pop\n        /* \"#utility.yul\":1479:1767   */\n      pop\n        /* \"#utility.yul\":1806:1808   */\n      0x40\n        /* \"#utility.yul\":1832:1885   */\n      tag_104\n        /* \"#utility.yul\":1877:1884   */\n      dup8\n        /* \"#utility.yul\":1868:1874   */\n      dup3\n        /* \"#utility.yul\":1857:1866   */\n      dup9\n        /* \"#utility.yul\":1853:1875   */\n      add\n        /* \"#utility.yul\":1832:1885   */\n      tag_91\n      jump\t// in\n    tag_104:\n        /* \"#utility.yul\":1822:1885   */\n      swap3\n      pop\n        /* \"#utility.yul\":1777:1895   */\n      pop\n        /* \"#utility.yul\":1962:1964   */\n      0x60\n        /* \"#utility.yul\":1951:1960   */\n      dup6\n        /* \"#utility.yul\":1947:1965   */\n      add\n        /* \"#utility.yul\":1934:1966   */\n      calldataload\n        /* \"#utility.yul\":1993:2011   */\n      0xffffffffffffffff\n        /* \"#utility.yul\":1985:1991   */\n      dup2\n        /* \"#utility.yul\":1982:2012   */\n      gt\n        /* \"#utility.yul\":1979:2096   */\n      iszero\n      tag_105\n      jumpi\n        /* \"#utility.yul\":2015:2094   */\n      tag_106\n      tag_102\n      jump\t// in\n    tag_106:\n        /* \"#utility.yul\":1979:2096   */\n    tag_105:\n        /* \"#utility.yul\":2120:2183   */\n      tag_107\n        /* \"#utility.yul\":2175:2182   */\n      dup8\n        /* \"#utility.yul\":2166:2172   */\n      dup3\n        /* \"#utility.yul\":2155:2164   */\n      dup9\n        /* \"#utility.yul\":2151:2173   */\n      add\n        /* \"#utility.yul\":2120:2183   */\n      tag_85\n      jump\t// in\n    tag_107:\n        /* \"#utility.yul\":2110:2183   */\n      swap2\n      pop\n        /* \"#utility.yul\":1905:2193   */\n      pop\n        /* \"#utility.yul\":1075:2200   */\n      swap3\n      swap6\n      swap2\n      swap5\n      pop\n      swap3\n      pop\n      jump\t// out\n        /* \"#utility.yul\":2206:3005   */\n    tag_24:\n        /* \"#utility.yul\":2293:2299   */\n      0x00\n        /* \"#utility.yul\":2301:2307   */\n      dup1\n        /* \"#utility.yul\":2309:2315   */\n      0x00\n        /* \"#utility.yul\":2358:2360   */\n      0x60\n        /* \"#utility.yul\":2346:2355   */\n      dup5\n        /* \"#utility.yul\":2337:2344   */\n      dup7\n        /* \"#utility.yul\":2333:2356   */\n      sub\n        /* \"#utility.yul\":2329:2361   */\n      slt\n        /* \"#utility.yul\":2326:2445   */\n      iszero\n      tag_109\n      jumpi\n        /* \"#utility.yul\":2364:2443   */\n      tag_110\n      tag_98\n      jump\t// in\n    tag_110:\n        /* \"#utility.yul\":2326:2445   */\n    tag_109:\n        /* \"#utility.yul\":2512:2513   */\n      0x00\n        /* \"#utility.yul\":2501:2510   */\n      dup5\n        /* \"#utility.yul\":2497:2514   */\n      add\n        /* \"#utility.yul\":2484:2515   */\n      calldataload\n        /* \"#utility.yul\":2542:2560   */\n      0xffffffffffffffff\n        /* \"#utility.yul\":2534:2540   */\n      dup2\n        /* \"#utility.yul\":2531:2561   */\n      gt\n        /* \"#utility.yul\":2528:2645   */\n      iszero\n      tag_111\n      jumpi\n        /* \"#utility.yul\":2564:2643   */\n      tag_112\n      tag_102\n      jump\t// in\n    tag_112:\n        /* \"#utility.yul\":2528:2645   */\n    tag_111:\n        /* \"#utility.yul\":2669:2732   */\n      tag_113\n        /* \"#utility.yul\":2724:2731   */\n      dup7\n        /* \"#utility.yul\":2715:2721   */\n      dup3\n        /* \"#utility.yul\":2704:2713   */\n      dup8\n        /* \"#utility.yul\":2700:2722   */\n      add\n        /* \"#utility.yul\":2669:2732   */\n      tag_85\n      jump\t// in\n    tag_113:\n        /* \"#utility.yul\":2659:2732   */\n      swap4\n      pop\n        /* \"#utility.yul\":2455:2742   */\n      pop\n        /* \"#utility.yul\":2781:2783   */\n      0x20\n        /* \"#utility.yul\":2807:2860   */\n      tag_114\n        /* \"#utility.yul\":2852:2859   */\n      dup7\n        /* \"#utility.yul\":2843:2849   */\n      dup3\n        /* \"#utility.yul\":2832:2841   */\n      dup8\n        /* \"#utility.yul\":2828:2850   */\n      add\n        /* \"#utility.yul\":2807:2860   */\n      tag_91\n      jump\t// in\n    tag_114:\n        /* \"#utility.yul\":2797:2860   */\n      swap3\n      pop\n        /* \"#utility.yul\":2752:2870   */\n      pop\n        /* \"#utility.yul\":2909:2911   */\n      0x40\n        /* \"#utility.yul\":2935:2988   */\n      tag_115\n        /* \"#utility.yul\":2980:2987   */\n      dup7\n        /* \"#utility.yul\":2971:2977   */\n      dup3\n        /* \"#utility.yul\":2960:2969   */\n      dup8\n        /* \"#utility.yul\":2956:2978   */\n      add\n        /* \"#utility.yul\":2935:2988   */\n      tag_81\n      jump\t// in\n    tag_115:\n        /* \"#utility.yul\":2925:2988   */\n      swap2\n      pop\n        /* \"#utility.yul\":2880:2998   */\n      pop\n        /* \"#utility.yul\":2206:3005   */\n      swap3\n      pop\n      swap3\n      pop\n      swap3\n      jump\t// out\n        /* \"#utility.yul\":3011:3340   */\n    tag_13:\n        /* \"#utility.yul\":3070:3076   */\n      0x00\n        /* \"#utility.yul\":3119:3121   */\n      0x20\n        /* \"#utility.yul\":3107:3116   */\n      dup3\n        /* \"#utility.yul\":3098:3105   */\n      dup5\n        /* \"#utility.yul\":3094:3117   */\n      sub\n        /* \"#utility.yul\":3090:3122   */\n      slt\n        /* \"#utility.yul\":3087:3206   */\n      iszero\n      tag_117\n      jumpi\n        /* \"#utility.yul\":3125:3204   */\n      tag_118\n      tag_98\n      jump\t// in\n    tag_118:\n        /* \"#utility.yul\":3087:3206   */\n    tag_117:\n        /* \"#utility.yul\":3245:3246   */\n      0x00\n        /* \"#utility.yul\":3270:3323   */\n      tag_119\n        /* \"#utility.yul\":3315:3322   */\n      dup5\n        /* \"#utility.yul\":3306:3312   */\n      dup3\n        /* \"#utility.yul\":3295:3304   */\n      dup6\n        /* \"#utility.yul\":3291:3313   */\n      add\n        /* \"#utility.yul\":3270:3323   */\n      tag_91\n      jump\t// in\n    tag_119:\n        /* \"#utility.yul\":3260:3323   */\n      swap2\n      pop\n        /* \"#utility.yul\":3216:3333   */\n      pop\n        /* \"#utility.yul\":3011:3340   */\n      swap3\n      swap2\n      pop\n      pop\n      jump\t// out\n        /* \"#utility.yul\":3346:3464   */\n    tag_120:\n        /* \"#utility.yul\":3433:3457   */\n      tag_122\n        /* \"#utility.yul\":3451:3456   */\n      dup2\n        /* \"#utility.yul\":3433:3457   */\n      tag_123\n      jump\t// in\n    tag_122:\n        /* \"#utility.yul\":3428:3431   */\n      dup3\n        /* \"#utility.yul\":3421:3458   */\n      mstore\n        /* \"#utility.yul\":3346:3464   */\n      pop\n      pop\n      jump\t// out\n        /* \"#utility.yul\":3470:3834   */\n    tag_124:\n        /* \"#utility.yul\":3558:3561   */\n      0x00\n        /* \"#utility.yul\":3586:3625   */\n      tag_126\n        /* \"#utility.yul\":3619:3624   */\n      dup3\n        /* \"#utility.yul\":3586:3625   */\n      tag_127\n      jump\t// in\n    tag_126:\n        /* \"#utility.yul\":3641:3712   */\n      tag_128\n        /* \"#utility.yul\":3705:3711   */\n      dup2\n        /* \"#utility.yul\":3700:3703   */\n      dup6\n        /* \"#utility.yul\":3641:3712   */\n      tag_129\n      jump\t// in\n    tag_128:\n        /* \"#utility.yul\":3634:3712   */\n      swap4\n      pop\n        /* \"#utility.yul\":3721:3773   */\n      tag_130\n        /* \"#utility.yul\":3766:3772   */\n      dup2\n        /* \"#utility.yul\":3761:3764   */\n      dup6\n        /* \"#utility.yul\":3754:3758   */\n      0x20\n        /* \"#utility.yul\":3747:3752   */\n      dup7\n        /* \"#utility.yul\":3743:3759   */\n      add\n        /* \"#utility.yul\":3721:3773   */\n      tag_131\n      jump\t// in\n    tag_130:\n        /* \"#utility.yul\":3798:3827   */\n      tag_132\n        /* \"#utility.yul\":3820:3826   */\n      dup2\n        /* \"#utility.yul\":3798:3827   */\n      tag_133\n      jump\t// in\n    tag_132:\n        /* \"#utility.yul\":3793:3796   */\n      dup5\n        /* \"#utility.yul\":3789:3828   */\n      add\n        /* \"#utility.yul\":3782:3828   */\n      swap2\n      pop\n        /* \"#utility.yul\":3562:3834   */\n      pop\n        /* \"#utility.yul\":3470:3834   */\n      swap3\n      swap2\n      pop\n      pop\n      jump\t// out\n        /* \"#utility.yul\":3840:4217   */\n    tag_134:\n        /* \"#utility.yul\":3946:3949   */\n      0x00\n        /* \"#utility.yul\":3974:4013   */\n      tag_136\n        /* \"#utility.yul\":4007:4012   */\n      dup3\n        /* \"#utility.yul\":3974:4013   */\n      tag_127\n      jump\t// in\n    tag_136:\n        /* \"#utility.yul\":4029:4118   */\n      tag_137\n        /* \"#utility.yul\":4111:4117   */\n      dup2\n        /* \"#utility.yul\":4106:4109   */\n      dup6\n        /* \"#utility.yul\":4029:4118   */\n      tag_138\n      jump\t// in\n    tag_137:\n        /* \"#utility.yul\":4022:4118   */\n      swap4\n      pop\n        /* \"#utility.yul\":4127:4179   */\n      tag_139\n        /* \"#utility.yul\":4172:4178   */\n      dup2\n        /* \"#utility.yul\":4167:4170   */\n      dup6\n        /* \"#utility.yul\":4160:4164   */\n      0x20\n        /* \"#utility.yul\":4153:4158   */\n      dup7\n        /* \"#utility.yul\":4149:4165   */\n      add\n        /* \"#utility.yul\":4127:4179   */\n      tag_131\n      jump\t// in\n    tag_139:\n        /* \"#utility.yul\":4204:4210   */\n      dup1\n        /* \"#utility.yul\":4199:4202   */\n      dup5\n        /* \"#utility.yul\":4195:4211   */\n      add\n        /* \"#utility.yul\":4188:4211   */\n      swap2\n      pop\n        /* \"#utility.yul\":3950:4217   */\n      pop\n        /* \"#utility.yul\":3840:4217   */\n      swap3\n      swap2\n      pop\n      pop\n      jump\t// out\n        /* \"#utility.yul\":4223:4589   */\n    tag_140:\n        /* \"#utility.yul\":4365:4368   */\n      0x00\n        /* \"#utility.yul\":4386:4453   */\n      tag_142\n        /* \"#utility.yul\":4450:4452   */\n      0x13\n        /* \"#utility.yul\":4445:4448   */\n      dup4\n        /* \"#utility.yul\":4386:4453   */\n      tag_129\n      jump\t// in\n    tag_142:\n        /* \"#utility.yul\":4379:4453   */\n      swap2\n      pop\n        /* \"#utility.yul\":4462:4555   */\n      tag_143\n        /* \"#utility.yul\":4551:4554   */\n      dup3\n        /* \"#utility.yul\":4462:4555   */\n      tag_144\n      jump\t// in\n    tag_143:\n        /* \"#utility.yul\":4580:4582   */\n      0x20\n        /* \"#utility.yul\":4575:4578   */\n      dup3\n        /* \"#utility.yul\":4571:4583   */\n      add\n        /* \"#utility.yul\":4564:4583   */\n      swap1\n      pop\n        /* \"#utility.yul\":4223:4589   */\n      swap2\n      swap1\n      pop\n      jump\t// out\n        /* \"#utility.yul\":4595:4870   */\n    tag_30:\n        /* \"#utility.yul\":4727:4730   */\n      0x00\n        /* \"#utility.yul\":4749:4844   */\n      tag_146\n        /* \"#utility.yul\":4840:4843   */\n      dup3\n        /* \"#utility.yul\":4831:4837   */\n      dup5\n        /* \"#utility.yul\":4749:4844   */\n      tag_134\n      jump\t// in\n    tag_146:\n        /* \"#utility.yul\":4742:4844   */\n      swap2\n      pop\n        /* \"#utility.yul\":4861:4864   */\n      dup2\n        /* \"#utility.yul\":4854:4864   */\n      swap1\n      pop\n        /* \"#utility.yul\":4595:4870   */\n      swap3\n      swap2\n      pop\n      pop\n      jump\t// out\n        /* \"#utility.yul\":4876:5189   */\n    tag_21:\n        /* \"#utility.yul\":4989:4993   */\n      0x00\n        /* \"#utility.yul\":5027:5029   */\n      0x20\n        /* \"#utility.yul\":5016:5025   */\n      dup3\n        /* \"#utility.yul\":5012:5030   */\n      add\n        /* \"#utility.yul\":5004:5030   */\n      swap1\n      pop\n        /* \"#utility.yul\":5076:5085   */\n      dup2\n        /* \"#utility.yul\":5070:5074   */\n      dup2\n        /* \"#utility.yul\":5066:5086   */\n      sub\n        /* \"#utility.yul\":5062:5063   */\n      0x00\n        /* \"#utility.yul\":5051:5060   */\n      dup4\n        /* \"#utility.yul\":5047:5064   */\n      add\n        /* \"#utility.yul\":5040:5087   */\n      mstore\n        /* \"#utility.yul\":5104:5182   */\n      tag_148\n        /* \"#utility.yul\":5177:5181   */\n      dup2\n        /* \"#utility.yul\":5168:5174   */\n      dup5\n        /* \"#utility.yul\":5104:5182   */\n      tag_124\n      jump\t// in\n    tag_148:\n        /* \"#utility.yul\":5096:5182   */\n      swap1\n      pop\n        /* \"#utility.yul\":4876:5189   */\n      swap3\n      swap2\n      pop\n      pop\n      jump\t// out\n        /* \"#utility.yul\":5195:5618   */\n    tag_16:\n        /* \"#utility.yul\":5336:5340   */\n      0x00\n        /* \"#utility.yul\":5374:5376   */\n      0x40\n        /* \"#utility.yul\":5363:5372   */\n      dup3\n        /* \"#utility.yul\":5359:5377   */\n      add\n        /* \"#utility.yul\":5351:5377   */\n      swap1\n      pop\n        /* \"#utility.yul\":5423:5432   */\n      dup2\n        /* \"#utility.yul\":5417:5421   */\n      dup2\n        /* \"#utility.yul\":5413:5433   */\n      sub\n        /* \"#utility.yul\":5409:5410   */\n      0x00\n        /* \"#utility.yul\":5398:5407   */\n      dup4\n        /* \"#utility.yul\":5394:5411   */\n      add\n        /* \"#utility.yul\":5387:5434   */\n      mstore\n        /* \"#utility.yul\":5451:5529   */\n      tag_150\n        /* \"#utility.yul\":5524:5528   */\n      dup2\n        /* \"#utility.yul\":5515:5521   */\n      dup6\n        /* \"#utility.yul\":5451:5529   */\n      tag_124\n      jump\t// in\n    tag_150:\n        /* \"#utility.yul\":5443:5529   */\n      swap1\n      pop\n        /* \"#utility.yul\":5539:5611   */\n      tag_151\n        /* \"#utility.yul\":5607:5609   */\n      0x20\n        /* \"#utility.yul\":5596:5605   */\n      dup4\n        /* \"#utility.yul\":5592:5610   */\n      add\n        /* \"#utility.yul\":5583:5589   */\n      dup5\n        /* \"#utility.yul\":5539:5611   */\n      tag_120\n      jump\t// in\n    tag_151:\n        /* \"#utility.yul\":5195:5618   */\n      swap4\n      swap3\n      pop\n      pop\n      pop\n      jump\t// out\n        /* \"#utility.yul\":5624:6043   */\n    tag_46:\n        /* \"#utility.yul\":5790:5794   */\n      0x00\n        /* \"#utility.yul\":5828:5830   */\n      0x20\n        /* \"#utility.yul\":5817:5826   */\n      dup3\n        /* \"#utility.yul\":5813:5831   */\n      add\n        /* \"#utility.yul\":5805:5831   */\n      swap1\n      pop\n        /* \"#utility.yul\":5877:5886   */\n      dup2\n        /* \"#utility.yul\":5871:5875   */\n      dup2\n        /* \"#utility.yul\":5867:5887   */\n      sub\n        /* \"#utility.yul\":5863:5864   */\n      0x00\n        /* \"#utility.yul\":5852:5861   */\n      dup4\n        /* \"#utility.yul\":5848:5865   */\n      add\n        /* \"#utility.yul\":5841:5888   */\n      mstore\n        /* \"#utility.yul\":5905:6036   */\n      tag_153\n        /* \"#utility.yul\":6031:6035   */\n      dup2\n        /* \"#utility.yul\":5905:6036   */\n      tag_140\n      jump\t// in\n    tag_153:\n        /* \"#utility.yul\":5897:6036   */\n      swap1\n      pop\n        /* \"#utility.yul\":5624:6043   */\n      swap2\n      swap1\n      pop\n      jump\t// out\n        /* \"#utility.yul\":6049:6178   */\n    tag_75:\n        /* \"#utility.yul\":6083:6089   */\n      0x00\n        /* \"#utility.yul\":6110:6130   */\n      tag_155\n      tag_156\n      jump\t// in\n    tag_155:\n        /* \"#utility.yul\":6100:6130   */\n      swap1\n      pop\n        /* \"#utility.yul\":6139:6172   */\n      tag_157\n        /* \"#utility.yul\":6167:6171   */\n      dup3\n        /* \"#utility.yul\":6159:6165   */\n      dup3\n        /* \"#utility.yul\":6139:6172   */\n      tag_158\n      jump\t// in\n    tag_157:\n        /* \"#utility.yul\":6049:6178   */\n      swap2\n      swap1\n      pop\n      jump\t// out\n        /* \"#utility.yul\":6184:6259   */\n    tag_156:\n        /* \"#utility.yul\":6217:6223   */\n      0x00\n        /* \"#utility.yul\":6250:6252   */\n      0x40\n        /* \"#utility.yul\":6244:6253   */\n      mload\n        /* \"#utility.yul\":6234:6253   */\n      swap1\n      pop\n        /* \"#utility.yul\":6184:6259   */\n      swap1\n      jump\t// out\n        /* \"#utility.yul\":6265:6573   */\n    tag_74:\n        /* \"#utility.yul\":6327:6331   */\n      0x00\n        /* \"#utility.yul\":6417:6435   */\n      0xffffffffffffffff\n        /* \"#utility.yul\":6409:6415   */\n      dup3\n        /* \"#utility.yul\":6406:6436   */\n      gt\n        /* \"#utility.yul\":6403:6459   */\n      iszero\n      tag_161\n      jumpi\n        /* \"#utility.yul\":6439:6457   */\n      tag_162\n      tag_163\n      jump\t// in\n    tag_162:\n        /* \"#utility.yul\":6403:6459   */\n    tag_161:\n        /* \"#utility.yul\":6477:6506   */\n      tag_164\n        /* \"#utility.yul\":6499:6505   */\n      dup3\n        /* \"#utility.yul\":6477:6506   */\n      tag_133\n      jump\t// in\n    tag_164:\n        /* \"#utility.yul\":6469:6506   */\n      swap1\n      pop\n        /* \"#utility.yul\":6561:6565   */\n      0x20\n        /* \"#utility.yul\":6555:6559   */\n      dup2\n        /* \"#utility.yul\":6551:6566   */\n      add\n        /* \"#utility.yul\":6543:6566   */\n      swap1\n      pop\n        /* \"#utility.yul\":6265:6573   */\n      swap2\n      swap1\n      pop\n      jump\t// out\n        /* \"#utility.yul\":6579:6678   */\n    tag_127:\n        /* \"#utility.yul\":6631:6637   */\n      0x00\n        /* \"#utility.yul\":6665:6670   */\n      dup2\n        /* \"#utility.yul\":6659:6671   */\n      mload\n        /* \"#utility.yul\":6649:6671   */\n      swap1\n      pop\n        /* \"#utility.yul\":6579:6678   */\n      swap2\n      swap1\n      pop\n      jump\t// out\n        /* \"#utility.yul\":6684:6853   */\n    tag_129:\n        /* \"#utility.yul\":6768:6779   */\n      0x00\n        /* \"#utility.yul\":6802:6808   */\n      dup3\n        /* \"#utility.yul\":6797:6800   */\n      dup3\n        /* \"#utility.yul\":6790:6809   */\n      mstore\n        /* \"#utility.yul\":6842:6846   */\n      0x20\n        /* \"#utility.yul\":6837:6840   */\n      dup3\n        /* \"#utility.yul\":6833:6847   */\n      add\n        /* \"#utility.yul\":6818:6847   */\n      swap1\n      pop\n        /* \"#utility.yul\":6684:6853   */\n      swap3\n      swap2\n      pop\n      pop\n      jump\t// out\n        /* \"#utility.yul\":6859:7007   */\n    tag_138:\n        /* \"#utility.yul\":6961:6972   */\n      0x00\n        /* \"#utility.yul\":6998:7001   */\n      dup2\n        /* \"#utility.yul\":6983:7001   */\n      swap1\n      pop\n        /* \"#utility.yul\":6859:7007   */\n      swap3\n      swap2\n      pop\n      pop\n      jump\t// out\n        /* \"#utility.yul\":7013:7109   */\n    tag_123:\n        /* \"#utility.yul\":7050:7057   */\n      0x00\n        /* \"#utility.yul\":7079:7103   */\n      tag_169\n        /* \"#utility.yul\":7097:7102   */\n      dup3\n        /* \"#utility.yul\":7079:7103   */\n      tag_170\n      jump\t// in\n    tag_169:\n        /* \"#utility.yul\":7068:7103   */\n      swap1\n      pop\n        /* \"#utility.yul\":7013:7109   */\n      swap2\n      swap1\n      pop\n      jump\t// out\n        /* \"#utility.yul\":7115:7241   */\n    tag_170:\n        /* \"#utility.yul\":7152:7159   */\n      0x00\n        /* \"#utility.yul\":7192:7234   */\n      0xffffffffffffffffffffffffffffffffffffffff\n        /* \"#utility.yul\":7185:7190   */\n      dup3\n        /* \"#utility.yul\":7181:7235   */\n      and\n        /* \"#utility.yul\":7170:7235   */\n      swap1\n      pop\n        /* \"#utility.yul\":7115:7241   */\n      swap2\n      swap1\n      pop\n      jump\t// out\n        /* \"#utility.yul\":7247:7324   */\n    tag_172:\n        /* \"#utility.yul\":7284:7291   */\n      0x00\n        /* \"#utility.yul\":7313:7318   */\n      dup2\n        /* \"#utility.yul\":7302:7318   */\n      swap1\n      pop\n        /* \"#utility.yul\":7247:7324   */\n      swap2\n      swap1\n      pop\n      jump\t// out\n        /* \"#utility.yul\":7330:7484   */\n    tag_80:\n        /* \"#utility.yul\":7414:7420   */\n      dup3\n        /* \"#utility.yul\":7409:7412   */\n      dup2\n        /* \"#utility.yul\":7404:7407   */\n      dup4\n        /* \"#utility.yul\":7391:7421   */\n      calldatacopy\n        /* \"#utility.yul\":7476:7477   */\n      0x00\n        /* \"#utility.yul\":7467:7473   */\n      dup4\n        /* \"#utility.yul\":7462:7465   */\n      dup4\n        /* \"#utility.yul\":7458:7474   */\n      add\n        /* \"#utility.yul\":7451:7478   */\n      mstore\n        /* \"#utility.yul\":7330:7484   */\n      pop\n      pop\n      pop\n      jump\t// out\n        /* \"#utility.yul\":7490:7797   */\n    tag_131:\n        /* \"#utility.yul\":7558:7559   */\n      0x00\n        /* \"#utility.yul\":7568:7681   */\n    tag_176:\n        /* \"#utility.yul\":7582:7588   */\n      dup4\n        /* \"#utility.yul\":7579:7580   */\n      dup2\n        /* \"#utility.yul\":7576:7589   */\n      lt\n        /* \"#utility.yul\":7568:7681   */\n      iszero\n      tag_178\n      jumpi\n        /* \"#utility.yul\":7667:7668   */\n      dup1\n        /* \"#utility.yul\":7662:7665   */\n      dup3\n        /* \"#utility.yul\":7658:7669   */\n      add\n        /* \"#utility.yul\":7652:7670   */\n      mload\n        /* \"#utility.yul\":7648:7649   */\n      dup2\n        /* \"#utility.yul\":7643:7646   */\n      dup5\n        /* \"#utility.yul\":7639:7650   */\n      add\n        /* \"#utility.yul\":7632:7671   */\n      mstore\n        /* \"#utility.yul\":7604:7606   */\n      0x20\n        /* \"#utility.yul\":7601:7602   */\n      dup2\n        /* \"#utility.yul\":7597:7607   */\n      add\n        /* \"#utility.yul\":7592:7607   */\n      swap1\n      pop\n        /* \"#utility.yul\":7568:7681   */\n      jump(tag_176)\n    tag_178:\n        /* \"#utility.yul\":7699:7705   */\n      dup4\n        /* \"#utility.yul\":7696:7697   */\n      dup2\n        /* \"#utility.yul\":7693:7706   */\n      gt\n        /* \"#utility.yul\":7690:7791   */\n      iszero\n      tag_179\n      jumpi\n        /* \"#utility.yul\":7779:7780   */\n      0x00\n        /* \"#utility.yul\":7770:7776   */\n      dup5\n        /* \"#utility.yul\":7765:7768   */\n      dup5\n        /* \"#utility.yul\":7761:7777   */\n      add\n        /* \"#utility.yul\":7754:7781   */\n      mstore\n        /* \"#utility.yul\":7690:7791   */\n    tag_179:\n        /* \"#utility.yul\":7539:7797   */\n      pop\n        /* \"#utility.yul\":7490:7797   */\n      pop\n      pop\n      pop\n      jump\t// out\n        /* \"#utility.yul\":7803:8123   */\n    tag_37:\n        /* \"#utility.yul\":7847:7853   */\n      0x00\n        /* \"#utility.yul\":7884:7885   */\n      0x02\n        /* \"#utility.yul\":7878:7882   */\n      dup3\n        /* \"#utility.yul\":7874:7886   */\n      div\n        /* \"#utility.yul\":7864:7886   */\n      swap1\n      pop\n        /* \"#utility.yul\":7931:7932   */\n      0x01\n        /* \"#utility.yul\":7925:7929   */\n      dup3\n        /* \"#utility.yul\":7921:7933   */\n      and\n        /* \"#utility.yul\":7952:7970   */\n      dup1\n        /* \"#utility.yul\":7942:8023   */\n      tag_181\n      jumpi\n        /* \"#utility.yul\":8008:8012   */\n      0x7f\n        /* \"#utility.yul\":8000:8006   */\n      dup3\n        /* \"#utility.yul\":7996:8013   */\n      and\n        /* \"#utility.yul\":7986:8013   */\n      swap2\n      pop\n        /* \"#utility.yul\":7942:8023   */\n    tag_181:\n        /* \"#utility.yul\":8070:8072   */\n      0x20\n        /* \"#utility.yul\":8062:8068   */\n      dup3\n        /* \"#utility.yul\":8059:8073   */\n      lt\n        /* \"#utility.yul\":8039:8057   */\n      dup2\n        /* \"#utility.yul\":8036:8074   */\n      eq\n        /* \"#utility.yul\":8033:8117   */\n      iszero\n      tag_182\n      jumpi\n        /* \"#utility.yul\":8089:8107   */\n      tag_183\n      tag_184\n      jump\t// in\n    tag_183:\n        /* \"#utility.yul\":8033:8117   */\n    tag_182:\n        /* \"#utility.yul\":7854:8123   */\n      pop\n        /* \"#utility.yul\":7803:8123   */\n      swap2\n      swap1\n      pop\n      jump\t// out\n        /* \"#utility.yul\":8129:8410   */\n    tag_158:\n        /* \"#utility.yul\":8212:8239   */\n      tag_186\n        /* \"#utility.yul\":8234:8238   */\n      dup3\n        /* \"#utility.yul\":8212:8239   */\n      tag_133\n      jump\t// in\n    tag_186:\n        /* \"#utility.yul\":8204:8210   */\n      dup2\n        /* \"#utility.yul\":8200:8240   */\n      add\n        /* \"#utility.yul\":8342:8348   */\n      dup2\n        /* \"#utility.yul\":8330:8340   */\n      dup2\n        /* \"#utility.yul\":8327:8349   */\n      lt\n        /* \"#utility.yul\":8306:8324   */\n      0xffffffffffffffff\n        /* \"#utility.yul\":8294:8304   */\n      dup3\n        /* \"#utility.yul\":8291:8325   */\n      gt\n        /* \"#utility.yul\":8288:8350   */\n      or\n        /* \"#utility.yul\":8285:8373   */\n      iszero\n      tag_187\n      jumpi\n        /* \"#utility.yul\":8353:8371   */\n      tag_188\n      tag_163\n      jump\t// in\n    tag_188:\n        /* \"#utility.yul\":8285:8373   */\n    tag_187:\n        /* \"#utility.yul\":8393:8403   */\n      dup1\n        /* \"#utility.yul\":8389:8391   */\n      0x40\n        /* \"#utility.yul\":8382:8404   */\n      mstore\n        /* \"#utility.yul\":8172:8410   */\n      pop\n        /* \"#utility.yul\":8129:8410   */\n      pop\n      pop\n      jump\t// out\n        /* \"#utility.yul\":8416:8596   */\n    tag_184:\n        /* \"#utility.yul\":8464:8541   */\n      0x4e487b7100000000000000000000000000000000000000000000000000000000\n        /* \"#utility.yul\":8461:8462   */\n      0x00\n        /* \"#utility.yul\":8454:8542   */\n      mstore\n        /* \"#utility.yul\":8561:8565   */\n      0x22\n        /* \"#utility.yul\":8558:8559   */\n      0x04\n        /* \"#utility.yul\":8551:8566   */\n      mstore\n        /* \"#utility.yul\":8585:8589   */\n      0x24\n        /* \"#utility.yul\":8582:8583   */\n      0x00\n        /* \"#utility.yul\":8575:8590   */\n      revert\n        /* \"#utility.yul\":8602:8782   */\n    tag_163:\n        /* \"#utility.yul\":8650:8727   */\n      0x4e487b7100000000000000000000000000000000000000000000000000000000\n        /* \"#utility.yul\":8647:8648   */\n      0x00\n        /* \"#utility.yul\":8640:8728   */\n      mstore\n        /* \"#utility.yul\":8747:8751   */\n      0x41\n        /* \"#utility.yul\":8744:8745   */\n      0x04\n        /* \"#utility.yul\":8737:8752   */\n      mstore\n        /* \"#utility.yul\":8771:8775   */\n      0x24\n        /* \"#utility.yul\":8768:8769   */\n      0x00\n        /* \"#utility.yul\":8761:8776   */\n      revert\n        /* \"#utility.yul\":8788:8905   */\n    tag_89:\n        /* \"#utility.yul\":8897:8898   */\n      0x00\n        /* \"#utility.yul\":8894:8895   */\n      dup1\n        /* \"#utility.yul\":8887:8899   */\n      revert\n        /* \"#utility.yul\":8911:9028   */\n    tag_78:\n        /* \"#utility.yul\":9020:9021   */\n      0x00\n        /* \"#utility.yul\":9017:9018   */\n      dup1\n        /* \"#utility.yul\":9010:9022   */\n      revert\n        /* \"#utility.yul\":9034:9151   */\n    tag_102:\n        /* \"#utility.yul\":9143:9144   */\n      0x00\n        /* \"#utility.yul\":9140:9141   */\n      dup1\n        /* \"#utility.yul\":9133:9145   */\n      revert\n        /* \"#utility.yul\":9157:9274   */\n    tag_98:\n        /* \"#utility.yul\":9266:9267   */\n      0x00\n        /* \"#utility.yul\":9263:9264   */\n      dup1\n        /* \"#utility.yul\":9256:9268   */\n      revert\n        /* \"#utility.yul\":9280:9382   */\n    tag_133:\n        /* \"#utility.yul\":9321:9327   */\n      0x00\n        /* \"#utility.yul\":9372:9374   */\n      0x1f\n        /* \"#utility.yul\":9368:9375   */\n      not\n        /* \"#utility.yul\":9363:9365   */\n      0x1f\n        /* \"#utility.yul\":9356:9361   */\n      dup4\n        /* \"#utility.yul\":9352:9366   */\n      add\n        /* \"#utility.yul\":9348:9376   */\n      and\n        /* \"#utility.yul\":9338:9376   */\n      swap1\n      pop\n        /* \"#utility.yul\":9280:9382   */\n      swap2\n      swap1\n      pop\n      jump\t// out\n        /* \"#utility.yul\":9388:9557   */\n    tag_144:\n        /* \"#utility.yul\":9528:9549   */\n      0x5468657265206973206e6f2073747564656e7400000000000000000000000000\n        /* \"#utility.yul\":9524:9525   */\n      0x00\n        /* \"#utility.yul\":9516:9522   */\n      dup3\n        /* \"#utility.yul\":9512:9526   */\n      add\n        /* \"#utility.yul\":9505:9550   */\n      mstore\n        /* \"#utility.yul\":9388:9557   */\n      pop\n      jump\t// out\n        /* \"#utility.yul\":9563:9685   */\n    tag_84:\n        /* \"#utility.yul\":9636:9660   */\n      tag_198\n        /* \"#utility.yul\":9654:9659   */\n      dup2\n        /* \"#utility.yul\":9636:9660   */\n      tag_123\n      jump\t// in\n    tag_198:\n        /* \"#utility.yul\":9629:9634   */\n      dup2\n        /* \"#utility.yul\":9626:9661   */\n      eq\n        /* \"#utility.yul\":9616:9679   */\n      tag_199\n      jumpi\n        /* \"#utility.yul\":9675:9676   */\n      0x00\n        /* \"#utility.yul\":9672:9673   */\n      dup1\n        /* \"#utility.yul\":9665:9677   */\n      revert\n        /* \"#utility.yul\":9616:9679   */\n    tag_199:\n        /* \"#utility.yul\":9563:9685   */\n      pop\n      jump\t// out\n        /* \"#utility.yul\":9691:9813   */\n    tag_94:\n        /* \"#utility.yul\":9764:9788   */\n      tag_201\n        /* \"#utility.yul\":9782:9787   */\n      dup2\n        /* \"#utility.yul\":9764:9788   */\n      tag_172\n      jump\t// in\n    tag_201:\n        /* \"#utility.yul\":9757:9762   */\n      dup2\n        /* \"#utility.yul\":9754:9789   */\n      eq\n        /* \"#utility.yul\":9744:9807   */\n      tag_202\n      jumpi\n        /* \"#utility.yul\":9803:9804   */\n      0x00\n        /* \"#utility.yul\":9800:9801   */\n      dup1\n        /* \"#utility.yul\":9793:9805   */\n      revert\n        /* \"#utility.yul\":9744:9807   */\n    tag_202:\n        /* \"#utility.yul\":9691:9813   */\n      pop\n      jump\t// out\n\n    auxdata: 0xa2646970667358221220344c4914c023ce1dd5a6b8bc39bf6de43a020db9a34091aa69bc3dcefba5facc64736f6c63430008070033\n}\n",
				"bytecode": {
					"linkReferences": {},
					"object": "60806040523480156200001157600080fd5b5060405162000e3238038062000e328339818101604052810190620000379190620001ca565b80600390805190602001906200004f92919062000057565b50506200034b565b828054828255906000526020600020908101928215620000d3579160200282015b82811115620000d25782518260006101000a81548173ffffffffffffffffffffffffffffffffffffffff021916908373ffffffffffffffffffffffffffffffffffffffff1602179055509160200191906001019062000078565b5b509050620000e29190620000e6565b5090565b5b8082111562000101576000816000905550600101620000e7565b5090565b60006200011c620001168462000244565b6200021b565b9050808382526020820190508285602086028201111562000142576200014162000311565b5b60005b858110156200017657816200015b888262000180565b84526020840193506020830192505060018101905062000145565b5050509392505050565b600081519050620001918162000331565b92915050565b600082601f830112620001af57620001ae6200030c565b5b8151620001c184826020860162000105565b91505092915050565b600060208284031215620001e357620001e26200031b565b5b600082015167ffffffffffffffff81111562000204576200020362000316565b5b620002128482850162000197565b91505092915050565b6000620002276200023a565b9050620002358282620002a7565b919050565b6000604051905090565b600067ffffffffffffffff821115620002625762000261620002dd565b5b602082029050602081019050919050565b6000620002808262000287565b9050919050565b600073ffffffffffffffffffffffffffffffffffffffff82169050919050565b620002b28262000320565b810181811067ffffffffffffffff82111715620002d457620002d3620002dd565b5b80604052505050565b7f4e487b7100000000000000000000000000000000000000000000000000000000600052604160045260246000fd5b600080fd5b600080fd5b600080fd5b600080fd5b6000601f19601f8301169050919050565b6200033c8162000273565b81146200034857600080fd5b50565b610ad7806200035b6000396000f3fe608060405234801561001057600080fd5b506004361061004b5760003560e01c80629a4d3c1461005057806375c2f8f01461006c578063b645307d1461009d578063e9e8a17c146100cd575b600080fd5b61006a60048036038101906100659190610609565b6100e9565b005b61008660048036038101906100819190610717565b6101d6565b604051610094929190610819565b60405180910390f35b6100b760048036038101906100b29190610717565b6102c5565b6040516100c491906107f7565b60405180910390f35b6100e760048036038101906100e291906106a8565b61037f565b005b6100f1610429565b60405180608001604052808673ffffffffffffffffffffffffffffffffffffffff1681526020018581526020018481526020018281525060068360405161013891906107e0565b908152602001604051809103902060008201518160000160006101000a81548173ffffffffffffffffffffffffffffffffffffffff021916908373ffffffffffffffffffffffffffffffffffffffff16021790555060208201518160010190805190602001906101a992919061044c565b506040820151816002015560608201518160030190602d6101cb9291906104d2565b509050505050505050565b60606000606060006007600086815260200190815260200160002060000180546101ff90610964565b80601f016020809104026020016040519081016040528092919081815260200182805461022b90610964565b80156102785780601f1061024d57610100808354040283529160200191610278565b820191906000526020600020905b81548152906001019060200180831161025b57829003601f168201915b505050505091506007600086815260200190815260200160002060010160009054906101000a900473ffffffffffffffffffffffffffffffffffffffff1690508181935093505050915091565b606060006007600084815260200190815260200160002060000180546102ea90610964565b9050141561032d576040517f08c379a000000000000000000000000000000000000000000000000000000000815260040161032490610849565b60405180910390fd5b60076000838152602001908152602001600020600080820160006103519190610512565b6001820160006101000a81549073ffffffffffffffffffffffffffffffffffffffff02191690555050919050565b60405180604001604052808481526020018273ffffffffffffffffffffffffffffffffffffffff168152506007600084815260200190815260200160002060008201518160000190805190602001906103d992919061044c565b5060208201518160010160006101000a81548173ffffffffffffffffffffffffffffffffffffffff021916908373ffffffffffffffffffffffffffffffffffffffff160217905550905050505050565b604051806105a00160405280602d90602082028036833780820191505090505090565b82805461045890610964565b90600052602060002090601f01602090048101928261047a57600085556104c1565b82601f1061049357805160ff19168380011785556104c1565b828001600101855582156104c1579182015b828111156104c05782518255916020019190600101906104a5565b5b5090506104ce9190610552565b5090565b82602d8101928215610501579160200282015b828111156105005782518255916020019190600101906104e5565b5b50905061050e9190610552565b5090565b50805461051e90610964565b6000825580601f10610530575061054f565b601f01602090049060005260206000209081019061054e9190610552565b5b50565b5b8082111561056b576000816000905550600101610553565b5090565b600061058261057d8461088e565b610869565b90508281526020810184848401111561059e5761059d610a2a565b5b6105a9848285610922565b509392505050565b6000813590506105c081610a73565b92915050565b600082601f8301126105db576105da610a25565b5b81356105eb84826020860161056f565b91505092915050565b60008135905061060381610a8a565b92915050565b6000806000806080858703121561062357610622610a34565b5b6000610631878288016105b1565b945050602085013567ffffffffffffffff81111561065257610651610a2f565b5b61065e878288016105c6565b935050604061066f878288016105f4565b925050606085013567ffffffffffffffff8111156106905761068f610a2f565b5b61069c878288016105c6565b91505092959194509250565b6000806000606084860312156106c1576106c0610a34565b5b600084013567ffffffffffffffff8111156106df576106de610a2f565b5b6106eb868287016105c6565b93505060206106fc868287016105f4565b925050604061070d868287016105b1565b9150509250925092565b60006020828403121561072d5761072c610a34565b5b600061073b848285016105f4565b91505092915050565b61074d816108e6565b82525050565b600061075e826108bf565b61076881856108ca565b9350610778818560208601610931565b61078181610a39565b840191505092915050565b6000610797826108bf565b6107a181856108db565b93506107b1818560208601610931565b80840191505092915050565b60006107ca6013836108ca565b91506107d582610a4a565b602082019050919050565b60006107ec828461078c565b915081905092915050565b600060208201905081810360008301526108118184610753565b905092915050565b600060408201905081810360008301526108338185610753565b90506108426020830184610744565b9392505050565b60006020820190508181036000830152610862816107bd565b9050919050565b6000610873610884565b905061087f8282610996565b919050565b6000604051905090565b600067ffffffffffffffff8211156108a9576108a86109f6565b5b6108b282610a39565b9050602081019050919050565b600081519050919050565b600082825260208201905092915050565b600081905092915050565b60006108f1826108f8565b9050919050565b600073ffffffffffffffffffffffffffffffffffffffff82169050919050565b6000819050919050565b82818337600083830152505050565b60005b8381101561094f578082015181840152602081019050610934565b8381111561095e576000848401525b50505050565b6000600282049050600182168061097c57607f821691505b602082108114156109905761098f6109c7565b5b50919050565b61099f82610a39565b810181811067ffffffffffffffff821117156109be576109bd6109f6565b5b80604052505050565b7f4e487b7100000000000000000000000000000000000000000000000000000000600052602260045260246000fd5b7f4e487b7100000000000000000000000000000000000000000000000000000000600052604160045260246000fd5b600080fd5b600080fd5b600080fd5b600080fd5b6000601f19601f8301169050919050565b7f5468657265206973206e6f2073747564656e7400000000000000000000000000600082015250565b610a7c816108e6565b8114610a8757600080fd5b50565b610a9381610918565b8114610a9e57600080fd5b5056fea2646970667358221220344c4914c023ce1dd5a6b8bc39bf6de43a020db9a34091aa69bc3dcefba5facc64736f6c63430008070033",
					"opcodes": "PUSH1 0x80 PUSH1 0x40 MSTORE CALLVALUE DUP1 ISZERO PUSH3 0x11 JUMPI PUSH1 0x0 DUP1 REVERT JUMPDEST POP PUSH1 0x40 MLOAD PUSH3 0xE32 CODESIZE SUB DUP1 PUSH3 0xE32 DUP4 CODECOPY DUP2 DUP2 ADD PUSH1 0x40 MSTORE DUP2 ADD SWAP1 PUSH3 0x37 SWAP2 SWAP1 PUSH3 0x1CA JUMP JUMPDEST DUP1 PUSH1 0x3 SWAP1 DUP1 MLOAD SWAP1 PUSH1 0x20 ADD SWAP1 PUSH3 0x4F SWAP3 SWAP2 SWAP1 PUSH3 0x57 JUMP JUMPDEST POP POP PUSH3 0x34B JUMP JUMPDEST DUP3 DUP1 SLOAD DUP3 DUP3 SSTORE SWAP1 PUSH1 0x0 MSTORE PUSH1 0x20 PUSH1 0x0 KECCAK256 SWAP1 DUP2 ADD SWAP3 DUP3 ISZERO PUSH3 0xD3 JUMPI SWAP2 PUSH1 0x20 MUL DUP3 ADD JUMPDEST DUP3 DUP2 GT ISZERO PUSH3 0xD2 JUMPI DUP3 MLOAD DUP3 PUSH1 0x0 PUSH2 0x100 EXP DUP2 SLOAD DUP2 PUSH20 0xFFFFFFFFFFFFFFFFFFFFFFFFFFFFFFFFFFFFFFFF MUL NOT AND SWAP1 DUP4 PUSH20 0xFFFFFFFFFFFFFFFFFFFFFFFFFFFFFFFFFFFFFFFF AND MUL OR SWAP1 SSTORE POP SWAP2 PUSH1 0x20 ADD SWAP2 SWAP1 PUSH1 0x1 ADD SWAP1 PUSH3 0x78 JUMP JUMPDEST JUMPDEST POP SWAP1 POP PUSH3 0xE2 SWAP2 SWAP1 PUSH3 0xE6 JUMP JUMPDEST POP SWAP1 JUMP JUMPDEST JUMPDEST DUP1 DUP3 GT ISZERO PUSH3 0x101 JUMPI PUSH1 0x0 DUP2 PUSH1 0x0 SWAP1 SSTORE POP PUSH1 0x1 ADD PUSH3 0xE7 JUMP JUMPDEST POP SWAP1 JUMP JUMPDEST PUSH1 0x0 PUSH3 0x11C PUSH3 0x116 DUP5 PUSH3 0x244 JUMP JUMPDEST PUSH3 0x21B JUMP JUMPDEST SWAP1 POP DUP1 DUP4 DUP3 MSTORE PUSH1 0x20 DUP3 ADD SWAP1 POP DUP3 DUP6 PUSH1 0x20 DUP7 MUL DUP3 ADD GT ISZERO PUSH3 0x142 JUMPI PUSH3 0x141 PUSH3 0x311 JUMP JUMPDEST JUMPDEST PUSH1 0x0 JUMPDEST DUP6 DUP2 LT ISZERO PUSH3 0x176 JUMPI DUP2 PUSH3 0x15B DUP9 DUP3 PUSH3 0x180 JUMP JUMPDEST DUP5 MSTORE PUSH1 0x20 DUP5 ADD SWAP4 POP PUSH1 0x20 DUP4 ADD SWAP3 POP POP PUSH1 0x1 DUP2 ADD SWAP1 POP PUSH3 0x145 JUMP JUMPDEST POP POP POP SWAP4 SWAP3 POP POP POP JUMP JUMPDEST PUSH1 0x0 DUP2 MLOAD SWAP1 POP PUSH3 0x191 DUP2 PUSH3 0x331 JUMP JUMPDEST SWAP3 SWAP2 POP POP JUMP JUMPDEST PUSH1 0x0 DUP3 PUSH1 0x1F DUP4 ADD SLT PUSH3 0x1AF JUMPI PUSH3 0x1AE PUSH3 0x30C JUMP JUMPDEST JUMPDEST DUP2 MLOAD PUSH3 0x1C1 DUP5 DUP3 PUSH1 0x20 DUP7 ADD PUSH3 0x105 JUMP JUMPDEST SWAP2 POP POP SWAP3 SWAP2 POP POP JUMP JUMPDEST PUSH1 0x0 PUSH1 0x20 DUP3 DUP5 SUB SLT ISZERO PUSH3 0x1E3 JUMPI PUSH3 0x1E2 PUSH3 0x31B JUMP JUMPDEST JUMPDEST PUSH1 0x0 DUP3 ADD MLOAD PUSH8 0xFFFFFFFFFFFFFFFF DUP2 GT ISZERO PUSH3 0x204 JUMPI PUSH3 0x203 PUSH3 0x316 JUMP JUMPDEST JUMPDEST PUSH3 0x212 DUP5 DUP3 DUP6 ADD PUSH3 0x197 JUMP JUMPDEST SWAP2 POP POP SWAP3 SWAP2 POP POP JUMP JUMPDEST PUSH1 0x0 PUSH3 0x227 PUSH3 0x23A JUMP JUMPDEST SWAP1 POP PUSH3 0x235 DUP3 DUP3 PUSH3 0x2A7 JUMP JUMPDEST SWAP2 SWAP1 POP JUMP JUMPDEST PUSH1 0x0 PUSH1 0x40 MLOAD SWAP1 POP SWAP1 JUMP JUMPDEST PUSH1 0x0 PUSH8 0xFFFFFFFFFFFFFFFF DUP3 GT ISZERO PUSH3 0x262 JUMPI PUSH3 0x261 PUSH3 0x2DD JUMP JUMPDEST JUMPDEST PUSH1 0x20 DUP3 MUL SWAP1 POP PUSH1 0x20 DUP2 ADD SWAP1 POP SWAP2 SWAP1 POP JUMP JUMPDEST PUSH1 0x0 PUSH3 0x280 DUP3 PUSH3 0x287 JUMP JUMPDEST SWAP1 POP SWAP2 SWAP1 POP JUMP JUMPDEST PUSH1 0x0 PUSH20 0xFFFFFFFFFFFFFFFFFFFFFFFFFFFFFFFFFFFFFFFF DUP3 AND SWAP1 POP SWAP2 SWAP1 POP JUMP JUMPDEST PUSH3 0x2B2 DUP3 PUSH3 0x320 JUMP JUMPDEST DUP2 ADD DUP2 DUP2 LT PUSH8 0xFFFFFFFFFFFFFFFF DUP3 GT OR ISZERO PUSH3 0x2D4 JUMPI PUSH3 0x2D3 PUSH3 0x2DD JUMP JUMPDEST JUMPDEST DUP1 PUSH1 0x40 MSTORE POP POP POP JUMP JUMPDEST PUSH32 0x4E487B7100000000000000000000000000000000000000000000000000000000 PUSH1 0x0 MSTORE PUSH1 0x41 PUSH1 0x4 MSTORE PUSH1 0x24 PUSH1 0x0 REVERT JUMPDEST PUSH1 0x0 DUP1 REVERT JUMPDEST PUSH1 0x0 DUP1 REVERT JUMPDEST PUSH1 0x0 DUP1 REVERT JUMPDEST PUSH1 0x0 DUP1 REVERT JUMPDEST PUSH1 0x0 PUSH1 0x1F NOT PUSH1 0x1F DUP4 ADD AND SWAP1 POP SWAP2 SWAP1 POP JUMP JUMPDEST PUSH3 0x33C DUP2 PUSH3 0x273 JUMP JUMPDEST DUP2 EQ PUSH3 0x348 JUMPI PUSH1 0x0 DUP1 REVERT JUMPDEST POP JUMP JUMPDEST PUSH2 0xAD7 DUP1 PUSH3 0x35B PUSH1 0x0 CODECOPY PUSH1 0x0 RETURN INVALID PUSH1 0x80 PUSH1 0x40 MSTORE CALLVALUE DUP1 ISZERO PUSH2 0x10 JUMPI PUSH1 0x0 DUP1 REVERT JUMPDEST POP PUSH1 0x4 CALLDATASIZE LT PUSH2 0x4B JUMPI PUSH1 0x0 CALLDATALOAD PUSH1 0xE0 SHR DUP1 PUSH3 0x9A4D3C EQ PUSH2 0x50 JUMPI DUP1 PUSH4 0x75C2F8F0 EQ PUSH2 0x6C JUMPI DUP1 PUSH4 0xB645307D EQ PUSH2 0x9D JUMPI DUP1 PUSH4 0xE9E8A17C EQ PUSH2 0xCD JUMPI JUMPDEST PUSH1 0x0 DUP1 REVERT JUMPDEST PUSH2 0x6A PUSH1 0x4 DUP1 CALLDATASIZE SUB DUP2 ADD SWAP1 PUSH2 0x65 SWAP2 SWAP1 PUSH2 0x609 JUMP JUMPDEST PUSH2 0xE9 JUMP JUMPDEST STOP JUMPDEST PUSH2 0x86 PUSH1 0x4 DUP1 CALLDATASIZE SUB DUP2 ADD SWAP1 PUSH2 0x81 SWAP2 SWAP1 PUSH2 0x717 JUMP JUMPDEST PUSH2 0x1D6 JUMP JUMPDEST PUSH1 0x40 MLOAD PUSH2 0x94 SWAP3 SWAP2 SWAP1 PUSH2 0x819 JUMP JUMPDEST PUSH1 0x40 MLOAD DUP1 SWAP2 SUB SWAP1 RETURN JUMPDEST PUSH2 0xB7 PUSH1 0x4 DUP1 CALLDATASIZE SUB DUP2 ADD SWAP1 PUSH2 0xB2 SWAP2 SWAP1 PUSH2 0x717 JUMP JUMPDEST PUSH2 0x2C5 JUMP JUMPDEST PUSH1 0x40 MLOAD PUSH2 0xC4 SWAP2 SWAP1 PUSH2 0x7F7 JUMP JUMPDEST PUSH1 0x40 MLOAD DUP1 SWAP2 SUB SWAP1 RETURN JUMPDEST PUSH2 0xE7 PUSH1 0x4 DUP1 CALLDATASIZE SUB DUP2 ADD SWAP1 PUSH2 0xE2 SWAP2 SWAP1 PUSH2 0x6A8 JUMP JUMPDEST PUSH2 0x37F JUMP JUMPDEST STOP JUMPDEST PUSH2 0xF1 PUSH2 0x429 JUMP JUMPDEST PUSH1 0x40 MLOAD DUP1 PUSH1 0x80 ADD PUSH1 0x40 MSTORE DUP1 DUP7 PUSH20 0xFFFFFFFFFFFFFFFFFFFFFFFFFFFFFFFFFFFFFFFF AND DUP2 MSTORE PUSH1 0x20 ADD DUP6 DUP2 MSTORE PUSH1 0x20 ADD DUP5 DUP2 MSTORE PUSH1 0x20 ADD DUP3 DUP2 MSTORE POP PUSH1 0x6 DUP4 PUSH1 0x40 MLOAD PUSH2 0x138 SWAP2 SWAP1 PUSH2 0x7E0 JUMP JUMPDEST SWAP1 DUP2 MSTORE PUSH1 0x20 ADD PUSH1 0x40 MLOAD DUP1 SWAP2 SUB SWAP1 KECCAK256 PUSH1 0x0 DUP3 ADD MLOAD DUP2 PUSH1 0x0 ADD PUSH1 0x0 PUSH2 0x100 EXP DUP2 SLOAD DUP2 PUSH20 0xFFFFFFFFFFFFFFFFFFFFFFFFFFFFFFFFFFFFFFFF MUL NOT AND SWAP1 DUP4 PUSH20 0xFFFFFFFFFFFFFFFFFFFFFFFFFFFFFFFFFFFFFFFF AND MUL OR SWAP1 SSTORE POP PUSH1 0x20 DUP3 ADD MLOAD DUP2 PUSH1 0x1 ADD SWAP1 DUP1 MLOAD SWAP1 PUSH1 0x20 ADD SWAP1 PUSH2 0x1A9 SWAP3 SWAP2 SWAP1 PUSH2 0x44C JUMP JUMPDEST POP PUSH1 0x40 DUP3 ADD MLOAD DUP2 PUSH1 0x2 ADD SSTORE PUSH1 0x60 DUP3 ADD MLOAD DUP2 PUSH1 0x3 ADD SWAP1 PUSH1 0x2D PUSH2 0x1CB SWAP3 SWAP2 SWAP1 PUSH2 0x4D2 JUMP JUMPDEST POP SWAP1 POP POP POP POP POP POP POP JUMP JUMPDEST PUSH1 0x60 PUSH1 0x0 PUSH1 0x60 PUSH1 0x0 PUSH1 0x7 PUSH1 0x0 DUP7 DUP2 MSTORE PUSH1 0x20 ADD SWAP1 DUP2 MSTORE PUSH1 0x20 ADD PUSH1 0x0 KECCAK256 PUSH1 0x0 ADD DUP1 SLOAD PUSH2 0x1FF SWAP1 PUSH2 0x964 JUMP JUMPDEST DUP1 PUSH1 0x1F ADD PUSH1 0x20 DUP1 SWAP2 DIV MUL PUSH1 0x20 ADD PUSH1 0x40 MLOAD SWAP1 DUP2 ADD PUSH1 0x40 MSTORE DUP1 SWAP3 SWAP2 SWAP1 DUP2 DUP2 MSTORE PUSH1 0x20 ADD DUP3 DUP1 SLOAD PUSH2 0x22B SWAP1 PUSH2 0x964 JUMP JUMPDEST DUP1 ISZERO PUSH2 0x278 JUMPI DUP1 PUSH1 0x1F LT PUSH2 0x24D JUMPI PUSH2 0x100 DUP1 DUP4 SLOAD DIV MUL DUP4 MSTORE SWAP2 PUSH1 0x20 ADD SWAP2 PUSH2 0x278 JUMP JUMPDEST DUP3 ADD SWAP2 SWAP1 PUSH1 0x0 MSTORE PUSH1 0x20 PUSH1 0x0 KECCAK256 SWAP1 JUMPDEST DUP2 SLOAD DUP2 MSTORE SWAP1 PUSH1 0x1 ADD SWAP1 PUSH1 0x20 ADD DUP1 DUP4 GT PUSH2 0x25B JUMPI DUP3 SWAP1 SUB PUSH1 0x1F AND DUP3 ADD SWAP2 JUMPDEST POP POP POP POP POP SWAP2 POP PUSH1 0x7 PUSH1 0x0 DUP7 DUP2 MSTORE PUSH1 0x20 ADD SWAP1 DUP2 MSTORE PUSH1 0x20 ADD PUSH1 0x0 KECCAK256 PUSH1 0x1 ADD PUSH1 0x0 SWAP1 SLOAD SWAP1 PUSH2 0x100 EXP SWAP1 DIV PUSH20 0xFFFFFFFFFFFFFFFFFFFFFFFFFFFFFFFFFFFFFFFF AND SWAP1 POP DUP2 DUP2 SWAP4 POP SWAP4 POP POP POP SWAP2 POP SWAP2 JUMP JUMPDEST PUSH1 0x60 PUSH1 0x0 PUSH1 0x7 PUSH1 0x0 DUP5 DUP2 MSTORE PUSH1 0x20 ADD SWAP1 DUP2 MSTORE PUSH1 0x20 ADD PUSH1 0x0 KECCAK256 PUSH1 0x0 ADD DUP1 SLOAD PUSH2 0x2EA SWAP1 PUSH2 0x964 JUMP JUMPDEST SWAP1 POP EQ ISZERO PUSH2 0x32D JUMPI PUSH1 0x40 MLOAD PUSH32 0x8C379A000000000000000000000000000000000000000000000000000000000 DUP2 MSTORE PUSH1 0x4 ADD PUSH2 0x324 SWAP1 PUSH2 0x849 JUMP JUMPDEST PUSH1 0x40 MLOAD DUP1 SWAP2 SUB SWAP1 REVERT JUMPDEST PUSH1 0x7 PUSH1 0x0 DUP4 DUP2 MSTORE PUSH1 0x20 ADD SWAP1 DUP2 MSTORE PUSH1 0x20 ADD PUSH1 0x0 KECCAK256 PUSH1 0x0 DUP1 DUP3 ADD PUSH1 0x0 PUSH2 0x351 SWAP2 SWAP1 PUSH2 0x512 JUMP JUMPDEST PUSH1 0x1 DUP3 ADD PUSH1 0x0 PUSH2 0x100 EXP DUP2 SLOAD SWAP1 PUSH20 0xFFFFFFFFFFFFFFFFFFFFFFFFFFFFFFFFFFFFFFFF MUL NOT AND SWAP1 SSTORE POP POP SWAP2 SWAP1 POP JUMP JUMPDEST PUSH1 0x40 MLOAD DUP1 PUSH1 0x40 ADD PUSH1 0x40 MSTORE DUP1 DUP5 DUP2 MSTORE PUSH1 0x20 ADD DUP3 PUSH20 0xFFFFFFFFFFFFFFFFFFFFFFFFFFFFFFFFFFFFFFFF AND DUP2 MSTORE POP PUSH1 0x7 PUSH1 0x0 DUP5 DUP2 MSTORE PUSH1 0x20 ADD SWAP1 DUP2 MSTORE PUSH1 0x20 ADD PUSH1 0x0 KECCAK256 PUSH1 0x0 DUP3 ADD MLOAD DUP2 PUSH1 0x0 ADD SWAP1 DUP1 MLOAD SWAP1 PUSH1 0x20 ADD SWAP1 PUSH2 0x3D9 SWAP3 SWAP2 SWAP1 PUSH2 0x44C JUMP JUMPDEST POP PUSH1 0x20 DUP3 ADD MLOAD DUP2 PUSH1 0x1 ADD PUSH1 0x0 PUSH2 0x100 EXP DUP2 SLOAD DUP2 PUSH20 0xFFFFFFFFFFFFFFFFFFFFFFFFFFFFFFFFFFFFFFFF MUL NOT AND SWAP1 DUP4 PUSH20 0xFFFFFFFFFFFFFFFFFFFFFFFFFFFFFFFFFFFFFFFF AND MUL OR SWAP1 SSTORE POP SWAP1 POP POP POP POP POP JUMP JUMPDEST PUSH1 0x40 MLOAD DUP1 PUSH2 0x5A0 ADD PUSH1 0x40 MSTORE DUP1 PUSH1 0x2D SWAP1 PUSH1 0x20 DUP3 MUL DUP1 CALLDATASIZE DUP4 CALLDATACOPY DUP1 DUP3 ADD SWAP2 POP POP SWAP1 POP POP SWAP1 JUMP JUMPDEST DUP3 DUP1 SLOAD PUSH2 0x458 SWAP1 PUSH2 0x964 JUMP JUMPDEST SWAP1 PUSH1 0x0 MSTORE PUSH1 0x20 PUSH1 0x0 KECCAK256 SWAP1 PUSH1 0x1F ADD PUSH1 0x20 SWAP1 DIV DUP2 ADD SWAP3 DUP3 PUSH2 0x47A JUMPI PUSH1 0x0 DUP6 SSTORE PUSH2 0x4C1 JUMP JUMPDEST DUP3 PUSH1 0x1F LT PUSH2 0x493 JUMPI DUP1 MLOAD PUSH1 0xFF NOT AND DUP4 DUP1 ADD OR DUP6 SSTORE PUSH2 0x4C1 JUMP JUMPDEST DUP3 DUP1 ADD PUSH1 0x1 ADD DUP6 SSTORE DUP3 ISZERO PUSH2 0x4C1 JUMPI SWAP2 DUP3 ADD JUMPDEST DUP3 DUP2 GT ISZERO PUSH2 0x4C0 JUMPI DUP3 MLOAD DUP3 SSTORE SWAP2 PUSH1 0x20 ADD SWAP2 SWAP1 PUSH1 0x1 ADD SWAP1 PUSH2 0x4A5 JUMP JUMPDEST JUMPDEST POP SWAP1 POP PUSH2 0x4CE SWAP2 SWAP1 PUSH2 0x552 JUMP JUMPDEST POP SWAP1 JUMP JUMPDEST DUP3 PUSH1 0x2D DUP2 ADD SWAP3 DUP3 ISZERO PUSH2 0x501 JUMPI SWAP2 PUSH1 0x20 MUL DUP3 ADD JUMPDEST DUP3 DUP2 GT ISZERO PUSH2 0x500 JUMPI DUP3 MLOAD DUP3 SSTORE SWAP2 PUSH1 0x20 ADD SWAP2 SWAP1 PUSH1 0x1 ADD SWAP1 PUSH2 0x4E5 JUMP JUMPDEST JUMPDEST POP SWAP1 POP PUSH2 0x50E SWAP2 SWAP1 PUSH2 0x552 JUMP JUMPDEST POP SWAP1 JUMP JUMPDEST POP DUP1 SLOAD PUSH2 0x51E SWAP1 PUSH2 0x964 JUMP JUMPDEST PUSH1 0x0 DUP3 SSTORE DUP1 PUSH1 0x1F LT PUSH2 0x530 JUMPI POP PUSH2 0x54F JUMP JUMPDEST PUSH1 0x1F ADD PUSH1 0x20 SWAP1 DIV SWAP1 PUSH1 0x0 MSTORE PUSH1 0x20 PUSH1 0x0 KECCAK256 SWAP1 DUP2 ADD SWAP1 PUSH2 0x54E SWAP2 SWAP1 PUSH2 0x552 JUMP JUMPDEST JUMPDEST POP JUMP JUMPDEST JUMPDEST DUP1 DUP3 GT ISZERO PUSH2 0x56B JUMPI PUSH1 0x0 DUP2 PUSH1 0x0 SWAP1 SSTORE POP PUSH1 0x1 ADD PUSH2 0x553 JUMP JUMPDEST POP SWAP1 JUMP JUMPDEST PUSH1 0x0 PUSH2 0x582 PUSH2 0x57D DUP5 PUSH2 0x88E JUMP JUMPDEST PUSH2 0x869 JUMP JUMPDEST SWAP1 POP DUP3 DUP2 MSTORE PUSH1 0x20 DUP2 ADD DUP5 DUP5 DUP5 ADD GT ISZERO PUSH2 0x59E JUMPI PUSH2 0x59D PUSH2 0xA2A JUMP JUMPDEST JUMPDEST PUSH2 0x5A9 DUP5 DUP3 DUP6 PUSH2 0x922 JUMP JUMPDEST POP SWAP4 SWAP3 POP POP POP JUMP JUMPDEST PUSH1 0x0 DUP2 CALLDATALOAD SWAP1 POP PUSH2 0x5C0 DUP2 PUSH2 0xA73 JUMP JUMPDEST SWAP3 SWAP2 POP POP JUMP JUMPDEST PUSH1 0x0 DUP3 PUSH1 0x1F DUP4 ADD SLT PUSH2 0x5DB JUMPI PUSH2 0x5DA PUSH2 0xA25 JUMP JUMPDEST JUMPDEST DUP2 CALLDATALOAD PUSH2 0x5EB DUP5 DUP3 PUSH1 0x20 DUP7 ADD PUSH2 0x56F JUMP JUMPDEST SWAP2 POP POP SWAP3 SWAP2 POP POP JUMP JUMPDEST PUSH1 0x0 DUP2 CALLDATALOAD SWAP1 POP PUSH2 0x603 DUP2 PUSH2 0xA8A JUMP JUMPDEST SWAP3 SWAP2 POP POP JUMP JUMPDEST PUSH1 0x0 DUP1 PUSH1 0x0 DUP1 PUSH1 0x80 DUP6 DUP8 SUB SLT ISZERO PUSH2 0x623 JUMPI PUSH2 0x622 PUSH2 0xA34 JUMP JUMPDEST JUMPDEST PUSH1 0x0 PUSH2 0x631 DUP8 DUP3 DUP9 ADD PUSH2 0x5B1 JUMP JUMPDEST SWAP5 POP POP PUSH1 0x20 DUP6 ADD CALLDATALOAD PUSH8 0xFFFFFFFFFFFFFFFF DUP2 GT ISZERO PUSH2 0x652 JUMPI PUSH2 0x651 PUSH2 0xA2F JUMP JUMPDEST JUMPDEST PUSH2 0x65E DUP8 DUP3 DUP9 ADD PUSH2 0x5C6 JUMP JUMPDEST SWAP4 POP POP PUSH1 0x40 PUSH2 0x66F DUP8 DUP3 DUP9 ADD PUSH2 0x5F4 JUMP JUMPDEST SWAP3 POP POP PUSH1 0x60 DUP6 ADD CALLDATALOAD PUSH8 0xFFFFFFFFFFFFFFFF DUP2 GT ISZERO PUSH2 0x690 JUMPI PUSH2 0x68F PUSH2 0xA2F JUMP JUMPDEST JUMPDEST PUSH2 0x69C DUP8 DUP3 DUP9 ADD PUSH2 0x5C6 JUMP JUMPDEST SWAP2 POP POP SWAP3 SWAP6 SWAP2 SWAP5 POP SWAP3 POP JUMP JUMPDEST PUSH1 0x0 DUP1 PUSH1 0x0 PUSH1 0x60 DUP5 DUP7 SUB SLT ISZERO PUSH2 0x6C1 JUMPI PUSH2 0x6C0 PUSH2 0xA34 JUMP JUMPDEST JUMPDEST PUSH1 0x0 DUP5 ADD CALLDATALOAD PUSH8 0xFFFFFFFFFFFFFFFF DUP2 GT ISZERO PUSH2 0x6DF JUMPI PUSH2 0x6DE PUSH2 0xA2F JUMP JUMPDEST JUMPDEST PUSH2 0x6EB DUP7 DUP3 DUP8 ADD PUSH2 0x5C6 JUMP JUMPDEST SWAP4 POP POP PUSH1 0x20 PUSH2 0x6FC DUP7 DUP3 DUP8 ADD PUSH2 0x5F4 JUMP JUMPDEST SWAP3 POP POP PUSH1 0x40 PUSH2 0x70D DUP7 DUP3 DUP8 ADD PUSH2 0x5B1 JUMP JUMPDEST SWAP2 POP POP SWAP3 POP SWAP3 POP SWAP3 JUMP JUMPDEST PUSH1 0x0 PUSH1 0x20 DUP3 DUP5 SUB SLT ISZERO PUSH2 0x72D JUMPI PUSH2 0x72C PUSH2 0xA34 JUMP JUMPDEST JUMPDEST PUSH1 0x0 PUSH2 0x73B DUP5 DUP3 DUP6 ADD PUSH2 0x5F4 JUMP JUMPDEST SWAP2 POP POP SWAP3 SWAP2 POP POP JUMP JUMPDEST PUSH2 0x74D DUP2 PUSH2 0x8E6 JUMP JUMPDEST DUP3 MSTORE POP POP JUMP JUMPDEST PUSH1 0x0 PUSH2 0x75E DUP3 PUSH2 0x8BF JUMP JUMPDEST PUSH2 0x768 DUP2 DUP6 PUSH2 0x8CA JUMP JUMPDEST SWAP4 POP PUSH2 0x778 DUP2 DUP6 PUSH1 0x20 DUP7 ADD PUSH2 0x931 JUMP JUMPDEST PUSH2 0x781 DUP2 PUSH2 0xA39 JUMP JUMPDEST DUP5 ADD SWAP2 POP POP SWAP3 SWAP2 POP POP JUMP JUMPDEST PUSH1 0x0 PUSH2 0x797 DUP3 PUSH2 0x8BF JUMP JUMPDEST PUSH2 0x7A1 DUP2 DUP6 PUSH2 0x8DB JUMP JUMPDEST SWAP4 POP PUSH2 0x7B1 DUP2 DUP6 PUSH1 0x20 DUP7 ADD PUSH2 0x931 JUMP JUMPDEST DUP1 DUP5 ADD SWAP2 POP POP SWAP3 SWAP2 POP POP JUMP JUMPDEST PUSH1 0x0 PUSH2 0x7CA PUSH1 0x13 DUP4 PUSH2 0x8CA JUMP JUMPDEST SWAP2 POP PUSH2 0x7D5 DUP3 PUSH2 0xA4A JUMP JUMPDEST PUSH1 0x20 DUP3 ADD SWAP1 POP SWAP2 SWAP1 POP JUMP JUMPDEST PUSH1 0x0 PUSH2 0x7EC DUP3 DUP5 PUSH2 0x78C JUMP JUMPDEST SWAP2 POP DUP2 SWAP1 POP SWAP3 SWAP2 POP POP JUMP JUMPDEST PUSH1 0x0 PUSH1 0x20 DUP3 ADD SWAP1 POP DUP2 DUP2 SUB PUSH1 0x0 DUP4 ADD MSTORE PUSH2 0x811 DUP2 DUP5 PUSH2 0x753 JUMP JUMPDEST SWAP1 POP SWAP3 SWAP2 POP POP JUMP JUMPDEST PUSH1 0x0 PUSH1 0x40 DUP3 ADD SWAP1 POP DUP2 DUP2 SUB PUSH1 0x0 DUP4 ADD MSTORE PUSH2 0x833 DUP2 DUP6 PUSH2 0x753 JUMP JUMPDEST SWAP1 POP PUSH2 0x842 PUSH1 0x20 DUP4 ADD DUP5 PUSH2 0x744 JUMP JUMPDEST SWAP4 SWAP3 POP POP POP JUMP JUMPDEST PUSH1 0x0 PUSH1 0x20 DUP3 ADD SWAP1 POP DUP2 DUP2 SUB PUSH1 0x0 DUP4 ADD MSTORE PUSH2 0x862 DUP2 PUSH2 0x7BD JUMP JUMPDEST SWAP1 POP SWAP2 SWAP1 POP JUMP JUMPDEST PUSH1 0x0 PUSH2 0x873 PUSH2 0x884 JUMP JUMPDEST SWAP1 POP PUSH2 0x87F DUP3 DUP3 PUSH2 0x996 JUMP JUMPDEST SWAP2 SWAP1 POP JUMP JUMPDEST PUSH1 0x0 PUSH1 0x40 MLOAD SWAP1 POP SWAP1 JUMP JUMPDEST PUSH1 0x0 PUSH8 0xFFFFFFFFFFFFFFFF DUP3 GT ISZERO PUSH2 0x8A9 JUMPI PUSH2 0x8A8 PUSH2 0x9F6 JUMP JUMPDEST JUMPDEST PUSH2 0x8B2 DUP3 PUSH2 0xA39 JUMP JUMPDEST SWAP1 POP PUSH1 0x20 DUP2 ADD SWAP1 POP SWAP2 SWAP1 POP JUMP JUMPDEST PUSH1 0x0 DUP2 MLOAD SWAP1 POP SWAP2 SWAP1 POP JUMP JUMPDEST PUSH1 0x0 DUP3 DUP3 MSTORE PUSH1 0x20 DUP3 ADD SWAP1 POP SWAP3 SWAP2 POP POP JUMP JUMPDEST PUSH1 0x0 DUP2 SWAP1 POP SWAP3 SWAP2 POP POP JUMP JUMPDEST PUSH1 0x0 PUSH2 0x8F1 DUP3 PUSH2 0x8F8 JUMP JUMPDEST SWAP1 POP SWAP2 SWAP1 POP JUMP JUMPDEST PUSH1 0x0 PUSH20 0xFFFFFFFFFFFFFFFFFFFFFFFFFFFFFFFFFFFFFFFF DUP3 AND SWAP1 POP SWAP2 SWAP1 POP JUMP JUMPDEST PUSH1 0x0 DUP2 SWAP1 POP SWAP2 SWAP1 POP JUMP JUMPDEST DUP3 DUP2 DUP4 CALLDATACOPY PUSH1 0x0 DUP4 DUP4 ADD MSTORE POP POP POP JUMP JUMPDEST PUSH1 0x0 JUMPDEST DUP4 DUP2 LT ISZERO PUSH2 0x94F JUMPI DUP1 DUP3 ADD MLOAD DUP2 DUP5 ADD MSTORE PUSH1 0x20 DUP2 ADD SWAP1 POP PUSH2 0x934 JUMP JUMPDEST DUP4 DUP2 GT ISZERO PUSH2 0x95E JUMPI PUSH1 0x0 DUP5 DUP5 ADD MSTORE JUMPDEST POP POP POP POP JUMP JUMPDEST PUSH1 0x0 PUSH1 0x2 DUP3 DIV SWAP1 POP PUSH1 0x1 DUP3 AND DUP1 PUSH2 0x97C JUMPI PUSH1 0x7F DUP3 AND SWAP2 POP JUMPDEST PUSH1 0x20 DUP3 LT DUP2 EQ ISZERO PUSH2 0x990 JUMPI PUSH2 0x98F PUSH2 0x9C7 JUMP JUMPDEST JUMPDEST POP SWAP2 SWAP1 POP JUMP JUMPDEST PUSH2 0x99F DUP3 PUSH2 0xA39 JUMP JUMPDEST DUP2 ADD DUP2 DUP2 LT PUSH8 0xFFFFFFFFFFFFFFFF DUP3 GT OR ISZERO PUSH2 0x9BE JUMPI PUSH2 0x9BD PUSH2 0x9F6 JUMP JUMPDEST JUMPDEST DUP1 PUSH1 0x40 MSTORE POP POP POP JUMP JUMPDEST PUSH32 0x4E487B7100000000000000000000000000000000000000000000000000000000 PUSH1 0x0 MSTORE PUSH1 0x22 PUSH1 0x4 MSTORE PUSH1 0x24 PUSH1 0x0 REVERT JUMPDEST PUSH32 0x4E487B7100000000000000000000000000000000000000000000000000000000 PUSH1 0x0 MSTORE PUSH1 0x41 PUSH1 0x4 MSTORE PUSH1 0x24 PUSH1 0x0 REVERT JUMPDEST PUSH1 0x0 DUP1 REVERT JUMPDEST PUSH1 0x0 DUP1 REVERT JUMPDEST PUSH1 0x0 DUP1 REVERT JUMPDEST PUSH1 0x0 DUP1 REVERT JUMPDEST PUSH1 0x0 PUSH1 0x1F NOT PUSH1 0x1F DUP4 ADD AND SWAP1 POP SWAP2 SWAP1 POP JUMP JUMPDEST PUSH32 0x5468657265206973206E6F2073747564656E7400000000000000000000000000 PUSH1 0x0 DUP3 ADD MSTORE POP JUMP JUMPDEST PUSH2 0xA7C DUP2 PUSH2 0x8E6 JUMP JUMPDEST DUP2 EQ PUSH2 0xA87 JUMPI PUSH1 0x0 DUP1 REVERT JUMPDEST POP JUMP JUMPDEST PUSH2 0xA93 DUP2 PUSH2 0x918 JUMP JUMPDEST DUP2 EQ PUSH2 0xA9E JUMPI PUSH1 0x0 DUP1 REVERT JUMPDEST POP JUMP INVALID LOG2 PUSH5 0x6970667358 0x22 SLT KECCAK256 CALLVALUE 0x4C 0x49 EQ 0xC0 0x23 0xCE SAR 0xD5 0xA6 0xB8 0xBC CODECOPY 0xBF PUSH14 0xE43A020DB9A34091AA69BC3DCEFB 0xA5 STATICCALL 0xCC PUSH5 0x736F6C6343 STOP ADDMOD SMOD STOP CALLER "
				},
				"gasEstimates": {
					"creation": {
						"codeDepositCost": "555000",
						"executionCost": "infinite",
						"totalCost": "infinite"
					},
					"external": {
						"addBus(address,string,uint256,string)": "infinite",
						"addStudent(string,uint256,address)": "infinite",
						"deleteStudent(uint256)": "infinite",
						"getStudents(uint256)": "infinite"
					}
				},
				"methodIdentifiers": {
					"addBus(address,string,uint256,string)": "009a4d3c",
					"addStudent(string,uint256,address)": "e9e8a17c",
					"deleteStudent(uint256)": "b645307d",
					"getStudents(uint256)": "75c2f8f0"
				}
			},
			"storageLayout": {
				"storage": [
					{
						"astId": 21,
						"contract": "contracts/minsubus.sol:Database",
						"label": "manager",
						"offset": 0,
						"slot": "0",
						"type": "t_address"
					},
					{
						"astId": 24,
						"contract": "contracts/minsubus.sol:Database",
						"label": "buses",
						"offset": 0,
						"slot": "1",
						"type": "t_array(t_address)dyn_storage"
					},
					{
						"astId": 27,
						"contract": "contracts/minsubus.sol:Database",
						"label": "students",
						"offset": 0,
						"slot": "2",
						"type": "t_array(t_address)dyn_storage"
					},
					{
						"astId": 30,
						"contract": "contracts/minsubus.sol:Database",
						"label": "owner",
						"offset": 0,
						"slot": "3",
						"type": "t_array(t_address)dyn_storage"
					},
					{
						"astId": 33,
						"contract": "contracts/minsubus.sol:Database",
						"label": "busNum",
						"offset": 0,
						"slot": "4",
						"type": "t_array(t_string_storage)dyn_storage"
					},
					{
						"astId": 36,
						"contract": "contracts/minsubus.sol:Database",
						"label": "studentNum",
						"offset": 0,
						"slot": "5",
						"type": "t_array(t_uint256)dyn_storage"
					},
					{
						"astId": 41,
						"contract": "contracts/minsubus.sol:Database",
						"label": "BusDB",
						"offset": 0,
						"slot": "6",
						"type": "t_mapping(t_string_memory_ptr,t_struct(Bus_DB)19_storage)"
					},
					{
						"astId": 46,
						"contract": "contracts/minsubus.sol:Database",
						"label": "StudentDB",
						"offset": 0,
						"slot": "7",
						"type": "t_mapping(t_uint256,t_struct(Student_DB)8_storage)"
					}
				],
				"types": {
					"t_address": {
						"encoding": "inplace",
						"label": "address",
						"numberOfBytes": "20"
					},
					"t_array(t_address)dyn_storage": {
						"base": "t_address",
						"encoding": "dynamic_array",
						"label": "address[]",
						"numberOfBytes": "32"
					},
					"t_array(t_string_storage)dyn_storage": {
						"base": "t_string_storage",
						"encoding": "dynamic_array",
						"label": "string[]",
						"numberOfBytes": "32"
					},
					"t_array(t_uint256)45_storage": {
						"base": "t_uint256",
						"encoding": "inplace",
						"label": "uint256[45]",
						"numberOfBytes": "1440"
					},
					"t_array(t_uint256)dyn_storage": {
						"base": "t_uint256",
						"encoding": "dynamic_array",
						"label": "uint256[]",
						"numberOfBytes": "32"
					},
					"t_mapping(t_string_memory_ptr,t_struct(Bus_DB)19_storage)": {
						"encoding": "mapping",
						"key": "t_string_memory_ptr",
						"label": "mapping(string => struct Database.Bus_DB)",
						"numberOfBytes": "32",
						"value": "t_struct(Bus_DB)19_storage"
					},
					"t_mapping(t_uint256,t_struct(Student_DB)8_storage)": {
						"encoding": "mapping",
						"key": "t_uint256",
						"label": "mapping(uint256 => struct Database.Student_DB)",
						"numberOfBytes": "32",
						"value": "t_struct(Student_DB)8_storage"
					},
					"t_string_memory_ptr": {
						"encoding": "bytes",
						"label": "string",
						"numberOfBytes": "32"
					},
					"t_string_storage": {
						"encoding": "bytes",
						"label": "string",
						"numberOfBytes": "32"
					},
					"t_struct(Bus_DB)19_storage": {
						"encoding": "inplace",
						"label": "struct Database.Bus_DB",
						"members": [
							{
								"astId": 10,
								"contract": "contracts/minsubus.sol:Database",
								"label": "bus",
								"offset": 0,
								"slot": "0",
								"type": "t_address"
							},
							{
								"astId": 12,
								"contract": "contracts/minsubus.sol:Database",
								"label": "destination",
								"offset": 0,
								"slot": "1",
								"type": "t_string_storage"
							},
							{
								"astId": 14,
								"contract": "contracts/minsubus.sol:Database",
								"label": "start_time",
								"offset": 0,
								"slot": "2",
								"type": "t_uint256"
							},
							{
								"astId": 18,
								"contract": "contracts/minsubus.sol:Database",
								"label": "Seat_number",
								"offset": 0,
								"slot": "3",
								"type": "t_array(t_uint256)45_storage"
							}
						],
						"numberOfBytes": "1536"
					},
					"t_struct(Student_DB)8_storage": {
						"encoding": "inplace",
						"label": "struct Database.Student_DB",
						"members": [
							{
								"astId": 5,
								"contract": "contracts/minsubus.sol:Database",
								"label": "student_name",
								"offset": 0,
								"slot": "0",
								"type": "t_string_storage"
							},
							{
								"astId": 7,
								"contract": "contracts/minsubus.sol:Database",
								"label": "student",
								"offset": 0,
								"slot": "1",
								"type": "t_address"
							}
						],
						"numberOfBytes": "64"
					},
					"t_uint256": {
						"encoding": "inplace",
						"label": "uint256",
						"numberOfBytes": "32"
					}
				}
			},
			"userdoc": {
				"kind": "user",
				"methods": {},
				"version": 1
			}
		}
	}
}