{
	"contracts/main.sol": {
		"smartReservation": {
			"abi": [
				{
					"inputs": [],
					"stateMutability": "nonpayable",
					"type": "constructor"
				},
				{
					"inputs": [
						{
							"internalType": "uint256",
							"name": "_num",
							"type": "uint256"
						},
						{
							"internalType": "string",
							"name": "_destination",
							"type": "string"
						}
					],
					"name": "addBus",
					"outputs": [],
					"stateMutability": "nonpayable",
					"type": "function"
				}
			],
			"devdoc": {
				"kind": "dev",
				"methods": {},
				"version": 1
			},
			"evm": {
				"assembly": "    /* \"contracts/main.sol\":144:550  contract smartReservation{... */\n  mstore(0x40, 0x80)\n    /* \"contracts/main.sol\":237:287  constructor(){... */\n  callvalue\n  dup1\n  iszero\n  tag_1\n  jumpi\n  0x00\n  dup1\n  revert\ntag_1:\n  pop\n    /* \"contracts/main.sol\":270:280  msg.sender */\n  caller\n    /* \"contracts/main.sol\":260:267  manager */\n  0x00\n  dup1\n    /* \"contracts/main.sol\":260:280  manager = msg.sender */\n  0x0100\n  exp\n  dup2\n  sload\n  dup2\n  0xffffffffffffffffffffffffffffffffffffffff\n  mul\n  not\n  and\n  swap1\n  dup4\n  0xffffffffffffffffffffffffffffffffffffffff\n  and\n  mul\n  or\n  swap1\n  sstore\n  pop\n    /* \"contracts/main.sol\":144:550  contract smartReservation{... */\n  dataSize(sub_0)\n  dup1\n  dataOffset(sub_0)\n  0x00\n  codecopy\n  0x00\n  return\nstop\n\nsub_0: assembly {\n        /* \"contracts/main.sol\":144:550  contract smartReservation{... */\n      mstore(0x40, 0x80)\n      callvalue\n      dup1\n      iszero\n      tag_1\n      jumpi\n      0x00\n      dup1\n      revert\n    tag_1:\n      pop\n      jumpi(tag_2, lt(calldatasize, 0x04))\n      shr(0xe0, calldataload(0x00))\n      dup1\n      0xfbcc6cb5\n      eq\n      tag_3\n      jumpi\n    tag_2:\n      0x00\n      dup1\n      revert\n        /* \"contracts/main.sol\":364:548  function addBus(uint _num,string memory _destination) public{... */\n    tag_3:\n      tag_4\n      0x04\n      dup1\n      calldatasize\n      sub\n      dup2\n      add\n      swap1\n      tag_5\n      swap2\n      swap1\n      tag_6\n      jump\t// in\n    tag_5:\n      tag_7\n      jump\t// in\n    tag_4:\n      stop\n    tag_7:\n        /* \"contracts/main.sol\":456:463  manager */\n      0x00\n      dup1\n      sload\n      swap1\n      0x0100\n      exp\n      swap1\n      div\n      0xffffffffffffffffffffffffffffffffffffffff\n      and\n        /* \"contracts/main.sol\":442:463  msg.sender == manager */\n      0xffffffffffffffffffffffffffffffffffffffff\n      and\n        /* \"contracts/main.sol\":442:452  msg.sender */\n      caller\n        /* \"contracts/main.sol\":442:463  msg.sender == manager */\n      0xffffffffffffffffffffffffffffffffffffffff\n      and\n      eq\n        /* \"contracts/main.sol\":434:501  require(msg.sender == manager,... */\n      tag_9\n      jumpi\n      mload(0x40)\n      0x08c379a000000000000000000000000000000000000000000000000000000000\n      dup2\n      mstore\n      0x04\n      add\n      tag_10\n      swap1\n      tag_11\n      jump\t// in\n    tag_10:\n      mload(0x40)\n      dup1\n      swap2\n      sub\n      swap1\n      revert\n    tag_9:\n        /* \"contracts/main.sol\":536:540  _num */\n      dup2\n        /* \"contracts/main.sol\":528:541  new Bus(_num) */\n      mload(0x40)\n      tag_12\n      swap1\n      tag_13\n      jump\t// in\n    tag_12:\n      tag_14\n      swap2\n      swap1\n      tag_15\n      jump\t// in\n    tag_14:\n      mload(0x40)\n      dup1\n      swap2\n      sub\n      swap1\n      0x00\n      create\n      dup1\n      iszero\n      dup1\n      iszero\n      tag_16\n      jumpi\n      returndatasize\n      0x00\n      dup1\n      returndatacopy\n      revert(0x00, returndatasize)\n    tag_16:\n      pop\n        /* \"contracts/main.sol\":516:519  bus */\n      0x01\n        /* \"contracts/main.sol\":516:525  bus[_num] */\n      0x00\n        /* \"contracts/main.sol\":520:524  _num */\n      dup5\n        /* \"contracts/main.sol\":516:525  bus[_num] */\n      dup2\n      mstore\n      0x20\n      add\n      swap1\n      dup2\n      mstore\n      0x20\n      add\n      0x00\n      keccak256\n      0x00\n        /* \"contracts/main.sol\":516:541  bus[_num] = new Bus(_num) */\n      0x0100\n      exp\n      dup2\n      sload\n      dup2\n      0xffffffffffffffffffffffffffffffffffffffff\n      mul\n      not\n      and\n      swap1\n      dup4\n      0xffffffffffffffffffffffffffffffffffffffff\n      and\n      mul\n      or\n      swap1\n      sstore\n      pop\n        /* \"contracts/main.sol\":364:548  function addBus(uint _num,string memory _destination) public{... */\n      pop\n      pop\n      jump\t// out\n    tag_13:\n      dataSize(sub_0)\n      dup1\n      dataOffset(sub_0)\n      dup4\n      codecopy\n      add\n      swap1\n      jump\t// out\n        /* \"#utility.yul\":7:419   */\n    tag_18:\n        /* \"#utility.yul\":85:90   */\n      0x00\n        /* \"#utility.yul\":110:176   */\n      tag_20\n        /* \"#utility.yul\":126:175   */\n      tag_21\n        /* \"#utility.yul\":168:174   */\n      dup5\n        /* \"#utility.yul\":126:175   */\n      tag_22\n      jump\t// in\n    tag_21:\n        /* \"#utility.yul\":110:176   */\n      tag_23\n      jump\t// in\n    tag_20:\n        /* \"#utility.yul\":101:176   */\n      swap1\n      pop\n        /* \"#utility.yul\":199:205   */\n      dup3\n        /* \"#utility.yul\":192:197   */\n      dup2\n        /* \"#utility.yul\":185:206   */\n      mstore\n        /* \"#utility.yul\":237:241   */\n      0x20\n        /* \"#utility.yul\":230:235   */\n      dup2\n        /* \"#utility.yul\":226:242   */\n      add\n        /* \"#utility.yul\":275:278   */\n      dup5\n        /* \"#utility.yul\":266:272   */\n      dup5\n        /* \"#utility.yul\":261:264   */\n      dup5\n        /* \"#utility.yul\":257:273   */\n      add\n        /* \"#utility.yul\":254:279   */\n      gt\n        /* \"#utility.yul\":251:363   */\n      iszero\n      tag_24\n      jumpi\n        /* \"#utility.yul\":282:361   */\n      tag_25\n      tag_26\n      jump\t// in\n    tag_25:\n        /* \"#utility.yul\":251:363   */\n    tag_24:\n        /* \"#utility.yul\":372:413   */\n      tag_27\n        /* \"#utility.yul\":406:412   */\n      dup5\n        /* \"#utility.yul\":401:404   */\n      dup3\n        /* \"#utility.yul\":396:399   */\n      dup6\n        /* \"#utility.yul\":372:413   */\n      tag_28\n      jump\t// in\n    tag_27:\n        /* \"#utility.yul\":91:419   */\n      pop\n        /* \"#utility.yul\":7:419   */\n      swap4\n      swap3\n      pop\n      pop\n      pop\n      jump\t// out\n        /* \"#utility.yul\":439:779   */\n    tag_29:\n        /* \"#utility.yul\":495:500   */\n      0x00\n        /* \"#utility.yul\":544:547   */\n      dup3\n        /* \"#utility.yul\":537:541   */\n      0x1f\n        /* \"#utility.yul\":529:535   */\n      dup4\n        /* \"#utility.yul\":525:542   */\n      add\n        /* \"#utility.yul\":521:548   */\n      slt\n        /* \"#utility.yul\":511:633   */\n      tag_31\n      jumpi\n        /* \"#utility.yul\":552:631   */\n      tag_32\n      tag_33\n      jump\t// in\n    tag_32:\n        /* \"#utility.yul\":511:633   */\n    tag_31:\n        /* \"#utility.yul\":669:675   */\n      dup2\n        /* \"#utility.yul\":656:676   */\n      calldataload\n        /* \"#utility.yul\":694:773   */\n      tag_34\n        /* \"#utility.yul\":769:772   */\n      dup5\n        /* \"#utility.yul\":761:767   */\n      dup3\n        /* \"#utility.yul\":754:758   */\n      0x20\n        /* \"#utility.yul\":746:752   */\n      dup7\n        /* \"#utility.yul\":742:759   */\n      add\n        /* \"#utility.yul\":694:773   */\n      tag_18\n      jump\t// in\n    tag_34:\n        /* \"#utility.yul\":685:773   */\n      swap2\n      pop\n        /* \"#utility.yul\":501:779   */\n      pop\n        /* \"#utility.yul\":439:779   */\n      swap3\n      swap2\n      pop\n      pop\n      jump\t// out\n        /* \"#utility.yul\":785:924   */\n    tag_35:\n        /* \"#utility.yul\":831:836   */\n      0x00\n        /* \"#utility.yul\":869:875   */\n      dup2\n        /* \"#utility.yul\":856:876   */\n      calldataload\n        /* \"#utility.yul\":847:876   */\n      swap1\n      pop\n        /* \"#utility.yul\":885:918   */\n      tag_37\n        /* \"#utility.yul\":912:917   */\n      dup2\n        /* \"#utility.yul\":885:918   */\n      tag_38\n      jump\t// in\n    tag_37:\n        /* \"#utility.yul\":785:924   */\n      swap3\n      swap2\n      pop\n      pop\n      jump\t// out\n        /* \"#utility.yul\":930:1584   */\n    tag_6:\n        /* \"#utility.yul\":1008:1014   */\n      0x00\n        /* \"#utility.yul\":1016:1022   */\n      dup1\n        /* \"#utility.yul\":1065:1067   */\n      0x40\n        /* \"#utility.yul\":1053:1062   */\n      dup4\n        /* \"#utility.yul\":1044:1051   */\n      dup6\n        /* \"#utility.yul\":1040:1063   */\n      sub\n        /* \"#utility.yul\":1036:1068   */\n      slt\n        /* \"#utility.yul\":1033:1152   */\n      iszero\n      tag_40\n      jumpi\n        /* \"#utility.yul\":1071:1150   */\n      tag_41\n      tag_42\n      jump\t// in\n    tag_41:\n        /* \"#utility.yul\":1033:1152   */\n    tag_40:\n        /* \"#utility.yul\":1191:1192   */\n      0x00\n        /* \"#utility.yul\":1216:1269   */\n      tag_43\n        /* \"#utility.yul\":1261:1268   */\n      dup6\n        /* \"#utility.yul\":1252:1258   */\n      dup3\n        /* \"#utility.yul\":1241:1250   */\n      dup7\n        /* \"#utility.yul\":1237:1259   */\n      add\n        /* \"#utility.yul\":1216:1269   */\n      tag_35\n      jump\t// in\n    tag_43:\n        /* \"#utility.yul\":1206:1269   */\n      swap3\n      pop\n        /* \"#utility.yul\":1162:1279   */\n      pop\n        /* \"#utility.yul\":1346:1348   */\n      0x20\n        /* \"#utility.yul\":1335:1344   */\n      dup4\n        /* \"#utility.yul\":1331:1349   */\n      add\n        /* \"#utility.yul\":1318:1350   */\n      calldataload\n        /* \"#utility.yul\":1377:1395   */\n      0xffffffffffffffff\n        /* \"#utility.yul\":1369:1375   */\n      dup2\n        /* \"#utility.yul\":1366:1396   */\n      gt\n        /* \"#utility.yul\":1363:1480   */\n      iszero\n      tag_44\n      jumpi\n        /* \"#utility.yul\":1399:1478   */\n      tag_45\n      tag_46\n      jump\t// in\n    tag_45:\n        /* \"#utility.yul\":1363:1480   */\n    tag_44:\n        /* \"#utility.yul\":1504:1567   */\n      tag_47\n        /* \"#utility.yul\":1559:1566   */\n      dup6\n        /* \"#utility.yul\":1550:1556   */\n      dup3\n        /* \"#utility.yul\":1539:1548   */\n      dup7\n        /* \"#utility.yul\":1535:1557   */\n      add\n        /* \"#utility.yul\":1504:1567   */\n      tag_29\n      jump\t// in\n    tag_47:\n        /* \"#utility.yul\":1494:1567   */\n      swap2\n      pop\n        /* \"#utility.yul\":1289:1577   */\n      pop\n        /* \"#utility.yul\":930:1584   */\n      swap3\n      pop\n      swap3\n      swap1\n      pop\n      jump\t// out\n        /* \"#utility.yul\":1590:1956   */\n    tag_48:\n        /* \"#utility.yul\":1732:1735   */\n      0x00\n        /* \"#utility.yul\":1753:1820   */\n      tag_50\n        /* \"#utility.yul\":1817:1819   */\n      0x15\n        /* \"#utility.yul\":1812:1815   */\n      dup4\n        /* \"#utility.yul\":1753:1820   */\n      tag_51\n      jump\t// in\n    tag_50:\n        /* \"#utility.yul\":1746:1820   */\n      swap2\n      pop\n        /* \"#utility.yul\":1829:1922   */\n      tag_52\n        /* \"#utility.yul\":1918:1921   */\n      dup3\n        /* \"#utility.yul\":1829:1922   */\n      tag_53\n      jump\t// in\n    tag_52:\n        /* \"#utility.yul\":1947:1949   */\n      0x20\n        /* \"#utility.yul\":1942:1945   */\n      dup3\n        /* \"#utility.yul\":1938:1950   */\n      add\n        /* \"#utility.yul\":1931:1950   */\n      swap1\n      pop\n        /* \"#utility.yul\":1590:1956   */\n      swap2\n      swap1\n      pop\n      jump\t// out\n        /* \"#utility.yul\":1962:2080   */\n    tag_54:\n        /* \"#utility.yul\":2049:2073   */\n      tag_56\n        /* \"#utility.yul\":2067:2072   */\n      dup2\n        /* \"#utility.yul\":2049:2073   */\n      tag_57\n      jump\t// in\n    tag_56:\n        /* \"#utility.yul\":2044:2047   */\n      dup3\n        /* \"#utility.yul\":2037:2074   */\n      mstore\n        /* \"#utility.yul\":1962:2080   */\n      pop\n      pop\n      jump\t// out\n        /* \"#utility.yul\":2086:2505   */\n    tag_11:\n        /* \"#utility.yul\":2252:2256   */\n      0x00\n        /* \"#utility.yul\":2290:2292   */\n      0x20\n        /* \"#utility.yul\":2279:2288   */\n      dup3\n        /* \"#utility.yul\":2275:2293   */\n      add\n        /* \"#utility.yul\":2267:2293   */\n      swap1\n      pop\n        /* \"#utility.yul\":2339:2348   */\n      dup2\n        /* \"#utility.yul\":2333:2337   */\n      dup2\n        /* \"#utility.yul\":2329:2349   */\n      sub\n        /* \"#utility.yul\":2325:2326   */\n      0x00\n        /* \"#utility.yul\":2314:2323   */\n      dup4\n        /* \"#utility.yul\":2310:2327   */\n      add\n        /* \"#utility.yul\":2303:2350   */\n      mstore\n        /* \"#utility.yul\":2367:2498   */\n      tag_59\n        /* \"#utility.yul\":2493:2497   */\n      dup2\n        /* \"#utility.yul\":2367:2498   */\n      tag_48\n      jump\t// in\n    tag_59:\n        /* \"#utility.yul\":2359:2498   */\n      swap1\n      pop\n        /* \"#utility.yul\":2086:2505   */\n      swap2\n      swap1\n      pop\n      jump\t// out\n        /* \"#utility.yul\":2511:2733   */\n    tag_15:\n        /* \"#utility.yul\":2604:2608   */\n      0x00\n        /* \"#utility.yul\":2642:2644   */\n      0x20\n        /* \"#utility.yul\":2631:2640   */\n      dup3\n        /* \"#utility.yul\":2627:2645   */\n      add\n        /* \"#utility.yul\":2619:2645   */\n      swap1\n      pop\n        /* \"#utility.yul\":2655:2726   */\n      tag_61\n        /* \"#utility.yul\":2723:2724   */\n      0x00\n        /* \"#utility.yul\":2712:2721   */\n      dup4\n        /* \"#utility.yul\":2708:2725   */\n      add\n        /* \"#utility.yul\":2699:2705   */\n      dup5\n        /* \"#utility.yul\":2655:2726   */\n      tag_54\n      jump\t// in\n    tag_61:\n        /* \"#utility.yul\":2511:2733   */\n      swap3\n      swap2\n      pop\n      pop\n      jump\t// out\n        /* \"#utility.yul\":2739:2868   */\n    tag_23:\n        /* \"#utility.yul\":2773:2779   */\n      0x00\n        /* \"#utility.yul\":2800:2820   */\n      tag_63\n      tag_64\n      jump\t// in\n    tag_63:\n        /* \"#utility.yul\":2790:2820   */\n      swap1\n      pop\n        /* \"#utility.yul\":2829:2862   */\n      tag_65\n        /* \"#utility.yul\":2857:2861   */\n      dup3\n        /* \"#utility.yul\":2849:2855   */\n      dup3\n        /* \"#utility.yul\":2829:2862   */\n      tag_66\n      jump\t// in\n    tag_65:\n        /* \"#utility.yul\":2739:2868   */\n      swap2\n      swap1\n      pop\n      jump\t// out\n        /* \"#utility.yul\":2874:2949   */\n    tag_64:\n        /* \"#utility.yul\":2907:2913   */\n      0x00\n        /* \"#utility.yul\":2940:2942   */\n      0x40\n        /* \"#utility.yul\":2934:2943   */\n      mload\n        /* \"#utility.yul\":2924:2943   */\n      swap1\n      pop\n        /* \"#utility.yul\":2874:2949   */\n      swap1\n      jump\t// out\n        /* \"#utility.yul\":2955:3263   */\n    tag_22:\n        /* \"#utility.yul\":3017:3021   */\n      0x00\n        /* \"#utility.yul\":3107:3125   */\n      0xffffffffffffffff\n        /* \"#utility.yul\":3099:3105   */\n      dup3\n        /* \"#utility.yul\":3096:3126   */\n      gt\n        /* \"#utility.yul\":3093:3149   */\n      iszero\n      tag_69\n      jumpi\n        /* \"#utility.yul\":3129:3147   */\n      tag_70\n      tag_71\n      jump\t// in\n    tag_70:\n        /* \"#utility.yul\":3093:3149   */\n    tag_69:\n        /* \"#utility.yul\":3167:3196   */\n      tag_72\n        /* \"#utility.yul\":3189:3195   */\n      dup3\n        /* \"#utility.yul\":3167:3196   */\n      tag_73\n      jump\t// in\n    tag_72:\n        /* \"#utility.yul\":3159:3196   */\n      swap1\n      pop\n        /* \"#utility.yul\":3251:3255   */\n      0x20\n        /* \"#utility.yul\":3245:3249   */\n      dup2\n        /* \"#utility.yul\":3241:3256   */\n      add\n        /* \"#utility.yul\":3233:3256   */\n      swap1\n      pop\n        /* \"#utility.yul\":2955:3263   */\n      swap2\n      swap1\n      pop\n      jump\t// out\n        /* \"#utility.yul\":3269:3438   */\n    tag_51:\n        /* \"#utility.yul\":3353:3364   */\n      0x00\n        /* \"#utility.yul\":3387:3393   */\n      dup3\n        /* \"#utility.yul\":3382:3385   */\n      dup3\n        /* \"#utility.yul\":3375:3394   */\n      mstore\n        /* \"#utility.yul\":3427:3431   */\n      0x20\n        /* \"#utility.yul\":3422:3425   */\n      dup3\n        /* \"#utility.yul\":3418:3432   */\n      add\n        /* \"#utility.yul\":3403:3432   */\n      swap1\n      pop\n        /* \"#utility.yul\":3269:3438   */\n      swap3\n      swap2\n      pop\n      pop\n      jump\t// out\n        /* \"#utility.yul\":3444:3521   */\n    tag_57:\n        /* \"#utility.yul\":3481:3488   */\n      0x00\n        /* \"#utility.yul\":3510:3515   */\n      dup2\n        /* \"#utility.yul\":3499:3515   */\n      swap1\n      pop\n        /* \"#utility.yul\":3444:3521   */\n      swap2\n      swap1\n      pop\n      jump\t// out\n        /* \"#utility.yul\":3527:3681   */\n    tag_28:\n        /* \"#utility.yul\":3611:3617   */\n      dup3\n        /* \"#utility.yul\":3606:3609   */\n      dup2\n        /* \"#utility.yul\":3601:3604   */\n      dup4\n        /* \"#utility.yul\":3588:3618   */\n      calldatacopy\n        /* \"#utility.yul\":3673:3674   */\n      0x00\n        /* \"#utility.yul\":3664:3670   */\n      dup4\n        /* \"#utility.yul\":3659:3662   */\n      dup4\n        /* \"#utility.yul\":3655:3671   */\n      add\n        /* \"#utility.yul\":3648:3675   */\n      mstore\n        /* \"#utility.yul\":3527:3681   */\n      pop\n      pop\n      pop\n      jump\t// out\n        /* \"#utility.yul\":3687:3968   */\n    tag_66:\n        /* \"#utility.yul\":3770:3797   */\n      tag_78\n        /* \"#utility.yul\":3792:3796   */\n      dup3\n        /* \"#utility.yul\":3770:3797   */\n      tag_73\n      jump\t// in\n    tag_78:\n        /* \"#utility.yul\":3762:3768   */\n      dup2\n        /* \"#utility.yul\":3758:3798   */\n      add\n        /* \"#utility.yul\":3900:3906   */\n      dup2\n        /* \"#utility.yul\":3888:3898   */\n      dup2\n        /* \"#utility.yul\":3885:3907   */\n      lt\n        /* \"#utility.yul\":3864:3882   */\n      0xffffffffffffffff\n        /* \"#utility.yul\":3852:3862   */\n      dup3\n        /* \"#utility.yul\":3849:3883   */\n      gt\n        /* \"#utility.yul\":3846:3908   */\n      or\n        /* \"#utility.yul\":3843:3931   */\n      iszero\n      tag_79\n      jumpi\n        /* \"#utility.yul\":3911:3929   */\n      tag_80\n      tag_71\n      jump\t// in\n    tag_80:\n        /* \"#utility.yul\":3843:3931   */\n    tag_79:\n        /* \"#utility.yul\":3951:3961   */\n      dup1\n        /* \"#utility.yul\":3947:3949   */\n      0x40\n        /* \"#utility.yul\":3940:3962   */\n      mstore\n        /* \"#utility.yul\":3730:3968   */\n      pop\n        /* \"#utility.yul\":3687:3968   */\n      pop\n      pop\n      jump\t// out\n        /* \"#utility.yul\":3974:4154   */\n    tag_71:\n        /* \"#utility.yul\":4022:4099   */\n      0x4e487b7100000000000000000000000000000000000000000000000000000000\n        /* \"#utility.yul\":4019:4020   */\n      0x00\n        /* \"#utility.yul\":4012:4100   */\n      mstore\n        /* \"#utility.yul\":4119:4123   */\n      0x41\n        /* \"#utility.yul\":4116:4117   */\n      0x04\n        /* \"#utility.yul\":4109:4124   */\n      mstore\n        /* \"#utility.yul\":4143:4147   */\n      0x24\n        /* \"#utility.yul\":4140:4141   */\n      0x00\n        /* \"#utility.yul\":4133:4148   */\n      revert\n        /* \"#utility.yul\":4160:4277   */\n    tag_33:\n        /* \"#utility.yul\":4269:4270   */\n      0x00\n        /* \"#utility.yul\":4266:4267   */\n      dup1\n        /* \"#utility.yul\":4259:4271   */\n      revert\n        /* \"#utility.yul\":4283:4400   */\n    tag_26:\n        /* \"#utility.yul\":4392:4393   */\n      0x00\n        /* \"#utility.yul\":4389:4390   */\n      dup1\n        /* \"#utility.yul\":4382:4394   */\n      revert\n        /* \"#utility.yul\":4406:4523   */\n    tag_46:\n        /* \"#utility.yul\":4515:4516   */\n      0x00\n        /* \"#utility.yul\":4512:4513   */\n      dup1\n        /* \"#utility.yul\":4505:4517   */\n      revert\n        /* \"#utility.yul\":4529:4646   */\n    tag_42:\n        /* \"#utility.yul\":4638:4639   */\n      0x00\n        /* \"#utility.yul\":4635:4636   */\n      dup1\n        /* \"#utility.yul\":4628:4640   */\n      revert\n        /* \"#utility.yul\":4652:4754   */\n    tag_73:\n        /* \"#utility.yul\":4693:4699   */\n      0x00\n        /* \"#utility.yul\":4744:4746   */\n      0x1f\n        /* \"#utility.yul\":4740:4747   */\n      not\n        /* \"#utility.yul\":4735:4737   */\n      0x1f\n        /* \"#utility.yul\":4728:4733   */\n      dup4\n        /* \"#utility.yul\":4724:4738   */\n      add\n        /* \"#utility.yul\":4720:4748   */\n      and\n        /* \"#utility.yul\":4710:4748   */\n      swap1\n      pop\n        /* \"#utility.yul\":4652:4754   */\n      swap2\n      swap1\n      pop\n      jump\t// out\n        /* \"#utility.yul\":4760:4931   */\n    tag_53:\n        /* \"#utility.yul\":4900:4923   */\n      0x63616c6c6572206973206e6f74204d616e616765720000000000000000000000\n        /* \"#utility.yul\":4896:4897   */\n      0x00\n        /* \"#utility.yul\":4888:4894   */\n      dup3\n        /* \"#utility.yul\":4884:4898   */\n      add\n        /* \"#utility.yul\":4877:4924   */\n      mstore\n        /* \"#utility.yul\":4760:4931   */\n      pop\n      jump\t// out\n        /* \"#utility.yul\":4937:5059   */\n    tag_38:\n        /* \"#utility.yul\":5010:5034   */\n      tag_89\n        /* \"#utility.yul\":5028:5033   */\n      dup2\n        /* \"#utility.yul\":5010:5034   */\n      tag_57\n      jump\t// in\n    tag_89:\n        /* \"#utility.yul\":5003:5008   */\n      dup2\n        /* \"#utility.yul\":5000:5035   */\n      eq\n        /* \"#utility.yul\":4990:5053   */\n      tag_90\n      jumpi\n        /* \"#utility.yul\":5049:5050   */\n      0x00\n        /* \"#utility.yul\":5046:5047   */\n      dup1\n        /* \"#utility.yul\":5039:5051   */\n      revert\n        /* \"#utility.yul\":4990:5053   */\n    tag_90:\n        /* \"#utility.yul\":4937:5059   */\n      pop\n      jump\t// out\n    stop\n\n    sub_0: assembly {\n            /* \"contracts/Bus.sol\":102:604  contract Bus{... */\n          mstore(0x40, 0x80)\n            /* \"contracts/Bus.sol\":299:389  constructor(uint _num){... */\n          callvalue\n          dup1\n          iszero\n          tag_1\n          jumpi\n          0x00\n          dup1\n          revert\n        tag_1:\n          pop\n          mload(0x40)\n          sub(codesize, bytecodeSize)\n          dup1\n          bytecodeSize\n          dup4\n          codecopy\n          dup2\n          dup2\n          add\n          0x40\n          mstore\n          dup2\n          add\n          swap1\n          tag_2\n          swap2\n          swap1\n          tag_3\n          jump\t// in\n        tag_2:\n            /* \"contracts/Bus.sol\":341:345  _num */\n          dup1\n            /* \"contracts/Bus.sol\":332:338  busNum */\n          0x01\n            /* \"contracts/Bus.sol\":332:345  busNum = _num */\n          dup2\n          swap1\n          sstore\n          pop\n            /* \"contracts/Bus.sol\":299:389  constructor(uint _num){... */\n          pop\n            /* \"contracts/Bus.sol\":102:604  contract Bus{... */\n          jump(tag_6)\n            /* \"#utility.yul\":7:150   */\n        tag_8:\n            /* \"#utility.yul\":64:69   */\n          0x00\n            /* \"#utility.yul\":95:101   */\n          dup2\n            /* \"#utility.yul\":89:102   */\n          mload\n            /* \"#utility.yul\":80:102   */\n          swap1\n          pop\n            /* \"#utility.yul\":111:144   */\n          tag_10\n            /* \"#utility.yul\":138:143   */\n          dup2\n            /* \"#utility.yul\":111:144   */\n          tag_11\n          jump\t// in\n        tag_10:\n            /* \"#utility.yul\":7:150   */\n          swap3\n          swap2\n          pop\n          pop\n          jump\t// out\n            /* \"#utility.yul\":156:507   */\n        tag_3:\n            /* \"#utility.yul\":226:232   */\n          0x00\n            /* \"#utility.yul\":275:277   */\n          0x20\n            /* \"#utility.yul\":263:272   */\n          dup3\n            /* \"#utility.yul\":254:261   */\n          dup5\n            /* \"#utility.yul\":250:273   */\n          sub\n            /* \"#utility.yul\":246:278   */\n          slt\n            /* \"#utility.yul\":243:362   */\n          iszero\n          tag_13\n          jumpi\n            /* \"#utility.yul\":281:360   */\n          tag_14\n          tag_15\n          jump\t// in\n        tag_14:\n            /* \"#utility.yul\":243:362   */\n        tag_13:\n            /* \"#utility.yul\":401:402   */\n          0x00\n            /* \"#utility.yul\":426:490   */\n          tag_16\n            /* \"#utility.yul\":482:489   */\n          dup5\n            /* \"#utility.yul\":473:479   */\n          dup3\n            /* \"#utility.yul\":462:471   */\n          dup6\n            /* \"#utility.yul\":458:480   */\n          add\n            /* \"#utility.yul\":426:490   */\n          tag_8\n          jump\t// in\n        tag_16:\n            /* \"#utility.yul\":416:490   */\n          swap2\n          pop\n            /* \"#utility.yul\":372:500   */\n          pop\n            /* \"#utility.yul\":156:507   */\n          swap3\n          swap2\n          pop\n          pop\n          jump\t// out\n            /* \"#utility.yul\":594:671   */\n        tag_19:\n            /* \"#utility.yul\":631:638   */\n          0x00\n            /* \"#utility.yul\":660:665   */\n          dup2\n            /* \"#utility.yul\":649:665   */\n          swap1\n          pop\n            /* \"#utility.yul\":594:671   */\n          swap2\n          swap1\n          pop\n          jump\t// out\n            /* \"#utility.yul\":800:917   */\n        tag_15:\n            /* \"#utility.yul\":909:910   */\n          0x00\n            /* \"#utility.yul\":906:907   */\n          dup1\n            /* \"#utility.yul\":899:911   */\n          revert\n            /* \"#utility.yul\":923:1045   */\n        tag_11:\n            /* \"#utility.yul\":996:1020   */\n          tag_25\n            /* \"#utility.yul\":1014:1019   */\n          dup2\n            /* \"#utility.yul\":996:1020   */\n          tag_19\n          jump\t// in\n        tag_25:\n            /* \"#utility.yul\":989:994   */\n          dup2\n            /* \"#utility.yul\":986:1021   */\n          eq\n            /* \"#utility.yul\":976:1039   */\n          tag_26\n          jumpi\n            /* \"#utility.yul\":1035:1036   */\n          0x00\n            /* \"#utility.yul\":1032:1033   */\n          dup1\n            /* \"#utility.yul\":1025:1037   */\n          revert\n            /* \"#utility.yul\":976:1039   */\n        tag_26:\n            /* \"#utility.yul\":923:1045   */\n          pop\n          jump\t// out\n            /* \"contracts/Bus.sol\":102:604  contract Bus{... */\n        tag_6:\n          dataSize(sub_0)\n          dup1\n          dataOffset(sub_0)\n          0x00\n          codecopy\n          0x00\n          return\n        stop\n\n        sub_0: assembly {\n                /* \"contracts/Bus.sol\":102:604  contract Bus{... */\n              mstore(0x40, 0x80)\n              callvalue\n              dup1\n              iszero\n              tag_1\n              jumpi\n              0x00\n              dup1\n              revert\n            tag_1:\n              pop\n              jumpi(tag_2, lt(calldatasize, 0x04))\n              shr(0xe0, calldataload(0x00))\n              dup1\n              0x2a9788cd\n              eq\n              tag_3\n              jumpi\n              dup1\n              0xa434261f\n              eq\n              tag_4\n              jumpi\n            tag_2:\n              0x00\n              dup1\n              revert\n                /* \"contracts/Bus.sol\":402:438  mapping(uint => seat) public busSeat */\n            tag_3:\n              tag_5\n              0x04\n              dup1\n              calldatasize\n              sub\n              dup2\n              add\n              swap1\n              tag_6\n              swap2\n              swap1\n              tag_7\n              jump\t// in\n            tag_6:\n              tag_8\n              jump\t// in\n            tag_5:\n              mload(0x40)\n              tag_9\n              swap4\n              swap3\n              swap2\n              swap1\n              tag_10\n              jump\t// in\n            tag_9:\n              mload(0x40)\n              dup1\n              swap2\n              sub\n              swap1\n              return\n                /* \"contracts/Bus.sol\":445:600  function reservationBus( uint _seatNum, uint _studentId, address _student) public {... */\n            tag_4:\n              tag_11\n              0x04\n              dup1\n              calldatasize\n              sub\n              dup2\n              add\n              swap1\n              tag_12\n              swap2\n              swap1\n              tag_13\n              jump\t// in\n            tag_12:\n              tag_14\n              jump\t// in\n            tag_11:\n              stop\n                /* \"contracts/Bus.sol\":402:438  mapping(uint => seat) public busSeat */\n            tag_8:\n              mstore(0x20, 0x03)\n              dup1\n              0x00\n              mstore\n              keccak256(0x00, 0x40)\n              0x00\n              swap2\n              pop\n              swap1\n              pop\n              dup1\n              0x00\n              add\n              sload\n              swap1\n              dup1\n              0x01\n              add\n              sload\n              swap1\n              dup1\n              0x02\n              add\n              0x00\n              swap1\n              sload\n              swap1\n              0x0100\n              exp\n              swap1\n              div\n              0xffffffffffffffffffffffffffffffffffffffff\n              and\n              swap1\n              pop\n              dup4\n              jump\t// out\n                /* \"contracts/Bus.sol\":445:600  function reservationBus( uint _seatNum, uint _studentId, address _student) public {... */\n            tag_14:\n                /* \"contracts/Bus.sol\":557:593  seat(_seatNum, _studentId, _student) */\n              mload(0x40)\n              dup1\n              0x60\n              add\n              0x40\n              mstore\n              dup1\n                /* \"contracts/Bus.sol\":562:570  _seatNum */\n              dup5\n                /* \"contracts/Bus.sol\":557:593  seat(_seatNum, _studentId, _student) */\n              dup2\n              mstore\n              0x20\n              add\n                /* \"contracts/Bus.sol\":572:582  _studentId */\n              dup4\n                /* \"contracts/Bus.sol\":557:593  seat(_seatNum, _studentId, _student) */\n              dup2\n              mstore\n              0x20\n              add\n                /* \"contracts/Bus.sol\":584:592  _student */\n              dup3\n                /* \"contracts/Bus.sol\":557:593  seat(_seatNum, _studentId, _student) */\n              0xffffffffffffffffffffffffffffffffffffffff\n              and\n              dup2\n              mstore\n              pop\n                /* \"contracts/Bus.sol\":537:544  busSeat */\n              0x03\n                /* \"contracts/Bus.sol\":537:554  busSeat[_seatNum] */\n              0x00\n                /* \"contracts/Bus.sol\":545:553  _seatNum */\n              dup6\n                /* \"contracts/Bus.sol\":537:554  busSeat[_seatNum] */\n              dup2\n              mstore\n              0x20\n              add\n              swap1\n              dup2\n              mstore\n              0x20\n              add\n              0x00\n              keccak256\n                /* \"contracts/Bus.sol\":537:593  busSeat[_seatNum] = seat(_seatNum, _studentId, _student) */\n              0x00\n              dup3\n              add\n              mload\n              dup2\n              0x00\n              add\n              sstore\n              0x20\n              dup3\n              add\n              mload\n              dup2\n              0x01\n              add\n              sstore\n              0x40\n              dup3\n              add\n              mload\n              dup2\n              0x02\n              add\n              exp(0x0100, 0x00)\n              dup2\n              sload\n              dup2\n              0xffffffffffffffffffffffffffffffffffffffff\n              mul\n              not\n              and\n              swap1\n              dup4\n              0xffffffffffffffffffffffffffffffffffffffff\n              and\n              mul\n              or\n              swap1\n              sstore\n              pop\n              swap1\n              pop\n              pop\n                /* \"contracts/Bus.sol\":445:600  function reservationBus( uint _seatNum, uint _studentId, address _student) public {... */\n              pop\n              pop\n              pop\n              jump\t// out\n                /* \"#utility.yul\":7:146   */\n            tag_17:\n                /* \"#utility.yul\":53:58   */\n              0x00\n                /* \"#utility.yul\":91:97   */\n              dup2\n                /* \"#utility.yul\":78:98   */\n              calldataload\n                /* \"#utility.yul\":69:98   */\n              swap1\n              pop\n                /* \"#utility.yul\":107:140   */\n              tag_19\n                /* \"#utility.yul\":134:139   */\n              dup2\n                /* \"#utility.yul\":107:140   */\n              tag_20\n              jump\t// in\n            tag_19:\n                /* \"#utility.yul\":7:146   */\n              swap3\n              swap2\n              pop\n              pop\n              jump\t// out\n                /* \"#utility.yul\":152:291   */\n            tag_21:\n                /* \"#utility.yul\":198:203   */\n              0x00\n                /* \"#utility.yul\":236:242   */\n              dup2\n                /* \"#utility.yul\":223:243   */\n              calldataload\n                /* \"#utility.yul\":214:243   */\n              swap1\n              pop\n                /* \"#utility.yul\":252:285   */\n              tag_23\n                /* \"#utility.yul\":279:284   */\n              dup2\n                /* \"#utility.yul\":252:285   */\n              tag_24\n              jump\t// in\n            tag_23:\n                /* \"#utility.yul\":152:291   */\n              swap3\n              swap2\n              pop\n              pop\n              jump\t// out\n                /* \"#utility.yul\":297:626   */\n            tag_7:\n                /* \"#utility.yul\":356:362   */\n              0x00\n                /* \"#utility.yul\":405:407   */\n              0x20\n                /* \"#utility.yul\":393:402   */\n              dup3\n                /* \"#utility.yul\":384:391   */\n              dup5\n                /* \"#utility.yul\":380:403   */\n              sub\n                /* \"#utility.yul\":376:408   */\n              slt\n                /* \"#utility.yul\":373:492   */\n              iszero\n              tag_26\n              jumpi\n                /* \"#utility.yul\":411:490   */\n              tag_27\n              tag_28\n              jump\t// in\n            tag_27:\n                /* \"#utility.yul\":373:492   */\n            tag_26:\n                /* \"#utility.yul\":531:532   */\n              0x00\n                /* \"#utility.yul\":556:609   */\n              tag_29\n                /* \"#utility.yul\":601:608   */\n              dup5\n                /* \"#utility.yul\":592:598   */\n              dup3\n                /* \"#utility.yul\":581:590   */\n              dup6\n                /* \"#utility.yul\":577:599   */\n              add\n                /* \"#utility.yul\":556:609   */\n              tag_21\n              jump\t// in\n            tag_29:\n                /* \"#utility.yul\":546:609   */\n              swap2\n              pop\n                /* \"#utility.yul\":502:619   */\n              pop\n                /* \"#utility.yul\":297:626   */\n              swap3\n              swap2\n              pop\n              pop\n              jump\t// out\n                /* \"#utility.yul\":632:1251   */\n            tag_13:\n                /* \"#utility.yul\":709:715   */\n              0x00\n                /* \"#utility.yul\":717:723   */\n              dup1\n                /* \"#utility.yul\":725:731   */\n              0x00\n                /* \"#utility.yul\":774:776   */\n              0x60\n                /* \"#utility.yul\":762:771   */\n              dup5\n                /* \"#utility.yul\":753:760   */\n              dup7\n                /* \"#utility.yul\":749:772   */\n              sub\n                /* \"#utility.yul\":745:777   */\n              slt\n                /* \"#utility.yul\":742:861   */\n              iszero\n              tag_31\n              jumpi\n                /* \"#utility.yul\":780:859   */\n              tag_32\n              tag_28\n              jump\t// in\n            tag_32:\n                /* \"#utility.yul\":742:861   */\n            tag_31:\n                /* \"#utility.yul\":900:901   */\n              0x00\n                /* \"#utility.yul\":925:978   */\n              tag_33\n                /* \"#utility.yul\":970:977   */\n              dup7\n                /* \"#utility.yul\":961:967   */\n              dup3\n                /* \"#utility.yul\":950:959   */\n              dup8\n                /* \"#utility.yul\":946:968   */\n              add\n                /* \"#utility.yul\":925:978   */\n              tag_21\n              jump\t// in\n            tag_33:\n                /* \"#utility.yul\":915:978   */\n              swap4\n              pop\n                /* \"#utility.yul\":871:988   */\n              pop\n                /* \"#utility.yul\":1027:1029   */\n              0x20\n                /* \"#utility.yul\":1053:1106   */\n              tag_34\n                /* \"#utility.yul\":1098:1105   */\n              dup7\n                /* \"#utility.yul\":1089:1095   */\n              dup3\n                /* \"#utility.yul\":1078:1087   */\n              dup8\n                /* \"#utility.yul\":1074:1096   */\n              add\n                /* \"#utility.yul\":1053:1106   */\n              tag_21\n              jump\t// in\n            tag_34:\n                /* \"#utility.yul\":1043:1106   */\n              swap3\n              pop\n                /* \"#utility.yul\":998:1116   */\n              pop\n                /* \"#utility.yul\":1155:1157   */\n              0x40\n                /* \"#utility.yul\":1181:1234   */\n              tag_35\n                /* \"#utility.yul\":1226:1233   */\n              dup7\n                /* \"#utility.yul\":1217:1223   */\n              dup3\n                /* \"#utility.yul\":1206:1215   */\n              dup8\n                /* \"#utility.yul\":1202:1224   */\n              add\n                /* \"#utility.yul\":1181:1234   */\n              tag_17\n              jump\t// in\n            tag_35:\n                /* \"#utility.yul\":1171:1234   */\n              swap2\n              pop\n                /* \"#utility.yul\":1126:1244   */\n              pop\n                /* \"#utility.yul\":632:1251   */\n              swap3\n              pop\n              swap3\n              pop\n              swap3\n              jump\t// out\n                /* \"#utility.yul\":1257:1375   */\n            tag_36:\n                /* \"#utility.yul\":1344:1368   */\n              tag_38\n                /* \"#utility.yul\":1362:1367   */\n              dup2\n                /* \"#utility.yul\":1344:1368   */\n              tag_39\n              jump\t// in\n            tag_38:\n                /* \"#utility.yul\":1339:1342   */\n              dup3\n                /* \"#utility.yul\":1332:1369   */\n              mstore\n                /* \"#utility.yul\":1257:1375   */\n              pop\n              pop\n              jump\t// out\n                /* \"#utility.yul\":1381:1499   */\n            tag_40:\n                /* \"#utility.yul\":1468:1492   */\n              tag_42\n                /* \"#utility.yul\":1486:1491   */\n              dup2\n                /* \"#utility.yul\":1468:1492   */\n              tag_43\n              jump\t// in\n            tag_42:\n                /* \"#utility.yul\":1463:1466   */\n              dup3\n                /* \"#utility.yul\":1456:1493   */\n              mstore\n                /* \"#utility.yul\":1381:1499   */\n              pop\n              pop\n              jump\t// out\n                /* \"#utility.yul\":1505:1947   */\n            tag_10:\n                /* \"#utility.yul\":1654:1658   */\n              0x00\n                /* \"#utility.yul\":1692:1694   */\n              0x60\n                /* \"#utility.yul\":1681:1690   */\n              dup3\n                /* \"#utility.yul\":1677:1695   */\n              add\n                /* \"#utility.yul\":1669:1695   */\n              swap1\n              pop\n                /* \"#utility.yul\":1705:1776   */\n              tag_45\n                /* \"#utility.yul\":1773:1774   */\n              0x00\n                /* \"#utility.yul\":1762:1771   */\n              dup4\n                /* \"#utility.yul\":1758:1775   */\n              add\n                /* \"#utility.yul\":1749:1755   */\n              dup7\n                /* \"#utility.yul\":1705:1776   */\n              tag_40\n              jump\t// in\n            tag_45:\n                /* \"#utility.yul\":1786:1858   */\n              tag_46\n                /* \"#utility.yul\":1854:1856   */\n              0x20\n                /* \"#utility.yul\":1843:1852   */\n              dup4\n                /* \"#utility.yul\":1839:1857   */\n              add\n                /* \"#utility.yul\":1830:1836   */\n              dup6\n                /* \"#utility.yul\":1786:1858   */\n              tag_40\n              jump\t// in\n            tag_46:\n                /* \"#utility.yul\":1868:1940   */\n              tag_47\n                /* \"#utility.yul\":1936:1938   */\n              0x40\n                /* \"#utility.yul\":1925:1934   */\n              dup4\n                /* \"#utility.yul\":1921:1939   */\n              add\n                /* \"#utility.yul\":1912:1918   */\n              dup5\n                /* \"#utility.yul\":1868:1940   */\n              tag_36\n              jump\t// in\n            tag_47:\n                /* \"#utility.yul\":1505:1947   */\n              swap5\n              swap4\n              pop\n              pop\n              pop\n              pop\n              jump\t// out\n                /* \"#utility.yul\":2034:2130   */\n            tag_39:\n                /* \"#utility.yul\":2071:2078   */\n              0x00\n                /* \"#utility.yul\":2100:2124   */\n              tag_51\n                /* \"#utility.yul\":2118:2123   */\n              dup3\n                /* \"#utility.yul\":2100:2124   */\n              tag_52\n              jump\t// in\n            tag_51:\n                /* \"#utility.yul\":2089:2124   */\n              swap1\n              pop\n                /* \"#utility.yul\":2034:2130   */\n              swap2\n              swap1\n              pop\n              jump\t// out\n                /* \"#utility.yul\":2136:2262   */\n            tag_52:\n                /* \"#utility.yul\":2173:2180   */\n              0x00\n                /* \"#utility.yul\":2213:2255   */\n              0xffffffffffffffffffffffffffffffffffffffff\n                /* \"#utility.yul\":2206:2211   */\n              dup3\n                /* \"#utility.yul\":2202:2256   */\n              and\n                /* \"#utility.yul\":2191:2256   */\n              swap1\n              pop\n                /* \"#utility.yul\":2136:2262   */\n              swap2\n              swap1\n              pop\n              jump\t// out\n                /* \"#utility.yul\":2268:2345   */\n            tag_43:\n                /* \"#utility.yul\":2305:2312   */\n              0x00\n                /* \"#utility.yul\":2334:2339   */\n              dup2\n                /* \"#utility.yul\":2323:2339   */\n              swap1\n              pop\n                /* \"#utility.yul\":2268:2345   */\n              swap2\n              swap1\n              pop\n              jump\t// out\n                /* \"#utility.yul\":2474:2591   */\n            tag_28:\n                /* \"#utility.yul\":2583:2584   */\n              0x00\n                /* \"#utility.yul\":2580:2581   */\n              dup1\n                /* \"#utility.yul\":2573:2585   */\n              revert\n                /* \"#utility.yul\":2597:2719   */\n            tag_20:\n                /* \"#utility.yul\":2670:2694   */\n              tag_59\n                /* \"#utility.yul\":2688:2693   */\n              dup2\n                /* \"#utility.yul\":2670:2694   */\n              tag_39\n              jump\t// in\n            tag_59:\n                /* \"#utility.yul\":2663:2668   */\n              dup2\n                /* \"#utility.yul\":2660:2695   */\n              eq\n                /* \"#utility.yul\":2650:2713   */\n              tag_60\n              jumpi\n                /* \"#utility.yul\":2709:2710   */\n              0x00\n                /* \"#utility.yul\":2706:2707   */\n              dup1\n                /* \"#utility.yul\":2699:2711   */\n              revert\n                /* \"#utility.yul\":2650:2713   */\n            tag_60:\n                /* \"#utility.yul\":2597:2719   */\n              pop\n              jump\t// out\n                /* \"#utility.yul\":2725:2847   */\n            tag_24:\n                /* \"#utility.yul\":2798:2822   */\n              tag_62\n                /* \"#utility.yul\":2816:2821   */\n              dup2\n                /* \"#utility.yul\":2798:2822   */\n              tag_43\n              jump\t// in\n            tag_62:\n                /* \"#utility.yul\":2791:2796   */\n              dup2\n                /* \"#utility.yul\":2788:2823   */\n              eq\n                /* \"#utility.yul\":2778:2841   */\n              tag_63\n              jumpi\n                /* \"#utility.yul\":2837:2838   */\n              0x00\n                /* \"#utility.yul\":2834:2835   */\n              dup1\n                /* \"#utility.yul\":2827:2839   */\n              revert\n                /* \"#utility.yul\":2778:2841   */\n            tag_63:\n                /* \"#utility.yul\":2725:2847   */\n              pop\n              jump\t// out\n\n            auxdata: 0xa2646970667358221220d017fe7d6bc9dc5ce010b3d3c1d5044bc7cd3c8b088de6136675ad0f63ec518264736f6c63430008070033\n        }\n    }\n\n    auxdata: 0xa26469706673582212202ec84bd990077bba3c0b347c2266e3ca2ad29b8e8b795524761515d7a78f21ec64736f6c63430008070033\n}\n",
				"bytecode": {
					"linkReferences": {},
					"object": "608060405234801561001057600080fd5b50336000806101000a81548173ffffffffffffffffffffffffffffffffffffffff021916908373ffffffffffffffffffffffffffffffffffffffff16021790555061080d806100606000396000f3fe608060405234801561001057600080fd5b506004361061002b5760003560e01c8063fbcc6cb514610030575b600080fd5b61004a600480360381019061004591906101f5565b61004c565b005b60008054906101000a900473ffffffffffffffffffffffffffffffffffffffff1673ffffffffffffffffffffffffffffffffffffffff163373ffffffffffffffffffffffffffffffffffffffff16146100da576040517f08c379a00000000000000000000000000000000000000000000000000000000081526004016100d190610283565b60405180910390fd5b816040516100e790610163565b6100f191906102a3565b604051809103906000f08015801561010d573d6000803e3d6000fd5b506001600084815260200190815260200160002060006101000a81548173ffffffffffffffffffffffffffffffffffffffff021916908373ffffffffffffffffffffffffffffffffffffffff1602179055505050565b6103d48061040483390190565b600061018361017e846102e3565b6102be565b90508281526020810184848401111561019f5761019e6103a3565b5b6101aa84828561032f565b509392505050565b600082601f8301126101c7576101c661039e565b5b81356101d7848260208601610170565b91505092915050565b6000813590506101ef816103ec565b92915050565b6000806040838503121561020c5761020b6103ad565b5b600061021a858286016101e0565b925050602083013567ffffffffffffffff81111561023b5761023a6103a8565b5b610247858286016101b2565b9150509250929050565b600061025e601583610314565b9150610269826103c3565b602082019050919050565b61027d81610325565b82525050565b6000602082019050818103600083015261029c81610251565b9050919050565b60006020820190506102b86000830184610274565b92915050565b60006102c86102d9565b90506102d4828261033e565b919050565b6000604051905090565b600067ffffffffffffffff8211156102fe576102fd61036f565b5b610307826103b2565b9050602081019050919050565b600082825260208201905092915050565b6000819050919050565b82818337600083830152505050565b610347826103b2565b810181811067ffffffffffffffff821117156103665761036561036f565b5b80604052505050565b7f4e487b7100000000000000000000000000000000000000000000000000000000600052604160045260246000fd5b600080fd5b600080fd5b600080fd5b600080fd5b6000601f19601f8301169050919050565b7f63616c6c6572206973206e6f74204d616e616765720000000000000000000000600082015250565b6103f581610325565b811461040057600080fd5b5056fe608060405234801561001057600080fd5b506040516103d43803806103d483398181016040528101906100329190610054565b80600181905550506100a7565b60008151905061004e81610090565b92915050565b60006020828403121561006a5761006961008b565b5b60006100788482850161003f565b91505092915050565b6000819050919050565b600080fd5b61009981610081565b81146100a457600080fd5b50565b61031e806100b66000396000f3fe608060405234801561001057600080fd5b50600436106100365760003560e01c80632a9788cd1461003b578063a434261f1461006d575b600080fd5b610055600480360381019061005091906101a4565b610089565b60405161006493929190610242565b60405180910390f35b610087600480360381019061008291906101d1565b6100d3565b005b60036020528060005260406000206000915090508060000154908060010154908060020160009054906101000a900473ffffffffffffffffffffffffffffffffffffffff16905083565b60405180606001604052808481526020018381526020018273ffffffffffffffffffffffffffffffffffffffff1681525060036000858152602001908152602001600020600082015181600001556020820151816001015560408201518160020160006101000a81548173ffffffffffffffffffffffffffffffffffffffff021916908373ffffffffffffffffffffffffffffffffffffffff160217905550905050505050565b600081359050610189816102ba565b92915050565b60008135905061019e816102d1565b92915050565b6000602082840312156101ba576101b96102b5565b5b60006101c88482850161018f565b91505092915050565b6000806000606084860312156101ea576101e96102b5565b5b60006101f88682870161018f565b93505060206102098682870161018f565b925050604061021a8682870161017a565b9150509250925092565b61022d81610279565b82525050565b61023c816102ab565b82525050565b60006060820190506102576000830186610233565b6102646020830185610233565b6102716040830184610224565b949350505050565b60006102848261028b565b9050919050565b600073ffffffffffffffffffffffffffffffffffffffff82169050919050565b6000819050919050565b600080fd5b6102c381610279565b81146102ce57600080fd5b50565b6102da816102ab565b81146102e557600080fd5b5056fea2646970667358221220d017fe7d6bc9dc5ce010b3d3c1d5044bc7cd3c8b088de6136675ad0f63ec518264736f6c63430008070033a26469706673582212202ec84bd990077bba3c0b347c2266e3ca2ad29b8e8b795524761515d7a78f21ec64736f6c63430008070033",
					"opcodes": "PUSH1 0x80 PUSH1 0x40 MSTORE CALLVALUE DUP1 ISZERO PUSH2 0x10 JUMPI PUSH1 0x0 DUP1 REVERT JUMPDEST POP CALLER PUSH1 0x0 DUP1 PUSH2 0x100 EXP DUP2 SLOAD DUP2 PUSH20 0xFFFFFFFFFFFFFFFFFFFFFFFFFFFFFFFFFFFFFFFF MUL NOT AND SWAP1 DUP4 PUSH20 0xFFFFFFFFFFFFFFFFFFFFFFFFFFFFFFFFFFFFFFFF AND MUL OR SWAP1 SSTORE POP PUSH2 0x80D DUP1 PUSH2 0x60 PUSH1 0x0 CODECOPY PUSH1 0x0 RETURN INVALID PUSH1 0x80 PUSH1 0x40 MSTORE CALLVALUE DUP1 ISZERO PUSH2 0x10 JUMPI PUSH1 0x0 DUP1 REVERT JUMPDEST POP PUSH1 0x4 CALLDATASIZE LT PUSH2 0x2B JUMPI PUSH1 0x0 CALLDATALOAD PUSH1 0xE0 SHR DUP1 PUSH4 0xFBCC6CB5 EQ PUSH2 0x30 JUMPI JUMPDEST PUSH1 0x0 DUP1 REVERT JUMPDEST PUSH2 0x4A PUSH1 0x4 DUP1 CALLDATASIZE SUB DUP2 ADD SWAP1 PUSH2 0x45 SWAP2 SWAP1 PUSH2 0x1F5 JUMP JUMPDEST PUSH2 0x4C JUMP JUMPDEST STOP JUMPDEST PUSH1 0x0 DUP1 SLOAD SWAP1 PUSH2 0x100 EXP SWAP1 DIV PUSH20 0xFFFFFFFFFFFFFFFFFFFFFFFFFFFFFFFFFFFFFFFF AND PUSH20 0xFFFFFFFFFFFFFFFFFFFFFFFFFFFFFFFFFFFFFFFF AND CALLER PUSH20 0xFFFFFFFFFFFFFFFFFFFFFFFFFFFFFFFFFFFFFFFF AND EQ PUSH2 0xDA JUMPI PUSH1 0x40 MLOAD PUSH32 0x8C379A000000000000000000000000000000000000000000000000000000000 DUP2 MSTORE PUSH1 0x4 ADD PUSH2 0xD1 SWAP1 PUSH2 0x283 JUMP JUMPDEST PUSH1 0x40 MLOAD DUP1 SWAP2 SUB SWAP1 REVERT JUMPDEST DUP2 PUSH1 0x40 MLOAD PUSH2 0xE7 SWAP1 PUSH2 0x163 JUMP JUMPDEST PUSH2 0xF1 SWAP2 SWAP1 PUSH2 0x2A3 JUMP JUMPDEST PUSH1 0x40 MLOAD DUP1 SWAP2 SUB SWAP1 PUSH1 0x0 CREATE DUP1 ISZERO DUP1 ISZERO PUSH2 0x10D JUMPI RETURNDATASIZE PUSH1 0x0 DUP1 RETURNDATACOPY RETURNDATASIZE PUSH1 0x0 REVERT JUMPDEST POP PUSH1 0x1 PUSH1 0x0 DUP5 DUP2 MSTORE PUSH1 0x20 ADD SWAP1 DUP2 MSTORE PUSH1 0x20 ADD PUSH1 0x0 KECCAK256 PUSH1 0x0 PUSH2 0x100 EXP DUP2 SLOAD DUP2 PUSH20 0xFFFFFFFFFFFFFFFFFFFFFFFFFFFFFFFFFFFFFFFF MUL NOT AND SWAP1 DUP4 PUSH20 0xFFFFFFFFFFFFFFFFFFFFFFFFFFFFFFFFFFFFFFFF AND MUL OR SWAP1 SSTORE POP POP POP JUMP JUMPDEST PUSH2 0x3D4 DUP1 PUSH2 0x404 DUP4 CODECOPY ADD SWAP1 JUMP JUMPDEST PUSH1 0x0 PUSH2 0x183 PUSH2 0x17E DUP5 PUSH2 0x2E3 JUMP JUMPDEST PUSH2 0x2BE JUMP JUMPDEST SWAP1 POP DUP3 DUP2 MSTORE PUSH1 0x20 DUP2 ADD DUP5 DUP5 DUP5 ADD GT ISZERO PUSH2 0x19F JUMPI PUSH2 0x19E PUSH2 0x3A3 JUMP JUMPDEST JUMPDEST PUSH2 0x1AA DUP5 DUP3 DUP6 PUSH2 0x32F JUMP JUMPDEST POP SWAP4 SWAP3 POP POP POP JUMP JUMPDEST PUSH1 0x0 DUP3 PUSH1 0x1F DUP4 ADD SLT PUSH2 0x1C7 JUMPI PUSH2 0x1C6 PUSH2 0x39E JUMP JUMPDEST JUMPDEST DUP2 CALLDATALOAD PUSH2 0x1D7 DUP5 DUP3 PUSH1 0x20 DUP7 ADD PUSH2 0x170 JUMP JUMPDEST SWAP2 POP POP SWAP3 SWAP2 POP POP JUMP JUMPDEST PUSH1 0x0 DUP2 CALLDATALOAD SWAP1 POP PUSH2 0x1EF DUP2 PUSH2 0x3EC JUMP JUMPDEST SWAP3 SWAP2 POP POP JUMP JUMPDEST PUSH1 0x0 DUP1 PUSH1 0x40 DUP4 DUP6 SUB SLT ISZERO PUSH2 0x20C JUMPI PUSH2 0x20B PUSH2 0x3AD JUMP JUMPDEST JUMPDEST PUSH1 0x0 PUSH2 0x21A DUP6 DUP3 DUP7 ADD PUSH2 0x1E0 JUMP JUMPDEST SWAP3 POP POP PUSH1 0x20 DUP4 ADD CALLDATALOAD PUSH8 0xFFFFFFFFFFFFFFFF DUP2 GT ISZERO PUSH2 0x23B JUMPI PUSH2 0x23A PUSH2 0x3A8 JUMP JUMPDEST JUMPDEST PUSH2 0x247 DUP6 DUP3 DUP7 ADD PUSH2 0x1B2 JUMP JUMPDEST SWAP2 POP POP SWAP3 POP SWAP3 SWAP1 POP JUMP JUMPDEST PUSH1 0x0 PUSH2 0x25E PUSH1 0x15 DUP4 PUSH2 0x314 JUMP JUMPDEST SWAP2 POP PUSH2 0x269 DUP3 PUSH2 0x3C3 JUMP JUMPDEST PUSH1 0x20 DUP3 ADD SWAP1 POP SWAP2 SWAP1 POP JUMP JUMPDEST PUSH2 0x27D DUP2 PUSH2 0x325 JUMP JUMPDEST DUP3 MSTORE POP POP JUMP JUMPDEST PUSH1 0x0 PUSH1 0x20 DUP3 ADD SWAP1 POP DUP2 DUP2 SUB PUSH1 0x0 DUP4 ADD MSTORE PUSH2 0x29C DUP2 PUSH2 0x251 JUMP JUMPDEST SWAP1 POP SWAP2 SWAP1 POP JUMP JUMPDEST PUSH1 0x0 PUSH1 0x20 DUP3 ADD SWAP1 POP PUSH2 0x2B8 PUSH1 0x0 DUP4 ADD DUP5 PUSH2 0x274 JUMP JUMPDEST SWAP3 SWAP2 POP POP JUMP JUMPDEST PUSH1 0x0 PUSH2 0x2C8 PUSH2 0x2D9 JUMP JUMPDEST SWAP1 POP PUSH2 0x2D4 DUP3 DUP3 PUSH2 0x33E JUMP JUMPDEST SWAP2 SWAP1 POP JUMP JUMPDEST PUSH1 0x0 PUSH1 0x40 MLOAD SWAP1 POP SWAP1 JUMP JUMPDEST PUSH1 0x0 PUSH8 0xFFFFFFFFFFFFFFFF DUP3 GT ISZERO PUSH2 0x2FE JUMPI PUSH2 0x2FD PUSH2 0x36F JUMP JUMPDEST JUMPDEST PUSH2 0x307 DUP3 PUSH2 0x3B2 JUMP JUMPDEST SWAP1 POP PUSH1 0x20 DUP2 ADD SWAP1 POP SWAP2 SWAP1 POP JUMP JUMPDEST PUSH1 0x0 DUP3 DUP3 MSTORE PUSH1 0x20 DUP3 ADD SWAP1 POP SWAP3 SWAP2 POP POP JUMP JUMPDEST PUSH1 0x0 DUP2 SWAP1 POP SWAP2 SWAP1 POP JUMP JUMPDEST DUP3 DUP2 DUP4 CALLDATACOPY PUSH1 0x0 DUP4 DUP4 ADD MSTORE POP POP POP JUMP JUMPDEST PUSH2 0x347 DUP3 PUSH2 0x3B2 JUMP JUMPDEST DUP2 ADD DUP2 DUP2 LT PUSH8 0xFFFFFFFFFFFFFFFF DUP3 GT OR ISZERO PUSH2 0x366 JUMPI PUSH2 0x365 PUSH2 0x36F JUMP JUMPDEST JUMPDEST DUP1 PUSH1 0x40 MSTORE POP POP POP JUMP JUMPDEST PUSH32 0x4E487B7100000000000000000000000000000000000000000000000000000000 PUSH1 0x0 MSTORE PUSH1 0x41 PUSH1 0x4 MSTORE PUSH1 0x24 PUSH1 0x0 REVERT JUMPDEST PUSH1 0x0 DUP1 REVERT JUMPDEST PUSH1 0x0 DUP1 REVERT JUMPDEST PUSH1 0x0 DUP1 REVERT JUMPDEST PUSH1 0x0 DUP1 REVERT JUMPDEST PUSH1 0x0 PUSH1 0x1F NOT PUSH1 0x1F DUP4 ADD AND SWAP1 POP SWAP2 SWAP1 POP JUMP JUMPDEST PUSH32 0x63616C6C6572206973206E6F74204D616E616765720000000000000000000000 PUSH1 0x0 DUP3 ADD MSTORE POP JUMP JUMPDEST PUSH2 0x3F5 DUP2 PUSH2 0x325 JUMP JUMPDEST DUP2 EQ PUSH2 0x400 JUMPI PUSH1 0x0 DUP1 REVERT JUMPDEST POP JUMP INVALID PUSH1 0x80 PUSH1 0x40 MSTORE CALLVALUE DUP1 ISZERO PUSH2 0x10 JUMPI PUSH1 0x0 DUP1 REVERT JUMPDEST POP PUSH1 0x40 MLOAD PUSH2 0x3D4 CODESIZE SUB DUP1 PUSH2 0x3D4 DUP4 CODECOPY DUP2 DUP2 ADD PUSH1 0x40 MSTORE DUP2 ADD SWAP1 PUSH2 0x32 SWAP2 SWAP1 PUSH2 0x54 JUMP JUMPDEST DUP1 PUSH1 0x1 DUP2 SWAP1 SSTORE POP POP PUSH2 0xA7 JUMP JUMPDEST PUSH1 0x0 DUP2 MLOAD SWAP1 POP PUSH2 0x4E DUP2 PUSH2 0x90 JUMP JUMPDEST SWAP3 SWAP2 POP POP JUMP JUMPDEST PUSH1 0x0 PUSH1 0x20 DUP3 DUP5 SUB SLT ISZERO PUSH2 0x6A JUMPI PUSH2 0x69 PUSH2 0x8B JUMP JUMPDEST JUMPDEST PUSH1 0x0 PUSH2 0x78 DUP5 DUP3 DUP6 ADD PUSH2 0x3F JUMP JUMPDEST SWAP2 POP POP SWAP3 SWAP2 POP POP JUMP JUMPDEST PUSH1 0x0 DUP2 SWAP1 POP SWAP2 SWAP1 POP JUMP JUMPDEST PUSH1 0x0 DUP1 REVERT JUMPDEST PUSH2 0x99 DUP2 PUSH2 0x81 JUMP JUMPDEST DUP2 EQ PUSH2 0xA4 JUMPI PUSH1 0x0 DUP1 REVERT JUMPDEST POP JUMP JUMPDEST PUSH2 0x31E DUP1 PUSH2 0xB6 PUSH1 0x0 CODECOPY PUSH1 0x0 RETURN INVALID PUSH1 0x80 PUSH1 0x40 MSTORE CALLVALUE DUP1 ISZERO PUSH2 0x10 JUMPI PUSH1 0x0 DUP1 REVERT JUMPDEST POP PUSH1 0x4 CALLDATASIZE LT PUSH2 0x36 JUMPI PUSH1 0x0 CALLDATALOAD PUSH1 0xE0 SHR DUP1 PUSH4 0x2A9788CD EQ PUSH2 0x3B JUMPI DUP1 PUSH4 0xA434261F EQ PUSH2 0x6D JUMPI JUMPDEST PUSH1 0x0 DUP1 REVERT JUMPDEST PUSH2 0x55 PUSH1 0x4 DUP1 CALLDATASIZE SUB DUP2 ADD SWAP1 PUSH2 0x50 SWAP2 SWAP1 PUSH2 0x1A4 JUMP JUMPDEST PUSH2 0x89 JUMP JUMPDEST PUSH1 0x40 MLOAD PUSH2 0x64 SWAP4 SWAP3 SWAP2 SWAP1 PUSH2 0x242 JUMP JUMPDEST PUSH1 0x40 MLOAD DUP1 SWAP2 SUB SWAP1 RETURN JUMPDEST PUSH2 0x87 PUSH1 0x4 DUP1 CALLDATASIZE SUB DUP2 ADD SWAP1 PUSH2 0x82 SWAP2 SWAP1 PUSH2 0x1D1 JUMP JUMPDEST PUSH2 0xD3 JUMP JUMPDEST STOP JUMPDEST PUSH1 0x3 PUSH1 0x20 MSTORE DUP1 PUSH1 0x0 MSTORE PUSH1 0x40 PUSH1 0x0 KECCAK256 PUSH1 0x0 SWAP2 POP SWAP1 POP DUP1 PUSH1 0x0 ADD SLOAD SWAP1 DUP1 PUSH1 0x1 ADD SLOAD SWAP1 DUP1 PUSH1 0x2 ADD PUSH1 0x0 SWAP1 SLOAD SWAP1 PUSH2 0x100 EXP SWAP1 DIV PUSH20 0xFFFFFFFFFFFFFFFFFFFFFFFFFFFFFFFFFFFFFFFF AND SWAP1 POP DUP4 JUMP JUMPDEST PUSH1 0x40 MLOAD DUP1 PUSH1 0x60 ADD PUSH1 0x40 MSTORE DUP1 DUP5 DUP2 MSTORE PUSH1 0x20 ADD DUP4 DUP2 MSTORE PUSH1 0x20 ADD DUP3 PUSH20 0xFFFFFFFFFFFFFFFFFFFFFFFFFFFFFFFFFFFFFFFF AND DUP2 MSTORE POP PUSH1 0x3 PUSH1 0x0 DUP6 DUP2 MSTORE PUSH1 0x20 ADD SWAP1 DUP2 MSTORE PUSH1 0x20 ADD PUSH1 0x0 KECCAK256 PUSH1 0x0 DUP3 ADD MLOAD DUP2 PUSH1 0x0 ADD SSTORE PUSH1 0x20 DUP3 ADD MLOAD DUP2 PUSH1 0x1 ADD SSTORE PUSH1 0x40 DUP3 ADD MLOAD DUP2 PUSH1 0x2 ADD PUSH1 0x0 PUSH2 0x100 EXP DUP2 SLOAD DUP2 PUSH20 0xFFFFFFFFFFFFFFFFFFFFFFFFFFFFFFFFFFFFFFFF MUL NOT AND SWAP1 DUP4 PUSH20 0xFFFFFFFFFFFFFFFFFFFFFFFFFFFFFFFFFFFFFFFF AND MUL OR SWAP1 SSTORE POP SWAP1 POP POP POP POP POP JUMP JUMPDEST PUSH1 0x0 DUP2 CALLDATALOAD SWAP1 POP PUSH2 0x189 DUP2 PUSH2 0x2BA JUMP JUMPDEST SWAP3 SWAP2 POP POP JUMP JUMPDEST PUSH1 0x0 DUP2 CALLDATALOAD SWAP1 POP PUSH2 0x19E DUP2 PUSH2 0x2D1 JUMP JUMPDEST SWAP3 SWAP2 POP POP JUMP JUMPDEST PUSH1 0x0 PUSH1 0x20 DUP3 DUP5 SUB SLT ISZERO PUSH2 0x1BA JUMPI PUSH2 0x1B9 PUSH2 0x2B5 JUMP JUMPDEST JUMPDEST PUSH1 0x0 PUSH2 0x1C8 DUP5 DUP3 DUP6 ADD PUSH2 0x18F JUMP JUMPDEST SWAP2 POP POP SWAP3 SWAP2 POP POP JUMP JUMPDEST PUSH1 0x0 DUP1 PUSH1 0x0 PUSH1 0x60 DUP5 DUP7 SUB SLT ISZERO PUSH2 0x1EA JUMPI PUSH2 0x1E9 PUSH2 0x2B5 JUMP JUMPDEST JUMPDEST PUSH1 0x0 PUSH2 0x1F8 DUP7 DUP3 DUP8 ADD PUSH2 0x18F JUMP JUMPDEST SWAP4 POP POP PUSH1 0x20 PUSH2 0x209 DUP7 DUP3 DUP8 ADD PUSH2 0x18F JUMP JUMPDEST SWAP3 POP POP PUSH1 0x40 PUSH2 0x21A DUP7 DUP3 DUP8 ADD PUSH2 0x17A JUMP JUMPDEST SWAP2 POP POP SWAP3 POP SWAP3 POP SWAP3 JUMP JUMPDEST PUSH2 0x22D DUP2 PUSH2 0x279 JUMP JUMPDEST DUP3 MSTORE POP POP JUMP JUMPDEST PUSH2 0x23C DUP2 PUSH2 0x2AB JUMP JUMPDEST DUP3 MSTORE POP POP JUMP JUMPDEST PUSH1 0x0 PUSH1 0x60 DUP3 ADD SWAP1 POP PUSH2 0x257 PUSH1 0x0 DUP4 ADD DUP7 PUSH2 0x233 JUMP JUMPDEST PUSH2 0x264 PUSH1 0x20 DUP4 ADD DUP6 PUSH2 0x233 JUMP JUMPDEST PUSH2 0x271 PUSH1 0x40 DUP4 ADD DUP5 PUSH2 0x224 JUMP JUMPDEST SWAP5 SWAP4 POP POP POP POP JUMP JUMPDEST PUSH1 0x0 PUSH2 0x284 DUP3 PUSH2 0x28B JUMP JUMPDEST SWAP1 POP SWAP2 SWAP1 POP JUMP JUMPDEST PUSH1 0x0 PUSH20 0xFFFFFFFFFFFFFFFFFFFFFFFFFFFFFFFFFFFFFFFF DUP3 AND SWAP1 POP SWAP2 SWAP1 POP JUMP JUMPDEST PUSH1 0x0 DUP2 SWAP1 POP SWAP2 SWAP1 POP JUMP JUMPDEST PUSH1 0x0 DUP1 REVERT JUMPDEST PUSH2 0x2C3 DUP2 PUSH2 0x279 JUMP JUMPDEST DUP2 EQ PUSH2 0x2CE JUMPI PUSH1 0x0 DUP1 REVERT JUMPDEST POP JUMP JUMPDEST PUSH2 0x2DA DUP2 PUSH2 0x2AB JUMP JUMPDEST DUP2 EQ PUSH2 0x2E5 JUMPI PUSH1 0x0 DUP1 REVERT JUMPDEST POP JUMP INVALID LOG2 PUSH5 0x6970667358 0x22 SLT KECCAK256 0xD0 OR INVALID PUSH30 0x6BC9DC5CE010B3D3C1D5044BC7CD3C8B088DE6136675AD0F63EC51826473 PUSH16 0x6C63430008070033A264697066735822 SLT KECCAK256 0x2E 0xC8 0x4B 0xD9 SWAP1 SMOD PUSH28 0xBA3C0B347C2266E3CA2AD29B8E8B795524761515D7A78F21EC64736F PUSH13 0x63430008070033000000000000 "
				},
				"gasEstimates": {
					"creation": {
						"codeDepositCost": "412200",
						"executionCost": "24715",
						"totalCost": "436915"
					},
					"external": {
						"addBus(uint256,string)": "infinite"
					}
				},
				"methodIdentifiers": {
					"addBus(uint256,string)": "fbcc6cb5"
				}
			},
			"storageLayout": {
				"storage": [
					{
						"astId": 58,
						"contract": "contracts/main.sol:smartReservation",
						"label": "manager",
						"offset": 0,
						"slot": "0",
						"type": "t_address"
					},
					{
						"astId": 63,
						"contract": "contracts/main.sol:smartReservation",
						"label": "bus",
						"offset": 0,
						"slot": "1",
						"type": "t_mapping(t_uint256,t_contract(Bus)51)"
					}
				],
				"types": {
					"t_address": {
						"encoding": "inplace",
						"label": "address",
						"numberOfBytes": "20"
					},
					"t_contract(Bus)51": {
						"encoding": "inplace",
						"label": "contract Bus",
						"numberOfBytes": "20"
					},
					"t_mapping(t_uint256,t_contract(Bus)51)": {
						"encoding": "mapping",
						"key": "t_uint256",
						"label": "mapping(uint256 => contract Bus)",
						"numberOfBytes": "32",
						"value": "t_contract(Bus)51"
					},
					"t_uint256": {
						"encoding": "inplace",
						"label": "uint256",
						"numberOfBytes": "32"
					}
				}
			},
			"userdoc": {
				"kind": "user",
				"methods": {},
				"version": 1
			}
		}
	}
}