{
	"contracts/minsubus.sol": {
		"Database": {
			"abi": [
				{
					"inputs": [
						{
							"internalType": "address[]",
							"name": "_owner",
							"type": "address[]"
						}
					],
					"stateMutability": "nonpayable",
					"type": "constructor"
				},
				{
					"inputs": [
						{
							"internalType": "address",
							"name": "bus",
							"type": "address"
						},
						{
							"internalType": "string",
							"name": "destination",
							"type": "string"
						},
						{
							"internalType": "uint256",
							"name": "start_time",
							"type": "uint256"
						},
						{
							"internalType": "string",
							"name": "busNum",
							"type": "string"
						}
					],
					"name": "addBus",
					"outputs": [],
					"stateMutability": "nonpayable",
					"type": "function"
				},
				{
					"inputs": [
						{
							"internalType": "string",
							"name": "student_name",
							"type": "string"
						},
						{
							"internalType": "uint256",
							"name": "studentNum",
							"type": "uint256"
						}
					],
					"name": "addStudent",
					"outputs": [],
					"stateMutability": "nonpayable",
					"type": "function"
				},
				{
					"inputs": [
						{
							"internalType": "uint256",
							"name": "_num",
							"type": "uint256"
						}
					],
					"name": "deleteStudent",
					"outputs": [
						{
							"internalType": "string",
							"name": "",
							"type": "string"
						}
					],
					"stateMutability": "nonpayable",
					"type": "function"
				},
				{
					"inputs": [
						{
							"internalType": "uint256",
							"name": "_num",
							"type": "uint256"
						}
					],
					"name": "getStudents",
					"outputs": [
						{
							"internalType": "string",
							"name": "",
							"type": "string"
						},
						{
							"internalType": "address",
							"name": "",
							"type": "address"
						}
					],
					"stateMutability": "view",
					"type": "function"
				}
			],
			"devdoc": {
				"details": "Save Professor",
				"kind": "dev",
				"methods": {},
				"title": "Database",
				"version": 1
			},
			"evm": {
				"assembly": "    /* \"contracts/minsubus.sol\":148:1848  contract Database {... */\n  mstore(0x40, 0x80)\n    /* \"contracts/minsubus.sol\":905:972  constructor(address[] memory _owner){... */\n  callvalue\n  dup1\n  iszero\n  tag_1\n  jumpi\n  0x00\n  dup1\n  revert\ntag_1:\n  pop\n  mload(0x40)\n  sub(codesize, bytecodeSize)\n  dup1\n  bytecodeSize\n  dup4\n  codecopy\n  dup2\n  dup2\n  add\n  0x40\n  mstore\n  dup2\n  add\n  swap1\n  tag_2\n  swap2\n  swap1\n  tag_3\n  jump\t// in\ntag_2:\n    /* \"contracts/minsubus.sol\":959:965  _owner */\n  dup1\n    /* \"contracts/minsubus.sol\":951:956  owner */\n  0x03\n    /* \"contracts/minsubus.sol\":951:965  owner = _owner */\n  swap1\n  dup1\n  mload\n  swap1\n  0x20\n  add\n  swap1\n  tag_6\n  swap3\n  swap2\n  swap1\n  tag_7\n  jump\t// in\ntag_6:\n  pop\n    /* \"contracts/minsubus.sol\":905:972  constructor(address[] memory _owner){... */\n  pop\n    /* \"contracts/minsubus.sol\":148:1848  contract Database {... */\n  jump(tag_8)\ntag_7:\n  dup3\n  dup1\n  sload\n  dup3\n  dup3\n  sstore\n  swap1\n  0x00\n  mstore\n  keccak256(0x00, 0x20)\n  swap1\n  dup2\n  add\n  swap3\n  dup3\n  iszero\n  tag_9\n  jumpi\n  swap2\n  0x20\n  mul\n  dup3\n  add\ntag_10:\n  dup3\n  dup2\n  gt\n  iszero\n  tag_11\n  jumpi\n  dup3\n  mload\n  dup3\n  exp(0x0100, 0x00)\n  dup2\n  sload\n  dup2\n  0xffffffffffffffffffffffffffffffffffffffff\n  mul\n  not\n  and\n  swap1\n  dup4\n  0xffffffffffffffffffffffffffffffffffffffff\n  and\n  mul\n  or\n  swap1\n  sstore\n  pop\n  swap2\n  0x20\n  add\n  swap2\n  swap1\n  0x01\n  add\n  swap1\n  jump(tag_10)\ntag_11:\ntag_9:\n  pop\n  swap1\n  pop\n  tag_12\n  swap2\n  swap1\n  tag_13\n  jump\t// in\ntag_12:\n  pop\n  swap1\n  jump\t// out\ntag_13:\ntag_14:\n  dup1\n  dup3\n  gt\n  iszero\n  tag_15\n  jumpi\n  0x00\n  dup2\n  0x00\n  swap1\n  sstore\n  pop\n  0x01\n  add\n  jump(tag_14)\ntag_15:\n  pop\n  swap1\n  jump\t// out\n    /* \"#utility.yul\":24:768   */\ntag_17:\n    /* \"#utility.yul\":131:136   */\n  0x00\n    /* \"#utility.yul\":156:237   */\n  tag_19\n    /* \"#utility.yul\":172:236   */\n  tag_20\n    /* \"#utility.yul\":229:235   */\n  dup5\n    /* \"#utility.yul\":172:236   */\n  tag_21\n  jump\t// in\ntag_20:\n    /* \"#utility.yul\":156:237   */\n  tag_22\n  jump\t// in\ntag_19:\n    /* \"#utility.yul\":147:237   */\n  swap1\n  pop\n    /* \"#utility.yul\":257:262   */\n  dup1\n    /* \"#utility.yul\":286:292   */\n  dup4\n    /* \"#utility.yul\":279:284   */\n  dup3\n    /* \"#utility.yul\":272:293   */\n  mstore\n    /* \"#utility.yul\":320:324   */\n  0x20\n    /* \"#utility.yul\":313:318   */\n  dup3\n    /* \"#utility.yul\":309:325   */\n  add\n    /* \"#utility.yul\":302:325   */\n  swap1\n  pop\n    /* \"#utility.yul\":346:352   */\n  dup3\n    /* \"#utility.yul\":396:399   */\n  dup6\n    /* \"#utility.yul\":388:392   */\n  0x20\n    /* \"#utility.yul\":380:386   */\n  dup7\n    /* \"#utility.yul\":376:393   */\n  mul\n    /* \"#utility.yul\":371:374   */\n  dup3\n    /* \"#utility.yul\":367:394   */\n  add\n    /* \"#utility.yul\":364:400   */\n  gt\n    /* \"#utility.yul\":361:504   */\n  iszero\n  tag_23\n  jumpi\n    /* \"#utility.yul\":415:494   */\n  tag_24\n  tag_25\n  jump\t// in\ntag_24:\n    /* \"#utility.yul\":361:504   */\ntag_23:\n    /* \"#utility.yul\":528:529   */\n  0x00\n    /* \"#utility.yul\":513:762   */\ntag_26:\n    /* \"#utility.yul\":538:544   */\n  dup6\n    /* \"#utility.yul\":535:536   */\n  dup2\n    /* \"#utility.yul\":532:545   */\n  lt\n    /* \"#utility.yul\":513:762   */\n  iszero\n  tag_28\n  jumpi\n    /* \"#utility.yul\":606:609   */\n  dup2\n    /* \"#utility.yul\":635:683   */\n  tag_29\n    /* \"#utility.yul\":679:682   */\n  dup9\n    /* \"#utility.yul\":667:677   */\n  dup3\n    /* \"#utility.yul\":635:683   */\n  tag_30\n  jump\t// in\ntag_29:\n    /* \"#utility.yul\":630:633   */\n  dup5\n    /* \"#utility.yul\":623:684   */\n  mstore\n    /* \"#utility.yul\":713:717   */\n  0x20\n    /* \"#utility.yul\":708:711   */\n  dup5\n    /* \"#utility.yul\":704:718   */\n  add\n    /* \"#utility.yul\":697:718   */\n  swap4\n  pop\n    /* \"#utility.yul\":747:751   */\n  0x20\n    /* \"#utility.yul\":742:745   */\n  dup4\n    /* \"#utility.yul\":738:752   */\n  add\n    /* \"#utility.yul\":731:752   */\n  swap3\n  pop\n    /* \"#utility.yul\":573:762   */\n  pop\n    /* \"#utility.yul\":560:561   */\n  0x01\n    /* \"#utility.yul\":557:558   */\n  dup2\n    /* \"#utility.yul\":553:562   */\n  add\n    /* \"#utility.yul\":548:562   */\n  swap1\n  pop\n    /* \"#utility.yul\":513:762   */\n  jump(tag_26)\ntag_28:\n    /* \"#utility.yul\":517:531   */\n  pop\n    /* \"#utility.yul\":137:768   */\n  pop\n  pop\n    /* \"#utility.yul\":24:768   */\n  swap4\n  swap3\n  pop\n  pop\n  pop\n  jump\t// out\n    /* \"#utility.yul\":774:917   */\ntag_30:\n    /* \"#utility.yul\":831:836   */\n  0x00\n    /* \"#utility.yul\":862:868   */\n  dup2\n    /* \"#utility.yul\":856:869   */\n  mload\n    /* \"#utility.yul\":847:869   */\n  swap1\n  pop\n    /* \"#utility.yul\":878:911   */\n  tag_32\n    /* \"#utility.yul\":905:910   */\n  dup2\n    /* \"#utility.yul\":878:911   */\n  tag_33\n  jump\t// in\ntag_32:\n    /* \"#utility.yul\":774:917   */\n  swap3\n  swap2\n  pop\n  pop\n  jump\t// out\n    /* \"#utility.yul\":940:1325   */\ntag_34:\n    /* \"#utility.yul\":1022:1027   */\n  0x00\n    /* \"#utility.yul\":1071:1074   */\n  dup3\n    /* \"#utility.yul\":1064:1068   */\n  0x1f\n    /* \"#utility.yul\":1056:1062   */\n  dup4\n    /* \"#utility.yul\":1052:1069   */\n  add\n    /* \"#utility.yul\":1048:1075   */\n  slt\n    /* \"#utility.yul\":1038:1160   */\n  tag_36\n  jumpi\n    /* \"#utility.yul\":1079:1158   */\n  tag_37\n  tag_38\n  jump\t// in\ntag_37:\n    /* \"#utility.yul\":1038:1160   */\ntag_36:\n    /* \"#utility.yul\":1189:1195   */\n  dup2\n    /* \"#utility.yul\":1183:1196   */\n  mload\n    /* \"#utility.yul\":1214:1319   */\n  tag_39\n    /* \"#utility.yul\":1315:1318   */\n  dup5\n    /* \"#utility.yul\":1307:1313   */\n  dup3\n    /* \"#utility.yul\":1300:1304   */\n  0x20\n    /* \"#utility.yul\":1292:1298   */\n  dup7\n    /* \"#utility.yul\":1288:1305   */\n  add\n    /* \"#utility.yul\":1214:1319   */\n  tag_17\n  jump\t// in\ntag_39:\n    /* \"#utility.yul\":1205:1319   */\n  swap2\n  pop\n    /* \"#utility.yul\":1028:1325   */\n  pop\n    /* \"#utility.yul\":940:1325   */\n  swap3\n  swap2\n  pop\n  pop\n  jump\t// out\n    /* \"#utility.yul\":1331:1885   */\ntag_3:\n    /* \"#utility.yul\":1426:1432   */\n  0x00\n    /* \"#utility.yul\":1475:1477   */\n  0x20\n    /* \"#utility.yul\":1463:1472   */\n  dup3\n    /* \"#utility.yul\":1454:1461   */\n  dup5\n    /* \"#utility.yul\":1450:1473   */\n  sub\n    /* \"#utility.yul\":1446:1478   */\n  slt\n    /* \"#utility.yul\":1443:1562   */\n  iszero\n  tag_41\n  jumpi\n    /* \"#utility.yul\":1481:1560   */\n  tag_42\n  tag_43\n  jump\t// in\ntag_42:\n    /* \"#utility.yul\":1443:1562   */\ntag_41:\n    /* \"#utility.yul\":1622:1623   */\n  0x00\n    /* \"#utility.yul\":1611:1620   */\n  dup3\n    /* \"#utility.yul\":1607:1624   */\n  add\n    /* \"#utility.yul\":1601:1625   */\n  mload\n    /* \"#utility.yul\":1652:1670   */\n  0xffffffffffffffff\n    /* \"#utility.yul\":1644:1650   */\n  dup2\n    /* \"#utility.yul\":1641:1671   */\n  gt\n    /* \"#utility.yul\":1638:1755   */\n  iszero\n  tag_44\n  jumpi\n    /* \"#utility.yul\":1674:1753   */\n  tag_45\n  tag_46\n  jump\t// in\ntag_45:\n    /* \"#utility.yul\":1638:1755   */\ntag_44:\n    /* \"#utility.yul\":1779:1868   */\n  tag_47\n    /* \"#utility.yul\":1860:1867   */\n  dup5\n    /* \"#utility.yul\":1851:1857   */\n  dup3\n    /* \"#utility.yul\":1840:1849   */\n  dup6\n    /* \"#utility.yul\":1836:1858   */\n  add\n    /* \"#utility.yul\":1779:1868   */\n  tag_34\n  jump\t// in\ntag_47:\n    /* \"#utility.yul\":1769:1868   */\n  swap2\n  pop\n    /* \"#utility.yul\":1572:1878   */\n  pop\n    /* \"#utility.yul\":1331:1885   */\n  swap3\n  swap2\n  pop\n  pop\n  jump\t// out\n    /* \"#utility.yul\":1891:2020   */\ntag_22:\n    /* \"#utility.yul\":1925:1931   */\n  0x00\n    /* \"#utility.yul\":1952:1972   */\n  tag_49\n  tag_50\n  jump\t// in\ntag_49:\n    /* \"#utility.yul\":1942:1972   */\n  swap1\n  pop\n    /* \"#utility.yul\":1981:2014   */\n  tag_51\n    /* \"#utility.yul\":2009:2013   */\n  dup3\n    /* \"#utility.yul\":2001:2007   */\n  dup3\n    /* \"#utility.yul\":1981:2014   */\n  tag_52\n  jump\t// in\ntag_51:\n    /* \"#utility.yul\":1891:2020   */\n  swap2\n  swap1\n  pop\n  jump\t// out\n    /* \"#utility.yul\":2026:2101   */\ntag_50:\n    /* \"#utility.yul\":2059:2065   */\n  0x00\n    /* \"#utility.yul\":2092:2094   */\n  0x40\n    /* \"#utility.yul\":2086:2095   */\n  mload\n    /* \"#utility.yul\":2076:2095   */\n  swap1\n  pop\n    /* \"#utility.yul\":2026:2101   */\n  swap1\n  jump\t// out\n    /* \"#utility.yul\":2107:2418   */\ntag_21:\n    /* \"#utility.yul\":2184:2188   */\n  0x00\n    /* \"#utility.yul\":2274:2292   */\n  0xffffffffffffffff\n    /* \"#utility.yul\":2266:2272   */\n  dup3\n    /* \"#utility.yul\":2263:2293   */\n  gt\n    /* \"#utility.yul\":2260:2316   */\n  iszero\n  tag_55\n  jumpi\n    /* \"#utility.yul\":2296:2314   */\n  tag_56\n  tag_57\n  jump\t// in\ntag_56:\n    /* \"#utility.yul\":2260:2316   */\ntag_55:\n    /* \"#utility.yul\":2346:2350   */\n  0x20\n    /* \"#utility.yul\":2338:2344   */\n  dup3\n    /* \"#utility.yul\":2334:2351   */\n  mul\n    /* \"#utility.yul\":2326:2351   */\n  swap1\n  pop\n    /* \"#utility.yul\":2406:2410   */\n  0x20\n    /* \"#utility.yul\":2400:2404   */\n  dup2\n    /* \"#utility.yul\":2396:2411   */\n  add\n    /* \"#utility.yul\":2388:2411   */\n  swap1\n  pop\n    /* \"#utility.yul\":2107:2418   */\n  swap2\n  swap1\n  pop\n  jump\t// out\n    /* \"#utility.yul\":2424:2520   */\ntag_58:\n    /* \"#utility.yul\":2461:2468   */\n  0x00\n    /* \"#utility.yul\":2490:2514   */\n  tag_60\n    /* \"#utility.yul\":2508:2513   */\n  dup3\n    /* \"#utility.yul\":2490:2514   */\n  tag_61\n  jump\t// in\ntag_60:\n    /* \"#utility.yul\":2479:2514   */\n  swap1\n  pop\n    /* \"#utility.yul\":2424:2520   */\n  swap2\n  swap1\n  pop\n  jump\t// out\n    /* \"#utility.yul\":2526:2652   */\ntag_61:\n    /* \"#utility.yul\":2563:2570   */\n  0x00\n    /* \"#utility.yul\":2603:2645   */\n  0xffffffffffffffffffffffffffffffffffffffff\n    /* \"#utility.yul\":2596:2601   */\n  dup3\n    /* \"#utility.yul\":2592:2646   */\n  and\n    /* \"#utility.yul\":2581:2646   */\n  swap1\n  pop\n    /* \"#utility.yul\":2526:2652   */\n  swap2\n  swap1\n  pop\n  jump\t// out\n    /* \"#utility.yul\":2658:2939   */\ntag_52:\n    /* \"#utility.yul\":2741:2768   */\n  tag_64\n    /* \"#utility.yul\":2763:2767   */\n  dup3\n    /* \"#utility.yul\":2741:2768   */\n  tag_65\n  jump\t// in\ntag_64:\n    /* \"#utility.yul\":2733:2739   */\n  dup2\n    /* \"#utility.yul\":2729:2769   */\n  add\n    /* \"#utility.yul\":2871:2877   */\n  dup2\n    /* \"#utility.yul\":2859:2869   */\n  dup2\n    /* \"#utility.yul\":2856:2878   */\n  lt\n    /* \"#utility.yul\":2835:2853   */\n  0xffffffffffffffff\n    /* \"#utility.yul\":2823:2833   */\n  dup3\n    /* \"#utility.yul\":2820:2854   */\n  gt\n    /* \"#utility.yul\":2817:2879   */\n  or\n    /* \"#utility.yul\":2814:2902   */\n  iszero\n  tag_66\n  jumpi\n    /* \"#utility.yul\":2882:2900   */\n  tag_67\n  tag_57\n  jump\t// in\ntag_67:\n    /* \"#utility.yul\":2814:2902   */\ntag_66:\n    /* \"#utility.yul\":2922:2932   */\n  dup1\n    /* \"#utility.yul\":2918:2920   */\n  0x40\n    /* \"#utility.yul\":2911:2933   */\n  mstore\n    /* \"#utility.yul\":2701:2939   */\n  pop\n    /* \"#utility.yul\":2658:2939   */\n  pop\n  pop\n  jump\t// out\n    /* \"#utility.yul\":2945:3125   */\ntag_57:\n    /* \"#utility.yul\":2993:3070   */\n  0x4e487b7100000000000000000000000000000000000000000000000000000000\n    /* \"#utility.yul\":2990:2991   */\n  0x00\n    /* \"#utility.yul\":2983:3071   */\n  mstore\n    /* \"#utility.yul\":3090:3094   */\n  0x41\n    /* \"#utility.yul\":3087:3088   */\n  0x04\n    /* \"#utility.yul\":3080:3095   */\n  mstore\n    /* \"#utility.yul\":3114:3118   */\n  0x24\n    /* \"#utility.yul\":3111:3112   */\n  0x00\n    /* \"#utility.yul\":3104:3119   */\n  revert\n    /* \"#utility.yul\":3131:3248   */\ntag_38:\n    /* \"#utility.yul\":3240:3241   */\n  0x00\n    /* \"#utility.yul\":3237:3238   */\n  dup1\n    /* \"#utility.yul\":3230:3242   */\n  revert\n    /* \"#utility.yul\":3254:3371   */\ntag_25:\n    /* \"#utility.yul\":3363:3364   */\n  0x00\n    /* \"#utility.yul\":3360:3361   */\n  dup1\n    /* \"#utility.yul\":3353:3365   */\n  revert\n    /* \"#utility.yul\":3377:3494   */\ntag_46:\n    /* \"#utility.yul\":3486:3487   */\n  0x00\n    /* \"#utility.yul\":3483:3484   */\n  dup1\n    /* \"#utility.yul\":3476:3488   */\n  revert\n    /* \"#utility.yul\":3500:3617   */\ntag_43:\n    /* \"#utility.yul\":3609:3610   */\n  0x00\n    /* \"#utility.yul\":3606:3607   */\n  dup1\n    /* \"#utility.yul\":3599:3611   */\n  revert\n    /* \"#utility.yul\":3623:3725   */\ntag_65:\n    /* \"#utility.yul\":3664:3670   */\n  0x00\n    /* \"#utility.yul\":3715:3717   */\n  0x1f\n    /* \"#utility.yul\":3711:3718   */\n  not\n    /* \"#utility.yul\":3706:3708   */\n  0x1f\n    /* \"#utility.yul\":3699:3704   */\n  dup4\n    /* \"#utility.yul\":3695:3709   */\n  add\n    /* \"#utility.yul\":3691:3719   */\n  and\n    /* \"#utility.yul\":3681:3719   */\n  swap1\n  pop\n    /* \"#utility.yul\":3623:3725   */\n  swap2\n  swap1\n  pop\n  jump\t// out\n    /* \"#utility.yul\":3731:3853   */\ntag_33:\n    /* \"#utility.yul\":3804:3828   */\n  tag_75\n    /* \"#utility.yul\":3822:3827   */\n  dup2\n    /* \"#utility.yul\":3804:3828   */\n  tag_58\n  jump\t// in\ntag_75:\n    /* \"#utility.yul\":3797:3802   */\n  dup2\n    /* \"#utility.yul\":3794:3829   */\n  eq\n    /* \"#utility.yul\":3784:3847   */\n  tag_76\n  jumpi\n    /* \"#utility.yul\":3843:3844   */\n  0x00\n    /* \"#utility.yul\":3840:3841   */\n  dup1\n    /* \"#utility.yul\":3833:3845   */\n  revert\n    /* \"#utility.yul\":3784:3847   */\ntag_76:\n    /* \"#utility.yul\":3731:3853   */\n  pop\n  jump\t// out\n    /* \"contracts/minsubus.sol\":148:1848  contract Database {... */\ntag_8:\n  dataSize(sub_0)\n  dup1\n  dataOffset(sub_0)\n  0x00\n  codecopy\n  0x00\n  return\nstop\n\nsub_0: assembly {\n        /* \"contracts/minsubus.sol\":148:1848  contract Database {... */\n      mstore(0x40, 0x80)\n      callvalue\n      dup1\n      iszero\n      tag_1\n      jumpi\n      0x00\n      dup1\n      revert\n    tag_1:\n      pop\n      jumpi(tag_2, lt(calldatasize, 0x04))\n      shr(0xe0, calldataload(0x00))\n      dup1\n      0x9a4d3c\n      eq\n      tag_3\n      jumpi\n      dup1\n      0x0e5eeef7\n      eq\n      tag_4\n      jumpi\n      dup1\n      0x75c2f8f0\n      eq\n      tag_5\n      jumpi\n      dup1\n      0xb645307d\n      eq\n      tag_6\n      jumpi\n    tag_2:\n      0x00\n      dup1\n      revert\n        /* \"contracts/minsubus.sol\":1132:1336  function addBus(address bus, string memory destination, uint start_time, string memory busNum) public {... */\n    tag_3:\n      tag_7\n      0x04\n      dup1\n      calldatasize\n      sub\n      dup2\n      add\n      swap1\n      tag_8\n      swap2\n      swap1\n      tag_9\n      jump\t// in\n    tag_8:\n      tag_10\n      jump\t// in\n    tag_7:\n      stop\n        /* \"contracts/minsubus.sol\":978:1126  function addStudent(string memory student_name, uint studentNum) public {... */\n    tag_4:\n      tag_11\n      0x04\n      dup1\n      calldatasize\n      sub\n      dup2\n      add\n      swap1\n      tag_12\n      swap2\n      swap1\n      tag_13\n      jump\t// in\n    tag_12:\n      tag_14\n      jump\t// in\n    tag_11:\n      stop\n        /* \"contracts/minsubus.sol\":1577:1845  function getStudents(uint _num) public view returns(string memory, address){... */\n    tag_5:\n      tag_15\n      0x04\n      dup1\n      calldatasize\n      sub\n      dup2\n      add\n      swap1\n      tag_16\n      swap2\n      swap1\n      tag_17\n      jump\t// in\n    tag_16:\n      tag_18\n      jump\t// in\n    tag_15:\n      mload(0x40)\n      tag_19\n      swap3\n      swap2\n      swap1\n      tag_20\n      jump\t// in\n    tag_19:\n      mload(0x40)\n      dup1\n      swap2\n      sub\n      swap1\n      return\n        /* \"contracts/minsubus.sol\":1342:1571  function deleteStudent(uint _num) public returns(string memory){... */\n    tag_6:\n      tag_21\n      0x04\n      dup1\n      calldatasize\n      sub\n      dup2\n      add\n      swap1\n      tag_22\n      swap2\n      swap1\n      tag_17\n      jump\t// in\n    tag_22:\n      tag_23\n      jump\t// in\n    tag_21:\n      mload(0x40)\n      tag_24\n      swap2\n      swap1\n      tag_25\n      jump\t// in\n    tag_24:\n      mload(0x40)\n      dup1\n      swap2\n      sub\n      swap1\n      return\n        /* \"contracts/minsubus.sol\":1132:1336  function addBus(address bus, string memory destination, uint start_time, string memory busNum) public {... */\n    tag_10:\n        /* \"contracts/minsubus.sol\":1242:1262  uint[45] memory seat */\n      tag_27\n      tag_28\n      jump\t// in\n    tag_27:\n        /* \"contracts/minsubus.sol\":1287:1329  Bus_DB(bus, destination, start_time, seat) */\n      mload(0x40)\n      dup1\n      0x80\n      add\n      0x40\n      mstore\n      dup1\n        /* \"contracts/minsubus.sol\":1294:1297  bus */\n      dup7\n        /* \"contracts/minsubus.sol\":1287:1329  Bus_DB(bus, destination, start_time, seat) */\n      0xffffffffffffffffffffffffffffffffffffffff\n      and\n      dup2\n      mstore\n      0x20\n      add\n        /* \"contracts/minsubus.sol\":1299:1310  destination */\n      dup6\n        /* \"contracts/minsubus.sol\":1287:1329  Bus_DB(bus, destination, start_time, seat) */\n      dup2\n      mstore\n      0x20\n      add\n        /* \"contracts/minsubus.sol\":1312:1322  start_time */\n      dup5\n        /* \"contracts/minsubus.sol\":1287:1329  Bus_DB(bus, destination, start_time, seat) */\n      dup2\n      mstore\n      0x20\n      add\n        /* \"contracts/minsubus.sol\":1324:1328  seat */\n      dup3\n        /* \"contracts/minsubus.sol\":1287:1329  Bus_DB(bus, destination, start_time, seat) */\n      dup2\n      mstore\n      pop\n        /* \"contracts/minsubus.sol\":1271:1276  BusDB */\n      0x06\n        /* \"contracts/minsubus.sol\":1277:1283  busNum */\n      dup4\n        /* \"contracts/minsubus.sol\":1271:1284  BusDB[busNum] */\n      mload(0x40)\n      tag_29\n      swap2\n      swap1\n      tag_30\n      jump\t// in\n    tag_29:\n      swap1\n      dup2\n      mstore\n      0x20\n      add\n      mload(0x40)\n      dup1\n      swap2\n      sub\n      swap1\n      keccak256\n        /* \"contracts/minsubus.sol\":1271:1329  BusDB[busNum] = Bus_DB(bus, destination, start_time, seat) */\n      0x00\n      dup3\n      add\n      mload\n      dup2\n      0x00\n      add\n      exp(0x0100, 0x00)\n      dup2\n      sload\n      dup2\n      0xffffffffffffffffffffffffffffffffffffffff\n      mul\n      not\n      and\n      swap1\n      dup4\n      0xffffffffffffffffffffffffffffffffffffffff\n      and\n      mul\n      or\n      swap1\n      sstore\n      pop\n      0x20\n      dup3\n      add\n      mload\n      dup2\n      0x01\n      add\n      swap1\n      dup1\n      mload\n      swap1\n      0x20\n      add\n      swap1\n      tag_31\n      swap3\n      swap2\n      swap1\n      tag_32\n      jump\t// in\n    tag_31:\n      pop\n      0x40\n      dup3\n      add\n      mload\n      dup2\n      0x02\n      add\n      sstore\n      0x60\n      dup3\n      add\n      mload\n      dup2\n      0x03\n      add\n      swap1\n      0x2d\n      tag_33\n      swap3\n      swap2\n      swap1\n      tag_34\n      jump\t// in\n    tag_33:\n      pop\n      swap1\n      pop\n      pop\n        /* \"contracts/minsubus.sol\":1234:1336  {... */\n      pop\n        /* \"contracts/minsubus.sol\":1132:1336  function addBus(address bus, string memory destination, uint start_time, string memory busNum) public {... */\n      pop\n      pop\n      pop\n      pop\n      jump\t// out\n        /* \"contracts/minsubus.sol\":978:1126  function addStudent(string memory student_name, uint studentNum) public {... */\n    tag_14:\n        /* \"contracts/minsubus.sol\":1083:1119  Student_DB(student_name, msg.sender) */\n      mload(0x40)\n      dup1\n      0x40\n      add\n      0x40\n      mstore\n      dup1\n        /* \"contracts/minsubus.sol\":1094:1106  student_name */\n      dup4\n        /* \"contracts/minsubus.sol\":1083:1119  Student_DB(student_name, msg.sender) */\n      dup2\n      mstore\n      0x20\n      add\n        /* \"contracts/minsubus.sol\":1108:1118  msg.sender */\n      caller\n        /* \"contracts/minsubus.sol\":1083:1119  Student_DB(student_name, msg.sender) */\n      0xffffffffffffffffffffffffffffffffffffffff\n      and\n      dup2\n      mstore\n      pop\n        /* \"contracts/minsubus.sol\":1059:1068  StudentDB */\n      0x07\n        /* \"contracts/minsubus.sol\":1059:1080  StudentDB[studentNum] */\n      0x00\n        /* \"contracts/minsubus.sol\":1069:1079  studentNum */\n      dup4\n        /* \"contracts/minsubus.sol\":1059:1080  StudentDB[studentNum] */\n      dup2\n      mstore\n      0x20\n      add\n      swap1\n      dup2\n      mstore\n      0x20\n      add\n      0x00\n      keccak256\n        /* \"contracts/minsubus.sol\":1059:1119  StudentDB[studentNum] = Student_DB(student_name, msg.sender) */\n      0x00\n      dup3\n      add\n      mload\n      dup2\n      0x00\n      add\n      swap1\n      dup1\n      mload\n      swap1\n      0x20\n      add\n      swap1\n      tag_36\n      swap3\n      swap2\n      swap1\n      tag_32\n      jump\t// in\n    tag_36:\n      pop\n      0x20\n      dup3\n      add\n      mload\n      dup2\n      0x01\n      add\n      exp(0x0100, 0x00)\n      dup2\n      sload\n      dup2\n      0xffffffffffffffffffffffffffffffffffffffff\n      mul\n      not\n      and\n      swap1\n      dup4\n      0xffffffffffffffffffffffffffffffffffffffff\n      and\n      mul\n      or\n      swap1\n      sstore\n      pop\n      swap1\n      pop\n      pop\n        /* \"contracts/minsubus.sol\":978:1126  function addStudent(string memory student_name, uint studentNum) public {... */\n      pop\n      pop\n      jump\t// out\n        /* \"contracts/minsubus.sol\":1577:1845  function getStudents(uint _num) public view returns(string memory, address){... */\n    tag_18:\n        /* \"contracts/minsubus.sol\":1629:1642  string memory */\n      0x60\n        /* \"contracts/minsubus.sol\":1644:1651  address */\n      0x00\n        /* \"contracts/minsubus.sol\":1662:1680  string memory name */\n      0x60\n        /* \"contracts/minsubus.sol\":1690:1709  address student_add */\n      0x00\n        /* \"contracts/minsubus.sol\":1727:1736  StudentDB */\n      0x07\n        /* \"contracts/minsubus.sol\":1727:1742  StudentDB[_num] */\n      0x00\n        /* \"contracts/minsubus.sol\":1737:1741  _num */\n      dup7\n        /* \"contracts/minsubus.sol\":1727:1742  StudentDB[_num] */\n      dup2\n      mstore\n      0x20\n      add\n      swap1\n      dup2\n      mstore\n      0x20\n      add\n      0x00\n      keccak256\n        /* \"contracts/minsubus.sol\":1727:1755  StudentDB[_num].student_name */\n      0x00\n      add\n        /* \"contracts/minsubus.sol\":1720:1755  name = StudentDB[_num].student_name */\n      dup1\n      sload\n      tag_38\n      swap1\n      tag_39\n      jump\t// in\n    tag_38:\n      dup1\n      0x1f\n      add\n      0x20\n      dup1\n      swap2\n      div\n      mul\n      0x20\n      add\n      mload(0x40)\n      swap1\n      dup2\n      add\n      0x40\n      mstore\n      dup1\n      swap3\n      swap2\n      swap1\n      dup2\n      dup2\n      mstore\n      0x20\n      add\n      dup3\n      dup1\n      sload\n      tag_40\n      swap1\n      tag_39\n      jump\t// in\n    tag_40:\n      dup1\n      iszero\n      tag_41\n      jumpi\n      dup1\n      0x1f\n      lt\n      tag_42\n      jumpi\n      0x0100\n      dup1\n      dup4\n      sload\n      div\n      mul\n      dup4\n      mstore\n      swap2\n      0x20\n      add\n      swap2\n      jump(tag_41)\n    tag_42:\n      dup3\n      add\n      swap2\n      swap1\n      0x00\n      mstore\n      keccak256(0x00, 0x20)\n      swap1\n    tag_43:\n      dup2\n      sload\n      dup2\n      mstore\n      swap1\n      0x01\n      add\n      swap1\n      0x20\n      add\n      dup1\n      dup4\n      gt\n      tag_43\n      jumpi\n      dup3\n      swap1\n      sub\n      0x1f\n      and\n      dup3\n      add\n      swap2\n    tag_41:\n      pop\n      pop\n      pop\n      pop\n      pop\n      swap2\n      pop\n        /* \"contracts/minsubus.sol\":1779:1788  StudentDB */\n      0x07\n        /* \"contracts/minsubus.sol\":1779:1794  StudentDB[_num] */\n      0x00\n        /* \"contracts/minsubus.sol\":1789:1793  _num */\n      dup7\n        /* \"contracts/minsubus.sol\":1779:1794  StudentDB[_num] */\n      dup2\n      mstore\n      0x20\n      add\n      swap1\n      dup2\n      mstore\n      0x20\n      add\n      0x00\n      keccak256\n        /* \"contracts/minsubus.sol\":1779:1802  StudentDB[_num].student */\n      0x01\n      add\n      0x00\n      swap1\n      sload\n      swap1\n      0x0100\n      exp\n      swap1\n      div\n      0xffffffffffffffffffffffffffffffffffffffff\n      and\n        /* \"contracts/minsubus.sol\":1765:1802  student_add = StudentDB[_num].student */\n      swap1\n      pop\n        /* \"contracts/minsubus.sol\":1821:1825  name */\n      dup2\n        /* \"contracts/minsubus.sol\":1826:1837  student_add */\n      dup2\n        /* \"contracts/minsubus.sol\":1813:1838  return (name,student_add) */\n      swap4\n      pop\n      swap4\n      pop\n      pop\n      pop\n        /* \"contracts/minsubus.sol\":1577:1845  function getStudents(uint _num) public view returns(string memory, address){... */\n      swap2\n      pop\n      swap2\n      jump\t// out\n        /* \"contracts/minsubus.sol\":1342:1571  function deleteStudent(uint _num) public returns(string memory){... */\n    tag_23:\n        /* \"contracts/minsubus.sol\":1391:1404  string memory */\n      0x60\n        /* \"contracts/minsubus.sol\":1469:1470  0 */\n      0x00\n        /* \"contracts/minsubus.sol\":1429:1438  StudentDB */\n      0x07\n        /* \"contracts/minsubus.sol\":1429:1444  StudentDB[_num] */\n      0x00\n        /* \"contracts/minsubus.sol\":1439:1443  _num */\n      dup5\n        /* \"contracts/minsubus.sol\":1429:1444  StudentDB[_num] */\n      dup2\n      mstore\n      0x20\n      add\n      swap1\n      dup2\n      mstore\n      0x20\n      add\n      0x00\n      keccak256\n        /* \"contracts/minsubus.sol\":1429:1457  StudentDB[_num].student_name */\n      0x00\n      add\n        /* \"contracts/minsubus.sol\":1423:1465  bytes(StudentDB[_num].student_name).length */\n      dup1\n      sload\n      tag_45\n      swap1\n      tag_39\n      jump\t// in\n    tag_45:\n      swap1\n      pop\n        /* \"contracts/minsubus.sol\":1423:1470  bytes(StudentDB[_num].student_name).length != 0 */\n      eq\n      iszero\n        /* \"contracts/minsubus.sol\":1415:1494  require(bytes(StudentDB[_num].student_name).length != 0, \"There is no student\") */\n      tag_46\n      jumpi\n      mload(0x40)\n      0x08c379a000000000000000000000000000000000000000000000000000000000\n      dup2\n      mstore\n      0x04\n      add\n      tag_47\n      swap1\n      tag_48\n      jump\t// in\n    tag_47:\n      mload(0x40)\n      dup1\n      swap2\n      sub\n      swap1\n      revert\n    tag_46:\n        /* \"contracts/minsubus.sol\":1512:1521  StudentDB */\n      0x07\n        /* \"contracts/minsubus.sol\":1512:1527  StudentDB[_num] */\n      0x00\n        /* \"contracts/minsubus.sol\":1522:1526  _num */\n      dup4\n        /* \"contracts/minsubus.sol\":1512:1527  StudentDB[_num] */\n      dup2\n      mstore\n      0x20\n      add\n      swap1\n      dup2\n      mstore\n      0x20\n      add\n      0x00\n      keccak256\n      0x00\n        /* \"contracts/minsubus.sol\":1505:1527  delete StudentDB[_num] */\n      dup1\n      dup3\n      add\n      0x00\n      tag_49\n      swap2\n      swap1\n      tag_50\n      jump\t// in\n    tag_49:\n      0x01\n      dup3\n      add\n      exp(0x0100, 0x00)\n      dup2\n      sload\n      swap1\n      0xffffffffffffffffffffffffffffffffffffffff\n      mul\n      not\n      and\n      swap1\n      sstore\n      pop\n      pop\n        /* \"contracts/minsubus.sol\":1342:1571  function deleteStudent(uint _num) public returns(string memory){... */\n      swap2\n      swap1\n      pop\n      jump\t// out\n    tag_28:\n      mload(0x40)\n      dup1\n      0x05a0\n      add\n      0x40\n      mstore\n      dup1\n      0x2d\n      swap1\n      0x20\n      dup3\n      mul\n      dup1\n      calldatasize\n      dup4\n      calldatacopy\n      dup1\n      dup3\n      add\n      swap2\n      pop\n      pop\n      swap1\n      pop\n      pop\n      swap1\n      jump\t// out\n    tag_32:\n      dup3\n      dup1\n      sload\n      tag_51\n      swap1\n      tag_39\n      jump\t// in\n    tag_51:\n      swap1\n      0x00\n      mstore\n      keccak256(0x00, 0x20)\n      swap1\n      0x1f\n      add\n      0x20\n      swap1\n      div\n      dup2\n      add\n      swap3\n      dup3\n      tag_53\n      jumpi\n      0x00\n      dup6\n      sstore\n      jump(tag_52)\n    tag_53:\n      dup3\n      0x1f\n      lt\n      tag_54\n      jumpi\n      dup1\n      mload\n      not(0xff)\n      and\n      dup4\n      dup1\n      add\n      or\n      dup6\n      sstore\n      jump(tag_52)\n    tag_54:\n      dup3\n      dup1\n      add\n      0x01\n      add\n      dup6\n      sstore\n      dup3\n      iszero\n      tag_52\n      jumpi\n      swap2\n      dup3\n      add\n    tag_55:\n      dup3\n      dup2\n      gt\n      iszero\n      tag_56\n      jumpi\n      dup3\n      mload\n      dup3\n      sstore\n      swap2\n      0x20\n      add\n      swap2\n      swap1\n      0x01\n      add\n      swap1\n      jump(tag_55)\n    tag_56:\n    tag_52:\n      pop\n      swap1\n      pop\n      tag_57\n      swap2\n      swap1\n      tag_58\n      jump\t// in\n    tag_57:\n      pop\n      swap1\n      jump\t// out\n    tag_34:\n      dup3\n      0x2d\n      dup2\n      add\n      swap3\n      dup3\n      iszero\n      tag_59\n      jumpi\n      swap2\n      0x20\n      mul\n      dup3\n      add\n    tag_60:\n      dup3\n      dup2\n      gt\n      iszero\n      tag_61\n      jumpi\n      dup3\n      mload\n      dup3\n      sstore\n      swap2\n      0x20\n      add\n      swap2\n      swap1\n      0x01\n      add\n      swap1\n      jump(tag_60)\n    tag_61:\n    tag_59:\n      pop\n      swap1\n      pop\n      tag_62\n      swap2\n      swap1\n      tag_58\n      jump\t// in\n    tag_62:\n      pop\n      swap1\n      jump\t// out\n    tag_50:\n      pop\n      dup1\n      sload\n      tag_63\n      swap1\n      tag_39\n      jump\t// in\n    tag_63:\n      0x00\n      dup3\n      sstore\n      dup1\n      0x1f\n      lt\n      tag_65\n      jumpi\n      pop\n      jump(tag_64)\n    tag_65:\n      0x1f\n      add\n      0x20\n      swap1\n      div\n      swap1\n      0x00\n      mstore\n      keccak256(0x00, 0x20)\n      swap1\n      dup2\n      add\n      swap1\n      tag_66\n      swap2\n      swap1\n      tag_58\n      jump\t// in\n    tag_66:\n    tag_64:\n      pop\n      jump\t// out\n    tag_58:\n    tag_67:\n      dup1\n      dup3\n      gt\n      iszero\n      tag_68\n      jumpi\n      0x00\n      dup2\n      0x00\n      swap1\n      sstore\n      pop\n      0x01\n      add\n      jump(tag_67)\n    tag_68:\n      pop\n      swap1\n      jump\t// out\n        /* \"#utility.yul\":7:419   */\n    tag_70:\n        /* \"#utility.yul\":85:90   */\n      0x00\n        /* \"#utility.yul\":110:176   */\n      tag_72\n        /* \"#utility.yul\":126:175   */\n      tag_73\n        /* \"#utility.yul\":168:174   */\n      dup5\n        /* \"#utility.yul\":126:175   */\n      tag_74\n      jump\t// in\n    tag_73:\n        /* \"#utility.yul\":110:176   */\n      tag_75\n      jump\t// in\n    tag_72:\n        /* \"#utility.yul\":101:176   */\n      swap1\n      pop\n        /* \"#utility.yul\":199:205   */\n      dup3\n        /* \"#utility.yul\":192:197   */\n      dup2\n        /* \"#utility.yul\":185:206   */\n      mstore\n        /* \"#utility.yul\":237:241   */\n      0x20\n        /* \"#utility.yul\":230:235   */\n      dup2\n        /* \"#utility.yul\":226:242   */\n      add\n        /* \"#utility.yul\":275:278   */\n      dup5\n        /* \"#utility.yul\":266:272   */\n      dup5\n        /* \"#utility.yul\":261:264   */\n      dup5\n        /* \"#utility.yul\":257:273   */\n      add\n        /* \"#utility.yul\":254:279   */\n      gt\n        /* \"#utility.yul\":251:363   */\n      iszero\n      tag_76\n      jumpi\n        /* \"#utility.yul\":282:361   */\n      tag_77\n      tag_78\n      jump\t// in\n    tag_77:\n        /* \"#utility.yul\":251:363   */\n    tag_76:\n        /* \"#utility.yul\":372:413   */\n      tag_79\n        /* \"#utility.yul\":406:412   */\n      dup5\n        /* \"#utility.yul\":401:404   */\n      dup3\n        /* \"#utility.yul\":396:399   */\n      dup6\n        /* \"#utility.yul\":372:413   */\n      tag_80\n      jump\t// in\n    tag_79:\n        /* \"#utility.yul\":91:419   */\n      pop\n        /* \"#utility.yul\":7:419   */\n      swap4\n      swap3\n      pop\n      pop\n      pop\n      jump\t// out\n        /* \"#utility.yul\":425:564   */\n    tag_81:\n        /* \"#utility.yul\":471:476   */\n      0x00\n        /* \"#utility.yul\":509:515   */\n      dup2\n        /* \"#utility.yul\":496:516   */\n      calldataload\n        /* \"#utility.yul\":487:516   */\n      swap1\n      pop\n        /* \"#utility.yul\":525:558   */\n      tag_83\n        /* \"#utility.yul\":552:557   */\n      dup2\n        /* \"#utility.yul\":525:558   */\n      tag_84\n      jump\t// in\n    tag_83:\n        /* \"#utility.yul\":425:564   */\n      swap3\n      swap2\n      pop\n      pop\n      jump\t// out\n        /* \"#utility.yul\":584:924   */\n    tag_85:\n        /* \"#utility.yul\":640:645   */\n      0x00\n        /* \"#utility.yul\":689:692   */\n      dup3\n        /* \"#utility.yul\":682:686   */\n      0x1f\n        /* \"#utility.yul\":674:680   */\n      dup4\n        /* \"#utility.yul\":670:687   */\n      add\n        /* \"#utility.yul\":666:693   */\n      slt\n        /* \"#utility.yul\":656:778   */\n      tag_87\n      jumpi\n        /* \"#utility.yul\":697:776   */\n      tag_88\n      tag_89\n      jump\t// in\n    tag_88:\n        /* \"#utility.yul\":656:778   */\n    tag_87:\n        /* \"#utility.yul\":814:820   */\n      dup2\n        /* \"#utility.yul\":801:821   */\n      calldataload\n        /* \"#utility.yul\":839:918   */\n      tag_90\n        /* \"#utility.yul\":914:917   */\n      dup5\n        /* \"#utility.yul\":906:912   */\n      dup3\n        /* \"#utility.yul\":899:903   */\n      0x20\n        /* \"#utility.yul\":891:897   */\n      dup7\n        /* \"#utility.yul\":887:904   */\n      add\n        /* \"#utility.yul\":839:918   */\n      tag_70\n      jump\t// in\n    tag_90:\n        /* \"#utility.yul\":830:918   */\n      swap2\n      pop\n        /* \"#utility.yul\":646:924   */\n      pop\n        /* \"#utility.yul\":584:924   */\n      swap3\n      swap2\n      pop\n      pop\n      jump\t// out\n        /* \"#utility.yul\":930:1069   */\n    tag_91:\n        /* \"#utility.yul\":976:981   */\n      0x00\n        /* \"#utility.yul\":1014:1020   */\n      dup2\n        /* \"#utility.yul\":1001:1021   */\n      calldataload\n        /* \"#utility.yul\":992:1021   */\n      swap1\n      pop\n        /* \"#utility.yul\":1030:1063   */\n      tag_93\n        /* \"#utility.yul\":1057:1062   */\n      dup2\n        /* \"#utility.yul\":1030:1063   */\n      tag_94\n      jump\t// in\n    tag_93:\n        /* \"#utility.yul\":930:1069   */\n      swap3\n      swap2\n      pop\n      pop\n      jump\t// out\n        /* \"#utility.yul\":1075:2200   */\n    tag_9:\n        /* \"#utility.yul\":1181:1187   */\n      0x00\n        /* \"#utility.yul\":1189:1195   */\n      dup1\n        /* \"#utility.yul\":1197:1203   */\n      0x00\n        /* \"#utility.yul\":1205:1211   */\n      dup1\n        /* \"#utility.yul\":1254:1257   */\n      0x80\n        /* \"#utility.yul\":1242:1251   */\n      dup6\n        /* \"#utility.yul\":1233:1240   */\n      dup8\n        /* \"#utility.yul\":1229:1252   */\n      sub\n        /* \"#utility.yul\":1225:1258   */\n      slt\n        /* \"#utility.yul\":1222:1342   */\n      iszero\n      tag_96\n      jumpi\n        /* \"#utility.yul\":1261:1340   */\n      tag_97\n      tag_98\n      jump\t// in\n    tag_97:\n        /* \"#utility.yul\":1222:1342   */\n    tag_96:\n        /* \"#utility.yul\":1381:1382   */\n      0x00\n        /* \"#utility.yul\":1406:1459   */\n      tag_99\n        /* \"#utility.yul\":1451:1458   */\n      dup8\n        /* \"#utility.yul\":1442:1448   */\n      dup3\n        /* \"#utility.yul\":1431:1440   */\n      dup9\n        /* \"#utility.yul\":1427:1449   */\n      add\n        /* \"#utility.yul\":1406:1459   */\n      tag_81\n      jump\t// in\n    tag_99:\n        /* \"#utility.yul\":1396:1459   */\n      swap5\n      pop\n        /* \"#utility.yul\":1352:1469   */\n      pop\n        /* \"#utility.yul\":1536:1538   */\n      0x20\n        /* \"#utility.yul\":1525:1534   */\n      dup6\n        /* \"#utility.yul\":1521:1539   */\n      add\n        /* \"#utility.yul\":1508:1540   */\n      calldataload\n        /* \"#utility.yul\":1567:1585   */\n      0xffffffffffffffff\n        /* \"#utility.yul\":1559:1565   */\n      dup2\n        /* \"#utility.yul\":1556:1586   */\n      gt\n        /* \"#utility.yul\":1553:1670   */\n      iszero\n      tag_100\n      jumpi\n        /* \"#utility.yul\":1589:1668   */\n      tag_101\n      tag_102\n      jump\t// in\n    tag_101:\n        /* \"#utility.yul\":1553:1670   */\n    tag_100:\n        /* \"#utility.yul\":1694:1757   */\n      tag_103\n        /* \"#utility.yul\":1749:1756   */\n      dup8\n        /* \"#utility.yul\":1740:1746   */\n      dup3\n        /* \"#utility.yul\":1729:1738   */\n      dup9\n        /* \"#utility.yul\":1725:1747   */\n      add\n        /* \"#utility.yul\":1694:1757   */\n      tag_85\n      jump\t// in\n    tag_103:\n        /* \"#utility.yul\":1684:1757   */\n      swap4\n      pop\n        /* \"#utility.yul\":1479:1767   */\n      pop\n        /* \"#utility.yul\":1806:1808   */\n      0x40\n        /* \"#utility.yul\":1832:1885   */\n      tag_104\n        /* \"#utility.yul\":1877:1884   */\n      dup8\n        /* \"#utility.yul\":1868:1874   */\n      dup3\n        /* \"#utility.yul\":1857:1866   */\n      dup9\n        /* \"#utility.yul\":1853:1875   */\n      add\n        /* \"#utility.yul\":1832:1885   */\n      tag_91\n      jump\t// in\n    tag_104:\n        /* \"#utility.yul\":1822:1885   */\n      swap3\n      pop\n        /* \"#utility.yul\":1777:1895   */\n      pop\n        /* \"#utility.yul\":1962:1964   */\n      0x60\n        /* \"#utility.yul\":1951:1960   */\n      dup6\n        /* \"#utility.yul\":1947:1965   */\n      add\n        /* \"#utility.yul\":1934:1966   */\n      calldataload\n        /* \"#utility.yul\":1993:2011   */\n      0xffffffffffffffff\n        /* \"#utility.yul\":1985:1991   */\n      dup2\n        /* \"#utility.yul\":1982:2012   */\n      gt\n        /* \"#utility.yul\":1979:2096   */\n      iszero\n      tag_105\n      jumpi\n        /* \"#utility.yul\":2015:2094   */\n      tag_106\n      tag_102\n      jump\t// in\n    tag_106:\n        /* \"#utility.yul\":1979:2096   */\n    tag_105:\n        /* \"#utility.yul\":2120:2183   */\n      tag_107\n        /* \"#utility.yul\":2175:2182   */\n      dup8\n        /* \"#utility.yul\":2166:2172   */\n      dup3\n        /* \"#utility.yul\":2155:2164   */\n      dup9\n        /* \"#utility.yul\":2151:2173   */\n      add\n        /* \"#utility.yul\":2120:2183   */\n      tag_85\n      jump\t// in\n    tag_107:\n        /* \"#utility.yul\":2110:2183   */\n      swap2\n      pop\n        /* \"#utility.yul\":1905:2193   */\n      pop\n        /* \"#utility.yul\":1075:2200   */\n      swap3\n      swap6\n      swap2\n      swap5\n      pop\n      swap3\n      pop\n      jump\t// out\n        /* \"#utility.yul\":2206:2860   */\n    tag_13:\n        /* \"#utility.yul\":2284:2290   */\n      0x00\n        /* \"#utility.yul\":2292:2298   */\n      dup1\n        /* \"#utility.yul\":2341:2343   */\n      0x40\n        /* \"#utility.yul\":2329:2338   */\n      dup4\n        /* \"#utility.yul\":2320:2327   */\n      dup6\n        /* \"#utility.yul\":2316:2339   */\n      sub\n        /* \"#utility.yul\":2312:2344   */\n      slt\n        /* \"#utility.yul\":2309:2428   */\n      iszero\n      tag_109\n      jumpi\n        /* \"#utility.yul\":2347:2426   */\n      tag_110\n      tag_98\n      jump\t// in\n    tag_110:\n        /* \"#utility.yul\":2309:2428   */\n    tag_109:\n        /* \"#utility.yul\":2495:2496   */\n      0x00\n        /* \"#utility.yul\":2484:2493   */\n      dup4\n        /* \"#utility.yul\":2480:2497   */\n      add\n        /* \"#utility.yul\":2467:2498   */\n      calldataload\n        /* \"#utility.yul\":2525:2543   */\n      0xffffffffffffffff\n        /* \"#utility.yul\":2517:2523   */\n      dup2\n        /* \"#utility.yul\":2514:2544   */\n      gt\n        /* \"#utility.yul\":2511:2628   */\n      iszero\n      tag_111\n      jumpi\n        /* \"#utility.yul\":2547:2626   */\n      tag_112\n      tag_102\n      jump\t// in\n    tag_112:\n        /* \"#utility.yul\":2511:2628   */\n    tag_111:\n        /* \"#utility.yul\":2652:2715   */\n      tag_113\n        /* \"#utility.yul\":2707:2714   */\n      dup6\n        /* \"#utility.yul\":2698:2704   */\n      dup3\n        /* \"#utility.yul\":2687:2696   */\n      dup7\n        /* \"#utility.yul\":2683:2705   */\n      add\n        /* \"#utility.yul\":2652:2715   */\n      tag_85\n      jump\t// in\n    tag_113:\n        /* \"#utility.yul\":2642:2715   */\n      swap3\n      pop\n        /* \"#utility.yul\":2438:2725   */\n      pop\n        /* \"#utility.yul\":2764:2766   */\n      0x20\n        /* \"#utility.yul\":2790:2843   */\n      tag_114\n        /* \"#utility.yul\":2835:2842   */\n      dup6\n        /* \"#utility.yul\":2826:2832   */\n      dup3\n        /* \"#utility.yul\":2815:2824   */\n      dup7\n        /* \"#utility.yul\":2811:2833   */\n      add\n        /* \"#utility.yul\":2790:2843   */\n      tag_91\n      jump\t// in\n    tag_114:\n        /* \"#utility.yul\":2780:2843   */\n      swap2\n      pop\n        /* \"#utility.yul\":2735:2853   */\n      pop\n        /* \"#utility.yul\":2206:2860   */\n      swap3\n      pop\n      swap3\n      swap1\n      pop\n      jump\t// out\n        /* \"#utility.yul\":2866:3195   */\n    tag_17:\n        /* \"#utility.yul\":2925:2931   */\n      0x00\n        /* \"#utility.yul\":2974:2976   */\n      0x20\n        /* \"#utility.yul\":2962:2971   */\n      dup3\n        /* \"#utility.yul\":2953:2960   */\n      dup5\n        /* \"#utility.yul\":2949:2972   */\n      sub\n        /* \"#utility.yul\":2945:2977   */\n      slt\n        /* \"#utility.yul\":2942:3061   */\n      iszero\n      tag_116\n      jumpi\n        /* \"#utility.yul\":2980:3059   */\n      tag_117\n      tag_98\n      jump\t// in\n    tag_117:\n        /* \"#utility.yul\":2942:3061   */\n    tag_116:\n        /* \"#utility.yul\":3100:3101   */\n      0x00\n        /* \"#utility.yul\":3125:3178   */\n      tag_118\n        /* \"#utility.yul\":3170:3177   */\n      dup5\n        /* \"#utility.yul\":3161:3167   */\n      dup3\n        /* \"#utility.yul\":3150:3159   */\n      dup6\n        /* \"#utility.yul\":3146:3168   */\n      add\n        /* \"#utility.yul\":3125:3178   */\n      tag_91\n      jump\t// in\n    tag_118:\n        /* \"#utility.yul\":3115:3178   */\n      swap2\n      pop\n        /* \"#utility.yul\":3071:3188   */\n      pop\n        /* \"#utility.yul\":2866:3195   */\n      swap3\n      swap2\n      pop\n      pop\n      jump\t// out\n        /* \"#utility.yul\":3201:3319   */\n    tag_119:\n        /* \"#utility.yul\":3288:3312   */\n      tag_121\n        /* \"#utility.yul\":3306:3311   */\n      dup2\n        /* \"#utility.yul\":3288:3312   */\n      tag_122\n      jump\t// in\n    tag_121:\n        /* \"#utility.yul\":3283:3286   */\n      dup3\n        /* \"#utility.yul\":3276:3313   */\n      mstore\n        /* \"#utility.yul\":3201:3319   */\n      pop\n      pop\n      jump\t// out\n        /* \"#utility.yul\":3325:3689   */\n    tag_123:\n        /* \"#utility.yul\":3413:3416   */\n      0x00\n        /* \"#utility.yul\":3441:3480   */\n      tag_125\n        /* \"#utility.yul\":3474:3479   */\n      dup3\n        /* \"#utility.yul\":3441:3480   */\n      tag_126\n      jump\t// in\n    tag_125:\n        /* \"#utility.yul\":3496:3567   */\n      tag_127\n        /* \"#utility.yul\":3560:3566   */\n      dup2\n        /* \"#utility.yul\":3555:3558   */\n      dup6\n        /* \"#utility.yul\":3496:3567   */\n      tag_128\n      jump\t// in\n    tag_127:\n        /* \"#utility.yul\":3489:3567   */\n      swap4\n      pop\n        /* \"#utility.yul\":3576:3628   */\n      tag_129\n        /* \"#utility.yul\":3621:3627   */\n      dup2\n        /* \"#utility.yul\":3616:3619   */\n      dup6\n        /* \"#utility.yul\":3609:3613   */\n      0x20\n        /* \"#utility.yul\":3602:3607   */\n      dup7\n        /* \"#utility.yul\":3598:3614   */\n      add\n        /* \"#utility.yul\":3576:3628   */\n      tag_130\n      jump\t// in\n    tag_129:\n        /* \"#utility.yul\":3653:3682   */\n      tag_131\n        /* \"#utility.yul\":3675:3681   */\n      dup2\n        /* \"#utility.yul\":3653:3682   */\n      tag_132\n      jump\t// in\n    tag_131:\n        /* \"#utility.yul\":3648:3651   */\n      dup5\n        /* \"#utility.yul\":3644:3683   */\n      add\n        /* \"#utility.yul\":3637:3683   */\n      swap2\n      pop\n        /* \"#utility.yul\":3417:3689   */\n      pop\n        /* \"#utility.yul\":3325:3689   */\n      swap3\n      swap2\n      pop\n      pop\n      jump\t// out\n        /* \"#utility.yul\":3695:4072   */\n    tag_133:\n        /* \"#utility.yul\":3801:3804   */\n      0x00\n        /* \"#utility.yul\":3829:3868   */\n      tag_135\n        /* \"#utility.yul\":3862:3867   */\n      dup3\n        /* \"#utility.yul\":3829:3868   */\n      tag_126\n      jump\t// in\n    tag_135:\n        /* \"#utility.yul\":3884:3973   */\n      tag_136\n        /* \"#utility.yul\":3966:3972   */\n      dup2\n        /* \"#utility.yul\":3961:3964   */\n      dup6\n        /* \"#utility.yul\":3884:3973   */\n      tag_137\n      jump\t// in\n    tag_136:\n        /* \"#utility.yul\":3877:3973   */\n      swap4\n      pop\n        /* \"#utility.yul\":3982:4034   */\n      tag_138\n        /* \"#utility.yul\":4027:4033   */\n      dup2\n        /* \"#utility.yul\":4022:4025   */\n      dup6\n        /* \"#utility.yul\":4015:4019   */\n      0x20\n        /* \"#utility.yul\":4008:4013   */\n      dup7\n        /* \"#utility.yul\":4004:4020   */\n      add\n        /* \"#utility.yul\":3982:4034   */\n      tag_130\n      jump\t// in\n    tag_138:\n        /* \"#utility.yul\":4059:4065   */\n      dup1\n        /* \"#utility.yul\":4054:4057   */\n      dup5\n        /* \"#utility.yul\":4050:4066   */\n      add\n        /* \"#utility.yul\":4043:4066   */\n      swap2\n      pop\n        /* \"#utility.yul\":3805:4072   */\n      pop\n        /* \"#utility.yul\":3695:4072   */\n      swap3\n      swap2\n      pop\n      pop\n      jump\t// out\n        /* \"#utility.yul\":4078:4444   */\n    tag_139:\n        /* \"#utility.yul\":4220:4223   */\n      0x00\n        /* \"#utility.yul\":4241:4308   */\n      tag_141\n        /* \"#utility.yul\":4305:4307   */\n      0x13\n        /* \"#utility.yul\":4300:4303   */\n      dup4\n        /* \"#utility.yul\":4241:4308   */\n      tag_128\n      jump\t// in\n    tag_141:\n        /* \"#utility.yul\":4234:4308   */\n      swap2\n      pop\n        /* \"#utility.yul\":4317:4410   */\n      tag_142\n        /* \"#utility.yul\":4406:4409   */\n      dup3\n        /* \"#utility.yul\":4317:4410   */\n      tag_143\n      jump\t// in\n    tag_142:\n        /* \"#utility.yul\":4435:4437   */\n      0x20\n        /* \"#utility.yul\":4430:4433   */\n      dup3\n        /* \"#utility.yul\":4426:4438   */\n      add\n        /* \"#utility.yul\":4419:4438   */\n      swap1\n      pop\n        /* \"#utility.yul\":4078:4444   */\n      swap2\n      swap1\n      pop\n      jump\t// out\n        /* \"#utility.yul\":4450:4725   */\n    tag_30:\n        /* \"#utility.yul\":4582:4585   */\n      0x00\n        /* \"#utility.yul\":4604:4699   */\n      tag_145\n        /* \"#utility.yul\":4695:4698   */\n      dup3\n        /* \"#utility.yul\":4686:4692   */\n      dup5\n        /* \"#utility.yul\":4604:4699   */\n      tag_133\n      jump\t// in\n    tag_145:\n        /* \"#utility.yul\":4597:4699   */\n      swap2\n      pop\n        /* \"#utility.yul\":4716:4719   */\n      dup2\n        /* \"#utility.yul\":4709:4719   */\n      swap1\n      pop\n        /* \"#utility.yul\":4450:4725   */\n      swap3\n      swap2\n      pop\n      pop\n      jump\t// out\n        /* \"#utility.yul\":4731:5044   */\n    tag_25:\n        /* \"#utility.yul\":4844:4848   */\n      0x00\n        /* \"#utility.yul\":4882:4884   */\n      0x20\n        /* \"#utility.yul\":4871:4880   */\n      dup3\n        /* \"#utility.yul\":4867:4885   */\n      add\n        /* \"#utility.yul\":4859:4885   */\n      swap1\n      pop\n        /* \"#utility.yul\":4931:4940   */\n      dup2\n        /* \"#utility.yul\":4925:4929   */\n      dup2\n        /* \"#utility.yul\":4921:4941   */\n      sub\n        /* \"#utility.yul\":4917:4918   */\n      0x00\n        /* \"#utility.yul\":4906:4915   */\n      dup4\n        /* \"#utility.yul\":4902:4919   */\n      add\n        /* \"#utility.yul\":4895:4942   */\n      mstore\n        /* \"#utility.yul\":4959:5037   */\n      tag_147\n        /* \"#utility.yul\":5032:5036   */\n      dup2\n        /* \"#utility.yul\":5023:5029   */\n      dup5\n        /* \"#utility.yul\":4959:5037   */\n      tag_123\n      jump\t// in\n    tag_147:\n        /* \"#utility.yul\":4951:5037   */\n      swap1\n      pop\n        /* \"#utility.yul\":4731:5044   */\n      swap3\n      swap2\n      pop\n      pop\n      jump\t// out\n        /* \"#utility.yul\":5050:5473   */\n    tag_20:\n        /* \"#utility.yul\":5191:5195   */\n      0x00\n        /* \"#utility.yul\":5229:5231   */\n      0x40\n        /* \"#utility.yul\":5218:5227   */\n      dup3\n        /* \"#utility.yul\":5214:5232   */\n      add\n        /* \"#utility.yul\":5206:5232   */\n      swap1\n      pop\n        /* \"#utility.yul\":5278:5287   */\n      dup2\n        /* \"#utility.yul\":5272:5276   */\n      dup2\n        /* \"#utility.yul\":5268:5288   */\n      sub\n        /* \"#utility.yul\":5264:5265   */\n      0x00\n        /* \"#utility.yul\":5253:5262   */\n      dup4\n        /* \"#utility.yul\":5249:5266   */\n      add\n        /* \"#utility.yul\":5242:5289   */\n      mstore\n        /* \"#utility.yul\":5306:5384   */\n      tag_149\n        /* \"#utility.yul\":5379:5383   */\n      dup2\n        /* \"#utility.yul\":5370:5376   */\n      dup6\n        /* \"#utility.yul\":5306:5384   */\n      tag_123\n      jump\t// in\n    tag_149:\n        /* \"#utility.yul\":5298:5384   */\n      swap1\n      pop\n        /* \"#utility.yul\":5394:5466   */\n      tag_150\n        /* \"#utility.yul\":5462:5464   */\n      0x20\n        /* \"#utility.yul\":5451:5460   */\n      dup4\n        /* \"#utility.yul\":5447:5465   */\n      add\n        /* \"#utility.yul\":5438:5444   */\n      dup5\n        /* \"#utility.yul\":5394:5466   */\n      tag_119\n      jump\t// in\n    tag_150:\n        /* \"#utility.yul\":5050:5473   */\n      swap4\n      swap3\n      pop\n      pop\n      pop\n      jump\t// out\n        /* \"#utility.yul\":5479:5898   */\n    tag_48:\n        /* \"#utility.yul\":5645:5649   */\n      0x00\n        /* \"#utility.yul\":5683:5685   */\n      0x20\n        /* \"#utility.yul\":5672:5681   */\n      dup3\n        /* \"#utility.yul\":5668:5686   */\n      add\n        /* \"#utility.yul\":5660:5686   */\n      swap1\n      pop\n        /* \"#utility.yul\":5732:5741   */\n      dup2\n        /* \"#utility.yul\":5726:5730   */\n      dup2\n        /* \"#utility.yul\":5722:5742   */\n      sub\n        /* \"#utility.yul\":5718:5719   */\n      0x00\n        /* \"#utility.yul\":5707:5716   */\n      dup4\n        /* \"#utility.yul\":5703:5720   */\n      add\n        /* \"#utility.yul\":5696:5743   */\n      mstore\n        /* \"#utility.yul\":5760:5891   */\n      tag_152\n        /* \"#utility.yul\":5886:5890   */\n      dup2\n        /* \"#utility.yul\":5760:5891   */\n      tag_139\n      jump\t// in\n    tag_152:\n        /* \"#utility.yul\":5752:5891   */\n      swap1\n      pop\n        /* \"#utility.yul\":5479:5898   */\n      swap2\n      swap1\n      pop\n      jump\t// out\n        /* \"#utility.yul\":5904:6033   */\n    tag_75:\n        /* \"#utility.yul\":5938:5944   */\n      0x00\n        /* \"#utility.yul\":5965:5985   */\n      tag_154\n      tag_155\n      jump\t// in\n    tag_154:\n        /* \"#utility.yul\":5955:5985   */\n      swap1\n      pop\n        /* \"#utility.yul\":5994:6027   */\n      tag_156\n        /* \"#utility.yul\":6022:6026   */\n      dup3\n        /* \"#utility.yul\":6014:6020   */\n      dup3\n        /* \"#utility.yul\":5994:6027   */\n      tag_157\n      jump\t// in\n    tag_156:\n        /* \"#utility.yul\":5904:6033   */\n      swap2\n      swap1\n      pop\n      jump\t// out\n        /* \"#utility.yul\":6039:6114   */\n    tag_155:\n        /* \"#utility.yul\":6072:6078   */\n      0x00\n        /* \"#utility.yul\":6105:6107   */\n      0x40\n        /* \"#utility.yul\":6099:6108   */\n      mload\n        /* \"#utility.yul\":6089:6108   */\n      swap1\n      pop\n        /* \"#utility.yul\":6039:6114   */\n      swap1\n      jump\t// out\n        /* \"#utility.yul\":6120:6428   */\n    tag_74:\n        /* \"#utility.yul\":6182:6186   */\n      0x00\n        /* \"#utility.yul\":6272:6290   */\n      0xffffffffffffffff\n        /* \"#utility.yul\":6264:6270   */\n      dup3\n        /* \"#utility.yul\":6261:6291   */\n      gt\n        /* \"#utility.yul\":6258:6314   */\n      iszero\n      tag_160\n      jumpi\n        /* \"#utility.yul\":6294:6312   */\n      tag_161\n      tag_162\n      jump\t// in\n    tag_161:\n        /* \"#utility.yul\":6258:6314   */\n    tag_160:\n        /* \"#utility.yul\":6332:6361   */\n      tag_163\n        /* \"#utility.yul\":6354:6360   */\n      dup3\n        /* \"#utility.yul\":6332:6361   */\n      tag_132\n      jump\t// in\n    tag_163:\n        /* \"#utility.yul\":6324:6361   */\n      swap1\n      pop\n        /* \"#utility.yul\":6416:6420   */\n      0x20\n        /* \"#utility.yul\":6410:6414   */\n      dup2\n        /* \"#utility.yul\":6406:6421   */\n      add\n        /* \"#utility.yul\":6398:6421   */\n      swap1\n      pop\n        /* \"#utility.yul\":6120:6428   */\n      swap2\n      swap1\n      pop\n      jump\t// out\n        /* \"#utility.yul\":6434:6533   */\n    tag_126:\n        /* \"#utility.yul\":6486:6492   */\n      0x00\n        /* \"#utility.yul\":6520:6525   */\n      dup2\n        /* \"#utility.yul\":6514:6526   */\n      mload\n        /* \"#utility.yul\":6504:6526   */\n      swap1\n      pop\n        /* \"#utility.yul\":6434:6533   */\n      swap2\n      swap1\n      pop\n      jump\t// out\n        /* \"#utility.yul\":6539:6708   */\n    tag_128:\n        /* \"#utility.yul\":6623:6634   */\n      0x00\n        /* \"#utility.yul\":6657:6663   */\n      dup3\n        /* \"#utility.yul\":6652:6655   */\n      dup3\n        /* \"#utility.yul\":6645:6664   */\n      mstore\n        /* \"#utility.yul\":6697:6701   */\n      0x20\n        /* \"#utility.yul\":6692:6695   */\n      dup3\n        /* \"#utility.yul\":6688:6702   */\n      add\n        /* \"#utility.yul\":6673:6702   */\n      swap1\n      pop\n        /* \"#utility.yul\":6539:6708   */\n      swap3\n      swap2\n      pop\n      pop\n      jump\t// out\n        /* \"#utility.yul\":6714:6862   */\n    tag_137:\n        /* \"#utility.yul\":6816:6827   */\n      0x00\n        /* \"#utility.yul\":6853:6856   */\n      dup2\n        /* \"#utility.yul\":6838:6856   */\n      swap1\n      pop\n        /* \"#utility.yul\":6714:6862   */\n      swap3\n      swap2\n      pop\n      pop\n      jump\t// out\n        /* \"#utility.yul\":6868:6964   */\n    tag_122:\n        /* \"#utility.yul\":6905:6912   */\n      0x00\n        /* \"#utility.yul\":6934:6958   */\n      tag_168\n        /* \"#utility.yul\":6952:6957   */\n      dup3\n        /* \"#utility.yul\":6934:6958   */\n      tag_169\n      jump\t// in\n    tag_168:\n        /* \"#utility.yul\":6923:6958   */\n      swap1\n      pop\n        /* \"#utility.yul\":6868:6964   */\n      swap2\n      swap1\n      pop\n      jump\t// out\n        /* \"#utility.yul\":6970:7096   */\n    tag_169:\n        /* \"#utility.yul\":7007:7014   */\n      0x00\n        /* \"#utility.yul\":7047:7089   */\n      0xffffffffffffffffffffffffffffffffffffffff\n        /* \"#utility.yul\":7040:7045   */\n      dup3\n        /* \"#utility.yul\":7036:7090   */\n      and\n        /* \"#utility.yul\":7025:7090   */\n      swap1\n      pop\n        /* \"#utility.yul\":6970:7096   */\n      swap2\n      swap1\n      pop\n      jump\t// out\n        /* \"#utility.yul\":7102:7179   */\n    tag_171:\n        /* \"#utility.yul\":7139:7146   */\n      0x00\n        /* \"#utility.yul\":7168:7173   */\n      dup2\n        /* \"#utility.yul\":7157:7173   */\n      swap1\n      pop\n        /* \"#utility.yul\":7102:7179   */\n      swap2\n      swap1\n      pop\n      jump\t// out\n        /* \"#utility.yul\":7185:7339   */\n    tag_80:\n        /* \"#utility.yul\":7269:7275   */\n      dup3\n        /* \"#utility.yul\":7264:7267   */\n      dup2\n        /* \"#utility.yul\":7259:7262   */\n      dup4\n        /* \"#utility.yul\":7246:7276   */\n      calldatacopy\n        /* \"#utility.yul\":7331:7332   */\n      0x00\n        /* \"#utility.yul\":7322:7328   */\n      dup4\n        /* \"#utility.yul\":7317:7320   */\n      dup4\n        /* \"#utility.yul\":7313:7329   */\n      add\n        /* \"#utility.yul\":7306:7333   */\n      mstore\n        /* \"#utility.yul\":7185:7339   */\n      pop\n      pop\n      pop\n      jump\t// out\n        /* \"#utility.yul\":7345:7652   */\n    tag_130:\n        /* \"#utility.yul\":7413:7414   */\n      0x00\n        /* \"#utility.yul\":7423:7536   */\n    tag_175:\n        /* \"#utility.yul\":7437:7443   */\n      dup4\n        /* \"#utility.yul\":7434:7435   */\n      dup2\n        /* \"#utility.yul\":7431:7444   */\n      lt\n        /* \"#utility.yul\":7423:7536   */\n      iszero\n      tag_177\n      jumpi\n        /* \"#utility.yul\":7522:7523   */\n      dup1\n        /* \"#utility.yul\":7517:7520   */\n      dup3\n        /* \"#utility.yul\":7513:7524   */\n      add\n        /* \"#utility.yul\":7507:7525   */\n      mload\n        /* \"#utility.yul\":7503:7504   */\n      dup2\n        /* \"#utility.yul\":7498:7501   */\n      dup5\n        /* \"#utility.yul\":7494:7505   */\n      add\n        /* \"#utility.yul\":7487:7526   */\n      mstore\n        /* \"#utility.yul\":7459:7461   */\n      0x20\n        /* \"#utility.yul\":7456:7457   */\n      dup2\n        /* \"#utility.yul\":7452:7462   */\n      add\n        /* \"#utility.yul\":7447:7462   */\n      swap1\n      pop\n        /* \"#utility.yul\":7423:7536   */\n      jump(tag_175)\n    tag_177:\n        /* \"#utility.yul\":7554:7560   */\n      dup4\n        /* \"#utility.yul\":7551:7552   */\n      dup2\n        /* \"#utility.yul\":7548:7561   */\n      gt\n        /* \"#utility.yul\":7545:7646   */\n      iszero\n      tag_178\n      jumpi\n        /* \"#utility.yul\":7634:7635   */\n      0x00\n        /* \"#utility.yul\":7625:7631   */\n      dup5\n        /* \"#utility.yul\":7620:7623   */\n      dup5\n        /* \"#utility.yul\":7616:7632   */\n      add\n        /* \"#utility.yul\":7609:7636   */\n      mstore\n        /* \"#utility.yul\":7545:7646   */\n    tag_178:\n        /* \"#utility.yul\":7394:7652   */\n      pop\n        /* \"#utility.yul\":7345:7652   */\n      pop\n      pop\n      pop\n      jump\t// out\n        /* \"#utility.yul\":7658:7978   */\n    tag_39:\n        /* \"#utility.yul\":7702:7708   */\n      0x00\n        /* \"#utility.yul\":7739:7740   */\n      0x02\n        /* \"#utility.yul\":7733:7737   */\n      dup3\n        /* \"#utility.yul\":7729:7741   */\n      div\n        /* \"#utility.yul\":7719:7741   */\n      swap1\n      pop\n        /* \"#utility.yul\":7786:7787   */\n      0x01\n        /* \"#utility.yul\":7780:7784   */\n      dup3\n        /* \"#utility.yul\":7776:7788   */\n      and\n        /* \"#utility.yul\":7807:7825   */\n      dup1\n        /* \"#utility.yul\":7797:7878   */\n      tag_180\n      jumpi\n        /* \"#utility.yul\":7863:7867   */\n      0x7f\n        /* \"#utility.yul\":7855:7861   */\n      dup3\n        /* \"#utility.yul\":7851:7868   */\n      and\n        /* \"#utility.yul\":7841:7868   */\n      swap2\n      pop\n        /* \"#utility.yul\":7797:7878   */\n    tag_180:\n        /* \"#utility.yul\":7925:7927   */\n      0x20\n        /* \"#utility.yul\":7917:7923   */\n      dup3\n        /* \"#utility.yul\":7914:7928   */\n      lt\n        /* \"#utility.yul\":7894:7912   */\n      dup2\n        /* \"#utility.yul\":7891:7929   */\n      eq\n        /* \"#utility.yul\":7888:7972   */\n      iszero\n      tag_181\n      jumpi\n        /* \"#utility.yul\":7944:7962   */\n      tag_182\n      tag_183\n      jump\t// in\n    tag_182:\n        /* \"#utility.yul\":7888:7972   */\n    tag_181:\n        /* \"#utility.yul\":7709:7978   */\n      pop\n        /* \"#utility.yul\":7658:7978   */\n      swap2\n      swap1\n      pop\n      jump\t// out\n        /* \"#utility.yul\":7984:8265   */\n    tag_157:\n        /* \"#utility.yul\":8067:8094   */\n      tag_185\n        /* \"#utility.yul\":8089:8093   */\n      dup3\n        /* \"#utility.yul\":8067:8094   */\n      tag_132\n      jump\t// in\n    tag_185:\n        /* \"#utility.yul\":8059:8065   */\n      dup2\n        /* \"#utility.yul\":8055:8095   */\n      add\n        /* \"#utility.yul\":8197:8203   */\n      dup2\n        /* \"#utility.yul\":8185:8195   */\n      dup2\n        /* \"#utility.yul\":8182:8204   */\n      lt\n        /* \"#utility.yul\":8161:8179   */\n      0xffffffffffffffff\n        /* \"#utility.yul\":8149:8159   */\n      dup3\n        /* \"#utility.yul\":8146:8180   */\n      gt\n        /* \"#utility.yul\":8143:8205   */\n      or\n        /* \"#utility.yul\":8140:8228   */\n      iszero\n      tag_186\n      jumpi\n        /* \"#utility.yul\":8208:8226   */\n      tag_187\n      tag_162\n      jump\t// in\n    tag_187:\n        /* \"#utility.yul\":8140:8228   */\n    tag_186:\n        /* \"#utility.yul\":8248:8258   */\n      dup1\n        /* \"#utility.yul\":8244:8246   */\n      0x40\n        /* \"#utility.yul\":8237:8259   */\n      mstore\n        /* \"#utility.yul\":8027:8265   */\n      pop\n        /* \"#utility.yul\":7984:8265   */\n      pop\n      pop\n      jump\t// out\n        /* \"#utility.yul\":8271:8451   */\n    tag_183:\n        /* \"#utility.yul\":8319:8396   */\n      0x4e487b7100000000000000000000000000000000000000000000000000000000\n        /* \"#utility.yul\":8316:8317   */\n      0x00\n        /* \"#utility.yul\":8309:8397   */\n      mstore\n        /* \"#utility.yul\":8416:8420   */\n      0x22\n        /* \"#utility.yul\":8413:8414   */\n      0x04\n        /* \"#utility.yul\":8406:8421   */\n      mstore\n        /* \"#utility.yul\":8440:8444   */\n      0x24\n        /* \"#utility.yul\":8437:8438   */\n      0x00\n        /* \"#utility.yul\":8430:8445   */\n      revert\n        /* \"#utility.yul\":8457:8637   */\n    tag_162:\n        /* \"#utility.yul\":8505:8582   */\n      0x4e487b7100000000000000000000000000000000000000000000000000000000\n        /* \"#utility.yul\":8502:8503   */\n      0x00\n        /* \"#utility.yul\":8495:8583   */\n      mstore\n        /* \"#utility.yul\":8602:8606   */\n      0x41\n        /* \"#utility.yul\":8599:8600   */\n      0x04\n        /* \"#utility.yul\":8592:8607   */\n      mstore\n        /* \"#utility.yul\":8626:8630   */\n      0x24\n        /* \"#utility.yul\":8623:8624   */\n      0x00\n        /* \"#utility.yul\":8616:8631   */\n      revert\n        /* \"#utility.yul\":8643:8760   */\n    tag_89:\n        /* \"#utility.yul\":8752:8753   */\n      0x00\n        /* \"#utility.yul\":8749:8750   */\n      dup1\n        /* \"#utility.yul\":8742:8754   */\n      revert\n        /* \"#utility.yul\":8766:8883   */\n    tag_78:\n        /* \"#utility.yul\":8875:8876   */\n      0x00\n        /* \"#utility.yul\":8872:8873   */\n      dup1\n        /* \"#utility.yul\":8865:8877   */\n      revert\n        /* \"#utility.yul\":8889:9006   */\n    tag_102:\n        /* \"#utility.yul\":8998:8999   */\n      0x00\n        /* \"#utility.yul\":8995:8996   */\n      dup1\n        /* \"#utility.yul\":8988:9000   */\n      revert\n        /* \"#utility.yul\":9012:9129   */\n    tag_98:\n        /* \"#utility.yul\":9121:9122   */\n      0x00\n        /* \"#utility.yul\":9118:9119   */\n      dup1\n        /* \"#utility.yul\":9111:9123   */\n      revert\n        /* \"#utility.yul\":9135:9237   */\n    tag_132:\n        /* \"#utility.yul\":9176:9182   */\n      0x00\n        /* \"#utility.yul\":9227:9229   */\n      0x1f\n        /* \"#utility.yul\":9223:9230   */\n      not\n        /* \"#utility.yul\":9218:9220   */\n      0x1f\n        /* \"#utility.yul\":9211:9216   */\n      dup4\n        /* \"#utility.yul\":9207:9221   */\n      add\n        /* \"#utility.yul\":9203:9231   */\n      and\n        /* \"#utility.yul\":9193:9231   */\n      swap1\n      pop\n        /* \"#utility.yul\":9135:9237   */\n      swap2\n      swap1\n      pop\n      jump\t// out\n        /* \"#utility.yul\":9243:9412   */\n    tag_143:\n        /* \"#utility.yul\":9383:9404   */\n      0x5468657265206973206e6f2073747564656e7400000000000000000000000000\n        /* \"#utility.yul\":9379:9380   */\n      0x00\n        /* \"#utility.yul\":9371:9377   */\n      dup3\n        /* \"#utility.yul\":9367:9381   */\n      add\n        /* \"#utility.yul\":9360:9405   */\n      mstore\n        /* \"#utility.yul\":9243:9412   */\n      pop\n      jump\t// out\n        /* \"#utility.yul\":9418:9540   */\n    tag_84:\n        /* \"#utility.yul\":9491:9515   */\n      tag_197\n        /* \"#utility.yul\":9509:9514   */\n      dup2\n        /* \"#utility.yul\":9491:9515   */\n      tag_122\n      jump\t// in\n    tag_197:\n        /* \"#utility.yul\":9484:9489   */\n      dup2\n        /* \"#utility.yul\":9481:9516   */\n      eq\n        /* \"#utility.yul\":9471:9534   */\n      tag_198\n      jumpi\n        /* \"#utility.yul\":9530:9531   */\n      0x00\n        /* \"#utility.yul\":9527:9528   */\n      dup1\n        /* \"#utility.yul\":9520:9532   */\n      revert\n        /* \"#utility.yul\":9471:9534   */\n    tag_198:\n        /* \"#utility.yul\":9418:9540   */\n      pop\n      jump\t// out\n        /* \"#utility.yul\":9546:9668   */\n    tag_94:\n        /* \"#utility.yul\":9619:9643   */\n      tag_200\n        /* \"#utility.yul\":9637:9642   */\n      dup2\n        /* \"#utility.yul\":9619:9643   */\n      tag_171\n      jump\t// in\n    tag_200:\n        /* \"#utility.yul\":9612:9617   */\n      dup2\n        /* \"#utility.yul\":9609:9644   */\n      eq\n        /* \"#utility.yul\":9599:9662   */\n      tag_201\n      jumpi\n        /* \"#utility.yul\":9658:9659   */\n      0x00\n        /* \"#utility.yul\":9655:9656   */\n      dup1\n        /* \"#utility.yul\":9648:9660   */\n      revert\n        /* \"#utility.yul\":9599:9662   */\n    tag_201:\n        /* \"#utility.yul\":9546:9668   */\n      pop\n      jump\t// out\n\n    auxdata: 0xa264697066735822122053fd60c551629c2bce9d97e0559ad089a84fd3e217a2d35dc2e8a8f70263db9d64736f6c63430008070033\n}\n",
				"bytecode": {
					"linkReferences": {},
					"object": "60806040523480156200001157600080fd5b5060405162000e1e38038062000e1e8339818101604052810190620000379190620001ca565b80600390805190602001906200004f92919062000057565b50506200034b565b828054828255906000526020600020908101928215620000d3579160200282015b82811115620000d25782518260006101000a81548173ffffffffffffffffffffffffffffffffffffffff021916908373ffffffffffffffffffffffffffffffffffffffff1602179055509160200191906001019062000078565b5b509050620000e29190620000e6565b5090565b5b8082111562000101576000816000905550600101620000e7565b5090565b60006200011c620001168462000244565b6200021b565b9050808382526020820190508285602086028201111562000142576200014162000311565b5b60005b858110156200017657816200015b888262000180565b84526020840193506020830192505060018101905062000145565b5050509392505050565b600081519050620001918162000331565b92915050565b600082601f830112620001af57620001ae6200030c565b5b8151620001c184826020860162000105565b91505092915050565b600060208284031215620001e357620001e26200031b565b5b600082015167ffffffffffffffff81111562000204576200020362000316565b5b620002128482850162000197565b91505092915050565b6000620002276200023a565b9050620002358282620002a7565b919050565b6000604051905090565b600067ffffffffffffffff821115620002625762000261620002dd565b5b602082029050602081019050919050565b6000620002808262000287565b9050919050565b600073ffffffffffffffffffffffffffffffffffffffff82169050919050565b620002b28262000320565b810181811067ffffffffffffffff82111715620002d457620002d3620002dd565b5b80604052505050565b7f4e487b7100000000000000000000000000000000000000000000000000000000600052604160045260246000fd5b600080fd5b600080fd5b600080fd5b600080fd5b6000601f19601f8301169050919050565b6200033c8162000273565b81146200034857600080fd5b50565b610ac3806200035b6000396000f3fe608060405234801561001057600080fd5b506004361061004b5760003560e01c80629a4d3c146100505780630e5eeef71461006c57806375c2f8f014610088578063b645307d146100b9575b600080fd5b61006a60048036038101906100659190610608565b6100e9565b005b610086600480360381019061008191906106a7565b6101d6565b005b6100a2600480360381019061009d9190610703565b61027f565b6040516100b0929190610805565b60405180910390f35b6100d360048036038101906100ce9190610703565b61036e565b6040516100e091906107e3565b60405180910390f35b6100f1610428565b60405180608001604052808673ffffffffffffffffffffffffffffffffffffffff1681526020018581526020018481526020018281525060068360405161013891906107cc565b908152602001604051809103902060008201518160000160006101000a81548173ffffffffffffffffffffffffffffffffffffffff021916908373ffffffffffffffffffffffffffffffffffffffff16021790555060208201518160010190805190602001906101a992919061044b565b506040820151816002015560608201518160030190602d6101cb9291906104d1565b509050505050505050565b60405180604001604052808381526020013373ffffffffffffffffffffffffffffffffffffffff1681525060076000838152602001908152602001600020600082015181600001908051906020019061023092919061044b565b5060208201518160010160006101000a81548173ffffffffffffffffffffffffffffffffffffffff021916908373ffffffffffffffffffffffffffffffffffffffff1602179055509050505050565b60606000606060006007600086815260200190815260200160002060000180546102a890610950565b80601f01602080910402602001604051908101604052809291908181526020018280546102d490610950565b80156103215780601f106102f657610100808354040283529160200191610321565b820191906000526020600020905b81548152906001019060200180831161030457829003601f168201915b505050505091506007600086815260200190815260200160002060010160009054906101000a900473ffffffffffffffffffffffffffffffffffffffff1690508181935093505050915091565b6060600060076000848152602001908152602001600020600001805461039390610950565b905014156103d6576040517f08c379a00000000000000000000000000000000000000000000000000000000081526004016103cd90610835565b60405180910390fd5b60076000838152602001908152602001600020600080820160006103fa9190610511565b6001820160006101000a81549073ffffffffffffffffffffffffffffffffffffffff02191690555050919050565b604051806105a00160405280602d90602082028036833780820191505090505090565b82805461045790610950565b90600052602060002090601f01602090048101928261047957600085556104c0565b82601f1061049257805160ff19168380011785556104c0565b828001600101855582156104c0579182015b828111156104bf5782518255916020019190600101906104a4565b5b5090506104cd9190610551565b5090565b82602d8101928215610500579160200282015b828111156104ff5782518255916020019190600101906104e4565b5b50905061050d9190610551565b5090565b50805461051d90610950565b6000825580601f1061052f575061054e565b601f01602090049060005260206000209081019061054d9190610551565b5b50565b5b8082111561056a576000816000905550600101610552565b5090565b600061058161057c8461087a565b610855565b90508281526020810184848401111561059d5761059c610a16565b5b6105a884828561090e565b509392505050565b6000813590506105bf81610a5f565b92915050565b600082601f8301126105da576105d9610a11565b5b81356105ea84826020860161056e565b91505092915050565b60008135905061060281610a76565b92915050565b6000806000806080858703121561062257610621610a20565b5b6000610630878288016105b0565b945050602085013567ffffffffffffffff81111561065157610650610a1b565b5b61065d878288016105c5565b935050604061066e878288016105f3565b925050606085013567ffffffffffffffff81111561068f5761068e610a1b565b5b61069b878288016105c5565b91505092959194509250565b600080604083850312156106be576106bd610a20565b5b600083013567ffffffffffffffff8111156106dc576106db610a1b565b5b6106e8858286016105c5565b92505060206106f9858286016105f3565b9150509250929050565b60006020828403121561071957610718610a20565b5b6000610727848285016105f3565b91505092915050565b610739816108d2565b82525050565b600061074a826108ab565b61075481856108b6565b935061076481856020860161091d565b61076d81610a25565b840191505092915050565b6000610783826108ab565b61078d81856108c7565b935061079d81856020860161091d565b80840191505092915050565b60006107b66013836108b6565b91506107c182610a36565b602082019050919050565b60006107d88284610778565b915081905092915050565b600060208201905081810360008301526107fd818461073f565b905092915050565b6000604082019050818103600083015261081f818561073f565b905061082e6020830184610730565b9392505050565b6000602082019050818103600083015261084e816107a9565b9050919050565b600061085f610870565b905061086b8282610982565b919050565b6000604051905090565b600067ffffffffffffffff821115610895576108946109e2565b5b61089e82610a25565b9050602081019050919050565b600081519050919050565b600082825260208201905092915050565b600081905092915050565b60006108dd826108e4565b9050919050565b600073ffffffffffffffffffffffffffffffffffffffff82169050919050565b6000819050919050565b82818337600083830152505050565b60005b8381101561093b578082015181840152602081019050610920565b8381111561094a576000848401525b50505050565b6000600282049050600182168061096857607f821691505b6020821081141561097c5761097b6109b3565b5b50919050565b61098b82610a25565b810181811067ffffffffffffffff821117156109aa576109a96109e2565b5b80604052505050565b7f4e487b7100000000000000000000000000000000000000000000000000000000600052602260045260246000fd5b7f4e487b7100000000000000000000000000000000000000000000000000000000600052604160045260246000fd5b600080fd5b600080fd5b600080fd5b600080fd5b6000601f19601f8301169050919050565b7f5468657265206973206e6f2073747564656e7400000000000000000000000000600082015250565b610a68816108d2565b8114610a7357600080fd5b50565b610a7f81610904565b8114610a8a57600080fd5b5056fea264697066735822122053fd60c551629c2bce9d97e0559ad089a84fd3e217a2d35dc2e8a8f70263db9d64736f6c63430008070033",
					"opcodes": "PUSH1 0x80 PUSH1 0x40 MSTORE CALLVALUE DUP1 ISZERO PUSH3 0x11 JUMPI PUSH1 0x0 DUP1 REVERT JUMPDEST POP PUSH1 0x40 MLOAD PUSH3 0xE1E CODESIZE SUB DUP1 PUSH3 0xE1E DUP4 CODECOPY DUP2 DUP2 ADD PUSH1 0x40 MSTORE DUP2 ADD SWAP1 PUSH3 0x37 SWAP2 SWAP1 PUSH3 0x1CA JUMP JUMPDEST DUP1 PUSH1 0x3 SWAP1 DUP1 MLOAD SWAP1 PUSH1 0x20 ADD SWAP1 PUSH3 0x4F SWAP3 SWAP2 SWAP1 PUSH3 0x57 JUMP JUMPDEST POP POP PUSH3 0x34B JUMP JUMPDEST DUP3 DUP1 SLOAD DUP3 DUP3 SSTORE SWAP1 PUSH1 0x0 MSTORE PUSH1 0x20 PUSH1 0x0 KECCAK256 SWAP1 DUP2 ADD SWAP3 DUP3 ISZERO PUSH3 0xD3 JUMPI SWAP2 PUSH1 0x20 MUL DUP3 ADD JUMPDEST DUP3 DUP2 GT ISZERO PUSH3 0xD2 JUMPI DUP3 MLOAD DUP3 PUSH1 0x0 PUSH2 0x100 EXP DUP2 SLOAD DUP2 PUSH20 0xFFFFFFFFFFFFFFFFFFFFFFFFFFFFFFFFFFFFFFFF MUL NOT AND SWAP1 DUP4 PUSH20 0xFFFFFFFFFFFFFFFFFFFFFFFFFFFFFFFFFFFFFFFF AND MUL OR SWAP1 SSTORE POP SWAP2 PUSH1 0x20 ADD SWAP2 SWAP1 PUSH1 0x1 ADD SWAP1 PUSH3 0x78 JUMP JUMPDEST JUMPDEST POP SWAP1 POP PUSH3 0xE2 SWAP2 SWAP1 PUSH3 0xE6 JUMP JUMPDEST POP SWAP1 JUMP JUMPDEST JUMPDEST DUP1 DUP3 GT ISZERO PUSH3 0x101 JUMPI PUSH1 0x0 DUP2 PUSH1 0x0 SWAP1 SSTORE POP PUSH1 0x1 ADD PUSH3 0xE7 JUMP JUMPDEST POP SWAP1 JUMP JUMPDEST PUSH1 0x0 PUSH3 0x11C PUSH3 0x116 DUP5 PUSH3 0x244 JUMP JUMPDEST PUSH3 0x21B JUMP JUMPDEST SWAP1 POP DUP1 DUP4 DUP3 MSTORE PUSH1 0x20 DUP3 ADD SWAP1 POP DUP3 DUP6 PUSH1 0x20 DUP7 MUL DUP3 ADD GT ISZERO PUSH3 0x142 JUMPI PUSH3 0x141 PUSH3 0x311 JUMP JUMPDEST JUMPDEST PUSH1 0x0 JUMPDEST DUP6 DUP2 LT ISZERO PUSH3 0x176 JUMPI DUP2 PUSH3 0x15B DUP9 DUP3 PUSH3 0x180 JUMP JUMPDEST DUP5 MSTORE PUSH1 0x20 DUP5 ADD SWAP4 POP PUSH1 0x20 DUP4 ADD SWAP3 POP POP PUSH1 0x1 DUP2 ADD SWAP1 POP PUSH3 0x145 JUMP JUMPDEST POP POP POP SWAP4 SWAP3 POP POP POP JUMP JUMPDEST PUSH1 0x0 DUP2 MLOAD SWAP1 POP PUSH3 0x191 DUP2 PUSH3 0x331 JUMP JUMPDEST SWAP3 SWAP2 POP POP JUMP JUMPDEST PUSH1 0x0 DUP3 PUSH1 0x1F DUP4 ADD SLT PUSH3 0x1AF JUMPI PUSH3 0x1AE PUSH3 0x30C JUMP JUMPDEST JUMPDEST DUP2 MLOAD PUSH3 0x1C1 DUP5 DUP3 PUSH1 0x20 DUP7 ADD PUSH3 0x105 JUMP JUMPDEST SWAP2 POP POP SWAP3 SWAP2 POP POP JUMP JUMPDEST PUSH1 0x0 PUSH1 0x20 DUP3 DUP5 SUB SLT ISZERO PUSH3 0x1E3 JUMPI PUSH3 0x1E2 PUSH3 0x31B JUMP JUMPDEST JUMPDEST PUSH1 0x0 DUP3 ADD MLOAD PUSH8 0xFFFFFFFFFFFFFFFF DUP2 GT ISZERO PUSH3 0x204 JUMPI PUSH3 0x203 PUSH3 0x316 JUMP JUMPDEST JUMPDEST PUSH3 0x212 DUP5 DUP3 DUP6 ADD PUSH3 0x197 JUMP JUMPDEST SWAP2 POP POP SWAP3 SWAP2 POP POP JUMP JUMPDEST PUSH1 0x0 PUSH3 0x227 PUSH3 0x23A JUMP JUMPDEST SWAP1 POP PUSH3 0x235 DUP3 DUP3 PUSH3 0x2A7 JUMP JUMPDEST SWAP2 SWAP1 POP JUMP JUMPDEST PUSH1 0x0 PUSH1 0x40 MLOAD SWAP1 POP SWAP1 JUMP JUMPDEST PUSH1 0x0 PUSH8 0xFFFFFFFFFFFFFFFF DUP3 GT ISZERO PUSH3 0x262 JUMPI PUSH3 0x261 PUSH3 0x2DD JUMP JUMPDEST JUMPDEST PUSH1 0x20 DUP3 MUL SWAP1 POP PUSH1 0x20 DUP2 ADD SWAP1 POP SWAP2 SWAP1 POP JUMP JUMPDEST PUSH1 0x0 PUSH3 0x280 DUP3 PUSH3 0x287 JUMP JUMPDEST SWAP1 POP SWAP2 SWAP1 POP JUMP JUMPDEST PUSH1 0x0 PUSH20 0xFFFFFFFFFFFFFFFFFFFFFFFFFFFFFFFFFFFFFFFF DUP3 AND SWAP1 POP SWAP2 SWAP1 POP JUMP JUMPDEST PUSH3 0x2B2 DUP3 PUSH3 0x320 JUMP JUMPDEST DUP2 ADD DUP2 DUP2 LT PUSH8 0xFFFFFFFFFFFFFFFF DUP3 GT OR ISZERO PUSH3 0x2D4 JUMPI PUSH3 0x2D3 PUSH3 0x2DD JUMP JUMPDEST JUMPDEST DUP1 PUSH1 0x40 MSTORE POP POP POP JUMP JUMPDEST PUSH32 0x4E487B7100000000000000000000000000000000000000000000000000000000 PUSH1 0x0 MSTORE PUSH1 0x41 PUSH1 0x4 MSTORE PUSH1 0x24 PUSH1 0x0 REVERT JUMPDEST PUSH1 0x0 DUP1 REVERT JUMPDEST PUSH1 0x0 DUP1 REVERT JUMPDEST PUSH1 0x0 DUP1 REVERT JUMPDEST PUSH1 0x0 DUP1 REVERT JUMPDEST PUSH1 0x0 PUSH1 0x1F NOT PUSH1 0x1F DUP4 ADD AND SWAP1 POP SWAP2 SWAP1 POP JUMP JUMPDEST PUSH3 0x33C DUP2 PUSH3 0x273 JUMP JUMPDEST DUP2 EQ PUSH3 0x348 JUMPI PUSH1 0x0 DUP1 REVERT JUMPDEST POP JUMP JUMPDEST PUSH2 0xAC3 DUP1 PUSH3 0x35B PUSH1 0x0 CODECOPY PUSH1 0x0 RETURN INVALID PUSH1 0x80 PUSH1 0x40 MSTORE CALLVALUE DUP1 ISZERO PUSH2 0x10 JUMPI PUSH1 0x0 DUP1 REVERT JUMPDEST POP PUSH1 0x4 CALLDATASIZE LT PUSH2 0x4B JUMPI PUSH1 0x0 CALLDATALOAD PUSH1 0xE0 SHR DUP1 PUSH3 0x9A4D3C EQ PUSH2 0x50 JUMPI DUP1 PUSH4 0xE5EEEF7 EQ PUSH2 0x6C JUMPI DUP1 PUSH4 0x75C2F8F0 EQ PUSH2 0x88 JUMPI DUP1 PUSH4 0xB645307D EQ PUSH2 0xB9 JUMPI JUMPDEST PUSH1 0x0 DUP1 REVERT JUMPDEST PUSH2 0x6A PUSH1 0x4 DUP1 CALLDATASIZE SUB DUP2 ADD SWAP1 PUSH2 0x65 SWAP2 SWAP1 PUSH2 0x608 JUMP JUMPDEST PUSH2 0xE9 JUMP JUMPDEST STOP JUMPDEST PUSH2 0x86 PUSH1 0x4 DUP1 CALLDATASIZE SUB DUP2 ADD SWAP1 PUSH2 0x81 SWAP2 SWAP1 PUSH2 0x6A7 JUMP JUMPDEST PUSH2 0x1D6 JUMP JUMPDEST STOP JUMPDEST PUSH2 0xA2 PUSH1 0x4 DUP1 CALLDATASIZE SUB DUP2 ADD SWAP1 PUSH2 0x9D SWAP2 SWAP1 PUSH2 0x703 JUMP JUMPDEST PUSH2 0x27F JUMP JUMPDEST PUSH1 0x40 MLOAD PUSH2 0xB0 SWAP3 SWAP2 SWAP1 PUSH2 0x805 JUMP JUMPDEST PUSH1 0x40 MLOAD DUP1 SWAP2 SUB SWAP1 RETURN JUMPDEST PUSH2 0xD3 PUSH1 0x4 DUP1 CALLDATASIZE SUB DUP2 ADD SWAP1 PUSH2 0xCE SWAP2 SWAP1 PUSH2 0x703 JUMP JUMPDEST PUSH2 0x36E JUMP JUMPDEST PUSH1 0x40 MLOAD PUSH2 0xE0 SWAP2 SWAP1 PUSH2 0x7E3 JUMP JUMPDEST PUSH1 0x40 MLOAD DUP1 SWAP2 SUB SWAP1 RETURN JUMPDEST PUSH2 0xF1 PUSH2 0x428 JUMP JUMPDEST PUSH1 0x40 MLOAD DUP1 PUSH1 0x80 ADD PUSH1 0x40 MSTORE DUP1 DUP7 PUSH20 0xFFFFFFFFFFFFFFFFFFFFFFFFFFFFFFFFFFFFFFFF AND DUP2 MSTORE PUSH1 0x20 ADD DUP6 DUP2 MSTORE PUSH1 0x20 ADD DUP5 DUP2 MSTORE PUSH1 0x20 ADD DUP3 DUP2 MSTORE POP PUSH1 0x6 DUP4 PUSH1 0x40 MLOAD PUSH2 0x138 SWAP2 SWAP1 PUSH2 0x7CC JUMP JUMPDEST SWAP1 DUP2 MSTORE PUSH1 0x20 ADD PUSH1 0x40 MLOAD DUP1 SWAP2 SUB SWAP1 KECCAK256 PUSH1 0x0 DUP3 ADD MLOAD DUP2 PUSH1 0x0 ADD PUSH1 0x0 PUSH2 0x100 EXP DUP2 SLOAD DUP2 PUSH20 0xFFFFFFFFFFFFFFFFFFFFFFFFFFFFFFFFFFFFFFFF MUL NOT AND SWAP1 DUP4 PUSH20 0xFFFFFFFFFFFFFFFFFFFFFFFFFFFFFFFFFFFFFFFF AND MUL OR SWAP1 SSTORE POP PUSH1 0x20 DUP3 ADD MLOAD DUP2 PUSH1 0x1 ADD SWAP1 DUP1 MLOAD SWAP1 PUSH1 0x20 ADD SWAP1 PUSH2 0x1A9 SWAP3 SWAP2 SWAP1 PUSH2 0x44B JUMP JUMPDEST POP PUSH1 0x40 DUP3 ADD MLOAD DUP2 PUSH1 0x2 ADD SSTORE PUSH1 0x60 DUP3 ADD MLOAD DUP2 PUSH1 0x3 ADD SWAP1 PUSH1 0x2D PUSH2 0x1CB SWAP3 SWAP2 SWAP1 PUSH2 0x4D1 JUMP JUMPDEST POP SWAP1 POP POP POP POP POP POP POP JUMP JUMPDEST PUSH1 0x40 MLOAD DUP1 PUSH1 0x40 ADD PUSH1 0x40 MSTORE DUP1 DUP4 DUP2 MSTORE PUSH1 0x20 ADD CALLER PUSH20 0xFFFFFFFFFFFFFFFFFFFFFFFFFFFFFFFFFFFFFFFF AND DUP2 MSTORE POP PUSH1 0x7 PUSH1 0x0 DUP4 DUP2 MSTORE PUSH1 0x20 ADD SWAP1 DUP2 MSTORE PUSH1 0x20 ADD PUSH1 0x0 KECCAK256 PUSH1 0x0 DUP3 ADD MLOAD DUP2 PUSH1 0x0 ADD SWAP1 DUP1 MLOAD SWAP1 PUSH1 0x20 ADD SWAP1 PUSH2 0x230 SWAP3 SWAP2 SWAP1 PUSH2 0x44B JUMP JUMPDEST POP PUSH1 0x20 DUP3 ADD MLOAD DUP2 PUSH1 0x1 ADD PUSH1 0x0 PUSH2 0x100 EXP DUP2 SLOAD DUP2 PUSH20 0xFFFFFFFFFFFFFFFFFFFFFFFFFFFFFFFFFFFFFFFF MUL NOT AND SWAP1 DUP4 PUSH20 0xFFFFFFFFFFFFFFFFFFFFFFFFFFFFFFFFFFFFFFFF AND MUL OR SWAP1 SSTORE POP SWAP1 POP POP POP POP JUMP JUMPDEST PUSH1 0x60 PUSH1 0x0 PUSH1 0x60 PUSH1 0x0 PUSH1 0x7 PUSH1 0x0 DUP7 DUP2 MSTORE PUSH1 0x20 ADD SWAP1 DUP2 MSTORE PUSH1 0x20 ADD PUSH1 0x0 KECCAK256 PUSH1 0x0 ADD DUP1 SLOAD PUSH2 0x2A8 SWAP1 PUSH2 0x950 JUMP JUMPDEST DUP1 PUSH1 0x1F ADD PUSH1 0x20 DUP1 SWAP2 DIV MUL PUSH1 0x20 ADD PUSH1 0x40 MLOAD SWAP1 DUP2 ADD PUSH1 0x40 MSTORE DUP1 SWAP3 SWAP2 SWAP1 DUP2 DUP2 MSTORE PUSH1 0x20 ADD DUP3 DUP1 SLOAD PUSH2 0x2D4 SWAP1 PUSH2 0x950 JUMP JUMPDEST DUP1 ISZERO PUSH2 0x321 JUMPI DUP1 PUSH1 0x1F LT PUSH2 0x2F6 JUMPI PUSH2 0x100 DUP1 DUP4 SLOAD DIV MUL DUP4 MSTORE SWAP2 PUSH1 0x20 ADD SWAP2 PUSH2 0x321 JUMP JUMPDEST DUP3 ADD SWAP2 SWAP1 PUSH1 0x0 MSTORE PUSH1 0x20 PUSH1 0x0 KECCAK256 SWAP1 JUMPDEST DUP2 SLOAD DUP2 MSTORE SWAP1 PUSH1 0x1 ADD SWAP1 PUSH1 0x20 ADD DUP1 DUP4 GT PUSH2 0x304 JUMPI DUP3 SWAP1 SUB PUSH1 0x1F AND DUP3 ADD SWAP2 JUMPDEST POP POP POP POP POP SWAP2 POP PUSH1 0x7 PUSH1 0x0 DUP7 DUP2 MSTORE PUSH1 0x20 ADD SWAP1 DUP2 MSTORE PUSH1 0x20 ADD PUSH1 0x0 KECCAK256 PUSH1 0x1 ADD PUSH1 0x0 SWAP1 SLOAD SWAP1 PUSH2 0x100 EXP SWAP1 DIV PUSH20 0xFFFFFFFFFFFFFFFFFFFFFFFFFFFFFFFFFFFFFFFF AND SWAP1 POP DUP2 DUP2 SWAP4 POP SWAP4 POP POP POP SWAP2 POP SWAP2 JUMP JUMPDEST PUSH1 0x60 PUSH1 0x0 PUSH1 0x7 PUSH1 0x0 DUP5 DUP2 MSTORE PUSH1 0x20 ADD SWAP1 DUP2 MSTORE PUSH1 0x20 ADD PUSH1 0x0 KECCAK256 PUSH1 0x0 ADD DUP1 SLOAD PUSH2 0x393 SWAP1 PUSH2 0x950 JUMP JUMPDEST SWAP1 POP EQ ISZERO PUSH2 0x3D6 JUMPI PUSH1 0x40 MLOAD PUSH32 0x8C379A000000000000000000000000000000000000000000000000000000000 DUP2 MSTORE PUSH1 0x4 ADD PUSH2 0x3CD SWAP1 PUSH2 0x835 JUMP JUMPDEST PUSH1 0x40 MLOAD DUP1 SWAP2 SUB SWAP1 REVERT JUMPDEST PUSH1 0x7 PUSH1 0x0 DUP4 DUP2 MSTORE PUSH1 0x20 ADD SWAP1 DUP2 MSTORE PUSH1 0x20 ADD PUSH1 0x0 KECCAK256 PUSH1 0x0 DUP1 DUP3 ADD PUSH1 0x0 PUSH2 0x3FA SWAP2 SWAP1 PUSH2 0x511 JUMP JUMPDEST PUSH1 0x1 DUP3 ADD PUSH1 0x0 PUSH2 0x100 EXP DUP2 SLOAD SWAP1 PUSH20 0xFFFFFFFFFFFFFFFFFFFFFFFFFFFFFFFFFFFFFFFF MUL NOT AND SWAP1 SSTORE POP POP SWAP2 SWAP1 POP JUMP JUMPDEST PUSH1 0x40 MLOAD DUP1 PUSH2 0x5A0 ADD PUSH1 0x40 MSTORE DUP1 PUSH1 0x2D SWAP1 PUSH1 0x20 DUP3 MUL DUP1 CALLDATASIZE DUP4 CALLDATACOPY DUP1 DUP3 ADD SWAP2 POP POP SWAP1 POP POP SWAP1 JUMP JUMPDEST DUP3 DUP1 SLOAD PUSH2 0x457 SWAP1 PUSH2 0x950 JUMP JUMPDEST SWAP1 PUSH1 0x0 MSTORE PUSH1 0x20 PUSH1 0x0 KECCAK256 SWAP1 PUSH1 0x1F ADD PUSH1 0x20 SWAP1 DIV DUP2 ADD SWAP3 DUP3 PUSH2 0x479 JUMPI PUSH1 0x0 DUP6 SSTORE PUSH2 0x4C0 JUMP JUMPDEST DUP3 PUSH1 0x1F LT PUSH2 0x492 JUMPI DUP1 MLOAD PUSH1 0xFF NOT AND DUP4 DUP1 ADD OR DUP6 SSTORE PUSH2 0x4C0 JUMP JUMPDEST DUP3 DUP1 ADD PUSH1 0x1 ADD DUP6 SSTORE DUP3 ISZERO PUSH2 0x4C0 JUMPI SWAP2 DUP3 ADD JUMPDEST DUP3 DUP2 GT ISZERO PUSH2 0x4BF JUMPI DUP3 MLOAD DUP3 SSTORE SWAP2 PUSH1 0x20 ADD SWAP2 SWAP1 PUSH1 0x1 ADD SWAP1 PUSH2 0x4A4 JUMP JUMPDEST JUMPDEST POP SWAP1 POP PUSH2 0x4CD SWAP2 SWAP1 PUSH2 0x551 JUMP JUMPDEST POP SWAP1 JUMP JUMPDEST DUP3 PUSH1 0x2D DUP2 ADD SWAP3 DUP3 ISZERO PUSH2 0x500 JUMPI SWAP2 PUSH1 0x20 MUL DUP3 ADD JUMPDEST DUP3 DUP2 GT ISZERO PUSH2 0x4FF JUMPI DUP3 MLOAD DUP3 SSTORE SWAP2 PUSH1 0x20 ADD SWAP2 SWAP1 PUSH1 0x1 ADD SWAP1 PUSH2 0x4E4 JUMP JUMPDEST JUMPDEST POP SWAP1 POP PUSH2 0x50D SWAP2 SWAP1 PUSH2 0x551 JUMP JUMPDEST POP SWAP1 JUMP JUMPDEST POP DUP1 SLOAD PUSH2 0x51D SWAP1 PUSH2 0x950 JUMP JUMPDEST PUSH1 0x0 DUP3 SSTORE DUP1 PUSH1 0x1F LT PUSH2 0x52F JUMPI POP PUSH2 0x54E JUMP JUMPDEST PUSH1 0x1F ADD PUSH1 0x20 SWAP1 DIV SWAP1 PUSH1 0x0 MSTORE PUSH1 0x20 PUSH1 0x0 KECCAK256 SWAP1 DUP2 ADD SWAP1 PUSH2 0x54D SWAP2 SWAP1 PUSH2 0x551 JUMP JUMPDEST JUMPDEST POP JUMP JUMPDEST JUMPDEST DUP1 DUP3 GT ISZERO PUSH2 0x56A JUMPI PUSH1 0x0 DUP2 PUSH1 0x0 SWAP1 SSTORE POP PUSH1 0x1 ADD PUSH2 0x552 JUMP JUMPDEST POP SWAP1 JUMP JUMPDEST PUSH1 0x0 PUSH2 0x581 PUSH2 0x57C DUP5 PUSH2 0x87A JUMP JUMPDEST PUSH2 0x855 JUMP JUMPDEST SWAP1 POP DUP3 DUP2 MSTORE PUSH1 0x20 DUP2 ADD DUP5 DUP5 DUP5 ADD GT ISZERO PUSH2 0x59D JUMPI PUSH2 0x59C PUSH2 0xA16 JUMP JUMPDEST JUMPDEST PUSH2 0x5A8 DUP5 DUP3 DUP6 PUSH2 0x90E JUMP JUMPDEST POP SWAP4 SWAP3 POP POP POP JUMP JUMPDEST PUSH1 0x0 DUP2 CALLDATALOAD SWAP1 POP PUSH2 0x5BF DUP2 PUSH2 0xA5F JUMP JUMPDEST SWAP3 SWAP2 POP POP JUMP JUMPDEST PUSH1 0x0 DUP3 PUSH1 0x1F DUP4 ADD SLT PUSH2 0x5DA JUMPI PUSH2 0x5D9 PUSH2 0xA11 JUMP JUMPDEST JUMPDEST DUP2 CALLDATALOAD PUSH2 0x5EA DUP5 DUP3 PUSH1 0x20 DUP7 ADD PUSH2 0x56E JUMP JUMPDEST SWAP2 POP POP SWAP3 SWAP2 POP POP JUMP JUMPDEST PUSH1 0x0 DUP2 CALLDATALOAD SWAP1 POP PUSH2 0x602 DUP2 PUSH2 0xA76 JUMP JUMPDEST SWAP3 SWAP2 POP POP JUMP JUMPDEST PUSH1 0x0 DUP1 PUSH1 0x0 DUP1 PUSH1 0x80 DUP6 DUP8 SUB SLT ISZERO PUSH2 0x622 JUMPI PUSH2 0x621 PUSH2 0xA20 JUMP JUMPDEST JUMPDEST PUSH1 0x0 PUSH2 0x630 DUP8 DUP3 DUP9 ADD PUSH2 0x5B0 JUMP JUMPDEST SWAP5 POP POP PUSH1 0x20 DUP6 ADD CALLDATALOAD PUSH8 0xFFFFFFFFFFFFFFFF DUP2 GT ISZERO PUSH2 0x651 JUMPI PUSH2 0x650 PUSH2 0xA1B JUMP JUMPDEST JUMPDEST PUSH2 0x65D DUP8 DUP3 DUP9 ADD PUSH2 0x5C5 JUMP JUMPDEST SWAP4 POP POP PUSH1 0x40 PUSH2 0x66E DUP8 DUP3 DUP9 ADD PUSH2 0x5F3 JUMP JUMPDEST SWAP3 POP POP PUSH1 0x60 DUP6 ADD CALLDATALOAD PUSH8 0xFFFFFFFFFFFFFFFF DUP2 GT ISZERO PUSH2 0x68F JUMPI PUSH2 0x68E PUSH2 0xA1B JUMP JUMPDEST JUMPDEST PUSH2 0x69B DUP8 DUP3 DUP9 ADD PUSH2 0x5C5 JUMP JUMPDEST SWAP2 POP POP SWAP3 SWAP6 SWAP2 SWAP5 POP SWAP3 POP JUMP JUMPDEST PUSH1 0x0 DUP1 PUSH1 0x40 DUP4 DUP6 SUB SLT ISZERO PUSH2 0x6BE JUMPI PUSH2 0x6BD PUSH2 0xA20 JUMP JUMPDEST JUMPDEST PUSH1 0x0 DUP4 ADD CALLDATALOAD PUSH8 0xFFFFFFFFFFFFFFFF DUP2 GT ISZERO PUSH2 0x6DC JUMPI PUSH2 0x6DB PUSH2 0xA1B JUMP JUMPDEST JUMPDEST PUSH2 0x6E8 DUP6 DUP3 DUP7 ADD PUSH2 0x5C5 JUMP JUMPDEST SWAP3 POP POP PUSH1 0x20 PUSH2 0x6F9 DUP6 DUP3 DUP7 ADD PUSH2 0x5F3 JUMP JUMPDEST SWAP2 POP POP SWAP3 POP SWAP3 SWAP1 POP JUMP JUMPDEST PUSH1 0x0 PUSH1 0x20 DUP3 DUP5 SUB SLT ISZERO PUSH2 0x719 JUMPI PUSH2 0x718 PUSH2 0xA20 JUMP JUMPDEST JUMPDEST PUSH1 0x0 PUSH2 0x727 DUP5 DUP3 DUP6 ADD PUSH2 0x5F3 JUMP JUMPDEST SWAP2 POP POP SWAP3 SWAP2 POP POP JUMP JUMPDEST PUSH2 0x739 DUP2 PUSH2 0x8D2 JUMP JUMPDEST DUP3 MSTORE POP POP JUMP JUMPDEST PUSH1 0x0 PUSH2 0x74A DUP3 PUSH2 0x8AB JUMP JUMPDEST PUSH2 0x754 DUP2 DUP6 PUSH2 0x8B6 JUMP JUMPDEST SWAP4 POP PUSH2 0x764 DUP2 DUP6 PUSH1 0x20 DUP7 ADD PUSH2 0x91D JUMP JUMPDEST PUSH2 0x76D DUP2 PUSH2 0xA25 JUMP JUMPDEST DUP5 ADD SWAP2 POP POP SWAP3 SWAP2 POP POP JUMP JUMPDEST PUSH1 0x0 PUSH2 0x783 DUP3 PUSH2 0x8AB JUMP JUMPDEST PUSH2 0x78D DUP2 DUP6 PUSH2 0x8C7 JUMP JUMPDEST SWAP4 POP PUSH2 0x79D DUP2 DUP6 PUSH1 0x20 DUP7 ADD PUSH2 0x91D JUMP JUMPDEST DUP1 DUP5 ADD SWAP2 POP POP SWAP3 SWAP2 POP POP JUMP JUMPDEST PUSH1 0x0 PUSH2 0x7B6 PUSH1 0x13 DUP4 PUSH2 0x8B6 JUMP JUMPDEST SWAP2 POP PUSH2 0x7C1 DUP3 PUSH2 0xA36 JUMP JUMPDEST PUSH1 0x20 DUP3 ADD SWAP1 POP SWAP2 SWAP1 POP JUMP JUMPDEST PUSH1 0x0 PUSH2 0x7D8 DUP3 DUP5 PUSH2 0x778 JUMP JUMPDEST SWAP2 POP DUP2 SWAP1 POP SWAP3 SWAP2 POP POP JUMP JUMPDEST PUSH1 0x0 PUSH1 0x20 DUP3 ADD SWAP1 POP DUP2 DUP2 SUB PUSH1 0x0 DUP4 ADD MSTORE PUSH2 0x7FD DUP2 DUP5 PUSH2 0x73F JUMP JUMPDEST SWAP1 POP SWAP3 SWAP2 POP POP JUMP JUMPDEST PUSH1 0x0 PUSH1 0x40 DUP3 ADD SWAP1 POP DUP2 DUP2 SUB PUSH1 0x0 DUP4 ADD MSTORE PUSH2 0x81F DUP2 DUP6 PUSH2 0x73F JUMP JUMPDEST SWAP1 POP PUSH2 0x82E PUSH1 0x20 DUP4 ADD DUP5 PUSH2 0x730 JUMP JUMPDEST SWAP4 SWAP3 POP POP POP JUMP JUMPDEST PUSH1 0x0 PUSH1 0x20 DUP3 ADD SWAP1 POP DUP2 DUP2 SUB PUSH1 0x0 DUP4 ADD MSTORE PUSH2 0x84E DUP2 PUSH2 0x7A9 JUMP JUMPDEST SWAP1 POP SWAP2 SWAP1 POP JUMP JUMPDEST PUSH1 0x0 PUSH2 0x85F PUSH2 0x870 JUMP JUMPDEST SWAP1 POP PUSH2 0x86B DUP3 DUP3 PUSH2 0x982 JUMP JUMPDEST SWAP2 SWAP1 POP JUMP JUMPDEST PUSH1 0x0 PUSH1 0x40 MLOAD SWAP1 POP SWAP1 JUMP JUMPDEST PUSH1 0x0 PUSH8 0xFFFFFFFFFFFFFFFF DUP3 GT ISZERO PUSH2 0x895 JUMPI PUSH2 0x894 PUSH2 0x9E2 JUMP JUMPDEST JUMPDEST PUSH2 0x89E DUP3 PUSH2 0xA25 JUMP JUMPDEST SWAP1 POP PUSH1 0x20 DUP2 ADD SWAP1 POP SWAP2 SWAP1 POP JUMP JUMPDEST PUSH1 0x0 DUP2 MLOAD SWAP1 POP SWAP2 SWAP1 POP JUMP JUMPDEST PUSH1 0x0 DUP3 DUP3 MSTORE PUSH1 0x20 DUP3 ADD SWAP1 POP SWAP3 SWAP2 POP POP JUMP JUMPDEST PUSH1 0x0 DUP2 SWAP1 POP SWAP3 SWAP2 POP POP JUMP JUMPDEST PUSH1 0x0 PUSH2 0x8DD DUP3 PUSH2 0x8E4 JUMP JUMPDEST SWAP1 POP SWAP2 SWAP1 POP JUMP JUMPDEST PUSH1 0x0 PUSH20 0xFFFFFFFFFFFFFFFFFFFFFFFFFFFFFFFFFFFFFFFF DUP3 AND SWAP1 POP SWAP2 SWAP1 POP JUMP JUMPDEST PUSH1 0x0 DUP2 SWAP1 POP SWAP2 SWAP1 POP JUMP JUMPDEST DUP3 DUP2 DUP4 CALLDATACOPY PUSH1 0x0 DUP4 DUP4 ADD MSTORE POP POP POP JUMP JUMPDEST PUSH1 0x0 JUMPDEST DUP4 DUP2 LT ISZERO PUSH2 0x93B JUMPI DUP1 DUP3 ADD MLOAD DUP2 DUP5 ADD MSTORE PUSH1 0x20 DUP2 ADD SWAP1 POP PUSH2 0x920 JUMP JUMPDEST DUP4 DUP2 GT ISZERO PUSH2 0x94A JUMPI PUSH1 0x0 DUP5 DUP5 ADD MSTORE JUMPDEST POP POP POP POP JUMP JUMPDEST PUSH1 0x0 PUSH1 0x2 DUP3 DIV SWAP1 POP PUSH1 0x1 DUP3 AND DUP1 PUSH2 0x968 JUMPI PUSH1 0x7F DUP3 AND SWAP2 POP JUMPDEST PUSH1 0x20 DUP3 LT DUP2 EQ ISZERO PUSH2 0x97C JUMPI PUSH2 0x97B PUSH2 0x9B3 JUMP JUMPDEST JUMPDEST POP SWAP2 SWAP1 POP JUMP JUMPDEST PUSH2 0x98B DUP3 PUSH2 0xA25 JUMP JUMPDEST DUP2 ADD DUP2 DUP2 LT PUSH8 0xFFFFFFFFFFFFFFFF DUP3 GT OR ISZERO PUSH2 0x9AA JUMPI PUSH2 0x9A9 PUSH2 0x9E2 JUMP JUMPDEST JUMPDEST DUP1 PUSH1 0x40 MSTORE POP POP POP JUMP JUMPDEST PUSH32 0x4E487B7100000000000000000000000000000000000000000000000000000000 PUSH1 0x0 MSTORE PUSH1 0x22 PUSH1 0x4 MSTORE PUSH1 0x24 PUSH1 0x0 REVERT JUMPDEST PUSH32 0x4E487B7100000000000000000000000000000000000000000000000000000000 PUSH1 0x0 MSTORE PUSH1 0x41 PUSH1 0x4 MSTORE PUSH1 0x24 PUSH1 0x0 REVERT JUMPDEST PUSH1 0x0 DUP1 REVERT JUMPDEST PUSH1 0x0 DUP1 REVERT JUMPDEST PUSH1 0x0 DUP1 REVERT JUMPDEST PUSH1 0x0 DUP1 REVERT JUMPDEST PUSH1 0x0 PUSH1 0x1F NOT PUSH1 0x1F DUP4 ADD AND SWAP1 POP SWAP2 SWAP1 POP JUMP JUMPDEST PUSH32 0x5468657265206973206E6F2073747564656E7400000000000000000000000000 PUSH1 0x0 DUP3 ADD MSTORE POP JUMP JUMPDEST PUSH2 0xA68 DUP2 PUSH2 0x8D2 JUMP JUMPDEST DUP2 EQ PUSH2 0xA73 JUMPI PUSH1 0x0 DUP1 REVERT JUMPDEST POP JUMP JUMPDEST PUSH2 0xA7F DUP2 PUSH2 0x904 JUMP JUMPDEST DUP2 EQ PUSH2 0xA8A JUMPI PUSH1 0x0 DUP1 REVERT JUMPDEST POP JUMP INVALID LOG2 PUSH5 0x6970667358 0x22 SLT KECCAK256 MSTORE8 REVERT PUSH1 0xC5 MLOAD PUSH3 0x9C2BCE SWAP14 SWAP8 0xE0 SSTORE SWAP11 0xD0 DUP10 0xA8 0x4F 0xD3 0xE2 OR LOG2 0xD3 0x5D 0xC2 0xE8 0xA8 0xF7 MUL PUSH4 0xDB9D6473 PUSH16 0x6C634300080700330000000000000000 "
				},
				"gasEstimates": {
					"creation": {
						"codeDepositCost": "551000",
						"executionCost": "infinite",
						"totalCost": "infinite"
					},
					"external": {
						"addBus(address,string,uint256,string)": "infinite",
						"addStudent(string,uint256)": "infinite",
						"deleteStudent(uint256)": "infinite",
						"getStudents(uint256)": "infinite"
					}
				},
				"methodIdentifiers": {
					"addBus(address,string,uint256,string)": "009a4d3c",
					"addStudent(string,uint256)": "0e5eeef7",
					"deleteStudent(uint256)": "b645307d",
					"getStudents(uint256)": "75c2f8f0"
				}
			},
			"storageLayout": {
				"storage": [
					{
						"astId": 21,
						"contract": "contracts/minsubus.sol:Database",
						"label": "manager",
						"offset": 0,
						"slot": "0",
						"type": "t_address"
					},
					{
						"astId": 24,
						"contract": "contracts/minsubus.sol:Database",
						"label": "buses",
						"offset": 0,
						"slot": "1",
						"type": "t_array(t_address)dyn_storage"
					},
					{
						"astId": 27,
						"contract": "contracts/minsubus.sol:Database",
						"label": "students",
						"offset": 0,
						"slot": "2",
						"type": "t_array(t_address)dyn_storage"
					},
					{
						"astId": 30,
						"contract": "contracts/minsubus.sol:Database",
						"label": "owner",
						"offset": 0,
						"slot": "3",
						"type": "t_array(t_address)dyn_storage"
					},
					{
						"astId": 33,
						"contract": "contracts/minsubus.sol:Database",
						"label": "busNum",
						"offset": 0,
						"slot": "4",
						"type": "t_array(t_string_storage)dyn_storage"
					},
					{
						"astId": 36,
						"contract": "contracts/minsubus.sol:Database",
						"label": "studentNum",
						"offset": 0,
						"slot": "5",
						"type": "t_array(t_uint256)dyn_storage"
					},
					{
						"astId": 41,
						"contract": "contracts/minsubus.sol:Database",
						"label": "BusDB",
						"offset": 0,
						"slot": "6",
						"type": "t_mapping(t_string_memory_ptr,t_struct(Bus_DB)19_storage)"
					},
					{
						"astId": 46,
						"contract": "contracts/minsubus.sol:Database",
						"label": "StudentDB",
						"offset": 0,
						"slot": "7",
						"type": "t_mapping(t_uint256,t_struct(Student_DB)8_storage)"
					}
				],
				"types": {
					"t_address": {
						"encoding": "inplace",
						"label": "address",
						"numberOfBytes": "20"
					},
					"t_array(t_address)dyn_storage": {
						"base": "t_address",
						"encoding": "dynamic_array",
						"label": "address[]",
						"numberOfBytes": "32"
					},
					"t_array(t_string_storage)dyn_storage": {
						"base": "t_string_storage",
						"encoding": "dynamic_array",
						"label": "string[]",
						"numberOfBytes": "32"
					},
					"t_array(t_uint256)45_storage": {
						"base": "t_uint256",
						"encoding": "inplace",
						"label": "uint256[45]",
						"numberOfBytes": "1440"
					},
					"t_array(t_uint256)dyn_storage": {
						"base": "t_uint256",
						"encoding": "dynamic_array",
						"label": "uint256[]",
						"numberOfBytes": "32"
					},
					"t_mapping(t_string_memory_ptr,t_struct(Bus_DB)19_storage)": {
						"encoding": "mapping",
						"key": "t_string_memory_ptr",
						"label": "mapping(string => struct Database.Bus_DB)",
						"numberOfBytes": "32",
						"value": "t_struct(Bus_DB)19_storage"
					},
					"t_mapping(t_uint256,t_struct(Student_DB)8_storage)": {
						"encoding": "mapping",
						"key": "t_uint256",
						"label": "mapping(uint256 => struct Database.Student_DB)",
						"numberOfBytes": "32",
						"value": "t_struct(Student_DB)8_storage"
					},
					"t_string_memory_ptr": {
						"encoding": "bytes",
						"label": "string",
						"numberOfBytes": "32"
					},
					"t_string_storage": {
						"encoding": "bytes",
						"label": "string",
						"numberOfBytes": "32"
					},
					"t_struct(Bus_DB)19_storage": {
						"encoding": "inplace",
						"label": "struct Database.Bus_DB",
						"members": [
							{
								"astId": 10,
								"contract": "contracts/minsubus.sol:Database",
								"label": "bus",
								"offset": 0,
								"slot": "0",
								"type": "t_address"
							},
							{
								"astId": 12,
								"contract": "contracts/minsubus.sol:Database",
								"label": "destination",
								"offset": 0,
								"slot": "1",
								"type": "t_string_storage"
							},
							{
								"astId": 14,
								"contract": "contracts/minsubus.sol:Database",
								"label": "start_time",
								"offset": 0,
								"slot": "2",
								"type": "t_uint256"
							},
							{
								"astId": 18,
								"contract": "contracts/minsubus.sol:Database",
								"label": "Seat_number",
								"offset": 0,
								"slot": "3",
								"type": "t_array(t_uint256)45_storage"
							}
						],
						"numberOfBytes": "1536"
					},
					"t_struct(Student_DB)8_storage": {
						"encoding": "inplace",
						"label": "struct Database.Student_DB",
						"members": [
							{
								"astId": 5,
								"contract": "contracts/minsubus.sol:Database",
								"label": "student_name",
								"offset": 0,
								"slot": "0",
								"type": "t_string_storage"
							},
							{
								"astId": 7,
								"contract": "contracts/minsubus.sol:Database",
								"label": "student",
								"offset": 0,
								"slot": "1",
								"type": "t_address"
							}
						],
						"numberOfBytes": "64"
					},
					"t_uint256": {
						"encoding": "inplace",
						"label": "uint256",
						"numberOfBytes": "32"
					}
				}
			},
			"userdoc": {
				"kind": "user",
				"methods": {},
				"version": 1
			}
		}
	}
}