{
	"contracts/minsubus.sol": {
		"Database": {
			"abi": [
				{
					"inputs": [
						{
							"internalType": "address",
							"name": "bus",
							"type": "address"
						},
						{
							"internalType": "string",
							"name": "destination",
							"type": "string"
						},
						{
							"internalType": "uint256",
							"name": "start_time",
							"type": "uint256"
						},
						{
							"internalType": "string",
							"name": "busNum",
							"type": "string"
						}
					],
					"name": "addBus",
					"outputs": [],
					"stateMutability": "nonpayable",
					"type": "function"
				},
				{
					"inputs": [
						{
							"internalType": "string",
							"name": "student_name",
							"type": "string"
						},
						{
							"internalType": "uint256",
							"name": "studentNum",
							"type": "uint256"
						},
						{
							"internalType": "address",
							"name": "students",
							"type": "address"
						}
					],
					"name": "addStudent",
					"outputs": [],
					"stateMutability": "nonpayable",
					"type": "function"
				}
			],
			"devdoc": {
				"details": "Save Professor",
				"kind": "dev",
				"methods": {},
				"title": "Database",
				"version": 1
			},
			"evm": {
				"assembly": "    /* \"contracts/minsubus.sol\":148:1488  contract Database {... */\n  mstore(0x40, 0x80)\n  callvalue\n  dup1\n  iszero\n  tag_1\n  jumpi\n  0x00\n  dup1\n  revert\ntag_1:\n  pop\n  dataSize(sub_0)\n  dup1\n  dataOffset(sub_0)\n  0x00\n  codecopy\n  0x00\n  return\nstop\n\nsub_0: assembly {\n        /* \"contracts/minsubus.sol\":148:1488  contract Database {... */\n      mstore(0x40, 0x80)\n      callvalue\n      dup1\n      iszero\n      tag_1\n      jumpi\n      0x00\n      dup1\n      revert\n    tag_1:\n      pop\n      jumpi(tag_2, lt(calldatasize, 0x04))\n      shr(0xe0, calldataload(0x00))\n      dup1\n      0x9a4d3c\n      eq\n      tag_3\n      jumpi\n      dup1\n      0xe9e8a17c\n      eq\n      tag_4\n      jumpi\n    tag_2:\n      0x00\n      dup1\n      revert\n        /* \"contracts/minsubus.sol\":1040:1244  function addBus(address bus, string memory destination, uint start_time, string memory busNum) public {... */\n    tag_3:\n      tag_5\n      0x04\n      dup1\n      calldatasize\n      sub\n      dup2\n      add\n      swap1\n      tag_6\n      swap2\n      swap1\n      tag_7\n      jump\t// in\n    tag_6:\n      tag_8\n      jump\t// in\n    tag_5:\n      stop\n        /* \"contracts/minsubus.sol\":871:1035  function addStudent(string memory student_name, uint studentNum, address students) public {... */\n    tag_4:\n      tag_9\n      0x04\n      dup1\n      calldatasize\n      sub\n      dup2\n      add\n      swap1\n      tag_10\n      swap2\n      swap1\n      tag_11\n      jump\t// in\n    tag_10:\n      tag_12\n      jump\t// in\n    tag_9:\n      stop\n        /* \"contracts/minsubus.sol\":1040:1244  function addBus(address bus, string memory destination, uint start_time, string memory busNum) public {... */\n    tag_8:\n        /* \"contracts/minsubus.sol\":1150:1170  uint[45] memory seat */\n      tag_14\n      tag_15\n      jump\t// in\n    tag_14:\n        /* \"contracts/minsubus.sol\":1195:1237  Bus_DB(bus, destination, start_time, seat) */\n      mload(0x40)\n      dup1\n      0x80\n      add\n      0x40\n      mstore\n      dup1\n        /* \"contracts/minsubus.sol\":1202:1205  bus */\n      dup7\n        /* \"contracts/minsubus.sol\":1195:1237  Bus_DB(bus, destination, start_time, seat) */\n      0xffffffffffffffffffffffffffffffffffffffff\n      and\n      dup2\n      mstore\n      0x20\n      add\n        /* \"contracts/minsubus.sol\":1207:1218  destination */\n      dup6\n        /* \"contracts/minsubus.sol\":1195:1237  Bus_DB(bus, destination, start_time, seat) */\n      dup2\n      mstore\n      0x20\n      add\n        /* \"contracts/minsubus.sol\":1220:1230  start_time */\n      dup5\n        /* \"contracts/minsubus.sol\":1195:1237  Bus_DB(bus, destination, start_time, seat) */\n      dup2\n      mstore\n      0x20\n      add\n        /* \"contracts/minsubus.sol\":1232:1236  seat */\n      dup3\n        /* \"contracts/minsubus.sol\":1195:1237  Bus_DB(bus, destination, start_time, seat) */\n      dup2\n      mstore\n      pop\n        /* \"contracts/minsubus.sol\":1179:1184  BusDB */\n      0x05\n        /* \"contracts/minsubus.sol\":1185:1191  busNum */\n      dup4\n        /* \"contracts/minsubus.sol\":1179:1192  BusDB[busNum] */\n      mload(0x40)\n      tag_16\n      swap2\n      swap1\n      tag_17\n      jump\t// in\n    tag_16:\n      swap1\n      dup2\n      mstore\n      0x20\n      add\n      mload(0x40)\n      dup1\n      swap2\n      sub\n      swap1\n      keccak256\n        /* \"contracts/minsubus.sol\":1179:1237  BusDB[busNum] = Bus_DB(bus, destination, start_time, seat) */\n      0x00\n      dup3\n      add\n      mload\n      dup2\n      0x00\n      add\n      exp(0x0100, 0x00)\n      dup2\n      sload\n      dup2\n      0xffffffffffffffffffffffffffffffffffffffff\n      mul\n      not\n      and\n      swap1\n      dup4\n      0xffffffffffffffffffffffffffffffffffffffff\n      and\n      mul\n      or\n      swap1\n      sstore\n      pop\n      0x20\n      dup3\n      add\n      mload\n      dup2\n      0x01\n      add\n      swap1\n      dup1\n      mload\n      swap1\n      0x20\n      add\n      swap1\n      tag_18\n      swap3\n      swap2\n      swap1\n      tag_19\n      jump\t// in\n    tag_18:\n      pop\n      0x40\n      dup3\n      add\n      mload\n      dup2\n      0x02\n      add\n      sstore\n      0x60\n      dup3\n      add\n      mload\n      dup2\n      0x03\n      add\n      swap1\n      0x2d\n      tag_20\n      swap3\n      swap2\n      swap1\n      tag_21\n      jump\t// in\n    tag_20:\n      pop\n      swap1\n      pop\n      pop\n        /* \"contracts/minsubus.sol\":1142:1244  {... */\n      pop\n        /* \"contracts/minsubus.sol\":1040:1244  function addBus(address bus, string memory destination, uint start_time, string memory busNum) public {... */\n      pop\n      pop\n      pop\n      pop\n      jump\t// out\n        /* \"contracts/minsubus.sol\":871:1035  function addStudent(string memory student_name, uint studentNum, address students) public {... */\n    tag_12:\n        /* \"contracts/minsubus.sol\":994:1028  Student_DB(student_name, students) */\n      mload(0x40)\n      dup1\n      0x40\n      add\n      0x40\n      mstore\n      dup1\n        /* \"contracts/minsubus.sol\":1005:1017  student_name */\n      dup5\n        /* \"contracts/minsubus.sol\":994:1028  Student_DB(student_name, students) */\n      dup2\n      mstore\n      0x20\n      add\n        /* \"contracts/minsubus.sol\":1019:1027  students */\n      dup3\n        /* \"contracts/minsubus.sol\":994:1028  Student_DB(student_name, students) */\n      0xffffffffffffffffffffffffffffffffffffffff\n      and\n      dup2\n      mstore\n      pop\n        /* \"contracts/minsubus.sol\":970:979  StudentDB */\n      0x06\n        /* \"contracts/minsubus.sol\":970:991  StudentDB[studentNum] */\n      0x00\n        /* \"contracts/minsubus.sol\":980:990  studentNum */\n      dup5\n        /* \"contracts/minsubus.sol\":970:991  StudentDB[studentNum] */\n      dup2\n      mstore\n      0x20\n      add\n      swap1\n      dup2\n      mstore\n      0x20\n      add\n      0x00\n      keccak256\n        /* \"contracts/minsubus.sol\":970:1028  StudentDB[studentNum] = Student_DB(student_name, students) */\n      0x00\n      dup3\n      add\n      mload\n      dup2\n      0x00\n      add\n      swap1\n      dup1\n      mload\n      swap1\n      0x20\n      add\n      swap1\n      tag_23\n      swap3\n      swap2\n      swap1\n      tag_19\n      jump\t// in\n    tag_23:\n      pop\n      0x20\n      dup3\n      add\n      mload\n      dup2\n      0x01\n      add\n      exp(0x0100, 0x00)\n      dup2\n      sload\n      dup2\n      0xffffffffffffffffffffffffffffffffffffffff\n      mul\n      not\n      and\n      swap1\n      dup4\n      0xffffffffffffffffffffffffffffffffffffffff\n      and\n      mul\n      or\n      swap1\n      sstore\n      pop\n      swap1\n      pop\n      pop\n        /* \"contracts/minsubus.sol\":871:1035  function addStudent(string memory student_name, uint studentNum, address students) public {... */\n      pop\n      pop\n      pop\n      jump\t// out\n    tag_15:\n      mload(0x40)\n      dup1\n      0x05a0\n      add\n      0x40\n      mstore\n      dup1\n      0x2d\n      swap1\n      0x20\n      dup3\n      mul\n      dup1\n      calldatasize\n      dup4\n      calldatacopy\n      dup1\n      dup3\n      add\n      swap2\n      pop\n      pop\n      swap1\n      pop\n      pop\n      swap1\n      jump\t// out\n    tag_19:\n      dup3\n      dup1\n      sload\n      tag_24\n      swap1\n      tag_25\n      jump\t// in\n    tag_24:\n      swap1\n      0x00\n      mstore\n      keccak256(0x00, 0x20)\n      swap1\n      0x1f\n      add\n      0x20\n      swap1\n      div\n      dup2\n      add\n      swap3\n      dup3\n      tag_27\n      jumpi\n      0x00\n      dup6\n      sstore\n      jump(tag_26)\n    tag_27:\n      dup3\n      0x1f\n      lt\n      tag_28\n      jumpi\n      dup1\n      mload\n      not(0xff)\n      and\n      dup4\n      dup1\n      add\n      or\n      dup6\n      sstore\n      jump(tag_26)\n    tag_28:\n      dup3\n      dup1\n      add\n      0x01\n      add\n      dup6\n      sstore\n      dup3\n      iszero\n      tag_26\n      jumpi\n      swap2\n      dup3\n      add\n    tag_29:\n      dup3\n      dup2\n      gt\n      iszero\n      tag_30\n      jumpi\n      dup3\n      mload\n      dup3\n      sstore\n      swap2\n      0x20\n      add\n      swap2\n      swap1\n      0x01\n      add\n      swap1\n      jump(tag_29)\n    tag_30:\n    tag_26:\n      pop\n      swap1\n      pop\n      tag_31\n      swap2\n      swap1\n      tag_32\n      jump\t// in\n    tag_31:\n      pop\n      swap1\n      jump\t// out\n    tag_21:\n      dup3\n      0x2d\n      dup2\n      add\n      swap3\n      dup3\n      iszero\n      tag_33\n      jumpi\n      swap2\n      0x20\n      mul\n      dup3\n      add\n    tag_34:\n      dup3\n      dup2\n      gt\n      iszero\n      tag_35\n      jumpi\n      dup3\n      mload\n      dup3\n      sstore\n      swap2\n      0x20\n      add\n      swap2\n      swap1\n      0x01\n      add\n      swap1\n      jump(tag_34)\n    tag_35:\n    tag_33:\n      pop\n      swap1\n      pop\n      tag_36\n      swap2\n      swap1\n      tag_32\n      jump\t// in\n    tag_36:\n      pop\n      swap1\n      jump\t// out\n    tag_32:\n    tag_37:\n      dup1\n      dup3\n      gt\n      iszero\n      tag_38\n      jumpi\n      0x00\n      dup2\n      0x00\n      swap1\n      sstore\n      pop\n      0x01\n      add\n      jump(tag_37)\n    tag_38:\n      pop\n      swap1\n      jump\t// out\n        /* \"#utility.yul\":7:419   */\n    tag_40:\n        /* \"#utility.yul\":85:90   */\n      0x00\n        /* \"#utility.yul\":110:176   */\n      tag_42\n        /* \"#utility.yul\":126:175   */\n      tag_43\n        /* \"#utility.yul\":168:174   */\n      dup5\n        /* \"#utility.yul\":126:175   */\n      tag_44\n      jump\t// in\n    tag_43:\n        /* \"#utility.yul\":110:176   */\n      tag_45\n      jump\t// in\n    tag_42:\n        /* \"#utility.yul\":101:176   */\n      swap1\n      pop\n        /* \"#utility.yul\":199:205   */\n      dup3\n        /* \"#utility.yul\":192:197   */\n      dup2\n        /* \"#utility.yul\":185:206   */\n      mstore\n        /* \"#utility.yul\":237:241   */\n      0x20\n        /* \"#utility.yul\":230:235   */\n      dup2\n        /* \"#utility.yul\":226:242   */\n      add\n        /* \"#utility.yul\":275:278   */\n      dup5\n        /* \"#utility.yul\":266:272   */\n      dup5\n        /* \"#utility.yul\":261:264   */\n      dup5\n        /* \"#utility.yul\":257:273   */\n      add\n        /* \"#utility.yul\":254:279   */\n      gt\n        /* \"#utility.yul\":251:363   */\n      iszero\n      tag_46\n      jumpi\n        /* \"#utility.yul\":282:361   */\n      tag_47\n      tag_48\n      jump\t// in\n    tag_47:\n        /* \"#utility.yul\":251:363   */\n    tag_46:\n        /* \"#utility.yul\":372:413   */\n      tag_49\n        /* \"#utility.yul\":406:412   */\n      dup5\n        /* \"#utility.yul\":401:404   */\n      dup3\n        /* \"#utility.yul\":396:399   */\n      dup6\n        /* \"#utility.yul\":372:413   */\n      tag_50\n      jump\t// in\n    tag_49:\n        /* \"#utility.yul\":91:419   */\n      pop\n        /* \"#utility.yul\":7:419   */\n      swap4\n      swap3\n      pop\n      pop\n      pop\n      jump\t// out\n        /* \"#utility.yul\":425:564   */\n    tag_51:\n        /* \"#utility.yul\":471:476   */\n      0x00\n        /* \"#utility.yul\":509:515   */\n      dup2\n        /* \"#utility.yul\":496:516   */\n      calldataload\n        /* \"#utility.yul\":487:516   */\n      swap1\n      pop\n        /* \"#utility.yul\":525:558   */\n      tag_53\n        /* \"#utility.yul\":552:557   */\n      dup2\n        /* \"#utility.yul\":525:558   */\n      tag_54\n      jump\t// in\n    tag_53:\n        /* \"#utility.yul\":425:564   */\n      swap3\n      swap2\n      pop\n      pop\n      jump\t// out\n        /* \"#utility.yul\":584:924   */\n    tag_55:\n        /* \"#utility.yul\":640:645   */\n      0x00\n        /* \"#utility.yul\":689:692   */\n      dup3\n        /* \"#utility.yul\":682:686   */\n      0x1f\n        /* \"#utility.yul\":674:680   */\n      dup4\n        /* \"#utility.yul\":670:687   */\n      add\n        /* \"#utility.yul\":666:693   */\n      slt\n        /* \"#utility.yul\":656:778   */\n      tag_57\n      jumpi\n        /* \"#utility.yul\":697:776   */\n      tag_58\n      tag_59\n      jump\t// in\n    tag_58:\n        /* \"#utility.yul\":656:778   */\n    tag_57:\n        /* \"#utility.yul\":814:820   */\n      dup2\n        /* \"#utility.yul\":801:821   */\n      calldataload\n        /* \"#utility.yul\":839:918   */\n      tag_60\n        /* \"#utility.yul\":914:917   */\n      dup5\n        /* \"#utility.yul\":906:912   */\n      dup3\n        /* \"#utility.yul\":899:903   */\n      0x20\n        /* \"#utility.yul\":891:897   */\n      dup7\n        /* \"#utility.yul\":887:904   */\n      add\n        /* \"#utility.yul\":839:918   */\n      tag_40\n      jump\t// in\n    tag_60:\n        /* \"#utility.yul\":830:918   */\n      swap2\n      pop\n        /* \"#utility.yul\":646:924   */\n      pop\n        /* \"#utility.yul\":584:924   */\n      swap3\n      swap2\n      pop\n      pop\n      jump\t// out\n        /* \"#utility.yul\":930:1069   */\n    tag_61:\n        /* \"#utility.yul\":976:981   */\n      0x00\n        /* \"#utility.yul\":1014:1020   */\n      dup2\n        /* \"#utility.yul\":1001:1021   */\n      calldataload\n        /* \"#utility.yul\":992:1021   */\n      swap1\n      pop\n        /* \"#utility.yul\":1030:1063   */\n      tag_63\n        /* \"#utility.yul\":1057:1062   */\n      dup2\n        /* \"#utility.yul\":1030:1063   */\n      tag_64\n      jump\t// in\n    tag_63:\n        /* \"#utility.yul\":930:1069   */\n      swap3\n      swap2\n      pop\n      pop\n      jump\t// out\n        /* \"#utility.yul\":1075:2200   */\n    tag_7:\n        /* \"#utility.yul\":1181:1187   */\n      0x00\n        /* \"#utility.yul\":1189:1195   */\n      dup1\n        /* \"#utility.yul\":1197:1203   */\n      0x00\n        /* \"#utility.yul\":1205:1211   */\n      dup1\n        /* \"#utility.yul\":1254:1257   */\n      0x80\n        /* \"#utility.yul\":1242:1251   */\n      dup6\n        /* \"#utility.yul\":1233:1240   */\n      dup8\n        /* \"#utility.yul\":1229:1252   */\n      sub\n        /* \"#utility.yul\":1225:1258   */\n      slt\n        /* \"#utility.yul\":1222:1342   */\n      iszero\n      tag_66\n      jumpi\n        /* \"#utility.yul\":1261:1340   */\n      tag_67\n      tag_68\n      jump\t// in\n    tag_67:\n        /* \"#utility.yul\":1222:1342   */\n    tag_66:\n        /* \"#utility.yul\":1381:1382   */\n      0x00\n        /* \"#utility.yul\":1406:1459   */\n      tag_69\n        /* \"#utility.yul\":1451:1458   */\n      dup8\n        /* \"#utility.yul\":1442:1448   */\n      dup3\n        /* \"#utility.yul\":1431:1440   */\n      dup9\n        /* \"#utility.yul\":1427:1449   */\n      add\n        /* \"#utility.yul\":1406:1459   */\n      tag_51\n      jump\t// in\n    tag_69:\n        /* \"#utility.yul\":1396:1459   */\n      swap5\n      pop\n        /* \"#utility.yul\":1352:1469   */\n      pop\n        /* \"#utility.yul\":1536:1538   */\n      0x20\n        /* \"#utility.yul\":1525:1534   */\n      dup6\n        /* \"#utility.yul\":1521:1539   */\n      add\n        /* \"#utility.yul\":1508:1540   */\n      calldataload\n        /* \"#utility.yul\":1567:1585   */\n      0xffffffffffffffff\n        /* \"#utility.yul\":1559:1565   */\n      dup2\n        /* \"#utility.yul\":1556:1586   */\n      gt\n        /* \"#utility.yul\":1553:1670   */\n      iszero\n      tag_70\n      jumpi\n        /* \"#utility.yul\":1589:1668   */\n      tag_71\n      tag_72\n      jump\t// in\n    tag_71:\n        /* \"#utility.yul\":1553:1670   */\n    tag_70:\n        /* \"#utility.yul\":1694:1757   */\n      tag_73\n        /* \"#utility.yul\":1749:1756   */\n      dup8\n        /* \"#utility.yul\":1740:1746   */\n      dup3\n        /* \"#utility.yul\":1729:1738   */\n      dup9\n        /* \"#utility.yul\":1725:1747   */\n      add\n        /* \"#utility.yul\":1694:1757   */\n      tag_55\n      jump\t// in\n    tag_73:\n        /* \"#utility.yul\":1684:1757   */\n      swap4\n      pop\n        /* \"#utility.yul\":1479:1767   */\n      pop\n        /* \"#utility.yul\":1806:1808   */\n      0x40\n        /* \"#utility.yul\":1832:1885   */\n      tag_74\n        /* \"#utility.yul\":1877:1884   */\n      dup8\n        /* \"#utility.yul\":1868:1874   */\n      dup3\n        /* \"#utility.yul\":1857:1866   */\n      dup9\n        /* \"#utility.yul\":1853:1875   */\n      add\n        /* \"#utility.yul\":1832:1885   */\n      tag_61\n      jump\t// in\n    tag_74:\n        /* \"#utility.yul\":1822:1885   */\n      swap3\n      pop\n        /* \"#utility.yul\":1777:1895   */\n      pop\n        /* \"#utility.yul\":1962:1964   */\n      0x60\n        /* \"#utility.yul\":1951:1960   */\n      dup6\n        /* \"#utility.yul\":1947:1965   */\n      add\n        /* \"#utility.yul\":1934:1966   */\n      calldataload\n        /* \"#utility.yul\":1993:2011   */\n      0xffffffffffffffff\n        /* \"#utility.yul\":1985:1991   */\n      dup2\n        /* \"#utility.yul\":1982:2012   */\n      gt\n        /* \"#utility.yul\":1979:2096   */\n      iszero\n      tag_75\n      jumpi\n        /* \"#utility.yul\":2015:2094   */\n      tag_76\n      tag_72\n      jump\t// in\n    tag_76:\n        /* \"#utility.yul\":1979:2096   */\n    tag_75:\n        /* \"#utility.yul\":2120:2183   */\n      tag_77\n        /* \"#utility.yul\":2175:2182   */\n      dup8\n        /* \"#utility.yul\":2166:2172   */\n      dup3\n        /* \"#utility.yul\":2155:2164   */\n      dup9\n        /* \"#utility.yul\":2151:2173   */\n      add\n        /* \"#utility.yul\":2120:2183   */\n      tag_55\n      jump\t// in\n    tag_77:\n        /* \"#utility.yul\":2110:2183   */\n      swap2\n      pop\n        /* \"#utility.yul\":1905:2193   */\n      pop\n        /* \"#utility.yul\":1075:2200   */\n      swap3\n      swap6\n      swap2\n      swap5\n      pop\n      swap3\n      pop\n      jump\t// out\n        /* \"#utility.yul\":2206:3005   */\n    tag_11:\n        /* \"#utility.yul\":2293:2299   */\n      0x00\n        /* \"#utility.yul\":2301:2307   */\n      dup1\n        /* \"#utility.yul\":2309:2315   */\n      0x00\n        /* \"#utility.yul\":2358:2360   */\n      0x60\n        /* \"#utility.yul\":2346:2355   */\n      dup5\n        /* \"#utility.yul\":2337:2344   */\n      dup7\n        /* \"#utility.yul\":2333:2356   */\n      sub\n        /* \"#utility.yul\":2329:2361   */\n      slt\n        /* \"#utility.yul\":2326:2445   */\n      iszero\n      tag_79\n      jumpi\n        /* \"#utility.yul\":2364:2443   */\n      tag_80\n      tag_68\n      jump\t// in\n    tag_80:\n        /* \"#utility.yul\":2326:2445   */\n    tag_79:\n        /* \"#utility.yul\":2512:2513   */\n      0x00\n        /* \"#utility.yul\":2501:2510   */\n      dup5\n        /* \"#utility.yul\":2497:2514   */\n      add\n        /* \"#utility.yul\":2484:2515   */\n      calldataload\n        /* \"#utility.yul\":2542:2560   */\n      0xffffffffffffffff\n        /* \"#utility.yul\":2534:2540   */\n      dup2\n        /* \"#utility.yul\":2531:2561   */\n      gt\n        /* \"#utility.yul\":2528:2645   */\n      iszero\n      tag_81\n      jumpi\n        /* \"#utility.yul\":2564:2643   */\n      tag_82\n      tag_72\n      jump\t// in\n    tag_82:\n        /* \"#utility.yul\":2528:2645   */\n    tag_81:\n        /* \"#utility.yul\":2669:2732   */\n      tag_83\n        /* \"#utility.yul\":2724:2731   */\n      dup7\n        /* \"#utility.yul\":2715:2721   */\n      dup3\n        /* \"#utility.yul\":2704:2713   */\n      dup8\n        /* \"#utility.yul\":2700:2722   */\n      add\n        /* \"#utility.yul\":2669:2732   */\n      tag_55\n      jump\t// in\n    tag_83:\n        /* \"#utility.yul\":2659:2732   */\n      swap4\n      pop\n        /* \"#utility.yul\":2455:2742   */\n      pop\n        /* \"#utility.yul\":2781:2783   */\n      0x20\n        /* \"#utility.yul\":2807:2860   */\n      tag_84\n        /* \"#utility.yul\":2852:2859   */\n      dup7\n        /* \"#utility.yul\":2843:2849   */\n      dup3\n        /* \"#utility.yul\":2832:2841   */\n      dup8\n        /* \"#utility.yul\":2828:2850   */\n      add\n        /* \"#utility.yul\":2807:2860   */\n      tag_61\n      jump\t// in\n    tag_84:\n        /* \"#utility.yul\":2797:2860   */\n      swap3\n      pop\n        /* \"#utility.yul\":2752:2870   */\n      pop\n        /* \"#utility.yul\":2909:2911   */\n      0x40\n        /* \"#utility.yul\":2935:2988   */\n      tag_85\n        /* \"#utility.yul\":2980:2987   */\n      dup7\n        /* \"#utility.yul\":2971:2977   */\n      dup3\n        /* \"#utility.yul\":2960:2969   */\n      dup8\n        /* \"#utility.yul\":2956:2978   */\n      add\n        /* \"#utility.yul\":2935:2988   */\n      tag_51\n      jump\t// in\n    tag_85:\n        /* \"#utility.yul\":2925:2988   */\n      swap2\n      pop\n        /* \"#utility.yul\":2880:2998   */\n      pop\n        /* \"#utility.yul\":2206:3005   */\n      swap3\n      pop\n      swap3\n      pop\n      swap3\n      jump\t// out\n        /* \"#utility.yul\":3011:3388   */\n    tag_86:\n        /* \"#utility.yul\":3117:3120   */\n      0x00\n        /* \"#utility.yul\":3145:3184   */\n      tag_88\n        /* \"#utility.yul\":3178:3183   */\n      dup3\n        /* \"#utility.yul\":3145:3184   */\n      tag_89\n      jump\t// in\n    tag_88:\n        /* \"#utility.yul\":3200:3289   */\n      tag_90\n        /* \"#utility.yul\":3282:3288   */\n      dup2\n        /* \"#utility.yul\":3277:3280   */\n      dup6\n        /* \"#utility.yul\":3200:3289   */\n      tag_91\n      jump\t// in\n    tag_90:\n        /* \"#utility.yul\":3193:3289   */\n      swap4\n      pop\n        /* \"#utility.yul\":3298:3350   */\n      tag_92\n        /* \"#utility.yul\":3343:3349   */\n      dup2\n        /* \"#utility.yul\":3338:3341   */\n      dup6\n        /* \"#utility.yul\":3331:3335   */\n      0x20\n        /* \"#utility.yul\":3324:3329   */\n      dup7\n        /* \"#utility.yul\":3320:3336   */\n      add\n        /* \"#utility.yul\":3298:3350   */\n      tag_93\n      jump\t// in\n    tag_92:\n        /* \"#utility.yul\":3375:3381   */\n      dup1\n        /* \"#utility.yul\":3370:3373   */\n      dup5\n        /* \"#utility.yul\":3366:3382   */\n      add\n        /* \"#utility.yul\":3359:3382   */\n      swap2\n      pop\n        /* \"#utility.yul\":3121:3388   */\n      pop\n        /* \"#utility.yul\":3011:3388   */\n      swap3\n      swap2\n      pop\n      pop\n      jump\t// out\n        /* \"#utility.yul\":3394:3669   */\n    tag_17:\n        /* \"#utility.yul\":3526:3529   */\n      0x00\n        /* \"#utility.yul\":3548:3643   */\n      tag_95\n        /* \"#utility.yul\":3639:3642   */\n      dup3\n        /* \"#utility.yul\":3630:3636   */\n      dup5\n        /* \"#utility.yul\":3548:3643   */\n      tag_86\n      jump\t// in\n    tag_95:\n        /* \"#utility.yul\":3541:3643   */\n      swap2\n      pop\n        /* \"#utility.yul\":3660:3663   */\n      dup2\n        /* \"#utility.yul\":3653:3663   */\n      swap1\n      pop\n        /* \"#utility.yul\":3394:3669   */\n      swap3\n      swap2\n      pop\n      pop\n      jump\t// out\n        /* \"#utility.yul\":3675:3804   */\n    tag_45:\n        /* \"#utility.yul\":3709:3715   */\n      0x00\n        /* \"#utility.yul\":3736:3756   */\n      tag_97\n      tag_98\n      jump\t// in\n    tag_97:\n        /* \"#utility.yul\":3726:3756   */\n      swap1\n      pop\n        /* \"#utility.yul\":3765:3798   */\n      tag_99\n        /* \"#utility.yul\":3793:3797   */\n      dup3\n        /* \"#utility.yul\":3785:3791   */\n      dup3\n        /* \"#utility.yul\":3765:3798   */\n      tag_100\n      jump\t// in\n    tag_99:\n        /* \"#utility.yul\":3675:3804   */\n      swap2\n      swap1\n      pop\n      jump\t// out\n        /* \"#utility.yul\":3810:3885   */\n    tag_98:\n        /* \"#utility.yul\":3843:3849   */\n      0x00\n        /* \"#utility.yul\":3876:3878   */\n      0x40\n        /* \"#utility.yul\":3870:3879   */\n      mload\n        /* \"#utility.yul\":3860:3879   */\n      swap1\n      pop\n        /* \"#utility.yul\":3810:3885   */\n      swap1\n      jump\t// out\n        /* \"#utility.yul\":3891:4199   */\n    tag_44:\n        /* \"#utility.yul\":3953:3957   */\n      0x00\n        /* \"#utility.yul\":4043:4061   */\n      0xffffffffffffffff\n        /* \"#utility.yul\":4035:4041   */\n      dup3\n        /* \"#utility.yul\":4032:4062   */\n      gt\n        /* \"#utility.yul\":4029:4085   */\n      iszero\n      tag_103\n      jumpi\n        /* \"#utility.yul\":4065:4083   */\n      tag_104\n      tag_105\n      jump\t// in\n    tag_104:\n        /* \"#utility.yul\":4029:4085   */\n    tag_103:\n        /* \"#utility.yul\":4103:4132   */\n      tag_106\n        /* \"#utility.yul\":4125:4131   */\n      dup3\n        /* \"#utility.yul\":4103:4132   */\n      tag_107\n      jump\t// in\n    tag_106:\n        /* \"#utility.yul\":4095:4132   */\n      swap1\n      pop\n        /* \"#utility.yul\":4187:4191   */\n      0x20\n        /* \"#utility.yul\":4181:4185   */\n      dup2\n        /* \"#utility.yul\":4177:4192   */\n      add\n        /* \"#utility.yul\":4169:4192   */\n      swap1\n      pop\n        /* \"#utility.yul\":3891:4199   */\n      swap2\n      swap1\n      pop\n      jump\t// out\n        /* \"#utility.yul\":4205:4304   */\n    tag_89:\n        /* \"#utility.yul\":4257:4263   */\n      0x00\n        /* \"#utility.yul\":4291:4296   */\n      dup2\n        /* \"#utility.yul\":4285:4297   */\n      mload\n        /* \"#utility.yul\":4275:4297   */\n      swap1\n      pop\n        /* \"#utility.yul\":4205:4304   */\n      swap2\n      swap1\n      pop\n      jump\t// out\n        /* \"#utility.yul\":4310:4458   */\n    tag_91:\n        /* \"#utility.yul\":4412:4423   */\n      0x00\n        /* \"#utility.yul\":4449:4452   */\n      dup2\n        /* \"#utility.yul\":4434:4452   */\n      swap1\n      pop\n        /* \"#utility.yul\":4310:4458   */\n      swap3\n      swap2\n      pop\n      pop\n      jump\t// out\n        /* \"#utility.yul\":4464:4560   */\n    tag_110:\n        /* \"#utility.yul\":4501:4508   */\n      0x00\n        /* \"#utility.yul\":4530:4554   */\n      tag_112\n        /* \"#utility.yul\":4548:4553   */\n      dup3\n        /* \"#utility.yul\":4530:4554   */\n      tag_113\n      jump\t// in\n    tag_112:\n        /* \"#utility.yul\":4519:4554   */\n      swap1\n      pop\n        /* \"#utility.yul\":4464:4560   */\n      swap2\n      swap1\n      pop\n      jump\t// out\n        /* \"#utility.yul\":4566:4692   */\n    tag_113:\n        /* \"#utility.yul\":4603:4610   */\n      0x00\n        /* \"#utility.yul\":4643:4685   */\n      0xffffffffffffffffffffffffffffffffffffffff\n        /* \"#utility.yul\":4636:4641   */\n      dup3\n        /* \"#utility.yul\":4632:4686   */\n      and\n        /* \"#utility.yul\":4621:4686   */\n      swap1\n      pop\n        /* \"#utility.yul\":4566:4692   */\n      swap2\n      swap1\n      pop\n      jump\t// out\n        /* \"#utility.yul\":4698:4775   */\n    tag_115:\n        /* \"#utility.yul\":4735:4742   */\n      0x00\n        /* \"#utility.yul\":4764:4769   */\n      dup2\n        /* \"#utility.yul\":4753:4769   */\n      swap1\n      pop\n        /* \"#utility.yul\":4698:4775   */\n      swap2\n      swap1\n      pop\n      jump\t// out\n        /* \"#utility.yul\":4781:4935   */\n    tag_50:\n        /* \"#utility.yul\":4865:4871   */\n      dup3\n        /* \"#utility.yul\":4860:4863   */\n      dup2\n        /* \"#utility.yul\":4855:4858   */\n      dup4\n        /* \"#utility.yul\":4842:4872   */\n      calldatacopy\n        /* \"#utility.yul\":4927:4928   */\n      0x00\n        /* \"#utility.yul\":4918:4924   */\n      dup4\n        /* \"#utility.yul\":4913:4916   */\n      dup4\n        /* \"#utility.yul\":4909:4925   */\n      add\n        /* \"#utility.yul\":4902:4929   */\n      mstore\n        /* \"#utility.yul\":4781:4935   */\n      pop\n      pop\n      pop\n      jump\t// out\n        /* \"#utility.yul\":4941:5248   */\n    tag_93:\n        /* \"#utility.yul\":5009:5010   */\n      0x00\n        /* \"#utility.yul\":5019:5132   */\n    tag_119:\n        /* \"#utility.yul\":5033:5039   */\n      dup4\n        /* \"#utility.yul\":5030:5031   */\n      dup2\n        /* \"#utility.yul\":5027:5040   */\n      lt\n        /* \"#utility.yul\":5019:5132   */\n      iszero\n      tag_121\n      jumpi\n        /* \"#utility.yul\":5118:5119   */\n      dup1\n        /* \"#utility.yul\":5113:5116   */\n      dup3\n        /* \"#utility.yul\":5109:5120   */\n      add\n        /* \"#utility.yul\":5103:5121   */\n      mload\n        /* \"#utility.yul\":5099:5100   */\n      dup2\n        /* \"#utility.yul\":5094:5097   */\n      dup5\n        /* \"#utility.yul\":5090:5101   */\n      add\n        /* \"#utility.yul\":5083:5122   */\n      mstore\n        /* \"#utility.yul\":5055:5057   */\n      0x20\n        /* \"#utility.yul\":5052:5053   */\n      dup2\n        /* \"#utility.yul\":5048:5058   */\n      add\n        /* \"#utility.yul\":5043:5058   */\n      swap1\n      pop\n        /* \"#utility.yul\":5019:5132   */\n      jump(tag_119)\n    tag_121:\n        /* \"#utility.yul\":5150:5156   */\n      dup4\n        /* \"#utility.yul\":5147:5148   */\n      dup2\n        /* \"#utility.yul\":5144:5157   */\n      gt\n        /* \"#utility.yul\":5141:5242   */\n      iszero\n      tag_122\n      jumpi\n        /* \"#utility.yul\":5230:5231   */\n      0x00\n        /* \"#utility.yul\":5221:5227   */\n      dup5\n        /* \"#utility.yul\":5216:5219   */\n      dup5\n        /* \"#utility.yul\":5212:5228   */\n      add\n        /* \"#utility.yul\":5205:5232   */\n      mstore\n        /* \"#utility.yul\":5141:5242   */\n    tag_122:\n        /* \"#utility.yul\":4990:5248   */\n      pop\n        /* \"#utility.yul\":4941:5248   */\n      pop\n      pop\n      pop\n      jump\t// out\n        /* \"#utility.yul\":5254:5574   */\n    tag_25:\n        /* \"#utility.yul\":5298:5304   */\n      0x00\n        /* \"#utility.yul\":5335:5336   */\n      0x02\n        /* \"#utility.yul\":5329:5333   */\n      dup3\n        /* \"#utility.yul\":5325:5337   */\n      div\n        /* \"#utility.yul\":5315:5337   */\n      swap1\n      pop\n        /* \"#utility.yul\":5382:5383   */\n      0x01\n        /* \"#utility.yul\":5376:5380   */\n      dup3\n        /* \"#utility.yul\":5372:5384   */\n      and\n        /* \"#utility.yul\":5403:5421   */\n      dup1\n        /* \"#utility.yul\":5393:5474   */\n      tag_124\n      jumpi\n        /* \"#utility.yul\":5459:5463   */\n      0x7f\n        /* \"#utility.yul\":5451:5457   */\n      dup3\n        /* \"#utility.yul\":5447:5464   */\n      and\n        /* \"#utility.yul\":5437:5464   */\n      swap2\n      pop\n        /* \"#utility.yul\":5393:5474   */\n    tag_124:\n        /* \"#utility.yul\":5521:5523   */\n      0x20\n        /* \"#utility.yul\":5513:5519   */\n      dup3\n        /* \"#utility.yul\":5510:5524   */\n      lt\n        /* \"#utility.yul\":5490:5508   */\n      dup2\n        /* \"#utility.yul\":5487:5525   */\n      eq\n        /* \"#utility.yul\":5484:5568   */\n      iszero\n      tag_125\n      jumpi\n        /* \"#utility.yul\":5540:5558   */\n      tag_126\n      tag_127\n      jump\t// in\n    tag_126:\n        /* \"#utility.yul\":5484:5568   */\n    tag_125:\n        /* \"#utility.yul\":5305:5574   */\n      pop\n        /* \"#utility.yul\":5254:5574   */\n      swap2\n      swap1\n      pop\n      jump\t// out\n        /* \"#utility.yul\":5580:5861   */\n    tag_100:\n        /* \"#utility.yul\":5663:5690   */\n      tag_129\n        /* \"#utility.yul\":5685:5689   */\n      dup3\n        /* \"#utility.yul\":5663:5690   */\n      tag_107\n      jump\t// in\n    tag_129:\n        /* \"#utility.yul\":5655:5661   */\n      dup2\n        /* \"#utility.yul\":5651:5691   */\n      add\n        /* \"#utility.yul\":5793:5799   */\n      dup2\n        /* \"#utility.yul\":5781:5791   */\n      dup2\n        /* \"#utility.yul\":5778:5800   */\n      lt\n        /* \"#utility.yul\":5757:5775   */\n      0xffffffffffffffff\n        /* \"#utility.yul\":5745:5755   */\n      dup3\n        /* \"#utility.yul\":5742:5776   */\n      gt\n        /* \"#utility.yul\":5739:5801   */\n      or\n        /* \"#utility.yul\":5736:5824   */\n      iszero\n      tag_130\n      jumpi\n        /* \"#utility.yul\":5804:5822   */\n      tag_131\n      tag_105\n      jump\t// in\n    tag_131:\n        /* \"#utility.yul\":5736:5824   */\n    tag_130:\n        /* \"#utility.yul\":5844:5854   */\n      dup1\n        /* \"#utility.yul\":5840:5842   */\n      0x40\n        /* \"#utility.yul\":5833:5855   */\n      mstore\n        /* \"#utility.yul\":5623:5861   */\n      pop\n        /* \"#utility.yul\":5580:5861   */\n      pop\n      pop\n      jump\t// out\n        /* \"#utility.yul\":5867:6047   */\n    tag_127:\n        /* \"#utility.yul\":5915:5992   */\n      0x4e487b7100000000000000000000000000000000000000000000000000000000\n        /* \"#utility.yul\":5912:5913   */\n      0x00\n        /* \"#utility.yul\":5905:5993   */\n      mstore\n        /* \"#utility.yul\":6012:6016   */\n      0x22\n        /* \"#utility.yul\":6009:6010   */\n      0x04\n        /* \"#utility.yul\":6002:6017   */\n      mstore\n        /* \"#utility.yul\":6036:6040   */\n      0x24\n        /* \"#utility.yul\":6033:6034   */\n      0x00\n        /* \"#utility.yul\":6026:6041   */\n      revert\n        /* \"#utility.yul\":6053:6233   */\n    tag_105:\n        /* \"#utility.yul\":6101:6178   */\n      0x4e487b7100000000000000000000000000000000000000000000000000000000\n        /* \"#utility.yul\":6098:6099   */\n      0x00\n        /* \"#utility.yul\":6091:6179   */\n      mstore\n        /* \"#utility.yul\":6198:6202   */\n      0x41\n        /* \"#utility.yul\":6195:6196   */\n      0x04\n        /* \"#utility.yul\":6188:6203   */\n      mstore\n        /* \"#utility.yul\":6222:6226   */\n      0x24\n        /* \"#utility.yul\":6219:6220   */\n      0x00\n        /* \"#utility.yul\":6212:6227   */\n      revert\n        /* \"#utility.yul\":6239:6356   */\n    tag_59:\n        /* \"#utility.yul\":6348:6349   */\n      0x00\n        /* \"#utility.yul\":6345:6346   */\n      dup1\n        /* \"#utility.yul\":6338:6350   */\n      revert\n        /* \"#utility.yul\":6362:6479   */\n    tag_48:\n        /* \"#utility.yul\":6471:6472   */\n      0x00\n        /* \"#utility.yul\":6468:6469   */\n      dup1\n        /* \"#utility.yul\":6461:6473   */\n      revert\n        /* \"#utility.yul\":6485:6602   */\n    tag_72:\n        /* \"#utility.yul\":6594:6595   */\n      0x00\n        /* \"#utility.yul\":6591:6592   */\n      dup1\n        /* \"#utility.yul\":6584:6596   */\n      revert\n        /* \"#utility.yul\":6608:6725   */\n    tag_68:\n        /* \"#utility.yul\":6717:6718   */\n      0x00\n        /* \"#utility.yul\":6714:6715   */\n      dup1\n        /* \"#utility.yul\":6707:6719   */\n      revert\n        /* \"#utility.yul\":6731:6833   */\n    tag_107:\n        /* \"#utility.yul\":6772:6778   */\n      0x00\n        /* \"#utility.yul\":6823:6825   */\n      0x1f\n        /* \"#utility.yul\":6819:6826   */\n      not\n        /* \"#utility.yul\":6814:6816   */\n      0x1f\n        /* \"#utility.yul\":6807:6812   */\n      dup4\n        /* \"#utility.yul\":6803:6817   */\n      add\n        /* \"#utility.yul\":6799:6827   */\n      and\n        /* \"#utility.yul\":6789:6827   */\n      swap1\n      pop\n        /* \"#utility.yul\":6731:6833   */\n      swap2\n      swap1\n      pop\n      jump\t// out\n        /* \"#utility.yul\":6839:6961   */\n    tag_54:\n        /* \"#utility.yul\":6912:6936   */\n      tag_140\n        /* \"#utility.yul\":6930:6935   */\n      dup2\n        /* \"#utility.yul\":6912:6936   */\n      tag_110\n      jump\t// in\n    tag_140:\n        /* \"#utility.yul\":6905:6910   */\n      dup2\n        /* \"#utility.yul\":6902:6937   */\n      eq\n        /* \"#utility.yul\":6892:6955   */\n      tag_141\n      jumpi\n        /* \"#utility.yul\":6951:6952   */\n      0x00\n        /* \"#utility.yul\":6948:6949   */\n      dup1\n        /* \"#utility.yul\":6941:6953   */\n      revert\n        /* \"#utility.yul\":6892:6955   */\n    tag_141:\n        /* \"#utility.yul\":6839:6961   */\n      pop\n      jump\t// out\n        /* \"#utility.yul\":6967:7089   */\n    tag_64:\n        /* \"#utility.yul\":7040:7064   */\n      tag_143\n        /* \"#utility.yul\":7058:7063   */\n      dup2\n        /* \"#utility.yul\":7040:7064   */\n      tag_115\n      jump\t// in\n    tag_143:\n        /* \"#utility.yul\":7033:7038   */\n      dup2\n        /* \"#utility.yul\":7030:7065   */\n      eq\n        /* \"#utility.yul\":7020:7083   */\n      tag_144\n      jumpi\n        /* \"#utility.yul\":7079:7080   */\n      0x00\n        /* \"#utility.yul\":7076:7077   */\n      dup1\n        /* \"#utility.yul\":7069:7081   */\n      revert\n        /* \"#utility.yul\":7020:7083   */\n    tag_144:\n        /* \"#utility.yul\":6967:7089   */\n      pop\n      jump\t// out\n\n    auxdata: 0xa2646970667358221220f6b6f1e83271b38fa09f4b94c1c54a948fbfeb00f87214871aedc06d4470853d64736f6c63430008070033\n}\n",
				"bytecode": {
					"linkReferences": {},
					"object": "608060405234801561001057600080fd5b50610733806100206000396000f3fe608060405234801561001057600080fd5b50600436106100355760003560e01c80629a4d3c1461003a578063e9e8a17c14610056575b600080fd5b610054600480360381019061004f91906103a9565b610072565b005b610070600480360381019061006b9190610448565b61015f565b005b61007a610209565b60405180608001604052808673ffffffffffffffffffffffffffffffffffffffff168152602001858152602001848152602001828152506005836040516100c191906104e8565b908152602001604051809103902060008201518160000160006101000a81548173ffffffffffffffffffffffffffffffffffffffff021916908373ffffffffffffffffffffffffffffffffffffffff160217905550602082015181600101908051906020019061013292919061022c565b506040820151816002015560608201518160030190602d6101549291906102b2565b509050505050505050565b60405180604001604052808481526020018273ffffffffffffffffffffffffffffffffffffffff168152506006600084815260200190815260200160002060008201518160000190805190602001906101b992919061022c565b5060208201518160010160006101000a81548173ffffffffffffffffffffffffffffffffffffffff021916908373ffffffffffffffffffffffffffffffffffffffff160217905550905050505050565b604051806105a00160405280602d90602082028036833780820191505090505090565b828054610238906105e9565b90600052602060002090601f01602090048101928261025a57600085556102a1565b82601f1061027357805160ff19168380011785556102a1565b828001600101855582156102a1579182015b828111156102a0578251825591602001919060010190610285565b5b5090506102ae91906102f2565b5090565b82602d81019282156102e1579160200282015b828111156102e05782518255916020019190600101906102c5565b5b5090506102ee91906102f2565b5090565b5b8082111561030b5760008160009055506001016102f3565b5090565b600061032261031d84610524565b6104ff565b90508281526020810184848401111561033e5761033d6106af565b5b6103498482856105a7565b509392505050565b600081359050610360816106cf565b92915050565b600082601f83011261037b5761037a6106aa565b5b813561038b84826020860161030f565b91505092915050565b6000813590506103a3816106e6565b92915050565b600080600080608085870312156103c3576103c26106b9565b5b60006103d187828801610351565b945050602085013567ffffffffffffffff8111156103f2576103f16106b4565b5b6103fe87828801610366565b935050604061040f87828801610394565b925050606085013567ffffffffffffffff8111156104305761042f6106b4565b5b61043c87828801610366565b91505092959194509250565b600080600060608486031215610461576104606106b9565b5b600084013567ffffffffffffffff81111561047f5761047e6106b4565b5b61048b86828701610366565b935050602061049c86828701610394565b92505060406104ad86828701610351565b9150509250925092565b60006104c282610555565b6104cc8185610560565b93506104dc8185602086016105b6565b80840191505092915050565b60006104f482846104b7565b915081905092915050565b600061050961051a565b9050610515828261061b565b919050565b6000604051905090565b600067ffffffffffffffff82111561053f5761053e61067b565b5b610548826106be565b9050602081019050919050565b600081519050919050565b600081905092915050565b60006105768261057d565b9050919050565b600073ffffffffffffffffffffffffffffffffffffffff82169050919050565b6000819050919050565b82818337600083830152505050565b60005b838110156105d45780820151818401526020810190506105b9565b838111156105e3576000848401525b50505050565b6000600282049050600182168061060157607f821691505b602082108114156106155761061461064c565b5b50919050565b610624826106be565b810181811067ffffffffffffffff821117156106435761064261067b565b5b80604052505050565b7f4e487b7100000000000000000000000000000000000000000000000000000000600052602260045260246000fd5b7f4e487b7100000000000000000000000000000000000000000000000000000000600052604160045260246000fd5b600080fd5b600080fd5b600080fd5b600080fd5b6000601f19601f8301169050919050565b6106d88161056b565b81146106e357600080fd5b50565b6106ef8161059d565b81146106fa57600080fd5b5056fea2646970667358221220f6b6f1e83271b38fa09f4b94c1c54a948fbfeb00f87214871aedc06d4470853d64736f6c63430008070033",
					"opcodes": "PUSH1 0x80 PUSH1 0x40 MSTORE CALLVALUE DUP1 ISZERO PUSH2 0x10 JUMPI PUSH1 0x0 DUP1 REVERT JUMPDEST POP PUSH2 0x733 DUP1 PUSH2 0x20 PUSH1 0x0 CODECOPY PUSH1 0x0 RETURN INVALID PUSH1 0x80 PUSH1 0x40 MSTORE CALLVALUE DUP1 ISZERO PUSH2 0x10 JUMPI PUSH1 0x0 DUP1 REVERT JUMPDEST POP PUSH1 0x4 CALLDATASIZE LT PUSH2 0x35 JUMPI PUSH1 0x0 CALLDATALOAD PUSH1 0xE0 SHR DUP1 PUSH3 0x9A4D3C EQ PUSH2 0x3A JUMPI DUP1 PUSH4 0xE9E8A17C EQ PUSH2 0x56 JUMPI JUMPDEST PUSH1 0x0 DUP1 REVERT JUMPDEST PUSH2 0x54 PUSH1 0x4 DUP1 CALLDATASIZE SUB DUP2 ADD SWAP1 PUSH2 0x4F SWAP2 SWAP1 PUSH2 0x3A9 JUMP JUMPDEST PUSH2 0x72 JUMP JUMPDEST STOP JUMPDEST PUSH2 0x70 PUSH1 0x4 DUP1 CALLDATASIZE SUB DUP2 ADD SWAP1 PUSH2 0x6B SWAP2 SWAP1 PUSH2 0x448 JUMP JUMPDEST PUSH2 0x15F JUMP JUMPDEST STOP JUMPDEST PUSH2 0x7A PUSH2 0x209 JUMP JUMPDEST PUSH1 0x40 MLOAD DUP1 PUSH1 0x80 ADD PUSH1 0x40 MSTORE DUP1 DUP7 PUSH20 0xFFFFFFFFFFFFFFFFFFFFFFFFFFFFFFFFFFFFFFFF AND DUP2 MSTORE PUSH1 0x20 ADD DUP6 DUP2 MSTORE PUSH1 0x20 ADD DUP5 DUP2 MSTORE PUSH1 0x20 ADD DUP3 DUP2 MSTORE POP PUSH1 0x5 DUP4 PUSH1 0x40 MLOAD PUSH2 0xC1 SWAP2 SWAP1 PUSH2 0x4E8 JUMP JUMPDEST SWAP1 DUP2 MSTORE PUSH1 0x20 ADD PUSH1 0x40 MLOAD DUP1 SWAP2 SUB SWAP1 KECCAK256 PUSH1 0x0 DUP3 ADD MLOAD DUP2 PUSH1 0x0 ADD PUSH1 0x0 PUSH2 0x100 EXP DUP2 SLOAD DUP2 PUSH20 0xFFFFFFFFFFFFFFFFFFFFFFFFFFFFFFFFFFFFFFFF MUL NOT AND SWAP1 DUP4 PUSH20 0xFFFFFFFFFFFFFFFFFFFFFFFFFFFFFFFFFFFFFFFF AND MUL OR SWAP1 SSTORE POP PUSH1 0x20 DUP3 ADD MLOAD DUP2 PUSH1 0x1 ADD SWAP1 DUP1 MLOAD SWAP1 PUSH1 0x20 ADD SWAP1 PUSH2 0x132 SWAP3 SWAP2 SWAP1 PUSH2 0x22C JUMP JUMPDEST POP PUSH1 0x40 DUP3 ADD MLOAD DUP2 PUSH1 0x2 ADD SSTORE PUSH1 0x60 DUP3 ADD MLOAD DUP2 PUSH1 0x3 ADD SWAP1 PUSH1 0x2D PUSH2 0x154 SWAP3 SWAP2 SWAP1 PUSH2 0x2B2 JUMP JUMPDEST POP SWAP1 POP POP POP POP POP POP POP JUMP JUMPDEST PUSH1 0x40 MLOAD DUP1 PUSH1 0x40 ADD PUSH1 0x40 MSTORE DUP1 DUP5 DUP2 MSTORE PUSH1 0x20 ADD DUP3 PUSH20 0xFFFFFFFFFFFFFFFFFFFFFFFFFFFFFFFFFFFFFFFF AND DUP2 MSTORE POP PUSH1 0x6 PUSH1 0x0 DUP5 DUP2 MSTORE PUSH1 0x20 ADD SWAP1 DUP2 MSTORE PUSH1 0x20 ADD PUSH1 0x0 KECCAK256 PUSH1 0x0 DUP3 ADD MLOAD DUP2 PUSH1 0x0 ADD SWAP1 DUP1 MLOAD SWAP1 PUSH1 0x20 ADD SWAP1 PUSH2 0x1B9 SWAP3 SWAP2 SWAP1 PUSH2 0x22C JUMP JUMPDEST POP PUSH1 0x20 DUP3 ADD MLOAD DUP2 PUSH1 0x1 ADD PUSH1 0x0 PUSH2 0x100 EXP DUP2 SLOAD DUP2 PUSH20 0xFFFFFFFFFFFFFFFFFFFFFFFFFFFFFFFFFFFFFFFF MUL NOT AND SWAP1 DUP4 PUSH20 0xFFFFFFFFFFFFFFFFFFFFFFFFFFFFFFFFFFFFFFFF AND MUL OR SWAP1 SSTORE POP SWAP1 POP POP POP POP POP JUMP JUMPDEST PUSH1 0x40 MLOAD DUP1 PUSH2 0x5A0 ADD PUSH1 0x40 MSTORE DUP1 PUSH1 0x2D SWAP1 PUSH1 0x20 DUP3 MUL DUP1 CALLDATASIZE DUP4 CALLDATACOPY DUP1 DUP3 ADD SWAP2 POP POP SWAP1 POP POP SWAP1 JUMP JUMPDEST DUP3 DUP1 SLOAD PUSH2 0x238 SWAP1 PUSH2 0x5E9 JUMP JUMPDEST SWAP1 PUSH1 0x0 MSTORE PUSH1 0x20 PUSH1 0x0 KECCAK256 SWAP1 PUSH1 0x1F ADD PUSH1 0x20 SWAP1 DIV DUP2 ADD SWAP3 DUP3 PUSH2 0x25A JUMPI PUSH1 0x0 DUP6 SSTORE PUSH2 0x2A1 JUMP JUMPDEST DUP3 PUSH1 0x1F LT PUSH2 0x273 JUMPI DUP1 MLOAD PUSH1 0xFF NOT AND DUP4 DUP1 ADD OR DUP6 SSTORE PUSH2 0x2A1 JUMP JUMPDEST DUP3 DUP1 ADD PUSH1 0x1 ADD DUP6 SSTORE DUP3 ISZERO PUSH2 0x2A1 JUMPI SWAP2 DUP3 ADD JUMPDEST DUP3 DUP2 GT ISZERO PUSH2 0x2A0 JUMPI DUP3 MLOAD DUP3 SSTORE SWAP2 PUSH1 0x20 ADD SWAP2 SWAP1 PUSH1 0x1 ADD SWAP1 PUSH2 0x285 JUMP JUMPDEST JUMPDEST POP SWAP1 POP PUSH2 0x2AE SWAP2 SWAP1 PUSH2 0x2F2 JUMP JUMPDEST POP SWAP1 JUMP JUMPDEST DUP3 PUSH1 0x2D DUP2 ADD SWAP3 DUP3 ISZERO PUSH2 0x2E1 JUMPI SWAP2 PUSH1 0x20 MUL DUP3 ADD JUMPDEST DUP3 DUP2 GT ISZERO PUSH2 0x2E0 JUMPI DUP3 MLOAD DUP3 SSTORE SWAP2 PUSH1 0x20 ADD SWAP2 SWAP1 PUSH1 0x1 ADD SWAP1 PUSH2 0x2C5 JUMP JUMPDEST JUMPDEST POP SWAP1 POP PUSH2 0x2EE SWAP2 SWAP1 PUSH2 0x2F2 JUMP JUMPDEST POP SWAP1 JUMP JUMPDEST JUMPDEST DUP1 DUP3 GT ISZERO PUSH2 0x30B JUMPI PUSH1 0x0 DUP2 PUSH1 0x0 SWAP1 SSTORE POP PUSH1 0x1 ADD PUSH2 0x2F3 JUMP JUMPDEST POP SWAP1 JUMP JUMPDEST PUSH1 0x0 PUSH2 0x322 PUSH2 0x31D DUP5 PUSH2 0x524 JUMP JUMPDEST PUSH2 0x4FF JUMP JUMPDEST SWAP1 POP DUP3 DUP2 MSTORE PUSH1 0x20 DUP2 ADD DUP5 DUP5 DUP5 ADD GT ISZERO PUSH2 0x33E JUMPI PUSH2 0x33D PUSH2 0x6AF JUMP JUMPDEST JUMPDEST PUSH2 0x349 DUP5 DUP3 DUP6 PUSH2 0x5A7 JUMP JUMPDEST POP SWAP4 SWAP3 POP POP POP JUMP JUMPDEST PUSH1 0x0 DUP2 CALLDATALOAD SWAP1 POP PUSH2 0x360 DUP2 PUSH2 0x6CF JUMP JUMPDEST SWAP3 SWAP2 POP POP JUMP JUMPDEST PUSH1 0x0 DUP3 PUSH1 0x1F DUP4 ADD SLT PUSH2 0x37B JUMPI PUSH2 0x37A PUSH2 0x6AA JUMP JUMPDEST JUMPDEST DUP2 CALLDATALOAD PUSH2 0x38B DUP5 DUP3 PUSH1 0x20 DUP7 ADD PUSH2 0x30F JUMP JUMPDEST SWAP2 POP POP SWAP3 SWAP2 POP POP JUMP JUMPDEST PUSH1 0x0 DUP2 CALLDATALOAD SWAP1 POP PUSH2 0x3A3 DUP2 PUSH2 0x6E6 JUMP JUMPDEST SWAP3 SWAP2 POP POP JUMP JUMPDEST PUSH1 0x0 DUP1 PUSH1 0x0 DUP1 PUSH1 0x80 DUP6 DUP8 SUB SLT ISZERO PUSH2 0x3C3 JUMPI PUSH2 0x3C2 PUSH2 0x6B9 JUMP JUMPDEST JUMPDEST PUSH1 0x0 PUSH2 0x3D1 DUP8 DUP3 DUP9 ADD PUSH2 0x351 JUMP JUMPDEST SWAP5 POP POP PUSH1 0x20 DUP6 ADD CALLDATALOAD PUSH8 0xFFFFFFFFFFFFFFFF DUP2 GT ISZERO PUSH2 0x3F2 JUMPI PUSH2 0x3F1 PUSH2 0x6B4 JUMP JUMPDEST JUMPDEST PUSH2 0x3FE DUP8 DUP3 DUP9 ADD PUSH2 0x366 JUMP JUMPDEST SWAP4 POP POP PUSH1 0x40 PUSH2 0x40F DUP8 DUP3 DUP9 ADD PUSH2 0x394 JUMP JUMPDEST SWAP3 POP POP PUSH1 0x60 DUP6 ADD CALLDATALOAD PUSH8 0xFFFFFFFFFFFFFFFF DUP2 GT ISZERO PUSH2 0x430 JUMPI PUSH2 0x42F PUSH2 0x6B4 JUMP JUMPDEST JUMPDEST PUSH2 0x43C DUP8 DUP3 DUP9 ADD PUSH2 0x366 JUMP JUMPDEST SWAP2 POP POP SWAP3 SWAP6 SWAP2 SWAP5 POP SWAP3 POP JUMP JUMPDEST PUSH1 0x0 DUP1 PUSH1 0x0 PUSH1 0x60 DUP5 DUP7 SUB SLT ISZERO PUSH2 0x461 JUMPI PUSH2 0x460 PUSH2 0x6B9 JUMP JUMPDEST JUMPDEST PUSH1 0x0 DUP5 ADD CALLDATALOAD PUSH8 0xFFFFFFFFFFFFFFFF DUP2 GT ISZERO PUSH2 0x47F JUMPI PUSH2 0x47E PUSH2 0x6B4 JUMP JUMPDEST JUMPDEST PUSH2 0x48B DUP7 DUP3 DUP8 ADD PUSH2 0x366 JUMP JUMPDEST SWAP4 POP POP PUSH1 0x20 PUSH2 0x49C DUP7 DUP3 DUP8 ADD PUSH2 0x394 JUMP JUMPDEST SWAP3 POP POP PUSH1 0x40 PUSH2 0x4AD DUP7 DUP3 DUP8 ADD PUSH2 0x351 JUMP JUMPDEST SWAP2 POP POP SWAP3 POP SWAP3 POP SWAP3 JUMP JUMPDEST PUSH1 0x0 PUSH2 0x4C2 DUP3 PUSH2 0x555 JUMP JUMPDEST PUSH2 0x4CC DUP2 DUP6 PUSH2 0x560 JUMP JUMPDEST SWAP4 POP PUSH2 0x4DC DUP2 DUP6 PUSH1 0x20 DUP7 ADD PUSH2 0x5B6 JUMP JUMPDEST DUP1 DUP5 ADD SWAP2 POP POP SWAP3 SWAP2 POP POP JUMP JUMPDEST PUSH1 0x0 PUSH2 0x4F4 DUP3 DUP5 PUSH2 0x4B7 JUMP JUMPDEST SWAP2 POP DUP2 SWAP1 POP SWAP3 SWAP2 POP POP JUMP JUMPDEST PUSH1 0x0 PUSH2 0x509 PUSH2 0x51A JUMP JUMPDEST SWAP1 POP PUSH2 0x515 DUP3 DUP3 PUSH2 0x61B JUMP JUMPDEST SWAP2 SWAP1 POP JUMP JUMPDEST PUSH1 0x0 PUSH1 0x40 MLOAD SWAP1 POP SWAP1 JUMP JUMPDEST PUSH1 0x0 PUSH8 0xFFFFFFFFFFFFFFFF DUP3 GT ISZERO PUSH2 0x53F JUMPI PUSH2 0x53E PUSH2 0x67B JUMP JUMPDEST JUMPDEST PUSH2 0x548 DUP3 PUSH2 0x6BE JUMP JUMPDEST SWAP1 POP PUSH1 0x20 DUP2 ADD SWAP1 POP SWAP2 SWAP1 POP JUMP JUMPDEST PUSH1 0x0 DUP2 MLOAD SWAP1 POP SWAP2 SWAP1 POP JUMP JUMPDEST PUSH1 0x0 DUP2 SWAP1 POP SWAP3 SWAP2 POP POP JUMP JUMPDEST PUSH1 0x0 PUSH2 0x576 DUP3 PUSH2 0x57D JUMP JUMPDEST SWAP1 POP SWAP2 SWAP1 POP JUMP JUMPDEST PUSH1 0x0 PUSH20 0xFFFFFFFFFFFFFFFFFFFFFFFFFFFFFFFFFFFFFFFF DUP3 AND SWAP1 POP SWAP2 SWAP1 POP JUMP JUMPDEST PUSH1 0x0 DUP2 SWAP1 POP SWAP2 SWAP1 POP JUMP JUMPDEST DUP3 DUP2 DUP4 CALLDATACOPY PUSH1 0x0 DUP4 DUP4 ADD MSTORE POP POP POP JUMP JUMPDEST PUSH1 0x0 JUMPDEST DUP4 DUP2 LT ISZERO PUSH2 0x5D4 JUMPI DUP1 DUP3 ADD MLOAD DUP2 DUP5 ADD MSTORE PUSH1 0x20 DUP2 ADD SWAP1 POP PUSH2 0x5B9 JUMP JUMPDEST DUP4 DUP2 GT ISZERO PUSH2 0x5E3 JUMPI PUSH1 0x0 DUP5 DUP5 ADD MSTORE JUMPDEST POP POP POP POP JUMP JUMPDEST PUSH1 0x0 PUSH1 0x2 DUP3 DIV SWAP1 POP PUSH1 0x1 DUP3 AND DUP1 PUSH2 0x601 JUMPI PUSH1 0x7F DUP3 AND SWAP2 POP JUMPDEST PUSH1 0x20 DUP3 LT DUP2 EQ ISZERO PUSH2 0x615 JUMPI PUSH2 0x614 PUSH2 0x64C JUMP JUMPDEST JUMPDEST POP SWAP2 SWAP1 POP JUMP JUMPDEST PUSH2 0x624 DUP3 PUSH2 0x6BE JUMP JUMPDEST DUP2 ADD DUP2 DUP2 LT PUSH8 0xFFFFFFFFFFFFFFFF DUP3 GT OR ISZERO PUSH2 0x643 JUMPI PUSH2 0x642 PUSH2 0x67B JUMP JUMPDEST JUMPDEST DUP1 PUSH1 0x40 MSTORE POP POP POP JUMP JUMPDEST PUSH32 0x4E487B7100000000000000000000000000000000000000000000000000000000 PUSH1 0x0 MSTORE PUSH1 0x22 PUSH1 0x4 MSTORE PUSH1 0x24 PUSH1 0x0 REVERT JUMPDEST PUSH32 0x4E487B7100000000000000000000000000000000000000000000000000000000 PUSH1 0x0 MSTORE PUSH1 0x41 PUSH1 0x4 MSTORE PUSH1 0x24 PUSH1 0x0 REVERT JUMPDEST PUSH1 0x0 DUP1 REVERT JUMPDEST PUSH1 0x0 DUP1 REVERT JUMPDEST PUSH1 0x0 DUP1 REVERT JUMPDEST PUSH1 0x0 DUP1 REVERT JUMPDEST PUSH1 0x0 PUSH1 0x1F NOT PUSH1 0x1F DUP4 ADD AND SWAP1 POP SWAP2 SWAP1 POP JUMP JUMPDEST PUSH2 0x6D8 DUP2 PUSH2 0x56B JUMP JUMPDEST DUP2 EQ PUSH2 0x6E3 JUMPI PUSH1 0x0 DUP1 REVERT JUMPDEST POP JUMP JUMPDEST PUSH2 0x6EF DUP2 PUSH2 0x59D JUMP JUMPDEST DUP2 EQ PUSH2 0x6FA JUMPI PUSH1 0x0 DUP1 REVERT JUMPDEST POP JUMP INVALID LOG2 PUSH5 0x6970667358 0x22 SLT KECCAK256 0xF6 0xB6 CALL 0xE8 ORIGIN PUSH18 0xB38FA09F4B94C1C54A948FBFEB00F8721487 BYTE 0xED 0xC0 PUSH14 0x4470853D64736F6C634300080700 CALLER "
				},
				"gasEstimates": {
					"creation": {
						"codeDepositCost": "368600",
						"executionCost": "405",
						"totalCost": "369005"
					},
					"external": {
						"addBus(address,string,uint256,string)": "infinite",
						"addStudent(string,uint256,address)": "infinite"
					},
					"internal": {
						"deleteStudent(uint256)": "infinite"
					}
				},
				"methodIdentifiers": {
					"addBus(address,string,uint256,string)": "009a4d3c",
					"addStudent(string,uint256,address)": "e9e8a17c"
				}
			},
			"storageLayout": {
				"storage": [
					{
						"astId": 21,
						"contract": "contracts/minsubus.sol:Database",
						"label": "manager",
						"offset": 0,
						"slot": "0",
						"type": "t_address"
					},
					{
						"astId": 24,
						"contract": "contracts/minsubus.sol:Database",
						"label": "buses",
						"offset": 0,
						"slot": "1",
						"type": "t_array(t_address)dyn_storage"
					},
					{
						"astId": 27,
						"contract": "contracts/minsubus.sol:Database",
						"label": "students",
						"offset": 0,
						"slot": "2",
						"type": "t_array(t_address)dyn_storage"
					},
					{
						"astId": 30,
						"contract": "contracts/minsubus.sol:Database",
						"label": "busNum",
						"offset": 0,
						"slot": "3",
						"type": "t_array(t_string_storage)dyn_storage"
					},
					{
						"astId": 33,
						"contract": "contracts/minsubus.sol:Database",
						"label": "studentNum",
						"offset": 0,
						"slot": "4",
						"type": "t_array(t_uint256)dyn_storage"
					},
					{
						"astId": 38,
						"contract": "contracts/minsubus.sol:Database",
						"label": "BusDB",
						"offset": 0,
						"slot": "5",
						"type": "t_mapping(t_string_memory_ptr,t_struct(Bus_DB)19_storage)"
					},
					{
						"astId": 43,
						"contract": "contracts/minsubus.sol:Database",
						"label": "StudentDB",
						"offset": 0,
						"slot": "6",
						"type": "t_mapping(t_uint256,t_struct(Student_DB)8_storage)"
					}
				],
				"types": {
					"t_address": {
						"encoding": "inplace",
						"label": "address",
						"numberOfBytes": "20"
					},
					"t_array(t_address)dyn_storage": {
						"base": "t_address",
						"encoding": "dynamic_array",
						"label": "address[]",
						"numberOfBytes": "32"
					},
					"t_array(t_string_storage)dyn_storage": {
						"base": "t_string_storage",
						"encoding": "dynamic_array",
						"label": "string[]",
						"numberOfBytes": "32"
					},
					"t_array(t_uint256)45_storage": {
						"base": "t_uint256",
						"encoding": "inplace",
						"label": "uint256[45]",
						"numberOfBytes": "1440"
					},
					"t_array(t_uint256)dyn_storage": {
						"base": "t_uint256",
						"encoding": "dynamic_array",
						"label": "uint256[]",
						"numberOfBytes": "32"
					},
					"t_mapping(t_string_memory_ptr,t_struct(Bus_DB)19_storage)": {
						"encoding": "mapping",
						"key": "t_string_memory_ptr",
						"label": "mapping(string => struct Database.Bus_DB)",
						"numberOfBytes": "32",
						"value": "t_struct(Bus_DB)19_storage"
					},
					"t_mapping(t_uint256,t_struct(Student_DB)8_storage)": {
						"encoding": "mapping",
						"key": "t_uint256",
						"label": "mapping(uint256 => struct Database.Student_DB)",
						"numberOfBytes": "32",
						"value": "t_struct(Student_DB)8_storage"
					},
					"t_string_memory_ptr": {
						"encoding": "bytes",
						"label": "string",
						"numberOfBytes": "32"
					},
					"t_string_storage": {
						"encoding": "bytes",
						"label": "string",
						"numberOfBytes": "32"
					},
					"t_struct(Bus_DB)19_storage": {
						"encoding": "inplace",
						"label": "struct Database.Bus_DB",
						"members": [
							{
								"astId": 10,
								"contract": "contracts/minsubus.sol:Database",
								"label": "bus",
								"offset": 0,
								"slot": "0",
								"type": "t_address"
							},
							{
								"astId": 12,
								"contract": "contracts/minsubus.sol:Database",
								"label": "destination",
								"offset": 0,
								"slot": "1",
								"type": "t_string_storage"
							},
							{
								"astId": 14,
								"contract": "contracts/minsubus.sol:Database",
								"label": "start_time",
								"offset": 0,
								"slot": "2",
								"type": "t_uint256"
							},
							{
								"astId": 18,
								"contract": "contracts/minsubus.sol:Database",
								"label": "Seat_number",
								"offset": 0,
								"slot": "3",
								"type": "t_array(t_uint256)45_storage"
							}
						],
						"numberOfBytes": "1536"
					},
					"t_struct(Student_DB)8_storage": {
						"encoding": "inplace",
						"label": "struct Database.Student_DB",
						"members": [
							{
								"astId": 5,
								"contract": "contracts/minsubus.sol:Database",
								"label": "student_name",
								"offset": 0,
								"slot": "0",
								"type": "t_string_storage"
							},
							{
								"astId": 7,
								"contract": "contracts/minsubus.sol:Database",
								"label": "student",
								"offset": 0,
								"slot": "1",
								"type": "t_address"
							}
						],
						"numberOfBytes": "64"
					},
					"t_uint256": {
						"encoding": "inplace",
						"label": "uint256",
						"numberOfBytes": "32"
					}
				}
			},
			"userdoc": {
				"kind": "user",
				"methods": {},
				"version": 1
			}
		}
	}
}