{
	"contracts/Bus.sol": {
		"Bus": {
			"abi": [
				{
					"inputs": [
						{
							"internalType": "string[]",
							"name": "data",
							"type": "string[]"
						}
					],
					"stateMutability": "nonpayable",
					"type": "constructor"
				},
				{
					"inputs": [
						{
							"internalType": "uint256",
							"name": "",
							"type": "uint256"
						}
					],
					"name": "busSeat",
					"outputs": [
						{
							"internalType": "uint256",
							"name": "seatNum",
							"type": "uint256"
						},
						{
							"internalType": "uint256",
							"name": "studentId",
							"type": "uint256"
						},
						{
							"internalType": "address",
							"name": "student",
							"type": "address"
						}
					],
					"stateMutability": "view",
					"type": "function"
				},
				{
					"inputs": [
						{
							"internalType": "uint256",
							"name": "_seatNum",
							"type": "uint256"
						},
						{
							"internalType": "uint256",
							"name": "_studentId",
							"type": "uint256"
						},
						{
							"internalType": "address",
							"name": "_student",
							"type": "address"
						}
					],
					"name": "reservationBus",
					"outputs": [],
					"stateMutability": "nonpayable",
					"type": "function"
				}
			],
			"devdoc": {
				"kind": "dev",
				"methods": {},
				"version": 1
			},
			"evm": {
				"assembly": "    /* \"contracts/Bus.sol\":102:613  contract Bus{... */\n  mstore(0x40, 0x80)\n    /* \"contracts/Bus.sol\":298:398  constructor(string[] memory data){... */\n  callvalue\n  dup1\n  iszero\n  tag_1\n  jumpi\n  0x00\n  dup1\n  revert\ntag_1:\n  pop\n  mload(0x40)\n  sub(codesize, bytecodeSize)\n  dup1\n  bytecodeSize\n  dup4\n  codecopy\n  dup2\n  dup2\n  add\n  0x40\n  mstore\n  dup2\n  add\n  swap1\n  tag_2\n  swap2\n  swap1\n  tag_3\n  jump\t// in\ntag_2:\n    /* \"contracts/Bus.sol\":351:355  data */\n  dup1\n    /* \"contracts/Bus.sol\":356:357  0 */\n  0x00\n    /* \"contracts/Bus.sol\":351:358  data[0] */\n  dup2\n  mload\n  dup2\n  lt\n  tag_6\n  jumpi\n  tag_7\n  tag_8\n  jump\t// in\ntag_7:\ntag_6:\n  0x20\n  mul\n  0x20\n  add\n  add\n  mload\n    /* \"contracts/Bus.sol\":342:348  busNum */\n  0x01\n    /* \"contracts/Bus.sol\":342:358  busNum = data[0] */\n  swap1\n  dup1\n  mload\n  swap1\n  0x20\n  add\n  swap1\n  tag_9\n  swap3\n  swap2\n  swap1\n  tag_10\n  jump\t// in\ntag_9:\n  pop\n    /* \"contracts/Bus.sol\":383:387  data */\n  dup1\n    /* \"contracts/Bus.sol\":388:389  1 */\n  0x01\n    /* \"contracts/Bus.sol\":383:390  data[1] */\n  dup2\n  mload\n  dup2\n  lt\n  tag_11\n  jumpi\n  tag_12\n  tag_8\n  jump\t// in\ntag_12:\ntag_11:\n  0x20\n  mul\n  0x20\n  add\n  add\n  mload\n    /* \"contracts/Bus.sol\":369:380  destination */\n  0x02\n    /* \"contracts/Bus.sol\":369:390  destination = data[1] */\n  swap1\n  dup1\n  mload\n  swap1\n  0x20\n  add\n  swap1\n  tag_13\n  swap3\n  swap2\n  swap1\n  tag_10\n  jump\t// in\ntag_13:\n  pop\n    /* \"contracts/Bus.sol\":298:398  constructor(string[] memory data){... */\n  pop\n    /* \"contracts/Bus.sol\":102:613  contract Bus{... */\n  jump(tag_14)\ntag_10:\n  dup3\n  dup1\n  sload\n  tag_15\n  swap1\n  tag_16\n  jump\t// in\ntag_15:\n  swap1\n  0x00\n  mstore\n  keccak256(0x00, 0x20)\n  swap1\n  0x1f\n  add\n  0x20\n  swap1\n  div\n  dup2\n  add\n  swap3\n  dup3\n  tag_18\n  jumpi\n  0x00\n  dup6\n  sstore\n  jump(tag_17)\ntag_18:\n  dup3\n  0x1f\n  lt\n  tag_19\n  jumpi\n  dup1\n  mload\n  not(0xff)\n  and\n  dup4\n  dup1\n  add\n  or\n  dup6\n  sstore\n  jump(tag_17)\ntag_19:\n  dup3\n  dup1\n  add\n  0x01\n  add\n  dup6\n  sstore\n  dup3\n  iszero\n  tag_17\n  jumpi\n  swap2\n  dup3\n  add\ntag_20:\n  dup3\n  dup2\n  gt\n  iszero\n  tag_21\n  jumpi\n  dup3\n  mload\n  dup3\n  sstore\n  swap2\n  0x20\n  add\n  swap2\n  swap1\n  0x01\n  add\n  swap1\n  jump(tag_20)\ntag_21:\ntag_17:\n  pop\n  swap1\n  pop\n  tag_22\n  swap2\n  swap1\n  tag_23\n  jump\t// in\ntag_22:\n  pop\n  swap1\n  jump\t// out\ntag_23:\ntag_24:\n  dup1\n  dup3\n  gt\n  iszero\n  tag_25\n  jumpi\n  0x00\n  dup2\n  0x00\n  swap1\n  sstore\n  pop\n  0x01\n  add\n  jump(tag_24)\ntag_25:\n  pop\n  swap1\n  jump\t// out\n    /* \"#utility.yul\":23:995   */\ntag_27:\n    /* \"#utility.yul\":140:145   */\n  0x00\n    /* \"#utility.yul\":165:256   */\n  tag_29\n    /* \"#utility.yul\":181:255   */\n  tag_30\n    /* \"#utility.yul\":248:254   */\n  dup5\n    /* \"#utility.yul\":181:255   */\n  tag_31\n  jump\t// in\ntag_30:\n    /* \"#utility.yul\":165:256   */\n  tag_32\n  jump\t// in\ntag_29:\n    /* \"#utility.yul\":156:256   */\n  swap1\n  pop\n    /* \"#utility.yul\":276:281   */\n  dup1\n    /* \"#utility.yul\":305:311   */\n  dup4\n    /* \"#utility.yul\":298:303   */\n  dup3\n    /* \"#utility.yul\":291:312   */\n  mstore\n    /* \"#utility.yul\":339:343   */\n  0x20\n    /* \"#utility.yul\":332:337   */\n  dup3\n    /* \"#utility.yul\":328:344   */\n  add\n    /* \"#utility.yul\":321:344   */\n  swap1\n  pop\n    /* \"#utility.yul\":365:371   */\n  dup3\n    /* \"#utility.yul\":415:418   */\n  dup6\n    /* \"#utility.yul\":407:411   */\n  0x20\n    /* \"#utility.yul\":399:405   */\n  dup7\n    /* \"#utility.yul\":395:412   */\n  mul\n    /* \"#utility.yul\":390:393   */\n  dup3\n    /* \"#utility.yul\":386:413   */\n  add\n    /* \"#utility.yul\":383:419   */\n  gt\n    /* \"#utility.yul\":380:523   */\n  iszero\n  tag_33\n  jumpi\n    /* \"#utility.yul\":434:513   */\n  tag_34\n  tag_35\n  jump\t// in\ntag_34:\n    /* \"#utility.yul\":380:523   */\ntag_33:\n    /* \"#utility.yul\":547:548   */\n  0x00\n    /* \"#utility.yul\":532:989   */\ntag_36:\n    /* \"#utility.yul\":557:563   */\n  dup6\n    /* \"#utility.yul\":554:555   */\n  dup2\n    /* \"#utility.yul\":551:564   */\n  lt\n    /* \"#utility.yul\":532:989   */\n  iszero\n  tag_38\n  jumpi\n    /* \"#utility.yul\":632:635   */\n  dup2\n    /* \"#utility.yul\":626:636   */\n  mload\n    /* \"#utility.yul\":668:686   */\n  0xffffffffffffffff\n    /* \"#utility.yul\":655:666   */\n  dup2\n    /* \"#utility.yul\":652:687   */\n  gt\n    /* \"#utility.yul\":649:771   */\n  iszero\n  tag_39\n  jumpi\n    /* \"#utility.yul\":690:769   */\n  tag_40\n  tag_41\n  jump\t// in\ntag_40:\n    /* \"#utility.yul\":649:771   */\ntag_39:\n    /* \"#utility.yul\":814:825   */\n  dup1\n    /* \"#utility.yul\":806:812   */\n  dup7\n    /* \"#utility.yul\":802:826   */\n  add\n    /* \"#utility.yul\":852:910   */\n  tag_42\n    /* \"#utility.yul\":906:909   */\n  dup10\n    /* \"#utility.yul\":894:904   */\n  dup3\n    /* \"#utility.yul\":852:910   */\n  tag_43\n  jump\t// in\ntag_42:\n    /* \"#utility.yul\":847:850   */\n  dup6\n    /* \"#utility.yul\":840:911   */\n  mstore\n    /* \"#utility.yul\":940:944   */\n  0x20\n    /* \"#utility.yul\":935:938   */\n  dup6\n    /* \"#utility.yul\":931:945   */\n  add\n    /* \"#utility.yul\":924:945   */\n  swap5\n  pop\n    /* \"#utility.yul\":974:978   */\n  0x20\n    /* \"#utility.yul\":969:972   */\n  dup5\n    /* \"#utility.yul\":965:979   */\n  add\n    /* \"#utility.yul\":958:979   */\n  swap4\n  pop\n    /* \"#utility.yul\":592:989   */\n  pop\n  pop\n    /* \"#utility.yul\":579:580   */\n  0x01\n    /* \"#utility.yul\":576:577   */\n  dup2\n    /* \"#utility.yul\":572:581   */\n  add\n    /* \"#utility.yul\":567:581   */\n  swap1\n  pop\n    /* \"#utility.yul\":532:989   */\n  jump(tag_36)\ntag_38:\n    /* \"#utility.yul\":536:550   */\n  pop\n    /* \"#utility.yul\":146:995   */\n  pop\n  pop\n    /* \"#utility.yul\":23:995   */\n  swap4\n  swap3\n  pop\n  pop\n  pop\n  jump\t// out\n    /* \"#utility.yul\":1001:1422   */\ntag_44:\n    /* \"#utility.yul\":1090:1095   */\n  0x00\n    /* \"#utility.yul\":1115:1181   */\n  tag_46\n    /* \"#utility.yul\":1131:1180   */\n  tag_47\n    /* \"#utility.yul\":1173:1179   */\n  dup5\n    /* \"#utility.yul\":1131:1180   */\n  tag_48\n  jump\t// in\ntag_47:\n    /* \"#utility.yul\":1115:1181   */\n  tag_32\n  jump\t// in\ntag_46:\n    /* \"#utility.yul\":1106:1181   */\n  swap1\n  pop\n    /* \"#utility.yul\":1204:1210   */\n  dup3\n    /* \"#utility.yul\":1197:1202   */\n  dup2\n    /* \"#utility.yul\":1190:1211   */\n  mstore\n    /* \"#utility.yul\":1242:1246   */\n  0x20\n    /* \"#utility.yul\":1235:1240   */\n  dup2\n    /* \"#utility.yul\":1231:1247   */\n  add\n    /* \"#utility.yul\":1280:1283   */\n  dup5\n    /* \"#utility.yul\":1271:1277   */\n  dup5\n    /* \"#utility.yul\":1266:1269   */\n  dup5\n    /* \"#utility.yul\":1262:1278   */\n  add\n    /* \"#utility.yul\":1259:1284   */\n  gt\n    /* \"#utility.yul\":1256:1368   */\n  iszero\n  tag_49\n  jumpi\n    /* \"#utility.yul\":1287:1366   */\n  tag_50\n  tag_51\n  jump\t// in\ntag_50:\n    /* \"#utility.yul\":1256:1368   */\ntag_49:\n    /* \"#utility.yul\":1377:1416   */\n  tag_52\n    /* \"#utility.yul\":1409:1415   */\n  dup5\n    /* \"#utility.yul\":1404:1407   */\n  dup3\n    /* \"#utility.yul\":1399:1402   */\n  dup6\n    /* \"#utility.yul\":1377:1416   */\n  tag_53\n  jump\t// in\ntag_52:\n    /* \"#utility.yul\":1096:1422   */\n  pop\n    /* \"#utility.yul\":1001:1422   */\n  swap4\n  swap3\n  pop\n  pop\n  pop\n  jump\t// out\n    /* \"#utility.yul\":1444:1849   */\ntag_54:\n    /* \"#utility.yul\":1536:1541   */\n  0x00\n    /* \"#utility.yul\":1585:1588   */\n  dup3\n    /* \"#utility.yul\":1578:1582   */\n  0x1f\n    /* \"#utility.yul\":1570:1576   */\n  dup4\n    /* \"#utility.yul\":1566:1583   */\n  add\n    /* \"#utility.yul\":1562:1589   */\n  slt\n    /* \"#utility.yul\":1552:1674   */\n  tag_56\n  jumpi\n    /* \"#utility.yul\":1593:1672   */\n  tag_57\n  tag_41\n  jump\t// in\ntag_57:\n    /* \"#utility.yul\":1552:1674   */\ntag_56:\n    /* \"#utility.yul\":1703:1709   */\n  dup2\n    /* \"#utility.yul\":1697:1710   */\n  mload\n    /* \"#utility.yul\":1728:1843   */\n  tag_58\n    /* \"#utility.yul\":1839:1842   */\n  dup5\n    /* \"#utility.yul\":1831:1837   */\n  dup3\n    /* \"#utility.yul\":1824:1828   */\n  0x20\n    /* \"#utility.yul\":1816:1822   */\n  dup7\n    /* \"#utility.yul\":1812:1829   */\n  add\n    /* \"#utility.yul\":1728:1843   */\n  tag_27\n  jump\t// in\ntag_58:\n    /* \"#utility.yul\":1719:1843   */\n  swap2\n  pop\n    /* \"#utility.yul\":1542:1849   */\n  pop\n    /* \"#utility.yul\":1444:1849   */\n  swap3\n  swap2\n  pop\n  pop\n  jump\t// out\n    /* \"#utility.yul\":1869:2224   */\ntag_43:\n    /* \"#utility.yul\":1936:1941   */\n  0x00\n    /* \"#utility.yul\":1985:1988   */\n  dup3\n    /* \"#utility.yul\":1978:1982   */\n  0x1f\n    /* \"#utility.yul\":1970:1976   */\n  dup4\n    /* \"#utility.yul\":1966:1983   */\n  add\n    /* \"#utility.yul\":1962:1989   */\n  slt\n    /* \"#utility.yul\":1952:2074   */\n  tag_60\n  jumpi\n    /* \"#utility.yul\":1993:2072   */\n  tag_61\n  tag_41\n  jump\t// in\ntag_61:\n    /* \"#utility.yul\":1952:2074   */\ntag_60:\n    /* \"#utility.yul\":2103:2109   */\n  dup2\n    /* \"#utility.yul\":2097:2110   */\n  mload\n    /* \"#utility.yul\":2128:2218   */\n  tag_62\n    /* \"#utility.yul\":2214:2217   */\n  dup5\n    /* \"#utility.yul\":2206:2212   */\n  dup3\n    /* \"#utility.yul\":2199:2203   */\n  0x20\n    /* \"#utility.yul\":2191:2197   */\n  dup7\n    /* \"#utility.yul\":2187:2204   */\n  add\n    /* \"#utility.yul\":2128:2218   */\n  tag_44\n  jump\t// in\ntag_62:\n    /* \"#utility.yul\":2119:2218   */\n  swap2\n  pop\n    /* \"#utility.yul\":1942:2224   */\n  pop\n    /* \"#utility.yul\":1869:2224   */\n  swap3\n  swap2\n  pop\n  pop\n  jump\t// out\n    /* \"#utility.yul\":2230:2804   */\ntag_3:\n    /* \"#utility.yul\":2335:2341   */\n  0x00\n    /* \"#utility.yul\":2384:2386   */\n  0x20\n    /* \"#utility.yul\":2372:2381   */\n  dup3\n    /* \"#utility.yul\":2363:2370   */\n  dup5\n    /* \"#utility.yul\":2359:2382   */\n  sub\n    /* \"#utility.yul\":2355:2387   */\n  slt\n    /* \"#utility.yul\":2352:2471   */\n  iszero\n  tag_64\n  jumpi\n    /* \"#utility.yul\":2390:2469   */\n  tag_65\n  tag_66\n  jump\t// in\ntag_65:\n    /* \"#utility.yul\":2352:2471   */\ntag_64:\n    /* \"#utility.yul\":2531:2532   */\n  0x00\n    /* \"#utility.yul\":2520:2529   */\n  dup3\n    /* \"#utility.yul\":2516:2533   */\n  add\n    /* \"#utility.yul\":2510:2534   */\n  mload\n    /* \"#utility.yul\":2561:2579   */\n  0xffffffffffffffff\n    /* \"#utility.yul\":2553:2559   */\n  dup2\n    /* \"#utility.yul\":2550:2580   */\n  gt\n    /* \"#utility.yul\":2547:2664   */\n  iszero\n  tag_67\n  jumpi\n    /* \"#utility.yul\":2583:2662   */\n  tag_68\n  tag_69\n  jump\t// in\ntag_68:\n    /* \"#utility.yul\":2547:2664   */\ntag_67:\n    /* \"#utility.yul\":2688:2787   */\n  tag_70\n    /* \"#utility.yul\":2779:2786   */\n  dup5\n    /* \"#utility.yul\":2770:2776   */\n  dup3\n    /* \"#utility.yul\":2759:2768   */\n  dup6\n    /* \"#utility.yul\":2755:2777   */\n  add\n    /* \"#utility.yul\":2688:2787   */\n  tag_54\n  jump\t// in\ntag_70:\n    /* \"#utility.yul\":2678:2787   */\n  swap2\n  pop\n    /* \"#utility.yul\":2481:2797   */\n  pop\n    /* \"#utility.yul\":2230:2804   */\n  swap3\n  swap2\n  pop\n  pop\n  jump\t// out\n    /* \"#utility.yul\":2810:2939   */\ntag_32:\n    /* \"#utility.yul\":2844:2850   */\n  0x00\n    /* \"#utility.yul\":2871:2891   */\n  tag_72\n  tag_73\n  jump\t// in\ntag_72:\n    /* \"#utility.yul\":2861:2891   */\n  swap1\n  pop\n    /* \"#utility.yul\":2900:2933   */\n  tag_74\n    /* \"#utility.yul\":2928:2932   */\n  dup3\n    /* \"#utility.yul\":2920:2926   */\n  dup3\n    /* \"#utility.yul\":2900:2933   */\n  tag_75\n  jump\t// in\ntag_74:\n    /* \"#utility.yul\":2810:2939   */\n  swap2\n  swap1\n  pop\n  jump\t// out\n    /* \"#utility.yul\":2945:3020   */\ntag_73:\n    /* \"#utility.yul\":2978:2984   */\n  0x00\n    /* \"#utility.yul\":3011:3013   */\n  0x40\n    /* \"#utility.yul\":3005:3014   */\n  mload\n    /* \"#utility.yul\":2995:3014   */\n  swap1\n  pop\n    /* \"#utility.yul\":2945:3020   */\n  swap1\n  jump\t// out\n    /* \"#utility.yul\":3026:3347   */\ntag_31:\n    /* \"#utility.yul\":3113:3117   */\n  0x00\n    /* \"#utility.yul\":3203:3221   */\n  0xffffffffffffffff\n    /* \"#utility.yul\":3195:3201   */\n  dup3\n    /* \"#utility.yul\":3192:3222   */\n  gt\n    /* \"#utility.yul\":3189:3245   */\n  iszero\n  tag_78\n  jumpi\n    /* \"#utility.yul\":3225:3243   */\n  tag_79\n  tag_80\n  jump\t// in\ntag_79:\n    /* \"#utility.yul\":3189:3245   */\ntag_78:\n    /* \"#utility.yul\":3275:3279   */\n  0x20\n    /* \"#utility.yul\":3267:3273   */\n  dup3\n    /* \"#utility.yul\":3263:3280   */\n  mul\n    /* \"#utility.yul\":3255:3280   */\n  swap1\n  pop\n    /* \"#utility.yul\":3335:3339   */\n  0x20\n    /* \"#utility.yul\":3329:3333   */\n  dup2\n    /* \"#utility.yul\":3325:3340   */\n  add\n    /* \"#utility.yul\":3317:3340   */\n  swap1\n  pop\n    /* \"#utility.yul\":3026:3347   */\n  swap2\n  swap1\n  pop\n  jump\t// out\n    /* \"#utility.yul\":3353:3661   */\ntag_48:\n    /* \"#utility.yul\":3415:3419   */\n  0x00\n    /* \"#utility.yul\":3505:3523   */\n  0xffffffffffffffff\n    /* \"#utility.yul\":3497:3503   */\n  dup3\n    /* \"#utility.yul\":3494:3524   */\n  gt\n    /* \"#utility.yul\":3491:3547   */\n  iszero\n  tag_82\n  jumpi\n    /* \"#utility.yul\":3527:3545   */\n  tag_83\n  tag_80\n  jump\t// in\ntag_83:\n    /* \"#utility.yul\":3491:3547   */\ntag_82:\n    /* \"#utility.yul\":3565:3594   */\n  tag_84\n    /* \"#utility.yul\":3587:3593   */\n  dup3\n    /* \"#utility.yul\":3565:3594   */\n  tag_85\n  jump\t// in\ntag_84:\n    /* \"#utility.yul\":3557:3594   */\n  swap1\n  pop\n    /* \"#utility.yul\":3649:3653   */\n  0x20\n    /* \"#utility.yul\":3643:3647   */\n  dup2\n    /* \"#utility.yul\":3639:3654   */\n  add\n    /* \"#utility.yul\":3631:3654   */\n  swap1\n  pop\n    /* \"#utility.yul\":3353:3661   */\n  swap2\n  swap1\n  pop\n  jump\t// out\n    /* \"#utility.yul\":3667:3974   */\ntag_53:\n    /* \"#utility.yul\":3735:3736   */\n  0x00\n    /* \"#utility.yul\":3745:3858   */\ntag_87:\n    /* \"#utility.yul\":3759:3765   */\n  dup4\n    /* \"#utility.yul\":3756:3757   */\n  dup2\n    /* \"#utility.yul\":3753:3766   */\n  lt\n    /* \"#utility.yul\":3745:3858   */\n  iszero\n  tag_89\n  jumpi\n    /* \"#utility.yul\":3844:3845   */\n  dup1\n    /* \"#utility.yul\":3839:3842   */\n  dup3\n    /* \"#utility.yul\":3835:3846   */\n  add\n    /* \"#utility.yul\":3829:3847   */\n  mload\n    /* \"#utility.yul\":3825:3826   */\n  dup2\n    /* \"#utility.yul\":3820:3823   */\n  dup5\n    /* \"#utility.yul\":3816:3827   */\n  add\n    /* \"#utility.yul\":3809:3848   */\n  mstore\n    /* \"#utility.yul\":3781:3783   */\n  0x20\n    /* \"#utility.yul\":3778:3779   */\n  dup2\n    /* \"#utility.yul\":3774:3784   */\n  add\n    /* \"#utility.yul\":3769:3784   */\n  swap1\n  pop\n    /* \"#utility.yul\":3745:3858   */\n  jump(tag_87)\ntag_89:\n    /* \"#utility.yul\":3876:3882   */\n  dup4\n    /* \"#utility.yul\":3873:3874   */\n  dup2\n    /* \"#utility.yul\":3870:3883   */\n  gt\n    /* \"#utility.yul\":3867:3968   */\n  iszero\n  tag_90\n  jumpi\n    /* \"#utility.yul\":3956:3957   */\n  0x00\n    /* \"#utility.yul\":3947:3953   */\n  dup5\n    /* \"#utility.yul\":3942:3945   */\n  dup5\n    /* \"#utility.yul\":3938:3954   */\n  add\n    /* \"#utility.yul\":3931:3958   */\n  mstore\n    /* \"#utility.yul\":3867:3968   */\ntag_90:\n    /* \"#utility.yul\":3716:3974   */\n  pop\n    /* \"#utility.yul\":3667:3974   */\n  pop\n  pop\n  pop\n  jump\t// out\n    /* \"#utility.yul\":3980:4300   */\ntag_16:\n    /* \"#utility.yul\":4024:4030   */\n  0x00\n    /* \"#utility.yul\":4061:4062   */\n  0x02\n    /* \"#utility.yul\":4055:4059   */\n  dup3\n    /* \"#utility.yul\":4051:4063   */\n  div\n    /* \"#utility.yul\":4041:4063   */\n  swap1\n  pop\n    /* \"#utility.yul\":4108:4109   */\n  0x01\n    /* \"#utility.yul\":4102:4106   */\n  dup3\n    /* \"#utility.yul\":4098:4110   */\n  and\n    /* \"#utility.yul\":4129:4147   */\n  dup1\n    /* \"#utility.yul\":4119:4200   */\n  tag_92\n  jumpi\n    /* \"#utility.yul\":4185:4189   */\n  0x7f\n    /* \"#utility.yul\":4177:4183   */\n  dup3\n    /* \"#utility.yul\":4173:4190   */\n  and\n    /* \"#utility.yul\":4163:4190   */\n  swap2\n  pop\n    /* \"#utility.yul\":4119:4200   */\ntag_92:\n    /* \"#utility.yul\":4247:4249   */\n  0x20\n    /* \"#utility.yul\":4239:4245   */\n  dup3\n    /* \"#utility.yul\":4236:4250   */\n  lt\n    /* \"#utility.yul\":4216:4234   */\n  dup2\n    /* \"#utility.yul\":4213:4251   */\n  eq\n    /* \"#utility.yul\":4210:4294   */\n  iszero\n  tag_93\n  jumpi\n    /* \"#utility.yul\":4266:4284   */\n  tag_94\n  tag_95\n  jump\t// in\ntag_94:\n    /* \"#utility.yul\":4210:4294   */\ntag_93:\n    /* \"#utility.yul\":4031:4300   */\n  pop\n    /* \"#utility.yul\":3980:4300   */\n  swap2\n  swap1\n  pop\n  jump\t// out\n    /* \"#utility.yul\":4306:4587   */\ntag_75:\n    /* \"#utility.yul\":4389:4416   */\n  tag_97\n    /* \"#utility.yul\":4411:4415   */\n  dup3\n    /* \"#utility.yul\":4389:4416   */\n  tag_85\n  jump\t// in\ntag_97:\n    /* \"#utility.yul\":4381:4387   */\n  dup2\n    /* \"#utility.yul\":4377:4417   */\n  add\n    /* \"#utility.yul\":4519:4525   */\n  dup2\n    /* \"#utility.yul\":4507:4517   */\n  dup2\n    /* \"#utility.yul\":4504:4526   */\n  lt\n    /* \"#utility.yul\":4483:4501   */\n  0xffffffffffffffff\n    /* \"#utility.yul\":4471:4481   */\n  dup3\n    /* \"#utility.yul\":4468:4502   */\n  gt\n    /* \"#utility.yul\":4465:4527   */\n  or\n    /* \"#utility.yul\":4462:4550   */\n  iszero\n  tag_98\n  jumpi\n    /* \"#utility.yul\":4530:4548   */\n  tag_99\n  tag_80\n  jump\t// in\ntag_99:\n    /* \"#utility.yul\":4462:4550   */\ntag_98:\n    /* \"#utility.yul\":4570:4580   */\n  dup1\n    /* \"#utility.yul\":4566:4568   */\n  0x40\n    /* \"#utility.yul\":4559:4581   */\n  mstore\n    /* \"#utility.yul\":4349:4587   */\n  pop\n    /* \"#utility.yul\":4306:4587   */\n  pop\n  pop\n  jump\t// out\n    /* \"#utility.yul\":4593:4773   */\ntag_95:\n    /* \"#utility.yul\":4641:4718   */\n  0x4e487b7100000000000000000000000000000000000000000000000000000000\n    /* \"#utility.yul\":4638:4639   */\n  0x00\n    /* \"#utility.yul\":4631:4719   */\n  mstore\n    /* \"#utility.yul\":4738:4742   */\n  0x22\n    /* \"#utility.yul\":4735:4736   */\n  0x04\n    /* \"#utility.yul\":4728:4743   */\n  mstore\n    /* \"#utility.yul\":4762:4766   */\n  0x24\n    /* \"#utility.yul\":4759:4760   */\n  0x00\n    /* \"#utility.yul\":4752:4767   */\n  revert\n    /* \"#utility.yul\":4779:4959   */\ntag_8:\n    /* \"#utility.yul\":4827:4904   */\n  0x4e487b7100000000000000000000000000000000000000000000000000000000\n    /* \"#utility.yul\":4824:4825   */\n  0x00\n    /* \"#utility.yul\":4817:4905   */\n  mstore\n    /* \"#utility.yul\":4924:4928   */\n  0x32\n    /* \"#utility.yul\":4921:4922   */\n  0x04\n    /* \"#utility.yul\":4914:4929   */\n  mstore\n    /* \"#utility.yul\":4948:4952   */\n  0x24\n    /* \"#utility.yul\":4945:4946   */\n  0x00\n    /* \"#utility.yul\":4938:4953   */\n  revert\n    /* \"#utility.yul\":4965:5145   */\ntag_80:\n    /* \"#utility.yul\":5013:5090   */\n  0x4e487b7100000000000000000000000000000000000000000000000000000000\n    /* \"#utility.yul\":5010:5011   */\n  0x00\n    /* \"#utility.yul\":5003:5091   */\n  mstore\n    /* \"#utility.yul\":5110:5114   */\n  0x41\n    /* \"#utility.yul\":5107:5108   */\n  0x04\n    /* \"#utility.yul\":5100:5115   */\n  mstore\n    /* \"#utility.yul\":5134:5138   */\n  0x24\n    /* \"#utility.yul\":5131:5132   */\n  0x00\n    /* \"#utility.yul\":5124:5139   */\n  revert\n    /* \"#utility.yul\":5151:5268   */\ntag_41:\n    /* \"#utility.yul\":5260:5261   */\n  0x00\n    /* \"#utility.yul\":5257:5258   */\n  dup1\n    /* \"#utility.yul\":5250:5262   */\n  revert\n    /* \"#utility.yul\":5274:5391   */\ntag_35:\n    /* \"#utility.yul\":5383:5384   */\n  0x00\n    /* \"#utility.yul\":5380:5381   */\n  dup1\n    /* \"#utility.yul\":5373:5385   */\n  revert\n    /* \"#utility.yul\":5397:5514   */\ntag_51:\n    /* \"#utility.yul\":5506:5507   */\n  0x00\n    /* \"#utility.yul\":5503:5504   */\n  dup1\n    /* \"#utility.yul\":5496:5508   */\n  revert\n    /* \"#utility.yul\":5520:5637   */\ntag_69:\n    /* \"#utility.yul\":5629:5630   */\n  0x00\n    /* \"#utility.yul\":5626:5627   */\n  dup1\n    /* \"#utility.yul\":5619:5631   */\n  revert\n    /* \"#utility.yul\":5643:5760   */\ntag_66:\n    /* \"#utility.yul\":5752:5753   */\n  0x00\n    /* \"#utility.yul\":5749:5750   */\n  dup1\n    /* \"#utility.yul\":5742:5754   */\n  revert\n    /* \"#utility.yul\":5766:5868   */\ntag_85:\n    /* \"#utility.yul\":5807:5813   */\n  0x00\n    /* \"#utility.yul\":5858:5860   */\n  0x1f\n    /* \"#utility.yul\":5854:5861   */\n  not\n    /* \"#utility.yul\":5849:5851   */\n  0x1f\n    /* \"#utility.yul\":5842:5847   */\n  dup4\n    /* \"#utility.yul\":5838:5852   */\n  add\n    /* \"#utility.yul\":5834:5862   */\n  and\n    /* \"#utility.yul\":5824:5862   */\n  swap1\n  pop\n    /* \"#utility.yul\":5766:5868   */\n  swap2\n  swap1\n  pop\n  jump\t// out\n    /* \"contracts/Bus.sol\":102:613  contract Bus{... */\ntag_14:\n  dataSize(sub_0)\n  dup1\n  dataOffset(sub_0)\n  0x00\n  codecopy\n  0x00\n  return\nstop\n\nsub_0: assembly {\n        /* \"contracts/Bus.sol\":102:613  contract Bus{... */\n      mstore(0x40, 0x80)\n      callvalue\n      dup1\n      iszero\n      tag_1\n      jumpi\n      0x00\n      dup1\n      revert\n    tag_1:\n      pop\n      jumpi(tag_2, lt(calldatasize, 0x04))\n      shr(0xe0, calldataload(0x00))\n      dup1\n      0x2a9788cd\n      eq\n      tag_3\n      jumpi\n      dup1\n      0xa434261f\n      eq\n      tag_4\n      jumpi\n    tag_2:\n      0x00\n      dup1\n      revert\n        /* \"contracts/Bus.sol\":411:447  mapping(uint => seat) public busSeat */\n    tag_3:\n      tag_5\n      0x04\n      dup1\n      calldatasize\n      sub\n      dup2\n      add\n      swap1\n      tag_6\n      swap2\n      swap1\n      tag_7\n      jump\t// in\n    tag_6:\n      tag_8\n      jump\t// in\n    tag_5:\n      mload(0x40)\n      tag_9\n      swap4\n      swap3\n      swap2\n      swap1\n      tag_10\n      jump\t// in\n    tag_9:\n      mload(0x40)\n      dup1\n      swap2\n      sub\n      swap1\n      return\n        /* \"contracts/Bus.sol\":454:609  function reservationBus( uint _seatNum, uint _studentId, address _student) public {... */\n    tag_4:\n      tag_11\n      0x04\n      dup1\n      calldatasize\n      sub\n      dup2\n      add\n      swap1\n      tag_12\n      swap2\n      swap1\n      tag_13\n      jump\t// in\n    tag_12:\n      tag_14\n      jump\t// in\n    tag_11:\n      stop\n        /* \"contracts/Bus.sol\":411:447  mapping(uint => seat) public busSeat */\n    tag_8:\n      mstore(0x20, 0x03)\n      dup1\n      0x00\n      mstore\n      keccak256(0x00, 0x40)\n      0x00\n      swap2\n      pop\n      swap1\n      pop\n      dup1\n      0x00\n      add\n      sload\n      swap1\n      dup1\n      0x01\n      add\n      sload\n      swap1\n      dup1\n      0x02\n      add\n      0x00\n      swap1\n      sload\n      swap1\n      0x0100\n      exp\n      swap1\n      div\n      0xffffffffffffffffffffffffffffffffffffffff\n      and\n      swap1\n      pop\n      dup4\n      jump\t// out\n        /* \"contracts/Bus.sol\":454:609  function reservationBus( uint _seatNum, uint _studentId, address _student) public {... */\n    tag_14:\n        /* \"contracts/Bus.sol\":566:602  seat(_seatNum, _studentId, _student) */\n      mload(0x40)\n      dup1\n      0x60\n      add\n      0x40\n      mstore\n      dup1\n        /* \"contracts/Bus.sol\":571:579  _seatNum */\n      dup5\n        /* \"contracts/Bus.sol\":566:602  seat(_seatNum, _studentId, _student) */\n      dup2\n      mstore\n      0x20\n      add\n        /* \"contracts/Bus.sol\":581:591  _studentId */\n      dup4\n        /* \"contracts/Bus.sol\":566:602  seat(_seatNum, _studentId, _student) */\n      dup2\n      mstore\n      0x20\n      add\n        /* \"contracts/Bus.sol\":593:601  _student */\n      dup3\n        /* \"contracts/Bus.sol\":566:602  seat(_seatNum, _studentId, _student) */\n      0xffffffffffffffffffffffffffffffffffffffff\n      and\n      dup2\n      mstore\n      pop\n        /* \"contracts/Bus.sol\":546:553  busSeat */\n      0x03\n        /* \"contracts/Bus.sol\":546:563  busSeat[_seatNum] */\n      0x00\n        /* \"contracts/Bus.sol\":554:562  _seatNum */\n      dup6\n        /* \"contracts/Bus.sol\":546:563  busSeat[_seatNum] */\n      dup2\n      mstore\n      0x20\n      add\n      swap1\n      dup2\n      mstore\n      0x20\n      add\n      0x00\n      keccak256\n        /* \"contracts/Bus.sol\":546:602  busSeat[_seatNum] = seat(_seatNum, _studentId, _student) */\n      0x00\n      dup3\n      add\n      mload\n      dup2\n      0x00\n      add\n      sstore\n      0x20\n      dup3\n      add\n      mload\n      dup2\n      0x01\n      add\n      sstore\n      0x40\n      dup3\n      add\n      mload\n      dup2\n      0x02\n      add\n      exp(0x0100, 0x00)\n      dup2\n      sload\n      dup2\n      0xffffffffffffffffffffffffffffffffffffffff\n      mul\n      not\n      and\n      swap1\n      dup4\n      0xffffffffffffffffffffffffffffffffffffffff\n      and\n      mul\n      or\n      swap1\n      sstore\n      pop\n      swap1\n      pop\n      pop\n        /* \"contracts/Bus.sol\":454:609  function reservationBus( uint _seatNum, uint _studentId, address _student) public {... */\n      pop\n      pop\n      pop\n      jump\t// out\n        /* \"#utility.yul\":7:146   */\n    tag_17:\n        /* \"#utility.yul\":53:58   */\n      0x00\n        /* \"#utility.yul\":91:97   */\n      dup2\n        /* \"#utility.yul\":78:98   */\n      calldataload\n        /* \"#utility.yul\":69:98   */\n      swap1\n      pop\n        /* \"#utility.yul\":107:140   */\n      tag_19\n        /* \"#utility.yul\":134:139   */\n      dup2\n        /* \"#utility.yul\":107:140   */\n      tag_20\n      jump\t// in\n    tag_19:\n        /* \"#utility.yul\":7:146   */\n      swap3\n      swap2\n      pop\n      pop\n      jump\t// out\n        /* \"#utility.yul\":152:291   */\n    tag_21:\n        /* \"#utility.yul\":198:203   */\n      0x00\n        /* \"#utility.yul\":236:242   */\n      dup2\n        /* \"#utility.yul\":223:243   */\n      calldataload\n        /* \"#utility.yul\":214:243   */\n      swap1\n      pop\n        /* \"#utility.yul\":252:285   */\n      tag_23\n        /* \"#utility.yul\":279:284   */\n      dup2\n        /* \"#utility.yul\":252:285   */\n      tag_24\n      jump\t// in\n    tag_23:\n        /* \"#utility.yul\":152:291   */\n      swap3\n      swap2\n      pop\n      pop\n      jump\t// out\n        /* \"#utility.yul\":297:626   */\n    tag_7:\n        /* \"#utility.yul\":356:362   */\n      0x00\n        /* \"#utility.yul\":405:407   */\n      0x20\n        /* \"#utility.yul\":393:402   */\n      dup3\n        /* \"#utility.yul\":384:391   */\n      dup5\n        /* \"#utility.yul\":380:403   */\n      sub\n        /* \"#utility.yul\":376:408   */\n      slt\n        /* \"#utility.yul\":373:492   */\n      iszero\n      tag_26\n      jumpi\n        /* \"#utility.yul\":411:490   */\n      tag_27\n      tag_28\n      jump\t// in\n    tag_27:\n        /* \"#utility.yul\":373:492   */\n    tag_26:\n        /* \"#utility.yul\":531:532   */\n      0x00\n        /* \"#utility.yul\":556:609   */\n      tag_29\n        /* \"#utility.yul\":601:608   */\n      dup5\n        /* \"#utility.yul\":592:598   */\n      dup3\n        /* \"#utility.yul\":581:590   */\n      dup6\n        /* \"#utility.yul\":577:599   */\n      add\n        /* \"#utility.yul\":556:609   */\n      tag_21\n      jump\t// in\n    tag_29:\n        /* \"#utility.yul\":546:609   */\n      swap2\n      pop\n        /* \"#utility.yul\":502:619   */\n      pop\n        /* \"#utility.yul\":297:626   */\n      swap3\n      swap2\n      pop\n      pop\n      jump\t// out\n        /* \"#utility.yul\":632:1251   */\n    tag_13:\n        /* \"#utility.yul\":709:715   */\n      0x00\n        /* \"#utility.yul\":717:723   */\n      dup1\n        /* \"#utility.yul\":725:731   */\n      0x00\n        /* \"#utility.yul\":774:776   */\n      0x60\n        /* \"#utility.yul\":762:771   */\n      dup5\n        /* \"#utility.yul\":753:760   */\n      dup7\n        /* \"#utility.yul\":749:772   */\n      sub\n        /* \"#utility.yul\":745:777   */\n      slt\n        /* \"#utility.yul\":742:861   */\n      iszero\n      tag_31\n      jumpi\n        /* \"#utility.yul\":780:859   */\n      tag_32\n      tag_28\n      jump\t// in\n    tag_32:\n        /* \"#utility.yul\":742:861   */\n    tag_31:\n        /* \"#utility.yul\":900:901   */\n      0x00\n        /* \"#utility.yul\":925:978   */\n      tag_33\n        /* \"#utility.yul\":970:977   */\n      dup7\n        /* \"#utility.yul\":961:967   */\n      dup3\n        /* \"#utility.yul\":950:959   */\n      dup8\n        /* \"#utility.yul\":946:968   */\n      add\n        /* \"#utility.yul\":925:978   */\n      tag_21\n      jump\t// in\n    tag_33:\n        /* \"#utility.yul\":915:978   */\n      swap4\n      pop\n        /* \"#utility.yul\":871:988   */\n      pop\n        /* \"#utility.yul\":1027:1029   */\n      0x20\n        /* \"#utility.yul\":1053:1106   */\n      tag_34\n        /* \"#utility.yul\":1098:1105   */\n      dup7\n        /* \"#utility.yul\":1089:1095   */\n      dup3\n        /* \"#utility.yul\":1078:1087   */\n      dup8\n        /* \"#utility.yul\":1074:1096   */\n      add\n        /* \"#utility.yul\":1053:1106   */\n      tag_21\n      jump\t// in\n    tag_34:\n        /* \"#utility.yul\":1043:1106   */\n      swap3\n      pop\n        /* \"#utility.yul\":998:1116   */\n      pop\n        /* \"#utility.yul\":1155:1157   */\n      0x40\n        /* \"#utility.yul\":1181:1234   */\n      tag_35\n        /* \"#utility.yul\":1226:1233   */\n      dup7\n        /* \"#utility.yul\":1217:1223   */\n      dup3\n        /* \"#utility.yul\":1206:1215   */\n      dup8\n        /* \"#utility.yul\":1202:1224   */\n      add\n        /* \"#utility.yul\":1181:1234   */\n      tag_17\n      jump\t// in\n    tag_35:\n        /* \"#utility.yul\":1171:1234   */\n      swap2\n      pop\n        /* \"#utility.yul\":1126:1244   */\n      pop\n        /* \"#utility.yul\":632:1251   */\n      swap3\n      pop\n      swap3\n      pop\n      swap3\n      jump\t// out\n        /* \"#utility.yul\":1257:1375   */\n    tag_36:\n        /* \"#utility.yul\":1344:1368   */\n      tag_38\n        /* \"#utility.yul\":1362:1367   */\n      dup2\n        /* \"#utility.yul\":1344:1368   */\n      tag_39\n      jump\t// in\n    tag_38:\n        /* \"#utility.yul\":1339:1342   */\n      dup3\n        /* \"#utility.yul\":1332:1369   */\n      mstore\n        /* \"#utility.yul\":1257:1375   */\n      pop\n      pop\n      jump\t// out\n        /* \"#utility.yul\":1381:1499   */\n    tag_40:\n        /* \"#utility.yul\":1468:1492   */\n      tag_42\n        /* \"#utility.yul\":1486:1491   */\n      dup2\n        /* \"#utility.yul\":1468:1492   */\n      tag_43\n      jump\t// in\n    tag_42:\n        /* \"#utility.yul\":1463:1466   */\n      dup3\n        /* \"#utility.yul\":1456:1493   */\n      mstore\n        /* \"#utility.yul\":1381:1499   */\n      pop\n      pop\n      jump\t// out\n        /* \"#utility.yul\":1505:1947   */\n    tag_10:\n        /* \"#utility.yul\":1654:1658   */\n      0x00\n        /* \"#utility.yul\":1692:1694   */\n      0x60\n        /* \"#utility.yul\":1681:1690   */\n      dup3\n        /* \"#utility.yul\":1677:1695   */\n      add\n        /* \"#utility.yul\":1669:1695   */\n      swap1\n      pop\n        /* \"#utility.yul\":1705:1776   */\n      tag_45\n        /* \"#utility.yul\":1773:1774   */\n      0x00\n        /* \"#utility.yul\":1762:1771   */\n      dup4\n        /* \"#utility.yul\":1758:1775   */\n      add\n        /* \"#utility.yul\":1749:1755   */\n      dup7\n        /* \"#utility.yul\":1705:1776   */\n      tag_40\n      jump\t// in\n    tag_45:\n        /* \"#utility.yul\":1786:1858   */\n      tag_46\n        /* \"#utility.yul\":1854:1856   */\n      0x20\n        /* \"#utility.yul\":1843:1852   */\n      dup4\n        /* \"#utility.yul\":1839:1857   */\n      add\n        /* \"#utility.yul\":1830:1836   */\n      dup6\n        /* \"#utility.yul\":1786:1858   */\n      tag_40\n      jump\t// in\n    tag_46:\n        /* \"#utility.yul\":1868:1940   */\n      tag_47\n        /* \"#utility.yul\":1936:1938   */\n      0x40\n        /* \"#utility.yul\":1925:1934   */\n      dup4\n        /* \"#utility.yul\":1921:1939   */\n      add\n        /* \"#utility.yul\":1912:1918   */\n      dup5\n        /* \"#utility.yul\":1868:1940   */\n      tag_36\n      jump\t// in\n    tag_47:\n        /* \"#utility.yul\":1505:1947   */\n      swap5\n      swap4\n      pop\n      pop\n      pop\n      pop\n      jump\t// out\n        /* \"#utility.yul\":2034:2130   */\n    tag_39:\n        /* \"#utility.yul\":2071:2078   */\n      0x00\n        /* \"#utility.yul\":2100:2124   */\n      tag_51\n        /* \"#utility.yul\":2118:2123   */\n      dup3\n        /* \"#utility.yul\":2100:2124   */\n      tag_52\n      jump\t// in\n    tag_51:\n        /* \"#utility.yul\":2089:2124   */\n      swap1\n      pop\n        /* \"#utility.yul\":2034:2130   */\n      swap2\n      swap1\n      pop\n      jump\t// out\n        /* \"#utility.yul\":2136:2262   */\n    tag_52:\n        /* \"#utility.yul\":2173:2180   */\n      0x00\n        /* \"#utility.yul\":2213:2255   */\n      0xffffffffffffffffffffffffffffffffffffffff\n        /* \"#utility.yul\":2206:2211   */\n      dup3\n        /* \"#utility.yul\":2202:2256   */\n      and\n        /* \"#utility.yul\":2191:2256   */\n      swap1\n      pop\n        /* \"#utility.yul\":2136:2262   */\n      swap2\n      swap1\n      pop\n      jump\t// out\n        /* \"#utility.yul\":2268:2345   */\n    tag_43:\n        /* \"#utility.yul\":2305:2312   */\n      0x00\n        /* \"#utility.yul\":2334:2339   */\n      dup2\n        /* \"#utility.yul\":2323:2339   */\n      swap1\n      pop\n        /* \"#utility.yul\":2268:2345   */\n      swap2\n      swap1\n      pop\n      jump\t// out\n        /* \"#utility.yul\":2474:2591   */\n    tag_28:\n        /* \"#utility.yul\":2583:2584   */\n      0x00\n        /* \"#utility.yul\":2580:2581   */\n      dup1\n        /* \"#utility.yul\":2573:2585   */\n      revert\n        /* \"#utility.yul\":2597:2719   */\n    tag_20:\n        /* \"#utility.yul\":2670:2694   */\n      tag_59\n        /* \"#utility.yul\":2688:2693   */\n      dup2\n        /* \"#utility.yul\":2670:2694   */\n      tag_39\n      jump\t// in\n    tag_59:\n        /* \"#utility.yul\":2663:2668   */\n      dup2\n        /* \"#utility.yul\":2660:2695   */\n      eq\n        /* \"#utility.yul\":2650:2713   */\n      tag_60\n      jumpi\n        /* \"#utility.yul\":2709:2710   */\n      0x00\n        /* \"#utility.yul\":2706:2707   */\n      dup1\n        /* \"#utility.yul\":2699:2711   */\n      revert\n        /* \"#utility.yul\":2650:2713   */\n    tag_60:\n        /* \"#utility.yul\":2597:2719   */\n      pop\n      jump\t// out\n        /* \"#utility.yul\":2725:2847   */\n    tag_24:\n        /* \"#utility.yul\":2798:2822   */\n      tag_62\n        /* \"#utility.yul\":2816:2821   */\n      dup2\n        /* \"#utility.yul\":2798:2822   */\n      tag_43\n      jump\t// in\n    tag_62:\n        /* \"#utility.yul\":2791:2796   */\n      dup2\n        /* \"#utility.yul\":2788:2823   */\n      eq\n        /* \"#utility.yul\":2778:2841   */\n      tag_63\n      jumpi\n        /* \"#utility.yul\":2837:2838   */\n      0x00\n        /* \"#utility.yul\":2834:2835   */\n      dup1\n        /* \"#utility.yul\":2827:2839   */\n      revert\n        /* \"#utility.yul\":2778:2841   */\n    tag_63:\n        /* \"#utility.yul\":2725:2847   */\n      pop\n      jump\t// out\n\n    auxdata: 0xa264697066735822122082a3da49e7f5206154eeade0daadccda436e92ead9497daf929d7b1004ebda7064736f6c63430008070033\n}\n",
				"bytecode": {
					"linkReferences": {},
					"object": "60806040523480156200001157600080fd5b506040516200080f3803806200080f8339818101604052810190620000379190620002a9565b806000815181106200004e576200004d62000459565b5b6020026020010151600190805190602001906200006d929190620000ac565b508060018151811062000085576200008462000459565b5b602002602001015160029080519060200190620000a4929190620000ac565b5050620004e1565b828054620000ba90620003be565b90600052602060002090601f016020900481019282620000de57600085556200012a565b82601f10620000f957805160ff19168380011785556200012a565b828001600101855582156200012a579182015b82811115620001295782518255916020019190600101906200010c565b5b5090506200013991906200013d565b5090565b5b80821115620001585760008160009055506001016200013e565b5090565b6000620001736200016d8462000323565b620002fa565b90508083825260208201905082856020860282011115620001995762000198620004bc565b5b60005b85811015620001ee57815167ffffffffffffffff811115620001c357620001c2620004b7565b5b808601620001d2898262000276565b855260208501945060208401935050506001810190506200019c565b5050509392505050565b60006200020f620002098462000352565b620002fa565b9050828152602081018484840111156200022e576200022d620004c1565b5b6200023b84828562000388565b509392505050565b600082601f8301126200025b576200025a620004b7565b5b81516200026d8482602086016200015c565b91505092915050565b600082601f8301126200028e576200028d620004b7565b5b8151620002a0848260208601620001f8565b91505092915050565b600060208284031215620002c257620002c1620004cb565b5b600082015167ffffffffffffffff811115620002e357620002e2620004c6565b5b620002f18482850162000243565b91505092915050565b60006200030662000319565b9050620003148282620003f4565b919050565b6000604051905090565b600067ffffffffffffffff82111562000341576200034062000488565b5b602082029050602081019050919050565b600067ffffffffffffffff82111562000370576200036f62000488565b5b6200037b82620004d0565b9050602081019050919050565b60005b83811015620003a85780820151818401526020810190506200038b565b83811115620003b8576000848401525b50505050565b60006002820490506001821680620003d757607f821691505b60208210811415620003ee57620003ed6200042a565b5b50919050565b620003ff82620004d0565b810181811067ffffffffffffffff8211171562000421576200042062000488565b5b80604052505050565b7f4e487b7100000000000000000000000000000000000000000000000000000000600052602260045260246000fd5b7f4e487b7100000000000000000000000000000000000000000000000000000000600052603260045260246000fd5b7f4e487b7100000000000000000000000000000000000000000000000000000000600052604160045260246000fd5b600080fd5b600080fd5b600080fd5b600080fd5b600080fd5b6000601f19601f8301169050919050565b61031e80620004f16000396000f3fe608060405234801561001057600080fd5b50600436106100365760003560e01c80632a9788cd1461003b578063a434261f1461006d575b600080fd5b610055600480360381019061005091906101a4565b610089565b60405161006493929190610242565b60405180910390f35b610087600480360381019061008291906101d1565b6100d3565b005b60036020528060005260406000206000915090508060000154908060010154908060020160009054906101000a900473ffffffffffffffffffffffffffffffffffffffff16905083565b60405180606001604052808481526020018381526020018273ffffffffffffffffffffffffffffffffffffffff1681525060036000858152602001908152602001600020600082015181600001556020820151816001015560408201518160020160006101000a81548173ffffffffffffffffffffffffffffffffffffffff021916908373ffffffffffffffffffffffffffffffffffffffff160217905550905050505050565b600081359050610189816102ba565b92915050565b60008135905061019e816102d1565b92915050565b6000602082840312156101ba576101b96102b5565b5b60006101c88482850161018f565b91505092915050565b6000806000606084860312156101ea576101e96102b5565b5b60006101f88682870161018f565b93505060206102098682870161018f565b925050604061021a8682870161017a565b9150509250925092565b61022d81610279565b82525050565b61023c816102ab565b82525050565b60006060820190506102576000830186610233565b6102646020830185610233565b6102716040830184610224565b949350505050565b60006102848261028b565b9050919050565b600073ffffffffffffffffffffffffffffffffffffffff82169050919050565b6000819050919050565b600080fd5b6102c381610279565b81146102ce57600080fd5b50565b6102da816102ab565b81146102e557600080fd5b5056fea264697066735822122082a3da49e7f5206154eeade0daadccda436e92ead9497daf929d7b1004ebda7064736f6c63430008070033",
					"opcodes": "PUSH1 0x80 PUSH1 0x40 MSTORE CALLVALUE DUP1 ISZERO PUSH3 0x11 JUMPI PUSH1 0x0 DUP1 REVERT JUMPDEST POP PUSH1 0x40 MLOAD PUSH3 0x80F CODESIZE SUB DUP1 PUSH3 0x80F DUP4 CODECOPY DUP2 DUP2 ADD PUSH1 0x40 MSTORE DUP2 ADD SWAP1 PUSH3 0x37 SWAP2 SWAP1 PUSH3 0x2A9 JUMP JUMPDEST DUP1 PUSH1 0x0 DUP2 MLOAD DUP2 LT PUSH3 0x4E JUMPI PUSH3 0x4D PUSH3 0x459 JUMP JUMPDEST JUMPDEST PUSH1 0x20 MUL PUSH1 0x20 ADD ADD MLOAD PUSH1 0x1 SWAP1 DUP1 MLOAD SWAP1 PUSH1 0x20 ADD SWAP1 PUSH3 0x6D SWAP3 SWAP2 SWAP1 PUSH3 0xAC JUMP JUMPDEST POP DUP1 PUSH1 0x1 DUP2 MLOAD DUP2 LT PUSH3 0x85 JUMPI PUSH3 0x84 PUSH3 0x459 JUMP JUMPDEST JUMPDEST PUSH1 0x20 MUL PUSH1 0x20 ADD ADD MLOAD PUSH1 0x2 SWAP1 DUP1 MLOAD SWAP1 PUSH1 0x20 ADD SWAP1 PUSH3 0xA4 SWAP3 SWAP2 SWAP1 PUSH3 0xAC JUMP JUMPDEST POP POP PUSH3 0x4E1 JUMP JUMPDEST DUP3 DUP1 SLOAD PUSH3 0xBA SWAP1 PUSH3 0x3BE JUMP JUMPDEST SWAP1 PUSH1 0x0 MSTORE PUSH1 0x20 PUSH1 0x0 KECCAK256 SWAP1 PUSH1 0x1F ADD PUSH1 0x20 SWAP1 DIV DUP2 ADD SWAP3 DUP3 PUSH3 0xDE JUMPI PUSH1 0x0 DUP6 SSTORE PUSH3 0x12A JUMP JUMPDEST DUP3 PUSH1 0x1F LT PUSH3 0xF9 JUMPI DUP1 MLOAD PUSH1 0xFF NOT AND DUP4 DUP1 ADD OR DUP6 SSTORE PUSH3 0x12A JUMP JUMPDEST DUP3 DUP1 ADD PUSH1 0x1 ADD DUP6 SSTORE DUP3 ISZERO PUSH3 0x12A JUMPI SWAP2 DUP3 ADD JUMPDEST DUP3 DUP2 GT ISZERO PUSH3 0x129 JUMPI DUP3 MLOAD DUP3 SSTORE SWAP2 PUSH1 0x20 ADD SWAP2 SWAP1 PUSH1 0x1 ADD SWAP1 PUSH3 0x10C JUMP JUMPDEST JUMPDEST POP SWAP1 POP PUSH3 0x139 SWAP2 SWAP1 PUSH3 0x13D JUMP JUMPDEST POP SWAP1 JUMP JUMPDEST JUMPDEST DUP1 DUP3 GT ISZERO PUSH3 0x158 JUMPI PUSH1 0x0 DUP2 PUSH1 0x0 SWAP1 SSTORE POP PUSH1 0x1 ADD PUSH3 0x13E JUMP JUMPDEST POP SWAP1 JUMP JUMPDEST PUSH1 0x0 PUSH3 0x173 PUSH3 0x16D DUP5 PUSH3 0x323 JUMP JUMPDEST PUSH3 0x2FA JUMP JUMPDEST SWAP1 POP DUP1 DUP4 DUP3 MSTORE PUSH1 0x20 DUP3 ADD SWAP1 POP DUP3 DUP6 PUSH1 0x20 DUP7 MUL DUP3 ADD GT ISZERO PUSH3 0x199 JUMPI PUSH3 0x198 PUSH3 0x4BC JUMP JUMPDEST JUMPDEST PUSH1 0x0 JUMPDEST DUP6 DUP2 LT ISZERO PUSH3 0x1EE JUMPI DUP2 MLOAD PUSH8 0xFFFFFFFFFFFFFFFF DUP2 GT ISZERO PUSH3 0x1C3 JUMPI PUSH3 0x1C2 PUSH3 0x4B7 JUMP JUMPDEST JUMPDEST DUP1 DUP7 ADD PUSH3 0x1D2 DUP10 DUP3 PUSH3 0x276 JUMP JUMPDEST DUP6 MSTORE PUSH1 0x20 DUP6 ADD SWAP5 POP PUSH1 0x20 DUP5 ADD SWAP4 POP POP POP PUSH1 0x1 DUP2 ADD SWAP1 POP PUSH3 0x19C JUMP JUMPDEST POP POP POP SWAP4 SWAP3 POP POP POP JUMP JUMPDEST PUSH1 0x0 PUSH3 0x20F PUSH3 0x209 DUP5 PUSH3 0x352 JUMP JUMPDEST PUSH3 0x2FA JUMP JUMPDEST SWAP1 POP DUP3 DUP2 MSTORE PUSH1 0x20 DUP2 ADD DUP5 DUP5 DUP5 ADD GT ISZERO PUSH3 0x22E JUMPI PUSH3 0x22D PUSH3 0x4C1 JUMP JUMPDEST JUMPDEST PUSH3 0x23B DUP5 DUP3 DUP6 PUSH3 0x388 JUMP JUMPDEST POP SWAP4 SWAP3 POP POP POP JUMP JUMPDEST PUSH1 0x0 DUP3 PUSH1 0x1F DUP4 ADD SLT PUSH3 0x25B JUMPI PUSH3 0x25A PUSH3 0x4B7 JUMP JUMPDEST JUMPDEST DUP2 MLOAD PUSH3 0x26D DUP5 DUP3 PUSH1 0x20 DUP7 ADD PUSH3 0x15C JUMP JUMPDEST SWAP2 POP POP SWAP3 SWAP2 POP POP JUMP JUMPDEST PUSH1 0x0 DUP3 PUSH1 0x1F DUP4 ADD SLT PUSH3 0x28E JUMPI PUSH3 0x28D PUSH3 0x4B7 JUMP JUMPDEST JUMPDEST DUP2 MLOAD PUSH3 0x2A0 DUP5 DUP3 PUSH1 0x20 DUP7 ADD PUSH3 0x1F8 JUMP JUMPDEST SWAP2 POP POP SWAP3 SWAP2 POP POP JUMP JUMPDEST PUSH1 0x0 PUSH1 0x20 DUP3 DUP5 SUB SLT ISZERO PUSH3 0x2C2 JUMPI PUSH3 0x2C1 PUSH3 0x4CB JUMP JUMPDEST JUMPDEST PUSH1 0x0 DUP3 ADD MLOAD PUSH8 0xFFFFFFFFFFFFFFFF DUP2 GT ISZERO PUSH3 0x2E3 JUMPI PUSH3 0x2E2 PUSH3 0x4C6 JUMP JUMPDEST JUMPDEST PUSH3 0x2F1 DUP5 DUP3 DUP6 ADD PUSH3 0x243 JUMP JUMPDEST SWAP2 POP POP SWAP3 SWAP2 POP POP JUMP JUMPDEST PUSH1 0x0 PUSH3 0x306 PUSH3 0x319 JUMP JUMPDEST SWAP1 POP PUSH3 0x314 DUP3 DUP3 PUSH3 0x3F4 JUMP JUMPDEST SWAP2 SWAP1 POP JUMP JUMPDEST PUSH1 0x0 PUSH1 0x40 MLOAD SWAP1 POP SWAP1 JUMP JUMPDEST PUSH1 0x0 PUSH8 0xFFFFFFFFFFFFFFFF DUP3 GT ISZERO PUSH3 0x341 JUMPI PUSH3 0x340 PUSH3 0x488 JUMP JUMPDEST JUMPDEST PUSH1 0x20 DUP3 MUL SWAP1 POP PUSH1 0x20 DUP2 ADD SWAP1 POP SWAP2 SWAP1 POP JUMP JUMPDEST PUSH1 0x0 PUSH8 0xFFFFFFFFFFFFFFFF DUP3 GT ISZERO PUSH3 0x370 JUMPI PUSH3 0x36F PUSH3 0x488 JUMP JUMPDEST JUMPDEST PUSH3 0x37B DUP3 PUSH3 0x4D0 JUMP JUMPDEST SWAP1 POP PUSH1 0x20 DUP2 ADD SWAP1 POP SWAP2 SWAP1 POP JUMP JUMPDEST PUSH1 0x0 JUMPDEST DUP4 DUP2 LT ISZERO PUSH3 0x3A8 JUMPI DUP1 DUP3 ADD MLOAD DUP2 DUP5 ADD MSTORE PUSH1 0x20 DUP2 ADD SWAP1 POP PUSH3 0x38B JUMP JUMPDEST DUP4 DUP2 GT ISZERO PUSH3 0x3B8 JUMPI PUSH1 0x0 DUP5 DUP5 ADD MSTORE JUMPDEST POP POP POP POP JUMP JUMPDEST PUSH1 0x0 PUSH1 0x2 DUP3 DIV SWAP1 POP PUSH1 0x1 DUP3 AND DUP1 PUSH3 0x3D7 JUMPI PUSH1 0x7F DUP3 AND SWAP2 POP JUMPDEST PUSH1 0x20 DUP3 LT DUP2 EQ ISZERO PUSH3 0x3EE JUMPI PUSH3 0x3ED PUSH3 0x42A JUMP JUMPDEST JUMPDEST POP SWAP2 SWAP1 POP JUMP JUMPDEST PUSH3 0x3FF DUP3 PUSH3 0x4D0 JUMP JUMPDEST DUP2 ADD DUP2 DUP2 LT PUSH8 0xFFFFFFFFFFFFFFFF DUP3 GT OR ISZERO PUSH3 0x421 JUMPI PUSH3 0x420 PUSH3 0x488 JUMP JUMPDEST JUMPDEST DUP1 PUSH1 0x40 MSTORE POP POP POP JUMP JUMPDEST PUSH32 0x4E487B7100000000000000000000000000000000000000000000000000000000 PUSH1 0x0 MSTORE PUSH1 0x22 PUSH1 0x4 MSTORE PUSH1 0x24 PUSH1 0x0 REVERT JUMPDEST PUSH32 0x4E487B7100000000000000000000000000000000000000000000000000000000 PUSH1 0x0 MSTORE PUSH1 0x32 PUSH1 0x4 MSTORE PUSH1 0x24 PUSH1 0x0 REVERT JUMPDEST PUSH32 0x4E487B7100000000000000000000000000000000000000000000000000000000 PUSH1 0x0 MSTORE PUSH1 0x41 PUSH1 0x4 MSTORE PUSH1 0x24 PUSH1 0x0 REVERT JUMPDEST PUSH1 0x0 DUP1 REVERT JUMPDEST PUSH1 0x0 DUP1 REVERT JUMPDEST PUSH1 0x0 DUP1 REVERT JUMPDEST PUSH1 0x0 DUP1 REVERT JUMPDEST PUSH1 0x0 DUP1 REVERT JUMPDEST PUSH1 0x0 PUSH1 0x1F NOT PUSH1 0x1F DUP4 ADD AND SWAP1 POP SWAP2 SWAP1 POP JUMP JUMPDEST PUSH2 0x31E DUP1 PUSH3 0x4F1 PUSH1 0x0 CODECOPY PUSH1 0x0 RETURN INVALID PUSH1 0x80 PUSH1 0x40 MSTORE CALLVALUE DUP1 ISZERO PUSH2 0x10 JUMPI PUSH1 0x0 DUP1 REVERT JUMPDEST POP PUSH1 0x4 CALLDATASIZE LT PUSH2 0x36 JUMPI PUSH1 0x0 CALLDATALOAD PUSH1 0xE0 SHR DUP1 PUSH4 0x2A9788CD EQ PUSH2 0x3B JUMPI DUP1 PUSH4 0xA434261F EQ PUSH2 0x6D JUMPI JUMPDEST PUSH1 0x0 DUP1 REVERT JUMPDEST PUSH2 0x55 PUSH1 0x4 DUP1 CALLDATASIZE SUB DUP2 ADD SWAP1 PUSH2 0x50 SWAP2 SWAP1 PUSH2 0x1A4 JUMP JUMPDEST PUSH2 0x89 JUMP JUMPDEST PUSH1 0x40 MLOAD PUSH2 0x64 SWAP4 SWAP3 SWAP2 SWAP1 PUSH2 0x242 JUMP JUMPDEST PUSH1 0x40 MLOAD DUP1 SWAP2 SUB SWAP1 RETURN JUMPDEST PUSH2 0x87 PUSH1 0x4 DUP1 CALLDATASIZE SUB DUP2 ADD SWAP1 PUSH2 0x82 SWAP2 SWAP1 PUSH2 0x1D1 JUMP JUMPDEST PUSH2 0xD3 JUMP JUMPDEST STOP JUMPDEST PUSH1 0x3 PUSH1 0x20 MSTORE DUP1 PUSH1 0x0 MSTORE PUSH1 0x40 PUSH1 0x0 KECCAK256 PUSH1 0x0 SWAP2 POP SWAP1 POP DUP1 PUSH1 0x0 ADD SLOAD SWAP1 DUP1 PUSH1 0x1 ADD SLOAD SWAP1 DUP1 PUSH1 0x2 ADD PUSH1 0x0 SWAP1 SLOAD SWAP1 PUSH2 0x100 EXP SWAP1 DIV PUSH20 0xFFFFFFFFFFFFFFFFFFFFFFFFFFFFFFFFFFFFFFFF AND SWAP1 POP DUP4 JUMP JUMPDEST PUSH1 0x40 MLOAD DUP1 PUSH1 0x60 ADD PUSH1 0x40 MSTORE DUP1 DUP5 DUP2 MSTORE PUSH1 0x20 ADD DUP4 DUP2 MSTORE PUSH1 0x20 ADD DUP3 PUSH20 0xFFFFFFFFFFFFFFFFFFFFFFFFFFFFFFFFFFFFFFFF AND DUP2 MSTORE POP PUSH1 0x3 PUSH1 0x0 DUP6 DUP2 MSTORE PUSH1 0x20 ADD SWAP1 DUP2 MSTORE PUSH1 0x20 ADD PUSH1 0x0 KECCAK256 PUSH1 0x0 DUP3 ADD MLOAD DUP2 PUSH1 0x0 ADD SSTORE PUSH1 0x20 DUP3 ADD MLOAD DUP2 PUSH1 0x1 ADD SSTORE PUSH1 0x40 DUP3 ADD MLOAD DUP2 PUSH1 0x2 ADD PUSH1 0x0 PUSH2 0x100 EXP DUP2 SLOAD DUP2 PUSH20 0xFFFFFFFFFFFFFFFFFFFFFFFFFFFFFFFFFFFFFFFF MUL NOT AND SWAP1 DUP4 PUSH20 0xFFFFFFFFFFFFFFFFFFFFFFFFFFFFFFFFFFFFFFFF AND MUL OR SWAP1 SSTORE POP SWAP1 POP POP POP POP POP JUMP JUMPDEST PUSH1 0x0 DUP2 CALLDATALOAD SWAP1 POP PUSH2 0x189 DUP2 PUSH2 0x2BA JUMP JUMPDEST SWAP3 SWAP2 POP POP JUMP JUMPDEST PUSH1 0x0 DUP2 CALLDATALOAD SWAP1 POP PUSH2 0x19E DUP2 PUSH2 0x2D1 JUMP JUMPDEST SWAP3 SWAP2 POP POP JUMP JUMPDEST PUSH1 0x0 PUSH1 0x20 DUP3 DUP5 SUB SLT ISZERO PUSH2 0x1BA JUMPI PUSH2 0x1B9 PUSH2 0x2B5 JUMP JUMPDEST JUMPDEST PUSH1 0x0 PUSH2 0x1C8 DUP5 DUP3 DUP6 ADD PUSH2 0x18F JUMP JUMPDEST SWAP2 POP POP SWAP3 SWAP2 POP POP JUMP JUMPDEST PUSH1 0x0 DUP1 PUSH1 0x0 PUSH1 0x60 DUP5 DUP7 SUB SLT ISZERO PUSH2 0x1EA JUMPI PUSH2 0x1E9 PUSH2 0x2B5 JUMP JUMPDEST JUMPDEST PUSH1 0x0 PUSH2 0x1F8 DUP7 DUP3 DUP8 ADD PUSH2 0x18F JUMP JUMPDEST SWAP4 POP POP PUSH1 0x20 PUSH2 0x209 DUP7 DUP3 DUP8 ADD PUSH2 0x18F JUMP JUMPDEST SWAP3 POP POP PUSH1 0x40 PUSH2 0x21A DUP7 DUP3 DUP8 ADD PUSH2 0x17A JUMP JUMPDEST SWAP2 POP POP SWAP3 POP SWAP3 POP SWAP3 JUMP JUMPDEST PUSH2 0x22D DUP2 PUSH2 0x279 JUMP JUMPDEST DUP3 MSTORE POP POP JUMP JUMPDEST PUSH2 0x23C DUP2 PUSH2 0x2AB JUMP JUMPDEST DUP3 MSTORE POP POP JUMP JUMPDEST PUSH1 0x0 PUSH1 0x60 DUP3 ADD SWAP1 POP PUSH2 0x257 PUSH1 0x0 DUP4 ADD DUP7 PUSH2 0x233 JUMP JUMPDEST PUSH2 0x264 PUSH1 0x20 DUP4 ADD DUP6 PUSH2 0x233 JUMP JUMPDEST PUSH2 0x271 PUSH1 0x40 DUP4 ADD DUP5 PUSH2 0x224 JUMP JUMPDEST SWAP5 SWAP4 POP POP POP POP JUMP JUMPDEST PUSH1 0x0 PUSH2 0x284 DUP3 PUSH2 0x28B JUMP JUMPDEST SWAP1 POP SWAP2 SWAP1 POP JUMP JUMPDEST PUSH1 0x0 PUSH20 0xFFFFFFFFFFFFFFFFFFFFFFFFFFFFFFFFFFFFFFFF DUP3 AND SWAP1 POP SWAP2 SWAP1 POP JUMP JUMPDEST PUSH1 0x0 DUP2 SWAP1 POP SWAP2 SWAP1 POP JUMP JUMPDEST PUSH1 0x0 DUP1 REVERT JUMPDEST PUSH2 0x2C3 DUP2 PUSH2 0x279 JUMP JUMPDEST DUP2 EQ PUSH2 0x2CE JUMPI PUSH1 0x0 DUP1 REVERT JUMPDEST POP JUMP JUMPDEST PUSH2 0x2DA DUP2 PUSH2 0x2AB JUMP JUMPDEST DUP2 EQ PUSH2 0x2E5 JUMPI PUSH1 0x0 DUP1 REVERT JUMPDEST POP JUMP INVALID LOG2 PUSH5 0x6970667358 0x22 SLT KECCAK256 DUP3 LOG3 0xDA 0x49 0xE7 CREATE2 KECCAK256 PUSH2 0x54EE 0xAD 0xE0 0xDA 0xAD 0xCC 0xDA NUMBER PUSH15 0x92EAD9497DAF929D7B1004EBDA7064 PUSH20 0x6F6C634300080700330000000000000000000000 "
				},
				"gasEstimates": {
					"creation": {
						"codeDepositCost": "159600",
						"executionCost": "infinite",
						"totalCost": "infinite"
					},
					"external": {
						"busSeat(uint256)": "infinite",
						"reservationBus(uint256,uint256,address)": "infinite"
					}
				},
				"methodIdentifiers": {
					"busSeat(uint256)": "2a9788cd",
					"reservationBus(uint256,uint256,address)": "a434261f"
				}
			},
			"storageLayout": {
				"storage": [
					{
						"astId": 11,
						"contract": "contracts/Bus.sol:Bus",
						"label": "student",
						"offset": 0,
						"slot": "0",
						"type": "t_address"
					},
					{
						"astId": 13,
						"contract": "contracts/Bus.sol:Bus",
						"label": "busNum",
						"offset": 0,
						"slot": "1",
						"type": "t_string_storage"
					},
					{
						"astId": 15,
						"contract": "contracts/Bus.sol:Bus",
						"label": "destination",
						"offset": 0,
						"slot": "2",
						"type": "t_string_storage"
					},
					{
						"astId": 39,
						"contract": "contracts/Bus.sol:Bus",
						"label": "busSeat",
						"offset": 0,
						"slot": "3",
						"type": "t_mapping(t_uint256,t_struct(seat)9_storage)"
					}
				],
				"types": {
					"t_address": {
						"encoding": "inplace",
						"label": "address",
						"numberOfBytes": "20"
					},
					"t_mapping(t_uint256,t_struct(seat)9_storage)": {
						"encoding": "mapping",
						"key": "t_uint256",
						"label": "mapping(uint256 => struct Bus.seat)",
						"numberOfBytes": "32",
						"value": "t_struct(seat)9_storage"
					},
					"t_string_storage": {
						"encoding": "bytes",
						"label": "string",
						"numberOfBytes": "32"
					},
					"t_struct(seat)9_storage": {
						"encoding": "inplace",
						"label": "struct Bus.seat",
						"members": [
							{
								"astId": 4,
								"contract": "contracts/Bus.sol:Bus",
								"label": "seatNum",
								"offset": 0,
								"slot": "0",
								"type": "t_uint256"
							},
							{
								"astId": 6,
								"contract": "contracts/Bus.sol:Bus",
								"label": "studentId",
								"offset": 0,
								"slot": "1",
								"type": "t_uint256"
							},
							{
								"astId": 8,
								"contract": "contracts/Bus.sol:Bus",
								"label": "student",
								"offset": 0,
								"slot": "2",
								"type": "t_address"
							}
						],
						"numberOfBytes": "96"
					},
					"t_uint256": {
						"encoding": "inplace",
						"label": "uint256",
						"numberOfBytes": "32"
					}
				}
			},
			"userdoc": {
				"kind": "user",
				"methods": {},
				"version": 1
			}
		}
	}
}