{
	"contracts/main.sol": {
		"Database": {
			"abi": [
				{
					"inputs": [],
					"stateMutability": "nonpayable",
					"type": "constructor"
				},
				{
					"inputs": [
						{
							"internalType": "uint256",
							"name": "studentNum",
							"type": "uint256"
						},
						{
							"internalType": "string",
							"name": "busNum",
							"type": "string"
						},
						{
							"internalType": "uint256",
							"name": "seat",
							"type": "uint256"
						}
					],
					"name": "Reservation",
					"outputs": [
						{
							"internalType": "string",
							"name": "",
							"type": "string"
						}
					],
					"stateMutability": "nonpayable",
					"type": "function"
				},
				{
					"inputs": [
						{
							"internalType": "address",
							"name": "bus",
							"type": "address"
						},
						{
							"internalType": "string",
							"name": "destination",
							"type": "string"
						},
						{
							"internalType": "uint256",
							"name": "start_time",
							"type": "uint256"
						},
						{
							"internalType": "string",
							"name": "busnum",
							"type": "string"
						}
					],
					"name": "addBus",
					"outputs": [],
					"stateMutability": "nonpayable",
					"type": "function"
				},
				{
					"inputs": [
						{
							"internalType": "address",
							"name": "student",
							"type": "address"
						},
						{
							"internalType": "string",
							"name": "student_name",
							"type": "string"
						},
						{
							"internalType": "uint256",
							"name": "studentnum",
							"type": "uint256"
						}
					],
					"name": "addStudent",
					"outputs": [],
					"stateMutability": "nonpayable",
					"type": "function"
				},
				{
					"inputs": [
						{
							"internalType": "string",
							"name": "BusNum",
							"type": "string"
						}
					],
					"name": "deleteBus",
					"outputs": [
						{
							"internalType": "string",
							"name": "",
							"type": "string"
						}
					],
					"stateMutability": "nonpayable",
					"type": "function"
				},
				{
					"inputs": [
						{
							"internalType": "uint256",
							"name": "student_Num",
							"type": "uint256"
						}
					],
					"name": "deleteStudent",
					"outputs": [
						{
							"internalType": "string",
							"name": "",
							"type": "string"
						}
					],
					"stateMutability": "nonpayable",
					"type": "function"
				},
				{
					"inputs": [],
					"name": "getAllBus",
					"outputs": [
						{
							"internalType": "address[]",
							"name": "",
							"type": "address[]"
						}
					],
					"stateMutability": "view",
					"type": "function"
				},
				{
					"inputs": [],
					"name": "getAllStudent",
					"outputs": [
						{
							"internalType": "address[]",
							"name": "",
							"type": "address[]"
						}
					],
					"stateMutability": "view",
					"type": "function"
				},
				{
					"inputs": [
						{
							"internalType": "string",
							"name": "busNum",
							"type": "string"
						}
					],
					"name": "getBus",
					"outputs": [
						{
							"internalType": "address",
							"name": "",
							"type": "address"
						},
						{
							"internalType": "string",
							"name": "",
							"type": "string"
						},
						{
							"internalType": "uint256",
							"name": "",
							"type": "uint256"
						},
						{
							"internalType": "uint256[45]",
							"name": "",
							"type": "uint256[45]"
						}
					],
					"stateMutability": "view",
					"type": "function"
				},
				{
					"inputs": [
						{
							"internalType": "uint256",
							"name": "studentNum",
							"type": "uint256"
						}
					],
					"name": "getStudent",
					"outputs": [
						{
							"internalType": "address",
							"name": "",
							"type": "address"
						},
						{
							"internalType": "string",
							"name": "",
							"type": "string"
						}
					],
					"stateMutability": "view",
					"type": "function"
				},
				{
					"inputs": [],
					"name": "getbusNums",
					"outputs": [
						{
							"internalType": "string[]",
							"name": "",
							"type": "string[]"
						}
					],
					"stateMutability": "view",
					"type": "function"
				}
			],
			"devdoc": {
				"details": "Save Professor",
				"kind": "dev",
				"methods": {},
				"title": "Database",
				"version": 1
			},
			"evm": {
				"assembly": "    /* \"contracts/main.sol\":152:4508  contract Database{... */\n  mstore(0x40, 0x80)\n    /* \"contracts/main.sol\":956:1014  constructor() public {... */\n  callvalue\n  dup1\n  iszero\n  tag_1\n  jumpi\n  0x00\n  dup1\n  revert\ntag_1:\n  pop\n    /* \"contracts/main.sol\":997:1007  msg.sender */\n  caller\n    /* \"contracts/main.sol\":987:994  manager */\n  0x00\n  dup1\n    /* \"contracts/main.sol\":987:1007  manager = msg.sender */\n  0x0100\n  exp\n  dup2\n  sload\n  dup2\n  0xffffffffffffffffffffffffffffffffffffffff\n  mul\n  not\n  and\n  swap1\n  dup4\n  0xffffffffffffffffffffffffffffffffffffffff\n  and\n  mul\n  or\n  swap1\n  sstore\n  pop\n    /* \"contracts/main.sol\":152:4508  contract Database{... */\n  dataSize(sub_0)\n  dup1\n  dataOffset(sub_0)\n  0x00\n  codecopy\n  0x00\n  return\nstop\n\nsub_0: assembly {\n        /* \"contracts/main.sol\":152:4508  contract Database{... */\n      mstore(0x40, 0x80)\n      callvalue\n      dup1\n      iszero\n      tag_1\n      jumpi\n      0x00\n      dup1\n      revert\n    tag_1:\n      pop\n      jumpi(tag_2, lt(calldatasize, 0x04))\n      shr(0xe0, calldataload(0x00))\n      dup1\n      0x642f9163\n      gt\n      tag_13\n      jumpi\n      dup1\n      0x642f9163\n      eq\n      tag_8\n      jumpi\n      dup1\n      0x75285b65\n      eq\n      tag_9\n      jumpi\n      dup1\n      0x80e1127b\n      eq\n      tag_10\n      jumpi\n      dup1\n      0xb645307d\n      eq\n      tag_11\n      jumpi\n      dup1\n      0xf041f73f\n      eq\n      tag_12\n      jumpi\n      jump(tag_2)\n    tag_13:\n      dup1\n      0x9a4d3c\n      eq\n      tag_3\n      jumpi\n      dup1\n      0x133d0460\n      eq\n      tag_4\n      jumpi\n      dup1\n      0x2bf4ef72\n      eq\n      tag_5\n      jumpi\n      dup1\n      0x6269ba34\n      eq\n      tag_6\n      jumpi\n      dup1\n      0x62a80162\n      eq\n      tag_7\n      jumpi\n    tag_2:\n      0x00\n      dup1\n      revert\n        /* \"contracts/main.sol\":1881:2153  function addBus(address bus, string memory destination, uint start_time, string memory busnum) public {... */\n    tag_3:\n      tag_14\n      0x04\n      dup1\n      calldatasize\n      sub\n      dup2\n      add\n      swap1\n      tag_15\n      swap2\n      swap1\n      tag_16\n      jump\t// in\n    tag_15:\n      tag_17\n      jump\t// in\n    tag_14:\n      stop\n        /* \"contracts/main.sol\":1444:1539  function getAllStudent() public view returns (address[] memory){... */\n    tag_4:\n      tag_18\n      tag_19\n      jump\t// in\n    tag_18:\n      mload(0x40)\n      tag_20\n      swap2\n      swap1\n      tag_21\n      jump\t// in\n    tag_20:\n      mload(0x40)\n      dup1\n      swap2\n      sub\n      swap1\n      return\n        /* \"contracts/main.sol\":4306:4506  function Reservation(uint studentNum, string memory busNum, uint seat) public returns (string memory){... */\n    tag_5:\n      tag_22\n      0x04\n      dup1\n      calldatasize\n      sub\n      dup2\n      add\n      swap1\n      tag_23\n      swap2\n      swap1\n      tag_24\n      jump\t// in\n    tag_23:\n      tag_25\n      jump\t// in\n    tag_22:\n      mload(0x40)\n      tag_26\n      swap2\n      swap1\n      tag_27\n      jump\t// in\n    tag_26:\n      mload(0x40)\n      dup1\n      swap2\n      sub\n      swap1\n      return\n        /* \"contracts/main.sol\":1107:1201  function getbusNums() public view returns (string[] memory)... */\n    tag_6:\n      tag_28\n      tag_29\n      jump\t// in\n    tag_28:\n      mload(0x40)\n      tag_30\n      swap2\n      swap1\n      tag_31\n      jump\t// in\n    tag_30:\n      mload(0x40)\n      dup1\n      swap2\n      sub\n      swap1\n      return\n        /* \"contracts/main.sol\":3354:3896  function deleteBus(string memory BusNum) public returns(string memory){... */\n    tag_7:\n      tag_32\n      0x04\n      dup1\n      calldatasize\n      sub\n      dup2\n      add\n      swap1\n      tag_33\n      swap2\n      swap1\n      tag_34\n      jump\t// in\n    tag_33:\n      tag_35\n      jump\t// in\n    tag_32:\n      mload(0x40)\n      tag_36\n      swap2\n      swap1\n      tag_27\n      jump\t// in\n    tag_36:\n      mload(0x40)\n      dup1\n      swap2\n      sub\n      swap1\n      return\n        /* \"contracts/main.sol\":1611:1872  function getStudent(uint studentNum) public view returns (address, string memory) {... */\n    tag_8:\n      tag_37\n      0x04\n      dup1\n      calldatasize\n      sub\n      dup2\n      add\n      swap1\n      tag_38\n      swap2\n      swap1\n      tag_39\n      jump\t// in\n    tag_38:\n      tag_40\n      jump\t// in\n    tag_37:\n      mload(0x40)\n      tag_41\n      swap3\n      swap2\n      swap1\n      tag_42\n      jump\t// in\n    tag_41:\n      mload(0x40)\n      dup1\n      swap2\n      sub\n      swap1\n      return\n        /* \"contracts/main.sol\":2160:2253  function getAllBus() public view returns (address[] memory)... */\n    tag_9:\n      tag_43\n      tag_44\n      jump\t// in\n    tag_43:\n      mload(0x40)\n      tag_45\n      swap2\n      swap1\n      tag_21\n      jump\t// in\n    tag_45:\n      mload(0x40)\n      dup1\n      swap2\n      sub\n      swap1\n      return\n        /* \"contracts/main.sol\":2349:2731  function getBus(string memory busNum) public view returns (address, string memory, uint, uint[45] memory) {... */\n    tag_10:\n      tag_46\n      0x04\n      dup1\n      calldatasize\n      sub\n      dup2\n      add\n      swap1\n      tag_47\n      swap2\n      swap1\n      tag_34\n      jump\t// in\n    tag_47:\n      tag_48\n      jump\t// in\n    tag_46:\n      mload(0x40)\n      tag_49\n      swap5\n      swap4\n      swap3\n      swap2\n      swap1\n      tag_50\n      jump\t// in\n    tag_49:\n      mload(0x40)\n      dup1\n      swap2\n      sub\n      swap1\n      return\n        /* \"contracts/main.sol\":2777:3310  function deleteStudent(uint student_Num) public returns(string memory){... */\n    tag_11:\n      tag_51\n      0x04\n      dup1\n      calldatasize\n      sub\n      dup2\n      add\n      swap1\n      tag_52\n      swap2\n      swap1\n      tag_39\n      jump\t// in\n    tag_52:\n      tag_53\n      jump\t// in\n    tag_51:\n      mload(0x40)\n      tag_54\n      swap2\n      swap1\n      tag_27\n      jump\t// in\n    tag_54:\n      mload(0x40)\n      dup1\n      swap2\n      sub\n      swap1\n      return\n        /* \"contracts/main.sol\":1208:1437  function addStudent(address student, string memory student_name, uint studentnum) public {... */\n    tag_12:\n      tag_55\n      0x04\n      dup1\n      calldatasize\n      sub\n      dup2\n      add\n      swap1\n      tag_56\n      swap2\n      swap1\n      tag_57\n      jump\t// in\n    tag_56:\n      tag_58\n      jump\t// in\n    tag_55:\n      stop\n        /* \"contracts/main.sol\":1881:2153  function addBus(address bus, string memory destination, uint start_time, string memory busnum) public {... */\n    tag_17:\n        /* \"contracts/main.sol\":1991:2011  uint[45] memory seat */\n      tag_60\n      tag_61\n      jump\t// in\n    tag_60:\n        /* \"contracts/main.sol\":2019:2030  delete seat */\n      tag_62\n      tag_61\n      jump\t// in\n    tag_62:\n      swap1\n      pop\n        /* \"contracts/main.sol\":2038:2043  buses */\n      0x01\n        /* \"contracts/main.sol\":2049:2052  bus */\n      dup6\n        /* \"contracts/main.sol\":2038:2053  buses.push(bus) */\n      swap1\n      dup1\n      0x01\n      dup2\n      sload\n      add\n      dup1\n      dup3\n      sstore\n      dup1\n      swap2\n      pop\n      pop\n      0x01\n      swap1\n      sub\n      swap1\n      0x00\n      mstore\n      keccak256(0x00, 0x20)\n      add\n      0x00\n      swap1\n      swap2\n      swap1\n      swap2\n      swap1\n      swap2\n      0x0100\n      exp\n      dup2\n      sload\n      dup2\n      0xffffffffffffffffffffffffffffffffffffffff\n      mul\n      not\n      and\n      swap1\n      dup4\n      0xffffffffffffffffffffffffffffffffffffffff\n      and\n      mul\n      or\n      swap1\n      sstore\n      pop\n        /* \"contracts/main.sol\":2061:2067  busNum */\n      0x03\n        /* \"contracts/main.sol\":2073:2079  busnum */\n      dup3\n        /* \"contracts/main.sol\":2061:2080  busNum.push(busnum) */\n      swap1\n      dup1\n      0x01\n      dup2\n      sload\n      add\n      dup1\n      dup3\n      sstore\n      dup1\n      swap2\n      pop\n      pop\n      0x01\n      swap1\n      sub\n      swap1\n      0x00\n      mstore\n      keccak256(0x00, 0x20)\n      add\n      0x00\n      swap1\n      swap2\n      swap1\n      swap2\n      swap1\n      swap2\n      pop\n      swap1\n      dup1\n      mload\n      swap1\n      0x20\n      add\n      swap1\n      tag_65\n      swap3\n      swap2\n      swap1\n      tag_66\n      jump\t// in\n    tag_65:\n      pop\n        /* \"contracts/main.sol\":2104:2146  Bus_DB(bus, destination, start_time, seat) */\n      mload(0x40)\n      dup1\n      0x80\n      add\n      0x40\n      mstore\n      dup1\n        /* \"contracts/main.sol\":2111:2114  bus */\n      dup7\n        /* \"contracts/main.sol\":2104:2146  Bus_DB(bus, destination, start_time, seat) */\n      0xffffffffffffffffffffffffffffffffffffffff\n      and\n      dup2\n      mstore\n      0x20\n      add\n        /* \"contracts/main.sol\":2116:2127  destination */\n      dup6\n        /* \"contracts/main.sol\":2104:2146  Bus_DB(bus, destination, start_time, seat) */\n      dup2\n      mstore\n      0x20\n      add\n        /* \"contracts/main.sol\":2129:2139  start_time */\n      dup5\n        /* \"contracts/main.sol\":2104:2146  Bus_DB(bus, destination, start_time, seat) */\n      dup2\n      mstore\n      0x20\n      add\n        /* \"contracts/main.sol\":2141:2145  seat */\n      dup3\n        /* \"contracts/main.sol\":2104:2146  Bus_DB(bus, destination, start_time, seat) */\n      dup2\n      mstore\n      pop\n        /* \"contracts/main.sol\":2088:2093  BusDB */\n      0x05\n        /* \"contracts/main.sol\":2094:2100  busnum */\n      dup4\n        /* \"contracts/main.sol\":2088:2101  BusDB[busnum] */\n      mload(0x40)\n      tag_67\n      swap2\n      swap1\n      tag_68\n      jump\t// in\n    tag_67:\n      swap1\n      dup2\n      mstore\n      0x20\n      add\n      mload(0x40)\n      dup1\n      swap2\n      sub\n      swap1\n      keccak256\n        /* \"contracts/main.sol\":2088:2146  BusDB[busnum] = Bus_DB(bus, destination, start_time, seat) */\n      0x00\n      dup3\n      add\n      mload\n      dup2\n      0x00\n      add\n      exp(0x0100, 0x00)\n      dup2\n      sload\n      dup2\n      0xffffffffffffffffffffffffffffffffffffffff\n      mul\n      not\n      and\n      swap1\n      dup4\n      0xffffffffffffffffffffffffffffffffffffffff\n      and\n      mul\n      or\n      swap1\n      sstore\n      pop\n      0x20\n      dup3\n      add\n      mload\n      dup2\n      0x01\n      add\n      swap1\n      dup1\n      mload\n      swap1\n      0x20\n      add\n      swap1\n      tag_69\n      swap3\n      swap2\n      swap1\n      tag_66\n      jump\t// in\n    tag_69:\n      pop\n      0x40\n      dup3\n      add\n      mload\n      dup2\n      0x02\n      add\n      sstore\n      0x60\n      dup3\n      add\n      mload\n      dup2\n      0x03\n      add\n      swap1\n      0x2d\n      tag_70\n      swap3\n      swap2\n      swap1\n      tag_71\n      jump\t// in\n    tag_70:\n      pop\n      swap1\n      pop\n      pop\n        /* \"contracts/main.sol\":1983:2153  {... */\n      pop\n        /* \"contracts/main.sol\":1881:2153  function addBus(address bus, string memory destination, uint start_time, string memory busnum) public {... */\n      pop\n      pop\n      pop\n      pop\n      jump\t// out\n        /* \"contracts/main.sol\":1444:1539  function getAllStudent() public view returns (address[] memory){... */\n    tag_19:\n        /* \"contracts/main.sol\":1490:1506  address[] memory */\n      0x60\n        /* \"contracts/main.sol\":1524:1532  students */\n      0x02\n        /* \"contracts/main.sol\":1517:1532  return students */\n      dup1\n      sload\n      dup1\n      0x20\n      mul\n      0x20\n      add\n      mload(0x40)\n      swap1\n      dup2\n      add\n      0x40\n      mstore\n      dup1\n      swap3\n      swap2\n      swap1\n      dup2\n      dup2\n      mstore\n      0x20\n      add\n      dup3\n      dup1\n      sload\n      dup1\n      iszero\n      tag_73\n      jumpi\n      0x20\n      mul\n      dup3\n      add\n      swap2\n      swap1\n      0x00\n      mstore\n      keccak256(0x00, 0x20)\n      swap1\n    tag_74:\n      dup2\n      0x00\n      swap1\n      sload\n      swap1\n      0x0100\n      exp\n      swap1\n      div\n      0xffffffffffffffffffffffffffffffffffffffff\n      and\n      0xffffffffffffffffffffffffffffffffffffffff\n      and\n      dup2\n      mstore\n      0x20\n      add\n      swap1\n      0x01\n      add\n      swap1\n      dup1\n      dup4\n      gt\n      tag_74\n      jumpi\n    tag_73:\n      pop\n      pop\n      pop\n      pop\n      pop\n      swap1\n      pop\n        /* \"contracts/main.sol\":1444:1539  function getAllStudent() public view returns (address[] memory){... */\n      swap1\n      jump\t// out\n        /* \"contracts/main.sol\":4306:4506  function Reservation(uint studentNum, string memory busNum, uint seat) public returns (string memory){... */\n    tag_25:\n        /* \"contracts/main.sol\":4393:4406  string memory */\n      0x60\n        /* \"contracts/main.sol\":4451:4461  studentNum */\n      dup4\n        /* \"contracts/main.sol\":4417:4422  BusDB */\n      0x05\n        /* \"contracts/main.sol\":4423:4429  busNum */\n      dup5\n        /* \"contracts/main.sol\":4417:4430  BusDB[busNum] */\n      mload(0x40)\n      tag_76\n      swap2\n      swap1\n      tag_68\n      jump\t// in\n    tag_76:\n      swap1\n      dup2\n      mstore\n      0x20\n      add\n      mload(0x40)\n      dup1\n      swap2\n      sub\n      swap1\n      keccak256\n        /* \"contracts/main.sol\":4417:4442  BusDB[busNum].Seat_number */\n      0x03\n      add\n        /* \"contracts/main.sol\":4443:4447  seat */\n      dup4\n        /* \"contracts/main.sol\":4417:4448  BusDB[busNum].Seat_number[seat] */\n      0x2d\n      dup2\n      lt\n      tag_77\n      jumpi\n      tag_78\n      tag_79\n      jump\t// in\n    tag_78:\n    tag_77:\n      add\n        /* \"contracts/main.sol\":4417:4461  BusDB[busNum].Seat_number[seat] = studentNum */\n      dup2\n      swap1\n      sstore\n      pop\n        /* \"contracts/main.sol\":4471:4499  return \"Reservation success\" */\n      mload(0x40)\n      dup1\n      0x40\n      add\n      0x40\n      mstore\n      dup1\n      0x13\n      dup2\n      mstore\n      0x20\n      add\n      0x5265736572766174696f6e207375636365737300000000000000000000000000\n      dup2\n      mstore\n      pop\n      swap1\n      pop\n        /* \"contracts/main.sol\":4306:4506  function Reservation(uint studentNum, string memory busNum, uint seat) public returns (string memory){... */\n      swap4\n      swap3\n      pop\n      pop\n      pop\n      jump\t// out\n        /* \"contracts/main.sol\":1107:1201  function getbusNums() public view returns (string[] memory)... */\n    tag_29:\n        /* \"contracts/main.sol\":1150:1165  string[] memory */\n      0x60\n        /* \"contracts/main.sol\":1188:1194  busNum */\n      0x03\n        /* \"contracts/main.sol\":1181:1194  return busNum */\n      dup1\n      sload\n      dup1\n      0x20\n      mul\n      0x20\n      add\n      mload(0x40)\n      swap1\n      dup2\n      add\n      0x40\n      mstore\n      dup1\n      swap3\n      swap2\n      swap1\n      dup2\n      dup2\n      mstore\n      0x20\n      add\n      0x00\n      swap1\n    tag_82:\n      dup3\n      dup3\n      lt\n      iszero\n      tag_83\n      jumpi\n      dup4\n      dup3\n      swap1\n      0x00\n      mstore\n      keccak256(0x00, 0x20)\n      add\n      dup1\n      sload\n      tag_85\n      swap1\n      tag_86\n      jump\t// in\n    tag_85:\n      dup1\n      0x1f\n      add\n      0x20\n      dup1\n      swap2\n      div\n      mul\n      0x20\n      add\n      mload(0x40)\n      swap1\n      dup2\n      add\n      0x40\n      mstore\n      dup1\n      swap3\n      swap2\n      swap1\n      dup2\n      dup2\n      mstore\n      0x20\n      add\n      dup3\n      dup1\n      sload\n      tag_87\n      swap1\n      tag_86\n      jump\t// in\n    tag_87:\n      dup1\n      iszero\n      tag_88\n      jumpi\n      dup1\n      0x1f\n      lt\n      tag_89\n      jumpi\n      0x0100\n      dup1\n      dup4\n      sload\n      div\n      mul\n      dup4\n      mstore\n      swap2\n      0x20\n      add\n      swap2\n      jump(tag_88)\n    tag_89:\n      dup3\n      add\n      swap2\n      swap1\n      0x00\n      mstore\n      keccak256(0x00, 0x20)\n      swap1\n    tag_90:\n      dup2\n      sload\n      dup2\n      mstore\n      swap1\n      0x01\n      add\n      swap1\n      0x20\n      add\n      dup1\n      dup4\n      gt\n      tag_90\n      jumpi\n      dup3\n      swap1\n      sub\n      0x1f\n      and\n      dup3\n      add\n      swap2\n    tag_88:\n      pop\n      pop\n      pop\n      pop\n      pop\n      dup2\n      mstore\n      0x20\n      add\n      swap1\n      0x01\n      add\n      swap1\n      jump(tag_82)\n    tag_83:\n      pop\n      pop\n      pop\n      pop\n      swap1\n      pop\n        /* \"contracts/main.sol\":1107:1201  function getbusNums() public view returns (string[] memory)... */\n      swap1\n      jump\t// out\n        /* \"contracts/main.sol\":3354:3896  function deleteBus(string memory BusNum) public returns(string memory){... */\n    tag_35:\n        /* \"contracts/main.sol\":3410:3423  string memory */\n      0x60\n        /* \"contracts/main.sol\":3484:3485  0 */\n      0x00\n        /* \"contracts/main.sol\":3447:3452  BusDB */\n      0x05\n        /* \"contracts/main.sol\":3453:3459  BusNum */\n      dup4\n        /* \"contracts/main.sol\":3447:3460  BusDB[BusNum] */\n      mload(0x40)\n      tag_92\n      swap2\n      swap1\n      tag_68\n      jump\t// in\n    tag_92:\n      swap1\n      dup2\n      mstore\n      0x20\n      add\n      mload(0x40)\n      dup1\n      swap2\n      sub\n      swap1\n      keccak256\n        /* \"contracts/main.sol\":3447:3472  BusDB[BusNum].destination */\n      0x01\n      add\n        /* \"contracts/main.sol\":3441:3480  bytes(BusDB[BusNum].destination).length */\n      dup1\n      sload\n      tag_93\n      swap1\n      tag_86\n      jump\t// in\n    tag_93:\n      swap1\n      pop\n        /* \"contracts/main.sol\":3441:3485  bytes(BusDB[BusNum].destination).length != 0 */\n      eq\n      iszero\n        /* \"contracts/main.sol\":3433:3505  require(bytes(BusDB[BusNum].destination).length != 0, \"There is no BUS\") */\n      tag_94\n      jumpi\n      mload(0x40)\n      0x08c379a000000000000000000000000000000000000000000000000000000000\n      dup2\n      mstore\n      0x04\n      add\n      tag_95\n      swap1\n      tag_96\n      jump\t// in\n    tag_95:\n      mload(0x40)\n      dup1\n      swap2\n      sub\n      swap1\n      revert\n    tag_94:\n        /* \"contracts/main.sol\":3582:3587  BusDB */\n      0x05\n        /* \"contracts/main.sol\":3588:3594  BusNum */\n      dup3\n        /* \"contracts/main.sol\":3582:3595  BusDB[BusNum] */\n      mload(0x40)\n      tag_97\n      swap2\n      swap1\n      tag_68\n      jump\t// in\n    tag_97:\n      swap1\n      dup2\n      mstore\n      0x20\n      add\n      mload(0x40)\n      dup1\n      swap2\n      sub\n      swap1\n      keccak256\n      0x00\n        /* \"contracts/main.sol\":3575:3595  delete BusDB[BusNum] */\n      dup1\n      dup3\n      add\n      exp(0x0100, 0x00)\n      dup2\n      sload\n      swap1\n      0xffffffffffffffffffffffffffffffffffffffff\n      mul\n      not\n      and\n      swap1\n      sstore\n      0x01\n      dup3\n      add\n      0x00\n      tag_98\n      swap2\n      swap1\n      tag_99\n      jump\t// in\n    tag_98:\n      0x02\n      dup3\n      add\n      0x00\n      swap1\n      sstore\n      0x03\n      dup3\n      add\n      0x00\n      tag_100\n      swap2\n      swap1\n      tag_101\n      jump\t// in\n    tag_100:\n      pop\n      pop\n        /* \"contracts/main.sol\":3642:3648  uint i */\n      0x00\n        /* \"contracts/main.sol\":3638:3816  for(uint i=0; i<busNum.length; i++) {... */\n    tag_102:\n        /* \"contracts/main.sol\":3654:3660  busNum */\n      0x03\n        /* \"contracts/main.sol\":3654:3667  busNum.length */\n      dup1\n      sload\n      swap1\n      pop\n        /* \"contracts/main.sol\":3652:3653  i */\n      dup2\n        /* \"contracts/main.sol\":3652:3667  i<busNum.length */\n      lt\n        /* \"contracts/main.sol\":3638:3816  for(uint i=0; i<busNum.length; i++) {... */\n      iszero\n      tag_103\n      jumpi\n        /* \"contracts/main.sol\":3687:3704  string memory tmp */\n      0x00\n        /* \"contracts/main.sol\":3707:3713  busNum */\n      0x03\n        /* \"contracts/main.sol\":3714:3715  i */\n      dup3\n        /* \"contracts/main.sol\":3707:3716  busNum[i] */\n      dup2\n      sload\n      dup2\n      lt\n      tag_105\n      jumpi\n      tag_106\n      tag_79\n      jump\t// in\n    tag_106:\n    tag_105:\n      swap1\n      0x00\n      mstore\n      keccak256(0x00, 0x20)\n      add\n        /* \"contracts/main.sol\":3687:3716  string memory tmp = busNum[i] */\n      dup1\n      sload\n      tag_108\n      swap1\n      tag_86\n      jump\t// in\n    tag_108:\n      dup1\n      0x1f\n      add\n      0x20\n      dup1\n      swap2\n      div\n      mul\n      0x20\n      add\n      mload(0x40)\n      swap1\n      dup2\n      add\n      0x40\n      mstore\n      dup1\n      swap3\n      swap2\n      swap1\n      dup2\n      dup2\n      mstore\n      0x20\n      add\n      dup3\n      dup1\n      sload\n      tag_109\n      swap1\n      tag_86\n      jump\t// in\n    tag_109:\n      dup1\n      iszero\n      tag_110\n      jumpi\n      dup1\n      0x1f\n      lt\n      tag_111\n      jumpi\n      0x0100\n      dup1\n      dup4\n      sload\n      div\n      mul\n      dup4\n      mstore\n      swap2\n      0x20\n      add\n      swap2\n      jump(tag_110)\n    tag_111:\n      dup3\n      add\n      swap2\n      swap1\n      0x00\n      mstore\n      keccak256(0x00, 0x20)\n      swap1\n    tag_112:\n      dup2\n      sload\n      dup2\n      mstore\n      swap1\n      0x01\n      add\n      swap1\n      0x20\n      add\n      dup1\n      dup4\n      gt\n      tag_112\n      jumpi\n      dup3\n      swap1\n      sub\n      0x1f\n      and\n      dup3\n      add\n      swap2\n    tag_110:\n      pop\n      pop\n      pop\n      pop\n      pop\n      swap1\n      pop\n        /* \"contracts/main.sol\":3733:3758  stringsEquals(tmp,BusNum) */\n      tag_113\n        /* \"contracts/main.sol\":3747:3750  tmp */\n      dup2\n        /* \"contracts/main.sol\":3751:3757  BusNum */\n      dup6\n        /* \"contracts/main.sol\":3733:3746  stringsEquals */\n      tag_114\n        /* \"contracts/main.sol\":3733:3758  stringsEquals(tmp,BusNum) */\n      jump\t// in\n    tag_113:\n        /* \"contracts/main.sol\":3729:3807  if (stringsEquals(tmp,BusNum)) {... */\n      iszero\n      tag_115\n      jumpi\n        /* \"contracts/main.sol\":3784:3790  busNum */\n      0x03\n        /* \"contracts/main.sol\":3791:3792  i */\n      dup3\n        /* \"contracts/main.sol\":3784:3793  busNum[i] */\n      dup2\n      sload\n      dup2\n      lt\n      tag_116\n      jumpi\n      tag_117\n      tag_79\n      jump\t// in\n    tag_117:\n    tag_116:\n      swap1\n      0x00\n      mstore\n      keccak256(0x00, 0x20)\n      add\n      0x00\n        /* \"contracts/main.sol\":3777:3793  delete busNum[i] */\n      tag_119\n      swap2\n      swap1\n      tag_99\n      jump\t// in\n    tag_119:\n        /* \"contracts/main.sol\":3729:3807  if (stringsEquals(tmp,BusNum)) {... */\n    tag_115:\n        /* \"contracts/main.sol\":3674:3816  {... */\n      pop\n        /* \"contracts/main.sol\":3669:3672  i++ */\n      dup1\n      dup1\n      tag_120\n      swap1\n      tag_121\n      jump\t// in\n    tag_120:\n      swap2\n      pop\n      pop\n        /* \"contracts/main.sol\":3638:3816  for(uint i=0; i<busNum.length; i++) {... */\n      jump(tag_102)\n    tag_103:\n      pop\n        /* \"contracts/main.sol\":3824:3847  return \"Delete success\" */\n      mload(0x40)\n      dup1\n      0x40\n      add\n      0x40\n      mstore\n      dup1\n      0x0e\n      dup2\n      mstore\n      0x20\n      add\n      0x44656c6574652073756363657373000000000000000000000000000000000000\n      dup2\n      mstore\n      pop\n      swap1\n      pop\n        /* \"contracts/main.sol\":3354:3896  function deleteBus(string memory BusNum) public returns(string memory){... */\n      swap2\n      swap1\n      pop\n      jump\t// out\n        /* \"contracts/main.sol\":1611:1872  function getStudent(uint studentNum) public view returns (address, string memory) {... */\n    tag_40:\n        /* \"contracts/main.sol\":1669:1676  address */\n      0x00\n        /* \"contracts/main.sol\":1678:1691  string memory */\n      0x60\n        /* \"contracts/main.sol\":1704:1719  address student */\n      0x00\n        /* \"contracts/main.sol\":1722:1731  StudentDB */\n      0x06\n        /* \"contracts/main.sol\":1722:1743  StudentDB[studentNum] */\n      0x00\n        /* \"contracts/main.sol\":1732:1742  studentNum */\n      dup6\n        /* \"contracts/main.sol\":1722:1743  StudentDB[studentNum] */\n      dup2\n      mstore\n      0x20\n      add\n      swap1\n      dup2\n      mstore\n      0x20\n      add\n      0x00\n      keccak256\n        /* \"contracts/main.sol\":1722:1751  StudentDB[studentNum].student */\n      0x01\n      add\n      0x00\n      swap1\n      sload\n      swap1\n      0x0100\n      exp\n      swap1\n      div\n      0xffffffffffffffffffffffffffffffffffffffff\n      and\n        /* \"contracts/main.sol\":1704:1751  address student = StudentDB[studentNum].student */\n      swap1\n      pop\n        /* \"contracts/main.sol\":1762:1788  string memory student_name */\n      0x00\n        /* \"contracts/main.sol\":1791:1800  StudentDB */\n      0x06\n        /* \"contracts/main.sol\":1791:1812  StudentDB[studentNum] */\n      0x00\n        /* \"contracts/main.sol\":1801:1811  studentNum */\n      dup7\n        /* \"contracts/main.sol\":1791:1812  StudentDB[studentNum] */\n      dup2\n      mstore\n      0x20\n      add\n      swap1\n      dup2\n      mstore\n      0x20\n      add\n      0x00\n      keccak256\n        /* \"contracts/main.sol\":1791:1825  StudentDB[studentNum].student_name */\n      0x00\n      add\n        /* \"contracts/main.sol\":1762:1825  string memory student_name = StudentDB[studentNum].student_name */\n      dup1\n      sload\n      tag_123\n      swap1\n      tag_86\n      jump\t// in\n    tag_123:\n      dup1\n      0x1f\n      add\n      0x20\n      dup1\n      swap2\n      div\n      mul\n      0x20\n      add\n      mload(0x40)\n      swap1\n      dup2\n      add\n      0x40\n      mstore\n      dup1\n      swap3\n      swap2\n      swap1\n      dup2\n      dup2\n      mstore\n      0x20\n      add\n      dup3\n      dup1\n      sload\n      tag_124\n      swap1\n      tag_86\n      jump\t// in\n    tag_124:\n      dup1\n      iszero\n      tag_125\n      jumpi\n      dup1\n      0x1f\n      lt\n      tag_126\n      jumpi\n      0x0100\n      dup1\n      dup4\n      sload\n      div\n      mul\n      dup4\n      mstore\n      swap2\n      0x20\n      add\n      swap2\n      jump(tag_125)\n    tag_126:\n      dup3\n      add\n      swap2\n      swap1\n      0x00\n      mstore\n      keccak256(0x00, 0x20)\n      swap1\n    tag_127:\n      dup2\n      sload\n      dup2\n      mstore\n      swap1\n      0x01\n      add\n      swap1\n      0x20\n      add\n      dup1\n      dup4\n      gt\n      tag_127\n      jumpi\n      dup3\n      swap1\n      sub\n      0x1f\n      and\n      dup3\n      add\n      swap2\n    tag_125:\n      pop\n      pop\n      pop\n      pop\n      pop\n      swap1\n      pop\n        /* \"contracts/main.sol\":1843:1850  student */\n      dup2\n        /* \"contracts/main.sol\":1852:1864  student_name */\n      dup2\n        /* \"contracts/main.sol\":1836:1865  return(student, student_name) */\n      swap4\n      pop\n      swap4\n      pop\n      pop\n      pop\n        /* \"contracts/main.sol\":1611:1872  function getStudent(uint studentNum) public view returns (address, string memory) {... */\n      swap2\n      pop\n      swap2\n      jump\t// out\n        /* \"contracts/main.sol\":2160:2253  function getAllBus() public view returns (address[] memory)... */\n    tag_44:\n        /* \"contracts/main.sol\":2202:2218  address[] memory */\n      0x60\n        /* \"contracts/main.sol\":2241:2246  buses */\n      0x01\n        /* \"contracts/main.sol\":2234:2246  return buses */\n      dup1\n      sload\n      dup1\n      0x20\n      mul\n      0x20\n      add\n      mload(0x40)\n      swap1\n      dup2\n      add\n      0x40\n      mstore\n      dup1\n      swap3\n      swap2\n      swap1\n      dup2\n      dup2\n      mstore\n      0x20\n      add\n      dup3\n      dup1\n      sload\n      dup1\n      iszero\n      tag_129\n      jumpi\n      0x20\n      mul\n      dup3\n      add\n      swap2\n      swap1\n      0x00\n      mstore\n      keccak256(0x00, 0x20)\n      swap1\n    tag_130:\n      dup2\n      0x00\n      swap1\n      sload\n      swap1\n      0x0100\n      exp\n      swap1\n      div\n      0xffffffffffffffffffffffffffffffffffffffff\n      and\n      0xffffffffffffffffffffffffffffffffffffffff\n      and\n      dup2\n      mstore\n      0x20\n      add\n      swap1\n      0x01\n      add\n      swap1\n      dup1\n      dup4\n      gt\n      tag_130\n      jumpi\n    tag_129:\n      pop\n      pop\n      pop\n      pop\n      pop\n      swap1\n      pop\n        /* \"contracts/main.sol\":2160:2253  function getAllBus() public view returns (address[] memory)... */\n      swap1\n      jump\t// out\n        /* \"contracts/main.sol\":2349:2731  function getBus(string memory busNum) public view returns (address, string memory, uint, uint[45] memory) {... */\n    tag_48:\n        /* \"contracts/main.sol\":2408:2415  address */\n      0x00\n        /* \"contracts/main.sol\":2417:2430  string memory */\n      0x60\n        /* \"contracts/main.sol\":2432:2436  uint */\n      0x00\n        /* \"contracts/main.sol\":2438:2453  uint[45] memory */\n      tag_131\n      tag_61\n      jump\t// in\n    tag_131:\n        /* \"contracts/main.sol\":2466:2477  address Bus */\n      0x00\n        /* \"contracts/main.sol\":2480:2485  BusDB */\n      0x05\n        /* \"contracts/main.sol\":2486:2492  busNum */\n      dup7\n        /* \"contracts/main.sol\":2480:2493  BusDB[busNum] */\n      mload(0x40)\n      tag_133\n      swap2\n      swap1\n      tag_68\n      jump\t// in\n    tag_133:\n      swap1\n      dup2\n      mstore\n      0x20\n      add\n      mload(0x40)\n      dup1\n      swap2\n      sub\n      swap1\n      keccak256\n        /* \"contracts/main.sol\":2480:2497  BusDB[busNum].bus */\n      0x00\n      add\n      0x00\n      swap1\n      sload\n      swap1\n      0x0100\n      exp\n      swap1\n      div\n      0xffffffffffffffffffffffffffffffffffffffff\n      and\n        /* \"contracts/main.sol\":2466:2497  address Bus = BusDB[busNum].bus */\n      swap1\n      pop\n        /* \"contracts/main.sol\":2508:2533  string memory destination */\n      0x00\n        /* \"contracts/main.sol\":2536:2541  BusDB */\n      0x05\n        /* \"contracts/main.sol\":2542:2548  busNum */\n      dup8\n        /* \"contracts/main.sol\":2536:2549  BusDB[busNum] */\n      mload(0x40)\n      tag_134\n      swap2\n      swap1\n      tag_68\n      jump\t// in\n    tag_134:\n      swap1\n      dup2\n      mstore\n      0x20\n      add\n      mload(0x40)\n      dup1\n      swap2\n      sub\n      swap1\n      keccak256\n        /* \"contracts/main.sol\":2536:2561  BusDB[busNum].destination */\n      0x01\n      add\n        /* \"contracts/main.sol\":2508:2561  string memory destination = BusDB[busNum].destination */\n      dup1\n      sload\n      tag_135\n      swap1\n      tag_86\n      jump\t// in\n    tag_135:\n      dup1\n      0x1f\n      add\n      0x20\n      dup1\n      swap2\n      div\n      mul\n      0x20\n      add\n      mload(0x40)\n      swap1\n      dup2\n      add\n      0x40\n      mstore\n      dup1\n      swap3\n      swap2\n      swap1\n      dup2\n      dup2\n      mstore\n      0x20\n      add\n      dup3\n      dup1\n      sload\n      tag_136\n      swap1\n      tag_86\n      jump\t// in\n    tag_136:\n      dup1\n      iszero\n      tag_137\n      jumpi\n      dup1\n      0x1f\n      lt\n      tag_138\n      jumpi\n      0x0100\n      dup1\n      dup4\n      sload\n      div\n      mul\n      dup4\n      mstore\n      swap2\n      0x20\n      add\n      swap2\n      jump(tag_137)\n    tag_138:\n      dup3\n      add\n      swap2\n      swap1\n      0x00\n      mstore\n      keccak256(0x00, 0x20)\n      swap1\n    tag_139:\n      dup2\n      sload\n      dup2\n      mstore\n      swap1\n      0x01\n      add\n      swap1\n      0x20\n      add\n      dup1\n      dup4\n      gt\n      tag_139\n      jumpi\n      dup3\n      swap1\n      sub\n      0x1f\n      and\n      dup3\n      add\n      swap2\n    tag_137:\n      pop\n      pop\n      pop\n      pop\n      pop\n      swap1\n      pop\n        /* \"contracts/main.sol\":2572:2587  uint start_time */\n      0x00\n        /* \"contracts/main.sol\":2588:2593  BusDB */\n      0x05\n        /* \"contracts/main.sol\":2594:2600  busNum */\n      dup9\n        /* \"contracts/main.sol\":2588:2601  BusDB[busNum] */\n      mload(0x40)\n      tag_140\n      swap2\n      swap1\n      tag_68\n      jump\t// in\n    tag_140:\n      swap1\n      dup2\n      mstore\n      0x20\n      add\n      mload(0x40)\n      dup1\n      swap2\n      sub\n      swap1\n      keccak256\n        /* \"contracts/main.sol\":2588:2612  BusDB[busNum].start_time */\n      0x02\n      add\n      sload\n        /* \"contracts/main.sol\":2572:2612  uint start_time=BusDB[busNum].start_time */\n      swap1\n      pop\n        /* \"contracts/main.sol\":2623:2643  uint[45] memory Seat */\n      0x00\n        /* \"contracts/main.sol\":2646:2651  BusDB */\n      0x05\n        /* \"contracts/main.sol\":2652:2658  busNum */\n      dup10\n        /* \"contracts/main.sol\":2646:2659  BusDB[busNum] */\n      mload(0x40)\n      tag_141\n      swap2\n      swap1\n      tag_68\n      jump\t// in\n    tag_141:\n      swap1\n      dup2\n      mstore\n      0x20\n      add\n      mload(0x40)\n      dup1\n      swap2\n      sub\n      swap1\n      keccak256\n        /* \"contracts/main.sol\":2646:2671  BusDB[busNum].Seat_number */\n      0x03\n      add\n        /* \"contracts/main.sol\":2623:2671  uint[45] memory Seat = BusDB[busNum].Seat_number */\n      0x2d\n      dup1\n      0x20\n      mul\n      mload(0x40)\n      swap1\n      dup2\n      add\n      0x40\n      mstore\n      dup1\n      swap3\n      swap2\n      swap1\n      dup3\n      0x2d\n      dup1\n      iszero\n      tag_142\n      jumpi\n      0x20\n      mul\n      dup3\n      add\n      swap2\n    tag_143:\n      dup2\n      sload\n      dup2\n      mstore\n      0x20\n      add\n      swap1\n      0x01\n      add\n      swap1\n      dup1\n      dup4\n      gt\n      tag_143\n      jumpi\n    tag_142:\n      pop\n      pop\n      pop\n      pop\n      pop\n      swap1\n      pop\n        /* \"contracts/main.sol\":2689:2692  Bus */\n      dup4\n        /* \"contracts/main.sol\":2694:2705  destination */\n      dup4\n        /* \"contracts/main.sol\":2707:2717  start_time */\n      dup4\n        /* \"contracts/main.sol\":2719:2723  Seat */\n      dup4\n        /* \"contracts/main.sol\":2682:2724  return(Bus, destination, start_time, Seat) */\n      swap8\n      pop\n      swap8\n      pop\n      swap8\n      pop\n      swap8\n      pop\n      pop\n      pop\n      pop\n      pop\n        /* \"contracts/main.sol\":2349:2731  function getBus(string memory busNum) public view returns (address, string memory, uint, uint[45] memory) {... */\n      swap2\n      swap4\n      pop\n      swap2\n      swap4\n      jump\t// out\n        /* \"contracts/main.sol\":2777:3310  function deleteStudent(uint student_Num) public returns(string memory){... */\n    tag_53:\n        /* \"contracts/main.sol\":2833:2846  string memory */\n      0x60\n        /* \"contracts/main.sol\":2917:2918  0 */\n      0x00\n        /* \"contracts/main.sol\":2870:2879  StudentDB */\n      0x06\n        /* \"contracts/main.sol\":2870:2892  StudentDB[student_Num] */\n      0x00\n        /* \"contracts/main.sol\":2880:2891  student_Num */\n      dup5\n        /* \"contracts/main.sol\":2870:2892  StudentDB[student_Num] */\n      dup2\n      mstore\n      0x20\n      add\n      swap1\n      dup2\n      mstore\n      0x20\n      add\n      0x00\n      keccak256\n        /* \"contracts/main.sol\":2870:2905  StudentDB[student_Num].student_name */\n      0x00\n      add\n        /* \"contracts/main.sol\":2864:2913  bytes(StudentDB[student_Num].student_name).length */\n      dup1\n      sload\n      tag_145\n      swap1\n      tag_86\n      jump\t// in\n    tag_145:\n      swap1\n      pop\n        /* \"contracts/main.sol\":2864:2918  bytes(StudentDB[student_Num].student_name).length != 0 */\n      eq\n      iszero\n        /* \"contracts/main.sol\":2856:2942  require(bytes(StudentDB[student_Num].student_name).length != 0, \"There is no Student\") */\n      tag_146\n      jumpi\n      mload(0x40)\n      0x08c379a000000000000000000000000000000000000000000000000000000000\n      dup2\n      mstore\n      0x04\n      add\n      tag_147\n      swap1\n      tag_148\n      jump\t// in\n    tag_147:\n      mload(0x40)\n      dup1\n      swap2\n      sub\n      swap1\n      revert\n    tag_146:\n        /* \"contracts/main.sol\":3019:3028  StudentDB */\n      0x06\n        /* \"contracts/main.sol\":3019:3041  StudentDB[student_Num] */\n      0x00\n        /* \"contracts/main.sol\":3029:3040  student_Num */\n      dup4\n        /* \"contracts/main.sol\":3019:3041  StudentDB[student_Num] */\n      dup2\n      mstore\n      0x20\n      add\n      swap1\n      dup2\n      mstore\n      0x20\n      add\n      0x00\n      keccak256\n      0x00\n        /* \"contracts/main.sol\":3012:3041  delete StudentDB[student_Num] */\n      dup1\n      dup3\n      add\n      0x00\n      tag_149\n      swap2\n      swap1\n      tag_99\n      jump\t// in\n    tag_149:\n      0x01\n      dup3\n      add\n      exp(0x0100, 0x00)\n      dup2\n      sload\n      swap1\n      0xffffffffffffffffffffffffffffffffffffffff\n      mul\n      not\n      and\n      swap1\n      sstore\n      pop\n      pop\n        /* \"contracts/main.sol\":3089:3095  uint i */\n      0x00\n        /* \"contracts/main.sol\":3085:3230  for(uint i=0; i<studentNum.length; i++) {... */\n    tag_150:\n        /* \"contracts/main.sol\":3101:3111  studentNum */\n      0x04\n        /* \"contracts/main.sol\":3101:3118  studentNum.length */\n      dup1\n      sload\n      swap1\n      pop\n        /* \"contracts/main.sol\":3099:3100  i */\n      dup2\n        /* \"contracts/main.sol\":3099:3118  i<studentNum.length */\n      lt\n        /* \"contracts/main.sol\":3085:3230  for(uint i=0; i<studentNum.length; i++) {... */\n      iszero\n      tag_151\n      jumpi\n        /* \"contracts/main.sol\":3157:3168  student_Num */\n      dup3\n        /* \"contracts/main.sol\":3142:3152  studentNum */\n      0x04\n        /* \"contracts/main.sol\":3153:3154  i */\n      dup3\n        /* \"contracts/main.sol\":3142:3155  studentNum[i] */\n      dup2\n      sload\n      dup2\n      lt\n      tag_153\n      jumpi\n      tag_154\n      tag_79\n      jump\t// in\n    tag_154:\n    tag_153:\n      swap1\n      0x00\n      mstore\n      keccak256(0x00, 0x20)\n      add\n      sload\n        /* \"contracts/main.sol\":3142:3168  studentNum[i]==student_Num */\n      eq\n        /* \"contracts/main.sol\":3138:3221  if (studentNum[i]==student_Num) {... */\n      iszero\n      tag_156\n      jumpi\n        /* \"contracts/main.sol\":3194:3204  studentNum */\n      0x04\n        /* \"contracts/main.sol\":3205:3206  i */\n      dup2\n        /* \"contracts/main.sol\":3194:3207  studentNum[i] */\n      dup2\n      sload\n      dup2\n      lt\n      tag_157\n      jumpi\n      tag_158\n      tag_79\n      jump\t// in\n    tag_158:\n    tag_157:\n      swap1\n      0x00\n      mstore\n      keccak256(0x00, 0x20)\n      add\n        /* \"contracts/main.sol\":3187:3207  delete studentNum[i] */\n      0x00\n      swap1\n      sstore\n        /* \"contracts/main.sol\":3138:3221  if (studentNum[i]==student_Num) {... */\n    tag_156:\n        /* \"contracts/main.sol\":3120:3123  i++ */\n      dup1\n      dup1\n      tag_160\n      swap1\n      tag_121\n      jump\t// in\n    tag_160:\n      swap2\n      pop\n      pop\n        /* \"contracts/main.sol\":3085:3230  for(uint i=0; i<studentNum.length; i++) {... */\n      jump(tag_150)\n    tag_151:\n      pop\n        /* \"contracts/main.sol\":3238:3261  return \"Delete success\" */\n      mload(0x40)\n      dup1\n      0x40\n      add\n      0x40\n      mstore\n      dup1\n      0x0e\n      dup2\n      mstore\n      0x20\n      add\n      0x44656c6574652073756363657373000000000000000000000000000000000000\n      dup2\n      mstore\n      pop\n      swap1\n      pop\n        /* \"contracts/main.sol\":2777:3310  function deleteStudent(uint student_Num) public returns(string memory){... */\n      swap2\n      swap1\n      pop\n      jump\t// out\n        /* \"contracts/main.sol\":1208:1437  function addStudent(address student, string memory student_name, uint studentnum) public {... */\n    tag_58:\n        /* \"contracts/main.sol\":1306:1316  studentNum */\n      0x04\n        /* \"contracts/main.sol\":1322:1332  studentnum */\n      dup2\n        /* \"contracts/main.sol\":1306:1333  studentNum.push(studentnum) */\n      swap1\n      dup1\n      0x01\n      dup2\n      sload\n      add\n      dup1\n      dup3\n      sstore\n      dup1\n      swap2\n      pop\n      pop\n      0x01\n      swap1\n      sub\n      swap1\n      0x00\n      mstore\n      keccak256(0x00, 0x20)\n      add\n      0x00\n      swap1\n      swap2\n      swap1\n      swap2\n      swap1\n      swap2\n      pop\n      sstore\n        /* \"contracts/main.sol\":1342:1350  students */\n      0x02\n        /* \"contracts/main.sol\":1356:1363  student */\n      dup4\n        /* \"contracts/main.sol\":1342:1364  students.push(student) */\n      swap1\n      dup1\n      0x01\n      dup2\n      sload\n      add\n      dup1\n      dup3\n      sstore\n      dup1\n      swap2\n      pop\n      pop\n      0x01\n      swap1\n      sub\n      swap1\n      0x00\n      mstore\n      keccak256(0x00, 0x20)\n      add\n      0x00\n      swap1\n      swap2\n      swap1\n      swap2\n      swap1\n      swap2\n      0x0100\n      exp\n      dup2\n      sload\n      dup2\n      0xffffffffffffffffffffffffffffffffffffffff\n      mul\n      not\n      and\n      swap1\n      dup4\n      0xffffffffffffffffffffffffffffffffffffffff\n      and\n      mul\n      or\n      swap1\n      sstore\n      pop\n        /* \"contracts/main.sol\":1397:1430  Student_DB(student_name, student) */\n      mload(0x40)\n      dup1\n      0x40\n      add\n      0x40\n      mstore\n      dup1\n        /* \"contracts/main.sol\":1408:1420  student_name */\n      dup4\n        /* \"contracts/main.sol\":1397:1430  Student_DB(student_name, student) */\n      dup2\n      mstore\n      0x20\n      add\n        /* \"contracts/main.sol\":1422:1429  student */\n      dup5\n        /* \"contracts/main.sol\":1397:1430  Student_DB(student_name, student) */\n      0xffffffffffffffffffffffffffffffffffffffff\n      and\n      dup2\n      mstore\n      pop\n        /* \"contracts/main.sol\":1373:1382  StudentDB */\n      0x06\n        /* \"contracts/main.sol\":1373:1394  StudentDB[studentnum] */\n      0x00\n        /* \"contracts/main.sol\":1383:1393  studentnum */\n      dup4\n        /* \"contracts/main.sol\":1373:1394  StudentDB[studentnum] */\n      dup2\n      mstore\n      0x20\n      add\n      swap1\n      dup2\n      mstore\n      0x20\n      add\n      0x00\n      keccak256\n        /* \"contracts/main.sol\":1373:1430  StudentDB[studentnum] = Student_DB(student_name, student) */\n      0x00\n      dup3\n      add\n      mload\n      dup2\n      0x00\n      add\n      swap1\n      dup1\n      mload\n      swap1\n      0x20\n      add\n      swap1\n      tag_164\n      swap3\n      swap2\n      swap1\n      tag_66\n      jump\t// in\n    tag_164:\n      pop\n      0x20\n      dup3\n      add\n      mload\n      dup2\n      0x01\n      add\n      exp(0x0100, 0x00)\n      dup2\n      sload\n      dup2\n      0xffffffffffffffffffffffffffffffffffffffff\n      mul\n      not\n      and\n      swap1\n      dup4\n      0xffffffffffffffffffffffffffffffffffffffff\n      and\n      mul\n      or\n      swap1\n      sstore\n      pop\n      swap1\n      pop\n      pop\n        /* \"contracts/main.sol\":1208:1437  function addStudent(address student, string memory student_name, uint studentnum) public {... */\n      pop\n      pop\n      pop\n      jump\t// out\n        /* \"contracts/main.sol\":3928:4299  function stringsEquals(string memory s1, string memory s2) private pure returns (bool) {... */\n    tag_114:\n        /* \"contracts/main.sol\":4009:4013  bool */\n      0x00\n        /* \"contracts/main.sol\":4025:4040  bytes memory b1 */\n      dup1\n        /* \"contracts/main.sol\":4049:4051  s1 */\n      dup4\n        /* \"contracts/main.sol\":4025:4052  bytes memory b1 = bytes(s1) */\n      swap1\n      pop\n        /* \"contracts/main.sol\":4062:4077  bytes memory b2 */\n      0x00\n        /* \"contracts/main.sol\":4086:4088  s2 */\n      dup4\n        /* \"contracts/main.sol\":4062:4089  bytes memory b2 = bytes(s2) */\n      swap1\n      pop\n        /* \"contracts/main.sol\":4099:4109  uint256 l1 */\n      0x00\n        /* \"contracts/main.sol\":4112:4114  b1 */\n      dup3\n        /* \"contracts/main.sol\":4112:4121  b1.length */\n      mload\n        /* \"contracts/main.sol\":4099:4121  uint256 l1 = b1.length */\n      swap1\n      pop\n        /* \"contracts/main.sol\":4141:4143  b2 */\n      dup2\n        /* \"contracts/main.sol\":4141:4150  b2.length */\n      mload\n        /* \"contracts/main.sol\":4135:4137  l1 */\n      dup2\n        /* \"contracts/main.sol\":4135:4150  l1 != b2.length */\n      eq\n        /* \"contracts/main.sol\":4131:4164  if (l1 != b2.length) return false */\n      tag_166\n      jumpi\n        /* \"contracts/main.sol\":4159:4164  false */\n      0x00\n        /* \"contracts/main.sol\":4152:4164  return false */\n      swap4\n      pop\n      pop\n      pop\n      pop\n      jump(tag_165)\n        /* \"contracts/main.sol\":4131:4164  if (l1 != b2.length) return false */\n    tag_166:\n        /* \"contracts/main.sol\":4183:4192  uint256 i */\n      0x00\n        /* \"contracts/main.sol\":4178:4272  for (uint256 i=0; i<l1; i++) {... */\n    tag_167:\n        /* \"contracts/main.sol\":4198:4200  l1 */\n      dup2\n        /* \"contracts/main.sol\":4196:4197  i */\n      dup2\n        /* \"contracts/main.sol\":4196:4200  i<l1 */\n      lt\n        /* \"contracts/main.sol\":4178:4272  for (uint256 i=0; i<l1; i++) {... */\n      iszero\n      tag_168\n      jumpi\n        /* \"contracts/main.sol\":4238:4240  b2 */\n      dup3\n        /* \"contracts/main.sol\":4241:4242  i */\n      dup2\n        /* \"contracts/main.sol\":4238:4243  b2[i] */\n      dup2\n      mload\n      dup2\n      lt\n      tag_170\n      jumpi\n      tag_171\n      tag_79\n      jump\t// in\n    tag_171:\n    tag_170:\n      0x20\n      add\n      add\n      mload\n      0xf8\n      shr\n      0xf8\n      shl\n        /* \"contracts/main.sol\":4229:4243  b1[i] != b2[i] */\n      not(0xffffffffffffffffffffffffffffffffffffffffffffffffffffffffffffff)\n      and\n        /* \"contracts/main.sol\":4229:4231  b1 */\n      dup5\n        /* \"contracts/main.sol\":4232:4233  i */\n      dup3\n        /* \"contracts/main.sol\":4229:4234  b1[i] */\n      dup2\n      mload\n      dup2\n      lt\n      tag_172\n      jumpi\n      tag_173\n      tag_79\n      jump\t// in\n    tag_173:\n    tag_172:\n      0x20\n      add\n      add\n      mload\n      0xf8\n      shr\n      0xf8\n      shl\n        /* \"contracts/main.sol\":4229:4243  b1[i] != b2[i] */\n      not(0xffffffffffffffffffffffffffffffffffffffffffffffffffffffffffffff)\n      and\n      eq\n        /* \"contracts/main.sol\":4225:4257  if (b1[i] != b2[i]) return false */\n      tag_174\n      jumpi\n        /* \"contracts/main.sol\":4252:4257  false */\n      0x00\n        /* \"contracts/main.sol\":4245:4257  return false */\n      swap5\n      pop\n      pop\n      pop\n      pop\n      pop\n      jump(tag_165)\n        /* \"contracts/main.sol\":4225:4257  if (b1[i] != b2[i]) return false */\n    tag_174:\n        /* \"contracts/main.sol\":4202:4205  i++ */\n      dup1\n      dup1\n      tag_175\n      swap1\n      tag_121\n      jump\t// in\n    tag_175:\n      swap2\n      pop\n      pop\n        /* \"contracts/main.sol\":4178:4272  for (uint256 i=0; i<l1; i++) {... */\n      jump(tag_167)\n    tag_168:\n      pop\n        /* \"contracts/main.sol\":4288:4292  true */\n      0x01\n        /* \"contracts/main.sol\":4281:4292  return true */\n      swap4\n      pop\n      pop\n      pop\n      pop\n        /* \"contracts/main.sol\":3928:4299  function stringsEquals(string memory s1, string memory s2) private pure returns (bool) {... */\n    tag_165:\n      swap3\n      swap2\n      pop\n      pop\n      jump\t// out\n    tag_61:\n      mload(0x40)\n      dup1\n      0x05a0\n      add\n      0x40\n      mstore\n      dup1\n      0x2d\n      swap1\n      0x20\n      dup3\n      mul\n      dup1\n      calldatasize\n      dup4\n      calldatacopy\n      dup1\n      dup3\n      add\n      swap2\n      pop\n      pop\n      swap1\n      pop\n      pop\n      swap1\n      jump\t// out\n    tag_66:\n      dup3\n      dup1\n      sload\n      tag_176\n      swap1\n      tag_86\n      jump\t// in\n    tag_176:\n      swap1\n      0x00\n      mstore\n      keccak256(0x00, 0x20)\n      swap1\n      0x1f\n      add\n      0x20\n      swap1\n      div\n      dup2\n      add\n      swap3\n      dup3\n      tag_178\n      jumpi\n      0x00\n      dup6\n      sstore\n      jump(tag_177)\n    tag_178:\n      dup3\n      0x1f\n      lt\n      tag_179\n      jumpi\n      dup1\n      mload\n      not(0xff)\n      and\n      dup4\n      dup1\n      add\n      or\n      dup6\n      sstore\n      jump(tag_177)\n    tag_179:\n      dup3\n      dup1\n      add\n      0x01\n      add\n      dup6\n      sstore\n      dup3\n      iszero\n      tag_177\n      jumpi\n      swap2\n      dup3\n      add\n    tag_180:\n      dup3\n      dup2\n      gt\n      iszero\n      tag_181\n      jumpi\n      dup3\n      mload\n      dup3\n      sstore\n      swap2\n      0x20\n      add\n      swap2\n      swap1\n      0x01\n      add\n      swap1\n      jump(tag_180)\n    tag_181:\n    tag_177:\n      pop\n      swap1\n      pop\n      tag_182\n      swap2\n      swap1\n      tag_183\n      jump\t// in\n    tag_182:\n      pop\n      swap1\n      jump\t// out\n    tag_71:\n      dup3\n      0x2d\n      dup2\n      add\n      swap3\n      dup3\n      iszero\n      tag_184\n      jumpi\n      swap2\n      0x20\n      mul\n      dup3\n      add\n    tag_185:\n      dup3\n      dup2\n      gt\n      iszero\n      tag_186\n      jumpi\n      dup3\n      mload\n      dup3\n      sstore\n      swap2\n      0x20\n      add\n      swap2\n      swap1\n      0x01\n      add\n      swap1\n      jump(tag_185)\n    tag_186:\n    tag_184:\n      pop\n      swap1\n      pop\n      tag_187\n      swap2\n      swap1\n      tag_183\n      jump\t// in\n    tag_187:\n      pop\n      swap1\n      jump\t// out\n    tag_99:\n      pop\n      dup1\n      sload\n      tag_188\n      swap1\n      tag_86\n      jump\t// in\n    tag_188:\n      0x00\n      dup3\n      sstore\n      dup1\n      0x1f\n      lt\n      tag_190\n      jumpi\n      pop\n      jump(tag_189)\n    tag_190:\n      0x1f\n      add\n      0x20\n      swap1\n      div\n      swap1\n      0x00\n      mstore\n      keccak256(0x00, 0x20)\n      swap1\n      dup2\n      add\n      swap1\n      tag_191\n      swap2\n      swap1\n      tag_183\n      jump\t// in\n    tag_191:\n    tag_189:\n      pop\n      jump\t// out\n    tag_101:\n      pop\n      dup1\n      0x2d\n      add\n      swap1\n      tag_192\n      swap2\n      swap1\n      tag_183\n      jump\t// in\n    tag_192:\n      pop\n      jump\t// out\n    tag_183:\n    tag_193:\n      dup1\n      dup3\n      gt\n      iszero\n      tag_194\n      jumpi\n      0x00\n      dup2\n      0x00\n      swap1\n      sstore\n      pop\n      0x01\n      add\n      jump(tag_193)\n    tag_194:\n      pop\n      swap1\n      jump\t// out\n        /* \"#utility.yul\":7:419   */\n    tag_196:\n        /* \"#utility.yul\":85:90   */\n      0x00\n        /* \"#utility.yul\":110:176   */\n      tag_198\n        /* \"#utility.yul\":126:175   */\n      tag_199\n        /* \"#utility.yul\":168:174   */\n      dup5\n        /* \"#utility.yul\":126:175   */\n      tag_200\n      jump\t// in\n    tag_199:\n        /* \"#utility.yul\":110:176   */\n      tag_201\n      jump\t// in\n    tag_198:\n        /* \"#utility.yul\":101:176   */\n      swap1\n      pop\n        /* \"#utility.yul\":199:205   */\n      dup3\n        /* \"#utility.yul\":192:197   */\n      dup2\n        /* \"#utility.yul\":185:206   */\n      mstore\n        /* \"#utility.yul\":237:241   */\n      0x20\n        /* \"#utility.yul\":230:235   */\n      dup2\n        /* \"#utility.yul\":226:242   */\n      add\n        /* \"#utility.yul\":275:278   */\n      dup5\n        /* \"#utility.yul\":266:272   */\n      dup5\n        /* \"#utility.yul\":261:264   */\n      dup5\n        /* \"#utility.yul\":257:273   */\n      add\n        /* \"#utility.yul\":254:279   */\n      gt\n        /* \"#utility.yul\":251:363   */\n      iszero\n      tag_202\n      jumpi\n        /* \"#utility.yul\":282:361   */\n      tag_203\n      tag_204\n      jump\t// in\n    tag_203:\n        /* \"#utility.yul\":251:363   */\n    tag_202:\n        /* \"#utility.yul\":372:413   */\n      tag_205\n        /* \"#utility.yul\":406:412   */\n      dup5\n        /* \"#utility.yul\":401:404   */\n      dup3\n        /* \"#utility.yul\":396:399   */\n      dup6\n        /* \"#utility.yul\":372:413   */\n      tag_206\n      jump\t// in\n    tag_205:\n        /* \"#utility.yul\":91:419   */\n      pop\n        /* \"#utility.yul\":7:419   */\n      swap4\n      swap3\n      pop\n      pop\n      pop\n      jump\t// out\n        /* \"#utility.yul\":425:564   */\n    tag_207:\n        /* \"#utility.yul\":471:476   */\n      0x00\n        /* \"#utility.yul\":509:515   */\n      dup2\n        /* \"#utility.yul\":496:516   */\n      calldataload\n        /* \"#utility.yul\":487:516   */\n      swap1\n      pop\n        /* \"#utility.yul\":525:558   */\n      tag_209\n        /* \"#utility.yul\":552:557   */\n      dup2\n        /* \"#utility.yul\":525:558   */\n      tag_210\n      jump\t// in\n    tag_209:\n        /* \"#utility.yul\":425:564   */\n      swap3\n      swap2\n      pop\n      pop\n      jump\t// out\n        /* \"#utility.yul\":584:924   */\n    tag_211:\n        /* \"#utility.yul\":640:645   */\n      0x00\n        /* \"#utility.yul\":689:692   */\n      dup3\n        /* \"#utility.yul\":682:686   */\n      0x1f\n        /* \"#utility.yul\":674:680   */\n      dup4\n        /* \"#utility.yul\":670:687   */\n      add\n        /* \"#utility.yul\":666:693   */\n      slt\n        /* \"#utility.yul\":656:778   */\n      tag_213\n      jumpi\n        /* \"#utility.yul\":697:776   */\n      tag_214\n      tag_215\n      jump\t// in\n    tag_214:\n        /* \"#utility.yul\":656:778   */\n    tag_213:\n        /* \"#utility.yul\":814:820   */\n      dup2\n        /* \"#utility.yul\":801:821   */\n      calldataload\n        /* \"#utility.yul\":839:918   */\n      tag_216\n        /* \"#utility.yul\":914:917   */\n      dup5\n        /* \"#utility.yul\":906:912   */\n      dup3\n        /* \"#utility.yul\":899:903   */\n      0x20\n        /* \"#utility.yul\":891:897   */\n      dup7\n        /* \"#utility.yul\":887:904   */\n      add\n        /* \"#utility.yul\":839:918   */\n      tag_196\n      jump\t// in\n    tag_216:\n        /* \"#utility.yul\":830:918   */\n      swap2\n      pop\n        /* \"#utility.yul\":646:924   */\n      pop\n        /* \"#utility.yul\":584:924   */\n      swap3\n      swap2\n      pop\n      pop\n      jump\t// out\n        /* \"#utility.yul\":930:1069   */\n    tag_217:\n        /* \"#utility.yul\":976:981   */\n      0x00\n        /* \"#utility.yul\":1014:1020   */\n      dup2\n        /* \"#utility.yul\":1001:1021   */\n      calldataload\n        /* \"#utility.yul\":992:1021   */\n      swap1\n      pop\n        /* \"#utility.yul\":1030:1063   */\n      tag_219\n        /* \"#utility.yul\":1057:1062   */\n      dup2\n        /* \"#utility.yul\":1030:1063   */\n      tag_220\n      jump\t// in\n    tag_219:\n        /* \"#utility.yul\":930:1069   */\n      swap3\n      swap2\n      pop\n      pop\n      jump\t// out\n        /* \"#utility.yul\":1075:1874   */\n    tag_57:\n        /* \"#utility.yul\":1162:1168   */\n      0x00\n        /* \"#utility.yul\":1170:1176   */\n      dup1\n        /* \"#utility.yul\":1178:1184   */\n      0x00\n        /* \"#utility.yul\":1227:1229   */\n      0x60\n        /* \"#utility.yul\":1215:1224   */\n      dup5\n        /* \"#utility.yul\":1206:1213   */\n      dup7\n        /* \"#utility.yul\":1202:1225   */\n      sub\n        /* \"#utility.yul\":1198:1230   */\n      slt\n        /* \"#utility.yul\":1195:1314   */\n      iszero\n      tag_222\n      jumpi\n        /* \"#utility.yul\":1233:1312   */\n      tag_223\n      tag_224\n      jump\t// in\n    tag_223:\n        /* \"#utility.yul\":1195:1314   */\n    tag_222:\n        /* \"#utility.yul\":1353:1354   */\n      0x00\n        /* \"#utility.yul\":1378:1431   */\n      tag_225\n        /* \"#utility.yul\":1423:1430   */\n      dup7\n        /* \"#utility.yul\":1414:1420   */\n      dup3\n        /* \"#utility.yul\":1403:1412   */\n      dup8\n        /* \"#utility.yul\":1399:1421   */\n      add\n        /* \"#utility.yul\":1378:1431   */\n      tag_207\n      jump\t// in\n    tag_225:\n        /* \"#utility.yul\":1368:1431   */\n      swap4\n      pop\n        /* \"#utility.yul\":1324:1441   */\n      pop\n        /* \"#utility.yul\":1508:1510   */\n      0x20\n        /* \"#utility.yul\":1497:1506   */\n      dup5\n        /* \"#utility.yul\":1493:1511   */\n      add\n        /* \"#utility.yul\":1480:1512   */\n      calldataload\n        /* \"#utility.yul\":1539:1557   */\n      0xffffffffffffffff\n        /* \"#utility.yul\":1531:1537   */\n      dup2\n        /* \"#utility.yul\":1528:1558   */\n      gt\n        /* \"#utility.yul\":1525:1642   */\n      iszero\n      tag_226\n      jumpi\n        /* \"#utility.yul\":1561:1640   */\n      tag_227\n      tag_228\n      jump\t// in\n    tag_227:\n        /* \"#utility.yul\":1525:1642   */\n    tag_226:\n        /* \"#utility.yul\":1666:1729   */\n      tag_229\n        /* \"#utility.yul\":1721:1728   */\n      dup7\n        /* \"#utility.yul\":1712:1718   */\n      dup3\n        /* \"#utility.yul\":1701:1710   */\n      dup8\n        /* \"#utility.yul\":1697:1719   */\n      add\n        /* \"#utility.yul\":1666:1729   */\n      tag_211\n      jump\t// in\n    tag_229:\n        /* \"#utility.yul\":1656:1729   */\n      swap3\n      pop\n        /* \"#utility.yul\":1451:1739   */\n      pop\n        /* \"#utility.yul\":1778:1780   */\n      0x40\n        /* \"#utility.yul\":1804:1857   */\n      tag_230\n        /* \"#utility.yul\":1849:1856   */\n      dup7\n        /* \"#utility.yul\":1840:1846   */\n      dup3\n        /* \"#utility.yul\":1829:1838   */\n      dup8\n        /* \"#utility.yul\":1825:1847   */\n      add\n        /* \"#utility.yul\":1804:1857   */\n      tag_217\n      jump\t// in\n    tag_230:\n        /* \"#utility.yul\":1794:1857   */\n      swap2\n      pop\n        /* \"#utility.yul\":1749:1867   */\n      pop\n        /* \"#utility.yul\":1075:1874   */\n      swap3\n      pop\n      swap3\n      pop\n      swap3\n      jump\t// out\n        /* \"#utility.yul\":1880:3005   */\n    tag_16:\n        /* \"#utility.yul\":1986:1992   */\n      0x00\n        /* \"#utility.yul\":1994:2000   */\n      dup1\n        /* \"#utility.yul\":2002:2008   */\n      0x00\n        /* \"#utility.yul\":2010:2016   */\n      dup1\n        /* \"#utility.yul\":2059:2062   */\n      0x80\n        /* \"#utility.yul\":2047:2056   */\n      dup6\n        /* \"#utility.yul\":2038:2045   */\n      dup8\n        /* \"#utility.yul\":2034:2057   */\n      sub\n        /* \"#utility.yul\":2030:2063   */\n      slt\n        /* \"#utility.yul\":2027:2147   */\n      iszero\n      tag_232\n      jumpi\n        /* \"#utility.yul\":2066:2145   */\n      tag_233\n      tag_224\n      jump\t// in\n    tag_233:\n        /* \"#utility.yul\":2027:2147   */\n    tag_232:\n        /* \"#utility.yul\":2186:2187   */\n      0x00\n        /* \"#utility.yul\":2211:2264   */\n      tag_234\n        /* \"#utility.yul\":2256:2263   */\n      dup8\n        /* \"#utility.yul\":2247:2253   */\n      dup3\n        /* \"#utility.yul\":2236:2245   */\n      dup9\n        /* \"#utility.yul\":2232:2254   */\n      add\n        /* \"#utility.yul\":2211:2264   */\n      tag_207\n      jump\t// in\n    tag_234:\n        /* \"#utility.yul\":2201:2264   */\n      swap5\n      pop\n        /* \"#utility.yul\":2157:2274   */\n      pop\n        /* \"#utility.yul\":2341:2343   */\n      0x20\n        /* \"#utility.yul\":2330:2339   */\n      dup6\n        /* \"#utility.yul\":2326:2344   */\n      add\n        /* \"#utility.yul\":2313:2345   */\n      calldataload\n        /* \"#utility.yul\":2372:2390   */\n      0xffffffffffffffff\n        /* \"#utility.yul\":2364:2370   */\n      dup2\n        /* \"#utility.yul\":2361:2391   */\n      gt\n        /* \"#utility.yul\":2358:2475   */\n      iszero\n      tag_235\n      jumpi\n        /* \"#utility.yul\":2394:2473   */\n      tag_236\n      tag_228\n      jump\t// in\n    tag_236:\n        /* \"#utility.yul\":2358:2475   */\n    tag_235:\n        /* \"#utility.yul\":2499:2562   */\n      tag_237\n        /* \"#utility.yul\":2554:2561   */\n      dup8\n        /* \"#utility.yul\":2545:2551   */\n      dup3\n        /* \"#utility.yul\":2534:2543   */\n      dup9\n        /* \"#utility.yul\":2530:2552   */\n      add\n        /* \"#utility.yul\":2499:2562   */\n      tag_211\n      jump\t// in\n    tag_237:\n        /* \"#utility.yul\":2489:2562   */\n      swap4\n      pop\n        /* \"#utility.yul\":2284:2572   */\n      pop\n        /* \"#utility.yul\":2611:2613   */\n      0x40\n        /* \"#utility.yul\":2637:2690   */\n      tag_238\n        /* \"#utility.yul\":2682:2689   */\n      dup8\n        /* \"#utility.yul\":2673:2679   */\n      dup3\n        /* \"#utility.yul\":2662:2671   */\n      dup9\n        /* \"#utility.yul\":2658:2680   */\n      add\n        /* \"#utility.yul\":2637:2690   */\n      tag_217\n      jump\t// in\n    tag_238:\n        /* \"#utility.yul\":2627:2690   */\n      swap3\n      pop\n        /* \"#utility.yul\":2582:2700   */\n      pop\n        /* \"#utility.yul\":2767:2769   */\n      0x60\n        /* \"#utility.yul\":2756:2765   */\n      dup6\n        /* \"#utility.yul\":2752:2770   */\n      add\n        /* \"#utility.yul\":2739:2771   */\n      calldataload\n        /* \"#utility.yul\":2798:2816   */\n      0xffffffffffffffff\n        /* \"#utility.yul\":2790:2796   */\n      dup2\n        /* \"#utility.yul\":2787:2817   */\n      gt\n        /* \"#utility.yul\":2784:2901   */\n      iszero\n      tag_239\n      jumpi\n        /* \"#utility.yul\":2820:2899   */\n      tag_240\n      tag_228\n      jump\t// in\n    tag_240:\n        /* \"#utility.yul\":2784:2901   */\n    tag_239:\n        /* \"#utility.yul\":2925:2988   */\n      tag_241\n        /* \"#utility.yul\":2980:2987   */\n      dup8\n        /* \"#utility.yul\":2971:2977   */\n      dup3\n        /* \"#utility.yul\":2960:2969   */\n      dup9\n        /* \"#utility.yul\":2956:2978   */\n      add\n        /* \"#utility.yul\":2925:2988   */\n      tag_211\n      jump\t// in\n    tag_241:\n        /* \"#utility.yul\":2915:2988   */\n      swap2\n      pop\n        /* \"#utility.yul\":2710:2998   */\n      pop\n        /* \"#utility.yul\":1880:3005   */\n      swap3\n      swap6\n      swap2\n      swap5\n      pop\n      swap3\n      pop\n      jump\t// out\n        /* \"#utility.yul\":3011:3520   */\n    tag_34:\n        /* \"#utility.yul\":3080:3086   */\n      0x00\n        /* \"#utility.yul\":3129:3131   */\n      0x20\n        /* \"#utility.yul\":3117:3126   */\n      dup3\n        /* \"#utility.yul\":3108:3115   */\n      dup5\n        /* \"#utility.yul\":3104:3127   */\n      sub\n        /* \"#utility.yul\":3100:3132   */\n      slt\n        /* \"#utility.yul\":3097:3216   */\n      iszero\n      tag_243\n      jumpi\n        /* \"#utility.yul\":3135:3214   */\n      tag_244\n      tag_224\n      jump\t// in\n    tag_244:\n        /* \"#utility.yul\":3097:3216   */\n    tag_243:\n        /* \"#utility.yul\":3283:3284   */\n      0x00\n        /* \"#utility.yul\":3272:3281   */\n      dup3\n        /* \"#utility.yul\":3268:3285   */\n      add\n        /* \"#utility.yul\":3255:3286   */\n      calldataload\n        /* \"#utility.yul\":3313:3331   */\n      0xffffffffffffffff\n        /* \"#utility.yul\":3305:3311   */\n      dup2\n        /* \"#utility.yul\":3302:3332   */\n      gt\n        /* \"#utility.yul\":3299:3416   */\n      iszero\n      tag_245\n      jumpi\n        /* \"#utility.yul\":3335:3414   */\n      tag_246\n      tag_228\n      jump\t// in\n    tag_246:\n        /* \"#utility.yul\":3299:3416   */\n    tag_245:\n        /* \"#utility.yul\":3440:3503   */\n      tag_247\n        /* \"#utility.yul\":3495:3502   */\n      dup5\n        /* \"#utility.yul\":3486:3492   */\n      dup3\n        /* \"#utility.yul\":3475:3484   */\n      dup6\n        /* \"#utility.yul\":3471:3493   */\n      add\n        /* \"#utility.yul\":3440:3503   */\n      tag_211\n      jump\t// in\n    tag_247:\n        /* \"#utility.yul\":3430:3503   */\n      swap2\n      pop\n        /* \"#utility.yul\":3226:3513   */\n      pop\n        /* \"#utility.yul\":3011:3520   */\n      swap3\n      swap2\n      pop\n      pop\n      jump\t// out\n        /* \"#utility.yul\":3526:3855   */\n    tag_39:\n        /* \"#utility.yul\":3585:3591   */\n      0x00\n        /* \"#utility.yul\":3634:3636   */\n      0x20\n        /* \"#utility.yul\":3622:3631   */\n      dup3\n        /* \"#utility.yul\":3613:3620   */\n      dup5\n        /* \"#utility.yul\":3609:3632   */\n      sub\n        /* \"#utility.yul\":3605:3637   */\n      slt\n        /* \"#utility.yul\":3602:3721   */\n      iszero\n      tag_249\n      jumpi\n        /* \"#utility.yul\":3640:3719   */\n      tag_250\n      tag_224\n      jump\t// in\n    tag_250:\n        /* \"#utility.yul\":3602:3721   */\n    tag_249:\n        /* \"#utility.yul\":3760:3761   */\n      0x00\n        /* \"#utility.yul\":3785:3838   */\n      tag_251\n        /* \"#utility.yul\":3830:3837   */\n      dup5\n        /* \"#utility.yul\":3821:3827   */\n      dup3\n        /* \"#utility.yul\":3810:3819   */\n      dup6\n        /* \"#utility.yul\":3806:3828   */\n      add\n        /* \"#utility.yul\":3785:3838   */\n      tag_217\n      jump\t// in\n    tag_251:\n        /* \"#utility.yul\":3775:3838   */\n      swap2\n      pop\n        /* \"#utility.yul\":3731:3848   */\n      pop\n        /* \"#utility.yul\":3526:3855   */\n      swap3\n      swap2\n      pop\n      pop\n      jump\t// out\n        /* \"#utility.yul\":3861:4660   */\n    tag_24:\n        /* \"#utility.yul\":3948:3954   */\n      0x00\n        /* \"#utility.yul\":3956:3962   */\n      dup1\n        /* \"#utility.yul\":3964:3970   */\n      0x00\n        /* \"#utility.yul\":4013:4015   */\n      0x60\n        /* \"#utility.yul\":4001:4010   */\n      dup5\n        /* \"#utility.yul\":3992:3999   */\n      dup7\n        /* \"#utility.yul\":3988:4011   */\n      sub\n        /* \"#utility.yul\":3984:4016   */\n      slt\n        /* \"#utility.yul\":3981:4100   */\n      iszero\n      tag_253\n      jumpi\n        /* \"#utility.yul\":4019:4098   */\n      tag_254\n      tag_224\n      jump\t// in\n    tag_254:\n        /* \"#utility.yul\":3981:4100   */\n    tag_253:\n        /* \"#utility.yul\":4139:4140   */\n      0x00\n        /* \"#utility.yul\":4164:4217   */\n      tag_255\n        /* \"#utility.yul\":4209:4216   */\n      dup7\n        /* \"#utility.yul\":4200:4206   */\n      dup3\n        /* \"#utility.yul\":4189:4198   */\n      dup8\n        /* \"#utility.yul\":4185:4207   */\n      add\n        /* \"#utility.yul\":4164:4217   */\n      tag_217\n      jump\t// in\n    tag_255:\n        /* \"#utility.yul\":4154:4217   */\n      swap4\n      pop\n        /* \"#utility.yul\":4110:4227   */\n      pop\n        /* \"#utility.yul\":4294:4296   */\n      0x20\n        /* \"#utility.yul\":4283:4292   */\n      dup5\n        /* \"#utility.yul\":4279:4297   */\n      add\n        /* \"#utility.yul\":4266:4298   */\n      calldataload\n        /* \"#utility.yul\":4325:4343   */\n      0xffffffffffffffff\n        /* \"#utility.yul\":4317:4323   */\n      dup2\n        /* \"#utility.yul\":4314:4344   */\n      gt\n        /* \"#utility.yul\":4311:4428   */\n      iszero\n      tag_256\n      jumpi\n        /* \"#utility.yul\":4347:4426   */\n      tag_257\n      tag_228\n      jump\t// in\n    tag_257:\n        /* \"#utility.yul\":4311:4428   */\n    tag_256:\n        /* \"#utility.yul\":4452:4515   */\n      tag_258\n        /* \"#utility.yul\":4507:4514   */\n      dup7\n        /* \"#utility.yul\":4498:4504   */\n      dup3\n        /* \"#utility.yul\":4487:4496   */\n      dup8\n        /* \"#utility.yul\":4483:4505   */\n      add\n        /* \"#utility.yul\":4452:4515   */\n      tag_211\n      jump\t// in\n    tag_258:\n        /* \"#utility.yul\":4442:4515   */\n      swap3\n      pop\n        /* \"#utility.yul\":4237:4525   */\n      pop\n        /* \"#utility.yul\":4564:4566   */\n      0x40\n        /* \"#utility.yul\":4590:4643   */\n      tag_259\n        /* \"#utility.yul\":4635:4642   */\n      dup7\n        /* \"#utility.yul\":4626:4632   */\n      dup3\n        /* \"#utility.yul\":4615:4624   */\n      dup8\n        /* \"#utility.yul\":4611:4633   */\n      add\n        /* \"#utility.yul\":4590:4643   */\n      tag_217\n      jump\t// in\n    tag_259:\n        /* \"#utility.yul\":4580:4643   */\n      swap2\n      pop\n        /* \"#utility.yul\":4535:4653   */\n      pop\n        /* \"#utility.yul\":3861:4660   */\n      swap3\n      pop\n      swap3\n      pop\n      swap3\n      jump\t// out\n        /* \"#utility.yul\":4666:4845   */\n    tag_260:\n        /* \"#utility.yul\":4735:4745   */\n      0x00\n        /* \"#utility.yul\":4756:4802   */\n      tag_262\n        /* \"#utility.yul\":4798:4801   */\n      dup4\n        /* \"#utility.yul\":4790:4796   */\n      dup4\n        /* \"#utility.yul\":4756:4802   */\n      tag_263\n      jump\t// in\n    tag_262:\n        /* \"#utility.yul\":4834:4838   */\n      0x20\n        /* \"#utility.yul\":4829:4832   */\n      dup4\n        /* \"#utility.yul\":4825:4839   */\n      add\n        /* \"#utility.yul\":4811:4839   */\n      swap1\n      pop\n        /* \"#utility.yul\":4666:4845   */\n      swap3\n      swap2\n      pop\n      pop\n      jump\t// out\n        /* \"#utility.yul\":4851:5047   */\n    tag_264:\n        /* \"#utility.yul\":4940:4950   */\n      0x00\n        /* \"#utility.yul\":4975:5041   */\n      tag_266\n        /* \"#utility.yul\":5037:5040   */\n      dup4\n        /* \"#utility.yul\":5029:5035   */\n      dup4\n        /* \"#utility.yul\":4975:5041   */\n      tag_267\n      jump\t// in\n    tag_266:\n        /* \"#utility.yul\":4961:5041   */\n      swap1\n      pop\n        /* \"#utility.yul\":4851:5047   */\n      swap3\n      swap2\n      pop\n      pop\n      jump\t// out\n        /* \"#utility.yul\":5053:5232   */\n    tag_268:\n        /* \"#utility.yul\":5122:5132   */\n      0x00\n        /* \"#utility.yul\":5143:5189   */\n      tag_270\n        /* \"#utility.yul\":5185:5188   */\n      dup4\n        /* \"#utility.yul\":5177:5183   */\n      dup4\n        /* \"#utility.yul\":5143:5189   */\n      tag_271\n      jump\t// in\n    tag_270:\n        /* \"#utility.yul\":5221:5225   */\n      0x20\n        /* \"#utility.yul\":5216:5219   */\n      dup4\n        /* \"#utility.yul\":5212:5226   */\n      add\n        /* \"#utility.yul\":5198:5226   */\n      swap1\n      pop\n        /* \"#utility.yul\":5053:5232   */\n      swap3\n      swap2\n      pop\n      pop\n      jump\t// out\n        /* \"#utility.yul\":5238:5346   */\n    tag_263:\n        /* \"#utility.yul\":5315:5339   */\n      tag_273\n        /* \"#utility.yul\":5333:5338   */\n      dup2\n        /* \"#utility.yul\":5315:5339   */\n      tag_274\n      jump\t// in\n    tag_273:\n        /* \"#utility.yul\":5310:5313   */\n      dup3\n        /* \"#utility.yul\":5303:5340   */\n      mstore\n        /* \"#utility.yul\":5238:5346   */\n      pop\n      pop\n      jump\t// out\n        /* \"#utility.yul\":5352:5470   */\n    tag_275:\n        /* \"#utility.yul\":5439:5463   */\n      tag_277\n        /* \"#utility.yul\":5457:5462   */\n      dup2\n        /* \"#utility.yul\":5439:5463   */\n      tag_274\n      jump\t// in\n    tag_277:\n        /* \"#utility.yul\":5434:5437   */\n      dup3\n        /* \"#utility.yul\":5427:5464   */\n      mstore\n        /* \"#utility.yul\":5352:5470   */\n      pop\n      pop\n      jump\t// out\n        /* \"#utility.yul\":5506:6238   */\n    tag_278:\n        /* \"#utility.yul\":5625:5628   */\n      0x00\n        /* \"#utility.yul\":5654:5708   */\n      tag_280\n        /* \"#utility.yul\":5702:5707   */\n      dup3\n        /* \"#utility.yul\":5654:5708   */\n      tag_281\n      jump\t// in\n    tag_280:\n        /* \"#utility.yul\":5724:5810   */\n      tag_282\n        /* \"#utility.yul\":5803:5809   */\n      dup2\n        /* \"#utility.yul\":5798:5801   */\n      dup6\n        /* \"#utility.yul\":5724:5810   */\n      tag_283\n      jump\t// in\n    tag_282:\n        /* \"#utility.yul\":5717:5810   */\n      swap4\n      pop\n        /* \"#utility.yul\":5834:5890   */\n      tag_284\n        /* \"#utility.yul\":5884:5889   */\n      dup4\n        /* \"#utility.yul\":5834:5890   */\n      tag_285\n      jump\t// in\n    tag_284:\n        /* \"#utility.yul\":5913:5920   */\n      dup1\n        /* \"#utility.yul\":5944:5945   */\n      0x00\n        /* \"#utility.yul\":5929:6213   */\n    tag_286:\n        /* \"#utility.yul\":5954:5960   */\n      dup4\n        /* \"#utility.yul\":5951:5952   */\n      dup2\n        /* \"#utility.yul\":5948:5961   */\n      lt\n        /* \"#utility.yul\":5929:6213   */\n      iszero\n      tag_288\n      jumpi\n        /* \"#utility.yul\":6030:6036   */\n      dup2\n        /* \"#utility.yul\":6024:6037   */\n      mload\n        /* \"#utility.yul\":6057:6120   */\n      tag_289\n        /* \"#utility.yul\":6116:6119   */\n      dup9\n        /* \"#utility.yul\":6101:6114   */\n      dup3\n        /* \"#utility.yul\":6057:6120   */\n      tag_260\n      jump\t// in\n    tag_289:\n        /* \"#utility.yul\":6050:6120   */\n      swap8\n      pop\n        /* \"#utility.yul\":6143:6203   */\n      tag_290\n        /* \"#utility.yul\":6196:6202   */\n      dup4\n        /* \"#utility.yul\":6143:6203   */\n      tag_291\n      jump\t// in\n    tag_290:\n        /* \"#utility.yul\":6133:6203   */\n      swap3\n      pop\n        /* \"#utility.yul\":5989:6213   */\n      pop\n        /* \"#utility.yul\":5976:5977   */\n      0x01\n        /* \"#utility.yul\":5973:5974   */\n      dup2\n        /* \"#utility.yul\":5969:5978   */\n      add\n        /* \"#utility.yul\":5964:5978   */\n      swap1\n      pop\n        /* \"#utility.yul\":5929:6213   */\n      jump(tag_286)\n    tag_288:\n        /* \"#utility.yul\":5933:5947   */\n      pop\n        /* \"#utility.yul\":6229:6232   */\n      dup6\n        /* \"#utility.yul\":6222:6232   */\n      swap4\n      pop\n        /* \"#utility.yul\":5630:6238   */\n      pop\n      pop\n      pop\n        /* \"#utility.yul\":5506:6238   */\n      swap3\n      swap2\n      pop\n      pop\n      jump\t// out\n        /* \"#utility.yul\":6272:7263   */\n    tag_292:\n        /* \"#utility.yul\":6411:6414   */\n      0x00\n        /* \"#utility.yul\":6440:6504   */\n      tag_294\n        /* \"#utility.yul\":6498:6503   */\n      dup3\n        /* \"#utility.yul\":6440:6504   */\n      tag_295\n      jump\t// in\n    tag_294:\n        /* \"#utility.yul\":6520:6616   */\n      tag_296\n        /* \"#utility.yul\":6609:6615   */\n      dup2\n        /* \"#utility.yul\":6604:6607   */\n      dup6\n        /* \"#utility.yul\":6520:6616   */\n      tag_297\n      jump\t// in\n    tag_296:\n        /* \"#utility.yul\":6513:6616   */\n      swap4\n      pop\n        /* \"#utility.yul\":6642:6645   */\n      dup4\n        /* \"#utility.yul\":6687:6691   */\n      0x20\n        /* \"#utility.yul\":6679:6685   */\n      dup3\n        /* \"#utility.yul\":6675:6692   */\n      mul\n        /* \"#utility.yul\":6670:6673   */\n      dup6\n        /* \"#utility.yul\":6666:6693   */\n      add\n        /* \"#utility.yul\":6717:6783   */\n      tag_298\n        /* \"#utility.yul\":6777:6782   */\n      dup6\n        /* \"#utility.yul\":6717:6783   */\n      tag_299\n      jump\t// in\n    tag_298:\n        /* \"#utility.yul\":6806:6813   */\n      dup1\n        /* \"#utility.yul\":6837:6838   */\n      0x00\n        /* \"#utility.yul\":6822:7218   */\n    tag_300:\n        /* \"#utility.yul\":6847:6853   */\n      dup6\n        /* \"#utility.yul\":6844:6845   */\n      dup2\n        /* \"#utility.yul\":6841:6854   */\n      lt\n        /* \"#utility.yul\":6822:7218   */\n      iszero\n      tag_302\n      jumpi\n        /* \"#utility.yul\":6918:6927   */\n      dup5\n        /* \"#utility.yul\":6912:6916   */\n      dup5\n        /* \"#utility.yul\":6908:6928   */\n      sub\n        /* \"#utility.yul\":6903:6906   */\n      dup10\n        /* \"#utility.yul\":6896:6929   */\n      mstore\n        /* \"#utility.yul\":6969:6975   */\n      dup2\n        /* \"#utility.yul\":6963:6976   */\n      mload\n        /* \"#utility.yul\":6997:7081   */\n      tag_303\n        /* \"#utility.yul\":7076:7080   */\n      dup6\n        /* \"#utility.yul\":7061:7074   */\n      dup3\n        /* \"#utility.yul\":6997:7081   */\n      tag_264\n      jump\t// in\n    tag_303:\n        /* \"#utility.yul\":6989:7081   */\n      swap5\n      pop\n        /* \"#utility.yul\":7104:7174   */\n      tag_304\n        /* \"#utility.yul\":7167:7173   */\n      dup4\n        /* \"#utility.yul\":7104:7174   */\n      tag_305\n      jump\t// in\n    tag_304:\n        /* \"#utility.yul\":7094:7174   */\n      swap3\n      pop\n        /* \"#utility.yul\":7203:7207   */\n      0x20\n        /* \"#utility.yul\":7198:7201   */\n      dup11\n        /* \"#utility.yul\":7194:7208   */\n      add\n        /* \"#utility.yul\":7187:7208   */\n      swap10\n      pop\n        /* \"#utility.yul\":6882:7218   */\n      pop\n        /* \"#utility.yul\":6869:6870   */\n      0x01\n        /* \"#utility.yul\":6866:6867   */\n      dup2\n        /* \"#utility.yul\":6862:6871   */\n      add\n        /* \"#utility.yul\":6857:6871   */\n      swap1\n      pop\n        /* \"#utility.yul\":6822:7218   */\n      jump(tag_300)\n    tag_302:\n        /* \"#utility.yul\":6826:6840   */\n      pop\n        /* \"#utility.yul\":7234:7238   */\n      dup3\n        /* \"#utility.yul\":7227:7238   */\n      swap8\n      pop\n        /* \"#utility.yul\":7254:7257   */\n      dup8\n        /* \"#utility.yul\":7247:7257   */\n      swap6\n      pop\n        /* \"#utility.yul\":6416:7263   */\n      pop\n      pop\n      pop\n      pop\n      pop\n        /* \"#utility.yul\":6272:7263   */\n      swap3\n      swap2\n      pop\n      pop\n      jump\t// out\n        /* \"#utility.yul\":7303:8003   */\n    tag_306:\n        /* \"#utility.yul\":7441:7494   */\n      tag_308\n        /* \"#utility.yul\":7488:7493   */\n      dup2\n        /* \"#utility.yul\":7441:7494   */\n      tag_309\n      jump\t// in\n    tag_308:\n        /* \"#utility.yul\":7510:7595   */\n      tag_310\n        /* \"#utility.yul\":7588:7594   */\n      dup2\n        /* \"#utility.yul\":7583:7586   */\n      dup5\n        /* \"#utility.yul\":7510:7595   */\n      tag_311\n      jump\t// in\n    tag_310:\n        /* \"#utility.yul\":7503:7595   */\n      swap3\n      pop\n        /* \"#utility.yul\":7619:7674   */\n      tag_312\n        /* \"#utility.yul\":7668:7673   */\n      dup3\n        /* \"#utility.yul\":7619:7674   */\n      tag_313\n      jump\t// in\n    tag_312:\n        /* \"#utility.yul\":7697:7704   */\n      dup1\n        /* \"#utility.yul\":7728:7729   */\n      0x00\n        /* \"#utility.yul\":7713:7996   */\n    tag_314:\n        /* \"#utility.yul\":7738:7744   */\n      dup4\n        /* \"#utility.yul\":7735:7736   */\n      dup2\n        /* \"#utility.yul\":7732:7745   */\n      lt\n        /* \"#utility.yul\":7713:7996   */\n      iszero\n      tag_316\n      jumpi\n        /* \"#utility.yul\":7814:7820   */\n      dup2\n        /* \"#utility.yul\":7808:7821   */\n      mload\n        /* \"#utility.yul\":7841:7904   */\n      tag_317\n        /* \"#utility.yul\":7900:7903   */\n      dup8\n        /* \"#utility.yul\":7885:7898   */\n      dup3\n        /* \"#utility.yul\":7841:7904   */\n      tag_268\n      jump\t// in\n    tag_317:\n        /* \"#utility.yul\":7834:7904   */\n      swap7\n      pop\n        /* \"#utility.yul\":7927:7986   */\n      tag_318\n        /* \"#utility.yul\":7979:7985   */\n      dup4\n        /* \"#utility.yul\":7927:7986   */\n      tag_319\n      jump\t// in\n    tag_318:\n        /* \"#utility.yul\":7917:7986   */\n      swap3\n      pop\n        /* \"#utility.yul\":7773:7996   */\n      pop\n        /* \"#utility.yul\":7760:7761   */\n      0x01\n        /* \"#utility.yul\":7757:7758   */\n      dup2\n        /* \"#utility.yul\":7753:7762   */\n      add\n        /* \"#utility.yul\":7748:7762   */\n      swap1\n      pop\n        /* \"#utility.yul\":7713:7996   */\n      jump(tag_314)\n    tag_316:\n        /* \"#utility.yul\":7717:7731   */\n      pop\n        /* \"#utility.yul\":7417:8003   */\n      pop\n      pop\n      pop\n        /* \"#utility.yul\":7303:8003   */\n      pop\n      pop\n      jump\t// out\n        /* \"#utility.yul\":8009:8353   */\n    tag_267:\n        /* \"#utility.yul\":8087:8090   */\n      0x00\n        /* \"#utility.yul\":8115:8154   */\n      tag_321\n        /* \"#utility.yul\":8148:8153   */\n      dup3\n        /* \"#utility.yul\":8115:8154   */\n      tag_322\n      jump\t// in\n    tag_321:\n        /* \"#utility.yul\":8170:8231   */\n      tag_323\n        /* \"#utility.yul\":8224:8230   */\n      dup2\n        /* \"#utility.yul\":8219:8222   */\n      dup6\n        /* \"#utility.yul\":8170:8231   */\n      tag_324\n      jump\t// in\n    tag_323:\n        /* \"#utility.yul\":8163:8231   */\n      swap4\n      pop\n        /* \"#utility.yul\":8240:8292   */\n      tag_325\n        /* \"#utility.yul\":8285:8291   */\n      dup2\n        /* \"#utility.yul\":8280:8283   */\n      dup6\n        /* \"#utility.yul\":8273:8277   */\n      0x20\n        /* \"#utility.yul\":8266:8271   */\n      dup7\n        /* \"#utility.yul\":8262:8278   */\n      add\n        /* \"#utility.yul\":8240:8292   */\n      tag_326\n      jump\t// in\n    tag_325:\n        /* \"#utility.yul\":8317:8346   */\n      tag_327\n        /* \"#utility.yul\":8339:8345   */\n      dup2\n        /* \"#utility.yul\":8317:8346   */\n      tag_328\n      jump\t// in\n    tag_327:\n        /* \"#utility.yul\":8312:8315   */\n      dup5\n        /* \"#utility.yul\":8308:8347   */\n      add\n        /* \"#utility.yul\":8301:8347   */\n      swap2\n      pop\n        /* \"#utility.yul\":8091:8353   */\n      pop\n        /* \"#utility.yul\":8009:8353   */\n      swap3\n      swap2\n      pop\n      pop\n      jump\t// out\n        /* \"#utility.yul\":8359:8723   */\n    tag_329:\n        /* \"#utility.yul\":8447:8450   */\n      0x00\n        /* \"#utility.yul\":8475:8514   */\n      tag_331\n        /* \"#utility.yul\":8508:8513   */\n      dup3\n        /* \"#utility.yul\":8475:8514   */\n      tag_322\n      jump\t// in\n    tag_331:\n        /* \"#utility.yul\":8530:8601   */\n      tag_332\n        /* \"#utility.yul\":8594:8600   */\n      dup2\n        /* \"#utility.yul\":8589:8592   */\n      dup6\n        /* \"#utility.yul\":8530:8601   */\n      tag_333\n      jump\t// in\n    tag_332:\n        /* \"#utility.yul\":8523:8601   */\n      swap4\n      pop\n        /* \"#utility.yul\":8610:8662   */\n      tag_334\n        /* \"#utility.yul\":8655:8661   */\n      dup2\n        /* \"#utility.yul\":8650:8653   */\n      dup6\n        /* \"#utility.yul\":8643:8647   */\n      0x20\n        /* \"#utility.yul\":8636:8641   */\n      dup7\n        /* \"#utility.yul\":8632:8648   */\n      add\n        /* \"#utility.yul\":8610:8662   */\n      tag_326\n      jump\t// in\n    tag_334:\n        /* \"#utility.yul\":8687:8716   */\n      tag_335\n        /* \"#utility.yul\":8709:8715   */\n      dup2\n        /* \"#utility.yul\":8687:8716   */\n      tag_328\n      jump\t// in\n    tag_335:\n        /* \"#utility.yul\":8682:8685   */\n      dup5\n        /* \"#utility.yul\":8678:8717   */\n      add\n        /* \"#utility.yul\":8671:8717   */\n      swap2\n      pop\n        /* \"#utility.yul\":8451:8723   */\n      pop\n        /* \"#utility.yul\":8359:8723   */\n      swap3\n      swap2\n      pop\n      pop\n      jump\t// out\n        /* \"#utility.yul\":8729:9106   */\n    tag_336:\n        /* \"#utility.yul\":8835:8838   */\n      0x00\n        /* \"#utility.yul\":8863:8902   */\n      tag_338\n        /* \"#utility.yul\":8896:8901   */\n      dup3\n        /* \"#utility.yul\":8863:8902   */\n      tag_322\n      jump\t// in\n    tag_338:\n        /* \"#utility.yul\":8918:9007   */\n      tag_339\n        /* \"#utility.yul\":9000:9006   */\n      dup2\n        /* \"#utility.yul\":8995:8998   */\n      dup6\n        /* \"#utility.yul\":8918:9007   */\n      tag_340\n      jump\t// in\n    tag_339:\n        /* \"#utility.yul\":8911:9007   */\n      swap4\n      pop\n        /* \"#utility.yul\":9016:9068   */\n      tag_341\n        /* \"#utility.yul\":9061:9067   */\n      dup2\n        /* \"#utility.yul\":9056:9059   */\n      dup6\n        /* \"#utility.yul\":9049:9053   */\n      0x20\n        /* \"#utility.yul\":9042:9047   */\n      dup7\n        /* \"#utility.yul\":9038:9054   */\n      add\n        /* \"#utility.yul\":9016:9068   */\n      tag_326\n      jump\t// in\n    tag_341:\n        /* \"#utility.yul\":9093:9099   */\n      dup1\n        /* \"#utility.yul\":9088:9091   */\n      dup5\n        /* \"#utility.yul\":9084:9100   */\n      add\n        /* \"#utility.yul\":9077:9100   */\n      swap2\n      pop\n        /* \"#utility.yul\":8839:9106   */\n      pop\n        /* \"#utility.yul\":8729:9106   */\n      swap3\n      swap2\n      pop\n      pop\n      jump\t// out\n        /* \"#utility.yul\":9112:9478   */\n    tag_342:\n        /* \"#utility.yul\":9254:9257   */\n      0x00\n        /* \"#utility.yul\":9275:9342   */\n      tag_344\n        /* \"#utility.yul\":9339:9341   */\n      0x13\n        /* \"#utility.yul\":9334:9337   */\n      dup4\n        /* \"#utility.yul\":9275:9342   */\n      tag_333\n      jump\t// in\n    tag_344:\n        /* \"#utility.yul\":9268:9342   */\n      swap2\n      pop\n        /* \"#utility.yul\":9351:9444   */\n      tag_345\n        /* \"#utility.yul\":9440:9443   */\n      dup3\n        /* \"#utility.yul\":9351:9444   */\n      tag_346\n      jump\t// in\n    tag_345:\n        /* \"#utility.yul\":9469:9471   */\n      0x20\n        /* \"#utility.yul\":9464:9467   */\n      dup3\n        /* \"#utility.yul\":9460:9472   */\n      add\n        /* \"#utility.yul\":9453:9472   */\n      swap1\n      pop\n        /* \"#utility.yul\":9112:9478   */\n      swap2\n      swap1\n      pop\n      jump\t// out\n        /* \"#utility.yul\":9484:9850   */\n    tag_347:\n        /* \"#utility.yul\":9626:9629   */\n      0x00\n        /* \"#utility.yul\":9647:9714   */\n      tag_349\n        /* \"#utility.yul\":9711:9713   */\n      0x0f\n        /* \"#utility.yul\":9706:9709   */\n      dup4\n        /* \"#utility.yul\":9647:9714   */\n      tag_333\n      jump\t// in\n    tag_349:\n        /* \"#utility.yul\":9640:9714   */\n      swap2\n      pop\n        /* \"#utility.yul\":9723:9816   */\n      tag_350\n        /* \"#utility.yul\":9812:9815   */\n      dup3\n        /* \"#utility.yul\":9723:9816   */\n      tag_351\n      jump\t// in\n    tag_350:\n        /* \"#utility.yul\":9841:9843   */\n      0x20\n        /* \"#utility.yul\":9836:9839   */\n      dup3\n        /* \"#utility.yul\":9832:9844   */\n      add\n        /* \"#utility.yul\":9825:9844   */\n      swap1\n      pop\n        /* \"#utility.yul\":9484:9850   */\n      swap2\n      swap1\n      pop\n      jump\t// out\n        /* \"#utility.yul\":9856:9964   */\n    tag_271:\n        /* \"#utility.yul\":9933:9957   */\n      tag_353\n        /* \"#utility.yul\":9951:9956   */\n      dup2\n        /* \"#utility.yul\":9933:9957   */\n      tag_354\n      jump\t// in\n    tag_353:\n        /* \"#utility.yul\":9928:9931   */\n      dup3\n        /* \"#utility.yul\":9921:9958   */\n      mstore\n        /* \"#utility.yul\":9856:9964   */\n      pop\n      pop\n      jump\t// out\n        /* \"#utility.yul\":9970:10088   */\n    tag_355:\n        /* \"#utility.yul\":10057:10081   */\n      tag_357\n        /* \"#utility.yul\":10075:10080   */\n      dup2\n        /* \"#utility.yul\":10057:10081   */\n      tag_354\n      jump\t// in\n    tag_357:\n        /* \"#utility.yul\":10052:10055   */\n      dup3\n        /* \"#utility.yul\":10045:10082   */\n      mstore\n        /* \"#utility.yul\":9970:10088   */\n      pop\n      pop\n      jump\t// out\n        /* \"#utility.yul\":10094:10369   */\n    tag_68:\n        /* \"#utility.yul\":10226:10229   */\n      0x00\n        /* \"#utility.yul\":10248:10343   */\n      tag_359\n        /* \"#utility.yul\":10339:10342   */\n      dup3\n        /* \"#utility.yul\":10330:10336   */\n      dup5\n        /* \"#utility.yul\":10248:10343   */\n      tag_336\n      jump\t// in\n    tag_359:\n        /* \"#utility.yul\":10241:10343   */\n      swap2\n      pop\n        /* \"#utility.yul\":10360:10363   */\n      dup2\n        /* \"#utility.yul\":10353:10363   */\n      swap1\n      pop\n        /* \"#utility.yul\":10094:10369   */\n      swap3\n      swap2\n      pop\n      pop\n      jump\t// out\n        /* \"#utility.yul\":10375:10798   */\n    tag_42:\n        /* \"#utility.yul\":10516:10520   */\n      0x00\n        /* \"#utility.yul\":10554:10556   */\n      0x40\n        /* \"#utility.yul\":10543:10552   */\n      dup3\n        /* \"#utility.yul\":10539:10557   */\n      add\n        /* \"#utility.yul\":10531:10557   */\n      swap1\n      pop\n        /* \"#utility.yul\":10567:10638   */\n      tag_361\n        /* \"#utility.yul\":10635:10636   */\n      0x00\n        /* \"#utility.yul\":10624:10633   */\n      dup4\n        /* \"#utility.yul\":10620:10637   */\n      add\n        /* \"#utility.yul\":10611:10617   */\n      dup6\n        /* \"#utility.yul\":10567:10638   */\n      tag_275\n      jump\t// in\n    tag_361:\n        /* \"#utility.yul\":10685:10694   */\n      dup2\n        /* \"#utility.yul\":10679:10683   */\n      dup2\n        /* \"#utility.yul\":10675:10695   */\n      sub\n        /* \"#utility.yul\":10670:10672   */\n      0x20\n        /* \"#utility.yul\":10659:10668   */\n      dup4\n        /* \"#utility.yul\":10655:10673   */\n      add\n        /* \"#utility.yul\":10648:10696   */\n      mstore\n        /* \"#utility.yul\":10713:10791   */\n      tag_362\n        /* \"#utility.yul\":10786:10790   */\n      dup2\n        /* \"#utility.yul\":10777:10783   */\n      dup5\n        /* \"#utility.yul\":10713:10791   */\n      tag_329\n      jump\t// in\n    tag_362:\n        /* \"#utility.yul\":10705:10791   */\n      swap1\n      pop\n        /* \"#utility.yul\":10375:10798   */\n      swap4\n      swap3\n      pop\n      pop\n      pop\n      jump\t// out\n        /* \"#utility.yul\":10804:11545   */\n    tag_50:\n        /* \"#utility.yul\":11049:11053   */\n      0x00\n        /* \"#utility.yul\":11087:11091   */\n      0x0600\n        /* \"#utility.yul\":11076:11085   */\n      dup3\n        /* \"#utility.yul\":11072:11092   */\n      add\n        /* \"#utility.yul\":11064:11092   */\n      swap1\n      pop\n        /* \"#utility.yul\":11102:11173   */\n      tag_364\n        /* \"#utility.yul\":11170:11171   */\n      0x00\n        /* \"#utility.yul\":11159:11168   */\n      dup4\n        /* \"#utility.yul\":11155:11172   */\n      add\n        /* \"#utility.yul\":11146:11152   */\n      dup8\n        /* \"#utility.yul\":11102:11173   */\n      tag_275\n      jump\t// in\n    tag_364:\n        /* \"#utility.yul\":11220:11229   */\n      dup2\n        /* \"#utility.yul\":11214:11218   */\n      dup2\n        /* \"#utility.yul\":11210:11230   */\n      sub\n        /* \"#utility.yul\":11205:11207   */\n      0x20\n        /* \"#utility.yul\":11194:11203   */\n      dup4\n        /* \"#utility.yul\":11190:11208   */\n      add\n        /* \"#utility.yul\":11183:11231   */\n      mstore\n        /* \"#utility.yul\":11248:11326   */\n      tag_365\n        /* \"#utility.yul\":11321:11325   */\n      dup2\n        /* \"#utility.yul\":11312:11318   */\n      dup7\n        /* \"#utility.yul\":11248:11326   */\n      tag_329\n      jump\t// in\n    tag_365:\n        /* \"#utility.yul\":11240:11326   */\n      swap1\n      pop\n        /* \"#utility.yul\":11336:11408   */\n      tag_366\n        /* \"#utility.yul\":11404:11406   */\n      0x40\n        /* \"#utility.yul\":11393:11402   */\n      dup4\n        /* \"#utility.yul\":11389:11407   */\n      add\n        /* \"#utility.yul\":11380:11386   */\n      dup6\n        /* \"#utility.yul\":11336:11408   */\n      tag_355\n      jump\t// in\n    tag_366:\n        /* \"#utility.yul\":11418:11538   */\n      tag_367\n        /* \"#utility.yul\":11534:11536   */\n      0x60\n        /* \"#utility.yul\":11523:11532   */\n      dup4\n        /* \"#utility.yul\":11519:11537   */\n      add\n        /* \"#utility.yul\":11510:11516   */\n      dup5\n        /* \"#utility.yul\":11418:11538   */\n      tag_306\n      jump\t// in\n    tag_367:\n        /* \"#utility.yul\":10804:11545   */\n      swap6\n      swap5\n      pop\n      pop\n      pop\n      pop\n      pop\n      jump\t// out\n        /* \"#utility.yul\":11551:11924   */\n    tag_21:\n        /* \"#utility.yul\":11694:11698   */\n      0x00\n        /* \"#utility.yul\":11732:11734   */\n      0x20\n        /* \"#utility.yul\":11721:11730   */\n      dup3\n        /* \"#utility.yul\":11717:11735   */\n      add\n        /* \"#utility.yul\":11709:11735   */\n      swap1\n      pop\n        /* \"#utility.yul\":11781:11790   */\n      dup2\n        /* \"#utility.yul\":11775:11779   */\n      dup2\n        /* \"#utility.yul\":11771:11791   */\n      sub\n        /* \"#utility.yul\":11767:11768   */\n      0x00\n        /* \"#utility.yul\":11756:11765   */\n      dup4\n        /* \"#utility.yul\":11752:11769   */\n      add\n        /* \"#utility.yul\":11745:11792   */\n      mstore\n        /* \"#utility.yul\":11809:11917   */\n      tag_369\n        /* \"#utility.yul\":11912:11916   */\n      dup2\n        /* \"#utility.yul\":11903:11909   */\n      dup5\n        /* \"#utility.yul\":11809:11917   */\n      tag_278\n      jump\t// in\n    tag_369:\n        /* \"#utility.yul\":11801:11917   */\n      swap1\n      pop\n        /* \"#utility.yul\":11551:11924   */\n      swap3\n      swap2\n      pop\n      pop\n      jump\t// out\n        /* \"#utility.yul\":11930:12343   */\n    tag_31:\n        /* \"#utility.yul\":12093:12097   */\n      0x00\n        /* \"#utility.yul\":12131:12133   */\n      0x20\n        /* \"#utility.yul\":12120:12129   */\n      dup3\n        /* \"#utility.yul\":12116:12134   */\n      add\n        /* \"#utility.yul\":12108:12134   */\n      swap1\n      pop\n        /* \"#utility.yul\":12180:12189   */\n      dup2\n        /* \"#utility.yul\":12174:12178   */\n      dup2\n        /* \"#utility.yul\":12170:12190   */\n      sub\n        /* \"#utility.yul\":12166:12167   */\n      0x00\n        /* \"#utility.yul\":12155:12164   */\n      dup4\n        /* \"#utility.yul\":12151:12168   */\n      add\n        /* \"#utility.yul\":12144:12191   */\n      mstore\n        /* \"#utility.yul\":12208:12336   */\n      tag_371\n        /* \"#utility.yul\":12331:12335   */\n      dup2\n        /* \"#utility.yul\":12322:12328   */\n      dup5\n        /* \"#utility.yul\":12208:12336   */\n      tag_292\n      jump\t// in\n    tag_371:\n        /* \"#utility.yul\":12200:12336   */\n      swap1\n      pop\n        /* \"#utility.yul\":11930:12343   */\n      swap3\n      swap2\n      pop\n      pop\n      jump\t// out\n        /* \"#utility.yul\":12349:12662   */\n    tag_27:\n        /* \"#utility.yul\":12462:12466   */\n      0x00\n        /* \"#utility.yul\":12500:12502   */\n      0x20\n        /* \"#utility.yul\":12489:12498   */\n      dup3\n        /* \"#utility.yul\":12485:12503   */\n      add\n        /* \"#utility.yul\":12477:12503   */\n      swap1\n      pop\n        /* \"#utility.yul\":12549:12558   */\n      dup2\n        /* \"#utility.yul\":12543:12547   */\n      dup2\n        /* \"#utility.yul\":12539:12559   */\n      sub\n        /* \"#utility.yul\":12535:12536   */\n      0x00\n        /* \"#utility.yul\":12524:12533   */\n      dup4\n        /* \"#utility.yul\":12520:12537   */\n      add\n        /* \"#utility.yul\":12513:12560   */\n      mstore\n        /* \"#utility.yul\":12577:12655   */\n      tag_373\n        /* \"#utility.yul\":12650:12654   */\n      dup2\n        /* \"#utility.yul\":12641:12647   */\n      dup5\n        /* \"#utility.yul\":12577:12655   */\n      tag_329\n      jump\t// in\n    tag_373:\n        /* \"#utility.yul\":12569:12655   */\n      swap1\n      pop\n        /* \"#utility.yul\":12349:12662   */\n      swap3\n      swap2\n      pop\n      pop\n      jump\t// out\n        /* \"#utility.yul\":12668:13087   */\n    tag_148:\n        /* \"#utility.yul\":12834:12838   */\n      0x00\n        /* \"#utility.yul\":12872:12874   */\n      0x20\n        /* \"#utility.yul\":12861:12870   */\n      dup3\n        /* \"#utility.yul\":12857:12875   */\n      add\n        /* \"#utility.yul\":12849:12875   */\n      swap1\n      pop\n        /* \"#utility.yul\":12921:12930   */\n      dup2\n        /* \"#utility.yul\":12915:12919   */\n      dup2\n        /* \"#utility.yul\":12911:12931   */\n      sub\n        /* \"#utility.yul\":12907:12908   */\n      0x00\n        /* \"#utility.yul\":12896:12905   */\n      dup4\n        /* \"#utility.yul\":12892:12909   */\n      add\n        /* \"#utility.yul\":12885:12932   */\n      mstore\n        /* \"#utility.yul\":12949:13080   */\n      tag_375\n        /* \"#utility.yul\":13075:13079   */\n      dup2\n        /* \"#utility.yul\":12949:13080   */\n      tag_342\n      jump\t// in\n    tag_375:\n        /* \"#utility.yul\":12941:13080   */\n      swap1\n      pop\n        /* \"#utility.yul\":12668:13087   */\n      swap2\n      swap1\n      pop\n      jump\t// out\n        /* \"#utility.yul\":13093:13512   */\n    tag_96:\n        /* \"#utility.yul\":13259:13263   */\n      0x00\n        /* \"#utility.yul\":13297:13299   */\n      0x20\n        /* \"#utility.yul\":13286:13295   */\n      dup3\n        /* \"#utility.yul\":13282:13300   */\n      add\n        /* \"#utility.yul\":13274:13300   */\n      swap1\n      pop\n        /* \"#utility.yul\":13346:13355   */\n      dup2\n        /* \"#utility.yul\":13340:13344   */\n      dup2\n        /* \"#utility.yul\":13336:13356   */\n      sub\n        /* \"#utility.yul\":13332:13333   */\n      0x00\n        /* \"#utility.yul\":13321:13330   */\n      dup4\n        /* \"#utility.yul\":13317:13334   */\n      add\n        /* \"#utility.yul\":13310:13357   */\n      mstore\n        /* \"#utility.yul\":13374:13505   */\n      tag_377\n        /* \"#utility.yul\":13500:13504   */\n      dup2\n        /* \"#utility.yul\":13374:13505   */\n      tag_347\n      jump\t// in\n    tag_377:\n        /* \"#utility.yul\":13366:13505   */\n      swap1\n      pop\n        /* \"#utility.yul\":13093:13512   */\n      swap2\n      swap1\n      pop\n      jump\t// out\n        /* \"#utility.yul\":13518:13647   */\n    tag_201:\n        /* \"#utility.yul\":13552:13558   */\n      0x00\n        /* \"#utility.yul\":13579:13599   */\n      tag_379\n      tag_380\n      jump\t// in\n    tag_379:\n        /* \"#utility.yul\":13569:13599   */\n      swap1\n      pop\n        /* \"#utility.yul\":13608:13641   */\n      tag_381\n        /* \"#utility.yul\":13636:13640   */\n      dup3\n        /* \"#utility.yul\":13628:13634   */\n      dup3\n        /* \"#utility.yul\":13608:13641   */\n      tag_382\n      jump\t// in\n    tag_381:\n        /* \"#utility.yul\":13518:13647   */\n      swap2\n      swap1\n      pop\n      jump\t// out\n        /* \"#utility.yul\":13653:13728   */\n    tag_380:\n        /* \"#utility.yul\":13686:13692   */\n      0x00\n        /* \"#utility.yul\":13719:13721   */\n      0x40\n        /* \"#utility.yul\":13713:13722   */\n      mload\n        /* \"#utility.yul\":13703:13722   */\n      swap1\n      pop\n        /* \"#utility.yul\":13653:13728   */\n      swap1\n      jump\t// out\n        /* \"#utility.yul\":13734:14042   */\n    tag_200:\n        /* \"#utility.yul\":13796:13800   */\n      0x00\n        /* \"#utility.yul\":13886:13904   */\n      0xffffffffffffffff\n        /* \"#utility.yul\":13878:13884   */\n      dup3\n        /* \"#utility.yul\":13875:13905   */\n      gt\n        /* \"#utility.yul\":13872:13928   */\n      iszero\n      tag_385\n      jumpi\n        /* \"#utility.yul\":13908:13926   */\n      tag_386\n      tag_387\n      jump\t// in\n    tag_386:\n        /* \"#utility.yul\":13872:13928   */\n    tag_385:\n        /* \"#utility.yul\":13946:13975   */\n      tag_388\n        /* \"#utility.yul\":13968:13974   */\n      dup3\n        /* \"#utility.yul\":13946:13975   */\n      tag_328\n      jump\t// in\n    tag_388:\n        /* \"#utility.yul\":13938:13975   */\n      swap1\n      pop\n        /* \"#utility.yul\":14030:14034   */\n      0x20\n        /* \"#utility.yul\":14024:14028   */\n      dup2\n        /* \"#utility.yul\":14020:14035   */\n      add\n        /* \"#utility.yul\":14012:14035   */\n      swap1\n      pop\n        /* \"#utility.yul\":13734:14042   */\n      swap2\n      swap1\n      pop\n      jump\t// out\n        /* \"#utility.yul\":14048:14180   */\n    tag_285:\n        /* \"#utility.yul\":14115:14119   */\n      0x00\n        /* \"#utility.yul\":14138:14141   */\n      dup2\n        /* \"#utility.yul\":14130:14141   */\n      swap1\n      pop\n        /* \"#utility.yul\":14168:14172   */\n      0x20\n        /* \"#utility.yul\":14163:14166   */\n      dup3\n        /* \"#utility.yul\":14159:14173   */\n      add\n        /* \"#utility.yul\":14151:14173   */\n      swap1\n      pop\n        /* \"#utility.yul\":14048:14180   */\n      swap2\n      swap1\n      pop\n      jump\t// out\n        /* \"#utility.yul\":14186:14328   */\n    tag_299:\n        /* \"#utility.yul\":14263:14267   */\n      0x00\n        /* \"#utility.yul\":14286:14289   */\n      dup2\n        /* \"#utility.yul\":14278:14289   */\n      swap1\n      pop\n        /* \"#utility.yul\":14316:14320   */\n      0x20\n        /* \"#utility.yul\":14311:14314   */\n      dup3\n        /* \"#utility.yul\":14307:14321   */\n      add\n        /* \"#utility.yul\":14299:14321   */\n      swap1\n      pop\n        /* \"#utility.yul\":14186:14328   */\n      swap2\n      swap1\n      pop\n      jump\t// out\n        /* \"#utility.yul\":14334:14433   */\n    tag_313:\n        /* \"#utility.yul\":14400:14404   */\n      0x00\n        /* \"#utility.yul\":14423:14426   */\n      dup2\n        /* \"#utility.yul\":14415:14426   */\n      swap1\n      pop\n        /* \"#utility.yul\":14334:14433   */\n      swap2\n      swap1\n      pop\n      jump\t// out\n        /* \"#utility.yul\":14439:14553   */\n    tag_281:\n        /* \"#utility.yul\":14506:14512   */\n      0x00\n        /* \"#utility.yul\":14540:14545   */\n      dup2\n        /* \"#utility.yul\":14534:14546   */\n      mload\n        /* \"#utility.yul\":14524:14546   */\n      swap1\n      pop\n        /* \"#utility.yul\":14439:14553   */\n      swap2\n      swap1\n      pop\n      jump\t// out\n        /* \"#utility.yul\":14559:14683   */\n    tag_295:\n        /* \"#utility.yul\":14636:14642   */\n      0x00\n        /* \"#utility.yul\":14670:14675   */\n      dup2\n        /* \"#utility.yul\":14664:14676   */\n      mload\n        /* \"#utility.yul\":14654:14676   */\n      swap1\n      pop\n        /* \"#utility.yul\":14559:14683   */\n      swap2\n      swap1\n      pop\n      jump\t// out\n        /* \"#utility.yul\":14689:14794   */\n    tag_309:\n        /* \"#utility.yul\":14755:14761   */\n      0x00\n        /* \"#utility.yul\":14783:14787   */\n      0x2d\n        /* \"#utility.yul\":14773:14787   */\n      swap1\n      pop\n        /* \"#utility.yul\":14689:14794   */\n      swap2\n      swap1\n      pop\n      jump\t// out\n        /* \"#utility.yul\":14800:14899   */\n    tag_322:\n        /* \"#utility.yul\":14852:14858   */\n      0x00\n        /* \"#utility.yul\":14886:14891   */\n      dup2\n        /* \"#utility.yul\":14880:14892   */\n      mload\n        /* \"#utility.yul\":14870:14892   */\n      swap1\n      pop\n        /* \"#utility.yul\":14800:14899   */\n      swap2\n      swap1\n      pop\n      jump\t// out\n        /* \"#utility.yul\":14905:15018   */\n    tag_291:\n        /* \"#utility.yul\":14975:14979   */\n      0x00\n        /* \"#utility.yul\":15007:15011   */\n      0x20\n        /* \"#utility.yul\":15002:15005   */\n      dup3\n        /* \"#utility.yul\":14998:15012   */\n      add\n        /* \"#utility.yul\":14990:15012   */\n      swap1\n      pop\n        /* \"#utility.yul\":14905:15018   */\n      swap2\n      swap1\n      pop\n      jump\t// out\n        /* \"#utility.yul\":15024:15147   */\n    tag_305:\n        /* \"#utility.yul\":15104:15108   */\n      0x00\n        /* \"#utility.yul\":15136:15140   */\n      0x20\n        /* \"#utility.yul\":15131:15134   */\n      dup3\n        /* \"#utility.yul\":15127:15141   */\n      add\n        /* \"#utility.yul\":15119:15141   */\n      swap1\n      pop\n        /* \"#utility.yul\":15024:15147   */\n      swap2\n      swap1\n      pop\n      jump\t// out\n        /* \"#utility.yul\":15153:15265   */\n    tag_319:\n        /* \"#utility.yul\":15222:15226   */\n      0x00\n        /* \"#utility.yul\":15254:15258   */\n      0x20\n        /* \"#utility.yul\":15249:15252   */\n      dup3\n        /* \"#utility.yul\":15245:15259   */\n      add\n        /* \"#utility.yul\":15237:15259   */\n      swap1\n      pop\n        /* \"#utility.yul\":15153:15265   */\n      swap2\n      swap1\n      pop\n      jump\t// out\n        /* \"#utility.yul\":15271:15455   */\n    tag_283:\n        /* \"#utility.yul\":15370:15381   */\n      0x00\n        /* \"#utility.yul\":15404:15410   */\n      dup3\n        /* \"#utility.yul\":15399:15402   */\n      dup3\n        /* \"#utility.yul\":15392:15411   */\n      mstore\n        /* \"#utility.yul\":15444:15448   */\n      0x20\n        /* \"#utility.yul\":15439:15442   */\n      dup3\n        /* \"#utility.yul\":15435:15449   */\n      add\n        /* \"#utility.yul\":15420:15449   */\n      swap1\n      pop\n        /* \"#utility.yul\":15271:15455   */\n      swap3\n      swap2\n      pop\n      pop\n      jump\t// out\n        /* \"#utility.yul\":15461:15655   */\n    tag_297:\n        /* \"#utility.yul\":15570:15581   */\n      0x00\n        /* \"#utility.yul\":15604:15610   */\n      dup3\n        /* \"#utility.yul\":15599:15602   */\n      dup3\n        /* \"#utility.yul\":15592:15611   */\n      mstore\n        /* \"#utility.yul\":15644:15648   */\n      0x20\n        /* \"#utility.yul\":15639:15642   */\n      dup3\n        /* \"#utility.yul\":15635:15649   */\n      add\n        /* \"#utility.yul\":15620:15649   */\n      swap1\n      pop\n        /* \"#utility.yul\":15461:15655   */\n      swap3\n      swap2\n      pop\n      pop\n      jump\t// out\n        /* \"#utility.yul\":15661:15805   */\n    tag_311:\n        /* \"#utility.yul\":15759:15770   */\n      0x00\n        /* \"#utility.yul\":15796:15799   */\n      dup2\n        /* \"#utility.yul\":15781:15799   */\n      swap1\n      pop\n        /* \"#utility.yul\":15661:15805   */\n      swap3\n      swap2\n      pop\n      pop\n      jump\t// out\n        /* \"#utility.yul\":15811:15970   */\n    tag_324:\n        /* \"#utility.yul\":15885:15896   */\n      0x00\n        /* \"#utility.yul\":15919:15925   */\n      dup3\n        /* \"#utility.yul\":15914:15917   */\n      dup3\n        /* \"#utility.yul\":15907:15926   */\n      mstore\n        /* \"#utility.yul\":15959:15963   */\n      0x20\n        /* \"#utility.yul\":15954:15957   */\n      dup3\n        /* \"#utility.yul\":15950:15964   */\n      add\n        /* \"#utility.yul\":15935:15964   */\n      swap1\n      pop\n        /* \"#utility.yul\":15811:15970   */\n      swap3\n      swap2\n      pop\n      pop\n      jump\t// out\n        /* \"#utility.yul\":15976:16145   */\n    tag_333:\n        /* \"#utility.yul\":16060:16071   */\n      0x00\n        /* \"#utility.yul\":16094:16100   */\n      dup3\n        /* \"#utility.yul\":16089:16092   */\n      dup3\n        /* \"#utility.yul\":16082:16101   */\n      mstore\n        /* \"#utility.yul\":16134:16138   */\n      0x20\n        /* \"#utility.yul\":16129:16132   */\n      dup3\n        /* \"#utility.yul\":16125:16139   */\n      add\n        /* \"#utility.yul\":16110:16139   */\n      swap1\n      pop\n        /* \"#utility.yul\":15976:16145   */\n      swap3\n      swap2\n      pop\n      pop\n      jump\t// out\n        /* \"#utility.yul\":16151:16299   */\n    tag_340:\n        /* \"#utility.yul\":16253:16264   */\n      0x00\n        /* \"#utility.yul\":16290:16293   */\n      dup2\n        /* \"#utility.yul\":16275:16293   */\n      swap1\n      pop\n        /* \"#utility.yul\":16151:16299   */\n      swap3\n      swap2\n      pop\n      pop\n      jump\t// out\n        /* \"#utility.yul\":16305:16401   */\n    tag_274:\n        /* \"#utility.yul\":16342:16349   */\n      0x00\n        /* \"#utility.yul\":16371:16395   */\n      tag_406\n        /* \"#utility.yul\":16389:16394   */\n      dup3\n        /* \"#utility.yul\":16371:16395   */\n      tag_407\n      jump\t// in\n    tag_406:\n        /* \"#utility.yul\":16360:16395   */\n      swap1\n      pop\n        /* \"#utility.yul\":16305:16401   */\n      swap2\n      swap1\n      pop\n      jump\t// out\n        /* \"#utility.yul\":16407:16533   */\n    tag_407:\n        /* \"#utility.yul\":16444:16451   */\n      0x00\n        /* \"#utility.yul\":16484:16526   */\n      0xffffffffffffffffffffffffffffffffffffffff\n        /* \"#utility.yul\":16477:16482   */\n      dup3\n        /* \"#utility.yul\":16473:16527   */\n      and\n        /* \"#utility.yul\":16462:16527   */\n      swap1\n      pop\n        /* \"#utility.yul\":16407:16533   */\n      swap2\n      swap1\n      pop\n      jump\t// out\n        /* \"#utility.yul\":16539:16616   */\n    tag_354:\n        /* \"#utility.yul\":16576:16583   */\n      0x00\n        /* \"#utility.yul\":16605:16610   */\n      dup2\n        /* \"#utility.yul\":16594:16610   */\n      swap1\n      pop\n        /* \"#utility.yul\":16539:16616   */\n      swap2\n      swap1\n      pop\n      jump\t// out\n        /* \"#utility.yul\":16622:16776   */\n    tag_206:\n        /* \"#utility.yul\":16706:16712   */\n      dup3\n        /* \"#utility.yul\":16701:16704   */\n      dup2\n        /* \"#utility.yul\":16696:16699   */\n      dup4\n        /* \"#utility.yul\":16683:16713   */\n      calldatacopy\n        /* \"#utility.yul\":16768:16769   */\n      0x00\n        /* \"#utility.yul\":16759:16765   */\n      dup4\n        /* \"#utility.yul\":16754:16757   */\n      dup4\n        /* \"#utility.yul\":16750:16766   */\n      add\n        /* \"#utility.yul\":16743:16770   */\n      mstore\n        /* \"#utility.yul\":16622:16776   */\n      pop\n      pop\n      pop\n      jump\t// out\n        /* \"#utility.yul\":16782:17089   */\n    tag_326:\n        /* \"#utility.yul\":16850:16851   */\n      0x00\n        /* \"#utility.yul\":16860:16973   */\n    tag_412:\n        /* \"#utility.yul\":16874:16880   */\n      dup4\n        /* \"#utility.yul\":16871:16872   */\n      dup2\n        /* \"#utility.yul\":16868:16881   */\n      lt\n        /* \"#utility.yul\":16860:16973   */\n      iszero\n      tag_414\n      jumpi\n        /* \"#utility.yul\":16959:16960   */\n      dup1\n        /* \"#utility.yul\":16954:16957   */\n      dup3\n        /* \"#utility.yul\":16950:16961   */\n      add\n        /* \"#utility.yul\":16944:16962   */\n      mload\n        /* \"#utility.yul\":16940:16941   */\n      dup2\n        /* \"#utility.yul\":16935:16938   */\n      dup5\n        /* \"#utility.yul\":16931:16942   */\n      add\n        /* \"#utility.yul\":16924:16963   */\n      mstore\n        /* \"#utility.yul\":16896:16898   */\n      0x20\n        /* \"#utility.yul\":16893:16894   */\n      dup2\n        /* \"#utility.yul\":16889:16899   */\n      add\n        /* \"#utility.yul\":16884:16899   */\n      swap1\n      pop\n        /* \"#utility.yul\":16860:16973   */\n      jump(tag_412)\n    tag_414:\n        /* \"#utility.yul\":16991:16997   */\n      dup4\n        /* \"#utility.yul\":16988:16989   */\n      dup2\n        /* \"#utility.yul\":16985:16998   */\n      gt\n        /* \"#utility.yul\":16982:17083   */\n      iszero\n      tag_415\n      jumpi\n        /* \"#utility.yul\":17071:17072   */\n      0x00\n        /* \"#utility.yul\":17062:17068   */\n      dup5\n        /* \"#utility.yul\":17057:17060   */\n      dup5\n        /* \"#utility.yul\":17053:17069   */\n      add\n        /* \"#utility.yul\":17046:17073   */\n      mstore\n        /* \"#utility.yul\":16982:17083   */\n    tag_415:\n        /* \"#utility.yul\":16831:17089   */\n      pop\n        /* \"#utility.yul\":16782:17089   */\n      pop\n      pop\n      pop\n      jump\t// out\n        /* \"#utility.yul\":17095:17415   */\n    tag_86:\n        /* \"#utility.yul\":17139:17145   */\n      0x00\n        /* \"#utility.yul\":17176:17177   */\n      0x02\n        /* \"#utility.yul\":17170:17174   */\n      dup3\n        /* \"#utility.yul\":17166:17178   */\n      div\n        /* \"#utility.yul\":17156:17178   */\n      swap1\n      pop\n        /* \"#utility.yul\":17223:17224   */\n      0x01\n        /* \"#utility.yul\":17217:17221   */\n      dup3\n        /* \"#utility.yul\":17213:17225   */\n      and\n        /* \"#utility.yul\":17244:17262   */\n      dup1\n        /* \"#utility.yul\":17234:17315   */\n      tag_417\n      jumpi\n        /* \"#utility.yul\":17300:17304   */\n      0x7f\n        /* \"#utility.yul\":17292:17298   */\n      dup3\n        /* \"#utility.yul\":17288:17305   */\n      and\n        /* \"#utility.yul\":17278:17305   */\n      swap2\n      pop\n        /* \"#utility.yul\":17234:17315   */\n    tag_417:\n        /* \"#utility.yul\":17362:17364   */\n      0x20\n        /* \"#utility.yul\":17354:17360   */\n      dup3\n        /* \"#utility.yul\":17351:17365   */\n      lt\n        /* \"#utility.yul\":17331:17349   */\n      dup2\n        /* \"#utility.yul\":17328:17366   */\n      eq\n        /* \"#utility.yul\":17325:17409   */\n      iszero\n      tag_418\n      jumpi\n        /* \"#utility.yul\":17381:17399   */\n      tag_419\n      tag_420\n      jump\t// in\n    tag_419:\n        /* \"#utility.yul\":17325:17409   */\n    tag_418:\n        /* \"#utility.yul\":17146:17415   */\n      pop\n        /* \"#utility.yul\":17095:17415   */\n      swap2\n      swap1\n      pop\n      jump\t// out\n        /* \"#utility.yul\":17421:17702   */\n    tag_382:\n        /* \"#utility.yul\":17504:17531   */\n      tag_422\n        /* \"#utility.yul\":17526:17530   */\n      dup3\n        /* \"#utility.yul\":17504:17531   */\n      tag_328\n      jump\t// in\n    tag_422:\n        /* \"#utility.yul\":17496:17502   */\n      dup2\n        /* \"#utility.yul\":17492:17532   */\n      add\n        /* \"#utility.yul\":17634:17640   */\n      dup2\n        /* \"#utility.yul\":17622:17632   */\n      dup2\n        /* \"#utility.yul\":17619:17641   */\n      lt\n        /* \"#utility.yul\":17598:17616   */\n      0xffffffffffffffff\n        /* \"#utility.yul\":17586:17596   */\n      dup3\n        /* \"#utility.yul\":17583:17617   */\n      gt\n        /* \"#utility.yul\":17580:17642   */\n      or\n        /* \"#utility.yul\":17577:17665   */\n      iszero\n      tag_423\n      jumpi\n        /* \"#utility.yul\":17645:17663   */\n      tag_424\n      tag_387\n      jump\t// in\n    tag_424:\n        /* \"#utility.yul\":17577:17665   */\n    tag_423:\n        /* \"#utility.yul\":17685:17695   */\n      dup1\n        /* \"#utility.yul\":17681:17683   */\n      0x40\n        /* \"#utility.yul\":17674:17696   */\n      mstore\n        /* \"#utility.yul\":17464:17702   */\n      pop\n        /* \"#utility.yul\":17421:17702   */\n      pop\n      pop\n      jump\t// out\n        /* \"#utility.yul\":17708:17941   */\n    tag_121:\n        /* \"#utility.yul\":17747:17750   */\n      0x00\n        /* \"#utility.yul\":17770:17794   */\n      tag_426\n        /* \"#utility.yul\":17788:17793   */\n      dup3\n        /* \"#utility.yul\":17770:17794   */\n      tag_354\n      jump\t// in\n    tag_426:\n        /* \"#utility.yul\":17761:17794   */\n      swap2\n      pop\n        /* \"#utility.yul\":17816:17882   */\n      0xffffffffffffffffffffffffffffffffffffffffffffffffffffffffffffffff\n        /* \"#utility.yul\":17809:17814   */\n      dup3\n        /* \"#utility.yul\":17806:17883   */\n      eq\n        /* \"#utility.yul\":17803:17906   */\n      iszero\n      tag_427\n      jumpi\n        /* \"#utility.yul\":17886:17904   */\n      tag_428\n      tag_429\n      jump\t// in\n    tag_428:\n        /* \"#utility.yul\":17803:17906   */\n    tag_427:\n        /* \"#utility.yul\":17933:17934   */\n      0x01\n        /* \"#utility.yul\":17926:17931   */\n      dup3\n        /* \"#utility.yul\":17922:17935   */\n      add\n        /* \"#utility.yul\":17915:17935   */\n      swap1\n      pop\n        /* \"#utility.yul\":17708:17941   */\n      swap2\n      swap1\n      pop\n      jump\t// out\n        /* \"#utility.yul\":17947:18127   */\n    tag_429:\n        /* \"#utility.yul\":17995:18072   */\n      0x4e487b7100000000000000000000000000000000000000000000000000000000\n        /* \"#utility.yul\":17992:17993   */\n      0x00\n        /* \"#utility.yul\":17985:18073   */\n      mstore\n        /* \"#utility.yul\":18092:18096   */\n      0x11\n        /* \"#utility.yul\":18089:18090   */\n      0x04\n        /* \"#utility.yul\":18082:18097   */\n      mstore\n        /* \"#utility.yul\":18116:18120   */\n      0x24\n        /* \"#utility.yul\":18113:18114   */\n      0x00\n        /* \"#utility.yul\":18106:18121   */\n      revert\n        /* \"#utility.yul\":18133:18313   */\n    tag_420:\n        /* \"#utility.yul\":18181:18258   */\n      0x4e487b7100000000000000000000000000000000000000000000000000000000\n        /* \"#utility.yul\":18178:18179   */\n      0x00\n        /* \"#utility.yul\":18171:18259   */\n      mstore\n        /* \"#utility.yul\":18278:18282   */\n      0x22\n        /* \"#utility.yul\":18275:18276   */\n      0x04\n        /* \"#utility.yul\":18268:18283   */\n      mstore\n        /* \"#utility.yul\":18302:18306   */\n      0x24\n        /* \"#utility.yul\":18299:18300   */\n      0x00\n        /* \"#utility.yul\":18292:18307   */\n      revert\n        /* \"#utility.yul\":18319:18499   */\n    tag_79:\n        /* \"#utility.yul\":18367:18444   */\n      0x4e487b7100000000000000000000000000000000000000000000000000000000\n        /* \"#utility.yul\":18364:18365   */\n      0x00\n        /* \"#utility.yul\":18357:18445   */\n      mstore\n        /* \"#utility.yul\":18464:18468   */\n      0x32\n        /* \"#utility.yul\":18461:18462   */\n      0x04\n        /* \"#utility.yul\":18454:18469   */\n      mstore\n        /* \"#utility.yul\":18488:18492   */\n      0x24\n        /* \"#utility.yul\":18485:18486   */\n      0x00\n        /* \"#utility.yul\":18478:18493   */\n      revert\n        /* \"#utility.yul\":18505:18685   */\n    tag_387:\n        /* \"#utility.yul\":18553:18630   */\n      0x4e487b7100000000000000000000000000000000000000000000000000000000\n        /* \"#utility.yul\":18550:18551   */\n      0x00\n        /* \"#utility.yul\":18543:18631   */\n      mstore\n        /* \"#utility.yul\":18650:18654   */\n      0x41\n        /* \"#utility.yul\":18647:18648   */\n      0x04\n        /* \"#utility.yul\":18640:18655   */\n      mstore\n        /* \"#utility.yul\":18674:18678   */\n      0x24\n        /* \"#utility.yul\":18671:18672   */\n      0x00\n        /* \"#utility.yul\":18664:18679   */\n      revert\n        /* \"#utility.yul\":18691:18808   */\n    tag_215:\n        /* \"#utility.yul\":18800:18801   */\n      0x00\n        /* \"#utility.yul\":18797:18798   */\n      dup1\n        /* \"#utility.yul\":18790:18802   */\n      revert\n        /* \"#utility.yul\":18814:18931   */\n    tag_204:\n        /* \"#utility.yul\":18923:18924   */\n      0x00\n        /* \"#utility.yul\":18920:18921   */\n      dup1\n        /* \"#utility.yul\":18913:18925   */\n      revert\n        /* \"#utility.yul\":18937:19054   */\n    tag_228:\n        /* \"#utility.yul\":19046:19047   */\n      0x00\n        /* \"#utility.yul\":19043:19044   */\n      dup1\n        /* \"#utility.yul\":19036:19048   */\n      revert\n        /* \"#utility.yul\":19060:19177   */\n    tag_224:\n        /* \"#utility.yul\":19169:19170   */\n      0x00\n        /* \"#utility.yul\":19166:19167   */\n      dup1\n        /* \"#utility.yul\":19159:19171   */\n      revert\n        /* \"#utility.yul\":19183:19285   */\n    tag_328:\n        /* \"#utility.yul\":19224:19230   */\n      0x00\n        /* \"#utility.yul\":19275:19277   */\n      0x1f\n        /* \"#utility.yul\":19271:19278   */\n      not\n        /* \"#utility.yul\":19266:19268   */\n      0x1f\n        /* \"#utility.yul\":19259:19264   */\n      dup4\n        /* \"#utility.yul\":19255:19269   */\n      add\n        /* \"#utility.yul\":19251:19279   */\n      and\n        /* \"#utility.yul\":19241:19279   */\n      swap1\n      pop\n        /* \"#utility.yul\":19183:19285   */\n      swap2\n      swap1\n      pop\n      jump\t// out\n        /* \"#utility.yul\":19291:19460   */\n    tag_346:\n        /* \"#utility.yul\":19431:19452   */\n      0x5468657265206973206e6f2053747564656e7400000000000000000000000000\n        /* \"#utility.yul\":19427:19428   */\n      0x00\n        /* \"#utility.yul\":19419:19425   */\n      dup3\n        /* \"#utility.yul\":19415:19429   */\n      add\n        /* \"#utility.yul\":19408:19453   */\n      mstore\n        /* \"#utility.yul\":19291:19460   */\n      pop\n      jump\t// out\n        /* \"#utility.yul\":19466:19631   */\n    tag_351:\n        /* \"#utility.yul\":19606:19623   */\n      0x5468657265206973206e6f204255530000000000000000000000000000000000\n        /* \"#utility.yul\":19602:19603   */\n      0x00\n        /* \"#utility.yul\":19594:19600   */\n      dup3\n        /* \"#utility.yul\":19590:19604   */\n      add\n        /* \"#utility.yul\":19583:19624   */\n      mstore\n        /* \"#utility.yul\":19466:19631   */\n      pop\n      jump\t// out\n        /* \"#utility.yul\":19637:19759   */\n    tag_210:\n        /* \"#utility.yul\":19710:19734   */\n      tag_442\n        /* \"#utility.yul\":19728:19733   */\n      dup2\n        /* \"#utility.yul\":19710:19734   */\n      tag_274\n      jump\t// in\n    tag_442:\n        /* \"#utility.yul\":19703:19708   */\n      dup2\n        /* \"#utility.yul\":19700:19735   */\n      eq\n        /* \"#utility.yul\":19690:19753   */\n      tag_443\n      jumpi\n        /* \"#utility.yul\":19749:19750   */\n      0x00\n        /* \"#utility.yul\":19746:19747   */\n      dup1\n        /* \"#utility.yul\":19739:19751   */\n      revert\n        /* \"#utility.yul\":19690:19753   */\n    tag_443:\n        /* \"#utility.yul\":19637:19759   */\n      pop\n      jump\t// out\n        /* \"#utility.yul\":19765:19887   */\n    tag_220:\n        /* \"#utility.yul\":19838:19862   */\n      tag_445\n        /* \"#utility.yul\":19856:19861   */\n      dup2\n        /* \"#utility.yul\":19838:19862   */\n      tag_354\n      jump\t// in\n    tag_445:\n        /* \"#utility.yul\":19831:19836   */\n      dup2\n        /* \"#utility.yul\":19828:19863   */\n      eq\n        /* \"#utility.yul\":19818:19881   */\n      tag_446\n      jumpi\n        /* \"#utility.yul\":19877:19878   */\n      0x00\n        /* \"#utility.yul\":19874:19875   */\n      dup1\n        /* \"#utility.yul\":19867:19879   */\n      revert\n        /* \"#utility.yul\":19818:19881   */\n    tag_446:\n        /* \"#utility.yul\":19765:19887   */\n      pop\n      jump\t// out\n\n    auxdata: 0xa264697066735822122076ad55ade6ab50e5aa59a2814daab921b09a890b4946a3c469cf93dc5440348a64736f6c63430008070033\n}\n",
				"bytecode": {
					"linkReferences": {},
					"object": "608060405234801561001057600080fd5b50336000806101000a81548173ffffffffffffffffffffffffffffffffffffffff021916908373ffffffffffffffffffffffffffffffffffffffff160217905550611a00806100606000396000f3fe608060405234801561001057600080fd5b506004361061009d5760003560e01c8063642f916311610066578063642f91631461015a57806375285b651461018b57806380e1127b146101a9578063b645307d146101dc578063f041f73f1461020c5761009d565b80629a4d3c146100a2578063133d0460146100be5780632bf4ef72146100dc5780636269ba341461010c57806362a801621461012a575b600080fd5b6100bc60048036038101906100b791906110c1565b610228565b005b6100c66103be565b6040516100d3919061156c565b60405180910390f35b6100f660048036038101906100f191906111d6565b61044c565b60405161010391906115b0565b60405180910390f35b6101146104c6565b604051610121919061158e565b60405180910390f35b610144600480360381019061013f9190611160565b61059f565b60405161015191906115b0565b60405180910390f35b610174600480360381019061016f91906111a9565b6107c9565b6040516101829291906114ef565b60405180910390f35b6101936108b8565b6040516101a0919061156c565b60405180910390f35b6101c360048036038101906101be9190611160565b610946565b6040516101d3949392919061151f565b60405180910390f35b6101f660048036038101906101f191906111a9565b610ae6565b60405161020391906115b0565b60405180910390f35b61022660048036038101906102219190611052565b610c45565b005b610230610e5f565b610238610e5f565b90506001859080600181540180825580915050600190039060005260206000200160009091909190916101000a81548173ffffffffffffffffffffffffffffffffffffffff021916908373ffffffffffffffffffffffffffffffffffffffff1602179055506003829080600181540180825580915050600190039060005260206000200160009091909190915090805190602001906102d8929190610e82565b5060405180608001604052808673ffffffffffffffffffffffffffffffffffffffff1681526020018581526020018481526020018281525060058360405161032091906114d8565b908152602001604051809103902060008201518160000160006101000a81548173ffffffffffffffffffffffffffffffffffffffff021916908373ffffffffffffffffffffffffffffffffffffffff1602179055506020820151816001019080519060200190610391929190610e82565b506040820151816002015560608201518160030190602d6103b3929190610f08565b509050505050505050565b6060600280548060200260200160405190810160405280929190818152602001828054801561044257602002820191906000526020600020905b8160009054906101000a900473ffffffffffffffffffffffffffffffffffffffff1673ffffffffffffffffffffffffffffffffffffffff16815260200190600101908083116103f8575b5050505050905090565b60608360058460405161045f91906114d8565b908152602001604051809103902060030183602d8110610482576104816118c7565b5b01819055506040518060400160405280601381526020017f5265736572766174696f6e20737563636573730000000000000000000000000081525090509392505050565b60606003805480602002602001604051908101604052809291908181526020016000905b82821015610596578382906000526020600020018054610509906117bd565b80601f0160208091040260200160405190810160405280929190818152602001828054610535906117bd565b80156105825780601f1061055757610100808354040283529160200191610582565b820191906000526020600020905b81548152906001019060200180831161056557829003601f168201915b5050505050815260200190600101906104ea565b50505050905090565b606060006005836040516105b391906114d8565b908152602001604051809103902060010180546105cf906117bd565b90501415610612576040517f08c379a0000000000000000000000000000000000000000000000000000000008152600401610609906115f2565b60405180910390fd5b60058260405161062291906114d8565b9081526020016040518091039020600080820160006101000a81549073ffffffffffffffffffffffffffffffffffffffff02191690556001820160006106689190610f48565b60028201600090556003820160006106809190610f88565b505060005b60038054905081101561078b576000600382815481106106a8576106a76118c7565b5b9060005260206000200180546106bd906117bd565b80601f01602080910402602001604051908101604052809291908181526020018280546106e9906117bd565b80156107365780601f1061070b57610100808354040283529160200191610736565b820191906000526020600020905b81548152906001019060200180831161071957829003601f168201915b505050505090506107478185610d7b565b1561077757600382815481106107605761075f6118c7565b5b9060005260206000200160006107769190610f48565b5b50808061078390611820565b915050610685565b506040518060400160405280600e81526020017f44656c65746520737563636573730000000000000000000000000000000000008152509050919050565b6000606060006006600085815260200190815260200160002060010160009054906101000a900473ffffffffffffffffffffffffffffffffffffffff169050600060066000868152602001908152602001600020600001805461082b906117bd565b80601f0160208091040260200160405190810160405280929190818152602001828054610857906117bd565b80156108a45780601f10610879576101008083540402835291602001916108a4565b820191906000526020600020905b81548152906001019060200180831161088757829003601f168201915b505050505090508181935093505050915091565b6060600180548060200260200160405190810160405280929190818152602001828054801561093c57602002820191906000526020600020905b8160009054906101000a900473ffffffffffffffffffffffffffffffffffffffff1673ffffffffffffffffffffffffffffffffffffffff16815260200190600101908083116108f2575b5050505050905090565b600060606000610954610e5f565b600060058660405161096691906114d8565b908152602001604051809103902060000160009054906101000a900473ffffffffffffffffffffffffffffffffffffffff16905060006005876040516109ac91906114d8565b908152602001604051809103902060010180546109c8906117bd565b80601f01602080910402602001604051908101604052809291908181526020018280546109f4906117bd565b8015610a415780601f10610a1657610100808354040283529160200191610a41565b820191906000526020600020905b815481529060010190602001808311610a2457829003601f168201915b505050505090506000600588604051610a5a91906114d8565b90815260200160405180910390206002015490506000600589604051610a8091906114d8565b9081526020016040518091039020600301602d806020026040519081016040528092919082602d8015610ac8576020028201915b815481526020019060010190808311610ab4575b50505050509050838383839750975097509750505050509193509193565b60606000600660008481526020019081526020016000206000018054610b0b906117bd565b90501415610b4e576040517f08c379a0000000000000000000000000000000000000000000000000000000008152600401610b45906115d2565b60405180910390fd5b6006600083815260200190815260200160002060008082016000610b729190610f48565b6001820160006101000a81549073ffffffffffffffffffffffffffffffffffffffff0219169055505060005b600480549050811015610c07578260048281548110610bc057610bbf6118c7565b5b90600052602060002001541415610bf45760048181548110610be557610be46118c7565b5b90600052602060002001600090555b8080610bff90611820565b915050610b9e565b506040518060400160405280600e81526020017f44656c65746520737563636573730000000000000000000000000000000000008152509050919050565b60048190806001815401808255809150506001900390600052602060002001600090919091909150556002839080600181540180825580915050600190039060005260206000200160009091909190916101000a81548173ffffffffffffffffffffffffffffffffffffffff021916908373ffffffffffffffffffffffffffffffffffffffff16021790555060405180604001604052808381526020018473ffffffffffffffffffffffffffffffffffffffff16815250600660008381526020019081526020016000206000820151816000019080519060200190610d2b929190610e82565b5060208201518160010160006101000a81548173ffffffffffffffffffffffffffffffffffffffff021916908373ffffffffffffffffffffffffffffffffffffffff160217905550905050505050565b600080839050600083905060008251905081518114610da05760009350505050610e59565b60005b81811015610e5057828181518110610dbe57610dbd6118c7565b5b602001015160f81c60f81b7effffffffffffffffffffffffffffffffffffffffffffffffffffffffffffff1916848281518110610dfe57610dfd6118c7565b5b602001015160f81c60f81b7effffffffffffffffffffffffffffffffffffffffffffffffffffffffffffff191614610e3d576000945050505050610e59565b8080610e4890611820565b915050610da3565b50600193505050505b92915050565b604051806105a00160405280602d90602082028036833780820191505090505090565b828054610e8e906117bd565b90600052602060002090601f016020900481019282610eb05760008555610ef7565b82601f10610ec957805160ff1916838001178555610ef7565b82800160010185558215610ef7579182015b82811115610ef6578251825591602001919060010190610edb565b5b509050610f049190610f9b565b5090565b82602d8101928215610f37579160200282015b82811115610f36578251825591602001919060010190610f1b565b5b509050610f449190610f9b565b5090565b508054610f54906117bd565b6000825580601f10610f665750610f85565b601f016020900490600052602060002090810190610f849190610f9b565b5b50565b5080602d0190610f989190610f9b565b50565b5b80821115610fb4576000816000905550600101610f9c565b5090565b6000610fcb610fc684611637565b611612565b905082815260208101848484011115610fe757610fe661192a565b5b610ff284828561177b565b509392505050565b6000813590506110098161199c565b92915050565b600082601f83011261102457611023611925565b5b8135611034848260208601610fb8565b91505092915050565b60008135905061104c816119b3565b92915050565b60008060006060848603121561106b5761106a611934565b5b600061107986828701610ffa565b935050602084013567ffffffffffffffff81111561109a5761109961192f565b5b6110a68682870161100f565b92505060406110b78682870161103d565b9150509250925092565b600080600080608085870312156110db576110da611934565b5b60006110e987828801610ffa565b945050602085013567ffffffffffffffff81111561110a5761110961192f565b5b6111168782880161100f565b93505060406111278782880161103d565b925050606085013567ffffffffffffffff8111156111485761114761192f565b5b6111548782880161100f565b91505092959194509250565b60006020828403121561117657611175611934565b5b600082013567ffffffffffffffff8111156111945761119361192f565b5b6111a08482850161100f565b91505092915050565b6000602082840312156111bf576111be611934565b5b60006111cd8482850161103d565b91505092915050565b6000806000606084860312156111ef576111ee611934565b5b60006111fd8682870161103d565b935050602084013567ffffffffffffffff81111561121e5761121d61192f565b5b61122a8682870161100f565b925050604061123b8682870161103d565b9150509250925092565b60006112518383611289565b60208301905092915050565b600061126983836113d1565b905092915050565b600061127d83836114ba565b60208301905092915050565b6112928161173f565b82525050565b6112a18161173f565b82525050565b60006112b282611692565b6112bc81856116e5565b93506112c783611668565b8060005b838110156112f85781516112df8882611245565b97506112ea836116be565b9250506001810190506112cb565b5085935050505092915050565b60006113108261169d565b61131a81856116f6565b93508360208202850161132c85611678565b8060005b858110156113685784840389528151611349858261125d565b9450611354836116cb565b925060208a01995050600181019050611330565b50829750879550505050505092915050565b611383816116a8565b61138d8184611707565b925061139882611688565b8060005b838110156113c95781516113b08782611271565b96506113bb836116d8565b92505060018101905061139c565b505050505050565b60006113dc826116b3565b6113e68185611712565b93506113f681856020860161178a565b6113ff81611939565b840191505092915050565b6000611415826116b3565b61141f8185611723565b935061142f81856020860161178a565b61143881611939565b840191505092915050565b600061144e826116b3565b6114588185611734565b935061146881856020860161178a565b80840191505092915050565b6000611481601383611723565b915061148c8261194a565b602082019050919050565b60006114a4600f83611723565b91506114af82611973565b602082019050919050565b6114c381611771565b82525050565b6114d281611771565b82525050565b60006114e48284611443565b915081905092915050565b60006040820190506115046000830185611298565b8181036020830152611516818461140a565b90509392505050565b6000610600820190506115356000830187611298565b8181036020830152611547818661140a565b905061155660408301856114c9565b611563606083018461137a565b95945050505050565b6000602082019050818103600083015261158681846112a7565b905092915050565b600060208201905081810360008301526115a88184611305565b905092915050565b600060208201905081810360008301526115ca818461140a565b905092915050565b600060208201905081810360008301526115eb81611474565b9050919050565b6000602082019050818103600083015261160b81611497565b9050919050565b600061161c61162d565b905061162882826117ef565b919050565b6000604051905090565b600067ffffffffffffffff821115611652576116516118f6565b5b61165b82611939565b9050602081019050919050565b6000819050602082019050919050565b6000819050602082019050919050565b6000819050919050565b600081519050919050565b600081519050919050565b6000602d9050919050565b600081519050919050565b6000602082019050919050565b6000602082019050919050565b6000602082019050919050565b600082825260208201905092915050565b600082825260208201905092915050565b600081905092915050565b600082825260208201905092915050565b600082825260208201905092915050565b600081905092915050565b600061174a82611751565b9050919050565b600073ffffffffffffffffffffffffffffffffffffffff82169050919050565b6000819050919050565b82818337600083830152505050565b60005b838110156117a857808201518184015260208101905061178d565b838111156117b7576000848401525b50505050565b600060028204905060018216806117d557607f821691505b602082108114156117e9576117e8611898565b5b50919050565b6117f882611939565b810181811067ffffffffffffffff82111715611817576118166118f6565b5b80604052505050565b600061182b82611771565b91507fffffffffffffffffffffffffffffffffffffffffffffffffffffffffffffffff82141561185e5761185d611869565b5b600182019050919050565b7f4e487b7100000000000000000000000000000000000000000000000000000000600052601160045260246000fd5b7f4e487b7100000000000000000000000000000000000000000000000000000000600052602260045260246000fd5b7f4e487b7100000000000000000000000000000000000000000000000000000000600052603260045260246000fd5b7f4e487b7100000000000000000000000000000000000000000000000000000000600052604160045260246000fd5b600080fd5b600080fd5b600080fd5b600080fd5b6000601f19601f8301169050919050565b7f5468657265206973206e6f2053747564656e7400000000000000000000000000600082015250565b7f5468657265206973206e6f204255530000000000000000000000000000000000600082015250565b6119a58161173f565b81146119b057600080fd5b50565b6119bc81611771565b81146119c757600080fd5b5056fea264697066735822122076ad55ade6ab50e5aa59a2814daab921b09a890b4946a3c469cf93dc5440348a64736f6c63430008070033",
					"opcodes": "PUSH1 0x80 PUSH1 0x40 MSTORE CALLVALUE DUP1 ISZERO PUSH2 0x10 JUMPI PUSH1 0x0 DUP1 REVERT JUMPDEST POP CALLER PUSH1 0x0 DUP1 PUSH2 0x100 EXP DUP2 SLOAD DUP2 PUSH20 0xFFFFFFFFFFFFFFFFFFFFFFFFFFFFFFFFFFFFFFFF MUL NOT AND SWAP1 DUP4 PUSH20 0xFFFFFFFFFFFFFFFFFFFFFFFFFFFFFFFFFFFFFFFF AND MUL OR SWAP1 SSTORE POP PUSH2 0x1A00 DUP1 PUSH2 0x60 PUSH1 0x0 CODECOPY PUSH1 0x0 RETURN INVALID PUSH1 0x80 PUSH1 0x40 MSTORE CALLVALUE DUP1 ISZERO PUSH2 0x10 JUMPI PUSH1 0x0 DUP1 REVERT JUMPDEST POP PUSH1 0x4 CALLDATASIZE LT PUSH2 0x9D JUMPI PUSH1 0x0 CALLDATALOAD PUSH1 0xE0 SHR DUP1 PUSH4 0x642F9163 GT PUSH2 0x66 JUMPI DUP1 PUSH4 0x642F9163 EQ PUSH2 0x15A JUMPI DUP1 PUSH4 0x75285B65 EQ PUSH2 0x18B JUMPI DUP1 PUSH4 0x80E1127B EQ PUSH2 0x1A9 JUMPI DUP1 PUSH4 0xB645307D EQ PUSH2 0x1DC JUMPI DUP1 PUSH4 0xF041F73F EQ PUSH2 0x20C JUMPI PUSH2 0x9D JUMP JUMPDEST DUP1 PUSH3 0x9A4D3C EQ PUSH2 0xA2 JUMPI DUP1 PUSH4 0x133D0460 EQ PUSH2 0xBE JUMPI DUP1 PUSH4 0x2BF4EF72 EQ PUSH2 0xDC JUMPI DUP1 PUSH4 0x6269BA34 EQ PUSH2 0x10C JUMPI DUP1 PUSH4 0x62A80162 EQ PUSH2 0x12A JUMPI JUMPDEST PUSH1 0x0 DUP1 REVERT JUMPDEST PUSH2 0xBC PUSH1 0x4 DUP1 CALLDATASIZE SUB DUP2 ADD SWAP1 PUSH2 0xB7 SWAP2 SWAP1 PUSH2 0x10C1 JUMP JUMPDEST PUSH2 0x228 JUMP JUMPDEST STOP JUMPDEST PUSH2 0xC6 PUSH2 0x3BE JUMP JUMPDEST PUSH1 0x40 MLOAD PUSH2 0xD3 SWAP2 SWAP1 PUSH2 0x156C JUMP JUMPDEST PUSH1 0x40 MLOAD DUP1 SWAP2 SUB SWAP1 RETURN JUMPDEST PUSH2 0xF6 PUSH1 0x4 DUP1 CALLDATASIZE SUB DUP2 ADD SWAP1 PUSH2 0xF1 SWAP2 SWAP1 PUSH2 0x11D6 JUMP JUMPDEST PUSH2 0x44C JUMP JUMPDEST PUSH1 0x40 MLOAD PUSH2 0x103 SWAP2 SWAP1 PUSH2 0x15B0 JUMP JUMPDEST PUSH1 0x40 MLOAD DUP1 SWAP2 SUB SWAP1 RETURN JUMPDEST PUSH2 0x114 PUSH2 0x4C6 JUMP JUMPDEST PUSH1 0x40 MLOAD PUSH2 0x121 SWAP2 SWAP1 PUSH2 0x158E JUMP JUMPDEST PUSH1 0x40 MLOAD DUP1 SWAP2 SUB SWAP1 RETURN JUMPDEST PUSH2 0x144 PUSH1 0x4 DUP1 CALLDATASIZE SUB DUP2 ADD SWAP1 PUSH2 0x13F SWAP2 SWAP1 PUSH2 0x1160 JUMP JUMPDEST PUSH2 0x59F JUMP JUMPDEST PUSH1 0x40 MLOAD PUSH2 0x151 SWAP2 SWAP1 PUSH2 0x15B0 JUMP JUMPDEST PUSH1 0x40 MLOAD DUP1 SWAP2 SUB SWAP1 RETURN JUMPDEST PUSH2 0x174 PUSH1 0x4 DUP1 CALLDATASIZE SUB DUP2 ADD SWAP1 PUSH2 0x16F SWAP2 SWAP1 PUSH2 0x11A9 JUMP JUMPDEST PUSH2 0x7C9 JUMP JUMPDEST PUSH1 0x40 MLOAD PUSH2 0x182 SWAP3 SWAP2 SWAP1 PUSH2 0x14EF JUMP JUMPDEST PUSH1 0x40 MLOAD DUP1 SWAP2 SUB SWAP1 RETURN JUMPDEST PUSH2 0x193 PUSH2 0x8B8 JUMP JUMPDEST PUSH1 0x40 MLOAD PUSH2 0x1A0 SWAP2 SWAP1 PUSH2 0x156C JUMP JUMPDEST PUSH1 0x40 MLOAD DUP1 SWAP2 SUB SWAP1 RETURN JUMPDEST PUSH2 0x1C3 PUSH1 0x4 DUP1 CALLDATASIZE SUB DUP2 ADD SWAP1 PUSH2 0x1BE SWAP2 SWAP1 PUSH2 0x1160 JUMP JUMPDEST PUSH2 0x946 JUMP JUMPDEST PUSH1 0x40 MLOAD PUSH2 0x1D3 SWAP5 SWAP4 SWAP3 SWAP2 SWAP1 PUSH2 0x151F JUMP JUMPDEST PUSH1 0x40 MLOAD DUP1 SWAP2 SUB SWAP1 RETURN JUMPDEST PUSH2 0x1F6 PUSH1 0x4 DUP1 CALLDATASIZE SUB DUP2 ADD SWAP1 PUSH2 0x1F1 SWAP2 SWAP1 PUSH2 0x11A9 JUMP JUMPDEST PUSH2 0xAE6 JUMP JUMPDEST PUSH1 0x40 MLOAD PUSH2 0x203 SWAP2 SWAP1 PUSH2 0x15B0 JUMP JUMPDEST PUSH1 0x40 MLOAD DUP1 SWAP2 SUB SWAP1 RETURN JUMPDEST PUSH2 0x226 PUSH1 0x4 DUP1 CALLDATASIZE SUB DUP2 ADD SWAP1 PUSH2 0x221 SWAP2 SWAP1 PUSH2 0x1052 JUMP JUMPDEST PUSH2 0xC45 JUMP JUMPDEST STOP JUMPDEST PUSH2 0x230 PUSH2 0xE5F JUMP JUMPDEST PUSH2 0x238 PUSH2 0xE5F JUMP JUMPDEST SWAP1 POP PUSH1 0x1 DUP6 SWAP1 DUP1 PUSH1 0x1 DUP2 SLOAD ADD DUP1 DUP3 SSTORE DUP1 SWAP2 POP POP PUSH1 0x1 SWAP1 SUB SWAP1 PUSH1 0x0 MSTORE PUSH1 0x20 PUSH1 0x0 KECCAK256 ADD PUSH1 0x0 SWAP1 SWAP2 SWAP1 SWAP2 SWAP1 SWAP2 PUSH2 0x100 EXP DUP2 SLOAD DUP2 PUSH20 0xFFFFFFFFFFFFFFFFFFFFFFFFFFFFFFFFFFFFFFFF MUL NOT AND SWAP1 DUP4 PUSH20 0xFFFFFFFFFFFFFFFFFFFFFFFFFFFFFFFFFFFFFFFF AND MUL OR SWAP1 SSTORE POP PUSH1 0x3 DUP3 SWAP1 DUP1 PUSH1 0x1 DUP2 SLOAD ADD DUP1 DUP3 SSTORE DUP1 SWAP2 POP POP PUSH1 0x1 SWAP1 SUB SWAP1 PUSH1 0x0 MSTORE PUSH1 0x20 PUSH1 0x0 KECCAK256 ADD PUSH1 0x0 SWAP1 SWAP2 SWAP1 SWAP2 SWAP1 SWAP2 POP SWAP1 DUP1 MLOAD SWAP1 PUSH1 0x20 ADD SWAP1 PUSH2 0x2D8 SWAP3 SWAP2 SWAP1 PUSH2 0xE82 JUMP JUMPDEST POP PUSH1 0x40 MLOAD DUP1 PUSH1 0x80 ADD PUSH1 0x40 MSTORE DUP1 DUP7 PUSH20 0xFFFFFFFFFFFFFFFFFFFFFFFFFFFFFFFFFFFFFFFF AND DUP2 MSTORE PUSH1 0x20 ADD DUP6 DUP2 MSTORE PUSH1 0x20 ADD DUP5 DUP2 MSTORE PUSH1 0x20 ADD DUP3 DUP2 MSTORE POP PUSH1 0x5 DUP4 PUSH1 0x40 MLOAD PUSH2 0x320 SWAP2 SWAP1 PUSH2 0x14D8 JUMP JUMPDEST SWAP1 DUP2 MSTORE PUSH1 0x20 ADD PUSH1 0x40 MLOAD DUP1 SWAP2 SUB SWAP1 KECCAK256 PUSH1 0x0 DUP3 ADD MLOAD DUP2 PUSH1 0x0 ADD PUSH1 0x0 PUSH2 0x100 EXP DUP2 SLOAD DUP2 PUSH20 0xFFFFFFFFFFFFFFFFFFFFFFFFFFFFFFFFFFFFFFFF MUL NOT AND SWAP1 DUP4 PUSH20 0xFFFFFFFFFFFFFFFFFFFFFFFFFFFFFFFFFFFFFFFF AND MUL OR SWAP1 SSTORE POP PUSH1 0x20 DUP3 ADD MLOAD DUP2 PUSH1 0x1 ADD SWAP1 DUP1 MLOAD SWAP1 PUSH1 0x20 ADD SWAP1 PUSH2 0x391 SWAP3 SWAP2 SWAP1 PUSH2 0xE82 JUMP JUMPDEST POP PUSH1 0x40 DUP3 ADD MLOAD DUP2 PUSH1 0x2 ADD SSTORE PUSH1 0x60 DUP3 ADD MLOAD DUP2 PUSH1 0x3 ADD SWAP1 PUSH1 0x2D PUSH2 0x3B3 SWAP3 SWAP2 SWAP1 PUSH2 0xF08 JUMP JUMPDEST POP SWAP1 POP POP POP POP POP POP POP JUMP JUMPDEST PUSH1 0x60 PUSH1 0x2 DUP1 SLOAD DUP1 PUSH1 0x20 MUL PUSH1 0x20 ADD PUSH1 0x40 MLOAD SWAP1 DUP2 ADD PUSH1 0x40 MSTORE DUP1 SWAP3 SWAP2 SWAP1 DUP2 DUP2 MSTORE PUSH1 0x20 ADD DUP3 DUP1 SLOAD DUP1 ISZERO PUSH2 0x442 JUMPI PUSH1 0x20 MUL DUP3 ADD SWAP2 SWAP1 PUSH1 0x0 MSTORE PUSH1 0x20 PUSH1 0x0 KECCAK256 SWAP1 JUMPDEST DUP2 PUSH1 0x0 SWAP1 SLOAD SWAP1 PUSH2 0x100 EXP SWAP1 DIV PUSH20 0xFFFFFFFFFFFFFFFFFFFFFFFFFFFFFFFFFFFFFFFF AND PUSH20 0xFFFFFFFFFFFFFFFFFFFFFFFFFFFFFFFFFFFFFFFF AND DUP2 MSTORE PUSH1 0x20 ADD SWAP1 PUSH1 0x1 ADD SWAP1 DUP1 DUP4 GT PUSH2 0x3F8 JUMPI JUMPDEST POP POP POP POP POP SWAP1 POP SWAP1 JUMP JUMPDEST PUSH1 0x60 DUP4 PUSH1 0x5 DUP5 PUSH1 0x40 MLOAD PUSH2 0x45F SWAP2 SWAP1 PUSH2 0x14D8 JUMP JUMPDEST SWAP1 DUP2 MSTORE PUSH1 0x20 ADD PUSH1 0x40 MLOAD DUP1 SWAP2 SUB SWAP1 KECCAK256 PUSH1 0x3 ADD DUP4 PUSH1 0x2D DUP2 LT PUSH2 0x482 JUMPI PUSH2 0x481 PUSH2 0x18C7 JUMP JUMPDEST JUMPDEST ADD DUP2 SWAP1 SSTORE POP PUSH1 0x40 MLOAD DUP1 PUSH1 0x40 ADD PUSH1 0x40 MSTORE DUP1 PUSH1 0x13 DUP2 MSTORE PUSH1 0x20 ADD PUSH32 0x5265736572766174696F6E207375636365737300000000000000000000000000 DUP2 MSTORE POP SWAP1 POP SWAP4 SWAP3 POP POP POP JUMP JUMPDEST PUSH1 0x60 PUSH1 0x3 DUP1 SLOAD DUP1 PUSH1 0x20 MUL PUSH1 0x20 ADD PUSH1 0x40 MLOAD SWAP1 DUP2 ADD PUSH1 0x40 MSTORE DUP1 SWAP3 SWAP2 SWAP1 DUP2 DUP2 MSTORE PUSH1 0x20 ADD PUSH1 0x0 SWAP1 JUMPDEST DUP3 DUP3 LT ISZERO PUSH2 0x596 JUMPI DUP4 DUP3 SWAP1 PUSH1 0x0 MSTORE PUSH1 0x20 PUSH1 0x0 KECCAK256 ADD DUP1 SLOAD PUSH2 0x509 SWAP1 PUSH2 0x17BD JUMP JUMPDEST DUP1 PUSH1 0x1F ADD PUSH1 0x20 DUP1 SWAP2 DIV MUL PUSH1 0x20 ADD PUSH1 0x40 MLOAD SWAP1 DUP2 ADD PUSH1 0x40 MSTORE DUP1 SWAP3 SWAP2 SWAP1 DUP2 DUP2 MSTORE PUSH1 0x20 ADD DUP3 DUP1 SLOAD PUSH2 0x535 SWAP1 PUSH2 0x17BD JUMP JUMPDEST DUP1 ISZERO PUSH2 0x582 JUMPI DUP1 PUSH1 0x1F LT PUSH2 0x557 JUMPI PUSH2 0x100 DUP1 DUP4 SLOAD DIV MUL DUP4 MSTORE SWAP2 PUSH1 0x20 ADD SWAP2 PUSH2 0x582 JUMP JUMPDEST DUP3 ADD SWAP2 SWAP1 PUSH1 0x0 MSTORE PUSH1 0x20 PUSH1 0x0 KECCAK256 SWAP1 JUMPDEST DUP2 SLOAD DUP2 MSTORE SWAP1 PUSH1 0x1 ADD SWAP1 PUSH1 0x20 ADD DUP1 DUP4 GT PUSH2 0x565 JUMPI DUP3 SWAP1 SUB PUSH1 0x1F AND DUP3 ADD SWAP2 JUMPDEST POP POP POP POP POP DUP2 MSTORE PUSH1 0x20 ADD SWAP1 PUSH1 0x1 ADD SWAP1 PUSH2 0x4EA JUMP JUMPDEST POP POP POP POP SWAP1 POP SWAP1 JUMP JUMPDEST PUSH1 0x60 PUSH1 0x0 PUSH1 0x5 DUP4 PUSH1 0x40 MLOAD PUSH2 0x5B3 SWAP2 SWAP1 PUSH2 0x14D8 JUMP JUMPDEST SWAP1 DUP2 MSTORE PUSH1 0x20 ADD PUSH1 0x40 MLOAD DUP1 SWAP2 SUB SWAP1 KECCAK256 PUSH1 0x1 ADD DUP1 SLOAD PUSH2 0x5CF SWAP1 PUSH2 0x17BD JUMP JUMPDEST SWAP1 POP EQ ISZERO PUSH2 0x612 JUMPI PUSH1 0x40 MLOAD PUSH32 0x8C379A000000000000000000000000000000000000000000000000000000000 DUP2 MSTORE PUSH1 0x4 ADD PUSH2 0x609 SWAP1 PUSH2 0x15F2 JUMP JUMPDEST PUSH1 0x40 MLOAD DUP1 SWAP2 SUB SWAP1 REVERT JUMPDEST PUSH1 0x5 DUP3 PUSH1 0x40 MLOAD PUSH2 0x622 SWAP2 SWAP1 PUSH2 0x14D8 JUMP JUMPDEST SWAP1 DUP2 MSTORE PUSH1 0x20 ADD PUSH1 0x40 MLOAD DUP1 SWAP2 SUB SWAP1 KECCAK256 PUSH1 0x0 DUP1 DUP3 ADD PUSH1 0x0 PUSH2 0x100 EXP DUP2 SLOAD SWAP1 PUSH20 0xFFFFFFFFFFFFFFFFFFFFFFFFFFFFFFFFFFFFFFFF MUL NOT AND SWAP1 SSTORE PUSH1 0x1 DUP3 ADD PUSH1 0x0 PUSH2 0x668 SWAP2 SWAP1 PUSH2 0xF48 JUMP JUMPDEST PUSH1 0x2 DUP3 ADD PUSH1 0x0 SWAP1 SSTORE PUSH1 0x3 DUP3 ADD PUSH1 0x0 PUSH2 0x680 SWAP2 SWAP1 PUSH2 0xF88 JUMP JUMPDEST POP POP PUSH1 0x0 JUMPDEST PUSH1 0x3 DUP1 SLOAD SWAP1 POP DUP2 LT ISZERO PUSH2 0x78B JUMPI PUSH1 0x0 PUSH1 0x3 DUP3 DUP2 SLOAD DUP2 LT PUSH2 0x6A8 JUMPI PUSH2 0x6A7 PUSH2 0x18C7 JUMP JUMPDEST JUMPDEST SWAP1 PUSH1 0x0 MSTORE PUSH1 0x20 PUSH1 0x0 KECCAK256 ADD DUP1 SLOAD PUSH2 0x6BD SWAP1 PUSH2 0x17BD JUMP JUMPDEST DUP1 PUSH1 0x1F ADD PUSH1 0x20 DUP1 SWAP2 DIV MUL PUSH1 0x20 ADD PUSH1 0x40 MLOAD SWAP1 DUP2 ADD PUSH1 0x40 MSTORE DUP1 SWAP3 SWAP2 SWAP1 DUP2 DUP2 MSTORE PUSH1 0x20 ADD DUP3 DUP1 SLOAD PUSH2 0x6E9 SWAP1 PUSH2 0x17BD JUMP JUMPDEST DUP1 ISZERO PUSH2 0x736 JUMPI DUP1 PUSH1 0x1F LT PUSH2 0x70B JUMPI PUSH2 0x100 DUP1 DUP4 SLOAD DIV MUL DUP4 MSTORE SWAP2 PUSH1 0x20 ADD SWAP2 PUSH2 0x736 JUMP JUMPDEST DUP3 ADD SWAP2 SWAP1 PUSH1 0x0 MSTORE PUSH1 0x20 PUSH1 0x0 KECCAK256 SWAP1 JUMPDEST DUP2 SLOAD DUP2 MSTORE SWAP1 PUSH1 0x1 ADD SWAP1 PUSH1 0x20 ADD DUP1 DUP4 GT PUSH2 0x719 JUMPI DUP3 SWAP1 SUB PUSH1 0x1F AND DUP3 ADD SWAP2 JUMPDEST POP POP POP POP POP SWAP1 POP PUSH2 0x747 DUP2 DUP6 PUSH2 0xD7B JUMP JUMPDEST ISZERO PUSH2 0x777 JUMPI PUSH1 0x3 DUP3 DUP2 SLOAD DUP2 LT PUSH2 0x760 JUMPI PUSH2 0x75F PUSH2 0x18C7 JUMP JUMPDEST JUMPDEST SWAP1 PUSH1 0x0 MSTORE PUSH1 0x20 PUSH1 0x0 KECCAK256 ADD PUSH1 0x0 PUSH2 0x776 SWAP2 SWAP1 PUSH2 0xF48 JUMP JUMPDEST JUMPDEST POP DUP1 DUP1 PUSH2 0x783 SWAP1 PUSH2 0x1820 JUMP JUMPDEST SWAP2 POP POP PUSH2 0x685 JUMP JUMPDEST POP PUSH1 0x40 MLOAD DUP1 PUSH1 0x40 ADD PUSH1 0x40 MSTORE DUP1 PUSH1 0xE DUP2 MSTORE PUSH1 0x20 ADD PUSH32 0x44656C6574652073756363657373000000000000000000000000000000000000 DUP2 MSTORE POP SWAP1 POP SWAP2 SWAP1 POP JUMP JUMPDEST PUSH1 0x0 PUSH1 0x60 PUSH1 0x0 PUSH1 0x6 PUSH1 0x0 DUP6 DUP2 MSTORE PUSH1 0x20 ADD SWAP1 DUP2 MSTORE PUSH1 0x20 ADD PUSH1 0x0 KECCAK256 PUSH1 0x1 ADD PUSH1 0x0 SWAP1 SLOAD SWAP1 PUSH2 0x100 EXP SWAP1 DIV PUSH20 0xFFFFFFFFFFFFFFFFFFFFFFFFFFFFFFFFFFFFFFFF AND SWAP1 POP PUSH1 0x0 PUSH1 0x6 PUSH1 0x0 DUP7 DUP2 MSTORE PUSH1 0x20 ADD SWAP1 DUP2 MSTORE PUSH1 0x20 ADD PUSH1 0x0 KECCAK256 PUSH1 0x0 ADD DUP1 SLOAD PUSH2 0x82B SWAP1 PUSH2 0x17BD JUMP JUMPDEST DUP1 PUSH1 0x1F ADD PUSH1 0x20 DUP1 SWAP2 DIV MUL PUSH1 0x20 ADD PUSH1 0x40 MLOAD SWAP1 DUP2 ADD PUSH1 0x40 MSTORE DUP1 SWAP3 SWAP2 SWAP1 DUP2 DUP2 MSTORE PUSH1 0x20 ADD DUP3 DUP1 SLOAD PUSH2 0x857 SWAP1 PUSH2 0x17BD JUMP JUMPDEST DUP1 ISZERO PUSH2 0x8A4 JUMPI DUP1 PUSH1 0x1F LT PUSH2 0x879 JUMPI PUSH2 0x100 DUP1 DUP4 SLOAD DIV MUL DUP4 MSTORE SWAP2 PUSH1 0x20 ADD SWAP2 PUSH2 0x8A4 JUMP JUMPDEST DUP3 ADD SWAP2 SWAP1 PUSH1 0x0 MSTORE PUSH1 0x20 PUSH1 0x0 KECCAK256 SWAP1 JUMPDEST DUP2 SLOAD DUP2 MSTORE SWAP1 PUSH1 0x1 ADD SWAP1 PUSH1 0x20 ADD DUP1 DUP4 GT PUSH2 0x887 JUMPI DUP3 SWAP1 SUB PUSH1 0x1F AND DUP3 ADD SWAP2 JUMPDEST POP POP POP POP POP SWAP1 POP DUP2 DUP2 SWAP4 POP SWAP4 POP POP POP SWAP2 POP SWAP2 JUMP JUMPDEST PUSH1 0x60 PUSH1 0x1 DUP1 SLOAD DUP1 PUSH1 0x20 MUL PUSH1 0x20 ADD PUSH1 0x40 MLOAD SWAP1 DUP2 ADD PUSH1 0x40 MSTORE DUP1 SWAP3 SWAP2 SWAP1 DUP2 DUP2 MSTORE PUSH1 0x20 ADD DUP3 DUP1 SLOAD DUP1 ISZERO PUSH2 0x93C JUMPI PUSH1 0x20 MUL DUP3 ADD SWAP2 SWAP1 PUSH1 0x0 MSTORE PUSH1 0x20 PUSH1 0x0 KECCAK256 SWAP1 JUMPDEST DUP2 PUSH1 0x0 SWAP1 SLOAD SWAP1 PUSH2 0x100 EXP SWAP1 DIV PUSH20 0xFFFFFFFFFFFFFFFFFFFFFFFFFFFFFFFFFFFFFFFF AND PUSH20 0xFFFFFFFFFFFFFFFFFFFFFFFFFFFFFFFFFFFFFFFF AND DUP2 MSTORE PUSH1 0x20 ADD SWAP1 PUSH1 0x1 ADD SWAP1 DUP1 DUP4 GT PUSH2 0x8F2 JUMPI JUMPDEST POP POP POP POP POP SWAP1 POP SWAP1 JUMP JUMPDEST PUSH1 0x0 PUSH1 0x60 PUSH1 0x0 PUSH2 0x954 PUSH2 0xE5F JUMP JUMPDEST PUSH1 0x0 PUSH1 0x5 DUP7 PUSH1 0x40 MLOAD PUSH2 0x966 SWAP2 SWAP1 PUSH2 0x14D8 JUMP JUMPDEST SWAP1 DUP2 MSTORE PUSH1 0x20 ADD PUSH1 0x40 MLOAD DUP1 SWAP2 SUB SWAP1 KECCAK256 PUSH1 0x0 ADD PUSH1 0x0 SWAP1 SLOAD SWAP1 PUSH2 0x100 EXP SWAP1 DIV PUSH20 0xFFFFFFFFFFFFFFFFFFFFFFFFFFFFFFFFFFFFFFFF AND SWAP1 POP PUSH1 0x0 PUSH1 0x5 DUP8 PUSH1 0x40 MLOAD PUSH2 0x9AC SWAP2 SWAP1 PUSH2 0x14D8 JUMP JUMPDEST SWAP1 DUP2 MSTORE PUSH1 0x20 ADD PUSH1 0x40 MLOAD DUP1 SWAP2 SUB SWAP1 KECCAK256 PUSH1 0x1 ADD DUP1 SLOAD PUSH2 0x9C8 SWAP1 PUSH2 0x17BD JUMP JUMPDEST DUP1 PUSH1 0x1F ADD PUSH1 0x20 DUP1 SWAP2 DIV MUL PUSH1 0x20 ADD PUSH1 0x40 MLOAD SWAP1 DUP2 ADD PUSH1 0x40 MSTORE DUP1 SWAP3 SWAP2 SWAP1 DUP2 DUP2 MSTORE PUSH1 0x20 ADD DUP3 DUP1 SLOAD PUSH2 0x9F4 SWAP1 PUSH2 0x17BD JUMP JUMPDEST DUP1 ISZERO PUSH2 0xA41 JUMPI DUP1 PUSH1 0x1F LT PUSH2 0xA16 JUMPI PUSH2 0x100 DUP1 DUP4 SLOAD DIV MUL DUP4 MSTORE SWAP2 PUSH1 0x20 ADD SWAP2 PUSH2 0xA41 JUMP JUMPDEST DUP3 ADD SWAP2 SWAP1 PUSH1 0x0 MSTORE PUSH1 0x20 PUSH1 0x0 KECCAK256 SWAP1 JUMPDEST DUP2 SLOAD DUP2 MSTORE SWAP1 PUSH1 0x1 ADD SWAP1 PUSH1 0x20 ADD DUP1 DUP4 GT PUSH2 0xA24 JUMPI DUP3 SWAP1 SUB PUSH1 0x1F AND DUP3 ADD SWAP2 JUMPDEST POP POP POP POP POP SWAP1 POP PUSH1 0x0 PUSH1 0x5 DUP9 PUSH1 0x40 MLOAD PUSH2 0xA5A SWAP2 SWAP1 PUSH2 0x14D8 JUMP JUMPDEST SWAP1 DUP2 MSTORE PUSH1 0x20 ADD PUSH1 0x40 MLOAD DUP1 SWAP2 SUB SWAP1 KECCAK256 PUSH1 0x2 ADD SLOAD SWAP1 POP PUSH1 0x0 PUSH1 0x5 DUP10 PUSH1 0x40 MLOAD PUSH2 0xA80 SWAP2 SWAP1 PUSH2 0x14D8 JUMP JUMPDEST SWAP1 DUP2 MSTORE PUSH1 0x20 ADD PUSH1 0x40 MLOAD DUP1 SWAP2 SUB SWAP1 KECCAK256 PUSH1 0x3 ADD PUSH1 0x2D DUP1 PUSH1 0x20 MUL PUSH1 0x40 MLOAD SWAP1 DUP2 ADD PUSH1 0x40 MSTORE DUP1 SWAP3 SWAP2 SWAP1 DUP3 PUSH1 0x2D DUP1 ISZERO PUSH2 0xAC8 JUMPI PUSH1 0x20 MUL DUP3 ADD SWAP2 JUMPDEST DUP2 SLOAD DUP2 MSTORE PUSH1 0x20 ADD SWAP1 PUSH1 0x1 ADD SWAP1 DUP1 DUP4 GT PUSH2 0xAB4 JUMPI JUMPDEST POP POP POP POP POP SWAP1 POP DUP4 DUP4 DUP4 DUP4 SWAP8 POP SWAP8 POP SWAP8 POP SWAP8 POP POP POP POP POP SWAP2 SWAP4 POP SWAP2 SWAP4 JUMP JUMPDEST PUSH1 0x60 PUSH1 0x0 PUSH1 0x6 PUSH1 0x0 DUP5 DUP2 MSTORE PUSH1 0x20 ADD SWAP1 DUP2 MSTORE PUSH1 0x20 ADD PUSH1 0x0 KECCAK256 PUSH1 0x0 ADD DUP1 SLOAD PUSH2 0xB0B SWAP1 PUSH2 0x17BD JUMP JUMPDEST SWAP1 POP EQ ISZERO PUSH2 0xB4E JUMPI PUSH1 0x40 MLOAD PUSH32 0x8C379A000000000000000000000000000000000000000000000000000000000 DUP2 MSTORE PUSH1 0x4 ADD PUSH2 0xB45 SWAP1 PUSH2 0x15D2 JUMP JUMPDEST PUSH1 0x40 MLOAD DUP1 SWAP2 SUB SWAP1 REVERT JUMPDEST PUSH1 0x6 PUSH1 0x0 DUP4 DUP2 MSTORE PUSH1 0x20 ADD SWAP1 DUP2 MSTORE PUSH1 0x20 ADD PUSH1 0x0 KECCAK256 PUSH1 0x0 DUP1 DUP3 ADD PUSH1 0x0 PUSH2 0xB72 SWAP2 SWAP1 PUSH2 0xF48 JUMP JUMPDEST PUSH1 0x1 DUP3 ADD PUSH1 0x0 PUSH2 0x100 EXP DUP2 SLOAD SWAP1 PUSH20 0xFFFFFFFFFFFFFFFFFFFFFFFFFFFFFFFFFFFFFFFF MUL NOT AND SWAP1 SSTORE POP POP PUSH1 0x0 JUMPDEST PUSH1 0x4 DUP1 SLOAD SWAP1 POP DUP2 LT ISZERO PUSH2 0xC07 JUMPI DUP3 PUSH1 0x4 DUP3 DUP2 SLOAD DUP2 LT PUSH2 0xBC0 JUMPI PUSH2 0xBBF PUSH2 0x18C7 JUMP JUMPDEST JUMPDEST SWAP1 PUSH1 0x0 MSTORE PUSH1 0x20 PUSH1 0x0 KECCAK256 ADD SLOAD EQ ISZERO PUSH2 0xBF4 JUMPI PUSH1 0x4 DUP2 DUP2 SLOAD DUP2 LT PUSH2 0xBE5 JUMPI PUSH2 0xBE4 PUSH2 0x18C7 JUMP JUMPDEST JUMPDEST SWAP1 PUSH1 0x0 MSTORE PUSH1 0x20 PUSH1 0x0 KECCAK256 ADD PUSH1 0x0 SWAP1 SSTORE JUMPDEST DUP1 DUP1 PUSH2 0xBFF SWAP1 PUSH2 0x1820 JUMP JUMPDEST SWAP2 POP POP PUSH2 0xB9E JUMP JUMPDEST POP PUSH1 0x40 MLOAD DUP1 PUSH1 0x40 ADD PUSH1 0x40 MSTORE DUP1 PUSH1 0xE DUP2 MSTORE PUSH1 0x20 ADD PUSH32 0x44656C6574652073756363657373000000000000000000000000000000000000 DUP2 MSTORE POP SWAP1 POP SWAP2 SWAP1 POP JUMP JUMPDEST PUSH1 0x4 DUP2 SWAP1 DUP1 PUSH1 0x1 DUP2 SLOAD ADD DUP1 DUP3 SSTORE DUP1 SWAP2 POP POP PUSH1 0x1 SWAP1 SUB SWAP1 PUSH1 0x0 MSTORE PUSH1 0x20 PUSH1 0x0 KECCAK256 ADD PUSH1 0x0 SWAP1 SWAP2 SWAP1 SWAP2 SWAP1 SWAP2 POP SSTORE PUSH1 0x2 DUP4 SWAP1 DUP1 PUSH1 0x1 DUP2 SLOAD ADD DUP1 DUP3 SSTORE DUP1 SWAP2 POP POP PUSH1 0x1 SWAP1 SUB SWAP1 PUSH1 0x0 MSTORE PUSH1 0x20 PUSH1 0x0 KECCAK256 ADD PUSH1 0x0 SWAP1 SWAP2 SWAP1 SWAP2 SWAP1 SWAP2 PUSH2 0x100 EXP DUP2 SLOAD DUP2 PUSH20 0xFFFFFFFFFFFFFFFFFFFFFFFFFFFFFFFFFFFFFFFF MUL NOT AND SWAP1 DUP4 PUSH20 0xFFFFFFFFFFFFFFFFFFFFFFFFFFFFFFFFFFFFFFFF AND MUL OR SWAP1 SSTORE POP PUSH1 0x40 MLOAD DUP1 PUSH1 0x40 ADD PUSH1 0x40 MSTORE DUP1 DUP4 DUP2 MSTORE PUSH1 0x20 ADD DUP5 PUSH20 0xFFFFFFFFFFFFFFFFFFFFFFFFFFFFFFFFFFFFFFFF AND DUP2 MSTORE POP PUSH1 0x6 PUSH1 0x0 DUP4 DUP2 MSTORE PUSH1 0x20 ADD SWAP1 DUP2 MSTORE PUSH1 0x20 ADD PUSH1 0x0 KECCAK256 PUSH1 0x0 DUP3 ADD MLOAD DUP2 PUSH1 0x0 ADD SWAP1 DUP1 MLOAD SWAP1 PUSH1 0x20 ADD SWAP1 PUSH2 0xD2B SWAP3 SWAP2 SWAP1 PUSH2 0xE82 JUMP JUMPDEST POP PUSH1 0x20 DUP3 ADD MLOAD DUP2 PUSH1 0x1 ADD PUSH1 0x0 PUSH2 0x100 EXP DUP2 SLOAD DUP2 PUSH20 0xFFFFFFFFFFFFFFFFFFFFFFFFFFFFFFFFFFFFFFFF MUL NOT AND SWAP1 DUP4 PUSH20 0xFFFFFFFFFFFFFFFFFFFFFFFFFFFFFFFFFFFFFFFF AND MUL OR SWAP1 SSTORE POP SWAP1 POP POP POP POP POP JUMP JUMPDEST PUSH1 0x0 DUP1 DUP4 SWAP1 POP PUSH1 0x0 DUP4 SWAP1 POP PUSH1 0x0 DUP3 MLOAD SWAP1 POP DUP2 MLOAD DUP2 EQ PUSH2 0xDA0 JUMPI PUSH1 0x0 SWAP4 POP POP POP POP PUSH2 0xE59 JUMP JUMPDEST PUSH1 0x0 JUMPDEST DUP2 DUP2 LT ISZERO PUSH2 0xE50 JUMPI DUP3 DUP2 DUP2 MLOAD DUP2 LT PUSH2 0xDBE JUMPI PUSH2 0xDBD PUSH2 0x18C7 JUMP JUMPDEST JUMPDEST PUSH1 0x20 ADD ADD MLOAD PUSH1 0xF8 SHR PUSH1 0xF8 SHL PUSH31 0xFFFFFFFFFFFFFFFFFFFFFFFFFFFFFFFFFFFFFFFFFFFFFFFFFFFFFFFFFFFFFF NOT AND DUP5 DUP3 DUP2 MLOAD DUP2 LT PUSH2 0xDFE JUMPI PUSH2 0xDFD PUSH2 0x18C7 JUMP JUMPDEST JUMPDEST PUSH1 0x20 ADD ADD MLOAD PUSH1 0xF8 SHR PUSH1 0xF8 SHL PUSH31 0xFFFFFFFFFFFFFFFFFFFFFFFFFFFFFFFFFFFFFFFFFFFFFFFFFFFFFFFFFFFFFF NOT AND EQ PUSH2 0xE3D JUMPI PUSH1 0x0 SWAP5 POP POP POP POP POP PUSH2 0xE59 JUMP JUMPDEST DUP1 DUP1 PUSH2 0xE48 SWAP1 PUSH2 0x1820 JUMP JUMPDEST SWAP2 POP POP PUSH2 0xDA3 JUMP JUMPDEST POP PUSH1 0x1 SWAP4 POP POP POP POP JUMPDEST SWAP3 SWAP2 POP POP JUMP JUMPDEST PUSH1 0x40 MLOAD DUP1 PUSH2 0x5A0 ADD PUSH1 0x40 MSTORE DUP1 PUSH1 0x2D SWAP1 PUSH1 0x20 DUP3 MUL DUP1 CALLDATASIZE DUP4 CALLDATACOPY DUP1 DUP3 ADD SWAP2 POP POP SWAP1 POP POP SWAP1 JUMP JUMPDEST DUP3 DUP1 SLOAD PUSH2 0xE8E SWAP1 PUSH2 0x17BD JUMP JUMPDEST SWAP1 PUSH1 0x0 MSTORE PUSH1 0x20 PUSH1 0x0 KECCAK256 SWAP1 PUSH1 0x1F ADD PUSH1 0x20 SWAP1 DIV DUP2 ADD SWAP3 DUP3 PUSH2 0xEB0 JUMPI PUSH1 0x0 DUP6 SSTORE PUSH2 0xEF7 JUMP JUMPDEST DUP3 PUSH1 0x1F LT PUSH2 0xEC9 JUMPI DUP1 MLOAD PUSH1 0xFF NOT AND DUP4 DUP1 ADD OR DUP6 SSTORE PUSH2 0xEF7 JUMP JUMPDEST DUP3 DUP1 ADD PUSH1 0x1 ADD DUP6 SSTORE DUP3 ISZERO PUSH2 0xEF7 JUMPI SWAP2 DUP3 ADD JUMPDEST DUP3 DUP2 GT ISZERO PUSH2 0xEF6 JUMPI DUP3 MLOAD DUP3 SSTORE SWAP2 PUSH1 0x20 ADD SWAP2 SWAP1 PUSH1 0x1 ADD SWAP1 PUSH2 0xEDB JUMP JUMPDEST JUMPDEST POP SWAP1 POP PUSH2 0xF04 SWAP2 SWAP1 PUSH2 0xF9B JUMP JUMPDEST POP SWAP1 JUMP JUMPDEST DUP3 PUSH1 0x2D DUP2 ADD SWAP3 DUP3 ISZERO PUSH2 0xF37 JUMPI SWAP2 PUSH1 0x20 MUL DUP3 ADD JUMPDEST DUP3 DUP2 GT ISZERO PUSH2 0xF36 JUMPI DUP3 MLOAD DUP3 SSTORE SWAP2 PUSH1 0x20 ADD SWAP2 SWAP1 PUSH1 0x1 ADD SWAP1 PUSH2 0xF1B JUMP JUMPDEST JUMPDEST POP SWAP1 POP PUSH2 0xF44 SWAP2 SWAP1 PUSH2 0xF9B JUMP JUMPDEST POP SWAP1 JUMP JUMPDEST POP DUP1 SLOAD PUSH2 0xF54 SWAP1 PUSH2 0x17BD JUMP JUMPDEST PUSH1 0x0 DUP3 SSTORE DUP1 PUSH1 0x1F LT PUSH2 0xF66 JUMPI POP PUSH2 0xF85 JUMP JUMPDEST PUSH1 0x1F ADD PUSH1 0x20 SWAP1 DIV SWAP1 PUSH1 0x0 MSTORE PUSH1 0x20 PUSH1 0x0 KECCAK256 SWAP1 DUP2 ADD SWAP1 PUSH2 0xF84 SWAP2 SWAP1 PUSH2 0xF9B JUMP JUMPDEST JUMPDEST POP JUMP JUMPDEST POP DUP1 PUSH1 0x2D ADD SWAP1 PUSH2 0xF98 SWAP2 SWAP1 PUSH2 0xF9B JUMP JUMPDEST POP JUMP JUMPDEST JUMPDEST DUP1 DUP3 GT ISZERO PUSH2 0xFB4 JUMPI PUSH1 0x0 DUP2 PUSH1 0x0 SWAP1 SSTORE POP PUSH1 0x1 ADD PUSH2 0xF9C JUMP JUMPDEST POP SWAP1 JUMP JUMPDEST PUSH1 0x0 PUSH2 0xFCB PUSH2 0xFC6 DUP5 PUSH2 0x1637 JUMP JUMPDEST PUSH2 0x1612 JUMP JUMPDEST SWAP1 POP DUP3 DUP2 MSTORE PUSH1 0x20 DUP2 ADD DUP5 DUP5 DUP5 ADD GT ISZERO PUSH2 0xFE7 JUMPI PUSH2 0xFE6 PUSH2 0x192A JUMP JUMPDEST JUMPDEST PUSH2 0xFF2 DUP5 DUP3 DUP6 PUSH2 0x177B JUMP JUMPDEST POP SWAP4 SWAP3 POP POP POP JUMP JUMPDEST PUSH1 0x0 DUP2 CALLDATALOAD SWAP1 POP PUSH2 0x1009 DUP2 PUSH2 0x199C JUMP JUMPDEST SWAP3 SWAP2 POP POP JUMP JUMPDEST PUSH1 0x0 DUP3 PUSH1 0x1F DUP4 ADD SLT PUSH2 0x1024 JUMPI PUSH2 0x1023 PUSH2 0x1925 JUMP JUMPDEST JUMPDEST DUP2 CALLDATALOAD PUSH2 0x1034 DUP5 DUP3 PUSH1 0x20 DUP7 ADD PUSH2 0xFB8 JUMP JUMPDEST SWAP2 POP POP SWAP3 SWAP2 POP POP JUMP JUMPDEST PUSH1 0x0 DUP2 CALLDATALOAD SWAP1 POP PUSH2 0x104C DUP2 PUSH2 0x19B3 JUMP JUMPDEST SWAP3 SWAP2 POP POP JUMP JUMPDEST PUSH1 0x0 DUP1 PUSH1 0x0 PUSH1 0x60 DUP5 DUP7 SUB SLT ISZERO PUSH2 0x106B JUMPI PUSH2 0x106A PUSH2 0x1934 JUMP JUMPDEST JUMPDEST PUSH1 0x0 PUSH2 0x1079 DUP7 DUP3 DUP8 ADD PUSH2 0xFFA JUMP JUMPDEST SWAP4 POP POP PUSH1 0x20 DUP5 ADD CALLDATALOAD PUSH8 0xFFFFFFFFFFFFFFFF DUP2 GT ISZERO PUSH2 0x109A JUMPI PUSH2 0x1099 PUSH2 0x192F JUMP JUMPDEST JUMPDEST PUSH2 0x10A6 DUP7 DUP3 DUP8 ADD PUSH2 0x100F JUMP JUMPDEST SWAP3 POP POP PUSH1 0x40 PUSH2 0x10B7 DUP7 DUP3 DUP8 ADD PUSH2 0x103D JUMP JUMPDEST SWAP2 POP POP SWAP3 POP SWAP3 POP SWAP3 JUMP JUMPDEST PUSH1 0x0 DUP1 PUSH1 0x0 DUP1 PUSH1 0x80 DUP6 DUP8 SUB SLT ISZERO PUSH2 0x10DB JUMPI PUSH2 0x10DA PUSH2 0x1934 JUMP JUMPDEST JUMPDEST PUSH1 0x0 PUSH2 0x10E9 DUP8 DUP3 DUP9 ADD PUSH2 0xFFA JUMP JUMPDEST SWAP5 POP POP PUSH1 0x20 DUP6 ADD CALLDATALOAD PUSH8 0xFFFFFFFFFFFFFFFF DUP2 GT ISZERO PUSH2 0x110A JUMPI PUSH2 0x1109 PUSH2 0x192F JUMP JUMPDEST JUMPDEST PUSH2 0x1116 DUP8 DUP3 DUP9 ADD PUSH2 0x100F JUMP JUMPDEST SWAP4 POP POP PUSH1 0x40 PUSH2 0x1127 DUP8 DUP3 DUP9 ADD PUSH2 0x103D JUMP JUMPDEST SWAP3 POP POP PUSH1 0x60 DUP6 ADD CALLDATALOAD PUSH8 0xFFFFFFFFFFFFFFFF DUP2 GT ISZERO PUSH2 0x1148 JUMPI PUSH2 0x1147 PUSH2 0x192F JUMP JUMPDEST JUMPDEST PUSH2 0x1154 DUP8 DUP3 DUP9 ADD PUSH2 0x100F JUMP JUMPDEST SWAP2 POP POP SWAP3 SWAP6 SWAP2 SWAP5 POP SWAP3 POP JUMP JUMPDEST PUSH1 0x0 PUSH1 0x20 DUP3 DUP5 SUB SLT ISZERO PUSH2 0x1176 JUMPI PUSH2 0x1175 PUSH2 0x1934 JUMP JUMPDEST JUMPDEST PUSH1 0x0 DUP3 ADD CALLDATALOAD PUSH8 0xFFFFFFFFFFFFFFFF DUP2 GT ISZERO PUSH2 0x1194 JUMPI PUSH2 0x1193 PUSH2 0x192F JUMP JUMPDEST JUMPDEST PUSH2 0x11A0 DUP5 DUP3 DUP6 ADD PUSH2 0x100F JUMP JUMPDEST SWAP2 POP POP SWAP3 SWAP2 POP POP JUMP JUMPDEST PUSH1 0x0 PUSH1 0x20 DUP3 DUP5 SUB SLT ISZERO PUSH2 0x11BF JUMPI PUSH2 0x11BE PUSH2 0x1934 JUMP JUMPDEST JUMPDEST PUSH1 0x0 PUSH2 0x11CD DUP5 DUP3 DUP6 ADD PUSH2 0x103D JUMP JUMPDEST SWAP2 POP POP SWAP3 SWAP2 POP POP JUMP JUMPDEST PUSH1 0x0 DUP1 PUSH1 0x0 PUSH1 0x60 DUP5 DUP7 SUB SLT ISZERO PUSH2 0x11EF JUMPI PUSH2 0x11EE PUSH2 0x1934 JUMP JUMPDEST JUMPDEST PUSH1 0x0 PUSH2 0x11FD DUP7 DUP3 DUP8 ADD PUSH2 0x103D JUMP JUMPDEST SWAP4 POP POP PUSH1 0x20 DUP5 ADD CALLDATALOAD PUSH8 0xFFFFFFFFFFFFFFFF DUP2 GT ISZERO PUSH2 0x121E JUMPI PUSH2 0x121D PUSH2 0x192F JUMP JUMPDEST JUMPDEST PUSH2 0x122A DUP7 DUP3 DUP8 ADD PUSH2 0x100F JUMP JUMPDEST SWAP3 POP POP PUSH1 0x40 PUSH2 0x123B DUP7 DUP3 DUP8 ADD PUSH2 0x103D JUMP JUMPDEST SWAP2 POP POP SWAP3 POP SWAP3 POP SWAP3 JUMP JUMPDEST PUSH1 0x0 PUSH2 0x1251 DUP4 DUP4 PUSH2 0x1289 JUMP JUMPDEST PUSH1 0x20 DUP4 ADD SWAP1 POP SWAP3 SWAP2 POP POP JUMP JUMPDEST PUSH1 0x0 PUSH2 0x1269 DUP4 DUP4 PUSH2 0x13D1 JUMP JUMPDEST SWAP1 POP SWAP3 SWAP2 POP POP JUMP JUMPDEST PUSH1 0x0 PUSH2 0x127D DUP4 DUP4 PUSH2 0x14BA JUMP JUMPDEST PUSH1 0x20 DUP4 ADD SWAP1 POP SWAP3 SWAP2 POP POP JUMP JUMPDEST PUSH2 0x1292 DUP2 PUSH2 0x173F JUMP JUMPDEST DUP3 MSTORE POP POP JUMP JUMPDEST PUSH2 0x12A1 DUP2 PUSH2 0x173F JUMP JUMPDEST DUP3 MSTORE POP POP JUMP JUMPDEST PUSH1 0x0 PUSH2 0x12B2 DUP3 PUSH2 0x1692 JUMP JUMPDEST PUSH2 0x12BC DUP2 DUP6 PUSH2 0x16E5 JUMP JUMPDEST SWAP4 POP PUSH2 0x12C7 DUP4 PUSH2 0x1668 JUMP JUMPDEST DUP1 PUSH1 0x0 JUMPDEST DUP4 DUP2 LT ISZERO PUSH2 0x12F8 JUMPI DUP2 MLOAD PUSH2 0x12DF DUP9 DUP3 PUSH2 0x1245 JUMP JUMPDEST SWAP8 POP PUSH2 0x12EA DUP4 PUSH2 0x16BE JUMP JUMPDEST SWAP3 POP POP PUSH1 0x1 DUP2 ADD SWAP1 POP PUSH2 0x12CB JUMP JUMPDEST POP DUP6 SWAP4 POP POP POP POP SWAP3 SWAP2 POP POP JUMP JUMPDEST PUSH1 0x0 PUSH2 0x1310 DUP3 PUSH2 0x169D JUMP JUMPDEST PUSH2 0x131A DUP2 DUP6 PUSH2 0x16F6 JUMP JUMPDEST SWAP4 POP DUP4 PUSH1 0x20 DUP3 MUL DUP6 ADD PUSH2 0x132C DUP6 PUSH2 0x1678 JUMP JUMPDEST DUP1 PUSH1 0x0 JUMPDEST DUP6 DUP2 LT ISZERO PUSH2 0x1368 JUMPI DUP5 DUP5 SUB DUP10 MSTORE DUP2 MLOAD PUSH2 0x1349 DUP6 DUP3 PUSH2 0x125D JUMP JUMPDEST SWAP5 POP PUSH2 0x1354 DUP4 PUSH2 0x16CB JUMP JUMPDEST SWAP3 POP PUSH1 0x20 DUP11 ADD SWAP10 POP POP PUSH1 0x1 DUP2 ADD SWAP1 POP PUSH2 0x1330 JUMP JUMPDEST POP DUP3 SWAP8 POP DUP8 SWAP6 POP POP POP POP POP POP SWAP3 SWAP2 POP POP JUMP JUMPDEST PUSH2 0x1383 DUP2 PUSH2 0x16A8 JUMP JUMPDEST PUSH2 0x138D DUP2 DUP5 PUSH2 0x1707 JUMP JUMPDEST SWAP3 POP PUSH2 0x1398 DUP3 PUSH2 0x1688 JUMP JUMPDEST DUP1 PUSH1 0x0 JUMPDEST DUP4 DUP2 LT ISZERO PUSH2 0x13C9 JUMPI DUP2 MLOAD PUSH2 0x13B0 DUP8 DUP3 PUSH2 0x1271 JUMP JUMPDEST SWAP7 POP PUSH2 0x13BB DUP4 PUSH2 0x16D8 JUMP JUMPDEST SWAP3 POP POP PUSH1 0x1 DUP2 ADD SWAP1 POP PUSH2 0x139C JUMP JUMPDEST POP POP POP POP POP POP JUMP JUMPDEST PUSH1 0x0 PUSH2 0x13DC DUP3 PUSH2 0x16B3 JUMP JUMPDEST PUSH2 0x13E6 DUP2 DUP6 PUSH2 0x1712 JUMP JUMPDEST SWAP4 POP PUSH2 0x13F6 DUP2 DUP6 PUSH1 0x20 DUP7 ADD PUSH2 0x178A JUMP JUMPDEST PUSH2 0x13FF DUP2 PUSH2 0x1939 JUMP JUMPDEST DUP5 ADD SWAP2 POP POP SWAP3 SWAP2 POP POP JUMP JUMPDEST PUSH1 0x0 PUSH2 0x1415 DUP3 PUSH2 0x16B3 JUMP JUMPDEST PUSH2 0x141F DUP2 DUP6 PUSH2 0x1723 JUMP JUMPDEST SWAP4 POP PUSH2 0x142F DUP2 DUP6 PUSH1 0x20 DUP7 ADD PUSH2 0x178A JUMP JUMPDEST PUSH2 0x1438 DUP2 PUSH2 0x1939 JUMP JUMPDEST DUP5 ADD SWAP2 POP POP SWAP3 SWAP2 POP POP JUMP JUMPDEST PUSH1 0x0 PUSH2 0x144E DUP3 PUSH2 0x16B3 JUMP JUMPDEST PUSH2 0x1458 DUP2 DUP6 PUSH2 0x1734 JUMP JUMPDEST SWAP4 POP PUSH2 0x1468 DUP2 DUP6 PUSH1 0x20 DUP7 ADD PUSH2 0x178A JUMP JUMPDEST DUP1 DUP5 ADD SWAP2 POP POP SWAP3 SWAP2 POP POP JUMP JUMPDEST PUSH1 0x0 PUSH2 0x1481 PUSH1 0x13 DUP4 PUSH2 0x1723 JUMP JUMPDEST SWAP2 POP PUSH2 0x148C DUP3 PUSH2 0x194A JUMP JUMPDEST PUSH1 0x20 DUP3 ADD SWAP1 POP SWAP2 SWAP1 POP JUMP JUMPDEST PUSH1 0x0 PUSH2 0x14A4 PUSH1 0xF DUP4 PUSH2 0x1723 JUMP JUMPDEST SWAP2 POP PUSH2 0x14AF DUP3 PUSH2 0x1973 JUMP JUMPDEST PUSH1 0x20 DUP3 ADD SWAP1 POP SWAP2 SWAP1 POP JUMP JUMPDEST PUSH2 0x14C3 DUP2 PUSH2 0x1771 JUMP JUMPDEST DUP3 MSTORE POP POP JUMP JUMPDEST PUSH2 0x14D2 DUP2 PUSH2 0x1771 JUMP JUMPDEST DUP3 MSTORE POP POP JUMP JUMPDEST PUSH1 0x0 PUSH2 0x14E4 DUP3 DUP5 PUSH2 0x1443 JUMP JUMPDEST SWAP2 POP DUP2 SWAP1 POP SWAP3 SWAP2 POP POP JUMP JUMPDEST PUSH1 0x0 PUSH1 0x40 DUP3 ADD SWAP1 POP PUSH2 0x1504 PUSH1 0x0 DUP4 ADD DUP6 PUSH2 0x1298 JUMP JUMPDEST DUP2 DUP2 SUB PUSH1 0x20 DUP4 ADD MSTORE PUSH2 0x1516 DUP2 DUP5 PUSH2 0x140A JUMP JUMPDEST SWAP1 POP SWAP4 SWAP3 POP POP POP JUMP JUMPDEST PUSH1 0x0 PUSH2 0x600 DUP3 ADD SWAP1 POP PUSH2 0x1535 PUSH1 0x0 DUP4 ADD DUP8 PUSH2 0x1298 JUMP JUMPDEST DUP2 DUP2 SUB PUSH1 0x20 DUP4 ADD MSTORE PUSH2 0x1547 DUP2 DUP7 PUSH2 0x140A JUMP JUMPDEST SWAP1 POP PUSH2 0x1556 PUSH1 0x40 DUP4 ADD DUP6 PUSH2 0x14C9 JUMP JUMPDEST PUSH2 0x1563 PUSH1 0x60 DUP4 ADD DUP5 PUSH2 0x137A JUMP JUMPDEST SWAP6 SWAP5 POP POP POP POP POP JUMP JUMPDEST PUSH1 0x0 PUSH1 0x20 DUP3 ADD SWAP1 POP DUP2 DUP2 SUB PUSH1 0x0 DUP4 ADD MSTORE PUSH2 0x1586 DUP2 DUP5 PUSH2 0x12A7 JUMP JUMPDEST SWAP1 POP SWAP3 SWAP2 POP POP JUMP JUMPDEST PUSH1 0x0 PUSH1 0x20 DUP3 ADD SWAP1 POP DUP2 DUP2 SUB PUSH1 0x0 DUP4 ADD MSTORE PUSH2 0x15A8 DUP2 DUP5 PUSH2 0x1305 JUMP JUMPDEST SWAP1 POP SWAP3 SWAP2 POP POP JUMP JUMPDEST PUSH1 0x0 PUSH1 0x20 DUP3 ADD SWAP1 POP DUP2 DUP2 SUB PUSH1 0x0 DUP4 ADD MSTORE PUSH2 0x15CA DUP2 DUP5 PUSH2 0x140A JUMP JUMPDEST SWAP1 POP SWAP3 SWAP2 POP POP JUMP JUMPDEST PUSH1 0x0 PUSH1 0x20 DUP3 ADD SWAP1 POP DUP2 DUP2 SUB PUSH1 0x0 DUP4 ADD MSTORE PUSH2 0x15EB DUP2 PUSH2 0x1474 JUMP JUMPDEST SWAP1 POP SWAP2 SWAP1 POP JUMP JUMPDEST PUSH1 0x0 PUSH1 0x20 DUP3 ADD SWAP1 POP DUP2 DUP2 SUB PUSH1 0x0 DUP4 ADD MSTORE PUSH2 0x160B DUP2 PUSH2 0x1497 JUMP JUMPDEST SWAP1 POP SWAP2 SWAP1 POP JUMP JUMPDEST PUSH1 0x0 PUSH2 0x161C PUSH2 0x162D JUMP JUMPDEST SWAP1 POP PUSH2 0x1628 DUP3 DUP3 PUSH2 0x17EF JUMP JUMPDEST SWAP2 SWAP1 POP JUMP JUMPDEST PUSH1 0x0 PUSH1 0x40 MLOAD SWAP1 POP SWAP1 JUMP JUMPDEST PUSH1 0x0 PUSH8 0xFFFFFFFFFFFFFFFF DUP3 GT ISZERO PUSH2 0x1652 JUMPI PUSH2 0x1651 PUSH2 0x18F6 JUMP JUMPDEST JUMPDEST PUSH2 0x165B DUP3 PUSH2 0x1939 JUMP JUMPDEST SWAP1 POP PUSH1 0x20 DUP2 ADD SWAP1 POP SWAP2 SWAP1 POP JUMP JUMPDEST PUSH1 0x0 DUP2 SWAP1 POP PUSH1 0x20 DUP3 ADD SWAP1 POP SWAP2 SWAP1 POP JUMP JUMPDEST PUSH1 0x0 DUP2 SWAP1 POP PUSH1 0x20 DUP3 ADD SWAP1 POP SWAP2 SWAP1 POP JUMP JUMPDEST PUSH1 0x0 DUP2 SWAP1 POP SWAP2 SWAP1 POP JUMP JUMPDEST PUSH1 0x0 DUP2 MLOAD SWAP1 POP SWAP2 SWAP1 POP JUMP JUMPDEST PUSH1 0x0 DUP2 MLOAD SWAP1 POP SWAP2 SWAP1 POP JUMP JUMPDEST PUSH1 0x0 PUSH1 0x2D SWAP1 POP SWAP2 SWAP1 POP JUMP JUMPDEST PUSH1 0x0 DUP2 MLOAD SWAP1 POP SWAP2 SWAP1 POP JUMP JUMPDEST PUSH1 0x0 PUSH1 0x20 DUP3 ADD SWAP1 POP SWAP2 SWAP1 POP JUMP JUMPDEST PUSH1 0x0 PUSH1 0x20 DUP3 ADD SWAP1 POP SWAP2 SWAP1 POP JUMP JUMPDEST PUSH1 0x0 PUSH1 0x20 DUP3 ADD SWAP1 POP SWAP2 SWAP1 POP JUMP JUMPDEST PUSH1 0x0 DUP3 DUP3 MSTORE PUSH1 0x20 DUP3 ADD SWAP1 POP SWAP3 SWAP2 POP POP JUMP JUMPDEST PUSH1 0x0 DUP3 DUP3 MSTORE PUSH1 0x20 DUP3 ADD SWAP1 POP SWAP3 SWAP2 POP POP JUMP JUMPDEST PUSH1 0x0 DUP2 SWAP1 POP SWAP3 SWAP2 POP POP JUMP JUMPDEST PUSH1 0x0 DUP3 DUP3 MSTORE PUSH1 0x20 DUP3 ADD SWAP1 POP SWAP3 SWAP2 POP POP JUMP JUMPDEST PUSH1 0x0 DUP3 DUP3 MSTORE PUSH1 0x20 DUP3 ADD SWAP1 POP SWAP3 SWAP2 POP POP JUMP JUMPDEST PUSH1 0x0 DUP2 SWAP1 POP SWAP3 SWAP2 POP POP JUMP JUMPDEST PUSH1 0x0 PUSH2 0x174A DUP3 PUSH2 0x1751 JUMP JUMPDEST SWAP1 POP SWAP2 SWAP1 POP JUMP JUMPDEST PUSH1 0x0 PUSH20 0xFFFFFFFFFFFFFFFFFFFFFFFFFFFFFFFFFFFFFFFF DUP3 AND SWAP1 POP SWAP2 SWAP1 POP JUMP JUMPDEST PUSH1 0x0 DUP2 SWAP1 POP SWAP2 SWAP1 POP JUMP JUMPDEST DUP3 DUP2 DUP4 CALLDATACOPY PUSH1 0x0 DUP4 DUP4 ADD MSTORE POP POP POP JUMP JUMPDEST PUSH1 0x0 JUMPDEST DUP4 DUP2 LT ISZERO PUSH2 0x17A8 JUMPI DUP1 DUP3 ADD MLOAD DUP2 DUP5 ADD MSTORE PUSH1 0x20 DUP2 ADD SWAP1 POP PUSH2 0x178D JUMP JUMPDEST DUP4 DUP2 GT ISZERO PUSH2 0x17B7 JUMPI PUSH1 0x0 DUP5 DUP5 ADD MSTORE JUMPDEST POP POP POP POP JUMP JUMPDEST PUSH1 0x0 PUSH1 0x2 DUP3 DIV SWAP1 POP PUSH1 0x1 DUP3 AND DUP1 PUSH2 0x17D5 JUMPI PUSH1 0x7F DUP3 AND SWAP2 POP JUMPDEST PUSH1 0x20 DUP3 LT DUP2 EQ ISZERO PUSH2 0x17E9 JUMPI PUSH2 0x17E8 PUSH2 0x1898 JUMP JUMPDEST JUMPDEST POP SWAP2 SWAP1 POP JUMP JUMPDEST PUSH2 0x17F8 DUP3 PUSH2 0x1939 JUMP JUMPDEST DUP2 ADD DUP2 DUP2 LT PUSH8 0xFFFFFFFFFFFFFFFF DUP3 GT OR ISZERO PUSH2 0x1817 JUMPI PUSH2 0x1816 PUSH2 0x18F6 JUMP JUMPDEST JUMPDEST DUP1 PUSH1 0x40 MSTORE POP POP POP JUMP JUMPDEST PUSH1 0x0 PUSH2 0x182B DUP3 PUSH2 0x1771 JUMP JUMPDEST SWAP2 POP PUSH32 0xFFFFFFFFFFFFFFFFFFFFFFFFFFFFFFFFFFFFFFFFFFFFFFFFFFFFFFFFFFFFFFFF DUP3 EQ ISZERO PUSH2 0x185E JUMPI PUSH2 0x185D PUSH2 0x1869 JUMP JUMPDEST JUMPDEST PUSH1 0x1 DUP3 ADD SWAP1 POP SWAP2 SWAP1 POP JUMP JUMPDEST PUSH32 0x4E487B7100000000000000000000000000000000000000000000000000000000 PUSH1 0x0 MSTORE PUSH1 0x11 PUSH1 0x4 MSTORE PUSH1 0x24 PUSH1 0x0 REVERT JUMPDEST PUSH32 0x4E487B7100000000000000000000000000000000000000000000000000000000 PUSH1 0x0 MSTORE PUSH1 0x22 PUSH1 0x4 MSTORE PUSH1 0x24 PUSH1 0x0 REVERT JUMPDEST PUSH32 0x4E487B7100000000000000000000000000000000000000000000000000000000 PUSH1 0x0 MSTORE PUSH1 0x32 PUSH1 0x4 MSTORE PUSH1 0x24 PUSH1 0x0 REVERT JUMPDEST PUSH32 0x4E487B7100000000000000000000000000000000000000000000000000000000 PUSH1 0x0 MSTORE PUSH1 0x41 PUSH1 0x4 MSTORE PUSH1 0x24 PUSH1 0x0 REVERT JUMPDEST PUSH1 0x0 DUP1 REVERT JUMPDEST PUSH1 0x0 DUP1 REVERT JUMPDEST PUSH1 0x0 DUP1 REVERT JUMPDEST PUSH1 0x0 DUP1 REVERT JUMPDEST PUSH1 0x0 PUSH1 0x1F NOT PUSH1 0x1F DUP4 ADD AND SWAP1 POP SWAP2 SWAP1 POP JUMP JUMPDEST PUSH32 0x5468657265206973206E6F2053747564656E7400000000000000000000000000 PUSH1 0x0 DUP3 ADD MSTORE POP JUMP JUMPDEST PUSH32 0x5468657265206973206E6F204255530000000000000000000000000000000000 PUSH1 0x0 DUP3 ADD MSTORE POP JUMP JUMPDEST PUSH2 0x19A5 DUP2 PUSH2 0x173F JUMP JUMPDEST DUP2 EQ PUSH2 0x19B0 JUMPI PUSH1 0x0 DUP1 REVERT JUMPDEST POP JUMP JUMPDEST PUSH2 0x19BC DUP2 PUSH2 0x1771 JUMP JUMPDEST DUP2 EQ PUSH2 0x19C7 JUMPI PUSH1 0x0 DUP1 REVERT JUMPDEST POP JUMP INVALID LOG2 PUSH5 0x6970667358 0x22 SLT KECCAK256 PUSH23 0xAD55ADE6AB50E5AA59A2814DAAB921B09A890B4946A3C4 PUSH10 0xCF93DC5440348A64736F PUSH13 0x63430008070033000000000000 "
				},
				"gasEstimates": {
					"creation": {
						"codeDepositCost": "1331200",
						"executionCost": "25649",
						"totalCost": "1356849"
					},
					"external": {
						"Reservation(uint256,string,uint256)": "infinite",
						"addBus(address,string,uint256,string)": "infinite",
						"addStudent(address,string,uint256)": "infinite",
						"deleteBus(string)": "infinite",
						"deleteStudent(uint256)": "infinite",
						"getAllBus()": "infinite",
						"getAllStudent()": "infinite",
						"getBus(string)": "infinite",
						"getStudent(uint256)": "infinite",
						"getbusNums()": "infinite"
					},
					"internal": {
						"stringsEquals(string memory,string memory)": "infinite"
					}
				},
				"methodIdentifiers": {
					"Reservation(uint256,string,uint256)": "2bf4ef72",
					"addBus(address,string,uint256,string)": "009a4d3c",
					"addStudent(address,string,uint256)": "f041f73f",
					"deleteBus(string)": "62a80162",
					"deleteStudent(uint256)": "b645307d",
					"getAllBus()": "75285b65",
					"getAllStudent()": "133d0460",
					"getBus(string)": "80e1127b",
					"getStudent(uint256)": "642f9163",
					"getbusNums()": "6269ba34"
				}
			},
			"storageLayout": {
				"storage": [
					{
						"astId": 21,
						"contract": "contracts/main.sol:Database",
						"label": "manager",
						"offset": 0,
						"slot": "0",
						"type": "t_address"
					},
					{
						"astId": 24,
						"contract": "contracts/main.sol:Database",
						"label": "buses",
						"offset": 0,
						"slot": "1",
						"type": "t_array(t_address)dyn_storage"
					},
					{
						"astId": 27,
						"contract": "contracts/main.sol:Database",
						"label": "students",
						"offset": 0,
						"slot": "2",
						"type": "t_array(t_address)dyn_storage"
					},
					{
						"astId": 30,
						"contract": "contracts/main.sol:Database",
						"label": "busNum",
						"offset": 0,
						"slot": "3",
						"type": "t_array(t_string_storage)dyn_storage"
					},
					{
						"astId": 33,
						"contract": "contracts/main.sol:Database",
						"label": "studentNum",
						"offset": 0,
						"slot": "4",
						"type": "t_array(t_uint256)dyn_storage"
					},
					{
						"astId": 47,
						"contract": "contracts/main.sol:Database",
						"label": "BusDB",
						"offset": 0,
						"slot": "5",
						"type": "t_mapping(t_string_memory_ptr,t_struct(Bus_DB)19_storage)"
					},
					{
						"astId": 52,
						"contract": "contracts/main.sol:Database",
						"label": "StudentDB",
						"offset": 0,
						"slot": "6",
						"type": "t_mapping(t_uint256,t_struct(Student_DB)8_storage)"
					}
				],
				"types": {
					"t_address": {
						"encoding": "inplace",
						"label": "address",
						"numberOfBytes": "20"
					},
					"t_array(t_address)dyn_storage": {
						"base": "t_address",
						"encoding": "dynamic_array",
						"label": "address[]",
						"numberOfBytes": "32"
					},
					"t_array(t_string_storage)dyn_storage": {
						"base": "t_string_storage",
						"encoding": "dynamic_array",
						"label": "string[]",
						"numberOfBytes": "32"
					},
					"t_array(t_uint256)45_storage": {
						"base": "t_uint256",
						"encoding": "inplace",
						"label": "uint256[45]",
						"numberOfBytes": "1440"
					},
					"t_array(t_uint256)dyn_storage": {
						"base": "t_uint256",
						"encoding": "dynamic_array",
						"label": "uint256[]",
						"numberOfBytes": "32"
					},
					"t_mapping(t_string_memory_ptr,t_struct(Bus_DB)19_storage)": {
						"encoding": "mapping",
						"key": "t_string_memory_ptr",
						"label": "mapping(string => struct Database.Bus_DB)",
						"numberOfBytes": "32",
						"value": "t_struct(Bus_DB)19_storage"
					},
					"t_mapping(t_uint256,t_struct(Student_DB)8_storage)": {
						"encoding": "mapping",
						"key": "t_uint256",
						"label": "mapping(uint256 => struct Database.Student_DB)",
						"numberOfBytes": "32",
						"value": "t_struct(Student_DB)8_storage"
					},
					"t_string_memory_ptr": {
						"encoding": "bytes",
						"label": "string",
						"numberOfBytes": "32"
					},
					"t_string_storage": {
						"encoding": "bytes",
						"label": "string",
						"numberOfBytes": "32"
					},
					"t_struct(Bus_DB)19_storage": {
						"encoding": "inplace",
						"label": "struct Database.Bus_DB",
						"members": [
							{
								"astId": 10,
								"contract": "contracts/main.sol:Database",
								"label": "bus",
								"offset": 0,
								"slot": "0",
								"type": "t_address"
							},
							{
								"astId": 12,
								"contract": "contracts/main.sol:Database",
								"label": "destination",
								"offset": 0,
								"slot": "1",
								"type": "t_string_storage"
							},
							{
								"astId": 14,
								"contract": "contracts/main.sol:Database",
								"label": "start_time",
								"offset": 0,
								"slot": "2",
								"type": "t_uint256"
							},
							{
								"astId": 18,
								"contract": "contracts/main.sol:Database",
								"label": "Seat_number",
								"offset": 0,
								"slot": "3",
								"type": "t_array(t_uint256)45_storage"
							}
						],
						"numberOfBytes": "1536"
					},
					"t_struct(Student_DB)8_storage": {
						"encoding": "inplace",
						"label": "struct Database.Student_DB",
						"members": [
							{
								"astId": 5,
								"contract": "contracts/main.sol:Database",
								"label": "student_name",
								"offset": 0,
								"slot": "0",
								"type": "t_string_storage"
							},
							{
								"astId": 7,
								"contract": "contracts/main.sol:Database",
								"label": "student",
								"offset": 0,
								"slot": "1",
								"type": "t_address"
							}
						],
						"numberOfBytes": "64"
					},
					"t_uint256": {
						"encoding": "inplace",
						"label": "uint256",
						"numberOfBytes": "32"
					}
				}
			},
			"userdoc": {
				"kind": "user",
				"methods": {},
				"version": 1
			}
		}
	}
}