{
	"contracts/database.sol": {
		"Database": {
			"abi": [
				{
					"inputs": [
						{
							"internalType": "address",
							"name": "bus",
							"type": "address"
						},
						{
							"internalType": "string",
							"name": "destination",
							"type": "string"
						},
						{
							"internalType": "uint256",
							"name": "start_time",
							"type": "uint256"
						},
						{
							"internalType": "string",
							"name": "busNum",
							"type": "string"
						}
					],
					"name": "addBus",
					"outputs": [],
					"stateMutability": "nonpayable",
					"type": "function"
				},
				{
					"inputs": [
						{
							"internalType": "string",
							"name": "student_name",
							"type": "string"
						},
						{
							"internalType": "uint256",
							"name": "studentNum",
							"type": "uint256"
						}
					],
					"name": "addStudent",
					"outputs": [],
					"stateMutability": "nonpayable",
					"type": "function"
				},
				{
					"inputs": [
						{
							"internalType": "uint256",
							"name": "_num",
							"type": "uint256"
						}
					],
					"name": "deleteStudent",
					"outputs": [
						{
							"internalType": "string",
							"name": "",
							"type": "string"
						}
					],
					"stateMutability": "nonpayable",
					"type": "function"
				},
				{
					"inputs": [
						{
							"internalType": "uint256",
							"name": "_num",
							"type": "uint256"
						}
					],
					"name": "getStudents",
					"outputs": [
						{
							"internalType": "string",
							"name": "",
							"type": "string"
						},
						{
							"internalType": "address",
							"name": "",
							"type": "address"
						}
					],
					"stateMutability": "view",
					"type": "function"
				}
			],
			"devdoc": {
				"details": "Save Professor",
				"kind": "dev",
				"methods": {},
				"title": "Database",
				"version": 1
			},
			"evm": {
				"assembly": "    /* \"contracts/database.sol\":148:1914  contract Database {... */\n  mstore(0x40, 0x80)\n  callvalue\n  dup1\n  iszero\n  tag_1\n  jumpi\n  0x00\n  dup1\n  revert\ntag_1:\n  pop\n  dataSize(sub_0)\n  dup1\n  dataOffset(sub_0)\n  0x00\n  codecopy\n  0x00\n  return\nstop\n\nsub_0: assembly {\n        /* \"contracts/database.sol\":148:1914  contract Database {... */\n      mstore(0x40, 0x80)\n      callvalue\n      dup1\n      iszero\n      tag_1\n      jumpi\n      0x00\n      dup1\n      revert\n    tag_1:\n      pop\n      jumpi(tag_2, lt(calldatasize, 0x04))\n      shr(0xe0, calldataload(0x00))\n      dup1\n      0x9a4d3c\n      eq\n      tag_3\n      jumpi\n      dup1\n      0x0e5eeef7\n      eq\n      tag_4\n      jumpi\n      dup1\n      0x75c2f8f0\n      eq\n      tag_5\n      jumpi\n      dup1\n      0xb645307d\n      eq\n      tag_6\n      jumpi\n    tag_2:\n      0x00\n      dup1\n      revert\n        /* \"contracts/database.sol\":1181:1385  function addBus(address bus, string memory destination, uint start_time, string memory busNum) public {... */\n    tag_3:\n      tag_7\n      0x04\n      dup1\n      calldatasize\n      sub\n      dup2\n      add\n      swap1\n      tag_8\n      swap2\n      swap1\n      tag_9\n      jump\t// in\n    tag_8:\n      tag_10\n      jump\t// in\n    tag_7:\n      stop\n        /* \"contracts/database.sol\":987:1175  function addStudent(string memory student_name, uint studentNum) public {... */\n    tag_4:\n      tag_11\n      0x04\n      dup1\n      calldatasize\n      sub\n      dup2\n      add\n      swap1\n      tag_12\n      swap2\n      swap1\n      tag_13\n      jump\t// in\n    tag_12:\n      tag_14\n      jump\t// in\n    tag_11:\n      stop\n        /* \"contracts/database.sol\":1623:1912  function getStudents(uint _num) public view returns(string memory, address){ //이게 왜 되지?... */\n    tag_5:\n      tag_15\n      0x04\n      dup1\n      calldatasize\n      sub\n      dup2\n      add\n      swap1\n      tag_16\n      swap2\n      swap1\n      tag_17\n      jump\t// in\n    tag_16:\n      tag_18\n      jump\t// in\n    tag_15:\n      mload(0x40)\n      tag_19\n      swap3\n      swap2\n      swap1\n      tag_20\n      jump\t// in\n    tag_19:\n      mload(0x40)\n      dup1\n      swap2\n      sub\n      swap1\n      return\n        /* \"contracts/database.sol\":1391:1617  function deleteStudent(uint _num) public returns(string memory){... */\n    tag_6:\n      tag_21\n      0x04\n      dup1\n      calldatasize\n      sub\n      dup2\n      add\n      swap1\n      tag_22\n      swap2\n      swap1\n      tag_17\n      jump\t// in\n    tag_22:\n      tag_23\n      jump\t// in\n    tag_21:\n      mload(0x40)\n      tag_24\n      swap2\n      swap1\n      tag_25\n      jump\t// in\n    tag_24:\n      mload(0x40)\n      dup1\n      swap2\n      sub\n      swap1\n      return\n        /* \"contracts/database.sol\":1181:1385  function addBus(address bus, string memory destination, uint start_time, string memory busNum) public {... */\n    tag_10:\n        /* \"contracts/database.sol\":1291:1311  uint[45] memory seat */\n      tag_27\n      tag_28\n      jump\t// in\n    tag_27:\n        /* \"contracts/database.sol\":1336:1378  Bus_DB(bus, destination, start_time, seat) */\n      mload(0x40)\n      dup1\n      0x80\n      add\n      0x40\n      mstore\n      dup1\n        /* \"contracts/database.sol\":1343:1346  bus */\n      dup7\n        /* \"contracts/database.sol\":1336:1378  Bus_DB(bus, destination, start_time, seat) */\n      0xffffffffffffffffffffffffffffffffffffffff\n      and\n      dup2\n      mstore\n      0x20\n      add\n        /* \"contracts/database.sol\":1348:1359  destination */\n      dup6\n        /* \"contracts/database.sol\":1336:1378  Bus_DB(bus, destination, start_time, seat) */\n      dup2\n      mstore\n      0x20\n      add\n        /* \"contracts/database.sol\":1361:1371  start_time */\n      dup5\n        /* \"contracts/database.sol\":1336:1378  Bus_DB(bus, destination, start_time, seat) */\n      dup2\n      mstore\n      0x20\n      add\n        /* \"contracts/database.sol\":1373:1377  seat */\n      dup3\n        /* \"contracts/database.sol\":1336:1378  Bus_DB(bus, destination, start_time, seat) */\n      dup2\n      mstore\n      pop\n        /* \"contracts/database.sol\":1320:1325  BusDB */\n      0x06\n        /* \"contracts/database.sol\":1326:1332  busNum */\n      dup4\n        /* \"contracts/database.sol\":1320:1333  BusDB[busNum] */\n      mload(0x40)\n      tag_29\n      swap2\n      swap1\n      tag_30\n      jump\t// in\n    tag_29:\n      swap1\n      dup2\n      mstore\n      0x20\n      add\n      mload(0x40)\n      dup1\n      swap2\n      sub\n      swap1\n      keccak256\n        /* \"contracts/database.sol\":1320:1378  BusDB[busNum] = Bus_DB(bus, destination, start_time, seat) */\n      0x00\n      dup3\n      add\n      mload\n      dup2\n      0x00\n      add\n      exp(0x0100, 0x00)\n      dup2\n      sload\n      dup2\n      0xffffffffffffffffffffffffffffffffffffffff\n      mul\n      not\n      and\n      swap1\n      dup4\n      0xffffffffffffffffffffffffffffffffffffffff\n      and\n      mul\n      or\n      swap1\n      sstore\n      pop\n      0x20\n      dup3\n      add\n      mload\n      dup2\n      0x01\n      add\n      swap1\n      dup1\n      mload\n      swap1\n      0x20\n      add\n      swap1\n      tag_31\n      swap3\n      swap2\n      swap1\n      tag_32\n      jump\t// in\n    tag_31:\n      pop\n      0x40\n      dup3\n      add\n      mload\n      dup2\n      0x02\n      add\n      sstore\n      0x60\n      dup3\n      add\n      mload\n      dup2\n      0x03\n      add\n      swap1\n      0x2d\n      tag_33\n      swap3\n      swap2\n      swap1\n      tag_34\n      jump\t// in\n    tag_33:\n      pop\n      swap1\n      pop\n      pop\n        /* \"contracts/database.sol\":1283:1385  {... */\n      pop\n        /* \"contracts/database.sol\":1181:1385  function addBus(address bus, string memory destination, uint start_time, string memory busNum) public {... */\n      pop\n      pop\n      pop\n      pop\n      jump\t// out\n        /* \"contracts/database.sol\":987:1175  function addStudent(string memory student_name, uint studentNum) public {... */\n    tag_14:\n        /* \"contracts/database.sol\":1092:1128  Student_DB(student_name, msg.sender) */\n      mload(0x40)\n      dup1\n      0x40\n      add\n      0x40\n      mstore\n      dup1\n        /* \"contracts/database.sol\":1103:1115  student_name */\n      dup4\n        /* \"contracts/database.sol\":1092:1128  Student_DB(student_name, msg.sender) */\n      dup2\n      mstore\n      0x20\n      add\n        /* \"contracts/database.sol\":1117:1127  msg.sender */\n      caller\n        /* \"contracts/database.sol\":1092:1128  Student_DB(student_name, msg.sender) */\n      0xffffffffffffffffffffffffffffffffffffffff\n      and\n      dup2\n      mstore\n      pop\n        /* \"contracts/database.sol\":1068:1077  StudentDB */\n      0x07\n        /* \"contracts/database.sol\":1068:1089  StudentDB[studentNum] */\n      0x00\n        /* \"contracts/database.sol\":1078:1088  studentNum */\n      dup4\n        /* \"contracts/database.sol\":1068:1089  StudentDB[studentNum] */\n      dup2\n      mstore\n      0x20\n      add\n      swap1\n      dup2\n      mstore\n      0x20\n      add\n      0x00\n      keccak256\n        /* \"contracts/database.sol\":1068:1128  StudentDB[studentNum] = Student_DB(student_name, msg.sender) */\n      0x00\n      dup3\n      add\n      mload\n      dup2\n      0x00\n      add\n      swap1\n      dup1\n      mload\n      swap1\n      0x20\n      add\n      swap1\n      tag_36\n      swap3\n      swap2\n      swap1\n      tag_32\n      jump\t// in\n    tag_36:\n      pop\n      0x20\n      dup3\n      add\n      mload\n      dup2\n      0x01\n      add\n      exp(0x0100, 0x00)\n      dup2\n      sload\n      dup2\n      0xffffffffffffffffffffffffffffffffffffffff\n      mul\n      not\n      and\n      swap1\n      dup4\n      0xffffffffffffffffffffffffffffffffffffffff\n      and\n      mul\n      or\n      swap1\n      sstore\n      pop\n      swap1\n      pop\n      pop\n        /* \"contracts/database.sol\":987:1175  function addStudent(string memory student_name, uint studentNum) public {... */\n      pop\n      pop\n      jump\t// out\n        /* \"contracts/database.sol\":1623:1912  function getStudents(uint _num) public view returns(string memory, address){ //이게 왜 되지?... */\n    tag_18:\n        /* \"contracts/database.sol\":1675:1688  string memory */\n      0x60\n        /* \"contracts/database.sol\":1690:1697  address */\n      0x00\n        /* \"contracts/database.sol\":1729:1747  string memory name */\n      0x60\n        /* \"contracts/database.sol\":1757:1776  address student_add */\n      0x00\n        /* \"contracts/database.sol\":1794:1803  StudentDB */\n      0x07\n        /* \"contracts/database.sol\":1794:1809  StudentDB[_num] */\n      0x00\n        /* \"contracts/database.sol\":1804:1808  _num */\n      dup7\n        /* \"contracts/database.sol\":1794:1809  StudentDB[_num] */\n      dup2\n      mstore\n      0x20\n      add\n      swap1\n      dup2\n      mstore\n      0x20\n      add\n      0x00\n      keccak256\n        /* \"contracts/database.sol\":1794:1822  StudentDB[_num].student_name */\n      0x00\n      add\n        /* \"contracts/database.sol\":1787:1822  name = StudentDB[_num].student_name */\n      dup1\n      sload\n      tag_38\n      swap1\n      tag_39\n      jump\t// in\n    tag_38:\n      dup1\n      0x1f\n      add\n      0x20\n      dup1\n      swap2\n      div\n      mul\n      0x20\n      add\n      mload(0x40)\n      swap1\n      dup2\n      add\n      0x40\n      mstore\n      dup1\n      swap3\n      swap2\n      swap1\n      dup2\n      dup2\n      mstore\n      0x20\n      add\n      dup3\n      dup1\n      sload\n      tag_40\n      swap1\n      tag_39\n      jump\t// in\n    tag_40:\n      dup1\n      iszero\n      tag_41\n      jumpi\n      dup1\n      0x1f\n      lt\n      tag_42\n      jumpi\n      0x0100\n      dup1\n      dup4\n      sload\n      div\n      mul\n      dup4\n      mstore\n      swap2\n      0x20\n      add\n      swap2\n      jump(tag_41)\n    tag_42:\n      dup3\n      add\n      swap2\n      swap1\n      0x00\n      mstore\n      keccak256(0x00, 0x20)\n      swap1\n    tag_43:\n      dup2\n      sload\n      dup2\n      mstore\n      swap1\n      0x01\n      add\n      swap1\n      0x20\n      add\n      dup1\n      dup4\n      gt\n      tag_43\n      jumpi\n      dup3\n      swap1\n      sub\n      0x1f\n      and\n      dup3\n      add\n      swap2\n    tag_41:\n      pop\n      pop\n      pop\n      pop\n      pop\n      swap2\n      pop\n        /* \"contracts/database.sol\":1846:1855  StudentDB */\n      0x07\n        /* \"contracts/database.sol\":1846:1861  StudentDB[_num] */\n      0x00\n        /* \"contracts/database.sol\":1856:1860  _num */\n      dup7\n        /* \"contracts/database.sol\":1846:1861  StudentDB[_num] */\n      dup2\n      mstore\n      0x20\n      add\n      swap1\n      dup2\n      mstore\n      0x20\n      add\n      0x00\n      keccak256\n        /* \"contracts/database.sol\":1846:1869  StudentDB[_num].student */\n      0x01\n      add\n      0x00\n      swap1\n      sload\n      swap1\n      0x0100\n      exp\n      swap1\n      div\n      0xffffffffffffffffffffffffffffffffffffffff\n      and\n        /* \"contracts/database.sol\":1832:1869  student_add = StudentDB[_num].student */\n      swap1\n      pop\n        /* \"contracts/database.sol\":1888:1892  name */\n      dup2\n        /* \"contracts/database.sol\":1893:1904  student_add */\n      dup2\n        /* \"contracts/database.sol\":1880:1905  return (name,student_add) */\n      swap4\n      pop\n      swap4\n      pop\n      pop\n      pop\n        /* \"contracts/database.sol\":1623:1912  function getStudents(uint _num) public view returns(string memory, address){ //이게 왜 되지?... */\n      swap2\n      pop\n      swap2\n      jump\t// out\n        /* \"contracts/database.sol\":1391:1617  function deleteStudent(uint _num) public returns(string memory){... */\n    tag_23:\n        /* \"contracts/database.sol\":1440:1453  string memory */\n      0x60\n        /* \"contracts/database.sol\":1518:1519  0 */\n      0x00\n        /* \"contracts/database.sol\":1478:1487  StudentDB */\n      0x07\n        /* \"contracts/database.sol\":1478:1493  StudentDB[_num] */\n      0x00\n        /* \"contracts/database.sol\":1488:1492  _num */\n      dup5\n        /* \"contracts/database.sol\":1478:1493  StudentDB[_num] */\n      dup2\n      mstore\n      0x20\n      add\n      swap1\n      dup2\n      mstore\n      0x20\n      add\n      0x00\n      keccak256\n        /* \"contracts/database.sol\":1478:1506  StudentDB[_num].student_name */\n      0x00\n      add\n        /* \"contracts/database.sol\":1472:1514  bytes(StudentDB[_num].student_name).length */\n      dup1\n      sload\n      tag_45\n      swap1\n      tag_39\n      jump\t// in\n    tag_45:\n      swap1\n      pop\n        /* \"contracts/database.sol\":1472:1519  bytes(StudentDB[_num].student_name).length != 0 */\n      eq\n      iszero\n        /* \"contracts/database.sol\":1464:1543  require(bytes(StudentDB[_num].student_name).length != 0, \"There is no student\") */\n      tag_46\n      jumpi\n      mload(0x40)\n      0x08c379a000000000000000000000000000000000000000000000000000000000\n      dup2\n      mstore\n      0x04\n      add\n      tag_47\n      swap1\n      tag_48\n      jump\t// in\n    tag_47:\n      mload(0x40)\n      dup1\n      swap2\n      sub\n      swap1\n      revert\n    tag_46:\n        /* \"contracts/database.sol\":1561:1570  StudentDB */\n      0x07\n        /* \"contracts/database.sol\":1561:1576  StudentDB[_num] */\n      0x00\n        /* \"contracts/database.sol\":1571:1575  _num */\n      dup4\n        /* \"contracts/database.sol\":1561:1576  StudentDB[_num] */\n      dup2\n      mstore\n      0x20\n      add\n      swap1\n      dup2\n      mstore\n      0x20\n      add\n      0x00\n      keccak256\n      0x00\n        /* \"contracts/database.sol\":1554:1576  delete StudentDB[_num] */\n      dup1\n      dup3\n      add\n      0x00\n      tag_49\n      swap2\n      swap1\n      tag_50\n      jump\t// in\n    tag_49:\n      0x01\n      dup3\n      add\n      exp(0x0100, 0x00)\n      dup2\n      sload\n      swap1\n      0xffffffffffffffffffffffffffffffffffffffff\n      mul\n      not\n      and\n      swap1\n      sstore\n      pop\n      pop\n        /* \"contracts/database.sol\":1587:1610  return \"Delete succece\" */\n      mload(0x40)\n      dup1\n      0x40\n      add\n      0x40\n      mstore\n      dup1\n      0x0e\n      dup2\n      mstore\n      0x20\n      add\n      0x44656c6574652073756363656365000000000000000000000000000000000000\n      dup2\n      mstore\n      pop\n      swap1\n      pop\n        /* \"contracts/database.sol\":1391:1617  function deleteStudent(uint _num) public returns(string memory){... */\n      swap2\n      swap1\n      pop\n      jump\t// out\n    tag_28:\n      mload(0x40)\n      dup1\n      0x05a0\n      add\n      0x40\n      mstore\n      dup1\n      0x2d\n      swap1\n      0x20\n      dup3\n      mul\n      dup1\n      calldatasize\n      dup4\n      calldatacopy\n      dup1\n      dup3\n      add\n      swap2\n      pop\n      pop\n      swap1\n      pop\n      pop\n      swap1\n      jump\t// out\n    tag_32:\n      dup3\n      dup1\n      sload\n      tag_51\n      swap1\n      tag_39\n      jump\t// in\n    tag_51:\n      swap1\n      0x00\n      mstore\n      keccak256(0x00, 0x20)\n      swap1\n      0x1f\n      add\n      0x20\n      swap1\n      div\n      dup2\n      add\n      swap3\n      dup3\n      tag_53\n      jumpi\n      0x00\n      dup6\n      sstore\n      jump(tag_52)\n    tag_53:\n      dup3\n      0x1f\n      lt\n      tag_54\n      jumpi\n      dup1\n      mload\n      not(0xff)\n      and\n      dup4\n      dup1\n      add\n      or\n      dup6\n      sstore\n      jump(tag_52)\n    tag_54:\n      dup3\n      dup1\n      add\n      0x01\n      add\n      dup6\n      sstore\n      dup3\n      iszero\n      tag_52\n      jumpi\n      swap2\n      dup3\n      add\n    tag_55:\n      dup3\n      dup2\n      gt\n      iszero\n      tag_56\n      jumpi\n      dup3\n      mload\n      dup3\n      sstore\n      swap2\n      0x20\n      add\n      swap2\n      swap1\n      0x01\n      add\n      swap1\n      jump(tag_55)\n    tag_56:\n    tag_52:\n      pop\n      swap1\n      pop\n      tag_57\n      swap2\n      swap1\n      tag_58\n      jump\t// in\n    tag_57:\n      pop\n      swap1\n      jump\t// out\n    tag_34:\n      dup3\n      0x2d\n      dup2\n      add\n      swap3\n      dup3\n      iszero\n      tag_59\n      jumpi\n      swap2\n      0x20\n      mul\n      dup3\n      add\n    tag_60:\n      dup3\n      dup2\n      gt\n      iszero\n      tag_61\n      jumpi\n      dup3\n      mload\n      dup3\n      sstore\n      swap2\n      0x20\n      add\n      swap2\n      swap1\n      0x01\n      add\n      swap1\n      jump(tag_60)\n    tag_61:\n    tag_59:\n      pop\n      swap1\n      pop\n      tag_62\n      swap2\n      swap1\n      tag_58\n      jump\t// in\n    tag_62:\n      pop\n      swap1\n      jump\t// out\n    tag_50:\n      pop\n      dup1\n      sload\n      tag_63\n      swap1\n      tag_39\n      jump\t// in\n    tag_63:\n      0x00\n      dup3\n      sstore\n      dup1\n      0x1f\n      lt\n      tag_65\n      jumpi\n      pop\n      jump(tag_64)\n    tag_65:\n      0x1f\n      add\n      0x20\n      swap1\n      div\n      swap1\n      0x00\n      mstore\n      keccak256(0x00, 0x20)\n      swap1\n      dup2\n      add\n      swap1\n      tag_66\n      swap2\n      swap1\n      tag_58\n      jump\t// in\n    tag_66:\n    tag_64:\n      pop\n      jump\t// out\n    tag_58:\n    tag_67:\n      dup1\n      dup3\n      gt\n      iszero\n      tag_68\n      jumpi\n      0x00\n      dup2\n      0x00\n      swap1\n      sstore\n      pop\n      0x01\n      add\n      jump(tag_67)\n    tag_68:\n      pop\n      swap1\n      jump\t// out\n        /* \"#utility.yul\":7:419   */\n    tag_70:\n        /* \"#utility.yul\":85:90   */\n      0x00\n        /* \"#utility.yul\":110:176   */\n      tag_72\n        /* \"#utility.yul\":126:175   */\n      tag_73\n        /* \"#utility.yul\":168:174   */\n      dup5\n        /* \"#utility.yul\":126:175   */\n      tag_74\n      jump\t// in\n    tag_73:\n        /* \"#utility.yul\":110:176   */\n      tag_75\n      jump\t// in\n    tag_72:\n        /* \"#utility.yul\":101:176   */\n      swap1\n      pop\n        /* \"#utility.yul\":199:205   */\n      dup3\n        /* \"#utility.yul\":192:197   */\n      dup2\n        /* \"#utility.yul\":185:206   */\n      mstore\n        /* \"#utility.yul\":237:241   */\n      0x20\n        /* \"#utility.yul\":230:235   */\n      dup2\n        /* \"#utility.yul\":226:242   */\n      add\n        /* \"#utility.yul\":275:278   */\n      dup5\n        /* \"#utility.yul\":266:272   */\n      dup5\n        /* \"#utility.yul\":261:264   */\n      dup5\n        /* \"#utility.yul\":257:273   */\n      add\n        /* \"#utility.yul\":254:279   */\n      gt\n        /* \"#utility.yul\":251:363   */\n      iszero\n      tag_76\n      jumpi\n        /* \"#utility.yul\":282:361   */\n      tag_77\n      tag_78\n      jump\t// in\n    tag_77:\n        /* \"#utility.yul\":251:363   */\n    tag_76:\n        /* \"#utility.yul\":372:413   */\n      tag_79\n        /* \"#utility.yul\":406:412   */\n      dup5\n        /* \"#utility.yul\":401:404   */\n      dup3\n        /* \"#utility.yul\":396:399   */\n      dup6\n        /* \"#utility.yul\":372:413   */\n      tag_80\n      jump\t// in\n    tag_79:\n        /* \"#utility.yul\":91:419   */\n      pop\n        /* \"#utility.yul\":7:419   */\n      swap4\n      swap3\n      pop\n      pop\n      pop\n      jump\t// out\n        /* \"#utility.yul\":425:564   */\n    tag_81:\n        /* \"#utility.yul\":471:476   */\n      0x00\n        /* \"#utility.yul\":509:515   */\n      dup2\n        /* \"#utility.yul\":496:516   */\n      calldataload\n        /* \"#utility.yul\":487:516   */\n      swap1\n      pop\n        /* \"#utility.yul\":525:558   */\n      tag_83\n        /* \"#utility.yul\":552:557   */\n      dup2\n        /* \"#utility.yul\":525:558   */\n      tag_84\n      jump\t// in\n    tag_83:\n        /* \"#utility.yul\":425:564   */\n      swap3\n      swap2\n      pop\n      pop\n      jump\t// out\n        /* \"#utility.yul\":584:924   */\n    tag_85:\n        /* \"#utility.yul\":640:645   */\n      0x00\n        /* \"#utility.yul\":689:692   */\n      dup3\n        /* \"#utility.yul\":682:686   */\n      0x1f\n        /* \"#utility.yul\":674:680   */\n      dup4\n        /* \"#utility.yul\":670:687   */\n      add\n        /* \"#utility.yul\":666:693   */\n      slt\n        /* \"#utility.yul\":656:778   */\n      tag_87\n      jumpi\n        /* \"#utility.yul\":697:776   */\n      tag_88\n      tag_89\n      jump\t// in\n    tag_88:\n        /* \"#utility.yul\":656:778   */\n    tag_87:\n        /* \"#utility.yul\":814:820   */\n      dup2\n        /* \"#utility.yul\":801:821   */\n      calldataload\n        /* \"#utility.yul\":839:918   */\n      tag_90\n        /* \"#utility.yul\":914:917   */\n      dup5\n        /* \"#utility.yul\":906:912   */\n      dup3\n        /* \"#utility.yul\":899:903   */\n      0x20\n        /* \"#utility.yul\":891:897   */\n      dup7\n        /* \"#utility.yul\":887:904   */\n      add\n        /* \"#utility.yul\":839:918   */\n      tag_70\n      jump\t// in\n    tag_90:\n        /* \"#utility.yul\":830:918   */\n      swap2\n      pop\n        /* \"#utility.yul\":646:924   */\n      pop\n        /* \"#utility.yul\":584:924   */\n      swap3\n      swap2\n      pop\n      pop\n      jump\t// out\n        /* \"#utility.yul\":930:1069   */\n    tag_91:\n        /* \"#utility.yul\":976:981   */\n      0x00\n        /* \"#utility.yul\":1014:1020   */\n      dup2\n        /* \"#utility.yul\":1001:1021   */\n      calldataload\n        /* \"#utility.yul\":992:1021   */\n      swap1\n      pop\n        /* \"#utility.yul\":1030:1063   */\n      tag_93\n        /* \"#utility.yul\":1057:1062   */\n      dup2\n        /* \"#utility.yul\":1030:1063   */\n      tag_94\n      jump\t// in\n    tag_93:\n        /* \"#utility.yul\":930:1069   */\n      swap3\n      swap2\n      pop\n      pop\n      jump\t// out\n        /* \"#utility.yul\":1075:2200   */\n    tag_9:\n        /* \"#utility.yul\":1181:1187   */\n      0x00\n        /* \"#utility.yul\":1189:1195   */\n      dup1\n        /* \"#utility.yul\":1197:1203   */\n      0x00\n        /* \"#utility.yul\":1205:1211   */\n      dup1\n        /* \"#utility.yul\":1254:1257   */\n      0x80\n        /* \"#utility.yul\":1242:1251   */\n      dup6\n        /* \"#utility.yul\":1233:1240   */\n      dup8\n        /* \"#utility.yul\":1229:1252   */\n      sub\n        /* \"#utility.yul\":1225:1258   */\n      slt\n        /* \"#utility.yul\":1222:1342   */\n      iszero\n      tag_96\n      jumpi\n        /* \"#utility.yul\":1261:1340   */\n      tag_97\n      tag_98\n      jump\t// in\n    tag_97:\n        /* \"#utility.yul\":1222:1342   */\n    tag_96:\n        /* \"#utility.yul\":1381:1382   */\n      0x00\n        /* \"#utility.yul\":1406:1459   */\n      tag_99\n        /* \"#utility.yul\":1451:1458   */\n      dup8\n        /* \"#utility.yul\":1442:1448   */\n      dup3\n        /* \"#utility.yul\":1431:1440   */\n      dup9\n        /* \"#utility.yul\":1427:1449   */\n      add\n        /* \"#utility.yul\":1406:1459   */\n      tag_81\n      jump\t// in\n    tag_99:\n        /* \"#utility.yul\":1396:1459   */\n      swap5\n      pop\n        /* \"#utility.yul\":1352:1469   */\n      pop\n        /* \"#utility.yul\":1536:1538   */\n      0x20\n        /* \"#utility.yul\":1525:1534   */\n      dup6\n        /* \"#utility.yul\":1521:1539   */\n      add\n        /* \"#utility.yul\":1508:1540   */\n      calldataload\n        /* \"#utility.yul\":1567:1585   */\n      0xffffffffffffffff\n        /* \"#utility.yul\":1559:1565   */\n      dup2\n        /* \"#utility.yul\":1556:1586   */\n      gt\n        /* \"#utility.yul\":1553:1670   */\n      iszero\n      tag_100\n      jumpi\n        /* \"#utility.yul\":1589:1668   */\n      tag_101\n      tag_102\n      jump\t// in\n    tag_101:\n        /* \"#utility.yul\":1553:1670   */\n    tag_100:\n        /* \"#utility.yul\":1694:1757   */\n      tag_103\n        /* \"#utility.yul\":1749:1756   */\n      dup8\n        /* \"#utility.yul\":1740:1746   */\n      dup3\n        /* \"#utility.yul\":1729:1738   */\n      dup9\n        /* \"#utility.yul\":1725:1747   */\n      add\n        /* \"#utility.yul\":1694:1757   */\n      tag_85\n      jump\t// in\n    tag_103:\n        /* \"#utility.yul\":1684:1757   */\n      swap4\n      pop\n        /* \"#utility.yul\":1479:1767   */\n      pop\n        /* \"#utility.yul\":1806:1808   */\n      0x40\n        /* \"#utility.yul\":1832:1885   */\n      tag_104\n        /* \"#utility.yul\":1877:1884   */\n      dup8\n        /* \"#utility.yul\":1868:1874   */\n      dup3\n        /* \"#utility.yul\":1857:1866   */\n      dup9\n        /* \"#utility.yul\":1853:1875   */\n      add\n        /* \"#utility.yul\":1832:1885   */\n      tag_91\n      jump\t// in\n    tag_104:\n        /* \"#utility.yul\":1822:1885   */\n      swap3\n      pop\n        /* \"#utility.yul\":1777:1895   */\n      pop\n        /* \"#utility.yul\":1962:1964   */\n      0x60\n        /* \"#utility.yul\":1951:1960   */\n      dup6\n        /* \"#utility.yul\":1947:1965   */\n      add\n        /* \"#utility.yul\":1934:1966   */\n      calldataload\n        /* \"#utility.yul\":1993:2011   */\n      0xffffffffffffffff\n        /* \"#utility.yul\":1985:1991   */\n      dup2\n        /* \"#utility.yul\":1982:2012   */\n      gt\n        /* \"#utility.yul\":1979:2096   */\n      iszero\n      tag_105\n      jumpi\n        /* \"#utility.yul\":2015:2094   */\n      tag_106\n      tag_102\n      jump\t// in\n    tag_106:\n        /* \"#utility.yul\":1979:2096   */\n    tag_105:\n        /* \"#utility.yul\":2120:2183   */\n      tag_107\n        /* \"#utility.yul\":2175:2182   */\n      dup8\n        /* \"#utility.yul\":2166:2172   */\n      dup3\n        /* \"#utility.yul\":2155:2164   */\n      dup9\n        /* \"#utility.yul\":2151:2173   */\n      add\n        /* \"#utility.yul\":2120:2183   */\n      tag_85\n      jump\t// in\n    tag_107:\n        /* \"#utility.yul\":2110:2183   */\n      swap2\n      pop\n        /* \"#utility.yul\":1905:2193   */\n      pop\n        /* \"#utility.yul\":1075:2200   */\n      swap3\n      swap6\n      swap2\n      swap5\n      pop\n      swap3\n      pop\n      jump\t// out\n        /* \"#utility.yul\":2206:2860   */\n    tag_13:\n        /* \"#utility.yul\":2284:2290   */\n      0x00\n        /* \"#utility.yul\":2292:2298   */\n      dup1\n        /* \"#utility.yul\":2341:2343   */\n      0x40\n        /* \"#utility.yul\":2329:2338   */\n      dup4\n        /* \"#utility.yul\":2320:2327   */\n      dup6\n        /* \"#utility.yul\":2316:2339   */\n      sub\n        /* \"#utility.yul\":2312:2344   */\n      slt\n        /* \"#utility.yul\":2309:2428   */\n      iszero\n      tag_109\n      jumpi\n        /* \"#utility.yul\":2347:2426   */\n      tag_110\n      tag_98\n      jump\t// in\n    tag_110:\n        /* \"#utility.yul\":2309:2428   */\n    tag_109:\n        /* \"#utility.yul\":2495:2496   */\n      0x00\n        /* \"#utility.yul\":2484:2493   */\n      dup4\n        /* \"#utility.yul\":2480:2497   */\n      add\n        /* \"#utility.yul\":2467:2498   */\n      calldataload\n        /* \"#utility.yul\":2525:2543   */\n      0xffffffffffffffff\n        /* \"#utility.yul\":2517:2523   */\n      dup2\n        /* \"#utility.yul\":2514:2544   */\n      gt\n        /* \"#utility.yul\":2511:2628   */\n      iszero\n      tag_111\n      jumpi\n        /* \"#utility.yul\":2547:2626   */\n      tag_112\n      tag_102\n      jump\t// in\n    tag_112:\n        /* \"#utility.yul\":2511:2628   */\n    tag_111:\n        /* \"#utility.yul\":2652:2715   */\n      tag_113\n        /* \"#utility.yul\":2707:2714   */\n      dup6\n        /* \"#utility.yul\":2698:2704   */\n      dup3\n        /* \"#utility.yul\":2687:2696   */\n      dup7\n        /* \"#utility.yul\":2683:2705   */\n      add\n        /* \"#utility.yul\":2652:2715   */\n      tag_85\n      jump\t// in\n    tag_113:\n        /* \"#utility.yul\":2642:2715   */\n      swap3\n      pop\n        /* \"#utility.yul\":2438:2725   */\n      pop\n        /* \"#utility.yul\":2764:2766   */\n      0x20\n        /* \"#utility.yul\":2790:2843   */\n      tag_114\n        /* \"#utility.yul\":2835:2842   */\n      dup6\n        /* \"#utility.yul\":2826:2832   */\n      dup3\n        /* \"#utility.yul\":2815:2824   */\n      dup7\n        /* \"#utility.yul\":2811:2833   */\n      add\n        /* \"#utility.yul\":2790:2843   */\n      tag_91\n      jump\t// in\n    tag_114:\n        /* \"#utility.yul\":2780:2843   */\n      swap2\n      pop\n        /* \"#utility.yul\":2735:2853   */\n      pop\n        /* \"#utility.yul\":2206:2860   */\n      swap3\n      pop\n      swap3\n      swap1\n      pop\n      jump\t// out\n        /* \"#utility.yul\":2866:3195   */\n    tag_17:\n        /* \"#utility.yul\":2925:2931   */\n      0x00\n        /* \"#utility.yul\":2974:2976   */\n      0x20\n        /* \"#utility.yul\":2962:2971   */\n      dup3\n        /* \"#utility.yul\":2953:2960   */\n      dup5\n        /* \"#utility.yul\":2949:2972   */\n      sub\n        /* \"#utility.yul\":2945:2977   */\n      slt\n        /* \"#utility.yul\":2942:3061   */\n      iszero\n      tag_116\n      jumpi\n        /* \"#utility.yul\":2980:3059   */\n      tag_117\n      tag_98\n      jump\t// in\n    tag_117:\n        /* \"#utility.yul\":2942:3061   */\n    tag_116:\n        /* \"#utility.yul\":3100:3101   */\n      0x00\n        /* \"#utility.yul\":3125:3178   */\n      tag_118\n        /* \"#utility.yul\":3170:3177   */\n      dup5\n        /* \"#utility.yul\":3161:3167   */\n      dup3\n        /* \"#utility.yul\":3150:3159   */\n      dup6\n        /* \"#utility.yul\":3146:3168   */\n      add\n        /* \"#utility.yul\":3125:3178   */\n      tag_91\n      jump\t// in\n    tag_118:\n        /* \"#utility.yul\":3115:3178   */\n      swap2\n      pop\n        /* \"#utility.yul\":3071:3188   */\n      pop\n        /* \"#utility.yul\":2866:3195   */\n      swap3\n      swap2\n      pop\n      pop\n      jump\t// out\n        /* \"#utility.yul\":3201:3319   */\n    tag_119:\n        /* \"#utility.yul\":3288:3312   */\n      tag_121\n        /* \"#utility.yul\":3306:3311   */\n      dup2\n        /* \"#utility.yul\":3288:3312   */\n      tag_122\n      jump\t// in\n    tag_121:\n        /* \"#utility.yul\":3283:3286   */\n      dup3\n        /* \"#utility.yul\":3276:3313   */\n      mstore\n        /* \"#utility.yul\":3201:3319   */\n      pop\n      pop\n      jump\t// out\n        /* \"#utility.yul\":3325:3689   */\n    tag_123:\n        /* \"#utility.yul\":3413:3416   */\n      0x00\n        /* \"#utility.yul\":3441:3480   */\n      tag_125\n        /* \"#utility.yul\":3474:3479   */\n      dup3\n        /* \"#utility.yul\":3441:3480   */\n      tag_126\n      jump\t// in\n    tag_125:\n        /* \"#utility.yul\":3496:3567   */\n      tag_127\n        /* \"#utility.yul\":3560:3566   */\n      dup2\n        /* \"#utility.yul\":3555:3558   */\n      dup6\n        /* \"#utility.yul\":3496:3567   */\n      tag_128\n      jump\t// in\n    tag_127:\n        /* \"#utility.yul\":3489:3567   */\n      swap4\n      pop\n        /* \"#utility.yul\":3576:3628   */\n      tag_129\n        /* \"#utility.yul\":3621:3627   */\n      dup2\n        /* \"#utility.yul\":3616:3619   */\n      dup6\n        /* \"#utility.yul\":3609:3613   */\n      0x20\n        /* \"#utility.yul\":3602:3607   */\n      dup7\n        /* \"#utility.yul\":3598:3614   */\n      add\n        /* \"#utility.yul\":3576:3628   */\n      tag_130\n      jump\t// in\n    tag_129:\n        /* \"#utility.yul\":3653:3682   */\n      tag_131\n        /* \"#utility.yul\":3675:3681   */\n      dup2\n        /* \"#utility.yul\":3653:3682   */\n      tag_132\n      jump\t// in\n    tag_131:\n        /* \"#utility.yul\":3648:3651   */\n      dup5\n        /* \"#utility.yul\":3644:3683   */\n      add\n        /* \"#utility.yul\":3637:3683   */\n      swap2\n      pop\n        /* \"#utility.yul\":3417:3689   */\n      pop\n        /* \"#utility.yul\":3325:3689   */\n      swap3\n      swap2\n      pop\n      pop\n      jump\t// out\n        /* \"#utility.yul\":3695:4072   */\n    tag_133:\n        /* \"#utility.yul\":3801:3804   */\n      0x00\n        /* \"#utility.yul\":3829:3868   */\n      tag_135\n        /* \"#utility.yul\":3862:3867   */\n      dup3\n        /* \"#utility.yul\":3829:3868   */\n      tag_126\n      jump\t// in\n    tag_135:\n        /* \"#utility.yul\":3884:3973   */\n      tag_136\n        /* \"#utility.yul\":3966:3972   */\n      dup2\n        /* \"#utility.yul\":3961:3964   */\n      dup6\n        /* \"#utility.yul\":3884:3973   */\n      tag_137\n      jump\t// in\n    tag_136:\n        /* \"#utility.yul\":3877:3973   */\n      swap4\n      pop\n        /* \"#utility.yul\":3982:4034   */\n      tag_138\n        /* \"#utility.yul\":4027:4033   */\n      dup2\n        /* \"#utility.yul\":4022:4025   */\n      dup6\n        /* \"#utility.yul\":4015:4019   */\n      0x20\n        /* \"#utility.yul\":4008:4013   */\n      dup7\n        /* \"#utility.yul\":4004:4020   */\n      add\n        /* \"#utility.yul\":3982:4034   */\n      tag_130\n      jump\t// in\n    tag_138:\n        /* \"#utility.yul\":4059:4065   */\n      dup1\n        /* \"#utility.yul\":4054:4057   */\n      dup5\n        /* \"#utility.yul\":4050:4066   */\n      add\n        /* \"#utility.yul\":4043:4066   */\n      swap2\n      pop\n        /* \"#utility.yul\":3805:4072   */\n      pop\n        /* \"#utility.yul\":3695:4072   */\n      swap3\n      swap2\n      pop\n      pop\n      jump\t// out\n        /* \"#utility.yul\":4078:4444   */\n    tag_139:\n        /* \"#utility.yul\":4220:4223   */\n      0x00\n        /* \"#utility.yul\":4241:4308   */\n      tag_141\n        /* \"#utility.yul\":4305:4307   */\n      0x13\n        /* \"#utility.yul\":4300:4303   */\n      dup4\n        /* \"#utility.yul\":4241:4308   */\n      tag_128\n      jump\t// in\n    tag_141:\n        /* \"#utility.yul\":4234:4308   */\n      swap2\n      pop\n        /* \"#utility.yul\":4317:4410   */\n      tag_142\n        /* \"#utility.yul\":4406:4409   */\n      dup3\n        /* \"#utility.yul\":4317:4410   */\n      tag_143\n      jump\t// in\n    tag_142:\n        /* \"#utility.yul\":4435:4437   */\n      0x20\n        /* \"#utility.yul\":4430:4433   */\n      dup3\n        /* \"#utility.yul\":4426:4438   */\n      add\n        /* \"#utility.yul\":4419:4438   */\n      swap1\n      pop\n        /* \"#utility.yul\":4078:4444   */\n      swap2\n      swap1\n      pop\n      jump\t// out\n        /* \"#utility.yul\":4450:4725   */\n    tag_30:\n        /* \"#utility.yul\":4582:4585   */\n      0x00\n        /* \"#utility.yul\":4604:4699   */\n      tag_145\n        /* \"#utility.yul\":4695:4698   */\n      dup3\n        /* \"#utility.yul\":4686:4692   */\n      dup5\n        /* \"#utility.yul\":4604:4699   */\n      tag_133\n      jump\t// in\n    tag_145:\n        /* \"#utility.yul\":4597:4699   */\n      swap2\n      pop\n        /* \"#utility.yul\":4716:4719   */\n      dup2\n        /* \"#utility.yul\":4709:4719   */\n      swap1\n      pop\n        /* \"#utility.yul\":4450:4725   */\n      swap3\n      swap2\n      pop\n      pop\n      jump\t// out\n        /* \"#utility.yul\":4731:5044   */\n    tag_25:\n        /* \"#utility.yul\":4844:4848   */\n      0x00\n        /* \"#utility.yul\":4882:4884   */\n      0x20\n        /* \"#utility.yul\":4871:4880   */\n      dup3\n        /* \"#utility.yul\":4867:4885   */\n      add\n        /* \"#utility.yul\":4859:4885   */\n      swap1\n      pop\n        /* \"#utility.yul\":4931:4940   */\n      dup2\n        /* \"#utility.yul\":4925:4929   */\n      dup2\n        /* \"#utility.yul\":4921:4941   */\n      sub\n        /* \"#utility.yul\":4917:4918   */\n      0x00\n        /* \"#utility.yul\":4906:4915   */\n      dup4\n        /* \"#utility.yul\":4902:4919   */\n      add\n        /* \"#utility.yul\":4895:4942   */\n      mstore\n        /* \"#utility.yul\":4959:5037   */\n      tag_147\n        /* \"#utility.yul\":5032:5036   */\n      dup2\n        /* \"#utility.yul\":5023:5029   */\n      dup5\n        /* \"#utility.yul\":4959:5037   */\n      tag_123\n      jump\t// in\n    tag_147:\n        /* \"#utility.yul\":4951:5037   */\n      swap1\n      pop\n        /* \"#utility.yul\":4731:5044   */\n      swap3\n      swap2\n      pop\n      pop\n      jump\t// out\n        /* \"#utility.yul\":5050:5473   */\n    tag_20:\n        /* \"#utility.yul\":5191:5195   */\n      0x00\n        /* \"#utility.yul\":5229:5231   */\n      0x40\n        /* \"#utility.yul\":5218:5227   */\n      dup3\n        /* \"#utility.yul\":5214:5232   */\n      add\n        /* \"#utility.yul\":5206:5232   */\n      swap1\n      pop\n        /* \"#utility.yul\":5278:5287   */\n      dup2\n        /* \"#utility.yul\":5272:5276   */\n      dup2\n        /* \"#utility.yul\":5268:5288   */\n      sub\n        /* \"#utility.yul\":5264:5265   */\n      0x00\n        /* \"#utility.yul\":5253:5262   */\n      dup4\n        /* \"#utility.yul\":5249:5266   */\n      add\n        /* \"#utility.yul\":5242:5289   */\n      mstore\n        /* \"#utility.yul\":5306:5384   */\n      tag_149\n        /* \"#utility.yul\":5379:5383   */\n      dup2\n        /* \"#utility.yul\":5370:5376   */\n      dup6\n        /* \"#utility.yul\":5306:5384   */\n      tag_123\n      jump\t// in\n    tag_149:\n        /* \"#utility.yul\":5298:5384   */\n      swap1\n      pop\n        /* \"#utility.yul\":5394:5466   */\n      tag_150\n        /* \"#utility.yul\":5462:5464   */\n      0x20\n        /* \"#utility.yul\":5451:5460   */\n      dup4\n        /* \"#utility.yul\":5447:5465   */\n      add\n        /* \"#utility.yul\":5438:5444   */\n      dup5\n        /* \"#utility.yul\":5394:5466   */\n      tag_119\n      jump\t// in\n    tag_150:\n        /* \"#utility.yul\":5050:5473   */\n      swap4\n      swap3\n      pop\n      pop\n      pop\n      jump\t// out\n        /* \"#utility.yul\":5479:5898   */\n    tag_48:\n        /* \"#utility.yul\":5645:5649   */\n      0x00\n        /* \"#utility.yul\":5683:5685   */\n      0x20\n        /* \"#utility.yul\":5672:5681   */\n      dup3\n        /* \"#utility.yul\":5668:5686   */\n      add\n        /* \"#utility.yul\":5660:5686   */\n      swap1\n      pop\n        /* \"#utility.yul\":5732:5741   */\n      dup2\n        /* \"#utility.yul\":5726:5730   */\n      dup2\n        /* \"#utility.yul\":5722:5742   */\n      sub\n        /* \"#utility.yul\":5718:5719   */\n      0x00\n        /* \"#utility.yul\":5707:5716   */\n      dup4\n        /* \"#utility.yul\":5703:5720   */\n      add\n        /* \"#utility.yul\":5696:5743   */\n      mstore\n        /* \"#utility.yul\":5760:5891   */\n      tag_152\n        /* \"#utility.yul\":5886:5890   */\n      dup2\n        /* \"#utility.yul\":5760:5891   */\n      tag_139\n      jump\t// in\n    tag_152:\n        /* \"#utility.yul\":5752:5891   */\n      swap1\n      pop\n        /* \"#utility.yul\":5479:5898   */\n      swap2\n      swap1\n      pop\n      jump\t// out\n        /* \"#utility.yul\":5904:6033   */\n    tag_75:\n        /* \"#utility.yul\":5938:5944   */\n      0x00\n        /* \"#utility.yul\":5965:5985   */\n      tag_154\n      tag_155\n      jump\t// in\n    tag_154:\n        /* \"#utility.yul\":5955:5985   */\n      swap1\n      pop\n        /* \"#utility.yul\":5994:6027   */\n      tag_156\n        /* \"#utility.yul\":6022:6026   */\n      dup3\n        /* \"#utility.yul\":6014:6020   */\n      dup3\n        /* \"#utility.yul\":5994:6027   */\n      tag_157\n      jump\t// in\n    tag_156:\n        /* \"#utility.yul\":5904:6033   */\n      swap2\n      swap1\n      pop\n      jump\t// out\n        /* \"#utility.yul\":6039:6114   */\n    tag_155:\n        /* \"#utility.yul\":6072:6078   */\n      0x00\n        /* \"#utility.yul\":6105:6107   */\n      0x40\n        /* \"#utility.yul\":6099:6108   */\n      mload\n        /* \"#utility.yul\":6089:6108   */\n      swap1\n      pop\n        /* \"#utility.yul\":6039:6114   */\n      swap1\n      jump\t// out\n        /* \"#utility.yul\":6120:6428   */\n    tag_74:\n        /* \"#utility.yul\":6182:6186   */\n      0x00\n        /* \"#utility.yul\":6272:6290   */\n      0xffffffffffffffff\n        /* \"#utility.yul\":6264:6270   */\n      dup3\n        /* \"#utility.yul\":6261:6291   */\n      gt\n        /* \"#utility.yul\":6258:6314   */\n      iszero\n      tag_160\n      jumpi\n        /* \"#utility.yul\":6294:6312   */\n      tag_161\n      tag_162\n      jump\t// in\n    tag_161:\n        /* \"#utility.yul\":6258:6314   */\n    tag_160:\n        /* \"#utility.yul\":6332:6361   */\n      tag_163\n        /* \"#utility.yul\":6354:6360   */\n      dup3\n        /* \"#utility.yul\":6332:6361   */\n      tag_132\n      jump\t// in\n    tag_163:\n        /* \"#utility.yul\":6324:6361   */\n      swap1\n      pop\n        /* \"#utility.yul\":6416:6420   */\n      0x20\n        /* \"#utility.yul\":6410:6414   */\n      dup2\n        /* \"#utility.yul\":6406:6421   */\n      add\n        /* \"#utility.yul\":6398:6421   */\n      swap1\n      pop\n        /* \"#utility.yul\":6120:6428   */\n      swap2\n      swap1\n      pop\n      jump\t// out\n        /* \"#utility.yul\":6434:6533   */\n    tag_126:\n        /* \"#utility.yul\":6486:6492   */\n      0x00\n        /* \"#utility.yul\":6520:6525   */\n      dup2\n        /* \"#utility.yul\":6514:6526   */\n      mload\n        /* \"#utility.yul\":6504:6526   */\n      swap1\n      pop\n        /* \"#utility.yul\":6434:6533   */\n      swap2\n      swap1\n      pop\n      jump\t// out\n        /* \"#utility.yul\":6539:6708   */\n    tag_128:\n        /* \"#utility.yul\":6623:6634   */\n      0x00\n        /* \"#utility.yul\":6657:6663   */\n      dup3\n        /* \"#utility.yul\":6652:6655   */\n      dup3\n        /* \"#utility.yul\":6645:6664   */\n      mstore\n        /* \"#utility.yul\":6697:6701   */\n      0x20\n        /* \"#utility.yul\":6692:6695   */\n      dup3\n        /* \"#utility.yul\":6688:6702   */\n      add\n        /* \"#utility.yul\":6673:6702   */\n      swap1\n      pop\n        /* \"#utility.yul\":6539:6708   */\n      swap3\n      swap2\n      pop\n      pop\n      jump\t// out\n        /* \"#utility.yul\":6714:6862   */\n    tag_137:\n        /* \"#utility.yul\":6816:6827   */\n      0x00\n        /* \"#utility.yul\":6853:6856   */\n      dup2\n        /* \"#utility.yul\":6838:6856   */\n      swap1\n      pop\n        /* \"#utility.yul\":6714:6862   */\n      swap3\n      swap2\n      pop\n      pop\n      jump\t// out\n        /* \"#utility.yul\":6868:6964   */\n    tag_122:\n        /* \"#utility.yul\":6905:6912   */\n      0x00\n        /* \"#utility.yul\":6934:6958   */\n      tag_168\n        /* \"#utility.yul\":6952:6957   */\n      dup3\n        /* \"#utility.yul\":6934:6958   */\n      tag_169\n      jump\t// in\n    tag_168:\n        /* \"#utility.yul\":6923:6958   */\n      swap1\n      pop\n        /* \"#utility.yul\":6868:6964   */\n      swap2\n      swap1\n      pop\n      jump\t// out\n        /* \"#utility.yul\":6970:7096   */\n    tag_169:\n        /* \"#utility.yul\":7007:7014   */\n      0x00\n        /* \"#utility.yul\":7047:7089   */\n      0xffffffffffffffffffffffffffffffffffffffff\n        /* \"#utility.yul\":7040:7045   */\n      dup3\n        /* \"#utility.yul\":7036:7090   */\n      and\n        /* \"#utility.yul\":7025:7090   */\n      swap1\n      pop\n        /* \"#utility.yul\":6970:7096   */\n      swap2\n      swap1\n      pop\n      jump\t// out\n        /* \"#utility.yul\":7102:7179   */\n    tag_171:\n        /* \"#utility.yul\":7139:7146   */\n      0x00\n        /* \"#utility.yul\":7168:7173   */\n      dup2\n        /* \"#utility.yul\":7157:7173   */\n      swap1\n      pop\n        /* \"#utility.yul\":7102:7179   */\n      swap2\n      swap1\n      pop\n      jump\t// out\n        /* \"#utility.yul\":7185:7339   */\n    tag_80:\n        /* \"#utility.yul\":7269:7275   */\n      dup3\n        /* \"#utility.yul\":7264:7267   */\n      dup2\n        /* \"#utility.yul\":7259:7262   */\n      dup4\n        /* \"#utility.yul\":7246:7276   */\n      calldatacopy\n        /* \"#utility.yul\":7331:7332   */\n      0x00\n        /* \"#utility.yul\":7322:7328   */\n      dup4\n        /* \"#utility.yul\":7317:7320   */\n      dup4\n        /* \"#utility.yul\":7313:7329   */\n      add\n        /* \"#utility.yul\":7306:7333   */\n      mstore\n        /* \"#utility.yul\":7185:7339   */\n      pop\n      pop\n      pop\n      jump\t// out\n        /* \"#utility.yul\":7345:7652   */\n    tag_130:\n        /* \"#utility.yul\":7413:7414   */\n      0x00\n        /* \"#utility.yul\":7423:7536   */\n    tag_175:\n        /* \"#utility.yul\":7437:7443   */\n      dup4\n        /* \"#utility.yul\":7434:7435   */\n      dup2\n        /* \"#utility.yul\":7431:7444   */\n      lt\n        /* \"#utility.yul\":7423:7536   */\n      iszero\n      tag_177\n      jumpi\n        /* \"#utility.yul\":7522:7523   */\n      dup1\n        /* \"#utility.yul\":7517:7520   */\n      dup3\n        /* \"#utility.yul\":7513:7524   */\n      add\n        /* \"#utility.yul\":7507:7525   */\n      mload\n        /* \"#utility.yul\":7503:7504   */\n      dup2\n        /* \"#utility.yul\":7498:7501   */\n      dup5\n        /* \"#utility.yul\":7494:7505   */\n      add\n        /* \"#utility.yul\":7487:7526   */\n      mstore\n        /* \"#utility.yul\":7459:7461   */\n      0x20\n        /* \"#utility.yul\":7456:7457   */\n      dup2\n        /* \"#utility.yul\":7452:7462   */\n      add\n        /* \"#utility.yul\":7447:7462   */\n      swap1\n      pop\n        /* \"#utility.yul\":7423:7536   */\n      jump(tag_175)\n    tag_177:\n        /* \"#utility.yul\":7554:7560   */\n      dup4\n        /* \"#utility.yul\":7551:7552   */\n      dup2\n        /* \"#utility.yul\":7548:7561   */\n      gt\n        /* \"#utility.yul\":7545:7646   */\n      iszero\n      tag_178\n      jumpi\n        /* \"#utility.yul\":7634:7635   */\n      0x00\n        /* \"#utility.yul\":7625:7631   */\n      dup5\n        /* \"#utility.yul\":7620:7623   */\n      dup5\n        /* \"#utility.yul\":7616:7632   */\n      add\n        /* \"#utility.yul\":7609:7636   */\n      mstore\n        /* \"#utility.yul\":7545:7646   */\n    tag_178:\n        /* \"#utility.yul\":7394:7652   */\n      pop\n        /* \"#utility.yul\":7345:7652   */\n      pop\n      pop\n      pop\n      jump\t// out\n        /* \"#utility.yul\":7658:7978   */\n    tag_39:\n        /* \"#utility.yul\":7702:7708   */\n      0x00\n        /* \"#utility.yul\":7739:7740   */\n      0x02\n        /* \"#utility.yul\":7733:7737   */\n      dup3\n        /* \"#utility.yul\":7729:7741   */\n      div\n        /* \"#utility.yul\":7719:7741   */\n      swap1\n      pop\n        /* \"#utility.yul\":7786:7787   */\n      0x01\n        /* \"#utility.yul\":7780:7784   */\n      dup3\n        /* \"#utility.yul\":7776:7788   */\n      and\n        /* \"#utility.yul\":7807:7825   */\n      dup1\n        /* \"#utility.yul\":7797:7878   */\n      tag_180\n      jumpi\n        /* \"#utility.yul\":7863:7867   */\n      0x7f\n        /* \"#utility.yul\":7855:7861   */\n      dup3\n        /* \"#utility.yul\":7851:7868   */\n      and\n        /* \"#utility.yul\":7841:7868   */\n      swap2\n      pop\n        /* \"#utility.yul\":7797:7878   */\n    tag_180:\n        /* \"#utility.yul\":7925:7927   */\n      0x20\n        /* \"#utility.yul\":7917:7923   */\n      dup3\n        /* \"#utility.yul\":7914:7928   */\n      lt\n        /* \"#utility.yul\":7894:7912   */\n      dup2\n        /* \"#utility.yul\":7891:7929   */\n      eq\n        /* \"#utility.yul\":7888:7972   */\n      iszero\n      tag_181\n      jumpi\n        /* \"#utility.yul\":7944:7962   */\n      tag_182\n      tag_183\n      jump\t// in\n    tag_182:\n        /* \"#utility.yul\":7888:7972   */\n    tag_181:\n        /* \"#utility.yul\":7709:7978   */\n      pop\n        /* \"#utility.yul\":7658:7978   */\n      swap2\n      swap1\n      pop\n      jump\t// out\n        /* \"#utility.yul\":7984:8265   */\n    tag_157:\n        /* \"#utility.yul\":8067:8094   */\n      tag_185\n        /* \"#utility.yul\":8089:8093   */\n      dup3\n        /* \"#utility.yul\":8067:8094   */\n      tag_132\n      jump\t// in\n    tag_185:\n        /* \"#utility.yul\":8059:8065   */\n      dup2\n        /* \"#utility.yul\":8055:8095   */\n      add\n        /* \"#utility.yul\":8197:8203   */\n      dup2\n        /* \"#utility.yul\":8185:8195   */\n      dup2\n        /* \"#utility.yul\":8182:8204   */\n      lt\n        /* \"#utility.yul\":8161:8179   */\n      0xffffffffffffffff\n        /* \"#utility.yul\":8149:8159   */\n      dup3\n        /* \"#utility.yul\":8146:8180   */\n      gt\n        /* \"#utility.yul\":8143:8205   */\n      or\n        /* \"#utility.yul\":8140:8228   */\n      iszero\n      tag_186\n      jumpi\n        /* \"#utility.yul\":8208:8226   */\n      tag_187\n      tag_162\n      jump\t// in\n    tag_187:\n        /* \"#utility.yul\":8140:8228   */\n    tag_186:\n        /* \"#utility.yul\":8248:8258   */\n      dup1\n        /* \"#utility.yul\":8244:8246   */\n      0x40\n        /* \"#utility.yul\":8237:8259   */\n      mstore\n        /* \"#utility.yul\":8027:8265   */\n      pop\n        /* \"#utility.yul\":7984:8265   */\n      pop\n      pop\n      jump\t// out\n        /* \"#utility.yul\":8271:8451   */\n    tag_183:\n        /* \"#utility.yul\":8319:8396   */\n      0x4e487b7100000000000000000000000000000000000000000000000000000000\n        /* \"#utility.yul\":8316:8317   */\n      0x00\n        /* \"#utility.yul\":8309:8397   */\n      mstore\n        /* \"#utility.yul\":8416:8420   */\n      0x22\n        /* \"#utility.yul\":8413:8414   */\n      0x04\n        /* \"#utility.yul\":8406:8421   */\n      mstore\n        /* \"#utility.yul\":8440:8444   */\n      0x24\n        /* \"#utility.yul\":8437:8438   */\n      0x00\n        /* \"#utility.yul\":8430:8445   */\n      revert\n        /* \"#utility.yul\":8457:8637   */\n    tag_162:\n        /* \"#utility.yul\":8505:8582   */\n      0x4e487b7100000000000000000000000000000000000000000000000000000000\n        /* \"#utility.yul\":8502:8503   */\n      0x00\n        /* \"#utility.yul\":8495:8583   */\n      mstore\n        /* \"#utility.yul\":8602:8606   */\n      0x41\n        /* \"#utility.yul\":8599:8600   */\n      0x04\n        /* \"#utility.yul\":8592:8607   */\n      mstore\n        /* \"#utility.yul\":8626:8630   */\n      0x24\n        /* \"#utility.yul\":8623:8624   */\n      0x00\n        /* \"#utility.yul\":8616:8631   */\n      revert\n        /* \"#utility.yul\":8643:8760   */\n    tag_89:\n        /* \"#utility.yul\":8752:8753   */\n      0x00\n        /* \"#utility.yul\":8749:8750   */\n      dup1\n        /* \"#utility.yul\":8742:8754   */\n      revert\n        /* \"#utility.yul\":8766:8883   */\n    tag_78:\n        /* \"#utility.yul\":8875:8876   */\n      0x00\n        /* \"#utility.yul\":8872:8873   */\n      dup1\n        /* \"#utility.yul\":8865:8877   */\n      revert\n        /* \"#utility.yul\":8889:9006   */\n    tag_102:\n        /* \"#utility.yul\":8998:8999   */\n      0x00\n        /* \"#utility.yul\":8995:8996   */\n      dup1\n        /* \"#utility.yul\":8988:9000   */\n      revert\n        /* \"#utility.yul\":9012:9129   */\n    tag_98:\n        /* \"#utility.yul\":9121:9122   */\n      0x00\n        /* \"#utility.yul\":9118:9119   */\n      dup1\n        /* \"#utility.yul\":9111:9123   */\n      revert\n        /* \"#utility.yul\":9135:9237   */\n    tag_132:\n        /* \"#utility.yul\":9176:9182   */\n      0x00\n        /* \"#utility.yul\":9227:9229   */\n      0x1f\n        /* \"#utility.yul\":9223:9230   */\n      not\n        /* \"#utility.yul\":9218:9220   */\n      0x1f\n        /* \"#utility.yul\":9211:9216   */\n      dup4\n        /* \"#utility.yul\":9207:9221   */\n      add\n        /* \"#utility.yul\":9203:9231   */\n      and\n        /* \"#utility.yul\":9193:9231   */\n      swap1\n      pop\n        /* \"#utility.yul\":9135:9237   */\n      swap2\n      swap1\n      pop\n      jump\t// out\n        /* \"#utility.yul\":9243:9412   */\n    tag_143:\n        /* \"#utility.yul\":9383:9404   */\n      0x5468657265206973206e6f2073747564656e7400000000000000000000000000\n        /* \"#utility.yul\":9379:9380   */\n      0x00\n        /* \"#utility.yul\":9371:9377   */\n      dup3\n        /* \"#utility.yul\":9367:9381   */\n      add\n        /* \"#utility.yul\":9360:9405   */\n      mstore\n        /* \"#utility.yul\":9243:9412   */\n      pop\n      jump\t// out\n        /* \"#utility.yul\":9418:9540   */\n    tag_84:\n        /* \"#utility.yul\":9491:9515   */\n      tag_197\n        /* \"#utility.yul\":9509:9514   */\n      dup2\n        /* \"#utility.yul\":9491:9515   */\n      tag_122\n      jump\t// in\n    tag_197:\n        /* \"#utility.yul\":9484:9489   */\n      dup2\n        /* \"#utility.yul\":9481:9516   */\n      eq\n        /* \"#utility.yul\":9471:9534   */\n      tag_198\n      jumpi\n        /* \"#utility.yul\":9530:9531   */\n      0x00\n        /* \"#utility.yul\":9527:9528   */\n      dup1\n        /* \"#utility.yul\":9520:9532   */\n      revert\n        /* \"#utility.yul\":9471:9534   */\n    tag_198:\n        /* \"#utility.yul\":9418:9540   */\n      pop\n      jump\t// out\n        /* \"#utility.yul\":9546:9668   */\n    tag_94:\n        /* \"#utility.yul\":9619:9643   */\n      tag_200\n        /* \"#utility.yul\":9637:9642   */\n      dup2\n        /* \"#utility.yul\":9619:9643   */\n      tag_171\n      jump\t// in\n    tag_200:\n        /* \"#utility.yul\":9612:9617   */\n      dup2\n        /* \"#utility.yul\":9609:9644   */\n      eq\n        /* \"#utility.yul\":9599:9662   */\n      tag_201\n      jumpi\n        /* \"#utility.yul\":9658:9659   */\n      0x00\n        /* \"#utility.yul\":9655:9656   */\n      dup1\n        /* \"#utility.yul\":9648:9660   */\n      revert\n        /* \"#utility.yul\":9599:9662   */\n    tag_201:\n        /* \"#utility.yul\":9546:9668   */\n      pop\n      jump\t// out\n\n    auxdata: 0xa2646970667358221220cad15cb5f2fb8fe4db158a56c2ebafd95695ea931d7bf86cc09a55d5a7a1273064736f6c63430008070033\n}\n",
				"bytecode": {
					"linkReferences": {},
					"object": "608060405234801561001057600080fd5b50610afb806100206000396000f3fe608060405234801561001057600080fd5b506004361061004b5760003560e01c80629a4d3c146100505780630e5eeef71461006c57806375c2f8f014610088578063b645307d146100b9575b600080fd5b61006a60048036038101906100659190610640565b6100e9565b005b610086600480360381019061008191906106df565b6101d6565b005b6100a2600480360381019061009d919061073b565b61027f565b6040516100b092919061083d565b60405180910390f35b6100d360048036038101906100ce919061073b565b61036e565b6040516100e0919061081b565b60405180910390f35b6100f1610460565b60405180608001604052808673ffffffffffffffffffffffffffffffffffffffff168152602001858152602001848152602001828152506006836040516101389190610804565b908152602001604051809103902060008201518160000160006101000a81548173ffffffffffffffffffffffffffffffffffffffff021916908373ffffffffffffffffffffffffffffffffffffffff16021790555060208201518160010190805190602001906101a9929190610483565b506040820151816002015560608201518160030190602d6101cb929190610509565b509050505050505050565b60405180604001604052808381526020013373ffffffffffffffffffffffffffffffffffffffff16815250600760008381526020019081526020016000206000820151816000019080519060200190610230929190610483565b5060208201518160010160006101000a81548173ffffffffffffffffffffffffffffffffffffffff021916908373ffffffffffffffffffffffffffffffffffffffff1602179055509050505050565b60606000606060006007600086815260200190815260200160002060000180546102a890610988565b80601f01602080910402602001604051908101604052809291908181526020018280546102d490610988565b80156103215780601f106102f657610100808354040283529160200191610321565b820191906000526020600020905b81548152906001019060200180831161030457829003601f168201915b505050505091506007600086815260200190815260200160002060010160009054906101000a900473ffffffffffffffffffffffffffffffffffffffff1690508181935093505050915091565b6060600060076000848152602001908152602001600020600001805461039390610988565b905014156103d6576040517f08c379a00000000000000000000000000000000000000000000000000000000081526004016103cd9061086d565b60405180910390fd5b60076000838152602001908152602001600020600080820160006103fa9190610549565b6001820160006101000a81549073ffffffffffffffffffffffffffffffffffffffff021916905550506040518060400160405280600e81526020017f44656c65746520737563636563650000000000000000000000000000000000008152509050919050565b604051806105a00160405280602d90602082028036833780820191505090505090565b82805461048f90610988565b90600052602060002090601f0160209004810192826104b157600085556104f8565b82601f106104ca57805160ff19168380011785556104f8565b828001600101855582156104f8579182015b828111156104f75782518255916020019190600101906104dc565b5b5090506105059190610589565b5090565b82602d8101928215610538579160200282015b8281111561053757825182559160200191906001019061051c565b5b5090506105459190610589565b5090565b50805461055590610988565b6000825580601f106105675750610586565b601f0160209004906000526020600020908101906105859190610589565b5b50565b5b808211156105a257600081600090555060010161058a565b5090565b60006105b96105b4846108b2565b61088d565b9050828152602081018484840111156105d5576105d4610a4e565b5b6105e0848285610946565b509392505050565b6000813590506105f781610a97565b92915050565b600082601f83011261061257610611610a49565b5b81356106228482602086016105a6565b91505092915050565b60008135905061063a81610aae565b92915050565b6000806000806080858703121561065a57610659610a58565b5b6000610668878288016105e8565b945050602085013567ffffffffffffffff81111561068957610688610a53565b5b610695878288016105fd565b93505060406106a68782880161062b565b925050606085013567ffffffffffffffff8111156106c7576106c6610a53565b5b6106d3878288016105fd565b91505092959194509250565b600080604083850312156106f6576106f5610a58565b5b600083013567ffffffffffffffff81111561071457610713610a53565b5b610720858286016105fd565b92505060206107318582860161062b565b9150509250929050565b60006020828403121561075157610750610a58565b5b600061075f8482850161062b565b91505092915050565b6107718161090a565b82525050565b6000610782826108e3565b61078c81856108ee565b935061079c818560208601610955565b6107a581610a5d565b840191505092915050565b60006107bb826108e3565b6107c581856108ff565b93506107d5818560208601610955565b80840191505092915050565b60006107ee6013836108ee565b91506107f982610a6e565b602082019050919050565b600061081082846107b0565b915081905092915050565b600060208201905081810360008301526108358184610777565b905092915050565b600060408201905081810360008301526108578185610777565b90506108666020830184610768565b9392505050565b60006020820190508181036000830152610886816107e1565b9050919050565b60006108976108a8565b90506108a382826109ba565b919050565b6000604051905090565b600067ffffffffffffffff8211156108cd576108cc610a1a565b5b6108d682610a5d565b9050602081019050919050565b600081519050919050565b600082825260208201905092915050565b600081905092915050565b60006109158261091c565b9050919050565b600073ffffffffffffffffffffffffffffffffffffffff82169050919050565b6000819050919050565b82818337600083830152505050565b60005b83811015610973578082015181840152602081019050610958565b83811115610982576000848401525b50505050565b600060028204905060018216806109a057607f821691505b602082108114156109b4576109b36109eb565b5b50919050565b6109c382610a5d565b810181811067ffffffffffffffff821117156109e2576109e1610a1a565b5b80604052505050565b7f4e487b7100000000000000000000000000000000000000000000000000000000600052602260045260246000fd5b7f4e487b7100000000000000000000000000000000000000000000000000000000600052604160045260246000fd5b600080fd5b600080fd5b600080fd5b600080fd5b6000601f19601f8301169050919050565b7f5468657265206973206e6f2073747564656e7400000000000000000000000000600082015250565b610aa08161090a565b8114610aab57600080fd5b50565b610ab78161093c565b8114610ac257600080fd5b5056fea2646970667358221220cad15cb5f2fb8fe4db158a56c2ebafd95695ea931d7bf86cc09a55d5a7a1273064736f6c63430008070033",
					"opcodes": "PUSH1 0x80 PUSH1 0x40 MSTORE CALLVALUE DUP1 ISZERO PUSH2 0x10 JUMPI PUSH1 0x0 DUP1 REVERT JUMPDEST POP PUSH2 0xAFB DUP1 PUSH2 0x20 PUSH1 0x0 CODECOPY PUSH1 0x0 RETURN INVALID PUSH1 0x80 PUSH1 0x40 MSTORE CALLVALUE DUP1 ISZERO PUSH2 0x10 JUMPI PUSH1 0x0 DUP1 REVERT JUMPDEST POP PUSH1 0x4 CALLDATASIZE LT PUSH2 0x4B JUMPI PUSH1 0x0 CALLDATALOAD PUSH1 0xE0 SHR DUP1 PUSH3 0x9A4D3C EQ PUSH2 0x50 JUMPI DUP1 PUSH4 0xE5EEEF7 EQ PUSH2 0x6C JUMPI DUP1 PUSH4 0x75C2F8F0 EQ PUSH2 0x88 JUMPI DUP1 PUSH4 0xB645307D EQ PUSH2 0xB9 JUMPI JUMPDEST PUSH1 0x0 DUP1 REVERT JUMPDEST PUSH2 0x6A PUSH1 0x4 DUP1 CALLDATASIZE SUB DUP2 ADD SWAP1 PUSH2 0x65 SWAP2 SWAP1 PUSH2 0x640 JUMP JUMPDEST PUSH2 0xE9 JUMP JUMPDEST STOP JUMPDEST PUSH2 0x86 PUSH1 0x4 DUP1 CALLDATASIZE SUB DUP2 ADD SWAP1 PUSH2 0x81 SWAP2 SWAP1 PUSH2 0x6DF JUMP JUMPDEST PUSH2 0x1D6 JUMP JUMPDEST STOP JUMPDEST PUSH2 0xA2 PUSH1 0x4 DUP1 CALLDATASIZE SUB DUP2 ADD SWAP1 PUSH2 0x9D SWAP2 SWAP1 PUSH2 0x73B JUMP JUMPDEST PUSH2 0x27F JUMP JUMPDEST PUSH1 0x40 MLOAD PUSH2 0xB0 SWAP3 SWAP2 SWAP1 PUSH2 0x83D JUMP JUMPDEST PUSH1 0x40 MLOAD DUP1 SWAP2 SUB SWAP1 RETURN JUMPDEST PUSH2 0xD3 PUSH1 0x4 DUP1 CALLDATASIZE SUB DUP2 ADD SWAP1 PUSH2 0xCE SWAP2 SWAP1 PUSH2 0x73B JUMP JUMPDEST PUSH2 0x36E JUMP JUMPDEST PUSH1 0x40 MLOAD PUSH2 0xE0 SWAP2 SWAP1 PUSH2 0x81B JUMP JUMPDEST PUSH1 0x40 MLOAD DUP1 SWAP2 SUB SWAP1 RETURN JUMPDEST PUSH2 0xF1 PUSH2 0x460 JUMP JUMPDEST PUSH1 0x40 MLOAD DUP1 PUSH1 0x80 ADD PUSH1 0x40 MSTORE DUP1 DUP7 PUSH20 0xFFFFFFFFFFFFFFFFFFFFFFFFFFFFFFFFFFFFFFFF AND DUP2 MSTORE PUSH1 0x20 ADD DUP6 DUP2 MSTORE PUSH1 0x20 ADD DUP5 DUP2 MSTORE PUSH1 0x20 ADD DUP3 DUP2 MSTORE POP PUSH1 0x6 DUP4 PUSH1 0x40 MLOAD PUSH2 0x138 SWAP2 SWAP1 PUSH2 0x804 JUMP JUMPDEST SWAP1 DUP2 MSTORE PUSH1 0x20 ADD PUSH1 0x40 MLOAD DUP1 SWAP2 SUB SWAP1 KECCAK256 PUSH1 0x0 DUP3 ADD MLOAD DUP2 PUSH1 0x0 ADD PUSH1 0x0 PUSH2 0x100 EXP DUP2 SLOAD DUP2 PUSH20 0xFFFFFFFFFFFFFFFFFFFFFFFFFFFFFFFFFFFFFFFF MUL NOT AND SWAP1 DUP4 PUSH20 0xFFFFFFFFFFFFFFFFFFFFFFFFFFFFFFFFFFFFFFFF AND MUL OR SWAP1 SSTORE POP PUSH1 0x20 DUP3 ADD MLOAD DUP2 PUSH1 0x1 ADD SWAP1 DUP1 MLOAD SWAP1 PUSH1 0x20 ADD SWAP1 PUSH2 0x1A9 SWAP3 SWAP2 SWAP1 PUSH2 0x483 JUMP JUMPDEST POP PUSH1 0x40 DUP3 ADD MLOAD DUP2 PUSH1 0x2 ADD SSTORE PUSH1 0x60 DUP3 ADD MLOAD DUP2 PUSH1 0x3 ADD SWAP1 PUSH1 0x2D PUSH2 0x1CB SWAP3 SWAP2 SWAP1 PUSH2 0x509 JUMP JUMPDEST POP SWAP1 POP POP POP POP POP POP POP JUMP JUMPDEST PUSH1 0x40 MLOAD DUP1 PUSH1 0x40 ADD PUSH1 0x40 MSTORE DUP1 DUP4 DUP2 MSTORE PUSH1 0x20 ADD CALLER PUSH20 0xFFFFFFFFFFFFFFFFFFFFFFFFFFFFFFFFFFFFFFFF AND DUP2 MSTORE POP PUSH1 0x7 PUSH1 0x0 DUP4 DUP2 MSTORE PUSH1 0x20 ADD SWAP1 DUP2 MSTORE PUSH1 0x20 ADD PUSH1 0x0 KECCAK256 PUSH1 0x0 DUP3 ADD MLOAD DUP2 PUSH1 0x0 ADD SWAP1 DUP1 MLOAD SWAP1 PUSH1 0x20 ADD SWAP1 PUSH2 0x230 SWAP3 SWAP2 SWAP1 PUSH2 0x483 JUMP JUMPDEST POP PUSH1 0x20 DUP3 ADD MLOAD DUP2 PUSH1 0x1 ADD PUSH1 0x0 PUSH2 0x100 EXP DUP2 SLOAD DUP2 PUSH20 0xFFFFFFFFFFFFFFFFFFFFFFFFFFFFFFFFFFFFFFFF MUL NOT AND SWAP1 DUP4 PUSH20 0xFFFFFFFFFFFFFFFFFFFFFFFFFFFFFFFFFFFFFFFF AND MUL OR SWAP1 SSTORE POP SWAP1 POP POP POP POP JUMP JUMPDEST PUSH1 0x60 PUSH1 0x0 PUSH1 0x60 PUSH1 0x0 PUSH1 0x7 PUSH1 0x0 DUP7 DUP2 MSTORE PUSH1 0x20 ADD SWAP1 DUP2 MSTORE PUSH1 0x20 ADD PUSH1 0x0 KECCAK256 PUSH1 0x0 ADD DUP1 SLOAD PUSH2 0x2A8 SWAP1 PUSH2 0x988 JUMP JUMPDEST DUP1 PUSH1 0x1F ADD PUSH1 0x20 DUP1 SWAP2 DIV MUL PUSH1 0x20 ADD PUSH1 0x40 MLOAD SWAP1 DUP2 ADD PUSH1 0x40 MSTORE DUP1 SWAP3 SWAP2 SWAP1 DUP2 DUP2 MSTORE PUSH1 0x20 ADD DUP3 DUP1 SLOAD PUSH2 0x2D4 SWAP1 PUSH2 0x988 JUMP JUMPDEST DUP1 ISZERO PUSH2 0x321 JUMPI DUP1 PUSH1 0x1F LT PUSH2 0x2F6 JUMPI PUSH2 0x100 DUP1 DUP4 SLOAD DIV MUL DUP4 MSTORE SWAP2 PUSH1 0x20 ADD SWAP2 PUSH2 0x321 JUMP JUMPDEST DUP3 ADD SWAP2 SWAP1 PUSH1 0x0 MSTORE PUSH1 0x20 PUSH1 0x0 KECCAK256 SWAP1 JUMPDEST DUP2 SLOAD DUP2 MSTORE SWAP1 PUSH1 0x1 ADD SWAP1 PUSH1 0x20 ADD DUP1 DUP4 GT PUSH2 0x304 JUMPI DUP3 SWAP1 SUB PUSH1 0x1F AND DUP3 ADD SWAP2 JUMPDEST POP POP POP POP POP SWAP2 POP PUSH1 0x7 PUSH1 0x0 DUP7 DUP2 MSTORE PUSH1 0x20 ADD SWAP1 DUP2 MSTORE PUSH1 0x20 ADD PUSH1 0x0 KECCAK256 PUSH1 0x1 ADD PUSH1 0x0 SWAP1 SLOAD SWAP1 PUSH2 0x100 EXP SWAP1 DIV PUSH20 0xFFFFFFFFFFFFFFFFFFFFFFFFFFFFFFFFFFFFFFFF AND SWAP1 POP DUP2 DUP2 SWAP4 POP SWAP4 POP POP POP SWAP2 POP SWAP2 JUMP JUMPDEST PUSH1 0x60 PUSH1 0x0 PUSH1 0x7 PUSH1 0x0 DUP5 DUP2 MSTORE PUSH1 0x20 ADD SWAP1 DUP2 MSTORE PUSH1 0x20 ADD PUSH1 0x0 KECCAK256 PUSH1 0x0 ADD DUP1 SLOAD PUSH2 0x393 SWAP1 PUSH2 0x988 JUMP JUMPDEST SWAP1 POP EQ ISZERO PUSH2 0x3D6 JUMPI PUSH1 0x40 MLOAD PUSH32 0x8C379A000000000000000000000000000000000000000000000000000000000 DUP2 MSTORE PUSH1 0x4 ADD PUSH2 0x3CD SWAP1 PUSH2 0x86D JUMP JUMPDEST PUSH1 0x40 MLOAD DUP1 SWAP2 SUB SWAP1 REVERT JUMPDEST PUSH1 0x7 PUSH1 0x0 DUP4 DUP2 MSTORE PUSH1 0x20 ADD SWAP1 DUP2 MSTORE PUSH1 0x20 ADD PUSH1 0x0 KECCAK256 PUSH1 0x0 DUP1 DUP3 ADD PUSH1 0x0 PUSH2 0x3FA SWAP2 SWAP1 PUSH2 0x549 JUMP JUMPDEST PUSH1 0x1 DUP3 ADD PUSH1 0x0 PUSH2 0x100 EXP DUP2 SLOAD SWAP1 PUSH20 0xFFFFFFFFFFFFFFFFFFFFFFFFFFFFFFFFFFFFFFFF MUL NOT AND SWAP1 SSTORE POP POP PUSH1 0x40 MLOAD DUP1 PUSH1 0x40 ADD PUSH1 0x40 MSTORE DUP1 PUSH1 0xE DUP2 MSTORE PUSH1 0x20 ADD PUSH32 0x44656C6574652073756363656365000000000000000000000000000000000000 DUP2 MSTORE POP SWAP1 POP SWAP2 SWAP1 POP JUMP JUMPDEST PUSH1 0x40 MLOAD DUP1 PUSH2 0x5A0 ADD PUSH1 0x40 MSTORE DUP1 PUSH1 0x2D SWAP1 PUSH1 0x20 DUP3 MUL DUP1 CALLDATASIZE DUP4 CALLDATACOPY DUP1 DUP3 ADD SWAP2 POP POP SWAP1 POP POP SWAP1 JUMP JUMPDEST DUP3 DUP1 SLOAD PUSH2 0x48F SWAP1 PUSH2 0x988 JUMP JUMPDEST SWAP1 PUSH1 0x0 MSTORE PUSH1 0x20 PUSH1 0x0 KECCAK256 SWAP1 PUSH1 0x1F ADD PUSH1 0x20 SWAP1 DIV DUP2 ADD SWAP3 DUP3 PUSH2 0x4B1 JUMPI PUSH1 0x0 DUP6 SSTORE PUSH2 0x4F8 JUMP JUMPDEST DUP3 PUSH1 0x1F LT PUSH2 0x4CA JUMPI DUP1 MLOAD PUSH1 0xFF NOT AND DUP4 DUP1 ADD OR DUP6 SSTORE PUSH2 0x4F8 JUMP JUMPDEST DUP3 DUP1 ADD PUSH1 0x1 ADD DUP6 SSTORE DUP3 ISZERO PUSH2 0x4F8 JUMPI SWAP2 DUP3 ADD JUMPDEST DUP3 DUP2 GT ISZERO PUSH2 0x4F7 JUMPI DUP3 MLOAD DUP3 SSTORE SWAP2 PUSH1 0x20 ADD SWAP2 SWAP1 PUSH1 0x1 ADD SWAP1 PUSH2 0x4DC JUMP JUMPDEST JUMPDEST POP SWAP1 POP PUSH2 0x505 SWAP2 SWAP1 PUSH2 0x589 JUMP JUMPDEST POP SWAP1 JUMP JUMPDEST DUP3 PUSH1 0x2D DUP2 ADD SWAP3 DUP3 ISZERO PUSH2 0x538 JUMPI SWAP2 PUSH1 0x20 MUL DUP3 ADD JUMPDEST DUP3 DUP2 GT ISZERO PUSH2 0x537 JUMPI DUP3 MLOAD DUP3 SSTORE SWAP2 PUSH1 0x20 ADD SWAP2 SWAP1 PUSH1 0x1 ADD SWAP1 PUSH2 0x51C JUMP JUMPDEST JUMPDEST POP SWAP1 POP PUSH2 0x545 SWAP2 SWAP1 PUSH2 0x589 JUMP JUMPDEST POP SWAP1 JUMP JUMPDEST POP DUP1 SLOAD PUSH2 0x555 SWAP1 PUSH2 0x988 JUMP JUMPDEST PUSH1 0x0 DUP3 SSTORE DUP1 PUSH1 0x1F LT PUSH2 0x567 JUMPI POP PUSH2 0x586 JUMP JUMPDEST PUSH1 0x1F ADD PUSH1 0x20 SWAP1 DIV SWAP1 PUSH1 0x0 MSTORE PUSH1 0x20 PUSH1 0x0 KECCAK256 SWAP1 DUP2 ADD SWAP1 PUSH2 0x585 SWAP2 SWAP1 PUSH2 0x589 JUMP JUMPDEST JUMPDEST POP JUMP JUMPDEST JUMPDEST DUP1 DUP3 GT ISZERO PUSH2 0x5A2 JUMPI PUSH1 0x0 DUP2 PUSH1 0x0 SWAP1 SSTORE POP PUSH1 0x1 ADD PUSH2 0x58A JUMP JUMPDEST POP SWAP1 JUMP JUMPDEST PUSH1 0x0 PUSH2 0x5B9 PUSH2 0x5B4 DUP5 PUSH2 0x8B2 JUMP JUMPDEST PUSH2 0x88D JUMP JUMPDEST SWAP1 POP DUP3 DUP2 MSTORE PUSH1 0x20 DUP2 ADD DUP5 DUP5 DUP5 ADD GT ISZERO PUSH2 0x5D5 JUMPI PUSH2 0x5D4 PUSH2 0xA4E JUMP JUMPDEST JUMPDEST PUSH2 0x5E0 DUP5 DUP3 DUP6 PUSH2 0x946 JUMP JUMPDEST POP SWAP4 SWAP3 POP POP POP JUMP JUMPDEST PUSH1 0x0 DUP2 CALLDATALOAD SWAP1 POP PUSH2 0x5F7 DUP2 PUSH2 0xA97 JUMP JUMPDEST SWAP3 SWAP2 POP POP JUMP JUMPDEST PUSH1 0x0 DUP3 PUSH1 0x1F DUP4 ADD SLT PUSH2 0x612 JUMPI PUSH2 0x611 PUSH2 0xA49 JUMP JUMPDEST JUMPDEST DUP2 CALLDATALOAD PUSH2 0x622 DUP5 DUP3 PUSH1 0x20 DUP7 ADD PUSH2 0x5A6 JUMP JUMPDEST SWAP2 POP POP SWAP3 SWAP2 POP POP JUMP JUMPDEST PUSH1 0x0 DUP2 CALLDATALOAD SWAP1 POP PUSH2 0x63A DUP2 PUSH2 0xAAE JUMP JUMPDEST SWAP3 SWAP2 POP POP JUMP JUMPDEST PUSH1 0x0 DUP1 PUSH1 0x0 DUP1 PUSH1 0x80 DUP6 DUP8 SUB SLT ISZERO PUSH2 0x65A JUMPI PUSH2 0x659 PUSH2 0xA58 JUMP JUMPDEST JUMPDEST PUSH1 0x0 PUSH2 0x668 DUP8 DUP3 DUP9 ADD PUSH2 0x5E8 JUMP JUMPDEST SWAP5 POP POP PUSH1 0x20 DUP6 ADD CALLDATALOAD PUSH8 0xFFFFFFFFFFFFFFFF DUP2 GT ISZERO PUSH2 0x689 JUMPI PUSH2 0x688 PUSH2 0xA53 JUMP JUMPDEST JUMPDEST PUSH2 0x695 DUP8 DUP3 DUP9 ADD PUSH2 0x5FD JUMP JUMPDEST SWAP4 POP POP PUSH1 0x40 PUSH2 0x6A6 DUP8 DUP3 DUP9 ADD PUSH2 0x62B JUMP JUMPDEST SWAP3 POP POP PUSH1 0x60 DUP6 ADD CALLDATALOAD PUSH8 0xFFFFFFFFFFFFFFFF DUP2 GT ISZERO PUSH2 0x6C7 JUMPI PUSH2 0x6C6 PUSH2 0xA53 JUMP JUMPDEST JUMPDEST PUSH2 0x6D3 DUP8 DUP3 DUP9 ADD PUSH2 0x5FD JUMP JUMPDEST SWAP2 POP POP SWAP3 SWAP6 SWAP2 SWAP5 POP SWAP3 POP JUMP JUMPDEST PUSH1 0x0 DUP1 PUSH1 0x40 DUP4 DUP6 SUB SLT ISZERO PUSH2 0x6F6 JUMPI PUSH2 0x6F5 PUSH2 0xA58 JUMP JUMPDEST JUMPDEST PUSH1 0x0 DUP4 ADD CALLDATALOAD PUSH8 0xFFFFFFFFFFFFFFFF DUP2 GT ISZERO PUSH2 0x714 JUMPI PUSH2 0x713 PUSH2 0xA53 JUMP JUMPDEST JUMPDEST PUSH2 0x720 DUP6 DUP3 DUP7 ADD PUSH2 0x5FD JUMP JUMPDEST SWAP3 POP POP PUSH1 0x20 PUSH2 0x731 DUP6 DUP3 DUP7 ADD PUSH2 0x62B JUMP JUMPDEST SWAP2 POP POP SWAP3 POP SWAP3 SWAP1 POP JUMP JUMPDEST PUSH1 0x0 PUSH1 0x20 DUP3 DUP5 SUB SLT ISZERO PUSH2 0x751 JUMPI PUSH2 0x750 PUSH2 0xA58 JUMP JUMPDEST JUMPDEST PUSH1 0x0 PUSH2 0x75F DUP5 DUP3 DUP6 ADD PUSH2 0x62B JUMP JUMPDEST SWAP2 POP POP SWAP3 SWAP2 POP POP JUMP JUMPDEST PUSH2 0x771 DUP2 PUSH2 0x90A JUMP JUMPDEST DUP3 MSTORE POP POP JUMP JUMPDEST PUSH1 0x0 PUSH2 0x782 DUP3 PUSH2 0x8E3 JUMP JUMPDEST PUSH2 0x78C DUP2 DUP6 PUSH2 0x8EE JUMP JUMPDEST SWAP4 POP PUSH2 0x79C DUP2 DUP6 PUSH1 0x20 DUP7 ADD PUSH2 0x955 JUMP JUMPDEST PUSH2 0x7A5 DUP2 PUSH2 0xA5D JUMP JUMPDEST DUP5 ADD SWAP2 POP POP SWAP3 SWAP2 POP POP JUMP JUMPDEST PUSH1 0x0 PUSH2 0x7BB DUP3 PUSH2 0x8E3 JUMP JUMPDEST PUSH2 0x7C5 DUP2 DUP6 PUSH2 0x8FF JUMP JUMPDEST SWAP4 POP PUSH2 0x7D5 DUP2 DUP6 PUSH1 0x20 DUP7 ADD PUSH2 0x955 JUMP JUMPDEST DUP1 DUP5 ADD SWAP2 POP POP SWAP3 SWAP2 POP POP JUMP JUMPDEST PUSH1 0x0 PUSH2 0x7EE PUSH1 0x13 DUP4 PUSH2 0x8EE JUMP JUMPDEST SWAP2 POP PUSH2 0x7F9 DUP3 PUSH2 0xA6E JUMP JUMPDEST PUSH1 0x20 DUP3 ADD SWAP1 POP SWAP2 SWAP1 POP JUMP JUMPDEST PUSH1 0x0 PUSH2 0x810 DUP3 DUP5 PUSH2 0x7B0 JUMP JUMPDEST SWAP2 POP DUP2 SWAP1 POP SWAP3 SWAP2 POP POP JUMP JUMPDEST PUSH1 0x0 PUSH1 0x20 DUP3 ADD SWAP1 POP DUP2 DUP2 SUB PUSH1 0x0 DUP4 ADD MSTORE PUSH2 0x835 DUP2 DUP5 PUSH2 0x777 JUMP JUMPDEST SWAP1 POP SWAP3 SWAP2 POP POP JUMP JUMPDEST PUSH1 0x0 PUSH1 0x40 DUP3 ADD SWAP1 POP DUP2 DUP2 SUB PUSH1 0x0 DUP4 ADD MSTORE PUSH2 0x857 DUP2 DUP6 PUSH2 0x777 JUMP JUMPDEST SWAP1 POP PUSH2 0x866 PUSH1 0x20 DUP4 ADD DUP5 PUSH2 0x768 JUMP JUMPDEST SWAP4 SWAP3 POP POP POP JUMP JUMPDEST PUSH1 0x0 PUSH1 0x20 DUP3 ADD SWAP1 POP DUP2 DUP2 SUB PUSH1 0x0 DUP4 ADD MSTORE PUSH2 0x886 DUP2 PUSH2 0x7E1 JUMP JUMPDEST SWAP1 POP SWAP2 SWAP1 POP JUMP JUMPDEST PUSH1 0x0 PUSH2 0x897 PUSH2 0x8A8 JUMP JUMPDEST SWAP1 POP PUSH2 0x8A3 DUP3 DUP3 PUSH2 0x9BA JUMP JUMPDEST SWAP2 SWAP1 POP JUMP JUMPDEST PUSH1 0x0 PUSH1 0x40 MLOAD SWAP1 POP SWAP1 JUMP JUMPDEST PUSH1 0x0 PUSH8 0xFFFFFFFFFFFFFFFF DUP3 GT ISZERO PUSH2 0x8CD JUMPI PUSH2 0x8CC PUSH2 0xA1A JUMP JUMPDEST JUMPDEST PUSH2 0x8D6 DUP3 PUSH2 0xA5D JUMP JUMPDEST SWAP1 POP PUSH1 0x20 DUP2 ADD SWAP1 POP SWAP2 SWAP1 POP JUMP JUMPDEST PUSH1 0x0 DUP2 MLOAD SWAP1 POP SWAP2 SWAP1 POP JUMP JUMPDEST PUSH1 0x0 DUP3 DUP3 MSTORE PUSH1 0x20 DUP3 ADD SWAP1 POP SWAP3 SWAP2 POP POP JUMP JUMPDEST PUSH1 0x0 DUP2 SWAP1 POP SWAP3 SWAP2 POP POP JUMP JUMPDEST PUSH1 0x0 PUSH2 0x915 DUP3 PUSH2 0x91C JUMP JUMPDEST SWAP1 POP SWAP2 SWAP1 POP JUMP JUMPDEST PUSH1 0x0 PUSH20 0xFFFFFFFFFFFFFFFFFFFFFFFFFFFFFFFFFFFFFFFF DUP3 AND SWAP1 POP SWAP2 SWAP1 POP JUMP JUMPDEST PUSH1 0x0 DUP2 SWAP1 POP SWAP2 SWAP1 POP JUMP JUMPDEST DUP3 DUP2 DUP4 CALLDATACOPY PUSH1 0x0 DUP4 DUP4 ADD MSTORE POP POP POP JUMP JUMPDEST PUSH1 0x0 JUMPDEST DUP4 DUP2 LT ISZERO PUSH2 0x973 JUMPI DUP1 DUP3 ADD MLOAD DUP2 DUP5 ADD MSTORE PUSH1 0x20 DUP2 ADD SWAP1 POP PUSH2 0x958 JUMP JUMPDEST DUP4 DUP2 GT ISZERO PUSH2 0x982 JUMPI PUSH1 0x0 DUP5 DUP5 ADD MSTORE JUMPDEST POP POP POP POP JUMP JUMPDEST PUSH1 0x0 PUSH1 0x2 DUP3 DIV SWAP1 POP PUSH1 0x1 DUP3 AND DUP1 PUSH2 0x9A0 JUMPI PUSH1 0x7F DUP3 AND SWAP2 POP JUMPDEST PUSH1 0x20 DUP3 LT DUP2 EQ ISZERO PUSH2 0x9B4 JUMPI PUSH2 0x9B3 PUSH2 0x9EB JUMP JUMPDEST JUMPDEST POP SWAP2 SWAP1 POP JUMP JUMPDEST PUSH2 0x9C3 DUP3 PUSH2 0xA5D JUMP JUMPDEST DUP2 ADD DUP2 DUP2 LT PUSH8 0xFFFFFFFFFFFFFFFF DUP3 GT OR ISZERO PUSH2 0x9E2 JUMPI PUSH2 0x9E1 PUSH2 0xA1A JUMP JUMPDEST JUMPDEST DUP1 PUSH1 0x40 MSTORE POP POP POP JUMP JUMPDEST PUSH32 0x4E487B7100000000000000000000000000000000000000000000000000000000 PUSH1 0x0 MSTORE PUSH1 0x22 PUSH1 0x4 MSTORE PUSH1 0x24 PUSH1 0x0 REVERT JUMPDEST PUSH32 0x4E487B7100000000000000000000000000000000000000000000000000000000 PUSH1 0x0 MSTORE PUSH1 0x41 PUSH1 0x4 MSTORE PUSH1 0x24 PUSH1 0x0 REVERT JUMPDEST PUSH1 0x0 DUP1 REVERT JUMPDEST PUSH1 0x0 DUP1 REVERT JUMPDEST PUSH1 0x0 DUP1 REVERT JUMPDEST PUSH1 0x0 DUP1 REVERT JUMPDEST PUSH1 0x0 PUSH1 0x1F NOT PUSH1 0x1F DUP4 ADD AND SWAP1 POP SWAP2 SWAP1 POP JUMP JUMPDEST PUSH32 0x5468657265206973206E6F2073747564656E7400000000000000000000000000 PUSH1 0x0 DUP3 ADD MSTORE POP JUMP JUMPDEST PUSH2 0xAA0 DUP2 PUSH2 0x90A JUMP JUMPDEST DUP2 EQ PUSH2 0xAAB JUMPI PUSH1 0x0 DUP1 REVERT JUMPDEST POP JUMP JUMPDEST PUSH2 0xAB7 DUP2 PUSH2 0x93C JUMP JUMPDEST DUP2 EQ PUSH2 0xAC2 JUMPI PUSH1 0x0 DUP1 REVERT JUMPDEST POP JUMP INVALID LOG2 PUSH5 0x6970667358 0x22 SLT KECCAK256 0xCA 0xD1 0x5C 0xB5 CALLCODE 0xFB DUP16 0xE4 0xDB ISZERO DUP11 JUMP 0xC2 0xEB 0xAF 0xD9 JUMP SWAP6 0xEA SWAP4 SAR PUSH28 0xF86CC09A55D5A7A1273064736F6C6343000807003300000000000000 "
				},
				"gasEstimates": {
					"creation": {
						"codeDepositCost": "562200",
						"executionCost": "594",
						"totalCost": "562794"
					},
					"external": {
						"addBus(address,string,uint256,string)": "infinite",
						"addStudent(string,uint256)": "infinite",
						"deleteStudent(uint256)": "infinite",
						"getStudents(uint256)": "infinite"
					}
				},
				"methodIdentifiers": {
					"addBus(address,string,uint256,string)": "009a4d3c",
					"addStudent(string,uint256)": "0e5eeef7",
					"deleteStudent(uint256)": "b645307d",
					"getStudents(uint256)": "75c2f8f0"
				}
			},
			"storageLayout": {
				"storage": [
					{
						"astId": 21,
						"contract": "contracts/database.sol:Database",
						"label": "manager",
						"offset": 0,
						"slot": "0",
						"type": "t_address"
					},
					{
						"astId": 24,
						"contract": "contracts/database.sol:Database",
						"label": "buses",
						"offset": 0,
						"slot": "1",
						"type": "t_array(t_address)dyn_storage"
					},
					{
						"astId": 27,
						"contract": "contracts/database.sol:Database",
						"label": "students",
						"offset": 0,
						"slot": "2",
						"type": "t_array(t_address)dyn_storage"
					},
					{
						"astId": 30,
						"contract": "contracts/database.sol:Database",
						"label": "owner",
						"offset": 0,
						"slot": "3",
						"type": "t_array(t_address)dyn_storage"
					},
					{
						"astId": 33,
						"contract": "contracts/database.sol:Database",
						"label": "busNum",
						"offset": 0,
						"slot": "4",
						"type": "t_array(t_string_storage)dyn_storage"
					},
					{
						"astId": 36,
						"contract": "contracts/database.sol:Database",
						"label": "studentNum",
						"offset": 0,
						"slot": "5",
						"type": "t_array(t_uint256)dyn_storage"
					},
					{
						"astId": 41,
						"contract": "contracts/database.sol:Database",
						"label": "BusDB",
						"offset": 0,
						"slot": "6",
						"type": "t_mapping(t_string_memory_ptr,t_struct(Bus_DB)19_storage)"
					},
					{
						"astId": 46,
						"contract": "contracts/database.sol:Database",
						"label": "StudentDB",
						"offset": 0,
						"slot": "7",
						"type": "t_mapping(t_uint256,t_struct(Student_DB)8_storage)"
					}
				],
				"types": {
					"t_address": {
						"encoding": "inplace",
						"label": "address",
						"numberOfBytes": "20"
					},
					"t_array(t_address)dyn_storage": {
						"base": "t_address",
						"encoding": "dynamic_array",
						"label": "address[]",
						"numberOfBytes": "32"
					},
					"t_array(t_string_storage)dyn_storage": {
						"base": "t_string_storage",
						"encoding": "dynamic_array",
						"label": "string[]",
						"numberOfBytes": "32"
					},
					"t_array(t_uint256)45_storage": {
						"base": "t_uint256",
						"encoding": "inplace",
						"label": "uint256[45]",
						"numberOfBytes": "1440"
					},
					"t_array(t_uint256)dyn_storage": {
						"base": "t_uint256",
						"encoding": "dynamic_array",
						"label": "uint256[]",
						"numberOfBytes": "32"
					},
					"t_mapping(t_string_memory_ptr,t_struct(Bus_DB)19_storage)": {
						"encoding": "mapping",
						"key": "t_string_memory_ptr",
						"label": "mapping(string => struct Database.Bus_DB)",
						"numberOfBytes": "32",
						"value": "t_struct(Bus_DB)19_storage"
					},
					"t_mapping(t_uint256,t_struct(Student_DB)8_storage)": {
						"encoding": "mapping",
						"key": "t_uint256",
						"label": "mapping(uint256 => struct Database.Student_DB)",
						"numberOfBytes": "32",
						"value": "t_struct(Student_DB)8_storage"
					},
					"t_string_memory_ptr": {
						"encoding": "bytes",
						"label": "string",
						"numberOfBytes": "32"
					},
					"t_string_storage": {
						"encoding": "bytes",
						"label": "string",
						"numberOfBytes": "32"
					},
					"t_struct(Bus_DB)19_storage": {
						"encoding": "inplace",
						"label": "struct Database.Bus_DB",
						"members": [
							{
								"astId": 10,
								"contract": "contracts/database.sol:Database",
								"label": "bus",
								"offset": 0,
								"slot": "0",
								"type": "t_address"
							},
							{
								"astId": 12,
								"contract": "contracts/database.sol:Database",
								"label": "destination",
								"offset": 0,
								"slot": "1",
								"type": "t_string_storage"
							},
							{
								"astId": 14,
								"contract": "contracts/database.sol:Database",
								"label": "start_time",
								"offset": 0,
								"slot": "2",
								"type": "t_uint256"
							},
							{
								"astId": 18,
								"contract": "contracts/database.sol:Database",
								"label": "Seat_number",
								"offset": 0,
								"slot": "3",
								"type": "t_array(t_uint256)45_storage"
							}
						],
						"numberOfBytes": "1536"
					},
					"t_struct(Student_DB)8_storage": {
						"encoding": "inplace",
						"label": "struct Database.Student_DB",
						"members": [
							{
								"astId": 5,
								"contract": "contracts/database.sol:Database",
								"label": "student_name",
								"offset": 0,
								"slot": "0",
								"type": "t_string_storage"
							},
							{
								"astId": 7,
								"contract": "contracts/database.sol:Database",
								"label": "student",
								"offset": 0,
								"slot": "1",
								"type": "t_address"
							}
						],
						"numberOfBytes": "64"
					},
					"t_uint256": {
						"encoding": "inplace",
						"label": "uint256",
						"numberOfBytes": "32"
					}
				}
			},
			"userdoc": {
				"kind": "user",
				"methods": {},
				"version": 1
			}
		}
	}
}